:100800008431552CAE3401347E1484314E01961E51
:100810000A2C0B2C132C8C1E0E2C0F2C132CAE31EF
:10082000AF268431532C0B1F162C172C532C991EDA
:100830001A2C1B2C262C8F1E1E2C1F2C262C400104
:1008400053088A0052080A008431532C191E292C9F
:100850002A2C352C0F1E2D2C2E2C352C4001550802
:100860008A0054080A008431532C991F382C392CE3
:10087000442C8F1F3C2C3D2C442C400157088A00EF
:1008800056080A008431532C191F472C482C532C2E
:100890000F1F4B2C4C2C532C400159088A00580830
:1008A0000A008431532C7E10090040018431582CF9
:1008B0004101AD3190258431EE00AD319125843177
:1008C000EF0099308400AD308500EC3086000130B7
:1008D00087000430AD31AF258431B5308400AD30B0
:1008E00085004C308600023087000630AD31AF25E0
:1008F00084314E308400003085002030AD31A92590
:10090000843156308400013085001830AD31A9257E
:100910008431A0308400013085004830AD31A925F4
:10092000843120308400023085002C30AD31A9257F
:1009300084317E1040018C31F72C4101E8006808B9
:100940004201A000A101A035A10DA035A10DA03547
:10095000A10DA035A10DA035A10D2008083EA200D3
:100960000030213DA3002208A4002308A500003088
:10097000A51BFF30A600A700003024044101A400FD
:100980002430420125044101A50000304201260423
:100990004101A6000030420127044101A700A63111
:1009A0001726843141012508E7002408E600B0300D
:1009B0004201A00020084101E9000030A000A10090
:1009C0002C30A2000030A300690898313E20843109
:1009D0004301B001B00AB101B10A06304201A000E2
:1009E00020084301B200B301FF304201A0000030F3
:1009F000A1000030A2000030A3005E08A4005F0840
:100A0000A5006008A6006108A7001830A736A60C4C
:100A1000A50CA40C890B062D2408A0052508A1050A
:100A20002608A2052708A3050030A800FF30A9006A
:100A30000030AA000030AB005E08AC005F08AD00DB
:100A40006008AE006108AF000830AF36AE0CAD0CE8
:100A5000AC0C890B252D2C08A8052D08A9052E08FE
:100A6000AA052F08AB050030B0000030B100FF3000
:100A7000B2000030B3005E08B4005F08B500600843
:100A8000B6006108B7000830B435B50DB60DB70D26
:100A9000890B442D3408B0053508B1053608B20578
:100AA0003708B3050030B8000030B9000030BA0094
:100AB000FF30BB005E08BC005F08BD006008BE00E0
:100AC0006108BF001830BC35BD0DBE0DBF0D890BD0
:100AD000632D3C08B8053D08B9053E08BA053F0836
:100AE000BB053808B0043908B1043A08B2043B0821
:100AF000B3043008A8043108A9043208AA04330852
:100B0000AB04200828044301B40042012108290451
:100B10004301B500420122082A044301B600420104
:100B200023082B044301B700410157084201A100EB
:100B3000410156084201A0002108A000A101FF3098
:100B40002005A20000302105A30041015608420102
:100B5000A500A40100302405A600FF302505A7004C
:100B6000220826044301B800420123082704430158
:100B7000B9008030BA000030BB0000304101A7004E
:100B80000030A6000930A5000030A400CC30A80039
:100B90000130A9000630AA000030AB00A331D123F8
:100BA0008431410166084201A00041016708420109
:100BB000A100A201A3010830A035A10DA20DA30D33
:100BC000890BDC2D410168084201A400A501A43570
:100BD000A50DA435A50DA435A50DA435A50DA435E9
:100BE000A50D2408103EA6000030253DA7002608CC
:100BF000A8002708A9000030A91BFF30AA00AB00FD
:100C0000200828044101A4004201210829044101CF
:100C1000A500420122082A044101A600420123083E
:100C20002B044101A7006908A8000130A9002C305D
:100C3000AA000030AB00A4316C2484312C30410177
:100C4000E6070030E73D0030A000A1002030A20000
:100C50000030A300690898313E2084314101E4014D
:100C6000E501410166084201A00041016708420117
:100C7000A100A201A3010830A035A10DA20DA30D72
:100C8000890B3C2E410168084201A400A501A4354E
:100C9000A50DA435A50DA435A50DA435A50DA43528
:100CA000A50D2408103EA6000030253DA70026080B
:100CB000A8002708A9000030A91BFF30AA00AB003C
:100CC000200828044101A40042012108290441010F
:100CD000A500420122082A044101A600420123087E
:100CE0002B044101A7006908A8000130A9002030A9
:100CF000AA000030AB00A4316C24843120304101C3
:100D0000E6070030E73D0130E4070030E53D6508C7
:100D1000803A4201A00080302002031D922E06304E
:100D200041016402031C952E962E312E6330420140
:100D3000A0004101690886000130870042012008B7
:100D400081008230A0004101690A860001308700DD
:100D50004201200881005330A00041016908023E91
:100D60008600013087004201200881006330A00026
:100D700041016908033E86000130870042012008D6
:100D800081003530A00041016908043E8600013031
:100D9000870042012008810041016908053E860064
:100DA000013087008101810A42016208A0004101EF
:100DB0006908063E86000130870042012008810054
:100DC0003D30A00041016908073E860001308700E0
:100DD0004201200881000730A00041016908083E57
:100DE0008600013087004201200881004101690826
:100DF000093E8600013087008101810A0030A7008A
:100E00000030A6000930A5000030A40069080A3EA1
:100E1000A8000130A9000630AA000030AB00A331C1
:100E2000D12384310C304201A00041016908103EF9
:100E30008600013087004201200881000030410116
:100E4000A000B030A100AE31DF268431410120087E
:100E5000063E4201A00041016908113E86000130B2
:100E6000870042012008810000304101A000B0301D
:100E7000A1006908123EAF3196278431410169080B
:100E80000D3E86000130870001084201A0000430B9
:100E9000A036890B482F0A302002031C502F512FF7
:100EA000672F410169080D3E860001308700010867
:100EB0004201A0000430A036890B5B2F2008573E6A
:100EC0004101D800003003180130D9007C2F4101C6
:100ED00069080D3E86000130870001084201A0002C
:100EE0000430A036890B712F2008303E4101D80014
:100EF000003003180130D90058084201A000410118
:100F00006908183E860001308700420120088100F0
:100F1000410169080D3E8600013087000F30010550
:100F20004201A0000A302002031C972F982FA72F00
:100F3000410169080D3E86000130870001080F3924
:100F4000573EDA00003003180130DB00B52F4101B5
:100F500069080D3E86000130870001080F39303ED8
:100F6000DA00003003180130DB005A084201A0000B
:100F700041016908193E86000130870042012008BE
:100F80008100410169080E3E86000130870001089A
:100F90004201A0000430A036890BCB2F0A3020027A
:100FA000031CD42F8A31252A8A313B2AF12F2008AD
:100FB000860021088700010843018C004E010F1CA8
:100FC000E22FE32FDE2F0F104101200886002108B9
:100FD000870043010C08810001304101A007003067
:100FE000A13D01304101A2020030A33B220A031DB2
:100FF000FD2F230A031DFD2FFE2FD72F0800080009
:101000004101BC003C08B400B501B435B50DB435A0
:10101000B50DB435B50DB435B50DB435B50D3408D1
:10102000083EB6000030353DB7003608B800370836
:10103000B9000030B91BFF30BA00BB0000303804E3
:10104000A40026303904A50000303A04A600003080
:101050003B04A700A6311726883141012508B300BB
:101060002408B20008004101E70067088831002029
:101070008831410132083304031D3F2840284328AA
:10108000FF309731FF2FB030C7000130C800083063
:10109000C9000030CA006708A5310B25883141011D
:1010A0004808E6004708E5000030660208300319EA
:1010B000650203185C285D285F2800304128430141
:1010C00035084201A000A101430134084201A200F9
:1010D000A3012208A300A201200822044101DA0092
:1010E0004201210823044101DB004301370842018A
:1010F000A000A101430136084201A200A301220879
:10110000A300A201200822044101E10042012108BC
:1011100023044101E200003062022C300319610215
:10112000031C932894285D2843305A065B04031956
:101130009A289B289C285D28B030C7000130C80041
:101140002C30C9000030CA006708A5310B25883152
:1011500041014808E6004708E500003066022C30EF
:10116000031965020318B528B628B7285D28023090
:10117000430130060319BD28BE28BF285D28FF3073
:101180004201A0000030A1000030A2000030A30006
:10119000430134084201A400430135084201A5007F
:1011A000430136084201A600430137084201A70067
:1011B0001830A736A60CA50CA40C890BD928240836
:1011C000A0052508A1052608A2052708A3050030CB
:1011D000A800FF30A9000030AA000030AB00430196
:1011E00034084201AC00430135084201AD0043011F
:1011F00036084201AE00430137084201AF00083013
:10120000AF36AE0CAD0CAC0C890B00292C08A80530
:101210002D08A9052E08AA052F08AB050030B0003F
:101220000030B100FF30B2000030B3004301340899
:101230004201B400430135084201B50043013608BC
:101240004201B600430137084201B7000830B43507
:10125000B50DB60DB70D890B27293408B005350833
:10126000B1053608B2053708B3050030B8000030C4
:10127000B9000030BA00FF30BB004301340842011E
:10128000BC00430135084201BD004301360842015C
:10129000BE00430137084201BF001830BC35BD0D08
:1012A000BE0DBF0D890B4E293C08B8053D08B90598
:1012B0003E08BA053F08BB053808B0043908B10438
:1012C0003A08B2043B08B3043008A8043108A90462
:1012D0003208AA043308AB04200828044101DD00C9
:1012E0004201210829044101DE00420122082A04AA
:1012F0004101DF00420123082B044101E0004201CB
:101300005D0841016002031D952942015C0841010D
:101310005F02031D952942015B0841015E02031D26
:10132000952942015A0841015D02031C9829992917
:101330005D28600842016102031DAE2941015F087A
:1013400042016002031DAE2941015E0842015F02B5
:10135000031DAE2941015D0842015E020318B12957
:10136000B229B3295D284101590886000130870060
:101370005D08C03F5E08C13F5F08C23F6008C33FD1
:101380000030A7000030A6000930A5000030A400FE
:10139000D230A8000130A9000630AA000030AB000E
:1013A000A331D1238831D2304201A000200841016D
:1013B000A0000630A1000030A200CC30A231B7223C
:1013C00088314101200821040319E729E829E92986
:1013D0005D286A30A0000130A100C030A2000130B9
:1013E000A3000430A4000030A500A1311F218831E2
:1013F000C0304101D5000030D6006708AE312F263D
:10140000883141015508E5075608E63DB030C70070
:101410000130C8000430C9000030CA006708A53197
:101420000B25883141014708E5074808E63D633050
:1014300043013006031D1D2A1E2A5D288230310615
:10144000031D242A95317B2D5D28410169080E3E3C
:1014500086000130870001084201A0000430A03658
:10146000890B2F2A2008573E4101DC000030031869
:101470000130DD00502A410169080E3E860001302E
:10148000870001084201A0000430A036890B452ADC
:101490002008303E4101DC00003003180130DD003F
:1014A0005C084201A000410169081A3E8600013033
:1014B0008700420120088100410169080E3E860034
:1014C000013087000F3001054201A0000A302002E0
:1014D000031C6B2A6C2A7B2A410169080E3E860098
:1014E0000130870001080F39573EDE000030031835
:1014F0000130DF00892A410169080E3E8600013073
:10150000870001080F39303EDE000030031801303B
:10151000DF005E084201A000410169081B3E860011
:1015200001308700420120088100410169080F3E17
:1015300086000130870001084201A0000430A03677
:10154000890B9F2A0A302002031CA72AA82ABE2A38
:10155000410169080F3E8600013087000108420101
:10156000A0000430A036890BB22A2008573E410162
:10157000E000003003180130E100D32A410169087E
:101580000F3E86000130870001084201A0000430B0
:10159000A036890BC82A2008303E4101E000003007
:1015A00003180130E10060084201A0004101690810
:1015B0001C3E860001308700420120088100410165
:1015C00069080F3E8600013087000F300105420197
:1015D000A0000A302002031CEE2AEF2AFE2A410155
:1015E00069080F3E86000130870001080F39573E19
:1015F000E200003003180130E3000C2B41016908C0
:101600000F3E86000130870001080F39303EE200AE
:10161000003003180130E30062084201A0004101DC
:1016200069081D3E860001308700420120088100C4
:10163000410166084201A000410167084201A10082
:10164000A201A3010830A035A10DA20DA30D890BA5
:10165000232B410168084201A400A501A435A50D72
:10166000A435A50DA435A50DA435A50DA435A50D4E
:101670002408103EA6000030253DA7002608A8003B
:101680002708A9000030A91BFF30AA00AB002008E2
:1016900028044101A4004201210829044101A500B8
:1016A000420122082A044101A600420123082B041A
:1016B0004101A7006908A8000130A9001E30AA0056
:1016C0000030AB00A4316C248A311E304101E607A2
:1016D0000030E73DFF3042016205A00000306305A5
:1016E000A100033020062104031D772B782B172C33
:1016F0003230A000410169088600013087004201B4
:10170000200881000430A0004101690A86000130F0
:10171000870042012008810041016908023EA000C3
:101720000130A1006A30A2000130A3000430A400FF
:101730000030A500A1311F218A3136304201A000BE
:1017400041016908063E86000130870042012008F9
:1017500081000430A00041016908073E8600013085
:10176000870042012008810041016908083EA0006D
:101770000130A100E430A2000130A3000430A40035
:101780000030A500A1311F218A31410166084201C4
:10179000A000410167084201A100A201A301083095
:1017A000A035A10DA20DA30D890BD02B4101680816
:1017B0004201A400A501A435A50DA435A50DA435AD
:1017C000A50DA435A50DA435A50D2408103EA60031
:1017D0000030253DA7002608A8002708A9000030F2
:1017E000A91BFF30AA00AB00200828044101A40077
:1017F0004201210829044101A500420122082A04CE
:101800004101A600420123082B044101A7006908F9
:10181000A8000130A9000C30AA000030AB00A431B0
:101820006C248A310C304101E6070030E73D373047
:101830004201A00041016908860001308700420191
:10184000200881000430A0004101690A86000130AF
:10185000870042012008810041016908023E86009C
:10186000013087008101810A03304201A00041015B
:101870006908033E8600013087004201200881008C
:101880003A30A00041016908043E8600013087001B
:101890004201200881003B30A00041016908053E5B
:1018A000860001308700420120088100FF30A0003F
:1018B00041016908063E8600013087004201200888
:1018C0008100410166084201A00041016708420110
:1018D000A100A201A3010830A035A10DA20DA30D06
:1018E000890B6C2C410168084201A400A501A435B4
:1018F000A50DA435A50DA435A50DA435A50DA435BC
:10190000A50D2408103EA6000030253DA70026089E
:10191000A8002708A9000030A91BFF30AA00AB00CF
:10192000200828044101A4004201210829044101A2
:10193000A500420122082A044101A6004201230811
:101940002B044101A7006908A8000130A900073055
:10195000AA000030AB00A4316C248A310730410169
:10196000E6070030E73D68084201A000A101A0356C
:10197000A10DA035A10DA035A10DA035A10DA0355B
:10198000A10D2008083EA2000030213DA30022083E
:10199000A4002308A5000030A51BFF30A600A70067
:1019A000003024044101A4002430420125044101F7
:1019B000A5000030420126044101A600003042018A
:1019C00027044101A7006708A9006608A800A43100
:1019D0001E248A3141016908C7000130C800003067
:1019E000C900CA0068089B314F238A310800AF3113
:1019F00036278C3154011F16A5315C258C310530FA
:101A00004101ED000F30EC00F130890B052DEC0B9E
:101A1000052DED0B052D003040010E19013041015F
:101A2000EE00031040010E1E0314003003180130B5
:101A30004201E900CF01CF0A6908031D202D212DA5
:101A40003F2D400194119A1105304101ED000F30F6
:101A5000EC00F130890B2A2DEC0B2A2DED0B2A2DF1
:101A6000031040010E1E0314003003180130420120
:101A7000E800680803193D2D3E2D3F2DCF014001A0
:101A800094129A12420169080319472D482D572DC7
:101A9000A131AB218C310130A1314C218C3101308D
:101AA000AE3199268C31AE31F9268C31B22D400100
:101AB000181315304101ED004B30EC00BE30890B9E
:101AC0005F2DEC0B5F2DED0B5F2D00004001181713
:101AD00005304101ED000F30EC00F130890B6E2D27
:101AE000EC0B6E2DED0B6E2D42014F08031D792D71
:101AF0007A2D9F2D9A2D03304101A0000030A100C6
:101B0000AE31C6268C3105304101ED000F30EC00BE
:101B1000F130890B892DEC0B892DED0B892D0030CF
:101B20004101A000A100AE31C6268C310130A031A8
:101B300070208C3140018D189E2D9F2D7B2D4101F1
:101B40006E08031DA42DA52DAC2DAE3143268C317E
:101B5000AE3183268C31B22DA131AB218C31A13134
:101B60007A218C3117304101A0002F30A100AD3116
:101B7000EF258C31AD3192258C3109304101ED00DA
:101B80001E30EC00E430890BC32DEC0BC32DED0BA4
:101B9000C32D000000304101A000A100AE31C626D7
:101BA0008C3109304101ED001E30EC00E430890B2E
:101BB000D72DEC0BD72DED0BD72D000003304101B5
:101BC000A0000030A100AE31C6268C3141016E0864
:101BD0000319EB2DEC2D2B2E09304101ED001E30A9
:101BE000EC00E430890BF22DEC0BF22DED0BF22D15
:101BF000000008304101A0000030A100AE31C6262F
:101C00008C3109304101ED001E30EC00E430890BCD
:101C1000072EEC0B072EED0B072E00001F304101A5
:101C2000A0000030A100AE31C6268C310930410140
:101C3000ED001E30EC00E430890B1C2EEC0B1C2E4A
:101C4000ED0B1C2E00003F304101A0000030A10030
:101C5000AE31C6268C314201D10169080319312EFB
:101C6000322E1A2FD40100304101A7000030A60007
:101C70003930A5000030A400A801A3313F238C31E6
:101C80004101EC006C084201CE0004304E060319FD
:101C90004A2E4B2E752E540803194F2E502E592EB6
:101CA000D40100304101A000A100AE31C6268C3124
:101CB000632ED401D40A3F304101A0000030A100BE
:101CC000AE31C6268C310B304101ED002630EC00E0
:101CD0005D30890B692EEC0B692EED0B692E0032FD
:101CE0000030A03170208C31332E943114248C318B
:101CF0004101EC006C084201D100A72E42015408BA
:101D00000319832E842E8D2ED40100304101A000B2
:101D1000A100AE31C6268C31972ED401D40A3F30B3
:101D20004101A0000030A100AE31C6268C31033045
:101D30004101ED000830EC007730890B9D2EEC0B53
:101D40009D2EED0B9D2E0030A03170208C31003087
:101D50004101A7000030A6002E30A5000030A400ED
:101D6000A801A3313F238C3101390319B82EB92EB4
:101D70007E2E420151080319BE2EBF2E222F670866
:101D80004101C400420166084101C30000309031A6
:101D9000A9208C314201D001132F4201D001D00A79
:101DA000E92E67084101EB00420166084101EA00A3
:101DB00000309131A7218C314101EC00ED016D081B
:101DC000003A0319E42EE92E6C08013A0319CD2ECE
:101DD000E92E420154080319EE2EEF2EF82ED401FD
:101DE00000304101A000A100AE31C6268C31022F87
:101DF000D401D40A3F304101A0000030A100AE312F
:101E0000C6268C3106304101ED001330EC00AD30B8
:101E1000890B082FEC0B082FED0B082F0032003038
:101E2000A03170208C31420150080319182F192F4E
:101E3000D12E222F6E304101A0001A30A100AD3109
:101E4000CB258C3111304101A0001030A100AD3103
:101E5000DD258C318B170B174001DB01DB0A4201BA
:101E600069080319342F352FF92FD5014201510884
:101E700003193B2F3C2F472F67084101EB0042011C
:101E800066084101EA0000309131A7218C314201FE
:101E90005508031D4C2F4D2F672F0F304101B40003
:101EA0002730B50001309D311E258C3100304101B5
:101EB000A7000030A6002F30A5002C30A400A801F8
:101EC000A80AA3313F238C314201D501D50A55031D
:101ED000031D6B2F6C2F7D2F4101B4010130983110
:101EE000EC208C31003A0319762F772F7D2F0230AA
:101EF0004101EC006C084201D50002304201550658
:101F0000031D832F842F9E2F0130A63188268C310C
:101F1000003A03198C2F8D2F902F4201D5019E2F4F
:101F20000130883100208C3141013208330403191B
:101F30009A2F9B2F9E2F9A316E228C312C3041018B
:101F40006F02EC006C084201D20052080319A92F5D
:101F5000AA2FF42F02305506031DAF2FB02FC22F2A
:101F60002C304101C7000230C80042015208410133
:101F7000EC00ED016C08C9006D08CA0001309B310E
:101F80004F238C314E0199134201520841016F02D7
:101F9000EC006C084201D3002C304101EC004201FE
:101FA000530841016C020318D62FD72FEC2F2C3089
:101FB000A0000230A100420153084101A2000230FA
:101FC000A3002C30420153024101A400A501A41B2F
:101FD000A503A1311F218C31420153084101EC00BE
:101FE0006C08EF004E0199170030A03170208C3141
:101FF000362F0130A03170208C31F92F8431552CCF
:1020000008000130450190008F0191010F308D00D3
:102010008C014E019010FF3045018E000F308D0075
:102020000800F80154011D1D162817282428410115
:102030006E0803191C281D282228F2010B30A63136
:10204000FA269031F801F80A54019D1C2828292805
:1020500039281D121D1641016E0803193028312838
:102060003728F201F20A0B30A631FA269031F80136
:10207000F80A54011908F7007708F90078080319DD
:10208000422843284D284001DD011F30F000003078
:10209000F100AE316D269031A82841016E08031D74
:1020A000522853285C287908F7007708F20001309D
:1020B000A631FA269031A82840015D03031D61284E
:1020C00062287A28AA307906031D672868287A28AA
:1020D0005C08A031982090310230F7007708400169
:1020E000DD007908F7007708F2000130A631FA2602
:1020F0009031A82802305D06031D7F288028A02883
:1021000079085C06031D852886288F287908F70042
:102110007708F2000230A631FA2690319728790824
:10212000F7007708F2000A30A631FA269031400114
:10213000DD010030F000F100AE316D269031A828AD
:102140007908F7007708F2000130A631FA269031BD
:1021500008004101CE00FF30A0000030A100043093
:10216000A2000030A3006A3098313E209031003048
:102170004101A000A1000430A2000030A300E4301F
:1021800098313E20903141014E08C500C601C53549
:10219000C60DC535C60DC535C60DC535C60DC5350B
:1021A000C60D4508083EC7000030463DC800470838
:1021B000C9004808CA000030CA1BFF30CB00CC0061
:1021C00004304904A4001F304A04A50000304B0429
:1021D000A60000304C04A7000230CD004D08A80036
:1021E000A3313F23903141014E08C500C601C535DA
:1021F000C60DC535C60DC535C60DC535C60DC535AB
:10220000C60D4508083EC7000030463DC8004708D7
:10221000C9004808CA000030CA1BFF30CB00CC0000
:1022200004304904A4001E304A04A50000304B04C9
:10223000A60000304C04A7000230CD004D08A800D5
:10224000A3313F23903144304101B4000030B50048
:102250006A30C5004508B6004330B7000030B8000A
:102260004E089231BE229031A33187239031410133
:102270003408C5003508C6000030C61BFF30C70053
:10228000C800053045064201DE00E830410146063F
:102290004201DF000A30410147064201E000003000
:1022A000410148064201E1006108DD006008DC00F0
:1022B0005F08DB005E08DA00410144084201E500E6
:1022C000410143084201E40000304101A000A100A7
:1022D0000430A2000030A3006A3098313E209031D3
:1022E000FF304101A0000030A1000430A200003006
:1022F000A300E03098313E20903100304101A00031
:10230000A1000430A2000030A300DC3098313E2050
:10231000903101304201E2000030E300003044011E
:10232000AB000030AA000030A9000030A8002B0844
:102330004301AB0044012A084301AA0044012908D3
:102340004301A900440128084301A80008004201F4
:10235000C800033063066204031DAF29B029E029D9
:1023600059085804570456040319B729B829E02915
:1023700041016A084201C00041016B084201C100ED
:10238000C201C30159084302031DD0295808420263
:10239000031DD02957084102031DD02956084002C9
:1023A000031CD329D429E0290330E2000030E300E4
:1023B0000030D9000030D8000030D7000030D600FF
:1023C0006318E329E429F429640841016A02D6006C
:1023D0004201650841016B3BD70042014808843146
:1023E0009D249131420163146108CC006008CB0048
:1023F0005F08CA005E08C9004930C00040084101BA
:10240000D900420148088831332091314201C1008E
:102410004108CD004D0A031D0E2A0F2AAF2AFF30B6
:10242000BD2A02304D06031D162A172A242A4C08FD
:10243000E1004B08E0004A08DF004908DE000330F5
:10244000E2000030E300BC2A0130E2000030E3008B
:10245000BC2A05304D06031D2E2A2F2AA32A4C081C
:10246000E1004B08E0004A08DF004908DE000030C8
:102470004101A7000030A6000F30A5000030A400E5
:102480006A30A8000130A9000430AA000030AB0077
:10249000A4316C24913100304101A7000030A60026
:1024A0000530A5000030A400E030A8000130A900EC
:1024B0000430AA000030AB00A4316C24913100300C
:1024C0004101A7000030A6000130A5000030A400A3
:1024D000DC30A8000130A9000430AA000030AB00B5
:1024E000A4316C249131430128084201C00043010A
:1024F00029084201C10043012A084201C2004301E8
:102500002B084201C30041016A084201C400410195
:102510006B084201C500C601C7014408C007450851
:10252000C13D4608C23D4708C33D4308D9004208A3
:10253000D8004108D7004008D6000030E200033040
:10254000E3000130BD2A06304D06031DA82AA92A42
:10255000AA2A242A0330E2000030E300BC2A6308E0
:10256000013A0319B42ABC2A6208013A0319112A54
:10257000023A0319292ABC2A003008004101C2008E
:102580004208B900BA01B935BA0DB935BA0DB93535
:10259000BA0DB935BA0DB935BA0D3908083EBB00C8
:1025A00000303A3DBC003B08BD003C08BE00003096
:1025B000BE1BFF30BF00C00000303D04A40004304B
:1025C0003E04A50000303F04A60000304004A700F0
:1025D0003508A9003408A800A4311E249231410115
:1025E0004208B900BA01B935BA0DB935BA0DB935D5
:1025F000BA0DB935BA0DB935BA0D3908083EBB0068
:1026000000303A3DBC003B08BD003C08BE00003035
:10261000BE1BFF30BF00C00000303D04A4000C30E2
:102620003E04A50000303F04A60000304004A7008F
:102630003608A8000130A9000430AA000030AB0021
:10264000A4316C24923141014208B900BA01B93574
:10265000BA0DB935BA0DB935BA0DB935BA0DB935A6
:10266000BA0D3908083EBB0000303A3DBC003B08BB
:10267000BD003C08BE000030BE1BFF30BF00C000E4
:1026800000303D04A40010303E04A50000303F049B
:10269000A60000304004A7003808A9003708A800A9
:1026A000A4311E24923141014208B900BA01B93562
:1026B000BA0DB935BA0DB935BA0DB935BA0DB93546
:1026C000BA0D3908083EBB0000303A3DBC003B085B
:1026D000BD003C08BE000030BE1BFF30BF00C00084
:1026E00000303D04AE0001303E04AF0000303F0436
:1026F000B00000304004B1001030C1004108B20009
:10270000A0314920923141014208B900BA01B935DE
:10271000BA0DB935BA0DB935BA0DB935BA0DB935E5
:10272000BA0D3908083EBB0000303A3DBC003B08FA
:10273000BD003C08BE000030BE1BFF30BF00C00023
:1027400004303D04A40000303E04A50000303F04E6
:10275000A60000304004A7000230C1004108A800D4
:10276000A3313F23923141014208B900BA01B93582
:10277000BA0DB935BA0DB935BA0DB935BA0DB93585
:10278000BA0D3908083EBB0000303A3DBC003B089A
:10279000BD003C08BE000030BE1BFF30BF00C000C3
:1027A00000303D04AE0001303E04AF0000303F0475
:1027B000B00000304004B100B201B20AA03149209B
:1027C000923141014208B900BA01B935BA0DB935A3
:1027D000BA0DB935BA0DB935BA0DB935BA0D3908D2
:1027E000083EBB0000303A3DBC003B08BD003C0841
:1027F000BE000030BE1BFF30BF00C00000303D04F3
:10280000A40003303E04A50000303F04A6000030C1
:102810004004A700A801A3313F239231223A031DAF
:10282000122C132C532B08004C30860002308700EA
:10283000B53084000030850006304101B10016003B
:102840001A00B10B1F2C0030CB000030CA00003042
:10285000C9000030C80043016F084101BE004301B8
:102860006E084101BD0043016D084101BC004301F8
:102870006C084101BB0050011E179B019A014101E8
:10288000C701C70ACF01CE0150011E141C08410127
:10289000B1003108C5004E08031D4F2C502C642C8C
:1028A00050011D084101B1003108C600C61A592C5B
:1028B0005B2C01305C2C0030B1003108C7004608A9
:1028C0001F39B1003108CF004508B1004E08C83E9D
:1028D00086008701310881004E080319702C712C85
:1028E0007F2C4708031D752C762C7F2C4508B100E2
:1028F0004E08023EB53E8600870131088100013056
:10290000B100310850019A0701304101B10031088E
:10291000CE0704304E02031C8E2C8F2C442C47080B
:102920000319932C942CB72C013050019B000630D6
:102930009A004101CC0150011E141C084101B10054
:102940004C08033EB53E8600870131088100013006
:10295000B100310850019A0701304101B10031083E
:10296000CC0703304C02031CB62CB72C9B2C003038
:10297000A7000030A6000930A5000030A400B53043
:10298000A8000030A9000630AA000030AB00A43136
:102990006C2494311F3041014F060319D02CD12CE7
:1029A000D92C49084A044B044804031DD82CD92CBF
:1029B000DB2C01307A2D0030A7000030A6000F304C
:1029C000A5000030A400C830A8000030A9000430E1
:1029D000AA000030AB00A4316C2494314101CD0138
:1029E00008304F020318F52CF62C1B2D4F08031945
:1029F000FA2CFB2C142D0130B1000030B2004F082E
:102A0000083C890A052DB135B20D890B032D31081B
:102A1000FF3EB300FF30323DB400FF303306C1004B
:102A200000303406C200162DC101C2014208C000A8
:102A30004108BF001F2DFF30BF000030C0003F081D
:102A4000B1004D08BB3E86008701310881004D086A
:102A5000BB3E860087010108B1004D08C83E8600D4
:102A600087013108810508304F020318382D392DB0
:102A70003C2DC301C401432D4F08F83EC300FF3075
:102A800003180030C4004308B1003108CF00013002
:102A9000B1003108CD0704304D02031C502D512DDB
:102AA000F02C0030A7000030A6000530A500003053
:102AB000A400BB30A8000030A9000430AA000030F8
:102AC000AB00A4316C24943141014B140030A700B9
:102AD0000030A6000130A5000030A400C830A800D6
:102AE0000030A9000430AA000030AB00A4316C24EF
:102AF00094310030080053303206031D802D822DA2
:102B000088315D28633033060319872D882D892D80
:102B1000802D4101DC01E72FB030C7000130C80033
:102B20000130C9000030CA006708A5310B25953176
:102B3000410147084804031D9E2D9F2DA02DF22F13
:102B40000130E5070030E63D430130084201A000B6
:102B500020084101E300630A031DAF2DB02DB12D04
:102B6000F22F6308031DB52DB62DB72DE72FB0301A
:102B7000C7000130C8000130C9000030CA00670832
:102B8000A5310B259531410147084804031DC92D86
:102B9000CA2DCB2DF22F0130E5070030E63D430171
:102BA00030084201A00020084101E4006408031934
:102BB000DA2DDB2D022EB030C7000130C8006408CA
:102BC0004201A000A10120084101C90042012108E1
:102BD0004101CA006708A5310B2595314101640800
:102BE0004201A200A3014101480842012306031D3E
:102BF000FD2D41014708420122060319002E012E36
:102C0000022EF22F410164084201A000A101200818
:102C10004101E507420121084101E63DCA2FE030AC
:102C20004101A0000130A100B030A2000130A3009A
:102C30000430A4000030A500A1311F219531E72FF9
:102C4000DC304101A0000130A100B030A200013011
:102C5000A3000430A4000030A500A1311F2195314C
:102C6000E72F430130084201A00020084101DC00A9
:102C7000E72FE4304101A0000130A100B030A200F4
:102C80000130A3000430A4000030A500A1311F21B1
:102C90009531E72FFF30A0000030A1000030A200E6
:102CA0000030A300430130084201A4004301310871
:102CB0004201A500430132084201A6004301330846
:102CC0004201A7001830A736A60CA50CA40C890B4E
:102CD000632E2408A0052508A1052608A2052708BB
:102CE000A3050030A800FF30A9000030AA00003082
:102CF000AB00430130084201AC00430131084201FE
:102D0000AD00430132084201AE00430133084201E5
:102D1000AF000830AF36AE0CAD0CAC0C890B8A2E70
:102D20002C08A8052D08A9052E08AA052F08AB0513
:102D30000030B0000030B100FF30B2000030B3000E
:102D4000430130084201B400430131084201B5009B
:102D5000430132084201B600430133084201B70083
:102D60000830B435B50DB60DB70D890BB12E34084A
:102D7000B0053508B1053608B2053708B30500308F
:102D8000B8000030B9000030BA00FF30BB0043018A
:102D900030084201BC00430131084201BD0043013B
:102DA00032084201BE00430133084201BF0018301F
:102DB000BC35BD0DBE0DBF0D890BD82E3C08B80526
:102DC0003D08B9053E08BA053F08BB053808B00400
:102DD0003908B1043A08B2043B08B3043008A80427
:102DE0003108A9043208AA043308AB0420082804D7
:102DF0004301A8004201210829044301A90042011E
:102E000022082A044301AA00420123082B0443019B
:102E1000AB00E72FFF30A0000030A1000030A2007F
:102E20000030A300430130084201A40043013108EF
:102E30004201A500430132084201A60043013308C4
:102E40004201A7001830A736A60CA50CA40C890BCC
:102E5000232F2408A0052508A1052608A205270878
:102E6000A3050030A800FF30A9000030AA00003000
:102E7000AB00430130084201AC004301310842017C
:102E8000AD00430132084201AE0043013308420164
:102E9000AF000830AF36AE0CAD0CAC0C890B4A2F2E
:102EA0002C08A8052D08A9052E08AA052F08AB0592
:102EB0000030B0000030B100FF30B2000030B3008D
:102EC000430130084201B400430131084201B5001A
:102ED000430132084201B600430133084201B70002
:102EE0000830B435B50DB60DB70D890B712F340808
:102EF000B0053508B1053608B2053708B30500300E
:102F0000B8000030B9000030BA00FF30BB00430108
:102F100030084201BC00430131084201BD004301B9
:102F200032084201BE00430133084201BF0018309D
:102F3000BC35BD0DBE0DBF0D890B982F3C08B805E3
:102F40003D08B9053E08BA053F08BB053808B0047E
:102F50003908B1043A08B2043B08B3043008A804A5
:102F60003108A9043208AA043308AB042008280455
:102F70004401A8004201210829044401A90042019A
:102F800022082A044401AA00420123082B04440118
:102F9000AB00E72F63084201A000A1012108003A1D
:102FA0000319D32FE72F2008013A03190F2E023AF5
:102FB0000319202E363A0319312E033A0319392EFC
:102FC0000C3A03194A2E013A03190A2FE72F41013F
:102FD00062086602031DEE2F61086502031CF12FD3
:102FE000F22F8C2D410165086102D5006608623B15
:102FF000D6006708AE312F26953141015C080800E4
:10300000400199127408F9007508FA007608FB006F
:103010007708FC001030FC36FB0CFA0CF90C890B1D
:103020000B287908FD007D08E5007408F900750893
:10303000FA007608FB007708FC000830FC36FB0C31
:10304000FA0CF90C890B1E287908FD007D08E600B2
:103050007408F9007908E7007808F9007908E800B1
:103060006530F0000030F1000430F2000030F30071
:10307000A031232098314001991608004101A80091
:103080002808A4002408A90022082304031D4928B5
:103090004A284B28EB282008A40029088600013084
:1030A0008700240881002008A40022082907A50021
:1030B0002508FF3E8600013087002408810000308B
:1030C000230203300319220203186728682869289D
:1030D000EB282008A400290A860001308700240874
:1030E00081002008A4002908023E860001308700E4
:1030F000240881002008A40022082907A50025082B
:10310000FE3E860001308700240881002008A400CC
:1031100022082907A5002508FD3E8600013087000A
:10312000240881000030230207300319220203180B
:103130009A289B289C28EB282008A4002908033EF5
:10314000860001308700240881002008A40022089E
:103150002907A5002508FC3E8600013087002408C9
:103160008100003023020930031922020318B92814
:10317000BA28BB28EB282909A4002A09A500A40A1B
:103180000319A50A03302405A60000302505A70071
:103190002608A4002408A9072608A2022708A33BA2
:1031A000FC30A205FF30A305E5282008A40029086B
:1031B000860001308700240881000130A20200301F
:1031C000A33B0130A4002408A90722082304031DFF
:1031D000EA28EB28D52808004101BF0059293F08FB
:1031E000B500B601B535B60DB535B60DB535B60D6C
:1031F000B535B60DB535B60D3508083EB70000300B
:10320000363DB8003708B9003808BA000030BA1B9C
:10321000FF30BB00BC0000303904AE0001303A047E
:10322000AF0000303B04B00000303C04B10002307D
:10323000BD003D08B200A0314920983198293408DA
:1032400003192329242957293F08B500B601B535AC
:10325000B60DB535B60DB535B60DB535B60DB535BA
:10326000B60D3508083EB7000030363DB8003708C7
:10327000B9003808BA000030BA1BFF30BB00BC00F0
:1032800000303904A4000C303A04A50000303B049F
:10329000A60000303C04A7003408A8000030A900B4
:1032A0000430AA000030AB00A331D12398310130A3
:1032B00099293F08B500B601B535B60DB535B60D3F
:1032C000B535B60DB535B60DB535B60D3508083E74
:1032D000B7000030363DB8003708B9003808BA00EA
:1032E0000030BA1BFF30BB00BC0000303904A40022
:1032F00003303A04A50000303B04A60000303C0433
:10330000A700A801A3313F2398314101BD00BE01B0
:103310003E08003A03198D2998293D08133A0319EC
:10332000EF28073A03199829033A03191F29982906
:10333000003008004001CC01420169080319A129AD
:10334000A229B7294D304001BA000030BB0001303E
:10335000BC000030BD000130A431BA2499314001D5
:103360003A033B040319B529B629E5296D2A1D1D29
:10337000BA29BB29C92941016E080319C029C129ED
:10338000C629F2010C30A631FA2699314001CC0150
:10339000CC0A42019D1CCD29CE29DF291D121D1604
:1033A00041016E080319D529D629DC29F201F20A58
:1033B0000C30A631FA2699314001CC01CC0A4201E9
:1033C00019084001C8004808CD004C080319E92934
:1033D000EA29F329DD011F30F0000030F100AE31A1
:1033E0006D2699316D2A41016E08031DF829F929CE
:1033F0005B2A40014D08A031982099316D2A5E0862
:10340000C8000230C836890B022A48080F39C900A3
:103410004908CB003B2ADE01DD01DB01DB0A4E2A35
:103420003F304D05C8005E080339C9000530C93575
:10343000FF3E031D172A49354804A03198209931D1
:103440004E2A3F304D05C8005E080339C9000530DB
:10345000C935FF3E031D282A49354804CA004A08D9
:10346000DC00DD01DD0A0330F0000030F100AE3198
:103470006D2699314E2A4B08C800C9014908003A07
:103480000319432A4E2A4808003A03190B2A013A25
:103490000319102A033A0319212A4E2A4001DE019A
:1034A0006D2A4D08C8004808DE006D2A4D08A0317D
:1034B000982099314E2A40014D08C039C800C901F1
:1034C0004908003A0319652A562A4808803A031920
:1034D000FF29403A0319512A562A08007E1C722AF5
:1034E00099319A294101D901420169080319792AC0
:1034F0007A2A8F2ADA304101C7000030C800013033
:10350000C9000030CA000130A5310B259A314101B4
:103510004703480403198D2A8E2ABD2A4E2B1D1DF0
:10352000922A932AA12A41016E080319982A992AFE
:103530009E2AA2010C30A7317C279A314101D90182
:10354000D90A42019D1CA52AA62AB72A1D121D16BA
:1035500041016E080319AD2AAE2AB42AA201A20ABB
:103560000C30A7317C279A314101D901D90A420197
:1035700019084101D5005508DA0059080319C12A74
:10358000C22ACD2A4001DD011F304101A0000030D8
:10359000A100AE31C6269A314E2B6E08031DD12AEA
:1035A000D22A3D2B5A08A131DC219A314E2B400101
:1035B0005E084101D5000230D536890BDC2A55085A
:1035C0000F39D6005608D8001C2B4001DE01DD0162
:1035D000DB01DB0A2F2B3F305A05D50040015E0886
:1035E00003394101D6000530D635FF3E031DF42ACC
:1035F00056355504A131DC219A312F2B3F305A0525
:10360000D50040015E0803394101D6000530D635AA
:10361000FF3E031D072B56355504D70057084001C0
:10362000DC00DD01DD0A03304101A0000030A10013
:10363000AE31C6269A312F2B5808D500D601560830
:10364000003A0319242B2F2B5508003A0319E52AB9
:10365000013A0319EB2A033A0319FE2A2F2B4001E2
:10366000DE014E2B5A08D50055084001DE004E2BD6
:103670005A08A131DC219A312F2B5A08C039D500C4
:10368000D6015608003A0319462B382B5508803AC4
:103690000319D72A403A0319322B382B080041016D
:1036A000D50049084A040319562B572B692B4808A3
:1036B000B3004708B2004A08B5004908B4005508ED
:1036C0009C3132249B31003A031D672B682B692BF8
:1036D000312C41015508CB00CC01CB35CC0DCB357D
:1036E000CC0DCB35CC0DCB35CC0DCB35CC0D4B0823
:1036F000083ECD0000304C3DCE004D08CF004E08B6
:10370000D0000030D01BFF30D100D20000304F0479
:10371000AE0001305004AF0000305104B000003062
:103720005204B1002030D3005308B200A031492028
:103730009B3141015508CB00CC01CB35CC0DCB35AD
:10374000CC0DCB35CC0DCB35CC0DCB35CC0D4B08C2
:10375000083ECD0000304C3DCE004D08CF004E0855
:10376000D0000030D01BFF30D100D20000304F0419
:10377000A40002305004A50000305104A60000301F
:103780005204A700A801A3313F239B314101D3007C
:103790005308D400541ECD2BCE2BFE2B5508CB0046
:1037A000CC01CB35CC0DCB35CC0DCB35CC0DCB35C1
:1037B000CC0DCB35CC0D4B08083ECD0000304C3D38
:1037C000CE004D08CF004E08D0000030D01BFF3097
:1037D000D100D20004304F04A40002305004A500F0
:1037E00000305104A60000305204A7001830D30066
:1037F0005308A800A3313F239B31312CD41D012C49
:10380000022C992B5508CB00CC01CB35CC0DCB35F8
:10381000CC0DCB35CC0DCB35CC0DCB35CC0D4B08F1
:10382000083ECD0000304C3DCE004D08CF004E0884
:10383000D0000030D01BFF30D100D20004304F0444
:10384000A40002305004A50000305104A60000304E
:103850005204A7000830D3005308A800A3313F2327
:103860009B3108004101C60034083504031D392C82
:103870003A2C3C2C01301D2D4608B600B701B63558
:10388000B70DB635B70DB635B70DB635B70DB6357C
:10389000B70D3608083EB8000030373DB90038088B
:1038A000BA003908BB000030BB1BFF30BC00BD00B4
:1038B00000303A04A40020303B04A50000303C0452
:1038C000A60000303D04A700A63117269C31410117
:1038D0002508C3002408C20035084302031D722CCA
:1038E000340842020318752C762C782C00301D2DDC
:1038F0004608B600B701B635B70DB635B70DB635C3
:10390000B70DB635B70DB635B70D3608083EB80059
:103910000030373DB9003808BA003908BB00003024
:10392000BB1BFF30BC00BD0000303A04A4002430B3
:103930003B04A50000303C04A60000303D04A70075
:10394000A63117269C3141012508C5002408C40072
:103950004408B6004508B700B801B9010830B635CB
:10396000B70DB80DB90D890BAF2C4608BA00BB01D5
:10397000BA35BB0DBA35BB0DBA35BB0DBA35BB0D6B
:10398000BA35BB0D3A08103EBC0000303B3DBD00CF
:103990003C08BE003D08BF000030BF1BFF30C00028
:1039A000C10036083E04A40037083F04A5003808CB
:1039B0004004A60039084104A7003308A9003208D2
:1039C000A8003508AB003408AA00A4316C249C314F
:1039D00041013408C4073508C53D4608B600B701A3
:1039E000B635B70DB635B70DB635B70DB635B70D1B
:1039F000B635B70D3608083EB8000030373DB9007F
:103A00003808BA003908BB000030BB1BFF30BC00CF
:103A1000BD0000303A04A40024303B04A50000306F
:103A20003C04A60000303D04A7004508A900440856
:103A3000A800A4311E249C31013008004101BF00C0
:103A40003F08B600B701B635B70DB635B70DB63578
:103A5000B70DB635B70DB635B70D3608083EB80008
:103A60000030373DB9003808BA003908BB000030D3
:103A7000BB1BFF30BC00BD0000303A04A400043082
:103A80003B04A50000303C04A60000303D04A70024
:103A90003508A9003408A800A4311E249D31410135
:103AA0003F08B600B701B635B70DB635B70DB63518
:103AB000B70DB635B70DB635B70D3608083EB800A8
:103AC0000030373DB9003808BA003908BB00003073
:103AD000BB1BFF30BC00BD0000303A04AE0001301B
:103AE0003B04AF0000303C04B00000303D04B100A6
:103AF0001030BE003E08B200A03149209D31410186
:103B00003F08B600B701B635B70DB635B70DB635B7
:103B1000B70DB635B70DB635B70D3608083EB80047
:103B20000030373DB9003808BA003908BB00003012
:103B3000BB1BFF30BC00BD0004303A04A4000030C1
:103B40003B04A50000303C04A60000303D04A70063
:103B5000A801A80AA3313F239D3141013F08B600C7
:103B6000B701B635B70DB635B70DB635B70DB635A5
:103B7000B70DB635B70D3608083EB8000030373DF2
:103B8000B9003808BA003908BB000030BB1BFF3051
:103B9000BC00BD0000303A04AE0001303B04AF0071
:103BA00000303C04B00000303D04B100B201B20A64
:103BB000A03149209D3141013F08B600B701B6351B
:103BC000B70DB635B70DB635B70DB635B70DB63539
:103BD000B70D3608083EB8000030373DB900380848
:103BE000BA003908BB000030BB1BFF30BC00BD0071
:103BF00000303A04A40003303B04A50000303C042C
:103C0000A60000303D04A700A801A3313F239D3149
:103C1000133A031D0C2E0D2E4F2D08004001B90044
:103C20003908A900AA01A935AA0DA935AA0DA935F7
:103C3000AA0DA935AA0DA935AA0D2908083EAB0081
:103C400000302A3DAC002B08AD002C08AE0000303F
:103C5000AE1BFF30AF00B00000302D04F400263062
:103C60002E04F50000302F04F60000303004F70079
:103C7000A531B3259E3175084001B6007408B50022
:103C800028083602031D462E270835020318492E40
:103C90004A2E4E2E3608A8003508A700270828040B
:103CA000031D532E542E572EA501A601062F3908A9
:103CB000A900AA01A935AA0DA935AA0DA935AA0DF1
:103CC000A935AA0DA935AA0D2908083EAB00003078
:103CD0002A3DAC002B08AD002C08AE000030AE1B16
:103CE000FF30AF00B00000302D04F40028302E0467
:103CF000F50000302F04F60000303004F700A53145
:103D0000B3259E3175084001B8007408B700250836
:103D1000260403198C2E8D2ECD2E3708A9003808C5
:103D2000AA00AB01AC010830A935AA0DAB0DAC0D52
:103D3000890B942E3908AD00AE01AD35AE0DAD3511
:103D4000AE0DAD35AE0DAD35AE0DAD35AE0D2D08AC
:103D5000183EAF0000302E3DB0002F08B1003008F3
:103D6000B2000030B21BFF30B300B40029083104A8
:103D7000F4002A083204F5002B083304F6002C085E
:103D80003404F7002608F9002508F8002808FB008D
:103D90002708FA00A231FA229E3140012708B7070E
:103DA0002808B83D3908A900AA01A935AA0DA935E6
:103DB000AA0DA935AA0DA935AA0DA935AA0D29085C
:103DC000083EAB0000302A3DAC002B08AD002C08AB
:103DD000AE000030AE1BFF30AF00B00000302D044D
:103DE000F40028302E04F50000302F04F6000030D7
:103DF0003004F7003808F9003708F800A2317422BF
:103E00009E3140012808A6002708A50008004101AE
:103E1000C6004608B600B701B635B70DB635B70DC2
:103E2000B635B70DB635B70DB635B70D3608083E01
:103E3000B8000030373DB9003808BA003908BB0077
:103E40000030BB1BFF30BC00BD0000303A04A400B2
:103E500026303B04A50000303C04A60000303D04A1
:103E6000A700A63117269F3141012508C300240869
:103E7000C20035084302031D3F2F340842020318D5
:103E8000422F432F472F4308B5004208B40034089F
:103E90003504031D4C2F4D2F502FB201B301FF2FBE
:103EA0004608B600B701B635B70DB635B70DB6350D
:103EB000B70DB635B70DB635B70D3608083EB800A4
:103EC0000030373DB9003808BA003908BB0000306F
:103ED000BB1BFF30BC00BD0000303A04A4002830FA
:103EE0003B04A50000303C04A60000303D04A700C0
:103EF000A63117269F3141012508C5002408C400BA
:103F0000320833040319852F862FC62F4408B600C4
:103F10004508B700B801B9010830B635B70DB80D7E
:103F2000B90D890B8D2F4608BA00BB01BA35BB0D00
:103F3000BA35BB0DBA35BB0DBA35BB0DBA35BB0DA5
:103F40003A08183EBC0000303B3DBD003C08BE00B6
:103F50003D08BF000030BF1BFF30C000C100360865
:103F60003E04A40037083F04A50038084004A6001A
:103F700039084104A7003308A9003208A800350811
:103F8000AB003408AA00A331D1239F31410134088A
:103F9000C4073508C53D4608B600B701B635B70DAC
:103FA000B635B70DB635B70DB635B70DB635B70D55
:103FB0003608083EB8000030373DB9003808BA006E
:103FC0003908BB000030BB1BFF30BC00BD00003017
:103FD0003A04A40028303B04A50000303C04A600AD
:103FE00000303D04A7004508A9004408A800A431FA
:103FF0001E249F3141013508B3003408B200080087
:1040000008304001620203180628072820286308A8
:10401000A03E860001308700010854019A0001305B
:10402000F00070084001E30708306302031C192800
:104030001A281B28E3010130F0007008E20722284B
:104040004E01191308003C2870088600710887008B
:10405000010843018C004E010F1C2F2830282B280B
:104060000F10700886007108870043010C0881005A
:104070000130F0070030F13D0130F2020030F33B37
:10408000720A031D4728730A031D4728482824285D
:104090000800043041012E04A40000302F04A500C4
:1040A00000303004A60000303104A7003208B3000D
:1040B0003308A800A3313F23A03141013108A700F4
:1040C0003008A6002F08A5002E08A400A801A331DF
:1040D0003F23A031003A031D6E286F285D28080099
:1040E0004101A40040010E1B7628772885285A0834
:1040F00003197B287C287F28AE311C26A031400183
:10410000DA01DA0A4101A401A40A410124080319D1
:104110008A288B28972805304101A3000F30A20080
:10412000F130890B9128A20B9128A30B912808004C
:10413000F1009B286400400162080319A028A1280F
:104140009A284E01191BA528A628AA2871085401EF
:104150009A00C22819137108F00040016408A03EBB
:10416000860001308700700881000130F00070087F
:10417000E40708306402031CBE28BF28C028E401FD
:104180000130E2024E0119170800F100C82864004E
:1041900040015F080319CD28CE28C7284E01191AFF
:1041A000D228D328D728710842019A00EF28191283
:1041B0007108F00040016108203E8600023087004F
:1041C000700881000130F0007008E10708306102DA
:1041D000031CEB28EC28ED28E1010130DF024E0141
:1041E0001916080040019801203099009A01043006
:1041F0009200C63093007D3094007E01CE01C30151
:104200000C30B800E501FF30C4004030B9007F3009
:10421000CF00BA01C501D001FF30BB00FF30C6009E
:10422000FF30D100FF30BC00FF30C700FF30D200AC
:104230000830E8000B30980013309300080041016B
:104240002308AB002208AA002108A9002008A80022
:104250003F292A0886002B0887000108A6002608A7
:10426000A7000130AA070030AB3D280886002908C6
:104270008700270881000130A8070030A93D0130E0
:10428000A4020030A53B240A031D4A29250A031D68
:104290004A294B29292908004101A0004301901215
:1042A0004101200803195529562971290C307D0137
:1042B000C50015307E019C004312400113127E019F
:1042C000441616309B00C311400193117E01C415A2
:1042D0000A307D01C6007E014311400113157E01A5
:1042E0004415403043018F009001910101308D0051
:1042F000901608000F307E019B000A307D01CB0034
:104300004E019912FF304101A0000730A100AD31EC
:10431000CB25A1314E011912B8304101A0002F3038
:10432000A100AD31D425A131083042019F00903069
:104330009D0024309E0040309B0003309C004001D3
:10434000E101E00108304101A20022084001DF0044
:104350004E019916080011307E01A10010307D0138
:10436000CD004E0199138F304101A0002D30A100E6
:10437000AD31DD25A1314E01191300304101A000FE
:104380002030A100AD31E625A131183054019F0045
:1043900090309D0024309E0004309B000D309C0026
:1043A0004001E401E30108304101A200220840017C
:1043B000E2004E01991708004101A100E0296400C4
:1043C000400162080319E529E629DF294E01191B7E
:1043D000EA29EB29F0294101210854019A000B2A0E
:1043E000191341012108A00040016408A03E860085
:1043F000013087004101200881000130A000200821
:104400004001E40708306402031C072A082A092A2D
:10441000E4010130E2024E01191708004101A10038
:10442000122A640040015F080319172A182A112A6A
:104430004E01191A1C2A1D2A222A41012108420173
:104440009A003D2A191241012108A000400161088B
:10445000203E8600023087004101200881000130A3
:10446000A00020084001E10708306102031C392A3E
:104470003A2A3B2AE1010130DF024E0119160800F9
:1044800000304101B3000030B2000030B100003014
:10449000B000281C4C2A4D2A552A2C08B0072D089C
:1044A000B13D2E08B23D2F08B33D0130AC35AD0D06
:1044B000AE0DAF0D890B562A0130AB36AA0CA90CF4
:1044C000A80C890B5D2A2B082A0429042804031D43
:1044D0006A2A6B2A492A3308AB003208AA0031083D
:1044E000A9003008A8000800400199127408A00033
:1044F0007508A1007608A2007708A3001030A33643
:10450000A20CA10CA00C890B7F2A2008A40024086F
:10451000E5007408A0007508A1007608A2007708DD
:10452000A3000830A336A20CA10CA00C890B922A80
:104530002008A4002408E60074080438A00020081D
:10454000E7007908A0002008E8007808A00020080B
:10455000E9006530F0000030F1000530F200003075
:10456000F300A0312320A231400199160800410137
:10457000A4002408A3002308A5002008A300230802
:10458000A600CE2A0130A1020030A23B0130A300D8
:104590002308A5070130A3002308A6072108220449
:1045A0000319D32AD42AE22A26088600013087007C
:1045B0002508840001308500000801060319E12A5E
:1045C000E22AC22A21082204031DE72AE82AEB2A4C
:1045D000A001A101F92A25088600013087002608DC
:1045E00084000130850000080102A000A101031C25
:1045F000A1030800400199127408A0007508A100E9
:104600007608A2007708A3001030A336A20CA10CF4
:10461000A00C890B052B2008A4002408E5007408D1
:10462000A0007508A1007608A2007708A300083052
:10463000A336A20CA10CA00C890B182B2008A400F7
:104640002408E6007408A0002008E7006530F000A8
:104650000030F1000330F2000030F300A0312320DD
:10466000A2317908F1007808F0007B08F3007A089D
:10467000F200A0312320A231400199160800400128
:10468000991241012408A9002508AA002608AB00B8
:104690002708AC001030AC36AB0CAA0CA90C890B67
:1046A0004B2B2908AD002D084001E50041012408ED
:1046B000A9002508AA002608AB002708AC0008308E
:1046C000AC36AB0CAA0CA90C890B602B2908AD00E9
:1046D0002D084001E60041012408A90029084001F5
:1046E000E70041012808A90029084001E8006530D9
:1046F0004101A0000030A1000430A2000030A3005E
:104700008731D627A3314001991668080800400177
:104710006D084101AB0040016C084101AA00400155
:104720006B084101A90040016A084101A8004C3012
:10473000AF009530AE007F30AD002D30AC00A2311F
:104740004022A3310130410128074001EA00003036
:104750004101293D4001EB00003041012A3D40016B
:10476000EC00003041012B3D4001ED006A084101A1
:10477000B60040016B084101B70040016C084101DF
:10478000B80040016D084101B9001130B936B80CCC
:10479000B70CB60C890BC62B3708B5003608B40029
:1047A00008004001991241012408AC002508AD0021
:1047B0002608AE002708AF001030AF36AE0CAD0CA7
:1047C000AC0C890BDD2B2C08B00030084001E50053
:1047D00041012408AC002508AD002608AE002708DA
:1047E000AF000830AF36AE0CAD0CAC0C890BF22B21
:1047F0002C08B00030084001E60041012408AC005C
:104800002C084001E70065304101A0000030A10004
:104810000330A2000030A3008731D627A331410125
:104820002908A1002808A0002B08A3002A08A2003C
:104830008731D627A331400199160800400199120B
:1048400041012408AA002508AB002608AC0027086F
:10485000AD001030AD36AC0CAB0CAA0C890B2A2C79
:104860002A08AE002E084001E50041012408AA00F4
:104870002508AB002608AC002708AD000830AD368F
:10488000AC0CAB0CAA0C890B3F2C2A08AE002E08EE
:104890004001E600410124080438AA002A0840012A
:1048A000E70041012908AA002A084001E800410167
:1048B0002808AA002A084001E90065304101A0004B
:1048C0000030A1000530A2000030A3008731D627B8
:1048D000A4314001991608004001991241012408B1
:1048E000AC002508AD002608AE002708AF00103048
:1048F000AF36AE0CAD0CAC0C890B782C2C08B0008C
:1049000030084001E50041012408AC002508AD0055
:104910002608AE002708AF000830AF36AE0CAD0C4D
:10492000AC0C890B8D2C2C08B00030084001E6003F
:10493000410124080438AC002C084001E700653030
:104940004101A0000030A1000330A2000030A3000C
:104950008731D627A43141012908A1002808A000E9
:104960002B08A3002A08A200AF317527A43140010B
:10497000991608004001C7003B08A6003A08A500A8
:104980003D08A8003C08A70047089E310E26A43128
:1049900040012608BD002508BC003C083D04031D5D
:1049A000D22CD32CD62CBA01BB010A2D4708BE004D
:1049B000BF01BE35BF0DBE35BF0DBE35BF0DBE3507
:1049C000BF0DBE35BF0D3E08083EC00000303F3D64
:1049D000C1004008C2004108C3000030C31BFF30C3
:1049E000C400C50004304204F40001304304F50063
:1049F00000304404F60000304504F7004030C600A3
:104A00004608F80098310020A43140013D08BB0061
:104A10003C08BA0008004101D4004808B300470828
:104A2000B2004A08B5004908B40054089F3107276E
:104A3000A53141013308CA003208C90049084A04B7
:104A4000031D232D242D272DC701C8015B2D5408DC
:104A5000CB00CC01CB35CC0DCB35CC0DCB35CC0D33
:104A6000CB35CC0DCB35CC0D4B08083ECD000030FE
:104A70004C3DCE004D08CF004E08D0000030D01B7A
:104A8000FF30D100D20004304F04A40001305004A4
:104A9000A50000305104A60000305204A7004030A9
:104AA000D3005308A800A3313F23A53141014A0890
:104AB000C8004908C700080000304101A3000030C9
:104AC000A2000130A1001630A000AF31DB27A531D4
:104AD00041012108A9002008A8000A30AA000030DE
:104AE000AB00AF315527A531410129084201EF0044
:104AF000410128084201EE0000304101A3000030CE
:104B0000A2000130A1001930A000AF31DB27A53190
:104B100041012008B4002108B500B601B7013708EB
:104B2000AB003608AA003508A9003408A8000030F8
:104B3000AF000030AE000030AD006430AC00A231F8
:104B40004022A53141012B084301EB0041012A0815
:104B50004301EA00410129084301E9004101280815
:104B60004301E80008004001A201A20A991274085A
:104B7000F8007508F9007608FA007708FB00103095
:104B8000FB36FA0CF90CF80C890BC02D7808FC00E8
:104B90007C08E5007408F8007508F9007608FA004A
:104BA0007708FB000830FB36FA0CF90CF80C890B7F
:104BB000D32D7808FC007C08E6007408F80078081B
:104BC000E7006530F0000030F1000530F200003001
:104BD000F300A0312320A531400199162408A1003B
:104BE0002308A0006908F800F9016808FA00FB0131
:104BF0007A08FB00FA0178087A04A30079087B049C
:104C0000A40022080319052E062E082EA201B62D97
:104C100021082406031D0E2E20082306031D112E35
:104C2000122EB62D2408F5002308F40008004101D7
:104C3000AF01AF0A4001991241012408A8002508DC
:104C4000A9002608AA002708AB001030AB36AA0C32
:104C5000A90CA80C890B262E2808AC002C084001B2
:104C6000E50041012408A8002508A9002608AA009B
:104C70002708AB000830AB36AA0CA90CA80C890B8E
:104C80003B2E2808AC002C084001E6004101240816
:104C9000A80028084001E70065304101A00000306D
:104CA000A1000530A2000030A3008731D627A6312D
:104CB0004001991641013108AE003008AD004001B5
:104CC00069084101A800A901400168084101AA0042
:104CD000AB012A08AB00AA0128082A04B000290861
:104CE0002B04B1002F080319762E772E792EAF01F1
:104CF0001A2E2E083106031D7F2E2D083006031DA7
:104D0000822E832E1A2E3108A5003008A400080038
:104D10004101BE00BC2E3E08B400B501B435B50D4E
:104D2000B435B50DB435B50DB435B50DB435B50DD7
:104D30003408083EB6000030353DB7003608B800EC
:104D40003708B9000030B91BFF30BA00BB00003093
:104D50003804AE0001303904AF0000303A04B0002E
:104D600000303B04B1001030BC003C08B200A03160
:104D70004920A6310130F92E3E08B400B501B43502
:104D8000B50DB435B50DB435B50DB435B50DB43577
:104D9000B50D3408083EB6000030353DB700360882
:104DA000B8003708B9000030B91BFF30BA00BB00AB
:104DB00000303804A40003303904A50000303A0460
:104DC000A60000303B04A700A801A3313F23A63171
:104DD0004101BC00BD013D08003A0319F02EF82E38
:104DE0003C08003A0319BA2E1C3A03198B2EF82EF0
:104DF00000300800F600420169080319002F012F56
:104E00004C2F4A3041016F02031C072F082F092F36
:104E10007B2F6E0803190D2F0E2F192F7603031DFC
:104E2000122F132F262F803072020318182F192FDC
:104E3000262F7208F3006F0886000230870073087F
:104E400081000130F3007308EF077B2F7208F30035
:104E50000630F336890B292F7608F4000130F4353B
:104E6000FF3E031D2F2F74357304C038F5006F0803
:104E7000860002308700750881000130F300730856
:104E8000EF0772083F398038F3006F088600023060
:104E9000870073088100212F41016E080319512FEB
:104EA000522F5D2F7603031D562F572F622F803010
:104EB000720203185C2F5D2F622F7208A031C5208B
:104EC000A6317B2F7208F3000630F336890B652F6D
:104ED0007608F4000130F435FF3E031D6B2F743566
:104EE0007304C038A031C520A63172083F3980381C
:104EF000A031C520A63108004101A6004201690881
:104F00000319832F842FCF2F4A3041016F02031CD6
:104F10008A2F8B2F8C2FFF2F6E080319902F912F24
:104F20009C2F2603031D952F962FA92F8030220238
:104F300003189B2F9C2FA92F2208A3006F0886001F
:104F400002308700230881000130A3002308EF0707
:104F5000FF2F2208A3000630A336890BAC2F2608AA
:104F6000A4000130A435FF3E031DB22F24352304D5
:104F7000C038A5006F088600023087002508810030
:104F80000130A3002308EF0722083F398038A3002F
:104F90006F0886000230870023088100A42F41019A
:104FA0006E080319D42FD52FE02F2603031DD92F08
:104FB000DA2FE52F803022020318DF2FE02FE52FB4
:104FC0002208A2310E22A731FF2F2208A3000630AB
:104FD000A336890BE82F2608A4000130A435FF3E34
:104FE000031DEE2F24352304C038A2310E22A73131
:104FF000410122083F398038A2310E22A731080032
:105B1E00080001342C344B019E170800BB30520193
:105B2E008C000800FF34FF34FF340034803046010F
:105B3E009600950194010800163050018C00373004
:105B4E008D000800640080010131890BAA2D0034FC
:105B5E00FE0012001E00FE0BB02D0034AE34B03429
:105B6E005334EF34FE34EF34E33041019E009B0199
:105B7E009C0101309D00080082305301900091017C
:105B8E000630920093010800410121084001D30024
:105B9E00410120084001D2000800410121084001C6
:105BAE00D500410120084001D40008004101210820
:105BBE004001D700410120084001D60008004101F4
:105BCE0021084001D900410120084001D8000800F9
:105BDE00410121084001EF00410120084001EE0083
:105BEE000800603051018D008F0191010630930045
:105BFE0090019201080040016E086F040319082EEF
:105C0E00092E0E2E6F088A006E080A00AE310800AB
:105C1E004F01960102309700453098003B309900B5
:105C2E0001309A0006309B0008008B130B130530D1
:105C3E004101A1000F30A000F130890B242EA00BE2
:105C4E00242EA10B242E7E019B01A1010100080030
:105C5E004101D8000030C7000030C8005608CA0005
:105C6E005508C9005808A5310B25AE314101480829
:105C7E00D6004708D500080010307D01BB00033068
:105C8E007E019B0002307C01A500A601A701A801A0
:105C9E00A9010230AA00AB01AC01AD018030A40015
:105CAE00080048304B019F00FF309D009C014E01C3
:105CBE008C12961600304101A0001030A100AD31BB
:105CCE00EF25AE3180304B019E0008007108F300C5
:105CDE007008F200F336F20CF336F20C720846013D
:105CEE00950070080339F2000530F235FF3E031DB2
:105CFE007C2E7235940008000A307D01BD00043000
:105D0E007E01A10082307C01AF000230B000B101F3
:105D1E00B201B3010230B400B501B601B701803053
:105D2E00AE0008004101A000200803199F2EA02EEE
:105D3E00AB2E7E01C312400193127E01C41638139E
:105D4E00400112137E0139174001181799160800E9
:105D5E004E018C1201304001D0070030D13D003091
:105D6E0051027A3003195002031CBE2EBF2EC52ECF
:105D7E00AE310226AE314001D001D1010800410101
:105D8E002108A3002008A200A336A20CA336A20C61
:105D9E00220846019500410120080339A200053072
:105DAE00A235FF3E031DD72E223546019400080072
:105DBE0041012108A4002008A300E92E0130A0070C
:105DCE000030A13D20088400210885001200031D2B
:105DDE00F12EF22EE52E23082002A0002408213BEE
:105DEE00A10008004001181315304101A1004B30ED
:105DFE00A000BE30890B012FA00B012FA10B012F8C
:105E0E0000004001181705304101A1000F30A0001D
:105E1E00F130890B102FA00B102FA10B102F0800A3
:105E2E0001304201E6070030E73D40015B080319EF
:105E3E00212F222F352FDB0141016E080319282F48
:105E4E00292F352FF2010030A631FA26AF313F301F
:105E5E00F0000030F100AE316D26AF310800AE31EA
:105E6E000F26AF31A031F220AF31AD31F825AF3171
:105E7E00AD31A325AF31AD319525AF319031012034
:105E8E00AF31AE315826AF31AD31C325AF31AD3163
:105E9E00BB25AF31AD319D25AF3108004101AC01BD
:105EAE00AD01281C5B2F5C2F602F2A08AC072B0836
:105EBE00AD3D0130AA35AB0D890B612F0130A936EE
:105ECE00A80C890B662F28082904031D6F2F702F2D
:105EDE00582F2D08A9002C08A8000800882F20088C
:105EEE00860021088700010843018C000130410122
:105EFE00A0070030A13D4E010F1C862F872F822F49
:105F0E000F1001304101A2020030A33B220A031DF3
:105F1E00942F230A031D942F952F762F08004101ED
:105F2E00A7002108A5002008A4002708A200220827
:105F3E00A6002608860001308700A60A2508A300C1
:105F4E002408A200A40A0319A50A22088400230823
:105F5E0085000008C03F8908031DB62FB72FA02F5C
:105F6E000800083040015F020318BE2FBF2FD82F44
:105F7E006008203E860002308700010842019A0028
:105F8E000130F00070084001E00708306002031C89
:105F9E00D12FD22FD32FE0010130F0007008DF0790
:105FAE00DA2F4E011912080050011E174101200868
:105FBE00A4002108A5002208A6002308A700083087
:105FCE00A736A60CA50CA40C890BE72F24085001AC
:105FDE009B004101200850019A001E140000000091
:105FEE0050011D084101A10050011C084101A000F3
:105FFE0008006134653462347534733433340034DC
:00000001FF
