:100800008431552CAE3401347E1484314E01961E51
:100810000A2C0B2C132C8C1E0E2C0F2C132CAD31F0
:1008200022258431532C0B1F162C172C532C991E68
:100830001A2C1B2C262C8F1E1E2C1F2C262C400104
:1008400053088A0052080A008431532C191E292C9F
:100850002A2C352C0F1E2D2C2E2C352C4001550802
:100860008A0054080A008431532C991F382C392CE3
:10087000442C8F1F3C2C3D2C442C400157088A00EF
:1008800056080A008431532C191F472C482C532C2E
:100890000F1F4B2C4C2C532C400159088A00580830
:1008A0000A008431532C7E10090040018431582CF9
:1008B00041018731FE278431EE008731FF278431E3
:1008C000EF0008308400AC308500EC308600013049
:1008D000870004309831012084310030840090304A
:1008E00085005030860002308700063098310120A4
:1008F00084314E308400003085002030AC31182423
:10090000843159308400013085001430AC31182412
:100910008431A0308400013085004830AC31182487
:10092000843120308400023085003030AC3118240E
:1009300084317E10400184319D2CAD31902584316D
:1009400054011F16A4313B24843105304101ED00D0
:100950000F30EC00F130890BAB2CEC0BAB2CED0B1A
:10096000AB2C003040010E1901304101EE000310A4
:1009700040010E1E03140030031801304201E8004C
:10098000D101D10A6808031DC62CC72CE52C4001F3
:1009900094119A1105304101ED000F30EC00F13057
:1009A000890BD02CEC0BD02CED0BD02C031040017C
:1009B0000E1E03140030031801304201E7006708DF
:1009C0000319E32CE42CE52CD101400194129A1276
:1009D000420168080319ED2CEE2CFD2CA0311920E2
:1009E000843101308831012084310130AD310C2552
:1009F0008431AD3153258431682D400118131530F1
:100A00004101ED004B30EC00BE30890B052DEC0BA5
:100A1000052DED0B052D0000400118170530410193
:100A2000ED000F30EC00F130890B142DEC0B142D80
:100A3000ED0B142D42015108031D1F2D202D552DA6
:100A4000502D03304101A0000030A100A031002052
:100A500084310130AE31CA26843105304101ED00C8
:100A60000F30EC00F130890B332DEC0B332DED0BF7
:100A7000332D00304101A000A100A03100208431BD
:100A80000130AE31CA26843105304101ED000F300E
:100A9000EC00F130890B4A2DEC0B4A2DED0B4A2D61
:100AA00040018D18542D552D212D41016E08031D37
:100AB0005A2D5B2D622DAC31B6248431AC31F62435
:100AC0008431682DA03119208431AF31CF27843192
:100AD00071304101A0002D30A100AC31522484318D
:100AE000AC310124843109304101ED001E30EC00AD
:100AF000E430890B792DEC0B792DED0B792D00006D
:100B000000304101A000A100A03100208431093053
:100B10004101ED001E30EC00E430890B8D2DEC0B13
:100B20008D2DED0B8D2D000003304101A000003014
:100B3000A100A0310020843141016E080319A12DCC
:100B4000A22DE12D09304101ED001E30EC00E43012
:100B5000890BA82DEC0BA82DED0BA82D000008305B
:100B60004101A0000030A100A031002084310930F3
:100B70004101ED001E30EC00E430890BBD2DEC0B83
:100B8000BD2DED0BBD2D00001F304101A000003038
:100B9000A100A0310020843109304101ED001E3058
:100BA000EC00E430890BD22DEC0BD22DED0BD22DC5
:100BB00000003F304101A0000030A100A031002022
:100BC0008431420168080319E62DE72D1D2FD70156
:100BD00000304101A7000030A6003930A5000030E8
:100BE000A400A801A2311E2284314101EC006C084E
:100BF0004201CE0004304E060319FF2D002E2A2E8E
:100C000057080319042E052E0E2ED701003041017E
:100C1000A000A100A03100208431182ED701D70AEE
:100C20003F304101A0000030A100A03100208431FC
:100C30000B304101ED002630EC005D30890B1E2E9B
:100C4000EC0B1E2EED0B1E2E00320030AE31CA26EC
:100C50008431E82D9131CE2184314101EC006C08C2
:100C60004201D4005C2E420157080319382E392E58
:100C7000422ED70100304101A000A100A031002088
:100C800084314C2ED701D70A3F304101A0000030FB
:100C9000A100A0310020843103304101ED00083073
:100CA000EC007730890B522EEC0B522EED0B522EAE
:100CB0000030AE31CA26843100304101A700003037
:100CC000A6002E30A5000030A400A801A2311E22EB
:100CD0008431013903196D2E6E2E332E42016608C0
:100CE0004101C400420165084101C30042015408AA
:100CF0004101EC006C08C50000309E31DD268431D6
:100D0000420154080319852E862E252F6608D0002F
:100D10006508CF00D301D201162F4F0865024101AB
:100D2000EC0042015008663B4101ED0000306D02CD
:100D30000A3003196C02031C9E2E9F2EC22E420104
:100D40006608D0006508CF0066084101C400420172
:100D500065084101C300C501C50A00309E31DD268A
:100D6000843103304101ED000830EC007730890B0D
:100D7000B72EEC0BB72EED0BB72EC22E4201D201CF
:100D8000D20ADB2E420166084101EB0042016508F0
:100D90004101EA00003088312F2084314101EC000C
:100DA000ED016D08003A0319D62EDB2E6C08013ACE
:100DB0000319BE2EDB2E420157080319E02EE12E47
:100DC000EA2ED70100304101A000A100A03100208F
:100DD0008431F42ED701D70A3F304101A000003002
:100DE000A100A0310020843106304101ED00133014
:100DF000EC00AD30890BFA2EEC0BFA2EED0BFA2E2F
:100E0000003201304101EC006C084201D307083088
:100E10005302031C0C2F0D2F122FD3010130E507B5
:100E20000030E63D0030AE31CA268431420152081E
:100E300003191B2F1C2F8D2E252F29304101A000B7
:100E40001A30A100AC312E24843109304101A000B8
:100E50002630A100AC31402484318B170B174001A0
:100E6000DB01DB0A420168080319372F382FF72FFF
:100E7000D801420166084101EB00420165084101C9
:100E8000EA00003088312F20843142015808031DC8
:100E90004A2F4B2F652F0F304101B4002730B5008A
:100EA00001309B31FB23843100304101A700003029
:100EB000A6002F30A5002C30A400A801A80AA2315A
:100EC0001E2284314201D801D80A5803031D692F1C
:100ED0006A2F7B2F4101B4010130A73152278431A1
:100EE000003A0319742F752F7B2F02304101EC005B
:100EF0006C084201D800023042015806031D812FC0
:100F0000822F9C2F0130903106208431003A031942
:100F10008A2F8B2F8E2F4201D8019C2F0130A031B8
:100F2000AE2084314101320833040319982F992FE0
:100F30009C2F9A3129228431303041016F02EC001C
:100F40006C084201D50055080319A72FA82FF22FCE
:100F500002305806031DAD2FAE2FC02F3030410197
:100F6000C7000230C800420155084101EC00ED0104
:100F70006C08C9006D08CA000130993146218431DE
:100F80004E0199134201550841016F02EC006C08B3
:100F90004201D60030304101EC00420156084101C7
:100FA0006C020318D42FD52FEA2F3030A000023066
:100FB000A100420156084101A2000230A3003030D6
:100FC000420156024101A400A501A41BA503AF31B3
:100FD000A2278431420156084101EC006C08EF0061
:100FE0004E0199170030AE31CA268431392F0130B5
:100FF000AE31CA268431F72F8431552C0134303478
:1010000008004101A000430190124101200803198A
:101010000A280B2826280C307D01C50015307E01DA
:101020009C004312400113127E01441616309B00AF
:10103000C311400193117E01C4150A307D01C60021
:101040007E014311400113157E01441540304301D8
:101050008F009001910101308D009016080042012F
:10106000C80000304101A7000030A6002E30A500C6
:101070000030A400A801A2311E2288310139031DCD
:10108000422843286828FF3042016105C000003033
:101090006205C100083040064104031D5028512854
:1010A00056280830E1000030E2005A280130E10003
:1010B0000030E20041016A08013E4201D9000030DF
:1010C00041016B3D4201DA00DB01DC01FF30D42934
:1010D000FF3042016105C00000306205C1000830E8
:1010E00040064104031D75287628A32841016A089B
:1010F0004201C00041016B084201C100C201C301AD
:101100005C084302031D8E285B084202031D8E28E3
:101110005A084102031D8E2859084002031C9128D9
:101120009228DA280830E1000030E20041016A0824
:101130003C3E4201D900003041016B3D4201DA00E2
:10114000DB01DC01DA28033062066104031DA928F3
:10115000AA28DA285C085B045A0459040319B12848
:10116000B228DA2841016A084201C00041016B0837
:101170004201C100C201C3015C084302031DCA2829
:101180005B084202031DCA285A084102031DCA28EF
:1011900059084002031CCD28CE28DA280330E1008C
:1011A0000030E2000030DC000030DB000030DA000C
:1011B0000030D9006218DD28DE28EE2863084101DE
:1011C0006A02D6004201640841016B3BD70042012C
:1011D00048088C31A7248831420162146008CC0091
:1011E0005F08CB005E08CA005D08C9004930C00036
:1011F00040084101D9004201480893313523883124
:101200004201C1004108CD004D0A031D08290929EA
:10121000C329662802304D06031D0F2910291D29F8
:101220004C08E0004B08DF004A08DE004908DD00FA
:101230000330E1000030E200D3290130E10000304A
:10124000E200D32905304D06031D272928299C29B2
:101250004C08E0004B08DF004A08DE004908DD00CA
:1012600000304101A7000030A6000F30A50000307B
:10127000A4006930A8000130A9000430AA000030A1
:10128000AB00A3314B23883100304101A70000306F
:10129000A6000530A5000030A400E030A800013011
:1012A000A9000430AA000030AB00A3314B238831E1
:1012B00000304101A7000030A6000130A500003039
:1012C000A400DC30A8000130A9000430AA000030DE
:1012D000AB00A3314B238831430128084201C000F1
:1012E000430129084201C10043012A084201C2000A
:1012F00043012B084201C30041016A084201C400B6
:1013000041016B084201C500C601C7014408C0077E
:101310004508C13D4608C23D4708C33D4308DC00BF
:101320004208DB004108DA004008D9000030E10043
:101330000330E2000130D42906304D06031DA129F7
:10134000A229A3291D290330E1000030E200D3299E
:1013500005304D06031DAD29AE29D3294C08E00008
:101360004B08DF004A08DE004908DD0041016A0839
:101370003C3E4201D900003041016B3D4201DA00A0
:10138000DB01DC01D3296208013A0319C829D329FA
:101390006108013A03190A29023A031922290B3A72
:1013A0000319A829D32900300800410169080E3E1D
:1013B00086000130870001084201A0000430A036F9
:1013C000890BDF292008573E4101DC00003003185B
:1013D0000130DD00002A410169080E3E860001301F
:1013E000870001084201A0000430A036890BF529CE
:1013F0002008303E4101DC00003003180130DD00E0
:101400005C084201A000410169081A3E86000130D3
:101410008700420120088100410169080E3E8600D4
:10142000013087000F3001054201A0000A30200280
:10143000031C1B2A1C2A2B2A410169080E3E860028
:101440000130870001080F39573EDE0000300318D5
:101450000130DF00392A410169080E3E8600013063
:10146000870001080F39303EDE00003003180130DC
:10147000DF005E084201A000410169081B3E8600B2
:1014800001308700420120088100410169080F3EB8
:1014900086000130870001084201A0000430A03618
:1014A000890B4F2A0A302002031C572A582A6E2A19
:1014B000410169080F3E86000130870001084201A2
:1014C000A0000430A036890B622A2008573E410153
:1014D000E000003003180130E100832A410169086F
:1014E0000F3E86000130870001084201A000043051
:1014F000A036890B782A2008303E4101E0000030F8
:1015000003180130E10060084201A00041016908B0
:101510001C3E860001308700420120088100410105
:1015200069080F3E8600013087000F300105420137
:10153000A0000A302002031C9E2A9F2AAE2A4101E5
:1015400069080F3E86000130870001080F39573EB9
:10155000E200003003180130E300BC2A41016908B1
:101560000F3E86000130870001080F39303EE2004F
:10157000003003180130E30062084201A00041017D
:1015800069081D3E86000130870042012008810065
:10159000410166084201A000410167084201A10023
:1015A000A201A3010830A035A10DA20DA30D890B46
:1015B000D32A410168084201A400A501A435A50D64
:1015C000A435A50DA435A50DA435A50DA435A50DEF
:1015D0002408103EA6000030253DA7002608A800DC
:1015E0002708A9000030A91BFF30AA00AB00200883
:1015F00028044101A4004201210829044101A50059
:10160000420122082A044101A600420123082B04BA
:101610004101A7006908A8000130A9001E30AA00F6
:101620000030AB00A3314B2389311E304101E60766
:101630000030E73DFF3042016105A0000030620547
:10164000A100033020062104031D272B282BC72BC4
:101650003230A00041016908860001308700420154
:10166000200881000430A0004101690A8600013091
:10167000870042012008810041016908023EA00064
:101680000130A1006930A2000130A3000430A400A1
:101690000030A500AF31A227893136304201A000C9
:1016A00041016908063E860001308700420120089A
:1016B00081000430A00041016908073E8600013026
:1016C000870042012008810041016908083EA0000E
:1016D0000130A100E430A2000130A3000430A400D6
:1016E0000030A500AF31A2278931410166084201CF
:1016F000A000410167084201A100A201A301083036
:10170000A035A10DA20DA30D890B802B4101680806
:101710004201A400A501A435A50DA435A50DA4354D
:10172000A50DA435A50DA435A50D2408103EA600D1
:101730000030253DA7002608A8002708A900003092
:10174000A91BFF30AA00AB00200828044101A40017
:101750004201210829044101A500420122082A046E
:101760004101A600420123082B044101A70069089A
:10177000A8000130A9000C30AA000030AB00A33152
:101780004B2389310C304101E6070030E73D37300B
:101790004201A00041016908860001308700420132
:1017A000200881000430A0004101690A8600013050
:1017B000870042012008810041016908023E86003D
:1017C000013087008101810A03304201A0004101FC
:1017D0006908033E8600013087004201200881002D
:1017E0003A30A00041016908043E860001308700BC
:1017F0004201200881003B30A00041016908053EFC
:10180000860001308700420120088100FF30A000DF
:1018100041016908063E8600013087004201200828
:101820008100410166084201A000410167084201B0
:10183000A100A201A3010830A035A10DA20DA30DA6
:10184000890B1C2C410168084201A400A501A435A4
:10185000A50DA435A50DA435A50DA435A50DA4355C
:10186000A50D2408103EA6000030253DA70026083F
:10187000A8002708A9000030A91BFF30AA00AB0070
:10188000200828044101A400420121082904410143
:10189000A500420122082A044101A60042012308B2
:1018A0002B044101A7006908A8000130A9000730F6
:1018B000AA000030AB00A3314B238931073041012E
:1018C000E6070030E73D68084201A000A101A0350D
:1018D000A10DA035A10DA035A10DA035A10DA035FC
:1018E000A10D2008083EA2000030213DA3002208DF
:1018F000A4002308A5000030A51BFF30A600A70008
:10190000003024044101A400243042012504410197
:10191000A5000030420126044101A600003042012A
:1019200027044101A7006708A9006608A800A231A2
:10193000FD22893141016908C7000130C80000302B
:10194000C900CA006808993146218931080041015F
:10195000E80068084201A000A101A035A10DA03552
:10196000A10DA035A10DA035A10DA035A10D200818
:10197000083EA2000030213DA3002208A400230855
:10198000A5000030A51BFF30A600A70000302404EE
:101990004101A4002430420125044101A50000308A
:1019A000420126044101A600003042012704410102
:1019B000A700A43192248C3141012508E7002408B6
:1019C000E600B0304201A00020084101E9000030EB
:1019D000A000A1002C30A2000030A3006908A631AD
:1019E000A4268C314301B001B00AB101B10A06301E
:1019F0004201A00020084301B200B301FF304201C0
:101A0000A0000030A1000030A2000030A3005D085B
:101A1000A4005E08A5005F08A6006008A7001830B3
:101A2000A736A60CA50CA40C890B102D2408A00524
:101A30002508A1052608A2052708A3050030A8004F
:101A4000FF30A9000030AA000030AB005D08AC00F8
:101A50005E08AD005F08AE006008AF000830AF362A
:101A6000AE0CAD0CAC0C890B2F2D2C08A8052D0845
:101A7000A9052E08AA052F08AB050030B0000030DC
:101A8000B100FF30B2000030B3005D08B4005E0862
:101A9000B5005F08B6006008B7000830B435B50D72
:101AA000B60DB70D890B4E2D3408B0053508B105BC
:101AB0003608B2053708B3050030B8000030B90069
:101AC0000030BA00FF30BB005D08BC005E08BD00FE
:101AD0005F08BE006008BF001830BC35BD0DBE0DEC
:101AE000BF0D890B6D2D3C08B8053D08B9053E08B2
:101AF000BA053F08BB053808B0043908B1043A08F4
:101B0000B2043B08B3043008A8043108A904320821
:101B1000AA043308AB04200828044301B40042019E
:101B2000210829044301B500420122082A04430187
:101B3000B600420123082B044301B70041015708B6
:101B40004201A100410156084201A0002108A00065
:101B5000A101FF302005A20000302105A3004101B2
:101B600056084201A500A40100302405A600FF305C
:101B70002505A700220826044301B80042012308D6
:101B800027044301B900FF3042016105A000003085
:101B90006205A100083020062104031DD02DD12D9F
:101BA000E22DBC304101A0000130A1006930A2004B
:101BB0000130A3000430A4000030A500AF31A227FB
:101BC0008C31E72D80304301BA000030BB0000307B
:101BD0004101A7000030A6000930A5000030A40094
:101BE000CC30A8000130A9000630AA000030AB00BC
:101BF000A231B0228C31410166084201A0004101AE
:101C000067084201A100A201A3010830A035A10D7F
:101C1000A20DA30D890B062E410168084201A40004
:101C2000A501A435A50DA435A50DA435A50DA43594
:101C3000A50DA435A50D2408103EA6000030253DB5
:101C4000A7002608A8002708A9000030A91BFF301C
:101C5000AA00AB00200828044101A4004201210889
:101C600029044101A500420122082A044101A600DD
:101C7000420123082B044101A7006908A800013094
:101C8000A9002C30AA000030AB00A3314B238C31CB
:101C90002C304101E6070030E73D0030A000A100F4
:101CA0002030A2000030A3006908A631A4268C31A0
:101CB0004101E401E501410166084201A000410142
:101CC00067084201A100A201A3010830A035A10DBF
:101CD000A20DA30D890B662E410168084201A400E4
:101CE000A501A435A50DA435A50DA435A50DA435D4
:101CF000A50DA435A50D2408103EA6000030253DF5
:101D0000A7002608A8002708A9000030A91BFF305B
:101D1000AA00AB00200828044101A40042012108C8
:101D200029044101A500420122082A044101A6001C
:101D3000420123082B044101A7006908A8000130D3
:101D4000A9002030AA000030AB00A3314B238C3116
:101D500020304101E6070030E73D0130E407003064
:101D6000E53D6508803A4201A00080302002031D55
:101D7000BC2E063041016402031CBF2EC02E5B2E18
:101D800063304201A00041016908860001308700EC
:101D90004201200881008230A0004101690A8600CA
:101DA000013087004201200881005330A00041012A
:101DB0006908023E86000130870042012008810048
:101DC0006330A00041016908033E860001308700AE
:101DD0004201200881003530A00041016908043E1D
:101DE0008600013087004201200881004101690816
:101DF000053E8600013087008101810A42016108A9
:101E0000A00041016908063E8600013087004201BA
:101E1000200881003D30A00041016908073E86008E
:101E2000013087004201200881000730A0004101F5
:101E30006908083E860001308700420120088100C1
:101E400041016908093E8600013087008101810A4D
:101E50000030A7000030A6000930A5000030A40023
:101E600069080A3EA8000130A9000630AA00003027
:101E7000AB00A231B0228C310C304201A0004101F4
:101E80006908103E86000130870042012008810069
:101E900000304101A000B030A100AD3139258C31B6
:101EA00041012008063E4201A00041016908113E9F
:101EB0008600013087004201200881000030410186
:101EC000A000B030A1006908123EAD31F0258C3180
:101ED000410169080D3E860001308700010842017A
:101EE000A0000430A036890B722F0A302002031C98
:101EF0007A2F7B2F912F410169080D3E860001301A
:101F0000870001084201A0000430A036890B852F0C
:101F10002008573E4101D800003003180130D90095
:101F2000A62F410169080D3E860001308700010897
:101F30004201A0000430A036890B9B2F2008303EC0
:101F40004101D800003003180130D900580842017F
:101F5000A00041016908183E860001308700420157
:101F600020088100410169080D3E8600013087008C
:101F70000F3001054201A0000A302002031CC12FCE
:101F8000C22FD12F410169080D3E86000130870024
:101F900001080F39573EDA00003003180130DB002A
:101FA000DF2F410169080D3E8600013087000108DE
:101FB0000F39303EDA00003003180130DB005A08D8
:101FC0004201A00041016908193E860001308700E6
:101FD000420120088100410169080E3E860001305F
:101FE000870001084201A0000430A036890BF52FBC
:101FF0000A302002031CFE2F8931D5298931EB29B3
:10200000AE34B0345334EF34FE34EF344101BE000B
:102010003A283E08B400B501B435B50DB435B50D58
:10202000B435B50DB435B50DB435B50D3408083E2D
:10203000B6000030353DB7003608B8003708B900A3
:102040000030B91BFF30BA00BB0000303804AE00CE
:1020500001303904AF0000303A04B00000303B04D6
:10206000B1001030BC003C08B200AE31A326903164
:10207000013077283E08B400B501B435B50DB4354C
:10208000B50DB435B50DB435B50DB435B50D340851
:10209000083EB6000030353DB7003608B8003708B6
:1020A000B9000030B91BFF30BA00BB000030380463
:1020B000A40003303904A50000303A04A600003023
:1020C0003B04A700A801A2311E2290314101BC00AF
:1020D000BD013D08003A03196E2876283C08003AF5
:1020E000031938281C3A03190928762800300800FB
:1020F0004101C2004208B900BA01B935BA0DB9357B
:10210000BA0DB935BA0DB935BA0DB935BA0D3908A8
:10211000083EBB0000303A3DBC003B08BD003C0817
:10212000BE000030BE1BFF30BF00C00000303D04C9
:10213000A40004303E04A50000303F04A600003097
:102140004004A7003508A9003408A800A231FD22E8
:10215000903141014208B900BA01B935BA0DB9351B
:10216000BA0DB935BA0DB935BA0DB935BA0D390848
:10217000083EBB0000303A3DBC003B08BD003C08B7
:10218000BE000030BE1BFF30BF00C00000303D0469
:10219000A4000C303E04A50000303F04A60000302F
:1021A0004004A7003608A8000130A9000430AA00A6
:1021B0000030AB00A3314B23903141014208B900FC
:1021C000BA01B935BA0DB935BA0DB935BA0DB93547
:1021D000BA0DB935BA0D3908083EBB0000303A3D9A
:1021E000BC003B08BD003C08BE000030BE1BFF30F9
:1021F000BF00C00000303D04A40010303E04A50024
:1022000000303F04A60000304004A7003808A900B1
:102210003708A800A231FD22903141014208B900DF
:10222000BA01B935BA0DB935BA0DB935BA0DB935E6
:10223000BA0DB935BA0D3908083EBB0000303A3D39
:10224000BC003B08BD003C08BE000030BE1BFF3098
:10225000BF00C00000303D04AE0001303E04AF00BE
:1022600000303F04B00000304004B1001030C10025
:102270004108B200AE31A326903141014208B900B5
:10228000BA01B935BA0DB935BA0DB935BA0DB93586
:10229000BA0DB935BA0D3908083EBB0000303A3DD9
:1022A000BC003B08BD003C08BE000030BE1BFF3038
:1022B000BF00C00004303D04A40000303E04A5006F
:1022C00000303F04A60000304004A7000230C100E7
:1022D0004108A800A2311E22903141014208B900F4
:1022E000BA01B935BA0DB935BA0DB935BA0DB93526
:1022F000BA0DB935BA0D3908083EBB0000303A3D79
:10230000BC003B08BD003C08BE000030BE1BFF30D7
:10231000BF00C00000303D04AE0001303E04AF00FD
:1023200000303F04B00000304004B100B201B20AF6
:10233000AE31A326903141014208B900BA01B93546
:10234000BA0DB935BA0DB935BA0DB935BA0DB935B9
:10235000BA0D3908083EBB0000303A3DBC003B08CE
:10236000BD003C08BE000030BE1BFF30BF00C000F7
:1023700000303D04A40003303E04A50000303F04BB
:10238000A60000304004A700A801A2311E2290310F
:10239000223A031DCC29CD290D2908005030860092
:1023A00002308700B53084000030850006304101DE
:1023B000B10016001A00B10BD9290030CB00003053
:1023C000CA000030C9000030C80043016F08410155
:1023D000BE0043016E084101BD0043016D0841018B
:1023E000BC0043016C084101BB0050011E179B015A
:1023F0009A014101C701C70ACF01CE0150011E1445
:102400001C084101B1003108C5004E08031D092A0E
:102410000A2A1E2A50011D084101B1003108C600D8
:10242000C61A132A152A0130162A0030B1003108C5
:10243000C70046081F39B1003108CF004508B10078
:102440004E08C83E86008701310881004E080319F6
:102450002A2A2B2A392A4708031D2F2A302A392AEB
:102460004508B1004E08023EB53E8600870131089E
:1024700081000130B100310850019A07013041015B
:10248000B1003108CE0704304E02031C482A492A05
:10249000FE29470803194D2A4E2A712A013050019E
:1024A0009B0006309A004101CC0150011E141C080B
:1024B0004101B1004C08033EB53E8600870131085A
:1024C00081000130B100310850019A07013041010B
:1024D000B1003108CC0703304C02031C702A712A6A
:1024E000552A0030A7000030A6000930A5000030B2
:1024F000A400B530A8000030A9000630AA000030C2
:10250000AB00A3314B2391311F3041014F0603191A
:102510008A2A8B2A932A49084A044B044804031D3B
:10252000922A932A952A0130342B0030A7000030DC
:10253000A6000F30A5000030A400C830A80000306D
:10254000A9000430AA000030AB00A3314B23913125
:102550004101CD0108304F020318AF2AB02AD52A15
:102560004F080319B42AB52ACE2A0130B100003031
:10257000B2004F08083C890ABF2AB135B20D890B59
:10258000BD2A3108FF3EB300FF30323DB400FF30BA
:102590003306C10000303406C200D02AC101C20196
:1025A0004208C0004108BF00D92AFF30BF000030F8
:1025B000C0003F08B1004D08BB3E860087013108CE
:1025C00081004D08BB3E860087010108B1004D081F
:1025D000C83E860087013108810508304F02031884
:1025E000F22AF32AF62AC301C401FD2A4F08F83E55
:1025F000C300FF3003180030C4004308B1003108A5
:10260000CF000130B1003108CD0704304D02031C6A
:102610000A2B0B2BAA2A0030A7000030A600053099
:10262000A5000030A400BB30A8000030A900043091
:10263000AA000030AB00A3314B23913141014B1470
:102640000030A7000030A6000130A5000030A40033
:10265000C830A8000030A9000430AA000030AB0048
:10266000A3314B239131003008004101E900690892
:10267000A031AE20933141013308DB003208DA008B
:1026800000305B02083003195A020318482B492B0B
:102690004C2BFF309731FF2FB030C7000130C800FE
:1026A0000830C9000030CA006908A331EA23933119
:1026B00041014808E8004708E70000306802083098
:1026C000031967020318652B662B682B00304A2B11
:1026D000430135084201A000A10143013408420131
:1026E000A200A3012208A300A201200822044101A4
:1026F000DC004201210823044101DD0043013708C9
:102700004201A000A101430136084201A200A30139
:102710002208A300A201200822044101E500420191
:10272000210823044101E600003066022C30031921
:102730006502031C9C2B9D2BA42B43305C065D047F
:102740000319A32BA42BAD2B6608D6006508D50072
:102750006908AC31A2249331662BB030C700013038
:10276000C8002C30C9000030CA006908A331EA2330
:10277000933141014808E8004708E700003068024B
:102780002C30031967020318C62BC72BD22B6708FE
:102790006502D5006808663BD6006908AC31A22402
:1027A0009331662B0230430130060319D82BD92B05
:1027B000E52B410167086502D5006808663BD60035
:1027C0006908AC31A2249331662BFF304201A0008E
:1027D0000030A1000030A2000030A3004301340803
:1027E0004201A400430135084201A5004301360817
:1027F0004201A600430137084201A7001830A7365E
:10280000A60CA50CA40C890BFF2B2408A0052508F9
:10281000A1052608A2052708A3050030A800FF305F
:10282000A9000030AA000030AB0043013408420187
:10283000AC00430135084201AD00430136084201B6
:10284000AE00430137084201AF000830AF36AE0C8E
:10285000AD0CAC0C890B262C2C08A8052D08A9055D
:102860002E08AA052F08AB050030B0000030B100DB
:10287000FF30B2000030B300430134084201B4001D
:10288000430135084201B500430136084201B60054
:10289000430137084201B7000830B435B50DB60D15
:1028A000B70D890B4D2C3408B0053508B105360835
:1028B000B2053708B3050030B8000030B900003069
:1028C000BA00FF30BB00430134084201BC004301A1
:1028D00035084201BD00430136084201BE004301F4
:1028E00037084201BF001830BC35BD0DBE0DBF0D0D
:1028F000890B742C3C08B8053D08B9053E08BA059B
:102900003F08BB053808B0043908B1043A08B204DE
:102910003B08B3043008A8043108A9043208AA040B
:102920003308AB04200828044101DF0042012108DC
:1029300029044101E000420122082A044101E1008A
:10294000420123082B044101E20043012F08410109
:102950006202031DBB2C43012E0841016102031DCD
:10296000BB2C43012D0841016002031DBB2C430118
:102970002C0841015F02031CBE2CBF2CD82C62081E
:1029800042016002031DD42C4101610842015F0233
:10299000031DD42C4101600842015E02031DD42CAA
:1029A00041015F0842015D020318D72CD82CE42CAA
:1029B000410167086502D5006808663BD6006908D2
:1029C000AC31A2249331662B4101590886000130B5
:1029D00087005F08C03F6008C13F6108C23F6208CE
:1029E000C33F0030A7000030A6000930A50000302A
:1029F000A400D230A8000130A9000630AA0000309F
:102A0000AB00A231B0229331D2304201A0002008A5
:102A10004101A0000630A1000030A200CC30A1315D
:102A2000962193314101200821040319182D192DF5
:102A3000242D67086502D5006808663BD600690842
:102A4000AC31A2249331662BFF3042016105A00016
:102A500000306205A1000830200621040319312D41
:102A6000322D422D69304101A0000130A100C0305B
:102A7000A2000130A3000430A4000030A500AF3153
:102A8000A2279331C0304101D5000030D60069083B
:102A9000AC31A224933141015508E7075608E83DBF
:102AA000B030C7000130C8000430C9000030CA008F
:102AB0006908A331EA23933141014708E707480831
:102AC000E83D633043013006031D682D95316A2DC2
:102AD00095317C2D82303106031D6F2D702D7C2D9C
:102AE00053303206031D752D762D7C2D6330330651
:102AF00003197B2D7C2D892D410167086502D500C6
:102B00006808663BD6006908AC31A2249531933140
:102B1000662B4101DE01E72FB030C7000130C8004D
:102B20000130C9000030CA006908A331EA23953199
:102B3000410147084804031D9E2D9F2DA02DF22F13
:102B40000130E7070030E83D430130084201A000B2
:102B500020084101E300630A031DAF2DB02DB12D04
:102B6000F22F6308031DB52DB62DB72DE72FB0301A
:102B7000C7000130C8000130C9000030CA00690830
:102B8000A331EA239531410147084804031DC92DAB
:102B9000CA2DCB2DF22F0130E7070030E83D43016D
:102BA00030084201A00020084101E4006408031934
:102BB000DA2DDB2D022EB030C7000130C8006408CA
:102BC0004201A000A10120084101C90042012108E1
:102BD0004101CA006908A331EA2395314101640823
:102BE0004201A200A3014101480842012306031D3E
:102BF000FD2D41014708420122060319002E012E36
:102C0000022EF22F410164084201A000A101200818
:102C10004101E707420121084101E83DCA2FE030A8
:102C20004101A0000130A100B030A2000130A3009A
:102C30000430A4000030A500AF31A2279531E72F62
:102C4000DC304101A0000130A100B030A200013011
:102C5000A3000430A4000030A500AF31A2279531B5
:102C6000E72F430130084201A00020084101DE00A7
:102C7000E72FE4304101A0000130A100B030A200F4
:102C80000130A3000430A4000030A500AF31A2271A
:102C90009531E72FFF30A0000030A1000030A200E6
:102CA0000030A300430130084201A4004301310871
:102CB0004201A500430132084201A6004301330846
:102CC0004201A7001830A736A60CA50CA40C890B4E
:102CD000632E2408A0052508A1052608A2052708BB
:102CE000A3050030A800FF30A9000030AA00003082
:102CF000AB00430130084201AC00430131084201FE
:102D0000AD00430132084201AE00430133084201E5
:102D1000AF000830AF36AE0CAD0CAC0C890B8A2E70
:102D20002C08A8052D08A9052E08AA052F08AB0513
:102D30000030B0000030B100FF30B2000030B3000E
:102D4000430130084201B400430131084201B5009B
:102D5000430132084201B600430133084201B70083
:102D60000830B435B50DB60DB70D890BB12E34084A
:102D7000B0053508B1053608B2053708B30500308F
:102D8000B8000030B9000030BA00FF30BB0043018A
:102D900030084201BC00430131084201BD0043013B
:102DA00032084201BE00430133084201BF0018301F
:102DB000BC35BD0DBE0DBF0D890BD82E3C08B80526
:102DC0003D08B9053E08BA053F08BB053808B00400
:102DD0003908B1043A08B2043B08B3043008A80427
:102DE0003108A9043208AA043308AB0420082804D7
:102DF0004301A8004201210829044301A90042011E
:102E000022082A044301AA00420123082B0443019B
:102E1000AB00E72FFF30A0000030A1000030A2007F
:102E20000030A300430130084201A40043013108EF
:102E30004201A500430132084201A60043013308C4
:102E40004201A7001830A736A60CA50CA40C890BCC
:102E5000232F2408A0052508A1052608A205270878
:102E6000A3050030A800FF30A9000030AA00003000
:102E7000AB00430130084201AC004301310842017C
:102E8000AD00430132084201AE0043013308420164
:102E9000AF000830AF36AE0CAD0CAC0C890B4A2F2E
:102EA0002C08A8052D08A9052E08AA052F08AB0592
:102EB0000030B0000030B100FF30B2000030B3008D
:102EC000430130084201B400430131084201B5001A
:102ED000430132084201B600430133084201B70002
:102EE0000830B435B50DB60DB70D890B712F340808
:102EF000B0053508B1053608B2053708B30500300E
:102F0000B8000030B9000030BA00FF30BB00430108
:102F100030084201BC00430131084201BD004301B9
:102F200032084201BE00430133084201BF0018309D
:102F3000BC35BD0DBE0DBF0D890B982F3C08B805E3
:102F40003D08B9053E08BA053F08BB053808B0047E
:102F50003908B1043A08B2043B08B3043008A804A5
:102F60003108A9043208AA043308AB042008280455
:102F70004401A8004201210829044401A90042019A
:102F800022082A044401AA00420123082B04440118
:102F9000AB00E72F63084201A000A1012108003A1D
:102FA0000319D32FE72F2008013A03190F2E023AF5
:102FB0000319202E363A0319312E033A0319392EFC
:102FC0000C3A03194A2E013A03190A2FE72F41013F
:102FD00066086802031DEE2F65086702031CF12FC7
:102FE000F22F8C2D410167086502D5006808663B09
:102FF000D6006908AC31A224953141015E08080071
:103000000800FE0012001E00FE0B022800344001E2
:10301000A201A20A99127408F8007508F90076084E
:10302000FA007708FB001030FB36FA0CF90CF80CAC
:10303000890B14287808FC007C08E5007408F80067
:103040007508F9007608FA007708FB000830FB36AF
:10305000FA0CF90CF80C890B27287808FC007C087E
:10306000E6007408F8007808E7006530F0000030EA
:10307000F1000530F2000030F300AE317D269831CA
:10308000400199162408A1002308A0006908F8004F
:10309000F9016808FA00FB017A08FB00FA017808D8
:1030A0007A04A30079087B04A40022080319592894
:1030B0005A285C28A2010A2821082406031D622838
:1030C00020082306031D652866280A282408F50021
:1030D0002308F40008004001CC01420168080319EC
:1030E0007228732888284D304001BA000030BB0098
:1030F0000130BC000030BD000130A331992398316C
:1031000040013A033B04031986288728B62845293D
:103110001D1D8B288C289A2841016E0803199128BF
:1031200092289728F2010C30A531032598314001EF
:10313000CC01CC0A42019D1C9E289F28B0281D125C
:103140001D1641016E080319A628A728AD28F20113
:10315000F20A0C30A531032598314001CC01CC0A8C
:10316000420119084001C8004808CD004C08031965
:10317000BA28BB28C3281F30F0000030F100AC3162
:10318000E0249831452941016E08031DC828C9284B
:10319000332940014D08AF311B27983145295E087E
:1031A000C8000230C836890BD22848080F39C90038
:1031B0004908CB001329DE01DD01DB01DB0A2629EA
:1031C0003F304D05C8005E080339C9000530C935D8
:1031D000FF3E031DE72849354804AF311B279831CE
:1031E00026293F304D05C8005E080339C900053067
:1031F000C935FF3E031DF82849354804CA004A086E
:10320000DC00AA305C06031D062907290929DD0117
:103210002629DD01DD0A0330F0000030F100AC3179
:10322000E024983126294B08C800C9014908003A12
:1032300003191B2926294808003A0319DB28013AFB
:103240000319E028033A0319F12826294001DE0179
:1032500045294D08C8004808DE0045294D08AF3112
:103260001B279831262940014D08C039C800C901E3
:103270004908003A03193D292E294808803A0319C4
:10328000CF28403A031929292E2908004101D500E9
:1032900049084A0403194D294E2960294808B300FA
:1032A0004708B2004A08B5004908B40055089B31E8
:1032B0000F239931003A031D5E295F296029282ACE
:1032C00041015508CB00CC01CB35CC0DCB35CC0D15
:1032D000CB35CC0DCB35CC0DCB35CC0D4B08083ECA
:1032E000CD0000304C3DCE004D08CF004E08D00040
:1032F0000030D01BFF30D100D20000304F04AE00B0
:1033000001305004AF0000305104B00000305204CE
:10331000B1002030D3005308B200AE31A32699315A
:1033200041015508CB00CC01CB35CC0DCB35CC0DB4
:10333000CB35CC0DCB35CC0DCB35CC0D4B08083E69
:10334000CD0000304C3DCE004D08CF004E08D000DF
:103350000030D01BFF30D100D20000304F04A40059
:1033600002305004A50000305104A6000030520481
:10337000A700A801A2311E2299314101D3005308B0
:10338000D400541EC429C529F5295508CB00CC0109
:10339000CB35CC0DCB35CC0DCB35CC0DCB35CC0DC9
:1033A000CB35CC0D4B08083ECD0000304C3DCE0057
:1033B0004D08CF004E08D0000030D01BFF30D100A8
:1033C000D20004304F04A40002305004A5000030A5
:1033D0005104A60000305204A7001830D30053084F
:1033E000A800A2311E229931282AD41DF829F929D2
:1033F00090295508CB00CC01CB35CC0DCB35CC0D6D
:10340000CB35CC0DCB35CC0DCB35CC0D4B08083E98
:10341000CD0000304C3DCE004D08CF004E08D0000E
:103420000030D01BFF30D100D20004304F04A40084
:1034300002305004A50000305104A60000305204B0
:10344000A7000830D3005308A800A2311E229931EA
:1034500008007E1C2D2A98316B284101D9014201B8
:1034600068080319342A352A4A2ADA304101C7008C
:103470000030C8000130C9000030CA000130A3315B
:10348000EA239A314101470348040319482A492A8B
:10349000782A0E2B1D1D4D2A4E2A5C2A41016E08EA
:1034A0000319532A542A592AA2010C30A531852523
:1034B0009A314101D901D90A42019D1C602A612A31
:1034C000722A1D121D1641016E080319682A692A05
:1034D0006F2AA201A20A0C30A53185259A3141013B
:1034E000D901D90A420119084101D5005508DA006D
:1034F000590803197C2A7D2A852A1F30A000003034
:10350000A100A03100209A310E2B6E08031D892ADC
:103510008A2AFD2A5A08A0314A209A310E2B4001EE
:103520005E084101D5000230D536890B942A550832
:103530000F39D6005608D800DC2A4001DE01DD0133
:10354000DB01DB0AEF2A3F305A05D50040015E0857
:1035500003394101D6000530D635FF3E031DAC2AA4
:1035600056355504A0314A209A31EF2A3F305A058A
:10357000D50040015E0803394101D6000530D6353B
:10358000FF3E031DBF2A56355504D700570840019A
:10359000DC00AA305C06031DCE2ACF2AD12ADD0129
:1035A000EF2ADD01DD0A03304101A0000030A10057
:1035B000A03100209A31EF2A5808D500D6015608CC
:1035C000003A0319E42AEF2A5508003A03199D2A04
:1035D000013A0319A32A033A0319B62AEF2A400134
:1035E000DE010E2B5A08D50055084001DE000E2BD7
:1035F0005A08A0314A209A31EF2A5A08C039D5001A
:10360000D6015608003A0319062BF82A5508803AC5
:1036100003198F2A403A0319F22AF82A08004101B7
:10362000C60034083504031D162B172B192B013047
:10363000FA2B4608B600B701B635B70DB635B70D4B
:10364000B635B70DB635B70DB635B70D3608083EE9
:10365000B8000030373DB9003808BA003908BB005F
:103660000030BB1BFF30BC00BD0000303A04A4009A
:1036700020303B04A50000303C04A60000303D048F
:10368000A700A43192249B3141012508C3002408DE
:10369000C20035084302031D4F2B340842020318B1
:1036A000522B532B552B0030FA2B4608B600B7018E
:1036B000B635B70DB635B70DB635B70DB635B70D4E
:1036C000B635B70D3608083EB8000030373DB900B2
:1036D0003808BA003908BB000030BB1BFF30BC0003
:1036E000BD0000303A04A40024303B04A5000030A3
:1036F0003C04A60000303D04A700A43192249B3175
:1037000041012508C5002408C4004408B600450846
:10371000B700B801B9010830B635B70DB80DB90D0D
:10372000890B8C2B4608BA00BB01BA35BB0DBA35E4
:10373000BB0DBA35BB0DBA35BB0DBA35BB0D3A085A
:10374000103EBC0000303B3DBD003C08BE003D08C3
:10375000BF000030BF1BFF30C000C10036083E0470
:10376000A40037083F04A50038084004A600390823
:103770004104A7003308A9003208A8003508AB00AF
:103780003408AA00A3314B239B3141013408C407FC
:103790003508C53D4608B600B701B635B70DB63594
:1037A000B70DB635B70DB635B70DB635B70D36080A
:1037B000083EB8000030373DB9003808BA00390873
:1037C000BB000030BB1BFF30BC00BD0000303A0422
:1037D000A40024303B04A50000303C04A6000030C7
:1037E0003D04A7004508A9004408A800A231FD2215
:1037F0009B31013008004101BF003F08B600B7010E
:10380000B635B70DB635B70DB635B70DB635B70DFC
:10381000B635B70D3608083EB8000030373DB90060
:103820003808BA003908BB000030BB1BFF30BC00B1
:10383000BD0000303A04A40004303B04A500003071
:103840003C04A60000303D04A7003508A900340858
:10385000A800A231FD229B3141013F08B600B7010B
:10386000B635B70DB635B70DB635B70DB635B70D9C
:10387000B635B70D3608083EB8000030373DB90000
:103880003808BA003908BB000030BB1BFF30BC0051
:10389000BD0000303A04AE0001303B04AF00003000
:1038A0003C04B00000303D04B1001030BE003E08C2
:1038B000B200AE31A3269B3141013F08B600B701EB
:1038C000B635B70DB635B70DB635B70DB635B70D3C
:1038D000B635B70D3608083EB8000030373DB900A0
:1038E0003808BA003908BB000030BB1BFF30BC00F1
:1038F000BD0004303A04A40000303B04A5000030B1
:103900003C04A60000303D04A700A801A80AA2318B
:103910001E229B3141013F08B600B701B635B70DF5
:10392000B635B70DB635B70DB635B70DB635B70DDB
:103930003608083EB8000030373DB9003808BA00F4
:103940003908BB000030BB1BFF30BC00BD0000309D
:103950003A04AE0001303B04AF0000303C04B0003C
:1039600000303D04B100B201B20AAE31A3269B3152
:1039700041013F08B600B701B635B70DB635B70DF2
:10398000B635B70DB635B70DB635B70D3608083EA6
:10399000B8000030373DB9003808BA003908BB001C
:1039A0000030BB1BFF30BC00BD0000303A04A40057
:1039B00003303B04A50000303C04A60000303D0469
:1039C000A700A801A2311E229B31133A031DE92C46
:1039D000EA2C2C2C08004001B9003908A900AA01E2
:1039E000A935AA0DA935AA0DA935AA0DA935AA0D83
:1039F000A935AA0D2908083EAB0000302A3DAC00CD
:103A00002B08AD002C08AE000030AE1BFF30AF001D
:103A1000B00000302D04F40026302E04F5000030F4
:103A20002F04F60000303004F700983107209C3155
:103A300075084001B6007408B50028083602031D59
:103A4000232D270835020318262D272D2B2D360868
:103A5000A8003508A70027082804031D302D312DA4
:103A6000342DA501A601E32D3908A900AA01A93525
:103A7000AA0DA935AA0DA935AA0DA935AA0DA935F2
:103A8000AA0D2908083EAB0000302A3DAC002B08E7
:103A9000AD002C08AE000030AE1BFF30AF00B00010
:103AA00000302D04F40028302E04F50000302F04DF
:103AB000F60000303004F700983107209C3175087B
:103AC0004001B8007408B700250826040319692DC1
:103AD0006A2DAA2D3708A9003808AA00AB01AC014D
:103AE0000830A935AA0DAB0DAC0D890B712D390825
:103AF000AD00AE01AD35AE0DAD35AE0DAD35AE0D93
:103B0000AD35AE0DAD35AE0D2D08183EAF00003011
:103B10002E3DB0002F08B1003008B2000030B21BBB
:103B2000FF30B300B40029083104F4002A0832043D
:103B3000F5002B083304F6002C083404F70026089F
:103B4000F9002508F8002808FB002708FA00A13131
:103B5000D9219C3140012708B7072808B83D39080A
:103B6000A900AA01A935AA0DA935AA0DA935AA0D42
:103B7000A935AA0DA935AA0D2908083EAB000030C9
:103B80002A3DAC002B08AD002C08AE000030AE1B67
:103B9000FF30AF00B00000302D04F40028302E04B8
:103BA000F50000302F04F60000303004F70038082C
:103BB000F9003708F800A13153219C314001280851
:103BC000A6002708A50008004101C6004608B60067
:103BD000B701B635B70DB635B70DB635B70DB63535
:103BE000B70DB635B70D3608083EB8000030373D82
:103BF000B9003808BA003908BB000030BB1BFF30E1
:103C0000BC00BD0000303A04A40026303B04A500EF
:103C100000303C04A60000303D04A700A4319224EB
:103C20009D3141012508C3002408C2003508430224
:103C3000031D1C2E3408420203181F2E202E242E92
:103C40004308B5004208B40034083504031D292E8A
:103C50002A2E2D2EB201B301DC2E4608B600B70184
:103C6000B635B70DB635B70DB635B70DB635B70D98
:103C7000B635B70D3608083EB8000030373DB900FC
:103C80003808BA003908BB000030BB1BFF30BC004D
:103C9000BD0000303A04A40028303B04A5000030E9
:103CA0003C04A60000303D04A700A43192249D31BD
:103CB00041012508C5002408C40032083304031953
:103CC000622E632EA32E4408B6004508B700B80143
:103CD000B9010830B635B70DB80DB90D890B6A2E8C
:103CE0004608BA00BB01BA35BB0DBA35BB0DBA35B3
:103CF000BB0DBA35BB0DBA35BB0D3A08183EBC003A
:103D000000303B3DBD003C08BE003D08BF00003018
:103D1000BF1BFF30C000C10036083E04A4003708B6
:103D20003F04A50038084004A60039084104A70054
:103D30003308A9003208A8003508AB003408AA00EF
:103D4000A231B0229D3141013408C4073508C53D78
:103D50004608B600B701B635B70DB635B70DB6355E
:103D6000B70DB635B70DB635B70D3608083EB800F5
:103D70000030373DB9003808BA003908BB000030C0
:103D8000BB1BFF30BC00BD0000303A04A40028304B
:103D90003B04A50000303C04A60000303D04A70011
:103DA0004508A9004408A800A231FD229D31410127
:103DB0003508B3003408B20008004101CF00FF30DD
:103DC000A0000030A1000430A2000030A300693040
:103DD000A631A4269E3100304101A000A10004308C
:103DE000A2000030A300E430A631A4269E31410198
:103DF0004F08C600C701C635C70DC635C70DC63545
:103E0000C70DC635C70DC635C70D4608083EC800E4
:103E10000030473DC9004808CA004908CB000030BF
:103E2000CB1BFF30CC00CD0004304A04A4001F306F
:103E30004B04A50000304C04A60000304D04A70040
:103E40000230CE004E08A800A2311E229E31410150
:103E50004F08C600C701C635C70DC635C70DC635E4
:103E6000C70DC635C70DC635C70D4608083EC80084
:103E70000030473DC9004808CA004908CB0000305F
:103E8000CB1BFF30CC00CD0004304A04A4001E3010
:103E90004B04A50000304C04A60000304D04A700E0
:103EA0000230CE004E08A800A2311E229E314430BE
:103EB0004101B4000030B5006930C6004608B600C4
:103EC0004330B7000030B8004F08903178209E3161
:103ED000A23166229E3141013408C6003508C70070
:103EE0000030C71BFF30C800C9000530460642013C
:103EF000DD00EB30410147064201DE000A3041019E
:103F000048064201DF000030410149064201E0005D
:103F100060084301AF0042015F084301AE00420167
:103F20005E084301AD0042015D084301AC00410160
:103F300044084201E400410143084201E300410119
:103F400045080319A42FA52FB62F0030A000A1000B
:103F50000430A2000030A3006930A631A4269E31AF
:103F600001304201E1000030E200CE2F0030A70016
:103F70000030A6000F30A5000030A4006930A80072
:103F80000130A9000430AA000030AB00A231B022F9
:103F90009E3108304201E1000030E200FF30410173
:103FA000A0000030A1000430A2000030A300E030E7
:103FB000A631A4269E3100304101A000A1000430AA
:103FC000A2000030A300DC30A631A4269E310030D0
:103FD0004401AB000030AA000030A9000030A80066
:103FE0002B084301AB0044012A084301AA00440105
:103FF00029084301A900440128084301A80008003A
:1040000041012108A3002008A200A336A20CA33678
:10401000A20C220846019500410120080339A200A4
:104020000530A235FF3E031D1128223546019400BC
:10403000080011307E01A10010307D01CD004E013D
:10404000991300304101A0002C30A100AC31402474
:10405000A0314E01191335304101A0002E30A100CE
:10406000AC314924A031183054019F0090309D009C
:1040700024309E0004309B000D309C004001E40180
:10408000E30108304101A20022084001E2004E0194
:10409000991708004101A1004E2864004001620800
:1040A0000319532854284D284E01191B5828592804
:1040B0005E284101210854019A0079281913410111
:1040C0002108A00040016408A03E8600013087005E
:1040D0004101200881000130A00020084001E407D0
:1040E00008306402031C752876287728E401013023
:1040F000E2024E01191708004101A1008028640066
:1041000040015F080319852886287F284E01191A67
:104110008A288B2890284101210842019A00AB2867
:10412000191241012108A00040016108203E8600CB
:10413000023087004101200881000130A0002008E2
:104140004001E10708306102031CA728A828A9281C
:10415000E1010130DF024E01191608004101BC00E7
:104160003C08B400B501B435B50DB435B50DB43562
:10417000B50DB435B50DB435B50D3408083EB600EF
:104180000030353DB7003608B8003708B9000030B8
:10419000B91BFF30BA00BB0000303804A400263041
:1041A0003904A50000303A04A60000303B04A70003
:1041B000A4319224A03141012508B3002408B200A3
:1041C000080000304101B3000030B2000030B100FF
:1041D0000030B000281CED28EE28F6282C08B00787
:1041E0002D08B13D2E08B23D2F08B33D0130AC354E
:1041F000AD0DAE0DAF0D890BF7280130AB36AA0C13
:10420000A90CA80C890BFE282B082A0429042804D1
:10421000031D0B290C29EA283308AB003208AA0039
:104220003108A9003008A80008004001991274085C
:10423000F9007508FA007608FB007708FC001030DA
:10424000FC36FB0CFA0CF90C890B20297908FD00CF
:104250007D08E5007408F9007508FA007608FB008F
:104260007708FC000830FC36FB0CFA0CF90C890BC3
:1042700033297908FD007D08E6007408F900790803
:10428000E7007808F9007908E8006530F0000030B0
:10429000F1000430F2000030F300AE317D26A13190
:1042A000400199160800400199127408A000750891
:1042B000A1007608A2007708A3001030A336A20C54
:1042C000A10CA00C890B5E292008A4002408E5009D
:1042D0007408A0007508A1007608A2007708A30062
:1042E0000830A336A20CA10CA00C890B7129200860
:1042F000A4002408E60074080438A0002008E700A1
:104300007908A0002008E8007808A0002008E9004B
:104310006530F0000030F1000530F2000030F300AD
:10432000AE317D26A1314001991608004101A4005B
:104330002408A3002308A5002008A3002308A60042
:10434000AD290130A1020030A23B0130A3002308B7
:10435000A5070130A3002308A6072108220403199A
:10436000B229B329C1292608860001308700250813
:10437000840001308500000801060319C029C12905
:10438000A12921082204031DC629C729CA29A00181
:10439000A101D8292508860001308700260884005D
:1043A0000130850000080102A000A101031CA10347
:1043B0000800400199127408A0007508A100760851
:1043C000A2007708A3001030A336A20CA10CA00C09
:1043D000890BE4292008A4002408E5007408A00043
:1043E0007508A1007608A2007708A3000830A3365C
:1043F000A20CA10CA00C890BF7292008A40024080A
:10440000E6007408A0002008E7006530F0000030E6
:10441000F1000330F2000030F300AE317D26A1310F
:104420007908F1007808F0007B08F3007A08F200C0
:10443000AE317D26A1314001991608004001991244
:1044400041012408A9002508AA002608AB00270876
:10445000AC001030AC36AB0CAA0CA90C890B2A2A84
:104460002908AD002D084001E50041012408A900FC
:104470002508AA002608AB002708AC000830AC3697
:10448000AB0CAA0CA90C890B3F2A2908AD002D08FA
:104490004001E60041012408A90029084001E70085
:1044A00041012808A90029084001E80065304101C0
:1044B000A0000030A1000430A2000030A300AE3103
:1044C000F226A231400199166808080040016D08E3
:1044D0004101AB0040016C084101AA0040016B089A
:1044E0004101A90040016A084101A8004C30AF0019
:1044F0009530AE007F30AD002D30AC00A031E12012
:10450000A2310130410128074001EA000030410199
:10451000293D4001EB00003041012A3D4001EC0003
:10452000003041012B3D4001ED006A084101B60019
:1045300040016B084101B70040016C084101B8001F
:1045400040016D084101B9001130B936B80CB70C03
:10455000B60C890BA52A3708B5003608B400080048
:104560004001991241012408AC002508AD0026083D
:10457000AE002708AF001030AF36AE0CAD0CAC0C5F
:10458000890BBC2A2C08B00030084001E50041012D
:104590002408AC002508AD002608AE002708AF00AF
:1045A0000830AF36AE0CAD0CAC0C890BD12A2C0800
:1045B000B00030084001E60041012408AC002C089E
:1045C0004001E70065304101A0000030A100033048
:1045D000A2000030A300AE31F226A2314101290829
:1045E000A1002808A0002B08A3002A08A200AE31D1
:1045F000F226A231400199160800400199124101AA
:104600002408AA002508AB002608AC002708AD0046
:104610001030AD36AC0CAB0CAA0C890B092B2A0858
:10462000AE002E084001E50041012408AA0025083B
:10463000AB002608AC002708AD000830AD36AC0C46
:10464000AB0CAA0C890B1E2B2A08AE002E084001C9
:10465000E600410124080438AA002A084001E700C6
:1046600041012908AA002A084001E8004101280860
:10467000AA002A084001E90065304101A00000308D
:10468000A1000530A2000030A300AE31F226A23115
:104690004001991608004001991241012408AC001C
:1046A0002508AD002608AE002708AF001030AF3651
:1046B000AE0CAD0CAC0C890B572B2C08B00030089D
:1046C0004001E50041012408AC002508AD002608A2
:1046D000AE002708AF000830AF36AE0CAD0CAC0C06
:1046E000890B6C2B2C08B00030084001E60041011A
:1046F00024080438AC002C084001E7006530410173
:10470000A0000030A1000330A2000030A300AE31B1
:10471000F226A33141012908A1002808A0002B0896
:10472000A3002A08A200AD31CF25A331400199167C
:1047300008004001C7003B08A6003A08A5003D0854
:10474000A8003C08A70047089C31EB24A331400196
:104750002608BD002508BC003C083D04031DB12B04
:10476000B22BB52BBA01BB01E92B4708BE00BF0134
:10477000BE35BF0DBE35BF0DBE35BF0DBE35BF0D3D
:10478000BE35BF0D3E08083EC00000303F3DC100B1
:104790004008C2004108C3000030C31BFF30C40002
:1047A000C50004304204F40001304304F500003039
:1047B0004404F60000304504F7004030C6004608C7
:1047C000F800A1311521A33140013D08BB003C0890
:1047D000BA0008004101D4004808B3004708B200FD
:1047E0004A08B5004908B40054089D31E425A331B6
:1047F00041013308CA003208C90049084A04031DB0
:10480000022C032C062CC701C8013A2C5408CB00FB
:10481000CC01CB35CC0DCB35CC0DCB35CC0DCB3540
:10482000CC0DCB35CC0D4B08083ECD0000304C3DB7
:10483000CE004D08CF004E08D0000030D01BFF3016
:10484000D100D20004304F04A40001305004A50070
:1048500000305104A60000305204A7004030D300BD
:104860005308A800A2311E22A33141014A08C80002
:104870004908C700080000304101A3000030A20031
:104880000130A1001630A000AE315826A4314101FC
:104890002108A9002008A8000A30AA000030AB00B7
:1048A000AD31AF25A431410129084201EE0041019B
:1048B00028084201ED0000304101A3000030A200B1
:1048C0000130A1001930A000AE315826A4314101B9
:1048D0002008B4002108B500B601B7013708AB00C5
:1048E0003608AA003508A9003408A8000030AF0037
:1048F0000030AE000030AD006430AC00A031E120EB
:10490000A43141012B084301EB0041012A08430176
:10491000EA00410129084301E90041012808430157
:10492000E80008004101AF01AF0A400199124101BE
:104930002408A8002508A9002608AA002708AB001B
:104940001030AB36AA0CA90CA80C890BA12C280896
:10495000AC002C084001E50041012408A80025080E
:10496000A9002608AA002708AB000830AB36AA0C1D
:10497000A90CA80C890BB62C2808AC002C08400107
:10498000E60041012408A80028084001E70065303E
:104990004101A0000030A1000530A2000030A300BA
:1049A000AE31F226A4314001991641013108AE0022
:1049B0003008AD00400169084101A800A90140018B
:1049C00068084101AA00AB012A08AB00AA01280827
:1049D0002A04B00029082B04B1002F080319F12C78
:1049E000F22CF42CAF01952C2E083106031DFA2C65
:1049F0002D083006031DFD2CFE2C952C3108A5003A
:104A00003008A4000800F600420168080319092DC7
:104A10000A2D552D4E3041016F02031C102D112D12
:104A2000122D842D6E080319162D172D222D7603B5
:104A3000031D1B2D1C2D2F2D803072020318212DDC
:104A4000222D2F2D7208F3006F0886000230870098
:104A5000730881000130F3007308EF07842D72089A
:104A6000F3000630F336890B322D7608F40001305E
:104A7000F435FF3E031D382D74357304C038F5003E
:104A80006F08860002308700750881000130F3004E
:104A90007308EF0772083F398038F3006F0886000B
:104AA00002308700730881002A2D41016E08031926
:104AB0005A2D5B2D662D7603031D5F2D602D6B2D0A
:104AC000803072020318652D662D6B2D7208AF3190
:104AD0004827A531842D7208F3000630F336890B80
:104AE0006E2D7608F4000130F435FF3E031D742D61
:104AF00074357304C038AF314827A53172083F3987
:104B00008038AF314827A53108004101A600420195
:104B1000680803198C2D8D2DD82D4E3041016F0260
:104B2000031C932D942D952D082E6E080319992D95
:104B30009A2DA52D2603031D9E2D9F2DB22D80306D
:104B400022020318A42DA52DB22D2208A3006F0860
:104B5000860002308700230881000130A30023086B
:104B6000EF07082E2208A3000630A336890BB52DC7
:104B70002608A4000130A435FF3E031DBB2D2435BB
:104B80002304C038A5006F0886000230870025087E
:104B900081000130A3002308EF0722083F39803845
:104BA000A3006F0886000230870023088100AD2D26
:104BB00041016E080319DD2DDE2DE92D2603031DAD
:104BC000E22DE32DEE2D803022020318E82DE92D91
:104BD000EE2D2208A0317C20A531082E2208A3004A
:104BE0000630A336890BF12D2608A4000130A43528
:104BF000FF3E031DF72D24352304C038A0317C204F
:104C0000A531410122083F398038A0317C20A531EF
:104C10000800F80154011D1D0E2E0F2E1C2E4101FF
:104C20006E080319142E152E1A2EF2010B30A53121
:104C30000325A631F801F80A54019D1C202E212ECF
:104C4000312E1D121D1641016E080319282E292E22
:104C50002F2EF201F20A0B30A5310325A631F801FF
:104C6000F80A54011908F7007708F90078080319C1
:104C70003A2E3B2E432E1F30F0000030F100AC31B5
:104C8000E024A631A32E41016E08031D482E492EB3
:104C9000522E7908F7007708F2000130A53103257C
:104CA000A631A32E40015D03031D572E582E752EED
:104CB000AA307906031D5D2E5E2E752EA0300032BF
:104CC000890B5F2E40015C08AF311B27A6310230F3
:104CD000F70077084001DD007908F7007708F20057
:104CE0000130A5310325A631A32E02305D06031D38
:104CF0007A2E7B2E9B2E79085C06031D802E812E3A
:104D00008A2E7908F7007708F2000230A5310325D2
:104D1000A631922E7908F7007708F2000A30A53103
:104D20000325A6314001DD010030F000F100AC3177
:104D3000E024A631A32E7908F7007708F2000130AD
:104D4000A5310325A63108004101A8002808A400C8
:104D50002408A90022082304031DAF2EB02EB12E73
:104D6000512F2008A400290886000130870024085C
:104D700081002008A40022082907A5002508FF3E7D
:104D800086000130870024088100003023020330B0
:104D9000031922020318CD2ECE2ECF2E512F20081C
:104DA000A400290A86000130870024088100200819
:104DB000A4002908023E86000130870024088100F3
:104DC0002008A40022082907A5002508FE3E860029
:104DD00001308700240881002008A4002208290748
:104DE000A5002508FD3E86000130870024088100CB
:104DF000003023020730031922020318002F012F6D
:104E0000022F512F2008A4002908033E86000130FC
:104E10008700240881002008A40022082907A50093
:104E20002508FC3E86000130870024088100003000
:104E3000230209300319220203181F2F202F212FCC
:104E4000512F2909A4002A09A500A40A0319A50ABB
:104E500003302405A60000302505A7002608A4007D
:104E60002408A9072608A2022708A33BFC30A205B4
:104E7000FF30A3054B2F2008A4002908860001302D
:104E80008700240881000130A2020030A33B0130DA
:104E9000A4002408A90722082304031D502F512F22
:104EA0003B2F08004101BF00BF2F3F08B500B601EE
:104EB000B535B60DB535B60DB535B60DB535B60D3E
:104EC000B535B60D3508083EB7000030363DB800A0
:104ED0003708B9003808BA000030BA1BFF30BB00F1
:104EE000BC0000303904AE0001303A04AF0000309D
:104EF0003B04B00000303C04B1000230BD003D086E
:104F0000B200AE31A326A731FE2F34080319892F32
:104F10008A2FBD2F3F08B500B601B535B60DB535A2
:104F2000B60DB535B60DB535B60DB535B60D35087A
:104F3000083EB7000030363DB8003708B9003808E1
:104F4000BA000030BA1BFF30BB00BC00003039048F
:104F5000A4000C303A04A50000303B04A600003049
:104F60003C04A7003408A8000030A9000430AA00BF
:104F70000030AB00A231B022A7310130FF2F3F0833
:104F8000B500B601B535B60DB535B60DB535B60DAE
:104F9000B535B60DB535B60D3508083EB70000304D
:104FA000363DB8003708B9003808BA000030BA1BDF
:104FB000FF30BB00BC0000303904A40003303A04C9
:104FC000A50000303B04A60000303C04A700A80167
:104FD000A2311E22A7314101BD00BE013E08003AA8
:104FE0000319F32FFE2F3D08133A0319552F073AE3
:104FF0000319FE2F033A0319852FFE2F00300800F6
:1058000008004B019E170800BB3052018C000800B5
:10581000FF34FF34FF340034803046019600950198
:1058200094010800163050018C0037308D000800BC
:10583000640080010131890B192C0034E3304101EF
:105840009E009B019C0101309D00080082305301A5
:105850009000910106309200930108004101210857
:105860004001D300410120084001D200080041015D
:1058700021084001D500410120084001D400080062
:10588000410121084001D700410120084001D60014
:105890000800410121084001D900410120084001D0
:1058A000D8000800410121084001EF004101200813
:1058B0004001EE000800603051018D008F01910120
:1058C0000630930090019201080040016E086F04B9
:1058D00003196B2C6C2C712C6F088A006E080A005F
:1058E000AC3108004F019601023097004530980016
:1058F0003B30990001309A0006309B0008000130CF
:10590000450190008F0191010F308D008C014E01F7
:105910009010FF3045018E000F308D0008008B1372
:105920000B1305304101A1000F30A000F130890BAD
:10593000972CA00B972CA10B972C7E019B01A1010A
:10594000010008004101D8000030C7000030C80045
:105950005608CA005508C9005808A331EA23AC31DB
:1059600041014808D6004708D500080010307D01E5
:10597000BB0003307E019B0002307C01A500A60124
:10598000A701A801A9010230AA00AB01AC01AD0139
:105990008030A400080048304B019F00FF309D007C
:1059A0009C014E018C12961600304101A000183067
:1059B000A100AC315224AC3180304B019E00080074
:1059C0007108F3007008F200F336F20CF336F20CB3
:1059D00072084601950070080339F2000530F2356F
:1059E000FF3E031DEF2C7235940008000A307D0144
:1059F000BD0004307E01A10082307C01AF00023086
:105A0000B000B101B201B3010230B400B501B6017A
:105A1000B7018030AE0008004101A0002008031942
:105A2000122D132D1E2D7E01C312400193127E01F3
:105A3000C4163813400112137E013917400118179C
:105A4000991608004E018C1201304001D007003039
:105A5000D13D003051027A3003195002031C312D20
:105A6000322D382DAC316524AD314001D001D1014A
:105A7000080041012108A4002008A300432D0130A3
:105A8000A0070030A13D20088400210885001200F5
:105A9000031D4B2D4C2D3F2D23082002A000240870
:105AA000213BA10008004001181315304101A1005D
:105AB0004B30A000BE30890B5B2DA00B5B2DA10BE2
:105AC0005B2D00004001181705304101A1000F3087
:105AD000A000F130890B6A2DA00B6A2DA10B6A2D55
:105AE000080001304201E5070030E63D40015B0857
:105AF00003197B2D7C2D8F2DDB0141016E080319CD
:105B0000822D832D8F2DF2010030A5310325AD317B
:105B10003F30F0000030F100AC31E024AD3108003E
:105B2000AC317224AD31AF317527AD31AC315B246E
:105B3000AD31AC311224AD31AC310424AD31AC31D6
:105B40007F24AD31AC31CB24AD31AC312624AD3125
:105B5000AC311E24AD31AC310C24AD310800410113
:105B6000AC01AD01281CB52DB62DBA2D2A08AC0705
:105B70002B08AD3D0130AA35AB0D890BBB2D013093
:105B8000A936A80C890BC02D28082904031DC92D8E
:105B9000CA2DB22D2D08A9002C08A8000800E22D5E
:105BA0002008860021088700010843018C0001308D
:105BB0004101A0070030A13D4E010F1CE02DE12D59
:105BC000DC2D0F1001304101A2020030A33B220A5C
:105BD000031DEE2D230A031DEE2DEF2DD02D080001
:105BE0004101A7002108A5002008A4002708A20061
:105BF0002208A6002608860001308700A60A25088C
:105C0000A3002408A200A40A0319A50A22088400FC
:105C1000230885000008C03F8908031D102E112E9F
:105C2000FA2D0800083040015F020318182E192EC3
:105C3000322E6008203E86000230870001084201B3
:105C40009A000130F00070084001E007083060025F
:105C5000031C2B2E2C2E2D2EE0010130F00070089D
:105C6000DF07342E4E01191208000830400162028D
:105C700003183B2E3C2E552E6308A03E86000130B3
:105C80008700010854019A000130F00070084001BB
:105C9000E30708306302031C4E2E4F2E502EE30103
:105CA0000130F0007008E207572E4E01191308006A
:105CB00050011E1741012008A4002108A500220858
:105CC000A6002308A7000830A736A60CA50CA40C34
:105CD000890B642E240850019B00410120085001CB
:105CE0009A001E140000000050011D084101A1008F
:105CF00050011C084101A0000800962E7008860083
:105D000071088700010843018C004E010F1C892E89
:105D10008A2E852E0F1070088600710887004301B7
:105D20000C0881000130F0070030F13D0130F20233
:105D30000030F33B720A031DA12E730A031DA12E2E
:105D4000A22E7E2E0800043041012E04A400003053
:105D50002F04A50000303004A60000303104A70055
:105D60003208B3003308A800A2311E22AE3141012F
:105D70003108A7003008A6002F08A5002E08A400AF
:105D8000A801A2311E22AE31003A031DC82EC92E31
:105D9000B72E08004101A40040010E1BD02ED12EC9
:105DA000DF2E5A080319D52ED62ED92EAC318F24CA
:105DB000AE314001DA01DA0A4101A401A40A41012D
:105DC00024080319E42EE52EF12E05304101A3002D
:105DD0000F30A200F130890BEB2EA20BEB2EA30BA0
:105DE000EB2E08000D2F20088600210887000108EF
:105DF00043018C004E010F1CFE2EFF2EFA2E0F10B9
:105E00004101200886002108870043010C08810019
:105E100001304101A0070030A13D01304101A20243
:105E20000030A33B220A031D192F230A031D192F3B
:105E30001A2FF32E0800F1001E2F640040016208A3
:105E40000319232F242F1D2F4E01191B282F292F13
:105E50002D2F710854019A00452F19137108F00075
:105E600040016408A03E8600013087007008810070
:105E70000130F0007008E40708306402031C412F71
:105E8000422F432FE4010130E2024E0119170800AE
:105E9000F1004B2F640040015F080319502F512F70
:105EA0004A2F4E01191A552F562F5A2F71084201A9
:105EB0009A00722F19127108F00040016108203E0B
:105EC000860002308700700881000130F000700801
:105ED000E10708306102031C6E2F6F2F702FE10164
:105EE0000130DF024E0119160800400198012030F0
:105EF00099009A0104309200C63093007D309400DE
:105F00007E01CE01C3010C30B800E501FF30C400B2
:105F10004030B9007F30CF00BA01C501D001FF3059
:105F2000BB00FF30C600FF30D100FF30BC00FF30A7
:105F3000C700FF30D2000830E8000B309800133063
:105F40009300080041012308AB002208AA002108A1
:105F5000A9002008A800C22F2A0886002B08870065
:105F60000108A6002608A7000130AA070030AB3DB3
:105F70002808860029088700270881000130A80723
:105F80000030A93D0130A4020030A53B240A031DC6
:105F9000CD2F250A031DCD2FCE2FAC2F08000F309B
:105FA0007E019B000A307D01CB004E01991200302A
:105FB0004101A0000830A100AC312E24AF314E01C8
:105FC000191212304101A0002E30A100AC3137244B
:105FD000AF31083042019F0090309D0024309E0078
:105FE00040309B0003309C004001E101E00108309B
:105FF0004101A20022084001DF004E01991608006D
:0E6000006134653462347534733433340034E3
:00000001FF
