:1000000080310628AB3401348431042C8031082837
:10001000203084000030850009308331C7238031CF
:10002000A03084000030850049308331C7238031FF
:1000300040018331352B42019E1C1F2820281B289C
:100040008331AE23803142011F142D289F1F2928A0
:100050002A282D281F109F131F141F1830283128FD
:10006000262883317C238031FD010930FA007A088B
:10007000FC00692883317C238031FA007A08FB0078
:100080007B08FA007D08A03E860087017A0881007F
:100090000130FA007A08FD0704307D06031D51285F
:1000A000522869280230410120060319582859288E
:1000B00065280530200603195E285F28652807306B
:1000C0002006031D6428652869282108FA007A089B
:1000D000FC077C087D02031C6E286F283A288031BB
:1000E0008F208031FA007A08FC0055308331A42338
:1000F0008031FD0187287D08A03E86008701010828
:100100008331A42380310130FA007A08FD077C088E
:100110007D02031C8C288D287B281B2808004101A8
:100120002308F80078084001F00041012408F80095
:1001300078084001F100C528813185218031E82807
:10014000823186228031E8288031E9208031E82818
:10015000823112228031E828823150228031E82811
:1001600081313C218031E8288131CC218031E8285F
:10017000A901A90A4001A501A50A0A30E828FF3013
:10018000F8007808A9000A30E82841012008F800A2
:10019000F9017908003A0319CE28BF287808003AF7
:1001A00003199C28013A0319A028033A0319A4282B
:1001B000013A0319A828053A0319AC28013A031992
:1001C000B0280F3A0319B428013A0319B828BF28F8
:1001D00008004101250850019A00410126085001FC
:1001E0009B00A4309E00F501F6012A291F30500122
:1001F0001A05F3001F3073060319FF28002911297F
:1002000041012108FE3EF300FF30223DF400760854
:100210007406031D0D2975087306031D1029112985
:10022000132950019E127508A93E86008701010816
:1002300050019C007508AA3E8600870101089D00B8
:100240008331C023803183318C2380310230F50724
:100250000030F63D410122087602031D31292108B4
:100260007502031C34293529F628A901A90A400181
:10027000F001F1010A3008004101250850019A00FF
:100280004101260850019B00410125082604031D59
:100290004A294B295429D43050019E008331C02370
:1002A000813150019A019B01C43050019E00F5013B
:1002B00070297508A93E86008701010850019C003D
:1002C0007508AA3E8600870101089D008331C0237E
:1002D000813183318C2381310230F3007308F507BB
:1002E0007508F300F401410122087402031D7A2904
:1002F00021087302031C7D297E295929A901A90A15
:100300004001F001F1010A3008000830F3007308E1
:100310004101A900AA01AB01AC01AC0AAD01AE01DB
:10032000063050019A009B011E171E141C08F30092
:1003300073084101AF0050011D08F300730841012B
:10034000B000B101B2012030F3007308B3002030D7
:10035000F3007308B40050019A019B011E170C3082
:10036000F3007308F40050011E141C08F300740815
:10037000A93E860087017308810083318C23813177
:100380000130F3007308F40710307402031CC9290C
:10039000CA29B329193008004101250850019A00E3
:1003A0004101260850019B0080309E004001A201BF
:1003B000A301F601F701F92950011E141C08F300EE
:1003C000F40173084001A2077408A33D50011D0801
:1003D000F300F4017308F400F30173084001A2076D
:1003E0007408A33D83318C2381310230F60700303D
:1003F000F73D410122087702031D002A21087602F9
:10040000031C032A042ADC2940012208F300730894
:100410004101A90040012308F30073084101AA002B
:100420000B3008004101250850019A0041012608BF
:1004300050019B00F401F5013F2A7F3050011B055C
:10044000F30040307302031C262A272A2E2AFE308E
:10045000F30073084101A9000A304F2A94309E002E
:100460008331C02382311F30F300730850019A0793
:1004700083318C2382310130F4070030F53D410196
:1004800022087502031D462A21087402031C492A0A
:100490004A2A1D2AA901A90AA301A4010A300800B9
:1004A0004101250850019A004101260850019B0096
:1004B00040309E00F501752A50011E141C08F300FF
:1004C0007508A93E86008701730881001D08F300A6
:1004D0007508AA3E860087017308810083318C234A
:1004E00082310230F3007308F5077508F300F40158
:1004F000410122087402031D7F2A21087302031C94
:10050000822A832A5C2A2108093E08004101250825
:1005100050019A004101260850019B0080309E0046
:10052000F401F501AC2A50011E141C08F3007408F4
:10053000A93E86008701730881001D08F300740836
:10054000AA3E860087017308810083318C238231A3
:100550000230F4070030F53D410122087502031D09
:10056000B32A21087402031CB62AB72A932A210849
:10057000093E0800403040019800303099009A014F
:10058000BF309200C6309300FF309400E3307E010C
:10059000CE000230C300BF30B800E501FD30C4001A
:1005A0005030B9003830CF00BA01C501D001FF305A
:1005B000BB00FF30C600FF30D100FF30BC00FF3071
:1005C000C700FF30D2000830E8000F309B000A302F
:1005D0007D01CB000800F30100000130F200720839
:1005E000F307730A031DF52AF62AEC2A40018D1B36
:1005F000FA2AFB2AFD2A0130112B50019A010430FE
:100600009B0080309E001E143F301D06031D092BE9
:100610000A2B102B1C0A031D0E2B0F2B102BFB2A51
:1006200000300800083042019F0090309D002430C7
:100630009E0040309B0003309C000030F2000030F0
:10064000F3008331D32383310030F2000030F30014
:100650008331CD2383310030F2000030F300833149
:10066000D92383314001A401080083316C238331F5
:1006700003104001191C031403183F2B422B4001A7
:100680001914442B400119100B304001B0002630E2
:10069000AF005D30890B4A2BAF0B4A2BB00B4A2BB6
:1006A0000032382B803106284001F001F101191485
:1006B0008231EB228331013A031D5F2B602B632BC8
:1006C00080311B2083311F307F01ED004001880104
:1006D00019108431002C08008331B8238331823112
:1006E000BA22833183319A238331833112238331B8
:1006F00083315423833108004E018F1E802B812BC0
:100700007C2B4001A40142019D1C872B882B8A2B46
:100710001D121D16190808000130F2007208500160
:100720009A07031D942B952B992B0130F200720828
:100730009B070800603051018D008F019101063048
:100740009300900192010800F2004E010F1EA92BA8
:10075000AA2BA52B720842019A000800400125032C
:10076000031DB32BB42BB72B131019100100080075
:100770004F0196019701980199019A019B01080088
:10078000640070089F0071089F009E1408006400B8
:1007900080010131890BC82B003473084001AC0083
:1007A0007208AB00080073084001AE007208AD008B
:0E07B000080073084001AA007208A9000800A2
:100800008431552CAE3401347E1484314E01961E51
:100810000A2C0B2C132C8C1E0E2C0F2C132CAD31F0
:10082000EA258431532C0B1F162C172C532C991EA0
:100830001A2C1B2C262C8F1E1E2C1F2C262C400104
:1008400053088A0052080A008431532C191E292C9F
:100850002A2C352C0F1E2D2C2E2C352C4001550802
:100860008A0054080A008431532C991F382C392CE3
:10087000442C8F1F3C2C3D2C442C400157088A00EF
:1008800056080A008431532C191F472C482C532C2E
:100890000F1F4B2C4C2C532C400159088A00580830
:1008A0000A008431532C7E10090040018431582CF9
:1008B0004101AC31EA248431EE00AC31EB248431C7
:1008C000EF00F3308400AC308500EC30860001305E
:1008D00087000430AD31092584310130840098301F
:1008E000850050308600023087000630AD31092582
:1008F00084314E308400003085002030AD31032536
:10090000843159308400013085001430AD31032525
:100910008431A0308400013085004830AD3103259A
:10092000843120308400023085003030AD31032521
:1009300084317E10400184319D2CAE31712684318A
:1009400054011F16A5311E25843105304101ED00EB
:100950000F30EC00F130890BAB2CEC0BAB2CED0B1A
:10096000AB2C003040010E1901304101EE000310A4
:1009700040010E1E03140030031801304201E8004C
:10098000D101D10A6808031DC62CC72CE52C4001F3
:1009900094119A1105304101ED000F30EC00F13057
:1009A000890BD02CEC0BD02CED0BD02C031040017C
:1009B0000E1E03140030031801304201E7006708DF
:1009C0000319E32CE42CE52CD101400194129A1276
:1009D000420168080319ED2CEE2CFD2CA031FC20FF
:1009E00084310130A0319D2084310130A0310020BC
:1009F0008431AE3134268431682D4001181315300E
:100A00004101ED004B30EC00BE30890B052DEC0BA5
:100A1000052DED0B052D0000400118170530410193
:100A2000ED000F30EC00F130890B142DEC0B142D80
:100A3000ED0B142D42015108031D1F2D202D552DA6
:100A4000502D03304101A0000030A100AE3101263D
:100A500084310130AF31AB27843105304101ED00E5
:100A60000F30EC00F130890B332DEC0B332DED0BF7
:100A7000332D00304101A000A100AE3101268431A8
:100A80000130AF31AB27843105304101ED000F302B
:100A9000EC00F130890B4A2DEC0B4A2DED0B4A2D61
:100AA00040018D18542D552D212D41016E08031D37
:100AB0005A2D5B2D622DAD3194258431AD31D42575
:100AC0008431682DA031FC208431A031CB208431C9
:100AD00052304101A0002E30A10088310120843124
:100AE000AC31EC24843109304101ED001E30EC00C2
:100AF000E430890B792DEC0B792DED0B792D00006D
:100B000000304101A000A100AE310126843109303E
:100B10004101ED001E30EC00E430890B8D2DEC0B13
:100B20008D2DED0B8D2D000003304101A000003014
:100B3000A100AE310126843141016E080319A12DB7
:100B4000A22DE12D09304101ED001E30EC00E43012
:100B5000890BA82DEC0BA82DED0BA82D000008305B
:100B60004101A0000030A100AE31012684310930DE
:100B70004101ED001E30EC00E430890BBD2DEC0B83
:100B8000BD2DED0BBD2D00001F304101A000003038
:100B9000A100AE310126843109304101ED001E3043
:100BA000EC00E430890BD22DEC0BD22DED0BD22DC5
:100BB00000003F304101A0000030A100AE3101260D
:100BC00084314201D30168080319E72DE82D102F65
:100BD000D70100304101A7000030A6003930A50040
:100BE0000030A400A801A331012384314101EC00AD
:100BF0006C084201CE0004304E060319002E012E6F
:100C00002B2E57080319052E062E0F2ED701003064
:100C10004101A000A100AE3101268431192ED70177
:100C2000D70A3F304101A0000030A100AE310126BB
:100C300084310B304101ED002630EC005D30890B32
:100C40001F2EEC0B1F2EED0B1F2E00320030AF318C
:100C5000AB278431E92D88318E2084314101EC00AD
:100C60006C084201D3005D2E420157080319392E4A
:100C70003A2E432ED70100304101A000A100AE3131
:100C8000012684314D2ED701D70A3F304101A00003
:100C90000030A100AE310126843103304101ED0066
:100CA0000830EC007730890B532EEC0B532EED0BF4
:100CB000532E0030AF31AB27843100304101A70003
:100CC0000030A6002E30A5000030A400A801A331FA
:100CD00001238431013903196E2E6F2E342E420107
:100CE00053080319742E752E182F6608D000650856
:100CF000CF00D401D403D201092FD41B802E812E22
:100D0000932E4F0865024101EC0042015008663BFA
:100D10004101ED0000306D020A3003196C02031C22
:100D2000922E932EB42E42016608D0006508CF00A3
:100D300066084101C400420165084101C30000305A
:100D40009E31FB26843103304101ED000830EC0078
:100D50007730890BA92EEC0BA92EED0BA92EB42E02
:100D60004201D201D20ACD2E420166084101EB00B8
:100D7000420165084101EA0000309031D7208431FA
:100D80004101EC00ED016D08003A0319C82ECD2E8B
:100D90006C08013A0319B02ECD2E420157080319F1
:100DA000D22ED32EDC2ED70100304101A000A100AD
:100DB000AE3101268431E62ED701D70A3F304101FA
:100DC000A0000030A100AE3101268431063041017F
:100DD000ED001330EC00AD30890BEC2EEC0BEC2E5B
:100DE000ED0BEC2E003201304101EC006C084201A9
:100DF000D4075408803A783E031CFF2E002F052F9D
:100E0000D4010130E5070030E63D0030AF31AB27BB
:100E100084314201520803190E2F0F2F7D2E182FF7
:100E200047304101A0001A30A100AD311F258431A7
:100E3000BC304101A0002630A100AD313125843104
:100E40008B170B174001DB01DB0A4201680803190D
:100E50002A2F2B2FEF2FD801420153080319312FCE
:100E6000322F3D2F66084101EB0042016508410128
:100E7000EA0000309031D720843142015808031D28
:100E8000422F432F5D2F0F304101B4002730B500B2
:100E900001309C311924843100304101A700003019
:100EA000A6002F30A5002C30A400A801A80AA33169
:100EB000012384314201D801D80A5803031D612F50
:100EC000622F732F4101B401013090312920843108
:100ED000003A03196C2F6D2F732F02304101EC0083
:100EE0006C084201D800023042015806031D792FD8
:100EF0007A2F942F0130A6314A268431003A031903
:100F0000822F832F862F4201D801942F0130A131E7
:100F1000912184314101320833040319902F912F1C
:100F2000942F9A3147228431303041016F02EC0016
:100F30006C084201D500550803199F2FA02FEA2FF6
:100F400002305806031DA52FA62FB82F30304101BF
:100F5000C7000230C800420155084101EC00ED0114
:100F60006C08C9006D08CA000130993164218431D0
:100F70004E0199134201550841016F02EC006C08C3
:100F80004201D60030304101EC00420156084101D7
:100F90006C020318CC2FCD2FE22F3030A00002308E
:100FA000A100420156084101A2000230A3003030E6
:100FB000420156024101A400A501A41BA503A031D2
:100FC00070208431420156084101EC006C08EF00AA
:100FD0004E0199170030AF31AB2784312C2F0130EF
:100FE000AF31AB278431EF2F8431552C6030510164
:100FF0008D008F019101063093009001920108004D
:101000000800410121084001EF0041012008400192
:10101000EE0008004101A6004201680803191128EA
:1010200012285D284E3041016F02031C1828192830
:101030001A288D286E0803191E281F282A2826031F
:10104000031D23282428372880302202031829284A
:101050002A2837282208A3006F088600023087005C
:10106000230881000130A3002308EF078D28220800
:10107000A3000630A336890B3A282608A4000130C5
:10108000A435FF3E031D402824352304C038A500A5
:101090006F08860002308700250881000130A30018
:1010A0002308EF0722083F398038A3006F08860025
:1010B0000230870023088100322841016E0803199D
:1010C000622863286E282603031D67286828732872
:1010D0008030220203186D286E2873282208A1315F
:1010E0005F2188318D282208A3000630A336890BA2
:1010F00076282608A4000130A435FF3E031D7C2875
:1011000024352304C038A1315F21883141012208F0
:101110003F398038A1315F21883108005030860086
:1011200002308700B5308400003085000630410170
:10113000B10016001A00B10B99280030CB00003026
:10114000CA000030C9000030C80043016F084101E7
:10115000BE0043016E084101BD0043016D0841011D
:10116000BC0043016C084101BB0050011E179B01EC
:101170009A014101C701C70ACF01CE0150011E14D7
:101180001C084101B1003108C5004E08031DC928E3
:10119000CA28DE2850011D084101B1003108C600EF
:1011A000C61AD328D5280130D6280030B10031081E
:1011B000C70046081F39B1003108CF004508B1000B
:1011C0004E08C83E86008701310881004E08031989
:1011D000EA28EB28F9284708031DEF28F028F9280A
:1011E0004508B1004E08023EB53E86008701310831
:1011F00081000130B100310850019A0701304101EE
:10120000B1003108CE0704304E02031C0829092919
:10121000BE28470803190D290E2931290130500134
:101220009B0006309A004101CC0150011E141C089D
:101230004101B1004C08033EB53E860087013108EC
:1012400081000130B100310850019A07013041019D
:10125000B1003108CC0703304C02031C302931297E
:1012600015290030A7000030A6000930A500003085
:10127000A400B530A8000030A9000630AA00003054
:10128000AB00A4312E2488311F3041014F060319D1
:101290004A294B29532949084A044B044804031D91
:1012A0005229532955290130F4290030A700003074
:1012B000A6000F30A5000030A400C830A800003000
:1012C000A9000430AA000030AB00A4312E248831DC
:1012D0004101CD0108304F0203186F29702995296B
:1012E0004F080319742975298E290130B100003087
:1012F000B2004F08083C890A7F29B135B20D890B2D
:101300007D293108FF3EB300FF30323DB400FF308D
:101310003306C10000303406C2009029C101C20169
:101320004208C0004108BF009929FF30BF000030CB
:10133000C0003F08B1004D08BB3E86008701310860
:1013400081004D08BB3E860087010108B1004D08B1
:10135000C83E860087013108810508304F02031816
:10136000B229B329B629C301C401BD294F08F83EEB
:10137000C300FF3003180030C4004308B100310837
:10138000CF000130B1003108CD0704304D02031CFD
:10139000CA29CB296A290030A7000030A6000530F1
:1013A000A5000030A400BB30A8000030A900043024
:1013B000AA000030AB00A4312E24883141014B1427
:1013C0000030A7000030A6000130A5000030A400C6
:1013D000C830A8000030A9000430AA000030AB00DB
:1013E000A4312E24883100300800410169080E3EE6
:1013F00086000130870001084201A0000430A036B9
:10140000890BFF292008573E4101DC0000300318FA
:101410000130DD00202A410169080E3E86000130BE
:10142000870001084201A0000430A036890B152A6C
:101430002008303E4101DC00003003180130DD009F
:101440005C084201A000410169081A3E8600013093
:101450008700420120088100410169080E3E860094
:10146000013087000F3001054201A0000A30200240
:10147000031C3B2A3C2A4B2A410169080E3E860088
:101480000130870001080F39573EDE000030031895
:101490000130DF00592A410169080E3E8600013003
:1014A000870001080F39303EDE000030031801309C
:1014B000DF005E084201A000410169081B3E860072
:1014C00001308700420120088100410169080F3E78
:1014D00086000130870001084201A0000430A036D8
:1014E000890B6F2A0A302002031C772A782A8E2A59
:1014F000410169080F3E8600013087000108420162
:10150000A0000430A036890B822A2008573E4101F2
:10151000E000003003180130E100A32A410169080E
:101520000F3E86000130870001084201A000043010
:10153000A036890B982A2008303E4101E000003097
:1015400003180130E10060084201A0004101690870
:101550001C3E8600013087004201200881004101C5
:1015600069080F3E8600013087000F3001054201F7
:10157000A0000A302002031CBE2ABF2ACE2A410145
:1015800069080F3E86000130870001080F39573E79
:10159000E200003003180130E300DC2A4101690851
:1015A0000F3E86000130870001080F39303EE2000F
:1015B000003003180130E30062084201A00041013D
:1015C00069081D3E86000130870042012008810025
:1015D000410166084201A000410167084201A100E3
:1015E000A201A3010830A035A10DA20DA30D890B06
:1015F000F32A410168084201A400A501A435A50D04
:10160000A435A50DA435A50DA435A50DA435A50DAE
:101610002408103EA6000030253DA7002608A8009B
:101620002708A9000030A91BFF30AA00AB00200842
:1016300028044101A4004201210829044101A50018
:10164000420122082A044101A600420123082B047A
:101650004101A7006908A8000130A9001E30AA00B6
:101660000030AB00A4312E2489311E304101E60741
:101670000030E73DFF3042016105A0000030620507
:10168000A100033020062104031D472B482BE72B24
:101690003230A00041016908860001308700420114
:1016A000200881000430A0004101690A8600013051
:1016B000870042012008810041016908023EA00024
:1016C0000130A1006930A2000130A3000430A40061
:1016D0000030A500A0317020893136304201A000D1
:1016E00041016908063E860001308700420120085A
:1016F00081000430A00041016908073E86000130E6
:10170000870042012008810041016908083EA000CD
:101710000130A100E430A2000130A3000430A40095
:101720000030A500A03170208931410166084201D6
:10173000A000410167084201A100A201A3010830F5
:10174000A035A10DA20DA30D890BA02B41016808A6
:101750004201A400A501A435A50DA435A50DA4350D
:10176000A50DA435A50DA435A50D2408103EA60091
:101770000030253DA7002608A8002708A900003052
:10178000A91BFF30AA00AB00200828044101A400D7
:101790004201210829044101A500420122082A042E
:1017A0004101A600420123082B044101A70069085A
:1017B000A8000130A9000C30AA000030AB00A43111
:1017C0002E2489310C304101E6070030E73D3730E7
:1017D0004201A000410169088600013087004201F2
:1017E000200881000430A0004101690A8600013010
:1017F000870042012008810041016908023E8600FD
:10180000013087008101810A03304201A0004101BB
:101810006908033E860001308700420120088100EC
:101820003A30A00041016908043E8600013087007B
:101830004201200881003B30A00041016908053EBB
:10184000860001308700420120088100FF30A0009F
:1018500041016908063E86000130870042012008E8
:101860008100410166084201A00041016708420170
:10187000A100A201A3010830A035A10DA20DA30D66
:10188000890B3C2C410168084201A400A501A43544
:10189000A50DA435A50DA435A50DA435A50DA4351C
:1018A000A50D2408103EA6000030253DA7002608FF
:1018B000A8002708A9000030A91BFF30AA00AB0030
:1018C000200828044101A400420121082904410103
:1018D000A500420122082A044101A6004201230872
:1018E0002B044101A7006908A8000130A9000730B6
:1018F000AA000030AB00A4312E2489310730410109
:10190000E6070030E73D68084201A000A101A035CC
:10191000A10DA035A10DA035A10DA035A10DA035BB
:10192000A10D2008083EA2000030213DA30022089E
:10193000A4002308A5000030A51BFF30A600A700C7
:10194000003024044101A400243042012504410157
:10195000A5000030420126044101A60000304201EA
:1019600027044101A7006708A9006608A800A33161
:10197000E023893141016908C7000130C800003007
:10198000C900CA0068089931642189310800410101
:10199000E80068084201A000A101A035A10DA03512
:1019A000A10DA035A10DA035A10DA035A10D2008D8
:1019B000083EA2000030213DA3002208A400230815
:1019C000A5000030A51BFF30A600A70000302404AE
:1019D0004101A4002430420125044101A50000304A
:1019E000420126044101A6000030420127044101C2
:1019F000A700A531D9258C3141012508E70024082D
:101A0000E600B0304201A00020084101E9000030AA
:101A1000A000A1002C30A2000030A3006908A7316B
:101A200052278C314301B001B00AB101B10A06302E
:101A30004201A00020084301B200B301FF3042017F
:101A4000A0000030A1000030A2000030A3005D081B
:101A5000A4005E08A5005F08A6006008A700183073
:101A6000A736A60CA50CA40C890B302D2408A005C4
:101A70002508A1052608A2052708A3050030A8000F
:101A8000FF30A9000030AA000030AB005D08AC00B8
:101A90005E08AD005F08AE006008AF000830AF36EA
:101AA000AE0CAD0CAC0C890B4F2D2C08A8052D08E5
:101AB000A9052E08AA052F08AB050030B00000309C
:101AC000B100FF30B2000030B3005D08B4005E0822
:101AD000B5005F08B6006008B7000830B435B50D32
:101AE000B60DB70D890B6E2D3408B0053508B1055C
:101AF0003608B2053708B3050030B8000030B90029
:101B00000030BA00FF30BB005D08BC005E08BD00BD
:101B10005F08BE006008BF001830BC35BD0DBE0DAB
:101B2000BF0D890B8D2D3C08B8053D08B9053E0851
:101B3000BA053F08BB053808B0043908B1043A08B3
:101B4000B2043B08B3043008A8043108A9043208E1
:101B5000AA043308AB04200828044301B40042015E
:101B6000210829044301B500420122082A04430147
:101B7000B600420123082B044301B7004101570876
:101B80004201A100410156084201A0002108A00025
:101B9000A101FF302005A20000302105A300410172
:101BA00056084201A500A40100302405A600FF301C
:101BB0002505A700220826044301B8004201230896
:101BC00027044301B9008030BA000030BB00003068
:101BD0004101A7000030A6000930A5000030A40094
:101BE000CC30A8000130A9000630AA000030AB00BC
:101BF000A33193238C31410166084201A0004101C9
:101C000067084201A100A201A3010830A035A10D7F
:101C1000A20DA30D890B062E410168084201A40004
:101C2000A501A435A50DA435A50DA435A50DA43594
:101C3000A50DA435A50D2408103EA6000030253DB5
:101C4000A7002608A8002708A9000030A91BFF301C
:101C5000AA00AB00200828044101A4004201210889
:101C600029044101A500420122082A044101A600DD
:101C7000420123082B044101A7006908A800013094
:101C8000A9002C30AA000030AB00A4312E248C31E6
:101C90002C304101E6070030E73D0030A000A100F4
:101CA0002030A2000030A3006908A73152278C31F0
:101CB0004101E401E501410166084201A000410142
:101CC00067084201A100A201A3010830A035A10DBF
:101CD000A20DA30D890B662E410168084201A400E4
:101CE000A501A435A50DA435A50DA435A50DA435D4
:101CF000A50DA435A50D2408103EA6000030253DF5
:101D0000A7002608A8002708A9000030A91BFF305B
:101D1000AA00AB00200828044101A40042012108C8
:101D200029044101A500420122082A044101A6001C
:101D3000420123082B044101A7006908A8000130D3
:101D4000A9002030AA000030AB00A4312E248C3131
:101D500020304101E6070030E73D0130E407003064
:101D6000E53D6508803A4201A00080302002031D55
:101D7000BC2E063041016402031CBF2EC02E5B2E18
:101D800063304201A00041016908860001308700EC
:101D90004201200881008230A0004101690A8600CA
:101DA000013087004201200881005330A00041012A
:101DB0006908023E86000130870042012008810048
:101DC0006330A00041016908033E860001308700AE
:101DD0004201200881003530A00041016908043E1D
:101DE0008600013087004201200881004101690816
:101DF000053E8600013087008101810A42016108A9
:101E0000A00041016908063E8600013087004201BA
:101E1000200881003D30A00041016908073E86008E
:101E2000013087004201200881000730A0004101F5
:101E30006908083E860001308700420120088100C1
:101E400041016908093E8600013087008101810A4D
:101E50000030A7000030A6000930A5000030A40023
:101E600069080A3EA8000130A9000630AA00003027
:101E7000AB00A33193238C310C304201A00041010F
:101E80006908103E86000130870042012008810069
:101E900000304101A000B030A100AE311A268C31D3
:101EA00041012008063E4201A00041016908113E9F
:101EB0008600013087004201200881000030410186
:101EC000A000B030A1006908123EAE31D1268C319D
:101ED000410169080D3E860001308700010842017A
:101EE000A0000430A036890B722F0A302002031C98
:101EF0007A2F7B2F912F410169080D3E860001301A
:101F0000870001084201A0000430A036890B852F0C
:101F10002008573E4101D800003003180130D90095
:101F2000A62F410169080D3E860001308700010897
:101F30004201A0000430A036890B9B2F2008303EC0
:101F40004101D800003003180130D900580842017F
:101F5000A00041016908183E860001308700420157
:101F600020088100410169080D3E8600013087008C
:101F70000F3001054201A0000A302002031CC12FCE
:101F8000C22FD12F410169080D3E86000130870024
:101F900001080F39573EDA00003003180130DB002A
:101FA000DF2F410169080D3E8600013087000108DE
:101FB0000F39303EDA00003003180130DB005A08D8
:101FC0004201A00041016908193E860001308700E6
:101FD000420120088100410169080E3E860001305F
:101FE000870001084201A0000430A036890BF52FBC
:101FF0000A302002031CFE2F8931F5298A310B2A71
:102000001B282008860021088700010843018C0056
:102010004E010F1C0C280D2808280F104101200824
:1020200086002108870043010C088100013041012E
:10203000A0070030A13D01304101A2020030A33BC6
:10204000220A031D2728230A031D272828280128E0
:1020500008004101BF0096283F08B500B601B5351C
:10206000B60DB535B60DB535B60DB535B60DB535BC
:10207000B60D3508083EB7000030363DB8003708C9
:10208000B9003808BA000030BA1BFF30BB00BC00F2
:1020900000303904AE0001303A04AF0000303B0498
:1020A000B00000303C04B1000230BD003D08B20079
:1020B000AF3184279031D52834080319602861286E
:1020C00094283F08B500B601B535B60DB535B60D47
:1020D000B535B60DB535B60DB535B60D3508083E76
:1020E000B7000030363DB8003708B9003808BA00EC
:1020F0000030BA1BFF30BB00BC0000303904A40024
:102100000C303A04A50000303B04A60000303C042B
:10211000A7003408A8000030A9000430AA0000304D
:10212000AB00A331932390310130D6283F08B5008E
:10213000B601B535B60DB535B60DB535B60DB535F7
:10214000B60DB535B60D3508083EB7000030363D42
:10215000B8003708B9003808BA000030BA1BFF30A1
:10216000BB00BC0000303904A40003303A04A500D1
:1021700000303B04A60000303C04A700A801A331B6
:10218000012390314101BD00BE013E08003A031910
:10219000CA28D5283D08133A03192C28073A0319F1
:1021A000D528033A03195C28D528003008004201DD
:1021B000C800033062066104031DDF28E0281029EF
:1021C0005C085B045A0459040319E728E82810291D
:1021D00041016A084201C00041016B084201C1008F
:1021E000C201C3015C084302031D00295B084202CF
:1021F000031D00295A084102031D00295908400205
:10220000031C0329042910290330E1000030E200F7
:102210000030DC000030DB000030DA000030D90094
:102220006218132914292429630841016A02D6007F
:102230004201640841016B3BD700420148088C31E0
:10224000C7249031420162146008CC005F08CB00C3
:102250005E08CA005D08C9004930C000400841015D
:10226000D900420148089331442390314201C10012
:102270004108CD004D0A031D3E293F29DF29FF30CB
:10228000ED2902304D06031D4629472954294C08E3
:10229000E0004B08DF004A08DE004908DD0003309B
:1022A000E1000030E200EC290130E1000030E20002
:1022B000EC2905304D06031D5E295F29D3294C0802
:1022C000E0004B08DF004A08DE004908DD0000306E
:1022D0004101A7000030A6000F30A5000030A40087
:1022E0006930A8000130A9000430AA000030AB001A
:1022F000A4312E24903100304101A7000030A60007
:102300000530A5000030A400E030A8000130A9008D
:102310000430AA000030AB00A4312E2490310030EC
:102320004101A7000030A6000130A5000030A40044
:10233000DC30A8000130A9000430AA000030AB0056
:10234000A4312E249031430128084201C0004301EA
:1023500029084201C10043012A084201C200430189
:102360002B084201C30041016A084201C400410137
:102370006B084201C500C601C7014408C0074508F3
:10238000C13D4608C23D4708C33D4308DC00420842
:10239000DB004108DA004008D9000030E1000330DA
:1023A000E2000130ED2906304D06031DD829D92958
:1023B000DA2954290330E1000030E200EC296208F8
:1023C000013A0319E429EC296108013A031941296A
:1023D000023A03195929EC29003008004101C200D2
:1023E0004208B900BA01B935BA0DB935BA0DB935D7
:1023F000BA0DB935BA0DB935BA0D3908083EBB006A
:1024000000303A3DBC003B08BD003C08BE00003037
:10241000BE1BFF30BF00C00000303D04A4000430EC
:102420003E04A50000303F04A60000304004A70091
:102430003508A9003408A800A331E02391314101F7
:102440004208B900BA01B935BA0DB935BA0DB93576
:10245000BA0DB935BA0DB935BA0D3908083EBB0009
:1024600000303A3DBC003B08BD003C08BE000030D7
:10247000BE1BFF30BF00C00000303D04A4000C3084
:102480003E04A50000303F04A60000304004A70031
:102490003608A8000130A9000430AA000030AB00C3
:1024A000A4312E24913141014208B900BA01B93555
:1024B000BA0DB935BA0DB935BA0DB935BA0DB93548
:1024C000BA0D3908083EBB0000303A3DBC003B085D
:1024D000BD003C08BE000030BE1BFF30BF00C00086
:1024E00000303D04A40010303E04A50000303F043D
:1024F000A60000304004A7003808A9003708A8004B
:10250000A331E023913141014208B900BA01B93544
:10251000BA0DB935BA0DB935BA0DB935BA0DB935E7
:10252000BA0D3908083EBB0000303A3DBC003B08FC
:10253000BD003C08BE000030BE1BFF30BF00C00025
:1025400000303D04AE0001303E04AF0000303F04D7
:10255000B00000304004B1001030C1004108B200AA
:10256000AF318427913141014208B900BA01B93530
:10257000BA0DB935BA0DB935BA0DB935BA0DB93587
:10258000BA0D3908083EBB0000303A3DBC003B089C
:10259000BD003C08BE000030BE1BFF30BF00C000C5
:1025A00004303D04A40000303E04A50000303F0488
:1025B000A60000304004A7000230C1004108A80076
:1025C000A3310123913141014208B900BA01B93563
:1025D000BA0DB935BA0DB935BA0DB935BA0DB93527
:1025E000BA0D3908083EBB0000303A3DBC003B083C
:1025F000BD003C08BE000030BE1BFF30BF00C00065
:1026000000303D04AE0001303E04AF0000303F0416
:10261000B00000304004B100B201B20AAF318427EB
:10262000913141014208B900BA01B935BA0DB93545
:10263000BA0DB935BA0DB935BA0DB935BA0D390873
:10264000083EBB0000303A3DBC003B08BD003C08E2
:10265000BE000030BE1BFF30BF00C00000303D0494
:10266000A40003303E04A50000303F04A600003063
:102670004004A700A801A33101239131223A031D90
:10268000422B432B832A08004101E9006908A1314C
:102690009121933141013308DB003208DA00003028
:1026A0005B02083003195A020318572B582B5B2B77
:1026B000FF309731FF2FB030C7000130C80008301D
:1026C000C9000030CA006908A431CD24933141010A
:1026D0004808E8004708E70000306802083003199E
:1026E00067020318742B752B772B0030592B43018D
:1026F00035084201A000A101430134084201A200B3
:10270000A3012208A300A201200822044101DC0049
:102710004201210823044101DD0043013708420141
:10272000A000A101430136084201A200A301220832
:10273000A300A201200822044101E5004201210872
:1027400023044101E600003066022C3003196502C3
:10275000031CAB2BAC2BB32B43305C065D0403197D
:10276000B22BB32BBC2B6608D6006508D5006908D0
:10277000AD3180259331752BB030C7000130C800D2
:102780002C30C9000030CA006908A431CD2493312F
:1027900041014808E8004708E700003068022C3093
:1027A000031967020318D52BD62BE12B67086502A6
:1027B000D5006808663BD6006908AD3180259331A5
:1027C000752B0230430130060319E72BE82BF42B5D
:1027D000410167086502D5006808663BD6006908B4
:1027E000AD3180259331752BFF304201A0000030C0
:1027F000A1000030A2000030A300430134084201D0
:10280000A400430135084201A500430136084201F6
:10281000A600430137084201A7001830A736A60CCE
:10282000A50CA40C890B0E2C2408A0052508A105D5
:102830002608A2052708A3050030A800FF30A9003C
:102840000030AA000030AB00430134084201AC0064
:10285000430135084201AD00430136084201AE0094
:10286000430137084201AF000830AF36AE0CAD0C63
:10287000AC0C890B352C2C08A8052D08A9052E08B1
:10288000AA052F08AB050030B0000030B100FF30C2
:10289000B2000030B300430134084201B4004301E8
:1028A00035084201B500430136084201B600430134
:1028B00037084201B7000830B435B50DB60DB70D75
:1028C000890B5C2C3408B0053508B1053608B20513
:1028D0003708B3050030B8000030B9000030BA0046
:1028E000FF30BB00430134084201BC0043013508FE
:1028F0004201BD00430136084201BE0043013708D2
:102900004201BF001830BC35BD0DBE0DBF0D890B97
:10291000832C3C08B8053D08B9053E08BA053F08B8
:10292000BB053808B0043908B1043A08B2043B08C2
:10293000B3043008A8043108A9043208AA043308F3
:10294000AB04200828044101DF00420121082904CA
:102950004101E000420122082A044101E100420154
:1029600023082B044101E20043012F0841016202C8
:10297000031DCA2C43012E0841016102031DCA2C0C
:1029800043012D0841016002031DCA2C43012C089C
:1029900041015F02031CCD2CCE2CE72C62084201C2
:1029A0006002031DE32C4101610842015F02031D27
:1029B000E32C4101600842015E02031DE32C41014A
:1029C0005F0842015D020318E62CE72CF32C41015D
:1029D00067086502D5006808663BD6006908AD3116
:1029E00080259331752B41015908860001308700FD
:1029F0005F08C03F6008C13F6108C23F6208C33F33
:102A00000030A7000030A6000930A5000030A40067
:102A1000D230A8000130A9000630AA000030AB0077
:102A2000A33193239331D2304201A0002008410109
:102A3000A0000630A1000030A200CC30A2317922E3
:102A400093314101200821040319272D282D332D0E
:102A500067086502D5006808663BD6006908AD3195
:102A600080259331752B6930A0000130A100C03062
:102A7000A2000130A3000430A4000030A500A03162
:102A800070209331C0304101D5000030D600690874
:102A9000AD318025933141015508E7075608E83DDF
:102AA000B030C7000130C8000430C9000030CA008F
:102AB0006908A431CD24933141014708E70748084C
:102AC000E83D633043013006031D682D95316A2DC2
:102AD00095317C2D82303106031D6F2D702D7C2D9C
:102AE00053303206031D752D762D7C2D6330330651
:102AF00003197B2D7C2D892D410167086502D500C6
:102B00006808663BD6006908AD3180259531933160
:102B1000752B4101DE01E72FB030C7000130C8003E
:102B20000130C9000030CA006908A431CD249531B4
:102B3000410147084804031D9E2D9F2DA02DF22F13
:102B40000130E7070030E83D430130084201A000B2
:102B500020084101E300630A031DAF2DB02DB12D04
:102B6000F22F6308031DB52DB62DB72DE72FB0301A
:102B7000C7000130C8000130C9000030CA00690830
:102B8000A431CD249531410147084804031DC92DC6
:102B9000CA2DCB2DF22F0130E7070030E83D43016D
:102BA00030084201A00020084101E4006408031934
:102BB000DA2DDB2D022EB030C7000130C8006408CA
:102BC0004201A000A10120084101C90042012108E1
:102BD0004101CA006908A431CD249531410164083E
:102BE0004201A200A3014101480842012306031D3E
:102BF000FD2D41014708420122060319002E012E36
:102C0000022EF22F410164084201A000A101200818
:102C10004101E707420121084101E83DCA2FE030A8
:102C20004101A0000130A100B030A2000130A3009A
:102C30000430A4000030A500A03170209531E72FAA
:102C4000DC304101A0000130A100B030A200013011
:102C5000A3000430A4000030A500A03170209531FD
:102C6000E72F430130084201A00020084101DE00A7
:102C7000E72FE4304101A0000130A100B030A200F4
:102C80000130A3000430A4000030A500A031702062
:102C90009531E72FFF30A0000030A1000030A200E6
:102CA0000030A300430130084201A4004301310871
:102CB0004201A500430132084201A6004301330846
:102CC0004201A7001830A736A60CA50CA40C890B4E
:102CD000632E2408A0052508A1052608A2052708BB
:102CE000A3050030A800FF30A9000030AA00003082
:102CF000AB00430130084201AC00430131084201FE
:102D0000AD00430132084201AE00430133084201E5
:102D1000AF000830AF36AE0CAD0CAC0C890B8A2E70
:102D20002C08A8052D08A9052E08AA052F08AB0513
:102D30000030B0000030B100FF30B2000030B3000E
:102D4000430130084201B400430131084201B5009B
:102D5000430132084201B600430133084201B70083
:102D60000830B435B50DB60DB70D890BB12E34084A
:102D7000B0053508B1053608B2053708B30500308F
:102D8000B8000030B9000030BA00FF30BB0043018A
:102D900030084201BC00430131084201BD0043013B
:102DA00032084201BE00430133084201BF0018301F
:102DB000BC35BD0DBE0DBF0D890BD82E3C08B80526
:102DC0003D08B9053E08BA053F08BB053808B00400
:102DD0003908B1043A08B2043B08B3043008A80427
:102DE0003108A9043208AA043308AB0420082804D7
:102DF0004301A8004201210829044301A90042011E
:102E000022082A044301AA00420123082B0443019B
:102E1000AB00E72FFF30A0000030A1000030A2007F
:102E20000030A300430130084201A40043013108EF
:102E30004201A500430132084201A60043013308C4
:102E40004201A7001830A736A60CA50CA40C890BCC
:102E5000232F2408A0052508A1052608A205270878
:102E6000A3050030A800FF30A9000030AA00003000
:102E7000AB00430130084201AC004301310842017C
:102E8000AD00430132084201AE0043013308420164
:102E9000AF000830AF36AE0CAD0CAC0C890B4A2F2E
:102EA0002C08A8052D08A9052E08AA052F08AB0592
:102EB0000030B0000030B100FF30B2000030B3008D
:102EC000430130084201B400430131084201B5001A
:102ED000430132084201B600430133084201B70002
:102EE0000830B435B50DB60DB70D890B712F340808
:102EF000B0053508B1053608B2053708B30500300E
:102F0000B8000030B9000030BA00FF30BB00430108
:102F100030084201BC00430131084201BD004301B9
:102F200032084201BE00430133084201BF0018309D
:102F3000BC35BD0DBE0DBF0D890B982F3C08B805E3
:102F40003D08B9053E08BA053F08BB053808B0047E
:102F50003908B1043A08B2043B08B3043008A804A5
:102F60003108A9043208AA043308AB042008280455
:102F70004401A8004201210829044401A90042019A
:102F800022082A044401AA00420123082B04440118
:102F9000AB00E72F63084201A000A1012108003A1D
:102FA0000319D32FE72F2008013A03190F2E023AF5
:102FB0000319202E363A0319312E033A0319392EFC
:102FC0000C3A03194A2E013A03190A2FE72F41013F
:102FD00066086802031DEE2F65086702031CF12FC7
:102FE000F22F8C2D410167086502D5006808663B09
:102FF000D6006908AD318025953141015E08080091
:103000000800AE34B0345334EF34FE34EF34F600FD
:103010004201680803190D280E2859284E30410135
:103020006F02031C14281528162888286E08031917
:103030001A281B2826287603031D1F28202833283A
:103040008030720203182528262833287208F300DE
:103050006F08860002308700730881000130F3009A
:103060007308EF0788287208F3000630F336890BDF
:1030700036287608F4000130F435FF3E031D3C2865
:1030800074357304C038F5006F088600023087007D
:10309000750881000130F3007308EF0772083F39AB
:1030A0008038F3006F0886000230870073088100C3
:1030B0002E2841016E0803195E285F286A287603CE
:1030C000031D632864286F28803072020318692862
:1030D0006A286F287208A031162098318828720853
:1030E000F3000630F336890B72287608F4000130BD
:1030F000F435FF3E031D782874357304C038A031C1
:103100001620983172083F398038A0311620983146
:1031100008004001CC014201680803199028912859
:10312000A6284D304001BA000030BB000130BC0081
:103130000030BD000130A4317C24983140013A03B5
:103140003B040319A428A528D42863291D1DA928F8
:10315000AA28B82841016E080319AF28B028B5285D
:10316000F2010C309831072098314001CC01CC0A93
:1031700042019D1CBC28BD28CE281D121D164101F0
:103180006E080319C428C528CB28F201F20A0C30B6
:103190009831072098314001CC01CC0A420119082E
:1031A0004001C8004808CD004C080319D828D92888
:1031B000E1281F30F0000030F100AD31BE2598311C
:1031C000632941016E08031DE628E72851294001C3
:1031D0004D08AF31D327983163295E08C80002300B
:1031E000C836890BF02848080F39C9004908CB00B8
:1031F0003129DE01DD01DB01DB0A44293F304D05C9
:10320000C8005E080339C9000530C935FF3E031DFB
:10321000052949354804AF31D327983144293F3037
:103220004D05C8005E080339C9000530C935FF3EA9
:10323000031D162949354804CA004A08DC00AA3093
:103240005C06031D242925292729DD014429DD01E8
:10325000DD0A0330F0000030F100AD31BE259831B9
:1032600044294B08C800C9014908003A0319392903
:1032700044294808003A0319F928013A0319FE289D
:10328000033A03190F2944294001DE0163294D083F
:10329000C8004808DE0063294D08AF31D3279831B4
:1032A000442940014D08C039C800C9014908003A05
:1032B00003195B294C294808803A0319ED28403A44
:1032C000031947294C2908004101D50049084A043F
:1032D00003196B296C297E294808B3004708B200FE
:1032E0004A08B5004908B40055089B312D2399318F
:1032F000003A031D7C297D297E29462A4101550873
:10330000CB00CC01CB35CC0DCB35CC0DCB35CC0D9A
:10331000CB35CC0DCB35CC0D4B08083ECD00003065
:103320004C3DCE004D08CF004E08D0000030D01BE1
:10333000FF30D100D20000304F04AE000130500405
:10334000AF0000305104B00000305204B100203012
:10335000D3005308B200AF31842799314101550899
:10336000CB00CC01CB35CC0DCB35CC0DCB35CC0D3A
:10337000CB35CC0DCB35CC0D4B08083ECD00003005
:103380004C3DCE004D08CF004E08D0000030D01B81
:10339000FF30D100D20000304F04A40002305004AE
:1033A000A50000305104A60000305204A700A80177
:1033B000A331012399314101D3005308D400541E95
:1033C000E229E329132A5508CB00CC01CB35CC0DDB
:1033D000CB35CC0DCB35CC0DCB35CC0DCB35CC0D89
:1033E0004B08083ECD0000304C3DCE004D08CF00CC
:1033F0004E08D0000030D01BFF30D100D200043086
:103400004F04A40002305004A50000305104A6006F
:1034100000305204A7001830D3005308A800A3318D
:1034200001239931462AD41D162A172AAE29550898
:10343000CB00CC01CB35CC0DCB35CC0DCB35CC0D69
:10344000CB35CC0DCB35CC0D4B08083ECD00003034
:103450004C3DCE004D08CF004E08D0000030D01BB0
:10346000FF30D100D20004304F04A40002305004D9
:10347000A50000305104A60000305204A700083017
:10348000D3005308A800A3310123993108007E1C02
:103490004B2A983189284101D90142016808031952
:1034A000522A532A682ADA304101C7000030C80086
:1034B0000130C9000030CA000130A431CD249A3156
:1034C0004101470348040319662A672A962A2C2BD0
:1034D0001D1D6B2A6C2A7A2A41016E080319712A74
:1034E000722A772AA2010C3088310A209A314101D0
:1034F000D901D90A42019D1C7E2A7F2A902A1D12D9
:103500001D1641016E080319862A872A8D2AA201F9
:10351000A20A0C3088310A209A314101D901D90A16
:10352000420119084101D5005508DA00590803196C
:103530009A2A9B2AA32A1F30A0000030A100AE3196
:1035400001269A312C2B6E08031DA72AA82A1B2BB3
:103550005A08A1312D219A312C2B40015E084101DE
:10356000D5000230D536890BB22A55080F39D6005E
:103570005608D800FA2A4001DE01DD01DB01DB0A32
:103580000D2B3F305A05D50040015E08033941013B
:10359000D6000530D635FF3E031DCA2A56355504E0
:1035A000A1312D219A310D2B3F305A05D500400114
:1035B0005E0803394101D6000530D635FF3E031DB4
:1035C000DD2A56355504D70057084001DC00AA30E3
:1035D0005C06031DEC2AED2AEF2ADD010D2BDD012F
:1035E000DD0A03304101A0000030A100AE31012608
:1035F0009A310D2B5808D500D6015608003A031908
:10360000022B0D2B5508003A0319BB2A013A031966
:10361000C12A033A0319D42A0D2B4001DE012C2BB9
:103620005A08D50055084001DE002C2B5A08A1315C
:103630002D219A310D2B5A08C039D500D6015608D4
:10364000003A0319242B162B5508803A0319AD2A8A
:10365000403A0319102B162B08004101C60034080C
:103660003504031D342B352B372B0130182C46081D
:10367000B600B701B635B70DB635B70DB635B70DCF
:10368000B635B70DB635B70D3608083EB800003070
:10369000373DB9003808BA003908BB000030BB1B01
:1036A000FF30BC00BD0000303A04A40020303B04D1
:1036B000A50000303C04A60000303D04A700A53161
:1036C000D9259B3141012508C3002408C2003508D3
:1036D0004302031D6D2B340842020318702B712B1B
:1036E000732B0030182C4608B600B701B635B70D5D
:1036F000B635B70DB635B70DB635B70DB635B70D0E
:103700003608083EB8000030373DB9003808BA0026
:103710003908BB000030BB1BFF30BC00BD000030CF
:103720003A04A40024303B04A50000303C04A60069
:1037300000303D04A700A531D9259B314101250862
:10374000C5002408C4004408B6004508B700B80105
:10375000B9010830B635B70DB80DB90D890BAA2BD4
:103760004608BA00BB01BA35BB0DBA35BB0DBA3538
:10377000BB0DBA35BB0DBA35BB0D3A08103EBC00C7
:1037800000303B3DBD003C08BE003D08BF0000309E
:10379000BF1BFF30C000C10036083E04A40037083C
:1037A0003F04A50038084004A60039084104A700DA
:1037B0003308A9003208A8003508AB003408AA0075
:1037C000A4312E249B3141013408C4073508C53D7E
:1037D0004608B600B701B635B70DB635B70DB635E4
:1037E000B70DB635B70DB635B70D3608083EB8007B
:1037F0000030373DB9003808BA003908BB00003046
:10380000BB1BFF30BC00BD0000303A04A4002430D4
:103810003B04A50000303C04A60000303D04A70096
:103820004508A9004408A800A331E0239B310130DA
:1038300008004101BF003F08B600B701B635B70D1B
:10384000B635B70DB635B70DB635B70DB635B70DBC
:103850003608083EB8000030373DB9003808BA00D5
:103860003908BB000030BB1BFF30BC00BD0000307E
:103870003A04A40004303B04A50000303C04A60038
:1038800000303D04A7003508A9003408A800A33182
:10389000E0239C3141013F08B600B701B635B70DB2
:1038A000B635B70DB635B70DB635B70DB635B70D5C
:1038B0003608083EB8000030373DB9003808BA0075
:1038C0003908BB000030BB1BFF30BC00BD0000301E
:1038D0003A04AE0001303B04AF0000303C04B000BD
:1038E00000303D04B1001030BE003E08B200AF31E0
:1038F00084279C3141013F08B600B701B635B70DAA
:10390000B635B70DB635B70DB635B70DB635B70DFB
:103910003608083EB8000030373DB9003808BA0014
:103920003908BB000030BB1BFF30BC00BD000430B9
:103930003A04A40000303B04A50000303C04A6007B
:1039400000303D04A700A801A80AA33101239C313F
:1039500041013F08B600B701B635B70DB635B70D12
:10396000B635B70DB635B70DB635B70D3608083EC6
:10397000B8000030373DB9003808BA003908BB003C
:103980000030BB1BFF30BC00BD0000303A04AE006D
:1039900001303B04AF0000303C04B00000303D0477
:1039A000B100B201B20AAF3184279C3141013F0816
:1039B000B600B701B635B70DB635B70DB635B70D8C
:1039C000B635B70DB635B70D3608083EB80000302D
:1039D000373DB9003808BA003908BB000030BB1BBE
:1039E000FF30BC00BD0000303A04A40003303B04AB
:1039F000A50000303C04A60000303D04A700A8014B
:103A0000A33101239C31133A031D072D082D4A2CA5
:103A100008004001B9003908A900AA01A935AA0D7A
:103A2000A935AA0DA935AA0DA935AA0DA935AA0D42
:103A30002908083EAB0000302A3DAC002B08AD0041
:103A40002C08AE000030AE1BFF30AF00B0000030DD
:103A50002D04F40026302E04F50000302F04F6006B
:103A600000303004F700A53175259D3175084001FF
:103A7000B6007408B50028083602031D412D27083A
:103A800035020318442D452D492D3608A800350868
:103A9000A70027082804031D4E2D4F2D522DA501E8
:103AA000A601012E3908A900AA01A935AA0DA93538
:103AB000AA0DA935AA0DA935AA0DA935AA0D29085F
:103AC000083EAB0000302A3DAC002B08AD002C08AE
:103AD000AE000030AE1BFF30AF00B00000302D0450
:103AE000F40028302E04F50000302F04F6000030DA
:103AF0003004F700A53175259D3175084001B800E7
:103B00007408B700250826040319872D882DC82DB1
:103B10003708A9003808AA00AB01AC010830A93564
:103B2000AA0DAB0DAC0D890B8F2D3908AD00AE0180
:103B3000AD35AE0DAD35AE0DAD35AE0DAD35AE0D11
:103B4000AD35AE0D2D08183EAF0000302E3DB00053
:103B50002F08B1003008B2000030B21BFF30B300B4
:103B6000B40029083104F4002A083204F5002B08B7
:103B70003304F6002C083404F7002608F900250861
:103B8000F8002808FB002708FA00A231BC229D316A
:103B900040012708B7072808B83D3908A900AA013D
:103BA000A935AA0DA935AA0DA935AA0DA935AA0DC1
:103BB000A935AA0D2908083EAB0000302A3DAC000B
:103BC0002B08AD002C08AE000030AE1BFF30AF005C
:103BD000B00000302D04F40028302E04F500003031
:103BE0002F04F60000303004F7003808F9003708D9
:103BF000F800A23136229D3140012808A60027088E
:103C0000A50008004101C6004608B600B701B63558
:103C1000B70DB635B70DB635B70DB635B70DB635E8
:103C2000B70D3608083EB8000030373DB9003808F7
:103C3000BA003908BB000030BB1BFF30BC00BD0020
:103C400000303A04A40026303B04A50000303C04B8
:103C5000A60000303D04A700A531D9259E314101C1
:103C60002508C3002408C20035084302031D3A2E6C
:103C70003408420203183D2E3E2E422E4308B50062
:103C80004208B40034083504031D472E482E4B2E3D
:103C9000B201B301FA2E4608B600B701B635B70D2A
:103CA000B635B70DB635B70DB635B70DB635B70D58
:103CB0003608083EB8000030373DB9003808BA0071
:103CC0003908BB000030BB1BFF30BC00BD0000301A
:103CD0003A04A40028303B04A50000303C04A600B0
:103CE00000303D04A700A531D9259E3141012508AA
:103CF000C5002408C400320833040319802E812E25
:103D0000C12E4408B6004508B700B801B901083013
:103D1000B635B70DB80DB90D890B882E4608BA0017
:103D2000BB01BA35BB0DBA35BB0DBA35BB0DBA35C3
:103D3000BB0DBA35BB0D3A08183EBC0000303B3D08
:103D4000BD003C08BE003D08BF000030BF1BFF3077
:103D5000C000C10036083E04A40037083F04A50097
:103D600038084004A60039084104A7003308A90018
:103D70003208A8003508AB003408AA00A331932309
:103D80009E3141013408C4073508C53D4608B600D8
:103D9000B701B635B70DB635B70DB635B70DB63573
:103DA000B70DB635B70D3608083EB8000030373DC0
:103DB000B9003808BA003908BB000030BB1BFF301F
:103DC000BC00BD0000303A04A40028303B04A5002C
:103DD00000303C04A60000303D04A7004508A900BF
:103DE0004408A800A331E0239E3141013508B30007
:103DF0003408B20008004101CE00FF30A0000030BE
:103E0000A1000430A2000030A3006930A73152277E
:103E10009E3100304101A000A1000430A20000301A
:103E2000A300E430A73152279E3141014E08C5005E
:103E3000C601C535C60DC535C60DC535C60DC5355A
:103E4000C60DC535C60D4508083EC7000030463DC5
:103E5000C8004708C9004808CA000030CA1BFF3024
:103E6000CB00CC0004304904A4001F304A04A50054
:103E700000304B04A60000304C04A7000230CD00F7
:103E80004D08A800A33101239E3141014E08C50011
:103E9000C601C535C60DC535C60DC535C60DC535FA
:103EA000C60DC535C60D4508083EC7000030463D65
:103EB000C8004708C9004808CA000030CA1BFF30C4
:103EC000CB00CC0004304904A4001E304A04A500F5
:103ED00000304B04A60000304C04A7000230CD0097
:103EE0004D08A800A33101239E3144304101B400A4
:103EF0000030B5006930C5004508B6004330B70052
:103F00000030B8004E089131EE219E31A331492393
:103F10009E3141013408C5003508C6000030C61B7B
:103F2000FF30C700C800053045064201DD00EB3018
:103F3000410146064201DE000A30410147064201C6
:103F4000DF000030410148064201E0006008430103
:103F5000AF0042015F084301AE0042015E08430129
:103F6000AD0042015D084301AC004101440842013B
:103F7000E400410143084201E30000304101A00098
:103F8000A1000430A2000030A3006930A7315227FD
:103F90009E31FF304101A0000030A1000430A2009A
:103FA0000030A300E030A73152279E31003041019C
:103FB000A000A1000430A2000030A300DC30A73133
:103FC00052279E3101304201E1000030E200003012
:103FD0004401AB000030AA000030A9000030A80066
:103FE0002B084301AB0044012A084301AA00440105
:103FF00029084301A900440128084301A80008003A
:104000004101A000200803190628072812287E0174
:10401000C312400193127E01C416381340011213DB
:104020007E0139174001181799160800F100192868
:10403000640040015F0803191E281F2818284E013C
:10404000191A232824282828710842019A00402898
:1040500019127108F00040016108203E860002300C
:104060008700700881000130F0007008E107083017
:104070006102031C3C283D283E28E1010130DF029B
:104080004E011916080040019801203099009A014C
:1040900004309200C63093007D3094007E01CE0142
:1040A000C3010C30B800E501FF30C4004030B90056
:1040B0007F30CF00BA01C501D001FF30BB00FF3017
:1040C000C600FF30D100FF30BC00FF30C700FF301A
:1040D000D2000830E8000B3098001330930008003D
:1040E00041012308AB002208AA002108A9002008EA
:1040F000A80090282A0886002B0887000108A6003F
:104100002608A7000130AA070030AB3D280886002A
:1041100029088700270881000130A8070030A93D41
:104120000130A4020030A53B240A031D9B28250A68
:10413000031D9B289C287A2808004101A000430108
:104140009012410120080319A628A728C2280C3084
:104150007D01C50015307E019C0043124001131201
:104160007E01441616309B00C311400193117E015D
:10417000C4150A307D01C6007E01431140011315AC
:104180007E014415403043018F00900191010130C0
:104190008D00901608000F307E019B000A307D01D3
:1041A000CB004E01991200304101A0000830A1005F
:1041B000AD311F25A0314E011912F3304101A0008D
:1041C0002E30A100AD312825A031083042019F00DA
:1041D00090309D0024309E0040309B0003309C00B6
:1041E0004001E101E00108304101A2002208400144
:1041F000DF004E019916080011307E01A100103039
:104200007D01CD004E019913E9304101A0002C3011
:10421000A100AD313125A0314E01191316304101F5
:10422000A0002F30A100AD313A25A0311830540143
:104230009F0090309D0024309E0004309B000D3084
:104240009C004001E401E30108304101A200220882
:104250004001E2004E01991708004101A1003129F7
:1042600064004001620803193629372930294E01BC
:10427000191B3B293C2941294101210854019A007D
:104280005C29191341012108A00040016408A03EE7
:104290008600013087004101200881000130A00024
:1042A00020084001E40708306402031C58295929FA
:1042B0005A29E4010130E2024E01191708004101B8
:1042C000A1006329640040015F0803196829692976
:1042D00062294E01191A6D296E297329410121089D
:1042E00042019A008E29191241012108A0004001C3
:1042F0006108203E860002308700410120088100CD
:104300000130A00020084001E10708306102031CD1
:104310008A298B298C29E1010130DF024E0119160F
:1043200008004101BC003C08B400B501B435B50D2E
:10433000B435B50DB435B50DB435B50DB435B50DD1
:104340003408083EB6000030353DB7003608B800E6
:104350003708B9000030B91BFF30BA00BB0000308D
:104360003804A40026303904A50000303A04A60021
:1043700000303B04A700A531D925A1314101250812
:10438000B3002408B200080000304101B30000303F
:10439000B2000030B1000030B000281CD029D12973
:1043A000D9292C08B0072D08B13D2E08B23D2F08A1
:1043B000B33D0130AC35AD0DAE0DAF0D890BDA2933
:1043C0000130AB36AA0CA90CA80C890BE1292B08EB
:1043D0002A0429042804031DEE29EF29CD293308D6
:1043E000AB003208AA003108A9003008A800080074
:1043F000400199127408F9007508FA007608FB006C
:104400007708FC001030FC36FB0CFA0CF90C890B19
:10441000032A7908FD007D08E5007408F900750895
:10442000FA007608FB007708FC000830FC36FB0C2D
:10443000FA0CF90C890B162A7908FD007D08E600B4
:104440007408F9007908E7007808F9007908E800AD
:104450006530F0000030F1000430F2000030F3006D
:10446000AF315E27A1314001991608004001991231
:104470007408A0007508A1007608A2007708A300C0
:104480001030A336A20CA10CA00C890B412A2008E5
:10449000A4002408E5007408A0007508A1007608AF
:1044A000A2007708A3000830A336A20CA10CA00C30
:1044B000890B542A2008A4002408E6007408043854
:1044C000A0002008E7007908A0002008E80078088C
:1044D000A0002008E9006530F0000030F100053050
:1044E000F2000030F300AF315E27A231400199168F
:1044F00008004101A4002408A3002308A500200807
:10450000A3002308A600902A0130A1020030A23B9C
:104510000130A3002308A5070130A3002308A60744
:10452000210822040319952A962AA42A260886001F
:10453000013087002508840001308500000801064D
:104540000319A32AA42A842A21082204031DA92AC4
:10455000AA2AAD2AA001A101BB2A250886000130A4
:104560008700260884000130850000080102A000B1
:10457000A101031CA1030800400199127408A000C6
:104580007508A1007608A2007708A3001030A336B2
:10459000A20CA10CA00C890BC72A2008A400240897
:1045A000E5007408A0007508A1007608A20077084D
:1045B000A3000830A336A20CA10CA00C890BDA2AA8
:1045C0002008A4002408E6007408A0002008E700E2
:1045D0006530F0000030F1000330F2000030F300ED
:1045E000AF315E27A2317908F1007808F0007B082E
:1045F000F3007A08F200AF315E27A231400199162C
:1046000008004001991241012408A9002508AA00C8
:104610002608AB002708AC001030AC36AB0CAA0C57
:10462000A90C890B0D2B2908AD002D084001E500D0
:1046300041012408A9002508AA002608AB00270884
:10464000AC000830AC36AB0CAA0CA90C890B222BA1
:104650002908AD002D084001E60041012408A90009
:1046600029084001E70041012808A9002908400164
:10467000E80065304101A0000030A1000430A20034
:104680000030A30090310020A33140019916680842
:10469000080040016D084101AB0040016C08410178
:1046A000AA0040016B084101A90040016A084101CC
:1046B000A8004C30AF009530AE007F30AD002D30FB
:1046C000AC00A131C421A3310130410128074001D0
:1046D000EA0000304101293D4001EB00003041017A
:1046E0002A3D4001EC00003041012B3D4001ED002E
:1046F0006A084101B60040016B084101B700400162
:104700006C084101B80040016D084101B900113049
:10471000B936B80CB70CB60C890B882B3708B50026
:104720003608B40008004001991241012408AC0089
:104730002508AD002608AE002708AF001030AF36C0
:10474000AE0CAD0CAC0C890B9F2B2C08B0003008C4
:104750004001E50041012408AC002508AD00260811
:10476000AE002708AF000830AF36AE0CAD0CAC0C75
:10477000890BB42B2C08B00030084001E600410141
:104780002408AC002C084001E70065304101A0007E
:104790000030A1000330A2000030A30090310020BF
:1047A000A33141012908A1002808A0002B08A3007B
:1047B0002A08A20090310020A33140019916080078
:1047C0004001991241012408AA002508AB002608DF
:1047D000AC002708AD001030AD36AC0CAB0CAA0C09
:1047E000890BEC2B2A08AE002E084001E5004101A0
:1047F0002408AA002508AB002608AC002708AD0055
:104800000830AD36AC0CAB0CAA0C890B012C2A0875
:10481000AE002E084001E600410124080438AA0039
:104820002A084001E70041012908AA002A0840019E
:10483000E80041012808AA002A084001E900653083
:104840004101A0000030A1000530A2000030A3000B
:1048500090310020A33140019916080040019912BF
:1048600041012408AC002508AD002608AE00270849
:10487000AF001030AF36AE0CAD0CAC0C890B3A2C3F
:104880002C08B00030084001E50041012408AC00CC
:104890002508AD002608AE002708AF000830AF3667
:1048A000AE0CAD0CAC0C890B4F2C2C08B0003008B2
:1048B0004001E600410124080438AC002C08400106
:1048C000E70065304101A0000030A1000330A200E4
:1048D0000030A30090310020A43141012908A1003B
:1048E0002808A0002B08A3002A08A200AE31B02699
:1048F000A4314001991608004001C7003B08A600FA
:104900003A08A5003D08A8003C08A70047089D31CB
:104910000925A43140012608BD002508BC003C083B
:104920003D04031D942C952C982CBA01BB01CC2C72
:104930004708BE00BF01BE35BF0DBE35BF0DBE3539
:10494000BF0DBE35BF0DBE35BF0D3E08083EC000D1
:1049500000303F3DC1004008C2004108C3000030A4
:10496000C31BFF30C400C50004304204F400013012
:104970004304F50000304404F60000304504F7001D
:104980004030C6004608F800A131F821A4314001AA
:104990003D08BB003C08BA0008004101D4004808AB
:1049A000B3004708B2004A08B5004908B4005408EB
:1049B0009E310226A43141013308CA003208C900E1
:1049C00049084A04031DE52CE62CE92CC701C8015F
:1049D0001D2D5408CB00CC01CB35CC0DCB35CC0DE7
:1049E000CB35CC0DCB35CC0DCB35CC0D4B08083EA3
:1049F000CD0000304C3DCE004D08CF004E08D00019
:104A00000030D01BFF30D100D20004304F04A4008E
:104A100001305004A50000305104A60000305204BB
:104A2000A7004030D3005308A800A3310123A431CC
:104A300041014A08C8004908C70008000030410188
:104A4000A3000030A2000130A1001630A000AF3159
:104A50003927A53141012108A9002008A8000A3002
:104A6000AA000030AB00AE319026A53141012908E3
:104A70004201EE00410128084201ED0000304101F1
:104A8000A3000030A2000130A1001930A000AF3116
:104A90003927A53141012008B4002108B500B6012D
:104AA000B7013708AB003608AA003508A90034085A
:104AB000A8000030AF000030AE000030AD00643020
:104AC000AC00A131C421A53141012B084301EB0009
:104AD00041012A084301EA00410129084301E90094
:104AE000410128084301E80008004001A201A20A90
:104AF00099127408F8007508F9007608FA0077082A
:104B0000FB001030FB36FA0CF90CF80C890B822DE7
:104B10007808FC007C08E5007408F8007508F900C6
:104B20007608FA007708FB000830FB36FA0CF90C1F
:104B3000F80C890B952D7808FC007C08E6007408B9
:104B4000F8007808E7006530F0000030F10005302B
:104B5000F2000030F300AF315E27A5314001991615
:104B60002408A1002308A0006908F800F9016808DA
:104B7000FA00FB017A08FB00FA0178087A04A30026
:104B800079087B04A40022080319C72DC82DCA2D5B
:104B9000A201782D21082406031DD02D200823060C
:104BA000031DD32DD42D782D2408F5002308F400FF
:104BB00008004101AF01AF0A4001991241012408E8
:104BC000A8002508A9002608AA002708AB00103075
:104BD000AB36AA0CA90CA80C890BE82D2808AC0050
:104BE0002C084001E50041012408A8002508A9007F
:104BF0002608AA002708AB000830AB36AA0CA90C7F
:104C0000A80C890BFD2D2808AC002C084001E600FB
:104C100041012408A80028084001E700653041014F
:104C2000A0000030A1000530A2000030A3009031A8
:104C30000020A5314001991641013108AE0030082D
:104C4000AD00400169084101A800A90140016808C0
:104C50004101AA00AB012A08AB00AA0128082A04D6
:104C6000B00029082B04B1002F080319382E392E63
:104C70003B2EAF01DC2D2E083106031D412E2D08E1
:104C80003006031D442E452EDC2D3108A5003008CA
:104C9000A40008004101BE007E2E3E08B400B5010C
:104CA000B435B50DB435B50DB435B50DB435B50D58
:104CB000B435B50D3408083EB6000030353DB700B8
:104CC0003608B8003708B9000030B91BFF30BA0009
:104CD000BB0000303804AE0001303904AF000030B2
:104CE0003A04B00000303B04B1001030BC003C0876
:104CF000B200AF318427A6310130BB2E3E08B4008C
:104D0000B501B435B50DB435B50DB435B50DB43503
:104D1000B50DB435B50D3408083EB6000030353D4C
:104D2000B7003608B8003708B9000030B91BFF30AB
:104D3000BA00BB0000303804A40003303904A500D9
:104D400000303A04A60000303B04A700A801A331BC
:104D50000123A6314101BC00BD013D08003A031901
:104D6000B22EBA2E3C08003A03197C2E1C3A0319C5
:104D70004D2EBA2E00300800F80154011D1DC12E21
:104D8000C22ECF2E41016E080319C72EC82ECD2E7C
:104D9000F2010B3098310720A631F801F80A5401CE
:104DA0009D1CD32ED42EE42E1D121D1641016E081B
:104DB0000319DB2EDC2EE22EF201F20A0B309831C1
:104DC0000720A631F801F80A54011908F7007708FE
:104DD000F90078080319ED2EEE2EF62E1F30F000A4
:104DE0000030F100AD31BE25A631512F41016E08D2
:104DF000031DFB2EFC2E052F7908F7007708F20023
:104E0000013098310720A631512F40015D03031D69
:104E10000A2F0B2F232FAA307906031D102F112FD5
:104E2000232F5C08AF31D327A6310230F700770873
:104E30004001DD007908F7007708F2000130983171
:104E40000720A631512F02305D06031D282F292F80
:104E5000492F79085C06031D2E2F2F2F382F790834
:104E6000F7007708F200023098310720A631402F72
:104E70007908F7007708F2000A3098310720A63148
:104E80004001DD010030F000F100AD31BE25A6315A
:104E9000512F7908F7007708F20001309831072088
:104EA000A63108004101A8002808A4002408A90090
:104EB00022082304031D5D2F5E2F5F2FFF2F200884
:104EC000A4002908860001308700240881002008FA
:104ED000A40022082907A5002508FF3E860001300E
:104EE00087002408810000302302033003192202C6
:104EF00003187B2F7C2F7D2FFF2F2008A400290A69
:104F0000860001308700240881002008A4002908B9
:104F1000023E860001308700240881002008A4009A
:104F200022082907A5002508FE3E860001308700DB
:104F3000240881002008A40022082907A5002508CC
:104F4000FD3E8600013087002408810000302302E6
:104F50000730031922020318AE2FAF2FB02FFF2FF7
:104F60002008A4002908033E860001308700240899
:104F700081002008A40022082907A5002508FC3E7E
:104F800086000130870024088100003023020930A8
:104F9000031922020318CD2FCE2FCF2FFF2F29095F
:104FA000A4002A09A500A40A0319A50A03302405B0
:104FB000A60000302505A7002608A4002408A9079C
:104FC0002608A2022708A33BFC30A205FF30A30558
:104FD000F92F2008A4002908860001308700240842
:104FE00081000130A2020030A33B0130A40024085C
:104FF000A90722082304031DFE2FFF2FE92F080015
:1059D2000800013430344B019E170800BB305201DD
:1059E2008C000800FF34FF34FF340034803046015D
:1059F2009600950194010800163050018C00373052
:105A02008D000800640080010131890B042D0034EF
:105A1200FE0012001E00FE0B0A2D0034E33041018D
:105A22009E009B019C0101309D00080082305301C1
:105A32009000910106309200930108004101210873
:105A42004001D300410120084001D2000800410179
:105A520021084001D500410120084001D40008007E
:105A6200410121084001D700410120084001D60030
:105A72000800410121084001D900410120084001EC
:105A8200D800080040016E086F040319492D4A2D01
:105A92004F2D6F088A006E080A00AD3108004F01D1
:105AA200960102309700453098003B309900013052
:105AB2009A0006309B0008000130450190008F01DA
:105AC20091010F308D008C014E019010FF30450185
:105AD2008E000F308D0008008B130B13053041012F
:105AE200A1000F30A000F130890B752DA00B752D90
:105AF200A10B752D7E019B01A1010100080041014E
:105B0200D8000030C7000030C8005608CA00550847
:105B1200C9005808A431CD24AD3141014808D6004E
:105B22004708D500080010307D01BB0003307E011C
:105B32009B0002307C01A500A601A701A801A901D2
:105B42000230AA00AB01AC01AD018030A400080014
:105B520048304B019F00FF309D009C014E018C128A
:105B6200961600304101A0001830A10088310120B2
:105B7200AD3180304B019E0008007108F3007008BF
:105B8200F200F336F20CF336F20C7208460195007D
:105B920070080339F2000530F235FF3E031DCD2DAA
:105BA2007235940008000A307D01BD0004307E0188
:105BB200A10082307C01AF000230B000B101B2011D
:105BC200B3010230B400B501B601B7018030AE00B6
:105BD20008004E018C1201304001D0070030D13D47
:105BE200003051027A3003195002031CF92DFA2DAC
:105BF200002EAD314325AD314001D001D101080065
:105C020041012108A3002008A200A336A20CA3365A
:105C1200A20C220846019500410120080339A20086
:105C22000530A235FF3E031D122E22354601940097
:105C3200080041012108A4002008A300242E0130FD
:105C4200A0070030A13D2008840021088500120031
:105C5200031D2C2E2D2E202E23082002A000240806
:105C6200213BA10008004001181315304101A10099
:105C72004B30A000BE30890B3C2EA00B3C2EA10B5A
:105C82003C2E00004001181705304101A1000F30E1
:105C9200A000F130890B4B2EA00B4B2EA10B4B2EEB
:105CA200080001304201E5070030E63D40015B0893
:105CB20003195C2E5D2E702EDB0141016E08031963
:105CC200632E642E702EF201003098310720AE311F
:105CD2003F30F0000030F100AD31BE25AE3108009A
:105CE200AD315025AE31A0314320AE318731F62798
:105CF200AE31AC31FD24AE31AC31EF24AE31AD3139
:105D02005D25AE31AD31A925AE31AD311725AE31AC
:105D1200AD310F25AE31AC31F724AE31080041016F
:105D2200AC01AD01281C962E972E9B2E2A08AC079B
:105D32002B08AD3D0130AA35AB0D890B9C2E0130ED
:105D4200A936A80C890BA12E28082904031DAA2E06
:105D5200AB2E932E2D08A9002C08A8000800C32EF4
:105D62002008860021088700010843018C000130C9
:105D72004101A0070030A13D4E010F1CC12EC22ED1
:105D8200BD2E0F1001304101A2020030A33B220AB6
:105D9200031DCF2E230A031DCF2ED02EB12E0800B5
:105DA2004101A7002108A5002008A4002708A2009D
:105DB2002208A6002608860001308700A60A2508C8
:105DC200A3002408A200A40A0319A50A2208840039
:105DD200230885000008C03F8908031DF12EF22E1A
:105DE200DB2E0800083040015F020318F92EFA2E5C
:105DF200132F6008203E860002308700010842010E
:105E02009A000130F00070084001E007083060029B
:105E1200031C0C2F0D2F0E2FE0010130F000700833
:105E2200DF07152F4E0119120800083040016202E7
:105E320003181C2F1D2F362F6308A03E8600013049
:105E42008700010854019A000130F00070084001F7
:105E5200E30708306302031C2F2F302F312FE30199
:105E62000130F0007008E207382F4E0119130800C4
:105E720050011E1741012008A4002108A500220894
:105E8200A6002308A7000830A736A60CA50CA40C70
:105E9200890B452F240850019B0041012008500125
:105EA2009A001E140000000050011D084101A100CB
:105EB20050011C084101A0000800772F70088600DD
:105EC20071088700010843018C004E010F1C6A2FE4
:105ED2006B2F662F0F107008860071088700430130
:105EE2000C0881000130F0070030F13D0130F20270
:105EF2000030F33B720A031D822F730A031D822FA7
:105F0200832F5F2F0800043041012E04A4000030CB
:105F12002F04A50000303004A60000303104A70091
:105F22003208B3003308A800A3310123AF31410185
:105F32003108A7003008A6002F08A5002E08A400EB
:105F4200A801A3310123AF31003A031DA92FAA2FC3
:105F5200982F08004101A40040010E1BB12FB22F5F
:105F6200C02F5A080319B62FB72FBA2FAD316D259E
:105F7200AF314001DA01DA0A4101A401A40A410168
:105F820024080319C52FC62FD22F05304101A300C3
:105F92000F30A200F130890BCC2FA20BCC2FA30B18
:105FA200CC2F0800F100D62F6400400162080319CB
:105FB200DB2FDC2FD52F4E01191BE02FE12FE52F10
:105FC200710854019A00FD2F19137108F000400165
:105FD2006408A03E8600013087007008810001300D
:105FE200F0007008E40708306402031CF92FFA2F4E
:105FF200FB2FE4010130E2024E011917080061345F
:0C60020065346234753473343334003478
:020000040001F9
:0A000E00EC3FFF3FBF3FF63CFF3F11
:00000001FF
