:100800008431552CAE3401347E1484314E01961E51
:100810000A2C0B2C132C8C1E0E2C0F2C132CA831F5
:1008200017208431532C0B1F162C172C532C991E78
:100830001A2C1B2C262C8F1E1E2C1F2C262C430101
:1008400033088A0032080A008431532C191E292CDF
:100850002A2C352C0F1E2D2C2E2C352C430135081F
:100860008A0034080A008431532C991F382C392C03
:10087000442C8F1F3C2C3D2C442C430137088A000C
:1008800036080A008431532C191F472C482C532C4E
:100890000F1F4B2C4C2C532C430139088A0038086D
:1008A0000A008431532C7E10090040018431582CF9
:1008B0004101903100208431EC00903101208431DD
:1008C000ED0027308400B7308500443086000230C8
:1008D00087000E30B631BC2684314E3084000030A3
:1008E00085002230B631B62684314201E501E601A9
:1008F000E701E801E901A0308400013085004E30B5
:10090000B631B62684312030840002308500243090
:10091000B631B6268431A030840002308500203004
:10092000B631B62684317E10400188313D28580802
:100930000F3E8600013087000108A0000430A03679
:10094000890B9F2C2008573EC90000300318013046
:10095000CA00BC2C58080F3E8600013087000108F1
:10096000A0000430A036890BB22C2008303EC9000C
:10097000003003180130CA004908A0005708580782
:10098000A100210886000130870020088100013085
:10099000A0002008D70758080F3E860001308700C6
:1009A0000F300105A0000A302002031CD82CD92CDE
:1009B000E72C58080F3E86000130870001080F39E8
:1009C000573ECB00003003180130CC00F42C5808FF
:1009D0000F3E86000130870001080F39303ECB0002
:1009E000003003180130CC004B08A000570858070E
:1009F000A100210886000130870020088100013015
:100A0000A0002008D7075408A0005508A100A201A3
:100A1000A3010830A035A10DA20DA30D890B0A2D4D
:100A20005608A400A501A435A50DA435A50DA4352F
:100A3000A50DA435A50DA435A50D2408103EA600CE
:100A40000030253DA7002608A8002708A90000308F
:100A5000A91BFF30AA00AB00200828044101A40014
:100A60004201210829044101A500420122082A046B
:100A70004101A600420123082B044101A7004201C5
:100A800058084101A8000130A90042015708AC00F4
:100A9000AD012C084101AA0042012D084101AB0023
:100AA000AD31F325843142015708A000A10120088F
:100AB000D4072108D53D4008031D5F2D602D322E3F
:100AC000FF3040015C054201A000003040015D059F
:100AD0004201A100033020062104031D702D712D59
:100AE000322ED7013230A00057085807A100210844
:100AF000860001308700200881000130A000200816
:100B0000D7070430A00057085807A1002108860025
:100B100001308700200881000130A0002008D7079D
:100B2000580857074101A0000130A100EA30A20097
:100B30000130A3000430A4000030A500AA31AE2289
:100B4000843104304201A0002008D7073630A000CD
:100B500057085807A10021088600013087002008A7
:100B600081000130A0002008D7070430A0005708FA
:100B70005807A10021088600013087002008810065
:100B80000130A0002008D707580857074101A000EE
:100B90000130A1004030A2000230A3000430A400C4
:100BA0000030A500AA31AE22843104304201A000F9
:100BB0002008D7075408A0005508A100A201A301EE
:100BC0000830A035A10DA20DA30D890BE12D56080B
:100BD000A400A501A435A50DA435A50DA435A50D2A
:100BE000A435A50DA435A50D2408103EA60000309F
:100BF000253DA7002608A8002708A9000030A91B4A
:100C0000FF30AA00AB00200828044101A4004201E3
:100C1000210829044101A500420122082A044101BA
:100C2000A600420123082B044101A70042015808F5
:100C30004101A8000130A90042015708AC00AD01F4
:100C40002C084101AA0042012D084101AB00AD3141
:100C5000F325843142015708A000A1012008D407E0
:100C60002108D53DD7013730A00057085807A1000B
:100C70002108860001308700200881000130A00093
:100C80002008D70740015E08031D472E482E4E2E30
:100C900002304201CD000030CE00532E043042011C
:100CA000CD000030CE004D08A00057085807A10025
:100CB0002108860001308700200881000130A00053
:100CC0002008D70757085807A000200886000130E1
:100CD00087008101810A0130A0002008D707033076
:100CE000A00057085807A10021088600013087009E
:100CF000200881000130A0002008D70740015E08CD
:100D00000319832E842EA32E3A304201A0005708E7
:100D10005807A100210886000130870020088100C3
:100D20000130A0002008D7073B30A0005708580723
:100D3000A1002108860001308700200881000130D1
:100D4000A0002008D707FF304201A000570858072D
:100D5000A1002108860001308700200881000130B1
:100D6000A0002008D7075408A0005508A100A20140
:100D7000A3010830A035A10DA20DA30D890BBA2E39
:100D80005608A400A501A435A50DA435A50DA435CC
:100D9000A50DA435A50DA435A50D2408103EA6006B
:100DA0000030253DA7002608A8002708A90000302C
:100DB000A91BFF30AA00AB00200828044101A400B1
:100DC0004201210829044101A500420122082A0408
:100DD0004101A600420123082B044101A700420162
:100DE00058084101A8000130A90042015708AC0091
:100DF000AD012C084101AA0042012D084101AB00C0
:100E0000AD31F325843142015708A000A10120082B
:100E1000D4072108D53D5608A000A101A035A10D99
:100E2000A035A10DA035A10DA035A10DA035A10DB6
:100E30002008083EA2000030213DA3002208A400A3
:100E40002308A5000030A51BFF30A600A700003036
:100E500024044101A4002430420125044101A500DD
:100E60000030420126044101A6000030420127045F
:100E70004101A700420155084101A900420154085F
:100E80004101A800AD31A525843142015308031961
:100E90004A2F4B2F6E2FC6304101A0000130A10018
:100EA0000030A200A3000430A4000030A500A2314D
:100EB000DC22843100304101A7000030A6000F3051
:100EC000A5000030A400C630A8000130A9000430FD
:100ED000AA000030AB00AD31F3258431420158083F
:100EE0004101C7000130C8000030C900CA004201FA
:100EF0005608A63131268431420153080319812F47
:100F0000822F962F00304101A7000030A6000F303D
:100F1000A5000030A400EA30A8000130A900043088
:100F2000AA000030AB00AD31F32584310800400148
:100F3000A201A20A99127408F8007508F90076084F
:100F4000FA007708FB001030FB36FA0CF90CF80CAD
:100F5000890BA42F7808FC007C08EB007408F800CB
:100F60007508F9007608FA007708FB000830FB36B0
:100F7000FA0CF90CF80C890BB72F7808FC007C08E8
:100F8000EC007408F8007808ED006B30F0000030D9
:100F9000F1000530F2000030F300A93186218731DD
:100FA000400199162408A1002308A0006F08F8004A
:100FB000F9016E08FA00FB017A08FB00FA017808D3
:100FC0007A04A30079087B04A40022080319E92FFE
:100FD000EA2FEC2FA2019A2F21082406031DF22FDD
:100FE00020082306031DF52FF62F9A2F2408F5005D
:100FF0002308F4000800BB3052018C0008000800F0
:10100000410121084301EF00410120084301EE00A6
:10101000080000304101B3000030B2000030B100E0
:101020000030B000281C152816281E282C08B007F0
:101030002D08B13D2E08B23D2F08B33D0130AC352F
:10104000AD0DAE0DAF0D890B1F280130AB36AA0CCC
:10105000A90CA80C890B26282B082A04290428048B
:10106000031D3328342812283308AB003208AA00A5
:101070003108A9003008A8000800A03100208831FC
:1010800054011F16AF313827883105304101EB007C
:101090000F30EA00F130890B4B28EA0B4B28EB0BA1
:1010A0004B28003040010E1901304101EC000310C3
:1010B00040010E1E03140030031801304201E90004
:1010C00050011E1701309B009A014501C501C60160
:1010D000CF0150011E141C084101EA0045014F08D0
:1010E0000139C53E86000230870041016A08810649
:1010F0000130EA006A0850019A0701304101EA0014
:101100006A084501CF0709304F02031C8828892847
:101110006928C530860002308700403F4101A000A9
:10112000413FA100B7311A2788314501C801C80ADB
:1011300042016908031D9D289E28BC284001941186
:101140009A1105304101EB000F30EA00F130890BB4
:10115000A728EA0BA728EB0BA728031040010E1EB7
:101160000314003003180130E10061080319B928A5
:10117000BA28BC284501C801400194129A124201C4
:1011800069080319C428C528D428AB313A2388310B
:101190000130AA31DB2288310130A83101208831A9
:1011A000A8319A2088313F29400118131530410198
:1011B000EB004B30EA00BE30890BDC28EA0BDC2860
:1011C000EB0BDC2800004001181705304101EB0053
:1011D0000F30EA00F130890BEB28EA0BEB28EB0B20
:1011E000EB2845014808031DF628F7282C29272954
:1011F00032304101A0000030A100A8312E208831FA
:101200000130A931FC21883105304101EB000F305C
:10121000EA00F130890B0A29EA0B0A29EB0B0A29AB
:1012200000304101A000A100A8312E2088310130FA
:10123000A931FC21883105304101EB000F30EA0073
:10124000F130890B2129EA0B2129EB0B21294001DF
:101250008D182B292C29F82841016C08031D3129F0
:1012600032293929B73195278831B731EA278831B2
:101270003F29AB313A238831AB3109238831E33040
:101280004101A0002E30A100883100208831B63104
:10129000A726883109304101EB001E30EA00E43016
:1012A000890B5029EA0B5029EB0B50290000003024
:1012B0004101A000A100A8312E20883141016C0815
:1012C0000319632964298B294501D00103304101A9
:1012D000EB000830EA007730890B6C29EA0B6C29A7
:1012E000EB0B6C29450150084101EA00EB016A084B
:1012F000A0006B08A100A8312E20883101304101E7
:10130000EA006A084501D00715305002031C8929FC
:101310008A296629A02909304101EB001E30EA0024
:10132000E430890B9129EA0B9129EB0B91290000FC
:1013300001304101A0000030A100A8312E208831E9
:101340004501D101420169080319A8298931AA2957
:101350008B311C2B4501D30100304101A700003027
:10136000A6003930A5000030A400A801AC31C62485
:1013700089314101EA006A084501C400043044068D
:101380000319C329C429EE2953080319C829C929F7
:10139000D229D30100304101A000A100A8312E20A4
:1013A0008931DC29D301D30A14304101A000003077
:1013B000A100A8312E2089310B304101EB002630ED
:1013C000EA005D30890BE229EA0BE229EB0BE22906
:1013D00000320030A931FC218931AC299C317624BE
:1013E00089314101EA006A084501D100202A4501FE
:1013F00053080319FC29FD29062AD30100304101B5
:10140000A000A100A8312E208931102AD301D30ACF
:1014100014304101A0000030A100A8312E208931F4
:1014200003304101EB000830EA007730890B162ABF
:10143000EA0B162AEB0B162A0030A931FC21893160
:1014400000304101A7000030A6002E30A50000307A
:10145000A400A801AC31C624893101390319312A0D
:10146000322AF729420168084101C6004201670893
:101470004101C500420166084101C40042016508FE
:101480004101C300450151084101EA006A08C70053
:1014900000309B3127238931450151080319512A16
:1014A000522A182B420168084501C300420167080F
:1014B0004501C200420166084501C10042016508BC
:1014C0004501C000CD01CD0AC701122B43084201DE
:1014D0006806031D7B2A4501420842016706031D79
:1014E0007B2A4501410842016606031D7B2A45010E
:1014F000400842016506031D7E2A7F2AB52A450160
:101500004D08031D842A852AB52A42016808410135
:10151000C600420167084101C50042016608410159
:10152000C400420165084101C300C701C70A003079
:101530009B3127238931B52A4501C701C70AD22A21
:101540000230420165074501C00000304201663D9E
:101550004501C10000304201673D4501C200003035
:101560004201683D4501C300D22A42016808DC00FF
:101570006708DB006608DA006508D90000309131A1
:10158000582189314101EA00EB016B08003A031947
:10159000CA2AD22A6A08013A03199C2A033A031973
:1015A000A02AD22A450153080319D72AD82AE12AAA
:1015B000D30100304101A000A100A8312E208931C3
:1015C000EB2AD301D30A14304101A0000030A1005E
:1015D000A8312E20893106304101EB001330EA009A
:1015E000AD30890BF12AEA0BF12AEB0BF12A00321C
:1015F00001304101EA006A084501CD0708304D027B
:10160000031C032B042B0E2BCD0101304201E507F7
:101610000030E63D0030E73D0030E83D0030A931C4
:10162000FC218931450147080319172B182B662A1D
:10163000B731BF278931242B4F304101A00025301D
:10164000A100B631D226893197304101A000213066
:10165000A100B631E42689318B170B174001E00158
:10166000E00A420169080319362B372B5F2C45012C
:10167000D4010030CC000030CB000030CA00003074
:10168000C90045014C084B044A0449040319492B7D
:101690004A2B872B4C0842016802031D5F2B450132
:1016A0004B0842016702031D5F2B45014A084201B6
:1016B0006602031D5F2B4501490842016502031CB8
:1016C000622B632BAD2B00304501CC000030CB00EA
:1016D0000030CA000030C900420168084101C6005C
:1016E000420167084101C500420166084101C4008A
:1016F000420165084101C300450151084101EA006A
:101700006A08C70000309B3127238931AD2B420185
:101710006808DC006708DB006608DA006508D900A5
:101720000030913158218931023A031D982B992BB1
:10173000AD2B0230420165074501C900003042016E
:10174000663D4501CA0000304201673D4501CB00BE
:1017500000304201683D4501CC0045015408031D9D
:10176000B22BB32BCD2B0F304101B4002730B50085
:10177000013098314520893100304101A700003007
:10178000A6002F30A5002C30A400A801A80AAC3177
:10179000C62489314501D401D40A5403031DD12B39
:1017A000D22BE32B4101B4010130A2312E22893129
:1017B000003A0319DC2BDD2BE32B02304101EA0058
:1017C0006A084501D400023045015406031DE92B87
:1017D000EA2B042C0130A0311F208931003A031973
:1017E000F22BF32BF62B4501D401042C0130AB3145
:1017F000CF2389314101320833040319002C012C15
:10180000042CA5314F258931A03041016D02EA0039
:101810006A084501CE004E0803190F2C102C5A2CD3
:1018200002305406031D152C162C282CA030410123
:10183000C7000230C80045014E084101EA00EB0133
:101840006A08C9006B08CA000130A6313126893107
:101850004E01991345014E0841016D02EA006A08E4
:101860004501D200A0304101EA0045015208410182
:101870006A0203183C2C3D2C522CA030A0000230F0
:10188000A100450152084101A2000230A300A0308E
:10189000450152024101A400A501A41BA503AA31E0
:1018A000AE228931450152084101EA006A08ED0083
:1018B0004E0199170030A931FC218931412B0130AB
:1018C000A931FC2189315F2C8431552C3C304101F8
:1018D000A0000230A100BA30A2000130A300043001
:1018E000A4000030A500AA31AE228C31012F38307F
:1018F0004101A0000230A100BA30A2000130A300D3
:101900000430A4000030A500AA31AE228C31012F92
:10191000FF30A0000030A1000030A2000030A30082
:1019200043013A084201A40043013B084201A500DB
:1019300043013C084201A60043013D084201A700C3
:101940001830A736A60CA50CA40C890BA12C2408D2
:10195000A0052508A1052608A2052708A305003033
:10196000A800FF30A9000030AA000030AB004301FE
:101970003A084201AC0043013B084201AD0043017B
:101980003C084201AE0043013D084201AF0008306F
:10199000AF36AE0CAD0CAC0C890BC82C2C08A805CE
:1019A0002D08A9052E08AA052F08AB050030B000A8
:1019B0000030B100FF30B2000030B30043013A08FC
:1019C0004201B40043013B084201B50043013C0819
:1019D0004201B60043013D084201B7000830B4356A
:1019E000B50DB60DB70D890BEF2C3408B0053508D1
:1019F000B1053608B2053708B3050030B80000302D
:101A0000B9000030BA00FF30BB0043013A08420180
:101A1000BC0043013B084201BD0043013C084201B8
:101A2000BE0043013D084201BF001830BC35BD0D6A
:101A3000BE0DBF0D890B162D3C08B8053D08B90534
:101A40003E08BA053F08BB053808B0043908B104A0
:101A50003A08B2043B08B3043008A8043108A904CA
:101A60003208AA043308AB04200828044001D2003D
:101A70004201210829044001D300420122082A041E
:101A80004001D400420123082B044001D500012F5E
:101A900043013A084201A00020084101DE00012F65
:101AA00040304101A0000230A100BA30A200013054
:101AB000A3000430A4000030A500AA31AE228C316E
:101AC000012FFF30A0000030A1000030A200003044
:101AD000A30043013A084201A40043013B0842012C
:101AE000A50043013C084201A60043013D08420114
:101AF000A7001830A736A60CA50CA40C890B7A2DCC
:101B00002408A0052508A1052608A2052708A30585
:101B10000030A800FF30A9000030AA000030AB0060
:101B200043013A084201AC0043013B084201AD00C9
:101B300043013C084201AE0043013D084201AF00B1
:101B40000830AF36AE0CAD0CAC0C890BA12D2C08B7
:101B5000A8052D08A9052E08AA052F08AB050030F9
:101B6000B0000030B100FF30B2000030B3004301DC
:101B70003A084201B40043013B084201B500430169
:101B80003C084201B60043013D084201B70008305D
:101B9000B435B50DB60DB70D890BC82D3408B00599
:101BA0003508B1053608B2053708B3050030B8006E
:101BB0000030B9000030BA00FF30BB0043013A08E2
:101BC0004201BC0043013B084201BD0043013C0807
:101BD0004201BE0043013D084201BF001830BC3540
:101BE000BD0DBE0DBF0D890BEF2D3C08B8053D089E
:101BF000B9053E08BA053F08BB053808B0043908E6
:101C0000B1043A08B2043B08B3043008A804310810
:101C1000A9043208AA043308AB04200828044001B0
:101C2000CE004201210829044001CF0042012208D0
:101C30002A044001D000420123082B044001D100B6
:101C4000012FFF30A0000030A1000030A2000030C2
:101C5000A30043013A084201A40043013B084201AA
:101C6000A50043013C084201A60043013D08420192
:101C7000A7001830A736A60CA50CA40C890B3A2E89
:101C80002408A0052508A1052608A2052708A30504
:101C90000030A800FF30A9000030AA000030AB00DF
:101CA00043013A084201AC0043013B084201AD0048
:101CB00043013C084201AE0043013D084201AF0030
:101CC0000830AF36AE0CAD0CAC0C890B612E2C0875
:101CD000A8052D08A9052E08AA052F08AB05003078
:101CE000B0000030B100FF30B2000030B30043015B
:101CF0003A084201B40043013B084201B5004301E8
:101D00003C084201B60043013D084201B7000830DB
:101D1000B435B50DB60DB70D890B882E3408B00556
:101D20003508B1053608B2053708B3050030B800EC
:101D30000030B9000030BA00FF30BB0043013A0860
:101D40004201BC0043013B084201BD0043013C0885
:101D50004201BE0043013D084201BF001830BC35BE
:101D6000BD0DBE0DBF0D890BAF2E3C08B8053D085B
:101D7000B9053E08BA053F08BB053808B004390864
:101D8000B1043A08B2043B08B3043008A80431088F
:101D9000A9043208AA043308AB042008280443012C
:101DA000A8004201210829044301A9004201220898
:101DB0002A044301AA00420123082B044301AB007B
:101DC000012F63084201A000A1012108003A031974
:101DD000EA2E012F2008013A0319662C023A031952
:101DE000772C303A0319882C063A0319482D033A08
:101DF0000319502D0C3A0319612D013A0319212EB4
:101E0000012F410166086802031D082F650867025B
:101E1000031C0B2F0D2FA331F32B41016708650223
:101E2000D5006808663BD6006908B7316C278C314D
:101E3000FF3040015C054201A000003040015D051B
:101E40004201A100033020062104031D282F292F61
:101E5000FD2F40015508031D382F5408031D382F4E
:101E60005308031D382FF03052020318382F392F32
:101E7000422F00304001D5000030D4000030D300A4
:101E8000F030D20040015108031D522F5008031DAD
:101E9000522F4F08031D522F78304E02031C512F32
:101EA000522F652F400155085102031D612F540820
:101EB0005002031D612F53084F02031D612F52086A
:101EC0004E02031C642F652F922F400152084201DD
:101ED000A000400153084201A10040015408420102
:101EE000A200400155084201A3000330A336A20C12
:101EF000A10CA00C890B762F0230A035A10DA20DEC
:101F0000A30D890B7D2F23084001D1004201220837
:101F10004001D000420121084001CF0042012008C9
:101F20004001CE0043012B08031DA22F2A08031DE8
:101F3000A22F2908031DA22FD2302802031CA12F93
:101F4000A22FBC2F4001550843012B02031DB82FBF
:101F50004001540843012A02031DB82F40015308D1
:101F600043012902031DB82F4001520843012802F2
:101F7000031CBB2FBC2FFD2F400152084201A000C3
:101F8000400153084201A100400154084201A2004F
:101F9000400155084201A3000330A336A20CA10C56
:101FA000A00C890BCD2F23084101AB004201220870
:101FB0004101AA00420121084101A9004201200873
:101FC0004101A8000030AF000030AE000030AD008D
:101FD0000730AC00883109208C3141012B084301C6
:101FE000AB0041012A084301AA004101290843012D
:101FF000A900410128084301A80041015E0808002A
:102000000134A0344101C2004208B900BA01B93517
:10201000BA0DB935BA0DB935BA0DB935BA0DB935EC
:10202000BA0D3908083EBB0000303A3DBC003B0801
:10203000BD003C08BE000030BE1BFF30BF00C0002A
:1020400000303D04A40004303E04A50000303F04ED
:10205000A60000304004A7003508A9003408A800F5
:10206000AD31A525903141014208B900BA01B93519
:10207000BA0DB935BA0DB935BA0DB935BA0DB9358C
:10208000BA0D3908083EBB0000303A3DBC003B08A1
:10209000BD003C08BE000030BE1BFF30BF00C000CA
:1020A00000303D04A4000C303E04A50000303F0485
:1020B000A60000304004A7003608A8000130A9009F
:1020C0000430AA000030AB00AD31F325903141015E
:1020D0004208B900BA01B935BA0DB935BA0DB935EA
:1020E000BA0DB935BA0DB935BA0D3908083EBB007D
:1020F00000303A3DBC003B08BD003C08BE0000304B
:10210000BE1BFF30BF00C00000303D04A4001030F3
:102110003E04A50000303F04A60000304004A700A4
:102120003808A9003708A800AD31A5259031410134
:102130004208B900BA01B935BA0DB935BA0DB93589
:10214000BA0DB935BA0DB935BA0D3908083EBB001C
:1021500000303A3DBC003B08BD003C08BE000030EA
:10216000BE1BFF30BF00C00000303D04AE00013098
:102170003E04AF0000303F04B00000304004B10026
:102180001030C1004108B200A931AC2190314101A9
:102190004208B900BA01B935BA0DB935BA0DB93529
:1021A000BA0DB935BA0DB935BA0D3908083EBB00BC
:1021B00000303A3DBC003B08BD003C08BE0000308A
:1021C000BE1BFF30BF00C00004303D04A40000303F
:1021D0003E04A50000303F04A60000304004A700E4
:1021E0000230C1004108A800AC31C6249031410141
:1021F0004208B900BA01B935BA0DB935BA0DB935C9
:10220000BA0DB935BA0DB935BA0D3908083EBB005B
:1022100000303A3DBC003B08BD003C08BE00003029
:10222000BE1BFF30BF00C00000303D04AE000130D7
:102230003E04AF0000303F04B00000304004B10065
:10224000B201B20AA931AC21903141014208B90072
:10225000BA01B935BA0DB935BA0DB935BA0DB935B6
:10226000BA0DB935BA0D3908083EBB0000303A3D09
:10227000BC003B08BD003C08BE000030BE1BFF3068
:10228000BF00C00000303D04A40003303E04A500A0
:1022900000303F04A60000304004A700A801AC3184
:1022A000C6249031223A031D562957299728080041
:1022B0004401D20000304101A7000030A6002E30BA
:1022C000A5000030A400A801AC31C6249131013929
:1022D000031D6B296C296E2902307C2B43012708D2
:1022E0002604250424040319762977290E2A2708B1
:1022F00042015C02031D8C294301260842015B0256
:10230000031D8C294301250842015A02031D8C2913
:102310004301240842015902031C8F2990290E2AE7
:1023200040015E08031995299629092A00305B02AD
:10233000403003195A02031C9E299F29092A0230A2
:102340005C06031DA7295D03031DA729A829B3293E
:1023500000304301A7000030A6000030A500003087
:10236000A40002307C2B03305C06033003195D06A9
:102370000319BB29BC29BD29A8295508031DCB2950
:102380005408031DCB295308031DCB293C305202AE
:102390000318CB29CC29CD29A82901304001D136F9
:1023A000D00CCF0CCE0C890BCE2901304301AB36BB
:1023B000AA0CA90CA80C890BD62901304001D536EE
:1023C000D40CD30CD20C890BDE29420159084001F0
:1023D0004E074201DD005A0840014F3D4201DE0038
:1023E0005B084001503D4201DF005C084001513D67
:1023F0004201E00060084301A30042015F0843017D
:10240000A20042015E084301A10042015D084301B0
:10241000A000FF304001DC05FE30DD0540015D1805
:10242000122A132A472A440152089D31DD25913191
:1024300040015D1442015908DD005A08DE005B08C6
:10244000DF005C08E00040015A084201E100400161
:102450005B084201E200E301E4016108DD07620874
:10246000DE3D6308DF3D6408E03D60084301A700EE
:1024700042015F084301A60042015E084301A50036
:1024800042015D084301A400B73158279131400152
:1024900059084401D700400158084401D6004001C2
:1024A00057084401D500400156084401D400543077
:1024B0004201DD005D084101D90044015208933119
:1024C0007D2391314201DE005E084401D800580AA4
:1024D000031D6B2A6C2A622BFF307C2B02304401D7
:1024E0005806031D742A752A892A57084001D90005
:1024F000440156084001D800440155084001D70066
:10250000440154084001D6000330DC000030DD00F7
:102510007B2B01304001DC000030DD007B2B0530DF
:1025200044015806031D952A962A2A2B5708400174
:10253000D900440156084001D80044015508400123
:10254000D700440154084001D60000304101A700E3
:102550000030A6000F30A5000030A400EA30A8002B
:102560000130A9000430AA000030AB00AD31F325E2
:10257000913100304101A7000030A6000530A500D0
:102580000030A4003C30A8000230A9000430AA00AA
:102590000030AB00AD31F325913100304101A7008F
:1025A0000030A6000130A5000030A4003830A8009B
:1025B0000230A9000430AA000030AB00AD31F32591
:1025C000913142015C084301A70042015B084301CD
:1025D000A60042015A084301A500420159084301DF
:1025E000A40040015108031D002B5008031D002BBF
:1025F0004F08031D002B3C304E020318002B012B0B
:102600000B2B3C304301A4070030A53D0030A63D14
:102610000030A73D1B2B40014E084301A407400199
:102620004F084301A53D400150084301A63D40012C
:1026300051084301A73D2708A3002608A20025084A
:10264000A1002408A00003304001DC000330DD00BD
:1026500001307C2B06305806031D2F2B302B312BDD
:10266000892A03304001DC000030DD007B2B05307F
:1026700044015806031D3D2B3E2B7B2B5708400180
:10268000D900440156084001D800440155084001D2
:10269000D700440154084001D6003C30420159079C
:1026A0004301A400003042015A3D4301A50000301F
:1026B00042015B3D4301A600003042015C3D430105
:1026C000A7007B2B40015D08013A03196B2B023AEE
:1026D0000319762B7B2B5C08013A03196E2A023A08
:1026E00003198F2A0B3A0319372B7B2B5C08033A0B
:1026F00003198F2A7B2B003008004101E90069088B
:10270000AB31CF23933141013308DB003208DA00CB
:1027100000305B02083003195A020318902B912BEA
:10272000942BFF308F31FF2FBA30C7000130C80023
:102730000830C9000030CA006908AE3192269331D2
:1027400041014808E8004708E70000306802083007
:10275000031967020318AD2BAE2BAF2B912B43014E
:102760003F084201A000A10143013E084201A2002E
:10277000A3012208A300A201200822044101DC00D9
:102780004201210823044101DD00430141084201C7
:10279000A000A101430140084201A200A3012208B8
:1027A000A300A201200822044101E5004201210802
:1027B00023044101E600003066022C300319650253
:1027C000031CE32BE42BEB2B43305C065D04031965
:1027D000EA2BEB2BF42B6608D6006508D5006908B8
:1027E000B7316C279331912BBA30C7000130C80044
:1027F0002C30C9000030CA006908AE3192269331EE
:1028000041014808E8004708E700003068022C3022
:102810000319670203180D2C0E2C192C670865028A
:10282000D5006808663BD6006908B7316C2793313C
:10283000912B023043013A0603191F2C202C2C2C1B
:10284000410167086502D5006808663BD600690843
:10285000B7316C279331912BFF304201A00000303B
:10286000A1000030A2000030A30043013E08420155
:10287000A40043013F084201A50043014008420172
:10288000A600430141084201A7001830A736A60C54
:10289000A50CA40C890B462C2408A0052508A1052D
:1028A0002608A2052708A3050030A800FF30A900CC
:1028B0000030AA000030AB0043013E084201AC00EA
:1028C00043013F084201AD00430140084201AE0010
:1028D000430141084201AF000830AF36AE0CAD0CE9
:1028E000AC0C890B6D2C2C08A8052D08A9052E0809
:1028F000AA052F08AB050030B0000030B100FF3052
:10290000B2000030B30043013E084201B40043016D
:102910003F084201B500430140084201B6004301AF
:1029200041084201B7000830B435B50DB60DB70DFA
:10293000890B942C3408B0053508B1053608B2056A
:102940003708B3050030B8000030B9000030BA00D5
:10295000FF30BB0043013E084201BC0043013F0879
:102960004201BD00430140084201BE00430141084D
:102970004201BF001830BC35BD0DBE0DBF0D890B27
:10298000BB2C3C08B8053D08B9053E08BA053F0810
:10299000BB053808B0043908B1043A08B2043B0852
:1029A000B3043008A8043108A9043208AA04330883
:1029B000AB04200828044101DF004201210829045A
:1029C0004101E000420122082A044101E1004201E4
:1029D00023082B044101E200440133084101620253
:1029E000031D022D4401320841016102031D022D25
:1029F0004401310841016002031D022D44013008E9
:102A000041015F02031C052D062D1F2D62084001A8
:102A10005902031D1B2D4101610840015802031D8D
:102A20001B2D4101600840015702031D1B2D410170
:102A30005F084001560203181E2D1F2D2B2D41014A
:102A400067086502D5006808663BD6006908B7319B
:102A50006C279331912B4101590886000230870081
:102A60005F08C03F6008C13F6108C23F6208C33FC2
:102A70000030A7000030A6000930A5000030A400F7
:102A8000DC30A8000130A9000630AA000030AB00FD
:102A9000AD3158259331DC304201A00020084101BE
:102AA000A0000630A1000030A200D630AC31832453
:102AB000933141012008210403195F2D602D6B2DF6
:102AC00067086502D5006808663BD6006908B7311B
:102AD0006C279331912B40015E080319702D712DE5
:102AE000812DEA304101A0000130A100CA30A200CE
:102AF0000130A3000430A4000030A500AA31AE22AA
:102B00009331C0304101D5000030D6006908B7319B
:102B10006C27933141015508E7075608E83DBA3064
:102B2000C7000130C8000430C9000030CA0069087D
:102B3000AE319226933141014708E7074808E83D46
:102B4000633043013A06031DA72DA331A72BA33100
:102B5000B92BFF2D42015408A0005508A100A20185
:102B6000A3010830A035A10DA20DA30D890BB22D34
:102B70005608A400A501A435A50DA435A50DA435BE
:102B8000A50DA435A50DA435A50D2408103EA6005D
:102B90000030253DA7002608A8002708A90000301E
:102BA000A91BFF30AA00AB00200828044101A400A3
:102BB0004201210829044101A500420122082A04FA
:102BC0004101A600420123082B044101A700420154
:102BD00058084101A8000130A9002030AA000030A7
:102BE000AB00AD31F325953120304201D4070030E0
:102BF000D53D0130D1070030D23D9F31F12F420148
:102C0000D7016330A00057085807A10021088600AB
:102C100001308700200881000130A0002008D7077C
:102C20008230A00057085807A10021088600013013
:102C30008700200881000130A0002008D70753300A
:102C4000A00057085807A10021088600013087001E
:102C5000200881000130A0002008D7076330A000C1
:102C600057085807A1002108860001308700200876
:102C700081000130A0002008D7073530A000570898
:102C80005807A10021088600013087002008810034
:102C90000130A0002008D70757085807A0002008D7
:102CA0008600013087008101810A0130A0002008E0
:102CB000D70740015C084201A00057085807A1004F
:102CC0002108860001308700200881000130A00023
:102CD0002008D7073D30A00057085807A100210859
:102CE000860001308700200881000130A000200804
:102CF000D7070730A00057085807A1002108860011
:102D000001308700200881000130A0002008D7078B
:102D100057085807A000200886000130870081016D
:102D2000810A0130A0002008D70700304101A70028
:102D30000030A6000930A5000030A4004201580868
:102D400057074101A8000130A9000630AA00003051
:102D5000AB00AD315825953106304201A000200866
:102D6000D7070C30A00057085807A100210886009B
:102D700001308700200881000130A0002008D7071B
:102D800000304101A000B830A100A83147209531A2
:102D900041012008063E4201A00057085807A10043
:102DA0002108860001308700200881000130A00042
:102DB0002008D70700304101A000B830A10042012F
:102DC00058085707A831F920953100304101A0007B
:102DD000B830A100A83147209531410120084201B7
:102DE000A0002008D70758080D3E86000130870054
:102DF0000108A0000430A036890BFB2E0A30200207
:102E0000031C032F042F172F58080D3E8600013096
:102E100087000108A0000430A036890B0C2F200881
:102E2000573EC100003003180130C200292F580856
:102E30000D3E8600013087000108A0000430A03656
:102E4000890B1F2F2008303EC100003003180130CD
:102E5000C2004108A00057085807A10021088600B9
:102E600001308700200881000130A0002008D7072A
:102E700058080D3E8600013087000F300105A00084
:102E80000A302002031C452F462F542F58080D3EB0
:102E900086000130870001080F39573EC30000301B
:102EA00003180130C400612F58080D3E8600013020
:102EB000870001080F39303EC3000030031801308D
:102EC000C4004308A00057085807A1002108860045
:102ED00001308700200881000130A0002008D707BA
:102EE00058080E3E8600013087000108A00004301B
:102EF000A036890B782F0A302002031C802F812FE7
:102F0000942F58080E3E8600013087000108A0006B
:102F10000430A036890B892F2008573EC5000030A9
:102F200003180130C600A62F58080E3E8600013057
:102F300087000108A0000430A036890B9C2F2008D0
:102F4000303EC500003003180130C6004508A0001F
:102F500057085807A1002108860001308700200883
:102F600081000130A0002008D70758080E3E8600D7
:102F7000013087000F300105A0000A302002031C39
:102F8000C22FC32FD12F58080E3E86000130870074
:102F900001080F39573EC700003003180130C80040
:102FA000DE2F58080E3E86000130870001080F39D9
:102FB000303EC700003003180130C8004708A000A9
:102FC00057085807A1002108860001308700200813
:102FD00081000130A0002008D70758080F3E860066
:102FE000013087000108A0000430A036890BF52FBE
:102FF0000A302002031CFE2F8431972C8431AA2C26
:10300000400199127408A0007508A1007608A2007A
:103010007708A3001030A336A20CA10CA00C890BDA
:103020000B282008A4002408EB007408A0007508F1
:10303000A1007608A2007708A3000830A336A20CEE
:10304000A10CA00C890B1E282008A4002408EC0069
:103050007408A0002008ED006B30F0000030F10093
:103060000330F2000030F300A9318621983179084D
:10307000F1007808F0007B08F3007A08F200A9312B
:10308000862198314001991608004101BF003F0890
:10309000B600B701B635B70DB635B70DB635B70DB5
:1030A000B635B70DB635B70D3608083EB800003056
:1030B000373DB9003808BA003908BB000030BB1BE7
:1030C000FF30BC00BD0000303A04A40004303B04D3
:1030D000A50000303C04A60000303D04A7003508E0
:1030E000A9003408A800AD31A525983141013F0859
:1030F000B600B701B635B70DB635B70DB635B70D55
:10310000B635B70DB635B70D3608083EB8000030F5
:10311000373DB9003808BA003908BB000030BB1B86
:10312000FF30BC00BD0000303A04AE0001303B046B
:10313000AF0000303C04B00000303D04B10010305E
:10314000BE003E08B200A931AC21983141013F08D0
:10315000B600B701B635B70DB635B70DB635B70DF4
:10316000B635B70DB635B70D3608083EB800003095
:10317000373DB9003808BA003908BB000030BB1B26
:10318000FF30BC00BD0004303A04A40000303B0412
:10319000A50000303C04A60000303D04A700A801B3
:1031A000A80AAC31C624983141013F08B600B701E6
:1031B000B635B70DB635B70DB635B70DB635B70D53
:1031C000B635B70D3608083EB8000030373DB900B7
:1031D0003808BA003908BB000030BB1BFF30BC0008
:1031E000BD0000303A04AE0001303B04AF000030B7
:1031F0003C04B00000303D04B100B201B20AA93174
:10320000AC21983141013F08B600B701B635B70D82
:10321000B635B70DB635B70DB635B70DB635B70DF2
:103220003608083EB8000030373DB9003808BA000B
:103230003908BB000030BB1BFF30BC00BD000030B4
:103240003A04A40003303B04A50000303C04A6006F
:1032500000303D04A700A801AC31C6249831133AD0
:10326000031D33293429762808004001B9003908A4
:10327000A900AA01A935AA0DA935AA0DA935AA0D3B
:10328000A935AA0DA935AA0D2908083EAB000030C2
:103290002A3DAC002B08AD002C08AE000030AE1B60
:1032A000FF30AF00B00000302D04F40026302E04B3
:1032B000F50000302F04F60000303004F7008731AD
:1032C0009727993175084001B6007408B5002808A1
:1032D0003602031D6D29270835020318702971294C
:1032E00075293608A8003508A70027082804031DFB
:1032F0007A297B297E29A501A6012D2A3908A90052
:10330000AA01A935AA0DA935AA0DA935AA0DA93575
:10331000AA0DA935AA0D2908083EAB0000302A3DA8
:10332000AC002B08AD002C08AE000030AE1BFF3007
:10333000AF00B00000302D04F40028302E04F5005A
:1033400000302F04F60000303004F7008731972753
:10335000993175084001B8007408B70025082604A3
:103360000319B329B429F4293708A9003808AA0099
:10337000AB01AC010830A935AA0DAB0DAC0D890B22
:10338000BB293908AD00AE01AD35AE0DAD35AE0D82
:10339000AD35AE0DAD35AE0DAD35AE0D2D08183ECB
:1033A000AF0000302E3DB0002F08B1003008B20051
:1033B0000030B21BFF30B300B40029083104F40020
:1033C0002A083204F5002B083304F6002C083404D4
:1033D000F7002608F9002508F8002808FB00270850
:1033E000FA0098310020993140012708B7072808D2
:1033F000B83D3908A900AA01A935AA0DA935AA0D19
:10340000A935AA0DA935AA0DA935AA0D2908083E86
:10341000AB0000302A3DAC002B08AD002C08AE00FC
:103420000030AE1BFF30AF00B00000302D04F400C0
:1034300028302E04F50000302F04F6000030300450
:10344000F7003808F9003708F800AC31402499310A
:1034500040012808A6002708A50008004101C60071
:103460004608B600B701B635B70DB635B70DB63557
:10347000B70DB635B70DB635B70D3608083EB800EE
:103480000030373DB9003808BA003908BB000030B9
:10349000BB1BFF30BC00BD0000303A04A400263046
:1034A0003B04A50000303C04A60000303D04A7000A
:1034B000AF318F279A3141012508C3002408C2008B
:1034C00035084302031D662A340842020318692A9C
:1034D0006A2A6E2A4308B5004208B400340835044D
:1034E000031D732A742A772AB201B301262B4608DA
:1034F000B600B701B635B70DB635B70DB635B70D51
:10350000B635B70DB635B70D3608083EB8000030F1
:10351000373DB9003808BA003908BB000030BB1B82
:10352000FF30BC00BD0000303A04A40028303B044A
:10353000A50000303C04A60000303D04A700AF31D8
:103540008F279A3141012508C5002408C40032089C
:1035500033040319AC2AAD2AED2A4408B600450805
:10356000B700B801B9010830B635B70DB80DB90DBF
:10357000890BB42A4608BA00BB01BA35BB0DBA356F
:10358000BB0DBA35BB0DBA35BB0DBA35BB0D3A080C
:10359000183EBC0000303B3DBD003C08BE003D086D
:1035A000BF000030BF1BFF30C000C10036083E0422
:1035B000A40037083F04A50038084004A6003908D5
:1035C0004104A7003308A9003208A8003508AB0061
:1035D0003408AA00AD3158259A3141013408C40796
:1035E0003508C53D4608B600B701B635B70DB63546
:1035F000B70DB635B70DB635B70DB635B70D3608BC
:10360000083EB8000030373DB9003808BA00390824
:10361000BB000030BB1BFF30BC00BD0000303A04D3
:10362000A40028303B04A50000303C04A600003074
:103630003D04A7004508A9004408A800AD31A52510
:103640009A3141013508B3003408B2000800410145
:10365000D100EA30A0000130A100FF30A20000300C
:10366000A3000430A4000030A500A231DC229B316D
:1036700040304101A0000230A1000030A200A300B0
:103680000430A4000030A500A231DC229B314101AE
:103690005108C800C901C835C90DC835C90DC8359C
:1036A000C90DC835C90DC835C90D4808083ECA003E
:1036B0000030493DCB004A08CC004B08CD0000301B
:1036C000CD1BFF30CE00CF0004304C04A4001F30CF
:1036D0004D04A50000304E04A60000304F04A700A2
:1036E0000230D0005008A800AC31C6249B31410103
:1036F0005108C800C901C835C90DC835C90DC8353C
:10370000C90DC835C90DC835C90D4808083ECA00DD
:103710000030493DCB004A08CC004B08CD000030BA
:10372000CD1BFF30CE00CF0004304C04A4001E306F
:103730004D04A50000304E04A60000304F04A70041
:103740000230D0005008A800AC31C6249B31443070
:103750004101B4000030B500EA30C8004808B600A6
:103760004330B7000030B8005108903102209B313F
:10377000AD310E259B31FF3041013405C8000F30BB
:103780003505C9004808CA004908CB000030CB1BEA
:10379000FF30CC00CD0000304A064001D60050304A
:1037A00041014B064001D700B03041014C064001B9
:1037B000D800AE3041014D064001D90059084401FE
:1037C000B300400158084401B200400157084401C9
:1037D000B100400156084401B00041014708C8004B
:1037E00048084001DE00410147080319F82BF92B76
:1037F000112CEA30A0000130A1000030A200A3008B
:103800000430A4000030A500A231DC229B3101303D
:103810004001DC000030DD000430DA000030DB0065
:103820002D2C0030A7000030A6000F30A50000307E
:10383000A400EA30A8000130A9000430AA0000303A
:10384000AB00AD3158259B3108304001DC00003021
:10385000DD004030DA000030DB003C304101A000E8
:103860000230A100FF30A2000030A3000430A40009
:103870000030A500A231DC229B3138304101A0008C
:103880000230A1000030A200A3000430A4000030E8
:10389000A500A231DC229B3100304301AB00003097
:1038A000AA000030A9000030A8002B084001D10078
:1038B00043012A084001D000430129084001CF00FC
:1038C000430128084001CE005108D5005008D4001B
:1038D0004F08D3004E08D20000304301A30000304F
:1038E000A2000030A1000030A00008004430860093
:1038F00002308700B5308400003085000630410179
:10390000B10016001A00B10B812C0030CB00003042
:10391000CA000030C9000030C80044014D08410110
:10392000BE0044014C084101BD0044014B08410167
:10393000BC0044014A084101BB0050011E179B0115
:103940009A014101C701C70ACF01CE0150011E14DF
:103950001C084101B1003108C5004E08031DB12CFF
:10396000B22CC62C50011D084101B1003108C6001F
:10397000C61ABB2CBD2C0130BE2C0030B100310862
:10398000C70046081F39B1003108CF004508B10013
:103990004E08C83E86008701310881004E08031991
:1039A000D22CD32CE12C4708031DD72CD82CE12C8A
:1039B0004508B1004E08023EB53E86008701310839
:1039C00081000130B100310850019A0701304101F6
:1039D000B1003108CE0704304E02031CF02CF12C4C
:1039E000A62C47080319F52CF62C192D013050018F
:1039F0009B0006309A004101CC0150011E141C08A6
:103A00004101B1004C08033EB53E860087013108F4
:103A100081000130B100310850019A0701304101A5
:103A2000B1003108CC0703304C02031C182D192DAE
:103A3000FD2C0030A7000030A6000930A5000030A2
:103A4000A400B530A8000030A9000630AA0000305C
:103A5000AB00AD31F3259C311F3041014F060319F6
:103A6000322D332D3B2D49084A044B044804031DD5
:103A70003A2D3B2D3D2D0130DC2D0030A7000030CC
:103A8000A6000F30A5000030A400C830A800003008
:103A9000A9000430AA000030AB00AD31F3259C3101
:103AA0004101CD0108304F020318572D582D7D2DAF
:103AB0004F0803195C2D5D2D762D0130B1000030CB
:103AC000B2004F08083C890A672DB135B20D890B49
:103AD000652D3108FF3EB300FF30323DB400FF30AA
:103AE0003306C10000303406C200782DC101C20186
:103AF0004208C0004108BF00812DFF30BF000030E8
:103B0000C0003F08B1004D08BB3E86008701310868
:103B100081004D08BB3E860087010108B1004D08B9
:103B2000C83E860087013108810508304F0203181E
:103B30009A2D9B2D9E2DC301C401A52D4F08F83E43
:103B4000C300FF3003180030C4004308B10031083F
:103B5000CF000130B1003108CD0704304D02031C05
:103B6000B22DB32D522D0030A7000030A600053035
:103B7000A5000030A400BB30A8000030A90004302C
:103B8000AA000030AB00AD31F3259C3141014B144C
:103B90000030A7000030A6000130A5000030A400CE
:103BA000C830A8000030A9000430AA000030AB00E3
:103BB000AD31F3259C31003008004201D600560893
:103BC000A000A101A035A10DA035A10DA035A10D2A
:103BD000A035A10DA035A10D2008083EA20000309F
:103BE000213DA3002208A4002308A5000030A51B46
:103BF000FF30A600A700003024044101A4002430B7
:103C0000420125044101A500003042012604410182
:103C1000A6000030420127044101A700AF318F27E1
:103C20009D31410125084201D5004101240842018E
:103C3000D400BA30A0002008D80058084101A000E4
:103C40000130A1000030A200A3002C30A4000030FD
:103C5000A500A231DC229D314301BA01BA0ABB01A1
:103C6000BB0A06304201A00020084301BC00BD0190
:103C7000FF304201A0000030A1000030A20000305F
:103C8000A300400156084201A40040015708420128
:103C9000A500400158084201A60040015908420110
:103CA000A7001830A736A60CA50CA40C890B522E21
:103CB0002408A0052508A1052608A2052708A305B4
:103CC0000030A800FF30A9000030AA000030AB008F
:103CD000400156084201AC00400157084201AD00C6
:103CE000400158084201AE00400159084201AF00AE
:103CF0000830AF36AE0CAD0CAC0C890B792E2C080D
:103D0000A8052D08A9052E08AA052F08AB05003027
:103D1000B0000030B100FF30B2000030B30040010D
:103D200056084201B400400157084201B500400165
:103D300058084201B600400159084201B700083056
:103D4000B435B50DB60DB70D890BA02E3408B005EE
:103D50003508B1053608B2053708B3050030B8009C
:103D60000030B9000030BA00FF30BB0040015608F7
:103D70004201BC00400157084201BD004001580803
:103D80004201BE00400159084201BF001830BC3555
:103D9000BD0DBE0DBF0D890BC72E3C08B8053D08F3
:103DA000B9053E08BA053F08BB053808B004390814
:103DB000B1043A08B2043B08B3043008A80431083F
:103DC000A9043208AA043308AB04200828044301DC
:103DD000BE004201210829044301BF00420122081C
:103DE0002A044301C000420123082B044301C100FF
:103DF0004201CF01430123082204210420040319B6
:103E0000022F032F162F40015108031D122F5008B7
:103E1000031D122F4F08031D122F3C304E020318B2
:103E2000122F132F162F4201CF01CF0A42014F0844
:103E3000031D1B2F1D2F01301E2F0030A000200856
:103E4000C000D001D00A4301230822042104200429
:103E500003192B2F2C2F3B2F2B08031D3B2F2A0838
:103E6000031D3B2F2908031D3B2F3C302802031C58
:103E70003A2F3B2F4C2FFF3040015C054201A00040
:103E8000003040015D054201A10020032104031917
:103E90004A2F4B2F4C2FD00142015008031D512FA8
:103EA000532F0130542F0030A0002008D3004001D0
:103EB0005E0803195C2F5D2F612FDD1C602F612FC1
:103EC000772FC6304101A0000130A100EA30A200E6
:103ED0000130A3000430A4000030A500AA31AE22B6
:103EE0009D31420153080319762F772F7C2F8030A4
:103EF0004301C4000030C50000304101A70000307C
:103F0000A6000930A5000030A400D630A80001307A
:103F1000A9000630AA000030AB00AD3158259D3114
:103F200042015408A0005508A100A201A3010830D5
:103F3000A035A10DA20DA30D890B982F5608A40042
:103F4000A501A435A50DA435A50DA435A50DA43551
:103F5000A50DA435A50D2408103EA6000030253D72
:103F6000A7002608A8002708A9000030A91BFF30D9
:103F7000AA00AB00200828044101A4004201210846
:103F800029044101A500420122082A044101A6009A
:103F9000420123082B044101A700420158084101B6
:103FA000A8000130A9002C30AA000030AB00AD31D0
:103FB000F3259D312C304201D4070030D53D5808FF
:103FC0004101A0000130A1000030A200A300203078
:103FD000A4000030A500A231DC229D314201D101B4
:103FE000D2015208803AA00080302002031DFA2F2F
:103FF00006305102031CFE2F9531A92D9531AA2DB3
:10400000B7310D27A031AA318122A031B631F62671
:10401000A031B631B026A0318731FB27A031B731AE
:104020003527A031B731AA27A031B631CA26A03131
:10403000B631C226A031B631AA26A031080041010E
:10404000BE0053283E08B400B501B435B50DB435F3
:10405000B50DB435B50DB435B50DB435B50D340861
:10406000083EB6000030353DB7003608B8003708C6
:10407000B9000030B91BFF30BA00BB000030380473
:10408000AE0001303904AF0000303A04B000003017
:104090003B04B1001030BC003C08B200A931AC2197
:1040A000A031013090283E08B400B501B435B50DFB
:1040B000B435B50DB435B50DB435B50DB435B50D54
:1040C0003408083EB6000030353DB7003608B80069
:1040D0003708B9000030B91BFF30BA00BB00003010
:1040E0003804A40003303904A50000303A04A600C7
:1040F00000303B04A700A801AC31C624A031410127
:10410000BC00BD013D08003A031987288F283C08F0
:10411000003A031951281C3A031922288F2800302D
:104120000800F60042016908031997289828E32837
:10413000BE3041016D02031C9E289F28A028122931
:104140006C080319A428A528B0287603031DA92804
:10415000AA28BD28803072020318AF28B028BD28D5
:104160007208F3006D088600023087007308810032
:104170000130F3007308ED0712297208F3000630CE
:10418000F336890BC0287608F4000130F435FF3E81
:10419000031DC62874357304C038F5006D08860009
:1041A00002308700750881000130F3007308ED07C5
:1041B00072083F398038F3006D08860002308700AE
:1041C00073088100B82841016C080319E828E92820
:1041D000F4287603031DED28EE28F92880307202BA
:1041E0000318F328F428F9287208AA315422A031C0
:1041F00012297208F3000630F336890BFC28760882
:10420000F4000130F435FF3E031D022974357304B8
:10421000C038AA315422A03172083F398038AA31FF
:104220005422A03108004101A60042016908031987
:104230001A291B296629BE3041016D02031C212960
:104240002229232996296C0803192729282933298B
:104250002603031D2C292D29402980302202031812
:104260003229332940292208A3006D088600023034
:104270008700230881000130A3002308ED07962959
:104280002208A3000630A336890B43292608A40080
:104290000130A435FF3E031D492924352304C038CD
:1042A000A5006D08860002308700250881000130D6
:1042B000A3002308ED0722083F398038A3006D08CA
:1042C000860002308700230881003B2941016C08E9
:1042D00003196B296C2977292603031D702971297D
:1042E0007C29803022020318762977297C2922082C
:1042F000AB319D23A13196292208A3000630A336B5
:10430000890B7F292608A4000130A435FF3E031D38
:10431000852924352304C038AB319D23A1314101C7
:1043200022083F398038AB319D23A1310800F801C4
:1043300054011D1D9C299D29AA2941016C080319BE
:10434000A229A329A829F2010B30A0319120A13183
:10435000F801F80A54019D1CAE29AF29BF291D128E
:104360001D1641016C080319B629B729BD29F201B0
:10437000F20A0B30A0319120A131F801F80A540162
:104380001908F7007708F90078080319C829C9291E
:10439000CD29A8316120A1312D2A41016C08031DCE
:1043A000D229D329DC297908F7007708F2000130F7
:1043B000A0319120A1312D2A40016303031DE12981
:1043C000E229FF29AA307906031DE729E829FF29F8
:1043D000A0300032890BE92940016208AA31272266
:1043E000A1310230F70077084001E3007908F700B7
:1043F0007708F2000130A0319120A1312D2A02303E
:104400006306031D042A052A252A79086206031D6E
:104410000A2A0B2A142A7908F7007708F2000230DA
:10442000A0319120A1311C2A7908F7007708F20009
:104430000A30A0319120A1314001E3010030F000A9
:10444000F100B731D427A1312D2A7908F700770878
:10445000F2000130A0319120A13108004101BF00DC
:104460009B2A3F08B500B601B535B60DB535B60D7A
:10447000B535B60DB535B60DB535B60D3508083EB2
:10448000B7000030363DB8003708B9003808BA0028
:104490000030BA1BFF30BB00BC0000303904AE0056
:1044A00001303A04AF0000303B04B00000303C045F
:1044B000B1000230BD003D08B200A931AC21A231EB
:1044C000DA2A34080319652A662A992A3F08B500B2
:1044D000B601B535B60DB535B60DB535B60DB53534
:1044E000B60DB535B60D3508083EB7000030363D7F
:1044F000B8003708B9003808BA000030BA1BFF30DE
:10450000BB00BC0000303904A4000C303A04A50004
:1045100000303B04A60000303C04A7003408A8008B
:104520000030A9000430AA000030AB00AD3158259E
:10453000A2310130DB2A3F08B500B601B535B60D12
:10454000B535B60DB535B60DB535B60DB535B60DB7
:104550003508083EB7000030363DB8003708B900CE
:104560003808BA000030BA1BFF30BB00BC00003076
:104570003904A40003303A04A50000303B04A6002F
:1045800000303C04A700A801AC31C624A23141018F
:10459000BD00BE013E08003A0319CF2ADA2A3D08C1
:1045A000133A0319312A073A0319DA2A033A03198D
:1045B000612ADA2A0030080041012108AD002008F4
:1045C000AC0024082504031DE62AE72AE82AA62BC6
:1045D0002C0886002D0887002208810024082C075B
:1045E000A60025082D3DA7002608FF3EA800FF30A5
:1045F000273DA90028088600290887002208810095
:10460000003025020330031924020318082B092B5C
:104610000A2BA62B2C08013EA60000302D3DA7003A
:104620002608860027088700220881002C08023E01
:10463000A60000302D3DA700260886002708870029
:104640002208810024082C07A60025082D3DA7007C
:104650002608FE3EA800FF30273DA9002808860056
:10466000290887002208810024082C07A6002508B5
:104670002D3DA7002608FD3EA800FF30273DA900DC
:1046800028088600290887002208810000302502BA
:1046900007300319240203184E2B4F2B502BA62B47
:1046A0002C08033EA60000302D3DA70026088600FA
:1046B000270887002208810024082C07A600250867
:1046C0002D3DA7002608FC3EA800FF30273DA9008D
:1046D000280886002908870022088100003025026A
:1046E0000930031924020318762B772B782BA62B7D
:1046F0002C09A6002D09A700A60A0319A70A033052
:104700002605AA0000302705AB002A08AC072B08B5
:10471000AD3D2A08A4022B08A53BFC30A405FF30C0
:10472000A505A02B2C0886002D08870022088100F3
:104730000130A4020030A53B0130AC070030AD3D94
:1047400024082504031DA52BA62B922B08008230DC
:104750003B06031DAC2BAD2BB92B53303C06031D80
:10476000B22BB32BB92B63303D060319B82BB92BF1
:10477000C62B410167086502D5006808663BD60074
:104780006908B7316C27A3319331912B4101DE01C8
:10479000FF3040015C054201A000003040015D0592
:1047A0004201A100033020062104031DD82BDA2B7F
:1047B0008F31012F00304301AB000030AA000030E0
:1047C000A9000030A8002B084001D10043012A08AD
:1047D0004001D000430129084001CF0043012808CF
:1047E0004001CE00D82BBA30C7000130C8000130DC
:1047F000C9000030CA006908AE319226A3314101D8
:1048000047084804031D052C062C082C8F310D2F5A
:104810000130E7070030E83D43013A084201A000BB
:1048200020084101E300630A031D172C182C192CE2
:10483000062C6308031D1D2C1E2C1F2CD82BBA30F0
:10484000C7000130C8000130C9000030CA00690843
:10485000AE319226A331410147084804031D312C93
:10486000322C332C062C0130E7070030E83D4301A1
:104870003A084201A00020084101E400640803193D
:10488000422C432C6A2CBA30C7000130C80064089F
:104890004201A000A10120084101C90042012108F4
:1048A0004101CA006908AE319226A3314101640872
:1048B0004201A200A3014101480842012306031D51
:1048C000652C41014708420122060319682C692C16
:1048D0006A2C062C410164084201A000A1012008B5
:1048E0004101E707420121084101E83D8E31E12EF7
:1048F0004001CC014201690803197F2C802C952CC2
:104900004D304001BA000030BB000130BC00003027
:10491000BD000130AE314126A43140013A033B04D1
:104920000319932C942CC32C4E2D1D1D982C992CBF
:10493000A72C41016C0803199E2C9F2CA42CF2017A
:104940000C30A0319120A4314001CC01CC0A4201AD
:104950009D1CAB2CAC2CBD2C1D121D1641016C08EE
:104960000319B32CB42CBA2CF201F20A0C30A0318A
:104970009120A4314001CC01CC0A42011908400128
:10498000C8004808CD004C080319C72CC82CCC2CF3
:10499000A8316120A4314E2D41016C08031DD12C9A
:1049A000D22C3C2D40014D08AA312722A4314E2D96
:1049B0006408C8000230C836890BDB2C48080F3960
:1049C000C9004908CB001C2DE401E301E001E00A25
:1049D0002F2D3F304D05C80064080339C90005304C
:1049E000C935FF3E031DF02C49354804AA31272262
:1049F000A4312F2D3F304D05C80064080339C9008C
:104A00000530C935FF3E031D012D49354804CA0054
:104A10004A08E200AA306206031D0F2D102D122D48
:104A2000E3012F2DE301E30A0130F0000030F10033
:104A3000B731D427A4312F2D4B08C800C90149082C
:104A4000003A0319242D2F2D4808003A0319E42CAD
:104A5000013A0319E92C033A0319FA2C2F2D4001CE
:104A6000E4014E2D4D08C8004808E4004E2D4D08C5
:104A7000AA312722A4312F2D40014D08C039C8008A
:104A8000C9014908003A0319462D372D4808803AD4
:104A90000319D82C403A0319322D372D08007E1CFB
:104AA000532DA431782C4101D90142016908031921
:104AB0005A2D5B2D702DDA304101C7000030C8003F
:104AC0000130C9000030CA000130AE319226A53154
:104AD00041014703480403196E2D6F2D9E2D302E82
:104AE0001D1D732D742D822D41016C080319792D24
:104AF0007A2D7F2DA2010C30A1311321A531410166
:104B0000D901D90A42019D1C862D872D982D1D1291
:104B10001D1641016C0803198E2D8F2D952DA201B4
:104B2000A20A0C30A1311321A5314101D901D90AC2
:104B3000420119084101D5005508DA005908031946
:104B4000A22DA32DA72DA8317D20A531302E6C08D4
:104B5000031DAB2DAC2D1F2E5A08AB316B23A53195
:104B6000302E400164084101D5000230D536890B52
:104B7000B62D55080F39D6005608D800FE2D400135
:104B8000E401E301E001E00A112E3F305A05D500AF
:104B90004001640803394101D6000530D635FF3E97
:104BA000031DCE2D56355504AB316B23A531112E87
:104BB0003F305A05D5004001640803394101D60051
:104BC0000530D635FF3E031DE12D56355504D7007F
:104BD00057084001E200AA306206031DF02DF12DB6
:104BE000F32DE301112EE301E30A01304101A0009E
:104BF0000030A100A8312E20A531112E5808D50073
:104C0000D6015608003A0319062E112E5508003A0F
:104C10000319BF2D013A0319C52D033A0319D82DE5
:104C2000112E4001E401302E5A08D50055084001EC
:104C3000E400302E5A08AB316B23A531112E5A08EF
:104C4000C039D500D6015608003A0319282E1A2E6D
:104C50005508803A0319B12D403A0319142E1A2E23
:104C600008004101D50049084A040319382E392E9D
:104C70004B2E4808B3004708B2004A08B50049085F
:104C8000B4005508A7311427A631003A031D492E58
:104C90004A2E4B2E132F41015508CB00CC01CB35AA
:104CA000CC0DCB35CC0DCB35CC0DCB35CC0DCB35A0
:104CB000CC0D4B08083ECD0000304C3DCE004D08D9
:104CC000CF004E08D0000030D01BFF30D100D20002
:104CD00000304F04AE0001305004AF0000305104EA
:104CE000B00000305204B1002030D3005308B200AD
:104CF000A931AC21A63141015508CB00CC01CB35FF
:104D0000CC0DCB35CC0DCB35CC0DCB35CC0DCB353F
:104D1000CC0D4B08083ECD0000304C3DCE004D0878
:104D2000CF004E08D0000030D01BFF30D100D200A1
:104D300000304F04A40002305004A500003051049C
:104D4000A60000305204A700A801AC31C624A63149
:104D50004101D3005308D400541EAF2EB02EE02ED4
:104D60005508CB00CC01CB35CC0DCB35CC0DCB359C
:104D7000CC0DCB35CC0DCB35CC0D4B08083ECD0042
:104D800000304C3DCE004D08CF004E08D000003022
:104D9000D01BFF30D100D20004304F04A4000230F9
:104DA0005004A50000305104A60000305204A700B2
:104DB0001830D3005308A800AC31C624A631132FF5
:104DC000D41DE32EE42E7B2E5508CB00CC01CB3531
:104DD000CC0DCB35CC0DCB35CC0DCB35CC0DCB356F
:104DE000CC0D4B08083ECD0000304C3DCE004D08A8
:104DF000CF004E08D0000030D01BFF30D100D200D1
:104E000004304F04A40002305004A50000305104C7
:104E1000A60000305204A7000830D3005308A800B1
:104E2000AC31C624A63108004101C600340835045F
:104E3000031D1B2F1C2F1E2F0130FF2F4608B6000D
:104E4000B701B635B70DB635B70DB635B70DB635B2
:104E5000B70DB635B70D3608083EB8000030373DFF
:104E6000B9003808BA003908BB000030BB1BFF305E
:104E7000BC00BD0000303A04A40020303B04A50073
:104E800000303C04A60000303D04A700AF318F275E
:104E9000A73141012508C3002408C2003508430298
:104EA000031D542F340842020318572F582F5A2F2E
:104EB0000030FF2F4608B600B701B635B70DB6353E
:104EC000B70DB635B70DB635B70DB635B70D3608D3
:104ED000083EB8000030373DB9003808BA0039083C
:104EE000BB000030BB1BFF30BC00BD0000303A04EB
:104EF000A40024303B04A50000303C04A600003090
:104F00003D04A700AF318F27A73141012508C50017
:104F10002408C4004408B6004508B700B801B90128
:104F20000830B635B70DB80DB90D890B912F46086D
:104F3000BA00BB01BA35BB0DBA35BB0DBA35BB0DD6
:104F4000BA35BB0DBA35BB0D3A08103EBC00003077
:104F50003B3DBD003C08BE003D08BF000030BF1B0C
:104F6000FF30C000C10036083E04A40037083F04EB
:104F7000A50038084004A60039084104A7003308FA
:104F8000A9003208A8003508AB003408AA00AD31EA
:104F9000F325A73141013408C4073508C53D46084B
:104FA000B600B701B635B70DB635B70DB635B70D86
:104FB000B635B70DB635B70D3608083EB800003027
:104FC000373DB9003808BA003908BB000030BB1BB8
:104FD000FF30BC00BD0000303A04A40024303B0484
:104FE000A50000303C04A60000303D04A7004508A1
:104FF000A9004408A800AD31A525A731013008005B
:1050000008004101A00020080319072808281328D8
:105010007E01C312400193127E01C4163813400171
:1050200012137E01391740011817991608004E0116
:105030008C1201304301B0070030B13D0030310225
:105040007A3003193002031C262827282D28B7316F
:105050000027A8314301B001B10108004101210836
:10506000A3002008A200A336A20CA336A20C22089B
:1050700046019500410120080339A2000530A23500
:10508000FF3E031D3F2822354601940008004101E0
:105090002108A4002008A30051280130A0070030F7
:1050A000A13D20088400210885001200031D592815
:1050B0005A284D2823082002A0002408213BA100E3
:1050C00008003230F0000030F100B731D427A831A9
:1050D0000530420165074401CE0000304201663DC3
:1050E0004401CF0000304201673D4401D000003050
:1050F0004201683D4401D100080032304101A00066
:105100000030A100A8312E20A831053042016507EA
:105110004401CE0000304201663D4401CF00003022
:105120004201673D4401D00000304201683D440126
:10513000D10008004001181315304101A1004B3087
:10514000A000BE30890BA228A00BA228A10BA22888
:1051500000004001181705304101A1000F30A000E8
:10516000F130890BB128A00BB128A10BB1280800A0
:105170004101AC01AD01281CBE28BF28C3282A0864
:10518000AC072B08AD3D0130AA35AB0D890BC42807
:105190000130A936A80C890BC92828082904031D49
:1051A000D228D328BB282D08A9002C08A800080065
:1051B000EB282008860021088700010843018C00A5
:1051C00001304101A0070030A13D4E010F1CE9282C
:1051D000EA28E5280F1001304101A2020030A33B6C
:1051E000220A031DF728230A031DF728F828D928C7
:1051F00008004101A7002108A5002008A4002708F5
:10520000A2002208A6002608860001308700A60A10
:105210002508A3002408A200A40A0319A50A22084D
:105220008400230885000008C03F8908031D192950
:105230001A290329080008304001650203182129B2
:1052400022293B296608203E86000230870001089B
:1052500042019A000130F00070084001E607083072
:105260006602031C342935293629E6010130F00095
:105270007008E5073D294E01191208000830400169
:1052800068020318442945295E296908283E8600DA
:1052900002308700010854019A000130F0007008C4
:1052A0004001E90708306902031C57295829592988
:1052B000E9010130F0007008E80760294E01191378
:1052C000080050011E1741012008A4002108A50074
:1052D0002208A6002308A7000830A736A60CA50CB4
:1052E000A40C890B6D29240850019B004101200862
:1052F00050019A001E140000000050011D084101D9
:10530000A10050011C084101A00008009F2970085D
:10531000860071088700010843018C004E010F1CB4
:10532000922993298E290F10700886007108870032
:1053300043010C0881000130F0070030F13D0130DD
:10534000F2020030F33B720A031DAA29730A031DFF
:10535000AA29AB2987290800043041012E04A400A2
:1053600000302F04A50000303004A60000303104C6
:10537000A7003208B3003308A800AC31C624A93115
:1053800041013108A7003008A6002F08A5002E080B
:10539000A400A801AC31C624A931003A031DD129CB
:1053A000D229C0290800EE2920088600210887009C
:1053B000010843018C004E010F1CDF29E029DB2985
:1053C0000F104101200886002108870043010C08C6
:1053D000810001304101A0070030A13D01304101B1
:1053E000A2020030A33B220A031DFA29230A031D4F
:1053F000FA29FB29D42908004101BC0040010E1BF9
:10540000022A032A112A5F080319072A082A0B2AED
:10541000B7314527A9314001DF01DF0A4101BC0155
:10542000BC0AAD310E25A93141013C080319192AE6
:105430001A2A262A05304101BB000F30BA00F1308C
:10544000890B202ABA0B202ABB0B202A0800F10066
:105450002A2A64004001680803192F2A302A292AC1
:105460004E01191B342A352A392A710854019A0031
:10547000512A19137108F00040016A08283E86007D
:1054800002308700700881000130F0007008EA07E0
:1054900008306A02031C4D2A4E2A4F2AEA010130C5
:1054A000E8024E0119170800F100572A6400400174
:1054B000650803195C2A5D2A562A4E01191A612AC9
:1054C000622A662A710842019A007E2A191271081E
:1054D000F00040016708203E860002308700700817
:1054E00081000130F0007008E70708306702031CF4
:1054F0007A2A7B2A7C2AE7010130E5024E0119163F
:10550000080040019801203099009A01043092006F
:10551000C63093007D3094007E01CE01C3010C3073
:10552000B800E501FF30C4004030B9007F30CF0043
:10553000BA01C501D001FF30BB00FF30C600FF300B
:10554000D100FF30BC00FF30C700FF30D200083070
:10555000E8000B3098001330930008004101230845
:10556000AB002208AA002108A9002008A800CE2A22
:105570002A0886002B0887000108A6002608A70035
:105580000130AA070030AB3D2808860029088700B3
:10559000270881000130A8070030A93D0130A4028E
:1055A0000030A53B240A031DD92A250A031DD92A48
:1055B000DA2AB82A08004101A000430190124101F3
:1055C00020080319E42AE52A002B0C307D01C500D0
:1055D00015307E019C004312400113127E014416D7
:1055E00016309B00C311400193117E01C4150A308F
:1055F0007D01C6007E014311400113157E01441553
:10560000403043018F009001910101308D009016D0
:1056100008000F307E019B000A307D01CB004E0157
:105620009912FF304101A0000730A100B631D22607
:10563000AB314E0119121B304101A0002930A100ED
:10564000B631DB26AB31083042019F0090309D001F
:1056500024309E0040309B0003309C004001E70155
:10566000E60108304101A20022084001E5004E0198
:105670009916080011307E01A10010307D01CD0087
:105680004E019913A6304101A0003630A100B63179
:10569000E426AB314E0119133E304101A000293000
:1056A000A100B631ED26AB31183054019F00903087
:1056B0009D0024309E0004309B000D309C00400172
:1056C000EA01E90108304101A20022084001E80096
:1056D0004E01991708004101A1006F2B64004001A1
:1056E00068080319742B752B6E2B4E01191B792B2F
:1056F0007A2B7F2B4101210854019A009A2B191310
:1057000041012108A00040016A08283E86000230BD
:1057100087004101200881000130A00020084001DD
:10572000EA0708306A02031C962B972B982BEA0194
:105730000130E8024E01191708004101A100A12B18
:105740006400400165080319A62BA72BA02B4E016E
:10575000191AAB2BAC2BB12B4101210842019A0045
:10576000CC2B191241012108A00040016708203EFE
:105770008600023087004101200881000130A0002E
:1057800020084001E70708306702031CC82BC92B1B
:10579000CA2BE7010130E5024E011916080041014C
:1057A000BC003C08B400B501B435B50DB435B50D39
:1057B000B435B50DB435B50DB435B50D3408083E66
:1057C000B6000030353DB7003608B8003708B900DC
:1057D0000030B91BFF30BA00BB0000303804A40011
:1057E00026303904A50000303A04A60000303B04FE
:1057F000A700AF318F27AB3141012508B300240842
:10580000B2000800400199127408F9007508FA0006
:105810007608FB007708FC001030FC36FB0CFA0C15
:10582000F90C890B0D2C7908FD007D08EB0074083C
:10583000F9007508FA007608FB007708FC000830CC
:10584000FC36FB0CFA0CF90C890B202C7908FD00B6
:105850007D08EC007408F9007908ED007808F9007B
:105860007908EE006B30F0000030F1000430F200F7
:105870000030F300A9318621AC31400199160800AF
:10588000400199127408A0007508A1007608A200D2
:105890007708A3001030A336A20CA10CA00C890B32
:1058A0004B2C2008A4002408EB007408A000750805
:1058B000A1007608A2007708A3000830A336A20C46
:1058C000A10CA00C890B5E2C2008A4002408EC007D
:1058D00074080438A0002008ED007908A000200812
:1058E000EE007808A0002008EF006B30F0000030D8
:1058F000F1000530F2000030F300A9318621AC310F
:105900004001991608004101A4002408A3002308BF
:10591000A5002008A3002308A6009A2C0130A102AC
:105920000030A23B0130A3002308A5070130A300EB
:105930002308A6072108220403199F2CA02CAE2CB3
:105940002608860001308700250884000130850084
:10595000000801060319AD2CAE2C8E2C2108220460
:10596000031DB32CB42CB72CA001A101C52C250814
:105970008600013087002608840001308500000879
:105980000102A000A101031CA1030800400199121B
:1059900041012408A9002508AA002608AB00270811
:1059A000AC001030AC36AB0CAA0CA90C890BD22C75
:1059B0002908AD002D084001EB0041012408A90091
:1059C0002508AA002608AB002708AC000830AC3632
:1059D000AB0CAA0CA90C890BE72C2908AD002D08EB
:1059E0004001EC0041012408A90029084001ED0014
:1059F00041012808A90029084001EE006B3041014F
:105A0000A0000030A1000430A2000030A300A931A2
:105A1000D321AC31400199166E0808004301690892
:105A20004101AB00430168084101AA004301670836
:105A30004101A900430166084101A8004C30AF00B4
:105A40009530AE007F30AD002D30AC00883109209C
:105A5000AD310130410128074301E600003041012A
:105A6000293D4301E700003041012A3D4301E800A0
:105A7000003041012B3D4301E90066084101B600B9
:105A8000430167084101B700430168084101B800BC
:105A9000430169084101B9001130B936B80CB70C9F
:105AA000B60C890B4D2D3708B5003608B400080038
:105AB0004001991241012408AC002508AD002608D8
:105AC000AE002708AF001030AF36AE0CAD0CAC0CFA
:105AD000890B642D2C08B00030084001EB00410117
:105AE0002408AC002508AD002608AE002708AF004A
:105AF0000830AF36AE0CAD0CAC0C890B792D2C08F0
:105B0000B00030084001EC0041012408AC002C0832
:105B10004001ED006B304101A0000030A1000330D6
:105B2000A2000030A300A931D321AD3141012908E1
:105B3000A1002808A0002B08A3002A08A200A93170
:105B4000D321AD314001991608004001991241015D
:105B50002408AA002508AB002608AC002708AD00E1
:105B60001030AD36AC0CAB0CAA0C890BB12D2A0849
:105B7000AE002E084001EB0041012408AA002508D0
:105B8000AB002608AC002708AD000830AD36AC0CE1
:105B9000AB0CAA0C890BC62D2A08AE002E084001BA
:105BA000EC00410124080438AA002A084001ED0055
:105BB00041012908AA002A084001EE0041012808F5
:105BC000AA002A084001EF006B304101A00000301C
:105BD000A1000530A2000030A300A931D321AD31CE
:105BE0004001991608004001991241012408AC00B7
:105BF0002508AD002608AE002708AF001030AF36EC
:105C0000AE0CAD0CAC0C890BFF2D2C08B00030088D
:105C10004001EB0041012408AC002508AD00260836
:105C2000AE002708AF000830AF36AE0CAD0CAC0CA0
:105C3000890B142E2C08B00030084001EC00410103
:105C400024080438AC002C084001ED006B30410101
:105C5000A0000030A1000330A2000030A300A93151
:105C6000D321AD3141012908A1002808A0002B084B
:105C7000A3002A08A200A831D820AD31400199160E
:105C800008004001C7003B08A6003A08A5003D08EF
:105C9000A8003C08A700470899313521AE314001E2
:105CA0002608BD002508BC003C083D04031D592EF4
:105CB0005A2E5D2EBA01BB01912E4708BE00BF01CE
:105CC000BE35BF0DBE35BF0DBE35BF0DBE35BF0DD8
:105CD000BE35BF0D3E08083EC00000303F3DC1004C
:105CE0004008C2004108C3000030C31BFF30C4009D
:105CF000C50004304204F40001304304F5000030D4
:105D00004404F60000304504F7004030C600460861
:105D1000F800AC310224AE3140013D08BB003C0824
:105D2000BA0008004101D4004808B3004708B20097
:105D30004A08B5004908B40054089A312E22AE3101
:105D400041013308CA003208C90049084A04031D4A
:105D5000AA2EAB2EAE2EC701C801E22E5408CB00EE
:105D6000CC01CB35CC0DCB35CC0DCB35CC0DCB35DB
:105D7000CC0DCB35CC0D4B08083ECD0000304C3D52
:105D8000CE004D08CF004E08D0000030D01BFF30B1
:105D9000D100D20004304F04A40001305004A5000B
:105DA00000305104A60000305204A7004030D30058
:105DB0005308A800AC31C624AE3141014A08C800DE
:105DC0004908C700080001304201E5070030E63D00
:105DD0000030E73D0030E83D400160080319F12E36
:105DE000F22E1A2FE00141016C080319F82EF92E4A
:105DF000372FF2010030A0319120AE313230F00067
:105E00000030F100B731D427AE31023042016507CE
:105E10004401CE0000304201663D4401CF00003015
:105E20004201673D4401D00000304201683D440119
:105E3000D100372F4401510842016806031D302F5D
:105E40004401500842016706031D302F44014F08EA
:105E500042016606031D302F44014E0842016506CB
:105E6000031D332F342F372FB7318027AE31080071
:105E700000304101A3000030A2000130A100163023
:105E8000A000A9316121AF3141012108A9002008FA
:105E9000A8000A30AA000030AB00A831B820AF310A
:105EA000410129084401DE00410128084401DD00C8
:105EB00000304101A3000030A2000130A1001930E0
:105EC000A000A9316121AF3141012008B4002108AF
:105ED000B500B601B7013708AB003608AA0035088F
:105EE000A9003408A8000030AF000030AE00003038
:105EF000AD006430AC0088310920AF3141012B087E
:105F00004401DC0041012A084401DB004101290869
:105F10004401DA00410128084401D9000800410188
:105F2000AF01AF0A4001991241012408A8002508D9
:105F3000A9002608AA002708AB001030AB36AA0C2F
:105F4000A90CA80C890B9E2F2808AC002C08400136
:105F5000EB0041012408A8002508A9002608AA0092
:105F60002708AB000830AB36AA0CA90CA80C890B8B
:105F7000B32F2808AC002C084001EC004101240894
:105F8000A80028084001ED006B304101A00000305E
:105F9000A1000530A2000030A300A931D321AF3108
:105FA0004001991641013108AE003008AD004001B2
:105FB0006F084101A800A90140016E084101AA0033
:105FC000AB012A08AB00AA0128082A04B00029085E
:105FD0002B04B1002F080319EE2FEF2FF12FAF0183
:105FE000922F2E083106031DF72F2D083006031DB2
:105FF000FA2FFB2F922F3108A5003008A4000800CB
:106D4C0008004B019E170800803046019600950103
:106D5C0094010800163050018C0037308D0008006B
:106D6C00640080010131890BB72E0034FE00120043
:106D7C001E00FE0BBD2E0034E33041019E009B0132
:106D8C009C0101309D00080082305301900091015C
:106D9C000630920093010800410121084301B30021
:106DAC00410120084301B2000800410121084301C0
:106DBC00B500410120084301B4000800410121083D
:106DCC004301B700410120084301B600080041010E
:106DDC0021084301B900410120084301B800080013
:106DEC00603051018D008F019101063093009001AC
:106DFC009201080043016E086F040319062F072F38
:106E0C000C2F6F088A006E080A00B73108004F017A
:106E1C00960102309700453098003B3099000130C4
:106E2C009A0006309B00080041012008FF3E4301F8
:106E3C00E600FF304101213D4301E700E801E90193
:106E4C000800AE34B0345334EF34FE34EF34FF3436
:106E5C00FF34FF340034FF34FF34FF34FF3401308F
:106E6C00450190008F0191010F308D008C014E0176
:106E7C009010FF3045018E000F308D0008008B13F1
:106E8C000B1305304101A1000F30A000F130890B2C
:106E9C004D2FA00B4D2FA10B4D2F7E019B01A1015E
:106EAC000100080001304001DA35DB0D890B5A2F47
:106EBC0000305B02413003195A02031C662F672F06
:106ECC006B2F4030DA000030DB0008004101D800A5
:106EDC000030C7000030C8005608CA005508C90069
:106EEC005808AE319226B73141014808D600470800
:106EFC00D500080041016C08031D852F862F8E2FAD
:106F0C000130F0000030F100B731D427B731942FA5
:106F1C000030F000F100B731D427B7310800103041
:106F2C007D01BB0003307E019B0002307C01A5007B
:106F3C00A601A701A801A9010230AA00AB01AC016E
:106F4C00AD018030A400080048304B019F00FF3099
:106F5C009D009C014E018C12961600304101A00040
:106F6C002830A10088310020B73180304B019E00C1
:106F7C00080041016C08031DC42FC52FCD2F013013
:106F8C00A0000030A100A8312E20B731D32F003043
:106F9C00A000A100A8312E20B73108007108F30021
:106FAC007008F200F336F20CF336F20C720846015C
:106FBC00950070080339F2000530F235FF3E031DD1
:106FCC00E32F7235940008000A307D01BD000430B7
:106FDC007E01A10082307C01AF000230B000B10113
:106FEC00B201B3010230B400B501B601B701803073
:106FFC00AE00080061346534623475347334333454
:02700C0000344E
:00000001FF
