:020000040000FA
:1008000084316D2C01342C347E1484314E01961EBB
:100810000A2C0B2C132C8C1E0E2C0F2C132CAE31EF
:10082000D72684316B2C161E162C172C1F2C0C1E51
:100830001A2C1B2C1F2CAD31CF2584316B2C0B1F98
:10084000222C232C6B2C171C262C272C2F2C0D1C18
:100850002A2C2B2C2F2CAE31172684316B2C191FF0
:10086000322C332C3E2C0F1F362C372C3E2C4001C3
:1008700058088A0057080A0084316B2C991F412CB4
:10088000422C4D2C8F1F452C462C4D2C40015608D8
:100890008A0055080A0084316B2C191E502C512CEB
:1008A0005C2C0F1E542C552C5C2C400154088A00E3
:1008B00053080A0084316B2C991E5F2C602C6B2C22
:1008C0008F1E632C642C6B2C400152088A00510847
:1008D0000A0084316B2C7E10090040018431702C99
:1008E0004101843102248431EB00843103248431BA
:1008F000EC004201883106208431EE00A3308400F0
:10090000AD308500EC308600013087000430AD3119
:10091000B3258431B9308400AD3085006230860063
:10092000023087000630AD31B32584314B3084006E
:10093000003085002130AD31AD2584315630840042
:10094000013085001630AD31AD258431A0308400F2
:10095000013085004430AD31AD2584312030840034
:10096000023085002C30AD31AD2584317E10400140
:100970008431BA2CAF31212784318731A6278431C5
:1009800005304201D5000F30D400F130890BC62C60
:10099000D40BC62CD50BC62C031040010E1E03141D
:1009A0000030031801304201EE00003040018E1982
:1009B00001304101EB00400194129A1242016E088D
:1009C0000319E32CE42CF32CA131DA21843101301A
:1009D000A1314C2184310130AE31C1268431AF3197
:1009E0003D278431252D4001181315304201D500D3
:1009F0004B30D400BE30890BFB2CD40BFB2CD50B19
:100A0000FB2C00004001181705304201D5000F30C3
:100A1000D400F130890B0A2DD40B0A2DD50B0A2DE9
:100A200041016B08031D152D162D1D2DAE316B26B2
:100A30008431AE31AB268431252DA131DA218431C8
:100A400041016B08A531602584315B304101A30071
:100A50002F30A400AE310E2684318731FD2784313A
:100A600009304201D5001E30D400E430890B362D08
:100A7000D40B362DD50B362D000000304101A300DC
:100A8000A400AE31EE26843109304201D5001E307B
:100A9000D400E430890B4A2DD40B4A2DD50B4A2DB6
:100AA000000001304101A3000030A400AE31EE2669
:100AB000843141016B0803195E2D5F2D9E2D093095
:100AC0004201D5001E30D400E430890B652DD40BD3
:100AD000652DD50B652D000007304101A3000030C6
:100AE000A400AE31EE26843109304201D5001E301B
:100AF000D400E430890B7A2DD40B7A2DD50B7A2DC6
:100B000000001F304101A3000030A400AE31EE26EA
:100B1000843109304201D5001E30D400E430890B05
:100B20008F2DD40B8F2DD50B8F2D00003F30410121
:100B3000A3000030A400AE31EE2684314401DC0174
:100B400042016E080319A52DA62D8A2E4401E0014D
:100B500000304101AA000030A9003930A80000305F
:100B6000A700AB01A331432384314201D4005408D0
:100B70004401DA0004305A060319BF2DC02DE62DBA
:100B800060080319C42DC52DCE2DE00100304101B0
:100B9000A300A400AE31EE268431D82DE001E00A96
:100BA0003F304101A3000030A400AE31EE26843175
:100BB0000B304201D5002630D4005D30890BDE2D8C
:100BC000D40BDE2DD50BDE2D0032A82D943143241D
:100BD00084314201D40054084401DC00142E440145
:100BE00060080319F42DF52DFE2DE00100304101C0
:100BF000A300A400AE31EE268431082EE001E00A05
:100C00003F304101A3000030A400AE31EE26843114
:100C100003304201D5000830D4007730890B0E2E06
:100C2000D40B0E2ED50B0E2E00304101AA00003041
:100C3000A9002E30A8000030A700AB01A331432348
:100C4000843101390319252E262EEF2D44015C082D
:100C500003192B2E2C2E812E420167084101C7005B
:100C6000420166084101C60000309031A62084315F
:100C70004401DB017B2E4401DB01DB0A552E4201DE
:100C80006708D3006608D20000309131AB2184316F
:100C90004201D400D5015508003A0319502E552EB3
:100CA0005408013A03193B2E552E440160080319DC
:100CB0005A2E5B2E642EE00100304101A300A400F7
:100CC000AE31EE2684316E2EE001E00A3F30410164
:100CD000A3000030A400AE31EE268431063042017C
:100CE000D5001330D400AD30890B742ED40B742E84
:100CF000D50B742E003244015B080319802E812E1F
:100D00003F2E00304101A3001030A400AE31052673
:100D10008431922E6E304101A3001A30A400AD310F
:100D2000D82584310E304101A3001030A400AD312C
:100D3000EA2584318B170B174001D901D90A4401E8
:100D4000DD0142016E080319A62EA72E882F44014B
:100D5000E10144015C080319AE2EAF2EB82E42010A
:100D60006708D3006608D20000309131AB2184318E
:100D700044016108031DBD2EBE2ED82EB0304101A6
:100D8000B7002230B80001309D311E25843100307B
:100D90004101AA000030A9002F30A8002C30A70084
:100DA000AB01AB0AA331432384314401E101E10AE1
:100DB0006103031DDC2EDD2EEE2E4101B701013053
:100DC0009831E2208431003A0319E72EE82EEE2E06
:100DD00002304201D40054084401E10002304401D1
:100DE0006106031DF42EF52E0F2F0130A631882643
:100DF0008431003A0319FD2EFE2E012F4401E1013A
:100E00000F2F0130A2310B22843141013508360405
:100E100003190B2F0C2F0F2F9A316E2284312C3097
:100E200041016C024201D40054084401DE005E0816
:100E300003191B2F1C2F6C2F02306106031D212F5D
:100E4000222F372F2C304101CA000230CB00440141
:100E50005E084201D400D50154084101CC00420192
:100E600055084101CD0001309B314F2384314E01A3
:100E7000991344015E0841016C024201D4005408F8
:100E80004401DF002C304201D40044015F084201DC
:100E9000540203184C2F4D2F632F2C304101A30017
:100EA0000230A40044015F084101A5000230A60001
:100EB0002C3044015F024101A700A801A71BA80331
:100EC000A1311F21843144015F084201D40054083C
:100ED0004101EC004E01991740010E1B702F712F3C
:100EE000A92E44015D080319762F772F782F010072
:100EF0004401DD01DD0A05304201D5000F30D40088
:100F0000F130890B812FD40B812FD50B812FA92E86
:100F100040010E1B8C2F8D2F972F44015D08031964
:100F2000922F932F942F01004401DD01DD0A05303B
:100F30004201D5000F30D400F130890B9D2FD40B26
:100F40009D2FD50B9D2F882F84316D2C00304101B2
:100F5000A6000030A5000130A4001630A300A03187
:100F60002E20873141012408AC002308AB000A3051
:100F7000AD000030AE00AF317A27873141012C0837
:100F80004301E90041012B084301E8000030410121
:100F9000A6000030A5000130A4001930A300A03144
:100FA0002E20873141012308B7002408B800B90179
:100FB000BA013A08AE003908AD003808AC0037086D
:100FC000AB000030B2000030B1000030B00064303F
:100FD000AF0098310020873141012E084301E7001E
:100FE00041012D084301E60041012C084301E500C1
:100FF00041012B084301E40008004B019E17080043
:101000002034203411340134080008000134400138
:1010100099127408F9007508FA007608FB00770841
:10102000FC001030FC36FB0CFA0CF90C890B122872
:101030007908FD007D08E3007408F9007508FA00DE
:101040007608FB007708FC000830FC36FB0CFA0C35
:10105000F90C890B25287908FD007D08E400740847
:10106000F9007908E5007808F9007908E6006330AE
:10107000F0000030F1000430F2000030F300A03145
:10108000532088314001991608004101EA006A089E
:10109000A2310B228831410135083604031D512845
:1010A00052285528FF308C31B42CAC30CA000130A6
:1010B000CB000830CC000030CD006A08A5310F25E8
:1010C000883141014B08E9004A08E8000030690214
:1010D00008300319680203186E286F287128003041
:1010E0005328430131084201A000A1014301300807
:1010F0004201A200A3012208A300A20120082204A9
:101100004101DD004201210823044101DE004301C9
:1011100033084201A000A101430132084201A200AC
:10112000A3012208A300A201200822044101E40037
:101130004201210823044101E500003065022C3002
:1011400003196402031CA528A6286F2843305D06F6
:101150005E040319AC28AD28AE286F28AC30CA0055
:101160000130CB002C30CC000030CD006A08A53116
:101170000F25883141014B08E9004A08E80000309A
:1011800069022C30031968020318C728C828C92827
:101190006F28023043012C060319CF28D028D1280C
:1011A0006F28FF304201A0000030A1000030A200F3
:1011B0000030A300430130084201A400430131087C
:1011C0004201A500430132084201A6004301330851
:1011D0004201A7001830A736A60CA50CA40C890B59
:1011E000EB282408A0052508A1052608A205270844
:1011F000A3050030A800FF30A9000030AA0000308D
:10120000AB00430130084201AC0043013108420108
:10121000AD00430132084201AE00430133084201F0
:10122000AF000830AF36AE0CAD0CAC0C890B1229F8
:101230002C08A8052D08A9052E08AA052F08AB051E
:101240000030B0000030B100FF30B2000030B30019
:10125000430130084201B400430131084201B500A6
:10126000430132084201B600430133084201B7008E
:101270000830B435B50DB60DB70D890B39293408D2
:10128000B0053508B1053608B2053708B30500309A
:10129000B8000030B9000030BA00FF30BB00430195
:1012A00030084201BC00430131084201BD00430146
:1012B00032084201BE00430133084201BF0018302A
:1012C000BC35BD0DBE0DBF0D890B60293C08B805AE
:1012D0003D08B9053E08BA053F08BB053808B0040B
:1012E0003908B1043A08B2043B08B3043008A80432
:1012F0003108A9043208AA043308AB0420082804E2
:101300004101E0004201210829044101E1004201BC
:1013100022082A044101E200420123082B04410172
:10132000E30040014E0841016302031DA72940016B
:101330004D0841016202031DA72940014C084101EB
:101340006102031DA72940014B0841016002031CF3
:10135000AA29AB296F28630842016102031DC02935
:101360004101620842016002031DC0294101610878
:1013700042015F02031DC0294101600842015E0273
:101380000318C329C429C5296F2841015C088600B8
:10139000023087006008C03F6108C13F6208C23F59
:1013A0006308C33F0030AA000030A9000930A8003C
:1013B0000030A700CE30AB000130AC000630AD00ED
:1013C0000030AE00A331D5238831CE304201A000D9
:1013D00020084101A3000630A4000030A500C83059
:1013E000A231BB2288314101230824040319F929C1
:1013F000FA29FB296F286830A3000130A400BC3013
:10140000A5000130A6000430A7000030A800A131DB
:101410001F218831C0304101D8000030D9006A084E
:10142000AE315726883141015808E8075908E93D8F
:10143000AC30CA000130CB000430CC000030CD000D
:101440006A08A5310F25883141014A08E8074B0891
:10145000E93D633043012C06031D2F2A302A6F28F3
:1014600082302D06031D362A8A31372A6F285330E1
:101470002E06031D3C2A3E2A88316F2863302F0632
:101480000319432A442A452A3C2A4101DF019C2CA6
:10149000AC30CA000130CB000130CC000030CD00B0
:1014A0006A08A5310F258A3141014A084B04031D02
:1014B0005A2A5B2A5C2AA72C0130E8070030E93D54
:1014C00043012C084201A00020084101E600660A01
:1014D000031D6B2A6C2A6D2AA72C6608031D712A2E
:1014E000722A732A9C2CAC30CA000130CB00013028
:1014F000CC000030CD006A08A5310F258A314101AA
:101500004A084B04031D852A862A872AA72C013006
:10151000E8070030E93D43012C084201A000200803
:101520004101E70067080319962A972ABE2AAC30C2
:10153000CA000130CB0067084201A000A1012008C9
:101540004101CC00420121084101CD006A08A531CA
:101550000F258A31410167084201A200A301410120
:101560004B0842012306031DB92A41014A084201E2
:1015700022060319BC2ABD2ABE2AA72C41016708EE
:101580004201A000A10120084101E8074201210811
:101590004101E93D7F2CDC304101A3000130A40072
:1015A000AC30A5000130A6000430A7000030A80030
:1015B000A1311F218A319C2CD8304101A300013078
:1015C000A400AC30A5000130A6000430A700003014
:1015D000A800A1311F218A319C2C43012C08420113
:1015E000A00020084101DF009C2CE0304101A30055
:1015F0000130A400AC30A5000130A6000430A700E3
:101600000030A800A1311F218A319C2CFF30A0009E
:101610000030A1000030A2000030A30043012C08DC
:101620004201A40043012D084201A50043012E08F8
:101630004201A60043012F084201A7001830A73637
:10164000A60CA50CA40C890B1F2B2408A0052508AB
:10165000A1052608A2052708A3050030A800FF3031
:10166000A9000030AA000030AB0043012C08420161
:10167000AC0043012D084201AD0043012E08420198
:10168000AE0043012F084201AF000830AF36AE0C68
:10169000AD0CAC0C890B462B2C08A8052D08A90510
:1016A0002E08AA052F08AB050030B0000030B100AD
:1016B000FF30B2000030B30043012C084201B400F7
:1016C00043012D084201B50043012E084201B60036
:1016D00043012F084201B7000830B435B50DB60DEF
:1016E000B70D890B6D2B3408B0053508B1053608E8
:1016F000B2053708B3050030B8000030B90000303B
:10170000BA00FF30BB0043012C084201BC0043017A
:101710002D084201BD0043012E084201BE004301D5
:101720002F084201BF001830BC35BD0DBE0DBF0DE6
:10173000890B942B3C08B8053D08B9053E08BA054D
:101740003F08BB053808B0043908B1043A08B204B0
:101750003B08B3043008A8043108A9043208AA04DD
:101760003308AB0420082804DA0021082904DB0030
:1017700022082A04DC0023082B04DD009C2CFF3007
:10178000A0000030A1000030A2000030A3004301FF
:101790002C084201A40043012D084201A500430189
:1017A0002E084201A60043012F084201A70018306D
:1017B000A736A60CA50CA40C890BD82B2408A005D1
:1017C0002508A1052608A2052708A3050030A800C2
:1017D000FF30A9000030AA000030AB0043012C0804
:1017E0004201AC0043012D084201AD0043012E0827
:1017F0004201AE0043012F084201AF000830AF366E
:10180000AE0CAD0CAC0C890BFF2B2C08A8052D08D9
:10181000A9052E08AA052F08AB050030B00000303E
:10182000B100FF30B2000030B30043012C08420188
:10183000B40043012D084201B50043012E084201C6
:10184000B60043012F084201B7000830B435B50D8A
:10185000B60DB70D890B262C3408B0053508B10537
:101860003608B2053708B3050030B8000030B900BB
:101870000030BA00FF30BB0043012C084201BC001D
:1018800043012D084201BD0043012E084201BE0064
:1018900043012F084201BF001830BC35BD0DBE0DFD
:1018A000BF0D890B4D2C3C08B8053D08B9053E0815
:1018B000BA053F08BB053808B0043908B1043A0836
:1018C000B2043B08B3043008A8043108A904320864
:1018D000AA043308AB04200828044401A8004201EC
:1018E000210829044401A900420122082A044401D4
:1018F000AA00420123082B044401AB009C2C66087B
:101900004201A000A1012108003A0319882C9C2C57
:101910002008013A0319CB2A023A0319DC2A363A85
:101920000319ED2A033A0319F52A0C3A0319062B79
:10193000013A0319BF2B9C2C410165086902031D64
:10194000A32C64086802031CA62CA72C482A41017A
:1019500068086402D8006908653BD9006A08AE319E
:1019600057268A3141015F0808004201D000500823
:10197000A000A101A035A10DA035A10DA035A10D9C
:10198000A035A10DA035A10D2008083EA200003011
:10199000213DA3002208A4002308A5000030A51BB8
:1019A000FF30A600A700003024044101A700243026
:1019B000420125044101A8000030420126044101F2
:1019C000A9000030420127044101AA00A6311726D0
:1019D0008C31410128084201CF0041012708420112
:1019E000CE00AC30A0002008D10000304101A3009F
:1019F000A4002C30A5000030A60042015108983107
:101A000034208C314301AC01AC0AAD01AD0A063083
:101A10004201A00020084301AE00AF01FF304201A7
:101A2000A0000030A1000030A2000030A3005E083A
:101A3000A4005F08A5006008A6006108A700183090
:101A4000A736A60CA50CA40C890B202D2408A005F4
:101A50002508A1052608A2052708A3050030A8002F
:101A6000FF30A9000030AA000030AB005E08AC00D7
:101A70005F08AD006008AE006108AF000830AF3607
:101A8000AE0CAD0CAC0C890B3F2D2C08A8052D0815
:101A9000A9052E08AA052F08AB050030B0000030BC
:101AA000B100FF30B2000030B3005E08B4005F0840
:101AB000B5006008B6006108B7000830B435B50D50
:101AC000B60DB70D890B5E2D3408B0053508B1058C
:101AD0003608B2053708B3050030B8000030B90049
:101AE0000030BA00FF30BB005E08BC005F08BD00DC
:101AF0006008BE006108BF001830BC35BD0DBE0DCA
:101B0000BF0D890B7D2D3C08B8053D08B9053E0881
:101B1000BA053F08BB053808B0043908B1043A08D3
:101B2000B2043B08B3043008A8043108A904320801
:101B3000AA043308AB04200828044301B000420182
:101B4000210829044301B100420122082A0443016B
:101B5000B200420123082B044301B30041015A089B
:101B60004201A100410159084201A0002108A00042
:101B7000A101FF302005A20000302105A300410192
:101B800059084201A500A40100302405A600FF3039
:101B90002505A700220826044301B40042012308BA
:101BA00027044301B5008030B6000030B700003094
:101BB0004101AA000030A9000930A8000030A700A8
:101BC000C830AB000130AC000630AD000030AE00D4
:101BD000A331D5238C3142014E08A0004F08A1004B
:101BE000A201A3010830A035A10DA20DA30D890B00
:101BF000F32D5008A400A501A435A50DA435A50D0D
:101C0000A435A50DA435A50DA435A50D2408103EB9
:101C1000A6000030253DA7002608A8002708A90037
:101C20000030A91BFF30AA00AB00200828044101A6
:101C3000A7004201210829044101A800420122080D
:101C40002A044101A900420123082B044101AA00F2
:101C5000420151084101AB000130AC002C30AD0015
:101C60000030AE00A43170248C312C304201CE07FC
:101C70000030CF3D00304101A300A4002030A5007A
:101C80000030A60042015108983134208C314201C5
:101C9000CC01CD0142014E08A0004F08A100A201D5
:101CA000A3010830A035A10DA20DA30D890B522E62
:101CB0005008A400A501A435A50DA435A50DA43593
:101CC000A50DA435A50DA435A50D2408103EA6002C
:101CD0000030253DA7002608A8002708A9000030ED
:101CE000A91BFF30AA00AB00200828044101A7006F
:101CF0004201210829044101A800420122082A04C6
:101D00004101A900420123082B044101AA0042011C
:101D100051084101AB000130AC002030AD00003073
:101D2000AE00A43170248C3120304201CE07003047
:101D3000CF3D0130CC070030CD3D4D08803AA000AA
:101D400080302002031DA62E06304C02031CA92E53
:101D5000AA2E4A2E63304201A000510886000130AD
:101D60008700200881008230A000510A86000130DF
:101D70008700200881005330A0005108023E8600F1
:101D800001308700200881006330A0005108033E25
:101D9000860001308700200881003530A0005108FE
:101DA000043E860001308700200881005108053E6E
:101DB0008600013087008101810A6208A000510875
:101DC000063E860001308700200881003D30A000DB
:101DD0005108073E86000130870020088100073047
:101DE000A0005108083E86000130870020088100CD
:101DF0005108093E8600013087008101810A0030C8
:101E00004101AA000030A9000930A8000030A70055
:101E1000420151080A3E4101AB000130AC000630DE
:101E2000AD000030AE00A331D5238C310C3042011F
:101E3000A0005108103E8600013087002008810074
:101E400000304101A300B030A400AF3107278C312E
:101E500041012308063E4201A0005108113E8600C0
:101E6000013087002008810000304101A300B0301C
:101E7000A40042015108123EAF31BB278C31420110
:101E800051080D3E8600013087000108A000043093
:101E9000A036890B482F0A302002031C502F512FE7
:101EA000642F51080D3E8600013087000108A00014
:101EB0000430A036890B592F2008573EC00000304F
:101EC00003180130C100762F51080D3E8600013005
:101ED00087000108A0000430A036890B6C2F200871
:101EE000303EC000003003180130C1004008A0009F
:101EF0005108183E860001308700200881005108F3
:101F00000D3E8600013087000F300105A0000A3029
:101F10002002031C8C2F8D2F9B2F51080D3E860015
:101F20000130870001080F39573EC2000030031806
:101F30000130C300A82F51080D3E860001308700F4
:101F400001080F39303EC200003003180130C300D1
:101F50004208A0005108193E860001308700200881
:101F6000810051080E3E8600013087000108A00064
:101F70000430A036890BB92F0A302002031CC12F70
:101F8000C22FD52F51080E3E860001308700010870
:101F9000A0000430A036890BCA2F2008573EC40089
:101FA000003003180130C500E72F51080E3E8600AF
:101FB000013087000108A0000430A036890BDD2F16
:101FC0002008303EC400003003180130C50044082A
:101FD000A00051081A3E86000130870020088100C9
:101FE00051080E3E8600013087000F300105A00029
:101FF0000A302002031CFE2F9531AA2D9531B82DF1
:10200000080042016C086D040319072808280D28F0
:102010006D088A006C080A0090310800F80154012C
:102020001D1D13281428212841016B0803191928A4
:102030001A281F28F2010B30A631FA269031F80138
:10204000F80A54019D1C2528262836281D121D1625
:1020500041016B0803192D282E283428F201F20AB9
:102060000B30A631FA269031F801F80A540119080C
:10207000F7007708F900780803193F2840284A2814
:102080004001DB011F30F0000030F100AE31952639
:102090009031A52841016B08031D4F28502859286D
:1020A0007908F7007708F2000130A631FA2690315E
:1020B000A52840015B03031D5E285F287728AA300E
:1020C0007906031D6428652877285A08A031C9209D
:1020D00090310230F70077084001DB007908F70003
:1020E0007708F2000130A631FA269031A528023097
:1020F0005B06031D7C287D289D2879085A06031D50
:10210000822883288C287908F7007708F2000230AB
:10211000A631FA26903194287908F7007708F20062
:102120000A30A631FA2690314001DB010030F00080
:10213000F100AE3195269031A5287908F70077088F
:10214000F2000130A631FA26903108004101D10099
:10215000FF30A3000030A4000430A5000030A6002A
:10216000683098313420903100304101A300A40040
:102170000430A5000030A600E030983134209031C2
:1021800041015108C800C901C835C90DC835C90D7C
:10219000C835C90DC835C90DC835C90D4808083E30
:1021A000CA000030493DCB004A08CC004B08CD00A6
:1021B0000030CD1BFF30CE00CF0004304C04A70010
:1021C0001F304D04A80000304E04A90000304F0419
:1021D000AA000230D0005008AB00A3314323903155
:1021E00041015108C800C901C835C90DC835C90D1C
:1021F000C835C90DC835C90DC835C90D4808083ED0
:10220000CA000030493DCB004A08CC004B08CD0045
:102210000030CD1BFF30CE00CF0004304C04A700AF
:102220001E304D04A80000304E04A90000304F04B9
:10223000AA000230D0005008AB00A33143239031F4
:1022400044304101B7000030B8006830C800480889
:10225000B9004330BA000030BB0051089231ED2282
:102260009031A3318B23903141013708C8003808E1
:10227000C9000030C91BFF30CA00CB00053048063A
:102280004201DE00E830410149064201DF000A3028
:1022900041014A064201E000003041014B06420183
:1022A000E10061084001CE00420160084001CD001C
:1022B00042015F084001CC0042015E084001CB00B2
:1022C000410147084201E500410146084201E4009E
:1022D00000304101A300A4000430A5000030A60096
:1022E0006830983134209031FF304101A300003034
:1022F000A4000430A5000030A600DC309831342062
:10230000903100304101A300A4000430A50000304A
:10231000A600D83098313420903101304201E200DB
:102320000030E30000304401AB000030AA00003070
:10233000A9000030A8002B084201DD0044012A0852
:102340004201DC00440129084201DB004401280865
:102350004201DA0008004401D40003304201630660
:102360006204031DB429B529ED29590858045704FE
:1023700056040319BC29BD29ED2952084401CC009B
:10238000420153084401CD00CE01CF01420159085A
:1023900044014F02031DDC294201580844014E024A
:1023A000031DDC294201570844014D02031DDC29AD
:1023B0004201560844014C02031CDF29E029ED29A3
:1023C00003304201E2000030E3000030D900003069
:1023D000D8000030D7000030D60042016318F12940
:1023E000F229022A640852024101D900420165081B
:1023F000533B4101DA00440154088C31B52491313A
:102400004201631461084401D8004201600844019C
:10241000D70042015F084401D60042015E08440132
:10242000D5005530CC004C084101DC004401540873
:102430008831452091314401CD004D08D900590A19
:10244000031D232A242ADD2AFF30EC2A023044010E
:102450005906031D2C2A2D2A412A58084201E10061
:10246000440157084201E000440156084201DF00E0
:10247000440155084201DE000330E2000030E30071
:10248000EB2A01304201E2000030E300EB2A053084
:1024900044015906031D4D2A4E2AD02A58084201EC
:1024A000E100440157084201E0004401560842019E
:1024B000DF00440155084201DE0000304101AA005E
:1024C0000030A9000F30A8000030A7006830AB0032
:1024D0000130AC000430AD000030AE00A4317024F7
:1024E000913100304101AA000030A9000530A80058
:1024F0000030A700DC30AB000130AC000430AD0090
:102500000030AE00A4317024913100304101AA00A6
:102510000030A9000130A8000030A700D830AB007F
:102520000130AC000430AD000030AE00A4317024A6
:10253000913142015A084401CC0042015B08440138
:10254000CD0042015C084401CE0042015D08440117
:10255000CF00420152084401D00042015308440117
:10256000D100D201D3015008CC075108CD3D52080B
:10257000CE3D5308CF3D4F084201D90044014E08DB
:102580004201D80044014D084201D70044014C08E3
:102590004201D6000030E2000330E3000130EC2AB3
:1025A00006305906031DD52AD62AD72A412A0330D8
:1025B0004201E2000030E300EB2A42016308013AE5
:1025C0000319E32AEB2A6208013A0319262A023A80
:1025D0000319472AEB2A003008004101C5004508CD
:1025E000BC00BD01BC35BD0DBC35BD0DBC35BD0D40
:1025F000BC35BD0DBC35BD0D3C08083EBE000030ED
:102600003D3DBF003E08C0003F08C1000030C11B77
:10261000FF30C200C30000304004A7000430410472
:10262000A80000304204A90000304304AA00380882
:10263000AC003708AB00A431222492314101450897
:10264000BC00BD01BC35BD0DBC35BD0DBC35BD0DDF
:10265000BC35BD0DBC35BD0D3C08083EBE0000308C
:102660003D3DBF003E08C0003F08C1000030C11B17
:10267000FF30C200C30000304004A7000C3041040A
:10268000A80000304204A90000304304AA00390821
:10269000AB000130AC000430AD000030AE00A4311E
:1026A0007024923141014508BC00BD01BC35BD0D0F
:1026B000BC35BD0DBC35BD0DBC35BD0DBC35BD0D2E
:1026C0003C08083EBE0000303D3DBF003E08C00053
:1026D0003F08C1000030C11BFF30C200C300003002
:1026E0004004A70010304104A80000304204A900B3
:1026F00000304304AA003B08AC003A08AB00A43108
:102700002224923141014508BC00BD01BC35BD0DFC
:10271000BC35BD0DBC35BD0DBC35BD0DBC35BD0DCD
:102720003C08083EBE0000303D3DBF003E08C000F2
:102730003F08C1000030C11BFF30C200C3000030A1
:102740004004B10001304104B20000304204B30043
:1027500000304304B4001030C4004408B500A03178
:102760007920923141014508BC00BD01BC35BD0D49
:10277000BC35BD0DBC35BD0DBC35BD0DBC35BD0D6D
:102780003C08083EBE0000303D3DBF003E08C00092
:102790003F08C1000030C11BFF30C200C30004303D
:1027A0004004A70000304104A80000304204A90002
:1027B00000304304AA000230C4004408AB00A33137
:1027C0004323923141014508BC00BD01BC35BD0D1C
:1027D000BC35BD0DBC35BD0DBC35BD0DBC35BD0D0D
:1027E0003C08083EBE0000303D3DBF003E08C00032
:1027F0003F08C1000030C11BFF30C200C3000030E1
:102800004004B10001304104B20000304204B30082
:1028100000304304B400B501B50AA03179209231EB
:1028200041014508BC00BD01BC35BD0DBC35BD0D29
:10283000BC35BD0DBC35BD0DBC35BD0D3C08083EDD
:10284000BE0000303D3DBF003E08C0003F08C10053
:102850000030C11BFF30C200C30000304004A7009D
:1028600003304104A80000304204A90000304304B2
:10287000AA00AB01A33143239231223A031D412C1C
:10288000422C822B08006230860002308700B8306C
:1028900084000030850006304101B40016001A00A3
:1028A000B40B4E2C0030CE000030CD000030CC00F8
:1028B0000030CB0043016F084101C10043016E08A5
:1028C0004101C00043016D084101BF0043016C0894
:1028D0004101BE0050011E179B019A014101CA012E
:1028E000CA0AD201D10150011E141C084101B400D2
:1028F0003408C8005108031D7E2C7F2C932C5001F6
:102900001D084101B4003408C900C91A882C8A2C5A
:1029100001308B2C0030B4003408CA0049081F393C
:10292000B4003408D2004808B4005108CB3E8600F9
:10293000870134088100510803199F2CA02CAE2C6C
:102940004A08031DA42CA52CAE2C4808B40051083D
:10295000023EB83E86008701340881000130B40091
:10296000340850019A0701304101B4003408D107FE
:1029700004305102031CBD2CBE2C732C4A080319D1
:10298000C22CC32CE62C013050019B0006309A006B
:102990004101CF0150011E141C084101B4004F0831
:1029A000033EB83E86008701340881000130B40040
:1029B000340850019A0701304101B4003408CF07B0
:1029C00003304F02031CE52CE62CCA2C0030AA0071
:1029D0000030A9000930A8000030A700B830AB00D3
:1029E0000030AC000630AD000030AE00A4317024E1
:1029F00094311F30410152060319FF2C002D082D80
:102A00004C084D044E044B04031D072D082D0A2DC0
:102A10000130A92D0030AA000030A9000F30A80015
:102A20000030A700CB30AB000030AC000430AD006C
:102A30000030AE00A431702494314101D00108303F
:102A400052020318242D252D4A2D52080319292D31
:102A50002A2D432D0130B4000030B5005208083C47
:102A6000890A342DB435B50D890B322D3408FF3E5B
:102A7000B600FF30353DB700FF303606C4000030E9
:102A80003706C500452DC401C5014508C3004408EB
:102A9000C2004E2DFF30C2000030C3004208B40017
:102AA0005008BE3E86008701340881005008BE3EB3
:102AB000860087010108B4005008CB3E86008701DC
:102AC00034088105083052020318672D682D6B2DDC
:102AD000C601C701722D5208F83EC600FF30031828
:102AE0000030C7004608B4003408D2000130B400FA
:102AF0003408D00704305002031C7F2D802D1F2D79
:102B00000030AA000030A9000530A8000030A7005E
:102B1000BE30AB000030AC000430AD000030AE0081
:102B2000A4317024943141014E140030AA000030C9
:102B3000A9000130A8000030A700CB30AB00003066
:102B4000AC000430AD000030AE00A43170249431EC
:102B50000030080051080E3E860001308700010851
:102B60000F39573EC600003003180130C700C52D8D
:102B700051080E3E86000130870001080F39303EB3
:102B8000C600003003180130C7004608A0005108F5
:102B90001B3E8600013087002008810051080F3E4F
:102BA0008600013087000108A0000430A036890BA0
:102BB000D62D0A302002031CDE2DDF2DF22D510808
:102BC0000F3E8600013087000108A0000430A036C7
:102BD000890BE72D2008573EC8000030031801304C
:102BE000C900042E51080F3E8600013087000108FD
:102BF000A0000430A036890BFA2D2008303EC80012
:102C0000003003180130C9004808A00051081C3EDC
:102C10008600013087002008810051080F3E8600A1
:102C2000013087000F300105A0000A302002031C8C
:102C30001A2E1B2E292E51080F3E860001308700C8
:102C400001080F39573ECA00003003180130CB008D
:102C5000362E51080F3E86000130870001080F39DB
:102C6000303ECA00003003180130CB004A08A000F3
:102C700051081D3E860001308700200881004E0863
:102C8000A0004F08A100A201A3010830A035A10DAA
:102C9000A20DA30D890B462E5008A400A501A43552
:102CA000A50DA435A50DA435A50DA435A50DA435F8
:102CB000A50D2408103EA6000030253DA7002608DB
:102CC000A8002708A9000030A91BFF30AA00AB000C
:102CD000200828044101A7004201210829044101DC
:102CE000A800420122082A044101A9004201230848
:102CF0002B044101AA00420151084101AB000130FF
:102D0000AC001E30AD000030AE00A431702495310F
:102D10001E304201CE070030CF3DFF306205A000DB
:102D200000306305A100033020062104031D992E05
:102D30009A2E2E2F3230A0005108860001308700D5
:102D4000200881000430A000510A8600013087006D
:102D5000200881005108023E4101A3000130A40077
:102D60006830A5000130A6000430A7000030A8009C
:102D7000A1311F21953136304201A0005108063E95
:102D8000860001308700200881000430A00051082F
:102D9000073E860001308700200881005108083E68
:102DA0004101A3000130A400E030A5000130A600DD
:102DB0000430A7000030A800A1311F219531420145
:102DC0004E08A0004F08A100A201A3010830A035C1
:102DD000A10DA20DA30D890BE72E5008A400A5019B
:102DE000A435A50DA435A50DA435A50DA435A50DB7
:102DF000A435A50D2408103EA6000030253DA700EF
:102E00002608A8002708A9000030A91BFF30AA0047
:102E1000AB00200828044101A70042012108290431
:102E20004101A800420122082A044101A9004201EF
:102E300023082B044101AA00420151084101AB00C3
:102E40000130AC000C30AD000030AE00A431702475
:102E500095310C304201CE070030CF3D3730A00015
:102E60005108860001308700200881000430A0004E
:102E7000510A860001308700200881005108023E77
:102E80008600013087008101810A0330A0005108CB
:102E9000033E860001308700200881003A30A00000
:102EA0005108043E860001308700200881003B3035
:102EB000A0005108053E86000130870020088100EF
:102EC000FF30A0005108063E860001308700200830
:102ED00081004E08A0004F08A100A201A301083004
:102EE000A035A10DA20DA30D890B702F5008A400D1
:102EF000A501A435A50DA435A50DA435A50DA435B2
:102F0000A50DA435A50D2408103EA6000030253DD2
:102F1000A7002608A8002708A9000030A91BFF3039
:102F2000AA00AB00200828044101A70042012108A3
:102F300029044101A800420122082A044101A900F4
:102F4000420123082B044101AA004201510841011A
:102F5000AB000130AC000730AD000030AE00A43152
:102F60007024953107304201CE070030CF3D500824
:102F7000A000A101A035A10DA035A10DA035A10D86
:102F8000A035A10DA035A10D2008083EA2000030FB
:102F9000213DA3002208A4002308A5000030A51BA2
:102FA000FF30A600A700003024044101A700243010
:102FB000420125044101A8000030420126044101DC
:102FC000A9000030420127044101AA0042014F0834
:102FD0004101AC0042014E084101AB00A431222462
:102FE0009531420151084101CA000130CB00003047
:102FF000CC00CD00420150089B314F239531080091
:1030000000304101B6000030B5000030B40000309F
:10301000B3002B1C0C280D2815282F08B3073008E7
:10302000B43D3108B53D3208B63D0130AF35B00D85
:10303000B10DB20D890B16280130AE36AD0CAC0CBB
:10304000AB0C890B1D282E082D042C042B04031D0A
:103050002A282B2809283608AE003508AD00340888
:10306000AC003308AB0008004101AB002B08A700FF
:103070002708AC0025082604031D3F2840284128C6
:10308000E1282308A7002C088600013087002708C4
:1030900081002308A70025082C07A8002808FF3E68
:1030A00086000130870027088100003026020330A7
:1030B0000319250203185D285E285F28E1282308EC
:1030C000A7002C0A8600013087002708810023080A
:1030D000A7002C08023E86000130870027088100E7
:1030E0002308A70025082C07A8002808FE3E860014
:1030F00001308700270881002308A70025082C0736
:10310000A8002808FD3E86000130870027088100BE
:103110000030260207300319250203189028912851
:103120009228E1282308A7002C08033E86000130DE
:103130008700270881002308A70025082C07A8007E
:103140002808FC3E860001308700270881000030F7
:1031500026020930031925020318AF28B028B12828
:10316000E1282C09A7002D09A800A70A0319A80A1D
:1031700003302705A90000302805AA002908A70068
:103180002708AC072908A5022A08A63BFC30A5059C
:10319000FF30A605DB282308A7002C088600013095
:1031A0008700270881000130A5020030A63B0130CE
:1031B000A7002708AC0725082604031DE028E128FE
:1031C000CB2808004101C2004F294208B800B901CC
:1031D000B835B90DB835B90DB835B90DB835B90D23
:1031E000B835B90D3808083EBA000030393DBB008B
:1031F0003A08BC003B08BD000030BD1BFF30BE00DC
:10320000BF0000303C04B10001303D04B20000308A
:103210003E04B30000303F04B4000230C000400858
:10322000B500A031792098318E2937080319192962
:103230001A294D294208B800B901B835B90DB83579
:10324000B90DB835B90DB835B90DB835B90D38085F
:10325000083EBA000030393DBB003A08BC003B08CC
:10326000BD000030BD1BFF30BE00BF0000303C047D
:10327000A7000C303D04A80000303E04A900003037
:103280003F04AA003708AB000030AC000430AD00AA
:103290000030AE00A331D523983101308F29420888
:1032A000B800B901B835B90DB835B90DB835B90D93
:1032B000B835B90DB835B90D3808083EBA00003038
:1032C000393DBB003A08BC003B08BD000030BD1BC7
:1032D000FF30BE00BF0000303C04A70003303D04B7
:1032E000A80000303E04A90000303F04AA00AB0152
:1032F000A331432398314101C000C1014108003A84
:10330000031983298E294008133A0319E528073A3F
:1033100003198E29033A031915298E290030080054
:103320004101A10142016E08031997299829AD298D
:10333000A2304001BA000030BB000130BC000030B8
:10334000BD000130A431BE24993140013A033B0451
:103350000319AB29AC29DC296D2A1D1DB029B1291F
:10336000BF2941016B080319B629B729BC29F2010D
:103370000C30A631FA2699314101A101A10A42017E
:103380009D1CC329C429D5291D121D1641016B0896
:103390000319CB29CC29D229F201F20A0C30A6312B
:1033A000FA2699314101A101A10A420119084001FF
:1033B000C80048084101A200410121080319E12980
:1033C000E229EC294001DB011F30F0000030F10060
:1033D000AE31952699316D2A6B08031DF029F1292C
:1033E0005B2A2208A031C92099316D2A5C08C800E7
:1033F0000230C836890BF92948080F39C900490835
:103400004101A000372ADC01DB01D901D90A4B2A8E
:103410003F30410122054001C8005C080339C90062
:103420000530C935FF3E031D112A49354804A03136
:10343000C92099314B2A3F30410122054001C80083
:103440005C080339C9000530C935FF3E031D242A35
:1034500049354804CA004A08DA00DB01DB0A0130BA
:10346000F0000030F100AE31952699314B2A20084A
:103470004001C800C9014908003A0319402A4B2AF3
:103480004808003A0319032A013A0319082A033AA3
:1034900003191B2A4B2A4001DC016D2A4101220835
:1034A0004001C8004808DC006D2A41012208A03113
:1034B000C92099314B2A2208C0394001C800C901EE
:1034C0004908003A0319652A552A4808803A031921
:1034D000F629403A03194E2A552A08007E1C722A02
:1034E000993190294101DC0142016E080319792AC2
:1034F0007A2A8F2ADD304101CA000030CB0001302A
:10350000CC000030CD000130A5310F259A314101AA
:103510004A034B0403198D2A8E2ABD2A4E2B1D1DEA
:10352000922A932AA12A41016B080319982A992A01
:103530009E2AA5010C30A7317C279A314101DC017C
:10354000DC0A42019D1CA52AA62AB72A1D121D16B7
:1035500041016B080319AD2AAE2AB42AA501A50AB8
:103560000C30A7317C279A314101DC01DC0A420191
:1035700019084101D8005808DD005C080319C12A68
:10358000C22ACD2A4001DB011F304101A3000030D7
:10359000A400AE31EE269A314E2B6B08031DD12AC2
:1035A000D22A3D2B5D08A1317A219A314E2B400160
:1035B0005C084101D8000230D836890BDC2A580853
:1035C0000F39D9005908DB001C2B4001DC01DB015D
:1035D000D901D90A2F2B3F305D05D80040015C0886
:1035E00003394101D9000530D935FF3E031DF42AC6
:1035F00059355804A1317A219A312F2B3F305D057E
:10360000D80040015C0803394101D9000530D935A3
:10361000FF3E031D072B59355804DA005A084001B4
:10362000DA00DB01DB0A01304101A3000030A40015
:10363000AE31EE269A312F2B5B08D800D9015908FC
:10364000003A0319242B2F2B5808003A0319E52AB6
:10365000013A0319EB2A033A0319FE2A2F2B4001E2
:10366000DC014E2B5D08D80058084001DC004E2BD1
:103670005D08A1317A219A312F2B5D08C039D8001D
:10368000D9015908003A0319462B382B5808803ABB
:103690000319D72A403A0319322B382B080041016D
:1036A000D8004C084D040319562B572B692B4B0897
:1036B000B6004A08B5004D08B8004C08B7005808D5
:1036C0009C3132249B31003A031D672B682B692BF8
:1036D000312C41015808CE00CF01CE35CF0DCE356B
:1036E000CF0DCE35CF0DCE35CF0DCE35CF0D4E080B
:1036F000083ED00000304F3DD1005008D2005108A4
:10370000D3000030D31BFF30D400D500003052046A
:10371000B10001305304B20000305404B300003053
:103720005504B4002030D6005608B500A0317920E9
:103730009B3141015808CE00CF01CE35CF0DCE359B
:10374000CF0DCE35CF0DCE35CF0DCE35CF0D4E08AA
:10375000083ED00000304F3DD1005008D200510843
:10376000D3000030D31BFF30D400D500003052040A
:10377000A70002305304A80000305404A900003010
:103780005504AA00AB01A33143239B314101D6006C
:103790005608D700571ECD2BCE2BFE2B5808CE0037
:1037A000CF01CE35CF0DCE35CF0DCE35CF0DCE35A9
:1037B000CF0DCE35CF0D4E08083ED00000304F3D26
:1037C000D1005008D2005108D3000030D31BFF3085
:1037D000D400D50004305204A70002305304A800DE
:1037E00000305404A90000305504AA001830D60057
:1037F0005608AB00A33143239B31312CD71D012C3C
:10380000022C992B5808CE00CF01CE35CF0DCE35E6
:10381000CF0DCE35CF0DCE35CF0DCE35CF0D4E08D9
:10382000083ED00000304F3DD1005008D200510872
:10383000D3000030D31BFF30D400D5000430520435
:10384000A70002305304A80000305404A90000303F
:103850005504AA000830D6005608AB00A331432314
:103860009B3108004101C90037083804031D392C79
:103870003A2C3C2C01301D2D4908B900BA01B9354C
:10388000BA0DB935BA0DB935BA0DB935BA0DB93564
:10389000BA0D3908083EBB0000303A3DBC003B0879
:1038A000BD003C08BE000030BE1BFF30BF00C000A2
:1038B00000303D04A70020303E04A80000303F0443
:1038C000A90000304004AA00A63117269C3141010E
:1038D0002808C6002708C50038084602031D722CB8
:1038E000370845020318752C762C782C00301D2DD6
:1038F0004908B900BA01B935BA0DB935BA0DB935AB
:10390000BA0DB935BA0DB935BA0D3908083EBB0044
:1039100000303A3DBC003B08BD003C08BE00003012
:10392000BE1BFF30BF00C00000303D04A7002430A4
:103930003E04A80000303F04A90000304004AA0063
:10394000A63117269C3141012808C8002708C70066
:103950004708B9004808BA00BB01BC010830B935B6
:10396000BA0DBB0DBC0D890BAF2C4908BD00BE01C3
:10397000BD35BE0DBD35BE0DBD35BE0DBD35BE0D53
:10398000BD35BE0D3D08103EBF0000303E3DC000BD
:103990003F08C1004008C2000030C21BFF30C30016
:1039A000C40039084104A7003A084204A8003B08B3
:1039B0004304A9003C084404AA003608AC003508BA
:1039C000AB003808AE003708AD00A43170249C313C
:1039D00041013708C7073808C83D4908B900BA018E
:1039E000B935BA0DB935BA0DB935BA0DB935BA0D03
:1039F000B935BA0D3908083EBB0000303A3DBC006D
:103A00003B08BD003C08BE000030BE1BFF30BF00BD
:103A1000C00000303D04A70024303E04A800003060
:103A20003F04A90000304004AA004808AC00470841
:103A3000AB00A43122249C31013008004101C200B6
:103A40004208B900BA01B935BA0DB935BA0DB93560
:103A5000BA0DB935BA0DB935BA0D3908083EBB00F3
:103A600000303A3DBC003B08BD003C08BE000030C1
:103A7000BE1BFF30BF00C00000303D04A700043073
:103A80003E04A80000303F04A90000304004AA0012
:103A90003808AC003708AB00A43122249D31410125
:103AA0004208B900BA01B935BA0DB935BA0DB93500
:103AB000BA0DB935BA0DB935BA0D3908083EBB0093
:103AC00000303A3DBC003B08BD003C08BE00003061
:103AD000BE1BFF30BF00C00000303D04B10001300C
:103AE0003E04B20000303F04B30000304004B40094
:103AF0001030C1004108B500A03179209D3141014D
:103B00004208B900BA01B935BA0DB935BA0DB9359F
:103B1000BA0DB935BA0DB935BA0D3908083EBB0032
:103B200000303A3DBC003B08BD003C08BE00003000
:103B3000BE1BFF30BF00C00004303D04A7000030B2
:103B40003E04A80000303F04A90000304004AA0051
:103B5000AB01AB0AA33143239D3141014208B900B7
:103B6000BA01B935BA0DB935BA0DB935BA0DB9358D
:103B7000BA0DB935BA0D3908083EBB0000303A3DE0
:103B8000BC003B08BD003C08BE000030BE1BFF303F
:103B9000BF00C00000303D04B10001303E04B2005F
:103BA00000303F04B30000304004B400B501B50A52
:103BB000A03179209D3141014208B900BA01B935DF
:103BC000BA0DB935BA0DB935BA0DB935BA0DB93521
:103BD000BA0D3908083EBB0000303A3DBC003B0836
:103BE000BD003C08BE000030BE1BFF30BF00C0005F
:103BF00000303D04A70003303E04A80000303F041D
:103C0000A90000304004AA00AB01A33143239D3139
:103C1000133A031D0C2E0D2E4F2D08004001B90044
:103C20003908A900AA01A935AA0DA935AA0DA935F7
:103C3000AA0DA935AA0DA935AA0D2908083EAB0081
:103C400000302A3DAC002B08AD002C08AE0000303F
:103C5000AE1BFF30AF00B00000302D04F400263062
:103C60002E04F50000302F04F60000303004F70079
:103C7000A531B3259E3175084001B6007408B50022
:103C800028083602031D462E270835020318492E40
:103C90004A2E4E2E3608A8003508A700270828040B
:103CA000031D532E542E572EA501A601062F3908A9
:103CB000A900AA01A935AA0DA935AA0DA935AA0DF1
:103CC000A935AA0DA935AA0D2908083EAB00003078
:103CD0002A3DAC002B08AD002C08AE000030AE1B16
:103CE000FF30AF00B00000302D04F40028302E0467
:103CF000F50000302F04F60000303004F700A53145
:103D0000B3259E3175084001B8007408B700250836
:103D1000260403198C2E8D2ECD2E3708A9003808C5
:103D2000AA00AB01AC010830A935AA0DAB0DAC0D52
:103D3000890B942E3908AD00AE01AD35AE0DAD3511
:103D4000AE0DAD35AE0DAD35AE0DAD35AE0D2D08AC
:103D5000183EAF0000302E3DB0002F08B1003008F3
:103D6000B2000030B21BFF30B300B40029083104A8
:103D7000F4002A083204F5002B083304F6002C085E
:103D80003404F7002608F9002508F8002808FB008D
:103D90002708FA00A231FE229E3140012708B7070A
:103DA0002808B83D3908A900AA01A935AA0DA935E6
:103DB000AA0DA935AA0DA935AA0DA935AA0D29085C
:103DC000083EAB0000302A3DAC002B08AD002C08AB
:103DD000AE000030AE1BFF30AF00B00000302D044D
:103DE000F40028302E04F50000302F04F6000030D7
:103DF0003004F7003808F9003708F800A2317822BB
:103E00009E3140012808A6002708A50008004101AE
:103E1000C9004908B900BA01B935BA0DB935BA0DAA
:103E2000B935BA0DB935BA0DB935BA0D3908083EEC
:103E3000BB0000303A3DBC003B08BD003C08BE0062
:103E40000030BE1BFF30BF00C00000303D04A700A3
:103E500026303E04A80000303F04A9000030400492
:103E6000AA00A63117269F3141012808C60027085D
:103E7000C50038084602031D3F2F370845020318C6
:103E8000422F432F472F4608B8004508B700370890
:103E90003804031D4C2F4D2F502FB501B601FF2FB5
:103EA0004908B900BA01B935BA0DB935BA0DB935F5
:103EB000BA0DB935BA0DB935BA0D3908083EBB008F
:103EC00000303A3DBC003B08BD003C08BE0000305D
:103ED000BE1BFF30BF00C00000303D04A7002830EB
:103EE0003E04A80000303F04A90000304004AA00AE
:103EF000A63117269F3141012808C8002708C700AE
:103F0000350836040319852F862FC62F4708B900B8
:103F10004808BA00BB01BC010830B935BA0DBB0D69
:103F2000BC0D890B8D2F4908BD00BE01BD35BE0DEE
:103F3000BD35BE0DBD35BE0DBD35BE0DBD35BE0D8D
:103F40003D08183EBF0000303E3DC0003F08C100A4
:103F50004008C2000030C21BFF30C300C400390853
:103F60004104A7003A084204A8003B084304A90002
:103F70003C084404AA003608AC003508AB003808F9
:103F8000AE003708AD00A331D5239F31410137087A
:103F9000C7073808C83D4908B900BA01B935BA0D94
:103FA000B935BA0DB935BA0DB935BA0DB935BA0D3D
:103FB0003908083EBB0000303A3DBC003B08BD005C
:103FC0003C08BE000030BE1BFF30BF00C000003008
:103FD0003D04A70028303E04A80000303F04A9009B
:103FE00000304004AA004808AC004708AB00A431E8
:103FF00022249F3141013808B6003708B500080077
:104000000800603051018D008F019101063093004E
:104010009001920108000830400160020318112845
:1040200012282B286108A03E860001308700010875
:1040300054019A000130F00070084001E107083097
:104040006102031C242825282628E1010130F00004
:104050007008E0072D284E011913080050011E17A3
:1040600041012308A7002408A8002508A900260864
:10407000AA000830AA36A90CA80CA70C890B3A286C
:10408000270850019B004101230850019A001E148B
:104090000000000050011D084101A40050011C084F
:1040A0004101A30008006C28700886007108870091
:1040B000010843018C004E010F1C5F2860285B281B
:1040C0000F10700886007108870043010C088100FA
:1040D0000130F0070030F13D0130F2020030F33BD7
:1040E000720A031D7728730A031D7728782854283D
:1040F0000800043041013104A70000303204A80058
:1041000000303304A90000303404AA003508B6009A
:104110003608AB00A3314323A03141013408AA0083
:104120003308A9003208A8003108A700AB01A33169
:104130004323A031003A031D9E289F288D280800A4
:10414000BB282308860024088700010843018C004F
:104150004E010F1CAC28AD28A8280F1041012308E0
:1041600086002408870043010C08810001304101CA
:10417000A3070030A43D01304101A5020030A63B59
:10418000250A031DC728260A031DC728C828A128F9
:104190000800F100400160080319CF28D028CA2880
:1041A0004E01191BD428D528D928710854019A002A
:1041B000F12819137108F00040016208A03E860042
:1041C00001308700700881000130F0007008E207BC
:1041D00008306202031CED28EE28EF28E2010130CE
:1041E000E0024E0119170800F10040015D080319B3
:1041F000FA28FB28F5284E01191AFF28002904295E
:10420000710842019A001C2919127108F00040013E
:104210005F08203E86000230870070088100013070
:10422000F0007008DF0708305F02031C1829192905
:104230001A29DF010130DD024E0119160800410183
:104240002608AE002508AD002408AC002308AB000A
:104250003F292D0886002E0887000108A90029089B
:10426000AA000130AD070030AE3D2B0886002C08B7
:1042700087002A0881000130AB070030AC3D0130D7
:10428000A7020030A83B270A031D4A29280A031D5C
:104290004A294B29292908004101A3004301901212
:1042A0004101230803195529562971290C307D0134
:1042B000C50015307E019C004312400113127E019F
:1042C000441616309B00C311400193117E01C415A2
:1042D0000A307D01C6007E014311400113157E01A5
:1042E0004415403043018F009001910101308D0051
:1042F000901608004101A4004001600803198129BB
:1043000082297C294E01191B862987298C29410184
:10431000240854019A00A729191341012408A30075
:1043200040016208A03E8600013087004101230859
:1043300081000130A30023084001E2070830620237
:10434000031CA329A429A529E2010130E0024E01A2
:10435000191708004101A40040015D080319B129A3
:10436000B229AC294E01191AB629B729BC29410135
:10437000240842019A00D729191241012408A300F8
:1043800040015F08203E860002308700410123087B
:1043900081000130A30023084001DF0708305F02DD
:1043A000031CD329D429D529DF010130DD024E01B8
:1043B0001916080011307E01A10010307D01CD00DA
:1043C0004E0199139E304101A3002D30A400AD3160
:1043D000EA25A1314E0119130B304101A300203011
:1043E000A400AD31F325A131183054019F00903065
:1043F0009D0024309E0004309B000D309C00400145
:10440000E201E10108304101A50025084001E0007A
:104410004E01991708004101BF003F08B700B801DD
:10442000B735B80DB735B80DB735B80DB735B80DC8
:10443000B735B80D3708083EB9000030383DBA002E
:104440003908BB003A08BC000030BC1BFF30BD007F
:10445000BE0000303B04A70026303C04A80000301A
:104460003D04A90000303E04AA00A6311726A2315F
:1044700041012808B6002708B5000800400198014E
:1044800099019A0104309200063093007D30940027
:104490007E01CE01C3010C30B800E501FF30C4003D
:1044A0004030B9007F30CF00BA01C501D001FF30E4
:1044B000BB00FF30C600FF30D100FF30BC00FF3032
:1044C000C700FF30D2000830E800CA10C914C81075
:1044D00000304101A3002030A400AE310526A231F6
:1044E0004E0116160B307E01980013309300080021
:1044F000400199127408A0007508A1007608A20076
:104500007708A3001030A336A20CA10CA00C890BD5
:10451000832A2008A4002408E3007408A00075087A
:10452000A1007608A2007708A3000830A336A20CE9
:10453000A10CA00C890B962A2008A4002408E400F2
:1045400074080438A0002008E5007908A0002008BD
:10455000E6007808A0002008E7006330F000003093
:10456000F1000530F2000030F300A0315320A231F9
:104570004001991608004101A7002708A600260857
:10458000A8002308A6002608A900D22A0130A40208
:104590000030A53B0130A6002608A8070130A60080
:1045A0002608A907240825040319D72AD82AE62AA9
:1045B0002908860001308700280884000130850022
:1045C000000801060319E52AE62AC62A240825045C
:1045D000031DEB2AEC2AEF2AA301A401FD2A2808D7
:1045E000860001308700290884000130850000081A
:1045F0000102A300A401031CA403080040019912B6
:104600007408A0007508A1007608A2007708A3002E
:104610001030A336A20CA10CA00C890B092B20088A
:10462000A4002408E3007408A0007508A10076081F
:10463000A2007708A3000830A336A20CA10CA00C9E
:10464000890B1C2B2008A4002408E4007408A00097
:104650002008E5006330F0000030F1000330F20084
:104660000030F300A0315320A2317908F10078081E
:10467000F0007B08F3007A08F200A0315320A23149
:104680004001991608004001991241012708AC0029
:104690002808AD002908AE002A08AF001030AF3658
:1046A000AE0CAD0CAC0C890B4F2B2C08B0003008B5
:1046B0004001E30041012708AC002808AD002908AB
:1046C000AE002A08AF000830AF36AE0CAD0CAC0C13
:1046D000890B642B2C08B00030084001E400410134
:1046E0002708AC002C084001E50041012B08AC0074
:1046F0002C084001E60063304101A3000030A40013
:104700000430A5000030A600A031A020A331400154
:1047100099166608080040016B084101AE0040018F
:104720006A084101AD00400169084101AC00400147
:1047300068084101AB004C30B2009530B1007F30C9
:10474000B0002D30AF0098310020A331013041017D
:104750002B074001E800003041012C3D4001E900F9
:10476000003041012D3D4001EA00003041012E3D65
:104770004001EB0068084101B900400169084101AE
:10478000BA0040016A084101BB0040016B084101C9
:10479000BC001130BC36BB0CBA0CB90C890BCA2B4F
:1047A0003A08B8003908B7000800400199124101E1
:1047B0002708AF002808B0002908B1002A08B20075
:1047C0001030B236B10CB00CAF0C890BE12B2F08B6
:1047D000B30033084001E30041012708AF00280877
:1047E000B0002908B1002A08B2000830B236B10C76
:1047F000B00CAF0C890BF62B2F08B3003308400127
:10480000E40041012708AF002F084001E5006330B4
:104810004101A3000030A4000330A5000030A60031
:10482000A031A020A33141012C08A4002B08A30033
:104830002E08A6002D08A500A031A020A33140011C
:10484000991608004001991241012708AD00280877
:10485000AE002908AF002A08B0001030B036AF0C07
:10486000AE0CAD0C890B2E2C2D08B1003108400187
:10487000E30041012708AD002808AE002908AF0079
:104880002A08B0000830B036AF0CAE0CAD0C890B66
:10489000432C2D08B10031084001E40041012708F4
:1048A0000438AD002D084001E50041012C08AD00A1
:1048B0002D084001E60041012B08AD002D08400104
:1048C000E70063304101A3000030A4000530A500DB
:1048D0000030A600A031A020A431400199160800A4
:1048E0004001991241012708AF002808B0002908AB
:1048F000B1002A08B2001030B236B10CB00CAF0CC7
:10490000890B7C2C2F08B30033084001E3004101E0
:104910002708AF002808B0002908B1002A08B20013
:104920000830B236B10CB00CAF0C890B912C2F08AB
:10493000B30033084001E400410127080438AF0008
:104940002F084001E50063304101A3000030A400BE
:104950000330A5000030A600A031A020A431410101
:104960002C08A4002B08A3002E08A6002D08A500E3
:10497000AF319A27A4314001991608004001C700C1
:104980003B08A6003A08A5003D08A8003C08A7007F
:1049900047089E310E26A43140012608BD00250897
:1049A000BC003C083D04031DD62CD72CDA2CBA01E0
:1049B000BB010E2D4708BE00BF01BE35BF0DBE3581
:1049C000BF0DBE35BF0DBE35BF0DBE35BF0D3E0898
:1049D000083EC00000303F3DC1004008C200410811
:1049E000C3000030C31BFF30C400C50004304204C4
:1049F000F40001304304F50000304404F6000030B8
:104A00004504F7004030C6004608F800883107200A
:104A1000A43140013D08BB003C08BA000800410138
:104A2000D7004B08B6004A08B5004D08B8004C083E
:104A3000B70057089F310727A53141013608CD003F
:104A40003508CC004C084D04031D272D282D2B2D97
:104A5000CA01CB015F2D5708CE00CF01CE35CF0D57
:104A6000CE35CF0DCE35CF0DCE35CF0DCE35CF0DCA
:104A70004E08083ED00000304F3DD1005008D20013
:104A80005108D3000030D31BFF30D400D5000430D0
:104A90005204A70001305304A80000305404A900B8
:104AA00000305504AA004030D6005608AB00A331B0
:104AB0004323A53141014D08CB004C08CA00080032
:104AC0004101AA000F307E019B000A307D01CB001E
:104AD0004E01991205304101A3000830A400AD3108
:104AE000D825A5314E011912DD304101A3002F3028
:104AF000A400AD31E125A531083042019F0090307E
:104B00009D0024309E0041012A08031D882D892D17
:104B10008E2D0430A6000030A700922D4030A60054
:104B20000030A700260842019B0041012A08031D0E
:104B30009A2D9B2DA02D0D30A8000030A900A42D8A
:104B40000330A8000030A900280842019C00400161
:104B5000DF01DE0108304101A50025084001DD002C
:104B60004E01991608004001A201A20A9912740888
:104B7000F8007508F9007608FA007708FB00103095
:104B8000FB36FA0CF90CF80C890BC02D7808FC00E8
:104B90007C08E3007408F8007508F9007608FA004C
:104BA0007708FB000830FB36FA0CF90CF80C890B7F
:104BB000D32D7808FC007C08E4007408F80078081D
:104BC000E5006330F0000030F1000530F200003005
:104BD000F300A0315320A531400199162408A1000B
:104BE0002308A0006708F800F9016608FA00FB0135
:104BF0007A08FB00FA0178087A04A30079087B049C
:104C0000A40022080319052E062E082EA201B62D97
:104C100021082406031D0E2E20082306031D112E35
:104C2000122EB62D2408F5002308F40008004101D7
:104C3000B201B20A4001991241012708AB002808CD
:104C4000AC002908AD002A08AE001030AE36AD0C1D
:104C5000AC0CAB0C890B262E2B08AF002F084001A3
:104C6000E30041012708AB002808AC002908AD008B
:104C70002A08AE000830AE36AD0CAC0CAB0C890B7C
:104C80003B2E2B08AF002F084001E400410127080C
:104C9000AB002B084001E50063304101A300003068
:104CA000A4000530A5000030A600A031A020A63148
:104CB0004001991641013408B1003308B0004001A9
:104CC00067084101AB00AC01400166084101AD003D
:104CD000AE012D08AE00AD012B082D04B3002C0849
:104CE0002E04B40032080319762E772E792EB201E5
:104CF0001A2E31083406031D7F2E30083306031D9B
:104D0000822E832E1A2E3408A8003308A70008002C
:104D10004101C100BC2E4108B700B801B735B80D3C
:104D2000B735B80DB735B80DB735B80DB735B80DBF
:104D30003708083EB9000030383DBA003908BB00DA
:104D40003A08BC000030BC1BFF30BD00BE00003084
:104D50003B04B10001303C04B20000303D04B3001C
:104D600000303E04B4001030BF003F08B500A03151
:104D70007920A6310130F92E4108B700B801B735C6
:104D8000B80DB735B80DB735B80DB735B80DB7355F
:104D9000B80D3708083EB9000030383DBA00390870
:104DA000BB003A08BC000030BC1BFF30BD00BE0099
:104DB00000303B04A70003303C04A80000303D0451
:104DC000A90000303E04AA00AB01A3314323A63161
:104DD0004101BF00C0014008003A0319F02EF82E2F
:104DE0003F08003A0319BA2E1C3A03198B2EF82EED
:104DF00000300800F60042016E080319002F012F51
:104E00004C2F4A3041016C02031C072F082F092F39
:104E10007B2F6B0803190D2F0E2F192F7603031DFF
:104E2000122F132F262F803072020318182F192FDC
:104E3000262F7208F3006C08860002308700730882
:104E400081000130F3007308EC077B2F7208F30038
:104E50000630F336890B292F7608F4000130F4353B
:104E6000FF3E031D2F2F74357304C038F5006C0806
:104E7000860002308700750881000130F300730856
:104E8000EC0772083F398038F3006C088600023066
:104E9000870073088100212F41016B080319512FEE
:104EA000522F5D2F7603031D562F572F622F803010
:104EB000720203185C2F5D2F622F7208A031F4205C
:104EC000A6317B2F7208F3000630F336890B652F6D
:104ED0007608F4000130F435FF3E031D6B2F743566
:104EE0007304C038A031F420A63172083F398038ED
:104EF000A031F420A63108004101A90042016E084A
:104F00000319832F842FCF2F4A3041016C02031CD9
:104F10008A2F8B2F8C2FFF2F6B080319902F912F27
:104F20009C2F2903031D952F962FA92F8030250232
:104F300003189B2F9C2FA92F2508A6006C0886001C
:104F400002308700260881000130A6002608EC0701
:104F5000FF2F2508A6000630A636890BAC2F29089E
:104F6000A7000130A735FF3E031DB22F27352604C9
:104F7000C038A8006C08860002308700280881002D
:104F80000130A6002608EC0725083F398038A60026
:104F90006C0886000230870026088100A42F41019A
:104FA0006B080319D42FD52FE02F2903031DD92F08
:104FB000DA2FE52F803025020318DF2FE02FE52FB1
:104FC0002508A131AA21A731FF2F2508A600063008
:104FD000A636890BE82F2908A7000130A735FF3E28
:104FE000031DEE2F27352604C038A131AA21A73191
:104FF000410125083F398038A131AA21A731080095
:105B3A0008000800BB3052018C000800FF34FF3413
:105B4A00FF34003480304601960095019401080024
:105B5A00640080010131890BAE2D0034FE00120071
:105B6A001E00FE0BB42D0034AE3480345334EF34AF
:105B7A00FE34EF34823053019000910106309200D6
:105B8A00930108004F0196019701980199019A0122
:105B9A009B0108007E01CA1CD32DD42DD72DAE310E
:105BAA002626AD310800410124084001D2004101F6
:105BBA0023084001D1000800410124084001D40013
:105BCA00410123084001D300080041012408400193
:105BDA00D600410123084001D500080041012408EC
:105BEA004001D800410123084001D70008004101C3
:105BFA0024084301EB00410123084301EA0008009D
:105C0A00410124084001ED00410123084001EC0054
:105C1A000800410124084201ED0041012308420124
:105C2A00EC0008004E010D1043016A086B040319C9
:105C3A001F2E202E252E6B088A006A080A00AE3114
:105C4A00080040016C086D0403192C2E2D2E322EEB
:105C5A006D088A006C080A00AE317E01CA1008007D
:105C6A000130450190008F0191010F308D008C01A8
:105C7A004E019010FF3045018E000F308D00080054
:105C8A00E33041019E009B019C0101309D004E01C1
:105C9A0017149D304101A3002D30A400AD31FC251D
:105CAA00AE3108004101DB000030CA000030CB00F1
:105CBA005908CD005808CC005B08A5310F25AE3134
:105CCA0041014B08D9004A08D800080010307D016C
:105CDA00BB0003307E019B0002307C01A500A601B7
:105CEA00A701A801A9010230AA00AB01AC01AD01CC
:105CFA008030A400080048304B019F00FF309D000F
:105D0A009C014E018C12961604304101A300083002
:105D1A00A400AE310E26AE3180304B019E00080041
:105D2A007108F3007008F200F336F20CF336F20C45
:105D3A0072084601950070080339F2000530F23501
:105D4A00FF3E031DA42E7235940008000A307D011F
:105D5A00BD0004307E01A10082307C01AF00023018
:105D6A00B000B101B201B3010230B400B501B6010D
:105D7A00B7018030AE0008004101A30023080319CF
:105D8A00C72EC82ED32E7E01C312400193127E0164
:105D9A00C4163813400112137E013917400118172F
:105DAA00991608004E018C1201304001CF070030CD
:105DBA00D03D003050027A3003194F02031CE62E00
:105DCA00E72EED2E90310120AE314001CF01D001F6
:105DDA00080041012408A6002308A500A636A50C40
:105DEA00A636A50C2508460195004101230803396A
:105DFA00A5000530A535FF3E031DFF2E25354601BA
:105E0A009400080041012408A7002308A600112FC6
:105E1A000130A3070030A43D23088400240885002C
:105E2A001200031D192F1A2F0D2F26082302A30073
:105E3A002708243BA4000800AD31C725AF31A231A1
:105E4A003E22AF31A0310120AF31AD319F25AF31B4
:105E5A00AE313526AF31AE318026AF31AD31BF25F7
:105E6A00AF31AE314526AF31AD31A725AF3108008C
:105E7A004001181315304101A4004B30A300BE3075
:105E8A00890B452FA30B452FA40B452F000040017A
:105E9A00181705304101A4000F30A300F130890B17
:105EAA00542FA30B542FA40B542F08000130420186
:105EBA00E6070030E73D400159080319652F662FB0
:105ECA00792FD90141016B0803196C2F6D2F792F96
:105EDA00F2010030A631FA26AF313F30F00000302F
:105EEA00F100AE319526AF3108004101AF01B00192
:105EFA002B1C802F812F852F2D08AF072E08B03D30
:105F0A000130AD35AE0D890B862F0130AC36AB0CA6
:105F1A00890B8B2F2B082C04031D942F952F7D2F73
:105F2A003008AC002F08AB000800AD2F230886000C
:105F3A0024088700010843018C0001304101A307AE
:105F4A000030A43D4E010F1CAB2FAC2FA72F0F1012
:105F5A0001304101A5020030A63B250A031DB92FD5
:105F6A00260A031DB92FBA2F9B2F08004101AA0048
:105F7A002408A8002308A7002A08A5002508A900C4
:105F8A002908860001308700A90A2808A6002708E0
:105F9A00A500A70A0319A80A25088400260885006F
:105FAA000008C03F8908031DDB2FDC2FC52F08001E
:105FBA00083040015D020318E32FE42FFD2F5E082D
:105FCA00203E860002308700010842019A00013013
:105FDA00F00070084001DE0708305E02031CF62F4D
:105FEA00F72FF82FDE010130F0007008DD07FF2FD0
:105FFA004E01191208006134653462347534733401
:04600A0033340034F7
:020000040001F9
:0A000E00EC3FFF3F9F3FFF3FFF3F25
:00000001FF
