:100800008431552CAE3401347E1484314E01961E51
:100810000A2C0B2C132C8C1E0E2C0F2C132C873116
:10082000E8278431532C0B1F162C172C532C991EA0
:100830001A2C1B2C262C8F1E1E2C1F2C262C430101
:100840003F088A003E080A008431532C191E292CC7
:100850002A2C352C0F1E2D2C2E2C352C4301410813
:100860008A0040080A008431532C991F382C392CF7
:10087000442C8F1F3C2C3D2C442C430143088A0000
:1008800042080A008431532C191F472C482C532C42
:100890000F1F4B2C4C2C532C430145088A00440855
:1008A0000A008431532C7E10090040018431582CF9
:1008B0004101983100208431EA00983101208431CF
:1008C000EB0065308400B0308500DD3086000130FB
:1008D00087000B30BF31FA27843100308400B030FC
:1008E00085005C308600023087000630BF31FA2771
:1008F00084314B308400003085002330BF31F42731
:1009000084314201E001A0308400013085003D3097
:10091000BF31F427843120308400023085003C3020
:10092000BF31F4278431A03084000230850030309C
:10093000BF31F42784317E1040019A31072A3030CC
:100940004101CA000230CB000130CC000030CD00A4
:1009500042014F08A9310D21843141014A084B045D
:10096000031DB32CB42CB52CC62F01304201CD078A
:100970000030CE3D440130084201A0002008C900EB
:10098000490A031DC42CC52CC62CC62F4908031DBB
:10099000CA2CCB2CCC2CBB2F30304101CA000230EA
:1009A000CB000130CC000030CD0042014F08A9310E
:1009B0000D21843141014A084B04031DE02CE12C38
:1009C000E22CC62F01304201CD070030CE3D44015C
:1009D00030084201A0002008CA004A080319F12C7F
:1009E000F22C1A2D30304101CA000230CB004201F6
:1009F0004A08A000A10120084101CC0042012108C1
:100A00004101CD0042014F08A9310D21843142013D
:100A10004A08A200A30141014B0842012306031D1D
:100A2000152D41014A08420122060319182D192DDE
:100A30001A2DC62F4A08A000A1012008CD072108C1
:100A4000CE3D9C2FD1304101A3000130A4003030B5
:100A5000A5000230A6000430A7000030A800B43181
:100A600029248431BB2FCD304101A3000130A400E3
:100A70003030A5000230A6000430A7000030A800E6
:100A8000B43129248431BB2FFF30A0000030A100F5
:100A90000030A2000030A300440130084201A4004D
:100AA000440131084201A500440132084201A60078
:100AB000440133084201A7001830A736A60CA50C44
:100AC000A40C890B5D2D2408A0052508A105260886
:100AD000A2052708A3050030A800FF30A9000030B8
:100AE000AA000030AB00440130084201AC004401D0
:100AF00031084201AD00440132084201AE00440118
:100B000033084201AF000830AF36AE0CAD0CAC0C70
:100B1000890B842D2C08A8052D08A9052E08AA05E7
:100B20002F08AB050030B0000030B100FF30B2003C
:100B30000030B300440130084201B40044013108E0
:100B40004201B500440132084201B60044013308B5
:100B50004201B7000830B435B50DB60DB70D890B9D
:100B6000AB2D3408B0053508B1053608B205370895
:100B7000B3050030B8000030B9000030BA00FF30D3
:100B8000BB00440130084201BC004401310842016D
:100B9000BD00440132084201BE0044013308420155
:100BA000BF001830BC35BD0DBE0DBF0D890BD22D59
:100BB0003C08B8053D08B9053E08BA053F08BB0525
:100BC0003808B0043908B1043A08B2043B08B30449
:100BD0003008A8043108A9043208AA043308AB0479
:100BE000200828044001CF004201210829044001C7
:100BF000D000420122082A044001D100420123080A
:100C00002B044001D200BB2F440130084201A00058
:100C10002008C400BB2FD5304101A3000130A4003F
:100C20003030A5000230A6000430A7000030A80034
:100C3000B43129248431BB2FFF30A0000030A10043
:100C40000030A2000030A300440130084201A4009B
:100C5000440131084201A500440132084201A600C6
:100C6000440133084201A7001830A736A60CA50C92
:100C7000A40C890B352E2408A0052508A1052608FB
:100C8000A2052708A3050030A800FF30A900003006
:100C9000AA000030AB00440130084201AC0044011E
:100CA00031084201AD00440132084201AE00440166
:100CB00033084201AF000830AF36AE0CAD0CAC0CBF
:100CC000890B5C2E2C08A8052D08A9052E08AA055D
:100CD0002F08AB050030B0000030B100FF30B2008B
:100CE0000030B300440130084201B400440131082F
:100CF0004201B500440132084201B6004401330804
:100D00004201B7000830B435B50DB60DB70D890BEB
:100D1000832E3408B0053508B1053608B20537080A
:100D2000B3050030B8000030B9000030BA00FF3021
:100D3000BB00440130084201BC00440131084201BB
:100D4000BD00440132084201BE00440133084201A3
:100D5000BF001830BC35BD0DBE0DBF0D890BAA2ECE
:100D60003C08B8053D08B9053E08BA053F08BB0573
:100D70003808B0043908B1043A08B2043B08B30497
:100D80003008A8043108A9043208AA043308AB04C7
:100D9000200828044001CB00420121082904400119
:100DA000CC00420122082A044001CD004201230860
:100DB0002B044001CE00BB2FFF30A0000030A1006B
:100DC0000030A2000030A300440130084201A4001A
:100DD000440131084201A500440132084201A60045
:100DE000440133084201A7001830A736A60CA50C11
:100DF000A40C890BF52E2408A0052508A1052608BA
:100E0000A2052708A3050030A800FF30A900003084
:100E1000AA000030AB00440130084201AC0044019C
:100E200031084201AD00440132084201AE004401E4
:100E300033084201AF000830AF36AE0CAD0CAC0C3D
:100E4000890B1C2F2C08A8052D08A9052E08AA051A
:100E50002F08AB050030B0000030B100FF30B20009
:100E60000030B300440130084201B40044013108AD
:100E70004201B500440132084201B6004401330882
:100E80004201B7000830B435B50DB60DB70D890B6A
:100E9000432F3408B0053508B1053608B2053708C8
:100EA000B3050030B8000030B9000030BA00FF30A0
:100EB000BB00440130084201BC004401310842013A
:100EC000BD00440132084201BE0044013308420122
:100ED000BF001830BC35BD0DBE0DBF0D890B6A2F8C
:100EE0003C08B8053D08B9053E08BA053F08BB05F2
:100EF0003808B0043908B1043A08B2043B08B30416
:100F00003008A8043108A9043208AA043308AB0445
:100F1000200828044301A8004201210829044301B4
:100F2000A900420122082A044301AA004201230821
:100F30002B044301AB00BB2F4908A000A1012108ED
:100F4000003A0319A42FBB2F2008013A0319222DC0
:100F5000023A0319332D303A0319442D063A031986
:100F6000042E033A03190B2E0C3A03191C2E013AD6
:100F70000319DC2EBB2F42014C084E02031DC22F69
:100F80004B084D02031CC52FC62F9F2C42014D0854
:100F90004B024101D80042014E084C3B4101D900AF
:100FA00042014F08B031EE208431FF3040015B0533
:100FB0004201A000003040015C054201A100033065
:100FC00020062104031DE62FA0313528A13109296F
:100FD0004E018C1201304301BA070030BB3D003096
:100FE0003B027A3003193A02031CF72FF82FFE2F29
:100FF000B031702087314301BA01BB0108000800FD
:101000000800BB3052018C000800F90154011D1D7D
:101010000A280B28162841016A08031910281128EC
:101020001628F2010B30AB31BB23883154019D1CD3
:101030001A281B282B281D121D1641016A080319A6
:10104000222823282928F201F20A0B30AB31BB23D6
:101050008831F901F90A54011908F7007708FA00F4
:1010600079080319342835283928B131E421883129
:101070004C2941016A08031D3E283F2848287A0868
:10108000F7007708F2000130AB31BB2388314C29DF
:1010900040016103031D4D284E281E29AA307A06FF
:1010A000031D532854281E29D3280330F7009830F5
:1010B000890B5828F70B58280B290630F7003030D9
:1010C000890B6028F70B602800320B290830F700E5
:1010D000CA30890B6928F70B69280B290B30F700F8
:1010E0006230890B7128F70B712800320B290D3003
:1010F000F700FC30890B7A28F70B7A280B2910307F
:10110000F7009430890B8228F70B822800320B29D4
:101110001330F7002D30890B8B28F70B8B2800003C
:101120000B291530F700C630890B9428F70B94284B
:1011300000320B291830F7005F30890B9D28F70B20
:101140009D2800000B291A30F700F830890BA628DB
:10115000F70BA62800320B291D30F7009130890BC0
:10116000AF28F70BAF2800000B292030F7002A30FA
:10117000890BB828F70BB8280B292230F700C330A9
:10118000890BC028F70BC02800000B292530F70079
:101190005C30890BC928F70BC9280B29A030003215
:1011A000890BCF280B2943016708F700F80178085D
:1011B000003A0319DC28CE287708003A03190B29D6
:1011C000013A03195528033A03195D28013A031916
:1011D0006628073A03196E28013A03197728033A5B
:1011E00003197F28013A031988280F3A0319912817
:1011F000013A03199A28033A0319A328013A03195B
:10120000AC28073A0319B528013A0319BD28033A57
:101210000319C628CE2840016008B331A2238831C3
:101220000230F70077084001E1007A08F7007708FC
:10123000F2000130AB31BB2388314C29023061060A
:10124000031D2329242944297A086006031D29291E
:101250002A2933297A08F7007708F2000230AB31E7
:10126000BB2388313B297A08F7007708F2000A305F
:10127000AB31BB2388314001E1010030F000F100C7
:10128000B131562188314C297A08F7007708F200ED
:101290000130AB31BB238831080058080F3E86006F
:1012A000023087000108A0000430A036890B5529C0
:1012B0002008573EC900003003180130CA007229C7
:1012C00058080F3E8600023087000108A000043055
:1012D000A036890B68292008303EC9000030031869
:1012E0000130CA004908A00057085807A10021088A
:1012F000860002308700200881000130A00020080D
:10130000D70758080F3E8600023087000F300105CE
:10131000A0000A302002031C8E298F299D2958081D
:101320000F3E86000230870001080F39573ECB0080
:10133000003003180130CC00AA2958080F3E86005F
:101340000230870001080F39303ECB00003003180F
:101350000130CC004B08A00057085807A100210815
:10136000860002308700200881000130A00020089C
:10137000D7075408A0005508A100A201A301083016
:10138000A035A10DA20DA30D890BC0295608A400FC
:10139000A501A435A50DA435A50DA435A50DA4352D
:1013A000A50DA435A50D2408103EA6000030253D4E
:1013B000A7002608A8002708A9000030A91BFF30B5
:1013C000AA00AB00200828044101A700420121081F
:1013D00029044101A800420122082A044101A90070
:1013E000420123082B044101AA004201580841018F
:1013F000AB000230AC0042015708AC00AD012C0834
:101400004101AD0042012D084101AE00A8316E201E
:10141000893142015708A000A1012008D407210802
:10142000D53D4008031D152A162AE82AFF30400141
:101430005B054201A000003040015C054201A100B3
:10144000033020062104031D262A272AE82AD70173
:101450003230A00057085807A1002108860002304A
:101460008700200881000130A0002008D707043041
:10147000A00057085807A100210886000230870005
:10148000200881000130A0002008D707580857071E
:101490004101A3000230A400D930A5000130A6000C
:1014A0000430A7000030A800B43129248931043069
:1014B0004201A0002008D7073630A000570858077F
:1014C000A100210886000230870020088100013039
:1014D000A0002008D7070430A00057085807A10033
:1014E0002108860002308700200881000130A0001A
:1014F0002008D707580857074101A3000230A4006D
:10150000D530A5000130A6000430A7000030A800A7
:10151000B4312924893104304201A0002008D707C2
:101520005408A0005508A100A201A3010830A0356D
:10153000A10DA20DA30D890B972A5608A400A501A1
:10154000A435A50DA435A50DA435A50DA435A50D6F
:10155000A435A50D2408103EA6000030253DA700A7
:101560002608A8002708A9000030A91BFF30AA0000
:10157000AB00200828044101A700420121082904EA
:101580004101A800420122082A044101A9004201A8
:1015900023082B044101AA00420158084101AB0075
:1015A0000230AC0042015708AC00AD012C084101EB
:1015B000AD0042012D084101AE00A8316E208931F5
:1015C00042015708A000A1012008D4072108D53DF9
:1015D000D7013730A00057085807A100210886001E
:1015E00002308700200881000130A0002008D707C2
:1015F00040015D08031DFD2AFE2A042B0230420132
:10160000CD000030CE00092B04304201CD00003067
:10161000CE004D08A00057085807A10021088600F9
:1016200002308700200881000130A0002008D70781
:1016300057085807A0002008860002308700810163
:10164000810A0130A0002008D7070330A000570806
:101650005807A10021088600023087002008810079
:101660000130A0002008D70740015D080319392B7D
:101670003A2B592B3A304201A00057085807A100D5
:101680002108860002308700200881000130A00078
:101690002008D7073B30A00057085807A1002108B1
:1016A000860002308700200881000130A000200859
:1016B000D707FF304201A00057085807A1002108B2
:1016C000860002308700200881000130A000200839
:1016D000D7075408A0005508A100A201A3010830B3
:1016E000A035A10DA20DA30D890B702B5608A400E7
:1016F000A501A435A50DA435A50DA435A50DA435CA
:10170000A50DA435A50D2408103EA6000030253DEA
:10171000A7002608A8002708A9000030A91BFF3051
:10172000AA00AB00200828044101A70042012108BB
:1017300029044101A800420122082A044101A9000C
:10174000420123082B044101AA004201580841012B
:10175000AB000230AC0042015708AC00AD012C08D0
:101760004101AD0042012D084101AE00A8316E20BB
:10177000893142015708A000A1012008D40721089F
:10178000D53D5608A000A101A035A10DA035A10DA1
:10179000A035A10DA035A10DA035A10D2008083E52
:1017A000A2000030213DA3002208A4002308A500C8
:1017B0000030A51BFF30A600A70000302404410123
:1017C000A7002430420125044101A8000030420155
:1017D00026044101A9000030420127044101AA006A
:1017E000420155084101AC00420154084101AB00DF
:1017F000A83120208931420153080319002C012C03
:10180000242C3C304101A3000230A4000030A5008C
:10181000A6000430A7000030A800AF313527893179
:1018200000304101AA000030A9000F30A8000030AC
:10183000A7003C30AB000230AC000430AD000030FB
:10184000AE00A8316E20893142015808A00020085E
:101850004101C9000030CA00CB0042015608A13145
:101860000C218931420153080319372C382C4C2C98
:1018700000304101AA000030A9000F30A80000305C
:10188000A700D930AB000130AC000430AD0000300F
:10189000AE00A8316E20893108004501E501153000
:1018A0006502031C542C552C562C8D2C0330420100
:1018B000DE000830DD007730890B5C2CDD0B5C2C02
:1018C000DE0B5C2C450165084201DD00DE015D0890
:1018D0004101A30042015E084101A400B131B121E0
:1018E0008C3101304201DD005D084501E5074F2CD8
:1018F00009304201DE001E30DD00E430890B7E2C11
:10190000DD0B7E2CDE0B7E2C000001304101A3009C
:101910000030A400B131B1218C314501E601420112
:1019200060080319942C952C1F2E4501E801003006
:101930004101AA000030A9003930A8000030A700FA
:10194000AB01B73121278C314201DD005D08450133
:10195000D500043055060319AE2CAF2CD92C6808DD
:101960000319B32CB42CBD2CE80100304101A300B5
:10197000A400B131B1218C31C72CE801E80A143040
:101980004101A3000030A400B131B1218C310B30F2
:101990004201DE002630DD005D30890BCD2CDD0BF1
:1019A000CD2CDE0BCD2C003200309831CE208C3186
:1019B000972C9C3194248C314201DD005D08450157
:1019C000E60000304101AA000030A9001930A8004B
:1019D0000030A7000430AB000030AC00A83120205C
:1019E0008C311B2D450168080319F72CF82C012DAB
:1019F000E80100304101A300A400B131B1218C31D4
:101A00000B2DE801E80A14304101A3000030A400C6
:101A1000B131B1218C3103304201DE000830DD00EC
:101A20007730890B112DDD0B112DDE0B112D0030C0
:101A30009831CE208C3100304101AA000030A9003D
:101A40002E30A8000030A700AB01B73121278C3120
:101A5000013903192C2D2D2DF22C40015A0841017A
:101A6000C900400159084101C8004001580841011E
:101A7000C700400157084101C60045016608420100
:101A8000DD005D084101CA0000309B3143238C31E9
:101A90004501660803194D2D4E2D1B2E40015A0895
:101AA0004501D300400159084501D20040015808C2
:101AB0004501D100400157084501D000E201E20A8A
:101AC000D801152E530840015A06031D772D4501F4
:101AD000520840015906031D772D45015108400168
:101AE0005806031D772D4501500840015706031D78
:101AF0007A2D7B2DB12D45016208031D802D812D8E
:101B0000B12D40015A084101C90040015908410165
:101B1000C800400158084101C70040015708410171
:101B2000C600CA01CA0A00309B3143238C31B12D53
:101B30004501D801D80AD52D02304001570745018B
:101B4000D00000304001583D4501D1000030400137
:101B5000593D4501D200003040015A3D4501D300B6
:101B6000D52D40015A084201DC00400159084201CC
:101B7000DB00400158084201DA00400157084201E9
:101B8000D900003093317D238C314201DD00DE012C
:101B90005E08003A0319CD2DD52D5D08013A0319D1
:101BA000982D033A03199C2DD52D4501680803197A
:101BB000DA2DDB2DE42DE80100304101A300A40063
:101BC000B131B1218C31EE2DE801E80A1430410128
:101BD000A3000030A400B131B1218C3106304201A4
:101BE000DE001330DD00AD30890BF42DDD0BF42D5C
:101BF000DE0BF42D003201304201DD005D084501AD
:101C0000E20708306202031C062E072E112EE201A5
:101C100001304001D7070030D83D0030D93D0030B9
:101C2000DA3D00309831CE208C3145015808031937
:101C30001A2E1B2E622DB13141218C31272ED63028
:101C40004101A3002530A400B03125208C3105309E
:101C50004101A3000830A400B03140208C318B1723
:101C60000B174001DF01DF0A420160080319392E1A
:101C70003A2EEC2F4501E9010030DD000030DC0098
:101C80000030DB000030DA000030E1000030E0001E
:101C90000030DF000030DE004501610860045F04B1
:101CA0005E040319542E552E7D2E610840015A0200
:101CB000031D6A2E4501600840015902031D6A2E6A
:101CC00045015F0840015802031D6A2E45015E0868
:101CD00040015702031C6D2E6E2E7D2E00304501F3
:101CE000E1000030E0000030DF000030DE000130B5
:101CF000B5314A258C314501E90145015D085C0497
:101D00005B045A040319852E862ECF2E5D084001F0
:101D10005A02031D9B2E45015C0840015902031D18
:101D20009B2E45015B0840015802031D9B2E450177
:101D30005A0840015702031C9E2E9F2EFC2E003095
:101D40004501DD000030DC000030DB000030DA004F
:101D500069080319AC2EAD2EB32E0130B5314A25DA
:101D60008C314501E90140015A084101C900400197
:101D700059084101C800400158084101C70040010D
:101D800057084101C600450166084201DD005D08B3
:101D90004101CA0000309B3143238C31FC2E4001AD
:101DA0005A084201DC00400159084201DB004001B1
:101DB00058084201DA00400157084201D9000030BA
:101DC00093317D238C31023A031DE72EE82EFC2E41
:101DD0000230400157074501DA0000304001583D0C
:101DE0004501DB0000304001593D4501DC00003079
:101DF00040015A3D4501DD0045016908031D012FE1
:101E0000022F1C2F0F304101B7002730B8000130DE
:101E1000A631E0268C3100304101AA000030A90033
:101E20002F30A8002C30A700AB01AB0AB731212717
:101E30008C314501E901E90A6903031D202F212F97
:101E4000322F4101B7010130AE3187268C31003A83
:101E500003192B2F2C2F322F02304201DD005D0899
:101E60004501E9000230450169060319382F392F71
:101E70003F2F03306906031D3E2F3F2F4B2F0130AC
:101E8000AB3149238C31003A0319472F482F4B2F90
:101E90004501E901892F023045016906031D512FD3
:101EA000522F892F0130B531E1258C31003A0319C9
:101EB0005A2F5B2F7A2F0130B5317C258C310330BE
:101EC0004201DD005D084501E9000130400157078E
:101ED0004501DE0000304001583D4501DF00003083
:101EE0004001593D4501E000003040015A3D4501A7
:101EF000E100892F0130B531AE258C314101350823
:101F000036040319842F852F892FA531D6258C31CE
:101F1000892FB03041016B024201DD005D084501AF
:101F2000E30063080319952F962FE72F0230690607
:101F3000031D9B2F9C2FB22FB0304201DD005D08A6
:101F40004101C900450163084201DE00DF015E086E
:101F50004101CA0042015F084101CB000130A131BB
:101F60000C218C314E0199134501630841016B022C
:101F70004201DD005D084501E700B0304201DD00AF
:101F80004501670842015D020318C72FC82FDE2FE5
:101F9000B0304101A3000230A400450167084101AF
:101FA000A5000230A600B030450167024101A7003C
:101FB000A801A71BA803B43129248C314501670867
:101FC0004201DD005D084101EB004E019917003030
:101FD0009831CE208C314C2E41016A080319F12F23
:101FE000F22FF92F1D30A3003230A400B03137207A
:101FF0008C3101309831CE208C31F92F8431552C21
:1020000008004B019E1708004101C5004508BC00AF
:10201000BD01BC35BD0DBC35BD0DBC35BD0DBC35E0
:10202000BD0DBC35BD0D3C08083EBE0000303D3D39
:10203000BF003E08C0003F08C1000030C11BFF3098
:10204000C200C30000304004A70004304104A800CF
:1020500000304204A90000304304AA003808AC0054
:102060003708AB00A8312020903141014508BC0061
:10207000BD01BC35BD0DBC35BD0DBC35BD0DBC3580
:10208000BD0DBC35BD0D3C08083EBE0000303D3DD9
:10209000BF003E08C0003F08C1000030C11BFF3038
:1020A000C200C30000304004A7000C304104A80067
:1020B00000304204A90000304304AA003908AB00F4
:1020C0000130AC000430AD000030AE00A8316E200D
:1020D000903141014508BC00BD01BC35BD0DBC358A
:1020E000BD0DBC35BD0DBC35BD0DBC35BD0D3C08B1
:1020F000083EBE0000303D3DBF003E08C0003F0826
:10210000C1000030C11BFF30C200C30000304004DA
:10211000A70010304104A80000304204A90000309C
:102120004304AA003B08AC003A08AB00A8312020C9
:10213000903141014508BC00BD01BC35BD0DBC3529
:10214000BD0DBC35BD0DBC35BD0DBC35BD0D3C0850
:10215000083EBE0000303D3DBF003E08C0003F08C5
:10216000C1000030C11BFF30C200C300003040047A
:10217000B10001304104B20000304204B30000302D
:102180004304B4001030C4004408B500B33129231F
:10219000903141014508BC00BD01BC35BD0DBC35C9
:1021A000BD0DBC35BD0DBC35BD0DBC35BD0D3C08F0
:1021B000083EBE0000303D3DBF003E08C0003F0865
:1021C000C1000030C11BFF30C200C3000430400416
:1021D000A70000304104A80000304204A9000030EC
:1021E0004304AA000230C4004408AB00B7312127E1
:1021F000903141014508BC00BD01BC35BD0DBC3569
:10220000BD0DBC35BD0DBC35BD0DBC35BD0D3C088F
:10221000083EBE0000303D3DBF003E08C0003F0804
:10222000C1000030C11BFF30C200C30000304004B9
:10223000B10001304104B20000304204B30000306C
:102240004304B400B501B50AB331292390314101EB
:102250004508BC00BD01BC35BD0DBC35BD0DBC3550
:10226000BD0DBC35BD0DBC35BD0D3C08083EBE00E6
:1022700000303D3DBF003E08C0003F08C1000030B7
:10228000C11BFF30C200C30000304004A700033070
:102290004104A80000304204A90000304304AA0011
:1022A000AB01B73121279031223A031D5829592912
:1022B000992808004201D6005608A000A101A035C7
:1022C000A10DA035A10DA035A10DA035A10DA03502
:1022D000A10D2008083EA2000030213DA3002208E5
:1022E000A4002308A5000030A51BFF30A600A7000E
:1022F000003024044101A70024304201250441019B
:10230000A8000030420126044101A900003042012A
:1023100027044101AA00AA31D8229131410128089D
:102320004201D500410127084201D4003030A0000D
:102330002008D80058084101A3000230A400003052
:10234000A500A6002C30A7000030A800AF3135272B
:1023500091314401B001B00AB101B10A0630420125
:10236000A00020084401B200B301FF304201A000E8
:102370000030A1000030A2000030A300400153084B
:102380004201A400400154084201A5004001550843
:102390004201A600400156084201A7001830A736A6
:1023A000A60CA50CA40C890BCF292408A005250890
:1023B000A1052608A2052708A3050030A800FF30C4
:1023C000A9000030AA000030AB00400153084201D0
:1023D000AC00400154084201AD00400155084201E3
:1023E000AE00400156084201AF000830AF36AE0CD7
:1023F000AD0CAC0C890BF6292C08A8052D08A905F5
:102400002E08AA052F08AB050030B0000030B1003F
:10241000FF30B2000030B300400153084201B40065
:10242000400154084201B500400155084201B60080
:10243000400156084201B7000830B435B50DB60D5D
:10244000B70D890B1D2A3408B0053508B1053608CB
:10245000B2053708B3050030B8000030B9000030CD
:10246000BA00FF30BB00400153084201BC004001EC
:1024700054084201BD00400155084201BE00400120
:1024800056084201BF001830BC35BD0DBE0DBF0D52
:10249000890B442A3C08B8053D08B9053E08BA0531
:1024A0003F08BB053808B0043908B1043A08B20443
:1024B0003B08B3043008A8043108A9043208AA0470
:1024C0003308AB04200828044401B4004201210869
:1024D00029044401B500420122082A044401B6003F
:1024E000420123082B044401B7004201CF014301FC
:1024F000230822042104200403197F2A802A932A16
:1025000040014E08031D8F2A4D08031D8F2A4C08D9
:10251000031D8F2A3C304B0203188F2A902A932ADE
:102520004201CF01CF0A42014F08031D982A9A2A7F
:1025300001309B2A0030A0002008C000D001D00A42
:10254000430123082204210420040319A82AA92AEC
:10255000B82A2B08031DB82A2A08031DB82A2908FF
:10256000031DB82A3C302802031CB72AB82AC92AFE
:10257000FF3040015B054201A000003040015C05D6
:102580004201A100200321040319C72AC82AC92A2D
:10259000D00142015008031DCE2AD02A0130D12A91
:1025A0000030A0002008D30040015D080319D92A9B
:1025B000DA2ADE2ADC1CDD2ADE2AF42A3C3041013C
:1025C000A3000230A400D930A5000130A6000430D9
:1025D000A7000030A800B4312924913142015308EA
:1025E0000319F32AF42AF92A80304401BA00003092
:1025F000BB0000304101AA000030A9000930A8004A
:102600000030A7004C30AB000230AC000630AD000B
:102610000030AE00B731B327913142015408A00019
:102620005508A100A201A3010830A035A10DA20DFB
:10263000A30D890B152B5608A400A501A435A50DE3
:10264000A435A50DA435A50DA435A50DA435A50D5E
:102650002408103EA6000030253DA7002608A8004B
:102660002708A9000030A91BFF30AA00AB002008F2
:1026700028044101A7004201210829044101A800C2
:10268000420122082A044101A900420123082B0427
:102690004101AA00420158084101AB000230AC00E0
:1026A0002C30AD000030AE00A8316E2091312C30BE
:1026B0004201D4070030D53D58084101A300023043
:1026C000A4000030A500A6002030A7000030A8001C
:1026D000AF31352791314201D101D2015208803A00
:1026E000A00080302002031D772B06305102031C0E
:1026F0007B2B9531A92D9531AA2D4101E4000030A5
:10270000AA000030A9002E30A8000030A700AB01BD
:10271000B731212793310139031D8F2B902B922B39
:102720000230A82D43012708260425042404031998
:102730009A2B9B2B372C270842015C02031DB02BE0
:102740004301260842015B02031DB02B430125080B
:1027500042015A02031DB02B4301240842015902D1
:10276000031CB32BB42B372C40015D080319B92B84
:10277000BA2B322C003043013502403003193402A9
:10278000031CC32BC42B322C023040015B06031DFB
:10279000CD2B5C03031DCD2BCE2BD92B0030430159
:1027A000A7000030A6000030A5000030A4000230D1
:1027B000A82D03305B06033003195C060319E12BD7
:1027C000E22BE32BCE2B5208031DF12B5108031DE6
:1027D000F12B5008031DF12B3C304F020318F12B55
:1027E000F22BF32BCE2B01304001CE36CD0CCC0C8E
:1027F000CB0C890BF42B01304301AB36AA0CA90C8E
:10280000A80C890BFC2B01304001D236D10CD00C26
:10281000CF0C890B042C4201590840014B074101A0
:10282000DC0042015A0840014C3D4101DD004201FB
:102830005B0840014D3D4101DE0042015C08400162
:102840004E3D4101DF005F084301A30041015E08E6
:102850004301A20041015D084301A10041015C0860
:102860004301A000FF304001DB05FE30DC054001E4
:102870005C183B2C3C2C772C4101640891315A2187
:10288000933140015C14420159084101DC004201CE
:102890005A084101DD0042015B084101DE004201AE
:1028A0005C084101DF00430134084101E0004301BD
:1028B00035084101E100E201E3016008DC0761083D
:1028C000DD3D6208DE3D6308DF3D5F084301A70090
:1028D00041015E084301A60041015D084301A500D6
:1028E00041015C084301A400B031DA20933140017A
:1028F00056084101E800400155084101E700400148
:1029000054084101E600400153084101E500E5306B
:10291000DC005C08DB0064089D31FB25933141013C
:10292000DD005D08E900690A031D972C982C8E2DA7
:10293000FF30A82D023041016906031DA02CA12CF7
:10294000B52C68084001D600410167084001D50058
:10295000410166084001D400410165084001D300EF
:102960000330DB000030DC00A72D01304001DB002C
:102970000030DC00A72D053041016906031DC12C84
:10298000C22C562D68084001D6004101670840015D
:10299000D500410166084001D400410165084001AD
:1029A000D30000304101AA000030A9000F30A80078
:1029B0000030A700D930AB000130AC000430AD00CE
:1029C0000030AE00A8316E20933100304101AA00E2
:1029D0000030A9000530A8000030A700D130AB00BE
:1029E0000130AC000430AD000030AE00A8316E20E4
:1029F000933100304101AA000030A9000130A80045
:102A00000030A700CD30AB000130AC000430AD0089
:102A10000030AE00A8316E20933142015C084301C2
:102A2000A70042015B084301A60042015A08430186
:102A3000A500420159084301A40040014E08031DAE
:102A40002C2D4D08031D2C2D4C08031D2C2D3C3026
:102A50004B0203182C2D2D2D372D3C304301A4079C
:102A60000030A53D0030A63D0030A73D472D400178
:102A70004B084301A40740014C084301A53D400118
:102A80004D084301A63D40014E084301A73D2708DC
:102A9000A3002608A2002508A1002408A0000330F6
:102AA0004001DB000330DC000130A82D0630690650
:102AB000031D5B2D5C2D5D2DB52C03304001DB002B
:102AC0000030DC00A72D053041016906031D692D8A
:102AD0006A2DA72D68084001D60041016708400112
:102AE000D500410166084001D4004101650840015C
:102AF000D3003C30420159074301A4000030420199
:102B00005A3D4301A500003042015B3D4301A60050
:102B1000003042015C3D4301A700A72D40015C0845
:102B2000013A0319972D023A0319A22DA72D5B082C
:102B3000013A03199A2C023A0319BB2C0B3A0319D8
:102B4000632DA72D5B08033A0319BB2CA72D00307A
:102B50000800FF2D42015408A0005508A100A20161
:102B6000A3010830A035A10DA20DA30D890BB22D34
:102B70005608A400A501A435A50DA435A50DA435BE
:102B8000A50DA435A50DA435A50D2408103EA6005D
:102B90000030253DA7002608A8002708A90000301E
:102BA000A91BFF30AA00AB00200828044101A700A0
:102BB0004201210829044101A800420122082A04F7
:102BC0004101A900420123082B044101AA0042014E
:102BD00058084101AB000230AC002030AD0000309D
:102BE000AE00A8316E20953120304201D40700306C
:102BF000D53D0130D1070030D23D93316E2B4201DB
:102C0000D7016330A00057085807A10021088600AB
:102C100002308700200881000130A0002008D7077B
:102C20008230A00057085807A10021088600023012
:102C30008700200881000130A0002008D70753300A
:102C4000A00057085807A10021088600023087001D
:102C5000200881000130A0002008D7076330A000C1
:102C600057085807A1002108860002308700200875
:102C700081000130A0002008D7073530A000570898
:102C80005807A10021088600023087002008810033
:102C90000130A0002008D70757085807A0002008D7
:102CA0008600023087008101810A0130A0002008DF
:102CB000D70740015B084201A00057085807A10050
:102CC0002108860002308700200881000130A00022
:102CD0002008D7073D30A00057085807A100210859
:102CE000860002308700200881000130A000200803
:102CF000D7070730A00057085807A1002108860011
:102D000002308700200881000130A0002008D7078A
:102D100057085807A000200886000230870081016C
:102D2000810A0130A0002008D70700304101AA0025
:102D30000030A9000930A8000030A700420158085F
:102D400057074101AB000230AC000630AD00003047
:102D5000AE00B731B327953106304201A0002008FC
:102D6000D7070C30A00057085807A100210886009B
:102D700002308700200881000130A0002008D7071A
:102D800000304101A300B830A400B131CA2195310F
:102D900041012308063E4201A00057085807A10040
:102DA0002108860002308700200881000130A00041
:102DB0002008D70700304101A300B830A400420129
:102DC00058085707B2319922953100304101A300CC
:102DD000B830A400B131CA21953141012308420124
:102DE000A0002008D70758080D3E86000230870053
:102DF0000108A0000430A036890BFB2E0A30200207
:102E0000031C032F042F172F58080D3E8600023095
:102E100087000108A0000430A036890B0C2F200881
:102E2000573EC100003003180130C200292F580856
:102E30000D3E8600023087000108A0000430A03655
:102E4000890B1F2F2008303EC100003003180130CD
:102E5000C2004108A00057085807A10021088600B9
:102E600002308700200881000130A0002008D70729
:102E700058080D3E8600023087000F300105A00083
:102E80000A302002031C452F462F542F58080D3EB0
:102E900086000230870001080F39573EC30000301A
:102EA00003180130C400612F58080D3E860002301F
:102EB000870001080F39303EC3000030031801308D
:102EC000C4004308A00057085807A1002108860045
:102ED00002308700200881000130A0002008D707B9
:102EE00058080E3E8600023087000108A00004301A
:102EF000A036890B782F0A302002031C802F812FE7
:102F0000942F58080E3E8600023087000108A0006A
:102F10000430A036890B892F2008573EC5000030A9
:102F200003180130C600A62F58080E3E8600023056
:102F300087000108A0000430A036890B9C2F2008D0
:102F4000303EC500003003180130C6004508A0001F
:102F500057085807A1002108860002308700200882
:102F600081000130A0002008D70758080E3E8600D7
:102F7000023087000F300105A0000A302002031C38
:102F8000C22FC32FD12F58080E3E86000230870073
:102F900001080F39573EC700003003180130C80040
:102FA000DE2F58080E3E86000230870001080F39D8
:102FB000303EC700003003180130C8004708A000A9
:102FC00057085807A1002108860002308700200812
:102FD00081000130A0002008D70758080F3E860066
:102FE000023087000108A0000430A036890BF52FBD
:102FF0000A302002031CFE2F89314D2989316029B6
:103000000134B0340230B13198219831FF304101A0
:10301000CE00FF30CF00D001D101CC01CD01BF31B6
:10302000DF279831B03106209831003A031919286A
:103030001A281228BF31E227983141012408D30011
:103040002308D2004F085302031D28284E085202BD
:1030500003182B282C2830285308CF005208CE0004
:1030600053085102031D362852085002031839280C
:103070003A283E285308D1005208D0000130CC072E
:103080000030CD3D4D08803AC70092304702031D05
:103090004B281C304C02031C4E284F280F280030B0
:1030A0004101BA000D30B900B130B8005830B70056
:1030B0004E08AB004F08AC00AD01AE0143016B08F8
:1030C0004101B20043016A084101B10043016908AE
:1030D0004101B000430168084101AF00A031012067
:1030E000983141012E08BE002D08BD002C08BC00FF
:1030F0002B08BB00A931B5219831410137080B3E9F
:10310000CE000030383DCF000030BA000D30B9009D
:10311000B130B8005830B7005008AB005108AC00CF
:10312000AD01AE0143016B084101B20043016A08E1
:103130004101B100430169084101B0004301680841
:103140004101AF00A0310120983141012E08BE009D
:103150002D08BD002C08BC002B08BB00A931B521EF
:103160009831410137080B3ED0000030383DD10086
:10317000FF304E05C70000304F05C800FF30500536
:10318000C90000305105CA004908CA00C9014708F2
:103190004904C50048084A04C60008004101DB0094
:1031A00040010E1BD428D528E42843014608031902
:1031B000DA28DB28DE28B031C72098314301C60168
:1031C000C60A4101DB01DB0AB731692798314301A7
:1031D0004608031DEC28ED28F429812903308400DA
:1031E000843085000008D90059084501A000A101DC
:1031F000A10A02304101D9005908E0009E2950017E
:103200001E1701309B009A014101DC0150011E1480
:103210001C084101D9005C08A03E860002308700EE
:10322000590881000130D900590850019A0701302E
:103230004101D9005908DC0709305C02031C21292F
:10324000222906290930D9005908E0009E29500199
:103250001E179B019A014101DD0150011E141C083B
:103260004101D9005D08A13E86000230870059085F
:10327000810050011D084101D9005D08A03E860073
:1032800002308700590881000130D90059085001E7
:103290009A0702304101D9005908DD0708305D0264
:1032A000031C532954292D290830D9005908E0005E
:1032B0009E29AD31E725983141014608DF004508D8
:1032C000DE005F08D90059084501A00041015E08F1
:1032D000D90059084501A100F928AC31C124983121
:1032E00041014608DF004508DE00612998310220CF
:1032F000983141014608DF004508DE006129E00100
:103300009E2965084101D900DA015A08003A0319DB
:103310008A297F295908003A0319EE28013A03192E
:10332000FF28033A03192729013A03195929073AB3
:1033300003196D29013A031976297F29FF30D90035
:1033400059084301E500410160080319A829A9298A
:10335000F4294001DE0141016008D9005908A500A7
:103360000330AC313D249831420160080319B9297A
:10337000BA29DA29D32940015E08A03E860002302E
:10338000870001084101D9005908A5000330AC317C
:103390003D24983101304101D90059084001DE0730
:1033A00001304101E00241016008031DD829D929FB
:1033B000BB29E02941016008D90059084301C70031
:1033C00041015B080319E529E629F429DB010230F4
:1033D0004101DA000430D900BA30890BED29D90B4C
:1033E000ED29DA0BED29000041015B080319F929E9
:1033F000FA29062A05304101DA000F30D900F130F0
:10340000890B002AD90B002ADA0B002A0800B231F6
:1034100059229A3154011F16A9315E219A31053083
:103420004201DE000F30DD00F130890B152ADD0B83
:10343000152ADE0B152A003040010E19013041011A
:10344000EA00031040010E1E03140030031801307F
:103450004201E00050011E1701309B009A01450116
:10346000D601D701E40150011E141C084201DD0001
:10347000450164080139D63E8600023087004201CA
:103480005D0881060130DD005D0850019A070130BA
:103490004201DD005D084501E40709306402031CB8
:1034A000522A532A332AD630860002308700403F02
:1034B0004101A300413FA400B03197209A3150014F
:1034C0009B0101309A001E141D084201DD005D08B9
:1034D0004501D40054080F394201DD005D08430165
:1034E000E7004501D901D90A42016008031D792A84
:1034F0007A2A992A400194119A1105304201DE007E
:103500000F30DD00F130890B832ADD0B832ADE0BBF
:10351000832A031040010E1E0314003003180130EB
:103520004301C80048080319962A972A992A450199
:10353000D901400194129A12420160080319A12A8C
:10354000A22AB12AB431B5249A310130B4315624BB
:103550009A310130B13182219A31B2313B229A3114
:103560001C2B4001181315304201DE004B30DD00EA
:10357000BE30890BB92ADD0BB92ADE0BB92A00004F
:103580004001181705304201DE000F30DD00F13038
:10359000890BC82ADD0BC82ADE0BC82A4501590849
:1035A000031DD32AD42A092B042B32304101A30056
:1035B0000030A400B131B1219A3101309831CE20D0
:1035C0009A3105304201DE000F30DD00F130890B09
:1035D000E72ADD0BE72ADE0BE72A00304101A300D2
:1035E000A400B131B1219A3101309831CE209A3105
:1035F00005304201DE000F30DD00F130890BFE2A7C
:10360000DD0BFE2ADE0BFE2A40018D18082B092B4C
:10361000D52A41016A08031D0E2B0F2B162BB13141
:1036200017219A31B1316C219A311C2BB431B52458
:103630009A31B43184249A3110304101A3002A30E8
:10364000A400B03152209A31903101209A310930D2
:103650004201DE001E30DD00E430890B2D2BDD0B36
:103660002D2BDE0B2D2B000000304101A300A40008
:10367000B131B1219A3141016A080319412B8C31D2
:103680004D2C8C31782C4101D400D930A30001306D
:10369000A400FF30A5000030A6000430A7000030D1
:1036A000A800AF3135279B31D5304101A30001304F
:1036B000A4000030A500A6000430A7000030A80038
:1036C000AF3135279B3141015408CB00CC01CB35BC
:1036D000CC0DCB35CC0DCB35CC0DCB35CC0DCB3586
:1036E000CC0D4B08083ECD0000304C3DCE004D08BF
:1036F000CF004E08D0000030D01BFF30D100D200E8
:1037000004304F04A7001F305004A80000305104BB
:10371000A90000305204AA000230D3005308AB00C5
:10372000B73121279B3141015408CB00CC01CB3567
:10373000CC0DCB35CC0DCB35CC0DCB35CC0DCB3525
:10374000CC0D4B08083ECD0000304C3DCE004D085E
:10375000CF004E08D0000030D01BFF30D100D20087
:1037600004304F04A7001E305004A800003051045C
:10377000A90000305204AA000230D3005308AB0065
:10378000B73121279B3144304101B7000030B800E8
:10379000D930CB004B08B9004330BA000030BB0031
:1037A0005408903104209B31B73169279B31FF3099
:1037B00041013705CB000F303805CC004B08CD0058
:1037C0004C08CE000030CE1BFF30CF00D0000030C0
:1037D0004D064001D300503041014E064001D40057
:1037E000B03041014F064001D500AE3041015006D6
:1037F0004001D60056084301AF004001550843017F
:10380000AE00400154084301AD004001530843019C
:10381000AC0041014A08CB004B084001DD004101EA
:103820004A080319142C152C2E2CD930A300013072
:10383000A4000030A500A6000430A7000030A800B6
:10384000AF3135279B3101304001DB000030DC0017
:1038500004304301B4000030B5004B2C0030AA0006
:103860000030A9000F30A8000030A700D930AB000D
:103870000130AC000430AD000030AE00B731B327EA
:103880009B3108304001DB000030DC004030430158
:10389000B4000030B500D1304101A3000130A400D4
:1038A000FF30A5000030A6000430A7000030A800BB
:1038B000AF3135279B31CD304101A3000130A40049
:1038C0000030A500A6000430A7000030A800AF31EA
:1038D00035279B3100304301AB000030AA00003097
:1038E000A9000030A8002B084001CE0043012A089F
:1038F0004001CD00430129084001CC0043012808C4
:103900004001CB004E08D2004D08D1004C08D00039
:103910004B08CF0000304301A3000030A20000306C
:10392000A1000030A00008005C3086000230870053
:10393000B83084000030850006304101B400160024
:103940001A00B40B9F2C0030CE000030CD000030A8
:10395000CC000030CB00430160084101C1004301AD
:103960005F084101C00043015E084101BF004301FF
:103970005D084101BE0050011E179B019A014101E3
:10398000CA01CA0AD201D10150011E141C0841010A
:10399000B4003408C8005108031DCF2CD02CE42CEF
:1039A00050011D084101B4003408C900C91AD92CBE
:1039B000DB2C0130DC2C0030B4003408CA0049088C
:1039C0001F39B4003408D2004808B4005108CB3E77
:1039D000860087013408810051080319F02CF12C6E
:1039E000FF2C4A08031DF52CF62CFF2C4808B400C8
:1039F0005108023EB83E860087013408810001303C
:103A0000B400340850019A0701304101B400340871
:103A1000D10704305102031C0E2D0F2DC42C4A086F
:103A20000319132D142D372D013050019B00063042
:103A30009A004101CF0150011E141C084101B4003D
:103A40004F08033EB83E86008701340881000130EC
:103A5000B400340850019A0701304101B400340821
:103A6000CF0703304F02031C362D372D1B2D00309E
:103A7000AA000030A9000930A8000030A700B83023
:103A8000AB000030AC000630AD000030AE00A83115
:103A90006E209C311F30410152060319502D512DCB
:103AA000592D4C084D044E044B04031D582D592D1F
:103AB0005B2D0130FA2D0030AA000030A9000F3034
:103AC000A8000030A700CB30AB000030AC000430C1
:103AD000AD000030AE00A8316E209C314101D00114
:103AE000083052020318752D762D9B2D52080319AC
:103AF0007A2D7B2D942D0130B4000030B500520892
:103B0000083C890A852DB435B50D890B832D340801
:103B1000FF3EB600FF30353DB700FF303606C4002B
:103B200000303706C500962DC401C5014508C30005
:103B30004408C2009F2DFF30C2000030C30042087D
:103B4000B4005008BE3E860087013408810050084A
:103B5000BE3E860087010108B4005008CB3E8600B7
:103B6000870134088105083052020318B82DB92D99
:103B7000BC2DC601C701C32D5208F83EC600FF3058
:103B800003180030C7004608B4003408D2000130E2
:103B9000B4003408D00704305002031CD02DD12DBE
:103BA000702D0030AA000030A9000530A8000030B8
:103BB000A700BE30AB000030AC000430AD000030D8
:103BC000AE00A8316E209C3141014E140030AA0095
:103BD0000030A9000130A8000030A700CB30AB00B6
:103BE0000030AC000430AD000030AE00A8316E20D3
:103BF0009C31003008004201CF004F08B531AE259E
:103C00009D31410136084201C100410135084201A0
:103C1000C000003041020830031940020318112E81
:103C2000122E152EFF30A1310B2930304101CA0070
:103C30000230CB000830CC000030CD0042014F08EC
:103C4000A9310D219D3141014B084201CE004101B6
:103C50004A084201CD0000304E02083003194D02DF
:103C60000318332E342E352E122E4401350842010E
:103C7000A000A101440134084201A200A3012208CE
:103C8000A300A20120082204C20021082304C300CB
:103C9000440137084201A000A10144013608420155
:103CA000A200A3012208A300A20120082204CB0045
:103CB00021082304CC0000304C022C3003194B02A5
:103CC000031C632E642E6B2E4330420643040319FB
:103CD0006A2E6B2E782E4C084101D90042014B0808
:103CE0004101D80042014F08B031EE209D31122E23
:103CF00030304101CA000230CB002C30CC00003003
:103D0000CD0042014F08A9310D219D3141014B08E1
:103D10004201CE0041014A084201CD0000304E026E
:103D20002C3003194D020318962E972EA62E4D08FF
:103D30004B024101D80042014E084C3B4101D900E1
:103D400042014F08B031EE209D31122E0230440165
:103D500030060319AC2EAD2EBD2E42014D084B028C
:103D60004101D80042014E084C3B4101D9004201BB
:103D70004F08B031EE209D31122EFF304201A000DD
:103D80000030A1000030A2000030A300440134083C
:103D90004201A400440135084201A500440136084F
:103DA0004201A600440137084201A7001830A73697
:103DB000A60CA50CA40C890BD72E2408A005250859
:103DC000A1052608A2052708A3050030A800FF309A
:103DD000A9000030AA000030AB00440134084201C1
:103DE000AC00440135084201AD00440136084201EF
:103DF000AE00440137084201AF000830AF36AE0CC8
:103E0000AD0CAC0C890BFE2E2C08A8052D08A905BD
:103E10002E08AA052F08AB050030B0000030B10015
:103E2000FF30B2000030B300440134084201B40056
:103E3000440135084201B500440136084201B6008C
:103E4000440137084201B7000830B435B50DB60D4E
:103E5000B70D890B252F3408B0053508B105360894
:103E6000B2053708B3050030B8000030B9000030A3
:103E7000BA00FF30BB00440134084201BC004401D9
:103E800035084201BD00440136084201BE0044012C
:103E900037084201BF001830BC35BD0DBE0DBF0D47
:103EA000890B4C2F3C08B8053D08B9053E08BA05FA
:103EB0003F08BB053808B0043908B1043A08B20419
:103EC0003B08B3043008A8043108A9043208AA0446
:103ED0003308AB0420082804C50021082904C600C3
:103EE00022082A04C70023082B04C80043012F0816
:103EF00042014802031D8C2F43012E084201470254
:103F0000031D8C2F43012D0842014602031D8C2FF7
:103F100043012C0842014502031C8F2F902FA92F2B
:103F2000480840015602031DA52F420147084001E1
:103F30005502031DA52F4201460840015402031DEE
:103F4000A52F42014508400153020318A82FA92FAD
:103F5000B92F42014D084B024101D80042014E08E1
:103F60004C3B4101D90042014F08B031EE209D3158
:103F7000122E41015B088600870142014508C03FBF
:103F80004608C13F4708C23F4808C33F00304101CF
:103F9000AA000030A9000930A8000030A700523064
:103FA000AB000230AC000630AD000030AE00B731DF
:103FB000B3279D3152304201A00020084101A300E7
:103FC0000630A4000030A5004C30B63199269D3152
:103FD0004101230824040319EE2FF02FAD31522D97
:103FE00042014D084B024101D80042014E084C3BB2
:103FF0004101D90042014F08B031EE209D31122E0F
:1040020000304101B6000030B5000030B40000308D
:10401200B3002B1C0D280E2816282F08B3073008D2
:10402200B43D3108B53D3208B63D0130AF35B00D73
:10403200B10DB20D890B17280130AE36AD0CAC0CA8
:10404200AB0C890B1E282E082D042C042B04031DF7
:104052002B282C280A283608AE003508AD00340873
:10406200AC003308AB00080040015208031D44288D
:104072005108031D44285008031D4428F0304F0204
:104082000318442845284E2800304001D200003051
:10409200D1000030D000F030CF0040014E08031DA7
:1040A2005E284D08031D5E284C08031D5E287830EB
:1040B2004B02031C5D285E287128400152084E0203
:1040C200031D6D2851084D02031D6D2850084C0236
:1040D200031D6D284F084B02031C702871289E286F
:1040E20040014F084201A000400150084201A100D6
:1040F200400151084201A200400152084201A300BE
:104102000330A336A20CA10CA00C890B822802302A
:10411200A035A10DA20DA30D890B8928230840010A
:10412200CE00420122084001CD0042012108400197
:10413200CC00420120084001CB0043012B08031DA3
:10414200AE282A08031DAE282908031DAE28D23046
:104152002802031CAD28AE28C8284001520843019A
:104162002B02031DC4284001510843012A02031DEA
:10417200C4284001500843012902031DC4284001FC
:104182004F0843012802031CC728C82809294001F7
:104192004F084201A000400150084201A100400125
:1041A20051084201A200400152084201A30003301B
:1041B200A336A20CA10CA00C890BD928230841011B
:1041C200AE00420122084101AD0042012108410135
:1041D200AC00420120084101AB000030B2000030C7
:1041E200B1000030B0000730AF00A0310120A03193
:1041F20041012E084301AB0041012D084301AA00F1
:1042020041012C084301A90041012B084301A800E8
:104212004201440808004101D6004A084B04031930
:104222001329142926294908CC004C08B5004B084B
:10423200B7004A08B6005608A131EF21A131003A71
:10424200031D242925292629EE2941015608CC00DF
:10425200CD01CC35CD0DCC35CD0DCC35CD0DCC35FC
:10426200CD0DCC35CD0D4C08083ECE0000304D3D75
:10427200CF004E08D0004F08D1000030D11BFF30D4
:10428200D200D30000305004B10001305104B2001A
:1042920000305204B30000305304B4002030D40084
:1042A2005408B500B3312923A13141015608CC008D
:1042B200CD01CC35CD0DCC35CD0DCC35CD0DCC359C
:1042C200CD0DCC35CD0D4C08083ECE0000304D3D15
:1042D200CF004E08D0004F08D1000030D11BFF3074
:1042E200D200D30000305004A70002305104A800CD
:1042F20000305204A90000305304AA00AB01B731C8
:104302002127A1314101D4005408D500551E8A2924
:104312008B29BB295608CC00CD01CC35CD0DCC352F
:10432200CD0DCC35CD0DCC35CD0DCC35CD0D4C08CC
:10433200083ECE0000304D3DCF004E08D0004F0861
:10434200D1000030D11BFF30D200D3000430500422
:10435200A70002305104A80000305204A900003026
:104362005304AA001830D4005408AB00B7312127F7
:10437200A131EE29D51DBE29BF2956295608CC00E8
:10438200CD01CC35CD0DCC35CD0DCC35CD0DCC35CB
:10439200CD0DCC35CD0D4C08083ECE0000304D3D44
:1043A200CF004E08D0004F08D1000030D11BFF30A3
:1043B200D200D30004305004A70002305104A800F8
:1043C20000305204A90000305304AA000830D4007F
:1043D2005408AB00B7312127A13108004101C800C0
:1043E20036083704031DF629F729F9290130DA2A9C
:1043F2004808B800B901B835B90DB835B90DB835A6
:10440200B90DB835B90DB835B90D3808083EBA003E
:104412000030393DBB003A08BC003B08BD0000300B
:10442200BD1BFF30BE00BF0000303C04A70020309F
:104432003D04A80000303E04A90000303F04AA0059
:10444200AA31D822A13141012808C5002708C40099
:1044520037084502031D2F2A360844020318322A60
:10446200332A352A0030DA2A4808B800B901B835AB
:10447200B90DB835B90DB835B90DB835B90DB8356E
:10448200B90D3808083EBA000030393DBB003A0881
:10449200BC003B08BD000030BD1BFF30BE00BF00AA
:1044A20000303C04A70024303D04A80000303E0444
:1044B200A90000303F04AA00AA31D822A13141014B
:1044C2002808C7002708C6004608B8004708B900F0
:1044D200BA01BB010830B835B90DBA0DBB0D890B55
:1044E2006C2A4808BC00BD01BC35BD0DBC35BD0DF4
:1044F200BC35BD0DBC35BD0DBC35BD0D3C08103EF7
:10450200BE0000303D3DBF003E08C0003F08C10074
:104512000030C11BFF30C200C30038084004A700AE
:1045220039084104A8003A084204A9003B084304A0
:10453200AA003508AB000230AC003708AE003608DE
:10454200AD00A8316E20A13141013608C6073708F7
:10455200C73D4808B800B901B835B90DB835B90D2D
:10456200B835B90DB835B90DB835B90D3808083EAA
:10457200BA000030393DBB003A08BC003B08BD0020
:104582000030BD1BFF30BE00BF0000303C04A7005E
:1045920024303D04A80000303E04A90000303F044E
:1045A200AA004708AC004608AB00A8312020A13180
:1045B200013008004001B9003908A900AA01A93553
:1045C200AA0DA935AA0DA935AA0DA935AA0DA93595
:1045D200AA0D2908083EAB0000302A3DAC002B088A
:1045E200AD002C08AE000030AE1BFF30AF00B000B3
:1045F20000302D04F40026302E04F50000302F0484
:10460200F60000303004F700AA317422A231750896
:104612004001B6007408B50028083602031D132BAA
:10462200270835020318162B172B1B2B3608A80058
:104632003508A70027082804031D202B212B242B33
:10464200A501A601D32B3908A900AA01A935AA0DF3
:10465200A935AA0DA935AA0DA935AA0DA935AA0D04
:104662002908083EAB0000302A3DAC002B08AD0003
:104672002C08AE000030AE1BFF30AF00B00000309F
:104682002D04F40028302E04F50000302F04F6002B
:1046920000303004F700AA317422A23175084001BB
:1046A200B8007408B700250826040319592B5A2BA1
:1046B2009A2B3708A9003808AA00AB01AC010830D0
:1046C200A935AA0DAB0DAC0D890B612B3908AD00D4
:1046D200AE01AD35AE0DAD35AE0DAD35AE0DAD3570
:1046E200AE0DAD35AE0D2D08183EAF0000302E3D9B
:1046F200B0002F08B1003008B2000030B21BFF300A
:10470200B300B40029083104F4002A083204F50089
:104712002B083304F6002C083404F7002608F900AD
:104722002508F8002808FB002708FA00B631DC2625
:10473200A23140012708B7072808B83D3908A90067
:10474200AA01A935AA0DA935AA0DA935AA0DA9351F
:10475200AA0DA935AA0D2908083EAB0000302A3D52
:10476200AC002B08AD002C08AE000030AE1BFF30B1
:10477200AF00B00000302D04F40028302E04F50004
:1047820000302F04F60000303004F7003808F9003A
:104792003708F800B6315626A23140012808A60093
:1047A2002708A50008004101C9004908B900BA015B
:1047B200B935BA0DB935BA0DB935BA0DB935BA0D23
:1047C200B935BA0D3908083EBB0000303A3DBC008D
:1047D2003B08BD003C08BE000030BE1BFF30BF00DE
:1047E200C00000303D04A70026303E04A80000307F
:1047F2003F04A90000304004AA00AA31D822A33104
:1048020041012808C6002708C50038084602031DD2
:104812000C2C3708450203180F2C102C142C4608B8
:10482200B8004508B70037083804031D192C1A2CA4
:104832001D2CB501B601CC2C4908B900BA01B93515
:10484200BA0DB935BA0DB935BA0DB935BA0DB93592
:10485200BA0D3908083EBB0000303A3DBC003B08A7
:10486200BD003C08BE000030BE1BFF30BF00C000D0
:1048720000303D04A70028303E04A80000303F0469
:10488200A90000304004AA00AA31D822A331410174
:104892002808C8002708C700350836040319522C17
:1048A200532C932C4708B9004808BA00BB01BC013D
:1048B2000830B935BA0DBB0DBC0D890B5A2C49080D
:1048C200BD00BE01BD35BE0DBD35BE0DBD35BE0D33
:1048D200BD35BE0DBD35BE0D3D08183EBF000030D2
:1048E2003E3DC0003F08C1004008C2000030C21B6C
:1048F200FF30C300C40039084104A7003A0842044B
:10490200A8003B084304A9003C084404AA00360856
:10491200AC003508AB003808AE003708AD00B7313F
:10492200B327A33141013708C7073808C83D4908F2
:10493200B900BA01B935BA0DB935BA0DB935BA0DE2
:10494200B935BA0DB935BA0D3908083EBB00003089
:104952003A3DBC003B08BD003C08BE000030BE1B17
:10496200FF30BF00C00000303D04A70028303E04E5
:10497200A80000303F04A90000304004AA00480803
:10498200AC004708AB00A8312020A3314101380810
:10499200B6003708B50008004101A10142016008D4
:1049A2000319D42CD52CEA2CA2304001BA000030D5
:1049B200BB000130BC000030BD000130A831BC207A
:1049C200A43140013A033B040319E82CE92C162DCB
:1049D200D52D1D1DED2CEE2CF92C41016A08031971
:1049E200F32CF42CF92CF2010C30AB31BB23A431A3
:1049F20042019D1CFD2CFE2C0F2D1D121D16410186
:104A02006A080319052D062D0C2DF201F20A0C304D
:104A1200AB31BB23A4314101A101A10A4201190812
:104A22004001C80048084101A200410121080319C0
:104A32001B2D1C2D202DB131E421A431D52D6A0866
:104A4200031D242D252DC32D2208B331A223A43109
:104A5200D52D6208C8000230C836890B2D2D4808B2
:104A62000F39C90049084101A0009C2D3F30410186
:104A720022054001C80062080339C9000530C93562
:104A8200FF3E031D402D49354804CA004A08430130
:104A9200E6004001E201E101DF01DF0AB32D3F3010
:104AA200410122054001C80062080339C9000530EE
:104AB200C935FF3E031D592D49354804B331A223A0
:104AC200A431B32D3F30410122054001C8006208E4
:104AD2000339C9000530C935FF3E031D6C2D493528
:104AE2004804CA004A08E000AA306006031D7A2D75
:104AF2007B2D7D2DE101B32DE101E10A0130F000B2
:104B02000030F100B1315621A431B32D3F304101C3
:104B120022054001C80062080339C9000530C935C1
:104B2200FF3E031D902D49354804CA004A0843013F
:104B3200E500C701B32D20084001C800C90149089A
:104B4200003A0319A52DB32D4808003A0319372D51
:104B5200013A0319502D033A0319632D013A03193F
:104B6200872DB32D4001E201D52D410122084001DC
:104B7200C8004808E200D52D41012208B331A22322
:104B8200A431B32D2208C0394001C800C901490827
:104B9200003A0319CD2DBD2D4808803A03192A2D5C
:104BA200403A0319B62DBD2D08007E1CDA2DA43122
:104BB200CD2C4101DC01420160080319E12DE22DF7
:104BC200F72DDD304101CA000030CB000130CC00AE
:104BD2000030CD000130A9310D21A53141014A0338
:104BE2004B040319F52DF62D222EDF2E1D1DFA2D55
:104BF200FB2D062E41016A080319002E012E062EF6
:104C0200A5010C30AC313D24A53142019D1C0A2E78
:104C12000B2E1C2E1D121D1641016A080319122E9D
:104C2200132E192EA501A50A0C30AC313D24A53155
:104C32004101DC01DC0A420119084101D80058088F
:104C4200DD005C080319262E272E2B2EB2310022FE
:104C5200A531DF2E6A08031D2F2E302ECE2E5D08C1
:104C6200B5311825A531DF2E400162084101D80077
:104C72000230D836890B3A2E58080F39D900590814
:104C8200DB00AA2E3F305D05D800400162080339DF
:104C92004101D9000530D935FF3E031D4C2E59354F
:104CA2005804DA005A084301E6004001E201E1013A
:104CB200DF01DF0AC02E3F305D05D80040016208E7
:104CC20003394101D9000530D935FF3E031D652E58
:104CD20059355804B5311825A531C02E3F305D0530
:104CE200D8004001620803394101D9000530D935A5
:104CF200FF3E031D782E59355804DA005A08400148
:104D0200E000AA306006031D872E882E8A2EE1015C
:104D1200C02EE101E10A01304101A3000030A400EC
:104D2200B131B121A531C02E3F305D05D80040011F
:104D3200620803394101D9000530D935FF3E031D10
:104D42009E2E59355804DA005A084301E500C7017E
:104D5200C02E5B08D800D9015908003A0319B22EB7
:104D6200C02E5808003A0319432E013A03195C2E4B
:104D7200033A03196F2E013A0319952EC02E4001F2
:104D8200E201DF2E5D08D80058084001E200DF2E64
:104D92005D08B5311825A531C02E5D08C039D8008F
:104DA200D9015908003A0319D72EC92E5808803A5A
:104DB2000319352E403A0319C32EC92E08004101AA
:104DC200C2004208B900BA01B935BA0DB935BA0DF7
:104DD200B935BA0DB935BA0DB935BA0D3908083E2B
:104DE200BB0000303A3DBC003B08BD003C08BE00A1
:104DF2000030BE1BFF30BF00C00000303D04A700E2
:104E020004303E04A80000303F04A90000304004F2
:104E1200AA003808AC003708AB00A8312020A63120
:104E220041014208B900BA01B935BA0DB935BA0D16
:104E3200B935BA0DB935BA0DB935BA0D3908083ECA
:104E4200BB0000303A3DBC003B08BD003C08BE0040
:104E52000030BE1BFF30BF00C00004303D04A7007D
:104E620002303E04A80000303F04A9000030400494
:104E7200AA000A30C1004108AB00B7312127A63190
:104E820041014208B900BA01B935BA0DB935BA0DB6
:104E9200B935BA0DB935BA0DB935BA0D3908083E6A
:104EA200BB0000303A3DBC003B08BD003C08BE00E0
:104EB2000030BE1BFF30BF00C00000303D04B10017
:104EC20001303E04B20000303F04B3000030400421
:104ED200B4001030C1004108B500B3312923A63116
:104EE20041014208B900BA01B935BA0DB935BA0D56
:104EF200B935BA0DB935BA0DB935BA0D3908083E0A
:104F0200BB0000303A3DBC003B08BD003C08BE007F
:104F12000030BE1BFF30BF00C00004303D04A700BC
:104F220000303E04A80000303F04A90000304004D5
:104F3200AA00AB01AB0AB7312127A63141014208D1
:104F4200B900BA01B935BA0DB935BA0DB935BA0DCC
:104F5200B935BA0DB935BA0D3908083EBB00003073
:104F62003A3DBC003B08BD003C08BE000030BE1B01
:104F7200FF30BF00C00000303D04B10001303E04EC
:104F8200B20000303F04B30000304004B400B50169
:104F9200B50AB3312923A63141014208B900BA0149
:104FA200B935BA0DB935BA0DB935BA0DB935BA0D2B
:104FB200B935BA0D3908083EBB0000303A3DBC0095
:104FC2003B08BD003C08BE000030BE1BFF30BF00E6
:104FD200C00000303D04A70003303E04A8000030AA
:104FE2003F04A90000304004AA00AB01B7312127D9
:104FF200A631133A031DFE2FFF2F112F0800410186
:10500200AF01B0012B1C062807280B282D08AF077B
:105012002E08B03D0130AD35AE0D890B0C280130A4
:10502200AC36AB0C890B11282B082C04031D1A2853
:105032001B2803283008AC002F08AB0008004001F1
:10504200991241012708AD002808AE002908AF00D7
:105052002A08B0001030B036AF0CAE0CAD0C890B84
:105062002C282D08B10031084001E9004101270830
:10507200AD002808AE002908AF002A08B0000830A9
:10508200B036AF0CAE0CAD0C890B41282D08B10027
:1050920031084001EA00410127080438AD002D081B
:1050A2004001EB0041012C08AD002D084001EC004D
:1050B20041012B08AD002D084001ED00693041018E
:1050C200A3000030A4000530A5000030A600B331D3
:1050D2007923A83140019916080040019912410133
:1050E2002708AF002808B0002908B1002A08B2003A
:1050F2001030B236B10CB00CAF0C890B7A282F08E5
:10510200B30033084001E90041012708AF00280835
:10511200B0002908B1002A08B2000830B236B10C3A
:10512200B00CAF0C890B8F282F08B3003308400155
:10513200EA00410127080438AF002F084001EB00C4
:1051420069304101A3000030A4000330A500003003
:10515200A600B3317923A83141012C08A4002B0801
:10516200A3002E08A6002D08A500B2317822A8318E
:105172004001991608004001C7003B08A6003A0802
:10518200A5003D08A8003C08A7004708A231DB2281
:10519200A83140012608BD002508BC003C083D049A
:1051A200031DD428D528D828BA01BB010C294708E9
:1051B200BE00BF01BE35BF0DBE35BF0DBE35BF0D32
:1051C200BE35BF0DBE35BF0D3E08083EC0000030E3
:1051D2003F3DC1004008C2004108C3000030C31B6C
:1051E200FF30C400C50004304204F400013043041F
:1051F200F50000304404F60000304504F70040306A
:10520200C6004608F800B6311826A83140013D080C
:10521200BB003C08BA0008004101D7004B08B600A9
:105222004A08B5004D08B8004C08B7005708A3312A
:10523200D423A93141013608CD003508CC004C08F1
:105242004D04031D252926292929CA01CB015D29DF
:105252005708CE00CF01CE35CF0DCE35CF0DCE358E
:10526200CF0DCE35CF0DCE35CF0D4E08083ED00036
:1052720000304F3DD1005008D2005108D300003019
:10528200D31BFF30D400D50004305204A7000130F4
:105292005304A80000305404A90000305504AA00A9
:1052A2004030D6005608AB00B7312127A931410161
:1052B2004D08CB004C08CA00080000304101A6008E
:1052C2000030A5000130A4001630A300B231DE2266
:1052D200A93141012408AC002308AB000A30AD001B
:1052E2000030AE00A8310020A93141012C08430151
:1052F200ED0041012B084301EC0000304101A60002
:105302000030A5000130A4001930A300B231DE2222
:10531200A93141012308B7002408B800B901BA0134
:105322003A08AE003908AD003808AC003708AB00C7
:105332000030B2000030B1000030B0006430AF0085
:10534200A0310120A93141012E084301EB004101A6
:105352002D084301EA0041012C084301E900410103
:105362002B084301E800080000304101C30000306F
:10537200C2000030C1000030C0003A0839043804CD
:1053820037040319C529C629072AC401C40AD42926
:105392000130B735B80DB90DBA0D890BCA290130E4
:1053A200BF003F08C407BA1FD729D829C92901302D
:1053B200C035C10DC20DC30D890BD9293A083E0271
:1053C200031DED2939083D02031DED2938083C0271
:1053D200031DED2937083B02031CF029F129FA29A4
:1053E2003708BB023808BC3B3908BD3B3A08BE3B14
:1053F20040140130BA36B90CB80CB70C890BFB2932
:105402000130C402031D062A072AD8294308BA001C
:105412004208B9004108B8004008B700080001304E
:105422004001D7070030D83D0030D93D0030DA3D89
:105432005F0803191D2A1E2A562A41016A08031908
:10544200232A242A532A430166080139F7007708E0
:10545200F2000030AB31BB23AA313230F000003011
:10546200F100B1315621AA31023040015707430100
:10547200E10000304001583D4301E20000304001AC
:10548200593D4301E300003040015A3D4301E4002D
:10549200023040015F02031C4F2A502A532AB031C6
:1054A200B420AA314001DF01732A4301640840019C
:1054B2005A06031D6C2A4301630840015906031D65
:1054C2006C2A4301620840015806031D6C2A4301FD
:1054D200610840015706031D6F2A702A732AB131F1
:1054E2000221AA3108004001A201A20A99127408FD
:1054F200F8007508F9007608FA007708FB0010300A
:10550200FB36FA0CF90CF80C890B812A7808FC009E
:105512007C08E9007408F8007508F9007608FA00BA
:105522007708FB000830FB36FA0CF90CF80C890BF3
:10553200942A7808FC007C08EA007408F8007808CD
:10554200EB006930F0000030F1000530F20000306D
:10555200F300B3310323AA31400199162408A100B4
:105562002308A0006D08F800F9016C08FA00FB019D
:105572007A08FB00FA0178087A04A30079087B0410
:10558200A40022080319C62AC72AC92AA201772A17
:1055920021082406031DCF2A20082306031DD22A30
:1055A200D32A772A2408F5002308F40008004101D1
:1055B200B201B20A4001991241012708AB00280842
:1055C200AC002908AD002A08AE001030AE36AD0C92
:1055D200AC0CAB0C890BE72A2B08AF002F0840015B
:1055E200E90041012708AB002808AC002908AD00FA
:1055F2002A08AE000830AE36AD0CAC0CAB0C890BF1
:10560200FC2A2B08AF002F084001EA0041012708BD
:10561200AB002B084001EB0069304101A3000030D0
:10562200A4000530A5000030A600B3317923AA31C9
:105632004001991641013408B1003308B00040011D
:105642006D084101AB00AC0140016C084101AD00A5
:10565200AE012D08AE00AD012B082D04B3002C08BD
:105662002E04B40032080319372B382B3A2BB2011F
:10567200DB2A31083406031D402B30083306031D94
:10568200432B442BDB2A3408A8003308A700080068
:105692004101C1007D2B4108B700B801B735B80DF3
:1056A200B735B80DB735B80DB735B80DB735B80D34
:1056B2003708083EB9000030383DBA003908BB004F
:1056C2003A08BC000030BC1BFF30BD00BE000030F9
:1056D2003B04B10001303C04B20000303D04B30091
:1056E20000303E04B4001030BF003F08B500B331B3
:1056F2002923AB310130BA2B4108B700B801B735C5
:10570200B80DB735B80DB735B80DB735B80DB735D3
:10571200B80D3708083EB9000030383DBA003908E4
:10572200BB003A08BC000030BC1BFF30BD00BE000D
:1057320000303B04A70003303C04A80000303D04C5
:10574200A90000303E04AA00AB01B7312127AB31DA
:105752004101BF00C0014008003A0319B12BB92B27
:105762003F08003A03197B2B1C3A03194C2BB92B27
:1057720000300800F600420160080319C12BC22B59
:105782000D2CCE3041016B02031CC82BC92BCA2B36
:105792003C2C6A080319CE2BCF2BDA2B7603031D80
:1057A200D32BD42BE72B803072020318D92BDA2BA0
:1057B200E72B7208F3006B0886000230870073083B
:1057C20081000130F3007308EB073C2C7208F300F0
:1057D2000630F336890BEA2B7608F4000130F435F3
:1057E200FF3E031DF02B74357304C038F5006B08BF
:1057F200860002308700750881000130F3007308CB
:10580200EB0772083F398038F3006B0886000230DC
:10581200870073088100E22B41016A080319122CE8
:10582200132C1E2C7603031D172C182C232C8030CE
:10583200720203181D2C1E2C232C7208B331CF23A5
:10584200AB313C2C7208F3000630F336890B262C60
:105852007608F4000130F435FF3E031D2C2C74351C
:105862007304C038B331CF23AB3172083F3980386B
:10587200B331CF23AB3108004101A90042016008D6
:105882000319442C452C902CCE3041016B02031C91
:105892004B2C4C2C4D2CC02C6A080319512C522C29
:1058A2005D2C2903031D562C572C6A2C80302502AF
:1058B20003185C2C5D2C6A2C2508A6006B08860058
:1058C20002308700260881000130A6002608EB0777
:1058D200C02C2508A6000630A636890B6D2C290897
:1058E200A7000130A735FF3E031D732C2735260480
:1058F200C038A8006B0886000230870028088100A3
:105902000130A6002608EB0725083F398038A6009B
:105912006B0886000230870026088100652C410151
:105922006A080319952C962CA12C2903031D9A2C85
:105932009B2CA62C803025020318A02CA12CA62C6F
:105942002508B431E624AC31C02C2508A600063067
:10595200A636890BA92C2908A7000130A735FF3EDE
:10596200031DAF2C27352604C038B431E624AC31F0
:10597200410125083F398038B431E624AC310800B2
:10598200FC3041019E053F30B1319821AC310030ED
:105992004101CF000030CE000030CD000030CC00FD
:1059A200D001D1010D30890BD42C0000BF31DF278B
:1059B200AC31B0310620AC31003A0319E12CE22CB3
:1059C200DA2CBF31E227AC3141012308CC0724088D
:1059D200CD3D0030CE3DCF3D0130D0070030D13D2E
:1059E2005108803AC70080304702031DFA2C0A3062
:1059F2005002031CFD2CFE2CD32C033041019E04CB
:105A02000030BA000030B9000030B8000A30B700E8
:105A120043016B084101AE0043016A084101AD0038
:105A2200430169084101AC00430168084101AB0030
:105A32000030B2000030B1000330B000FF30AF00E0
:105A4200A0310120AC3141012E08BE002D08BD005D
:105A52002C08BC002B08BB00A931B521AC31410197
:105A62003A08CB003908CA003808C9003708C8000C
:105A72004F08BA004E08B9004D08B8004C08B700EC
:105A82004B08BE004A08BD004908BC004808BB00DC
:105A9200A931B521AC3141013808C6003708C5002B
:105AA200080040015D080319572D582D682DD93083
:105AB2004101A3000130A4004030A5000230A6003D
:105AC2000430A7000030A800B4312924AD31C03021
:105AD2004101D8000030D90042014F08B031EE2018
:105AE200AD31410158084201CD0741015908420137
:105AF200CE3D30304101CA000230CB000430CC0030
:105B02000030CD0042014F08A9310D21AD314101D4
:105B12004A084201CD0741014B084201CE3D6330A4
:105B220044013006031D962D972DA92D8230310692
:105B3200031D9C2D9D2DA92D53303206031DA22D30
:105B4200A32DA92D633033060319A82DA92DBA2D33
:105B520042014D084B024101D80042014E084C3B24
:105B62004101D90042014F08B031EE20AD319E31E2
:105B7200122E4201C401FF3040015B054201A00028
:105B8200003040015C054201A100033020062104DF
:105B9200031DCC2DCE2D8731BB2F00304301AB002E
:105BA2000030AA000030A9000030A8002B084001F4
:105BB200CE0043012A084001CD00430129084001DB
:105BC200CC00430128084001CB00CC2D3C30B13140
:105BD2009821AD3100304101D6000030D5000030AF
:105BE200D4000030D300D701D8010D30890BF72D36
:105BF2000000BF31DF27AD31B0310D20AD31B03102
:105C02000620AD31003A0319072E082E002EBF31AF
:105C1200E227AD3141012308D3072408D43D0030E7
:105C2200D53DD63D0130D7070030D83D5808803ADF
:105C3200C70080304702031D202E0A305702031C82
:105C4200232E242EF62D43016C084101C700430187
:105C52006D084101C800C901CA015308CB005408AC
:105C6200CC005508CD005608CE000130CB35CC0D06
:105C7200CD0DCE0D890B372E4708CB024808CC3B01
:105C82004908CD3B4A08CE3B4E08AE004D08AD0058
:105C92004C08AC004B08AB0043016B084101B20059
:105CA20043016A084101B100430169084101B000A2
:105CB200430168084101AF00A0310120AD3141012B
:105CC2002E08D2002D08D1002C08D0002B08CF00BE
:105CD2000030BA003930B9008130B8009C30B700CA
:105CE2005208BE005108BD005008BC004F08BB005E
:105CF200A931B521AD315A304101C70037084702F9
:105D0200C50038090318890AC60008004101C2000B
:105D1200F42E4208B800B901B835B90DB835B90D3D
:105D2200B835B90DB835B90DB835B90D3808083ED2
:105D3200BA000030393DBB003A08BC003B08BD0048
:105D42000030BD1BFF30BE00BF0000303C04B1007C
:105D520001303D04B20000303E04B30000303F0485
:105D6200B4000230C0004008B500B3312923AE317F
:105D7200332F37080319BE2EBF2EF22E4208B80069
:105D8200B901B835B90DB835B90DB835B90DB83551
:105D9200B90DB835B90D3808083EBA000030393DA2
:105DA200BB003A08BC003B08BD000030BD1BFF3001
:105DB200BE00BF0000303C04A7000C303D04A80028
:105DC20000303E04A90000303F04AA003708AB00AF
:105DD2000030AC000430AD000030AE00B731B32764
:105DE200AE310130342F4208B800B901B835B90DCF
:105DF200B835B90DB835B90DB835B90DB835B90DD5
:105E02003808083EBA000030393DBB003A08BC00F1
:105E12003B08BD000030BD1BFF30BE00BF0000309C
:105E22003C04A70003303D04A80000303E04A90052
:105E320000303F04AA00AB01B7312127AE31410146
:105E4200C000C1014108003A0319282F332F40082E
:105E5200133A03198A2E073A0319332F033A031907
:105E6200BA2E332F0030080041012408B000230865
:105E7200AF0027082804031D3F2F402F412FFF2F7B
:105E82002F088600300887002508810027082F0781
:105E9200A9002808303DAA002908FF3EAB00FF30C8
:105EA2002A3DAC002B0886002C08870025088100BB
:105EB200003028020330031927020318612F622FD2
:105EC200632FFF2F2F08013EA9000030303DAA00AA
:105ED200290886002A088700250881002F08023E2B
:105EE200A9000030303DAA00290886002A08870050
:105EF2002508810027082F07A9002808303DAA009D
:105F02002908FE3EAB00FF302A3DAC002B0886007C
:105F12002C0887002508810027082F07A9002808D8
:105F2200303DAA002908FD3EAB00FF302A3DAC00FF
:105F32002B0886002C0887002508810000302802E3
:105F42000730031927020318A72FA82FA92FFF2F05
:105F52002F08033EA9000030303DAA002908860020
:105F62002A0887002508810027082F07A90028088A
:105F7200303DAA002908FC3EAB00FF302A3DAC00B0
:105F82002B0886002C088700250881000030280293
:105F92000930031927020318CF2FD02FD12FFF2F3B
:105FA2002F09A9003009AA00A90A0319AA0A033075
:105FB2002905AD0000302A05AE002D08AF072E08D6
:105FC200B03D2D08A7022E08A83BFC30A705FF30E4
:105FD200A805F92F2F0886003008870025088100C0
:105FE2000130A7020030A83B0130AF070030B03DBE
:105FF20027082804031DFE2FFF2FEB2F0800AE34C5
:10600200B0345334EF34FE34EF34031041019D1C9D
:1060120003140030093D0800E43000320032890BDD
:106022000E28003200320800A33041019E009B017D
:106032009C0101309D0008008230530190009101C3
:106042000630920093010800410124084301BF0079
:10605200410123084301BE00080041012408430115
:10606200C100410123084301C00008004101240886
:106072004301BD00410123084301BC000800410166
:1060820024084301C300410123084301C200080060
:10609200410124084301C500410123084301C40012
:1060A2000800410124084301EF0041012308430194
:1060B200EE000800603051018D008F019101063021
:1060C2009300900192010800FF34FF34FF34003442
:1060D200FF34FF34FF34FF34FF3401341034430102
:1060E2006E086F040319762877287C286F088A00C7
:1060F2006E080A00B03108004101A4002408A30080
:10610200A30DA30D1D082306033923069D001D14AC
:1061120008004F01960102309700453098003B304D
:10612200990001309A0006309B00080041012308C3
:10613200FF3E4301C900FF304101243D4301CA0033
:10614200CB01CC0108000130450190008F01910183
:106152000F308D008C014E019010FF3045018E00F2
:106162000F308D0008008B130B130530F1000F3038
:10617200F000F130890BBB28F00BBB28F10BBB28D8
:1061820000007E019B01A101010008008B130B138B
:1061920005304101A4000F30A300F130890BCF2854
:1061A200A30BCF28A40BCF287E019B01A1010100E4
:1061B200080001304301B435B50D890BDC280030ED
:1061C2003502413003193402031CE828E928ED287E
:1061D2004030B4000030B50008004101DA00003060
:1061E200CA000030CB005908CD005808CC005A082C
:1061F200A9310D21B03141014B08D9004A08D8001C
:10620200080041016A08031D0729082910290130E5
:10621200F0000030F100B1315621B13116290030C1
:10622200F000F100B1315621B131080010307D018A
:10623200BB0003307E019B0002307C01A500A60159
:10624200A701A801A9010230AA00AB01AC01AD016E
:106252008030A400080048304B019F00FF309D00B1
:106262009C014E018C12961600304101A3000830A9
:10627200A400B0315220B13180304B019E000800A1
:1062820041016A08031D462947294F290130A3000D
:106292000030A400B131B121B13155290030A30041
:1062A200A400B131B121B13108007108F3007008C6
:1062B200F200F336F20CF336F20C72084601950046
:1062C20070080339F2000530F235FF3E031D6529DF
:1062D2007235940008000A307D01BD0004307E0151
