:100800008431552CAE3401347E1484314E01961E51
:100810000A2C0B2C132C8C1E0E2C0F2C132CB631E7
:1008200068268431532C0B1F162C172C532C991E21
:100830001A2C1B2C262C8F1E1E2C1F2C262C430101
:1008400045088A0044080A008431532C191E292CBB
:100850002A2C352C0F1E2D2C2E2C352C430147080D
:100860008A0046080A008431532C991F382C392CF1
:10087000442C8F1F3C2C3D2C442C430149088A00FA
:1008800048080A008431532C191F472C482C532C3C
:100890000F1F4B2C4C2C532C43014B088A004A0849
:1008A0000A008431532C7E10090040018431582CF9
:1008B0004101983100208431E800983101208431D1
:1008C000E90038308400B5308500E1308600013021
:1008D00087000830B5311C25843122308400B530C2
:1008E000850054308600023087000630B5311C2563
:1008F00084314B308400003085002330B53116251B
:1009000084314201E401A03084000130850041308F
:10091000B531162584312030840002308500343012
:10092000B53116258431A030840002308500203096
:10093000B531162584317E10400188314A284501A1
:10094000D70100304101AA000030A9003930A800C9
:100950000030A700AB01AC311D2484314101E5001A
:1009600065084501C400043044060319B82CB92CAD
:10097000E32C57080319BD2CBE2CC72CD70100301F
:100980004101A300A400B6317F268431D12CD701C8
:10099000D70A14304101A3000030A400B6317F26ED
:1009A00084310B304101E6002630E5005D30890BD3
:1009B000D72CE50BD72CE60BD72C00320030A83112
:1009C0006C208431A12C9C31932484314101E500B9
:1009D00065084501D50000304101AA000030A9009A
:1009E0001930A8000030A7000430AB000030AC0084
:1009F000AC31B2248431252D450157080319012D4E
:100A0000022D0B2DD70100304101A300A400B63107
:100A10007F268431152DD701D70A14304101A30058
:100A20000030A400B6317F26843103304101E60056
:100A30000830E5007730890B1B2DE50B1B2DE60BED
:100A40001B2D0030A8316C20843100304101AA00F8
:100A50000030A9002E30A8000030A700AB01AC3157
:100A60001D24843101390319362D372DFC2C40010A
:100A70005A084101C900400159084101C80040011C
:100A800058084101C700400157084101C60045010F
:100A900055084101E5006508CA0000309B3142233A
:100AA0008431450155080319562D572D242E400138
:100AB0005A084501C300400159084501C2004001E0
:100AC00058084501C100400157084501C000D10147
:100AD000D10AC7011E2E430840015A06031D802D6E
:100AE0004501420840015906031D802D450141087A
:100AF00040015806031D802D45014008400157065E
:100B0000031D832D842DBA2D45015108031D892D08
:100B10008A2DBA2D40015A084101C90040015908E7
:100B20004101C800400158084101C7004001570871
:100B30004101C600CA01CA0A00309B3142238431F8
:100B4000BA2D4501C701C70ADE2D02304001570703
:100B50004501C00000304001583D4501C100003052
:100B60004001593D4501C200003040015A3D450158
:100B7000C300DE2D40015A084201DC004001590843
:100B80004201DB00400158084201DA0040015708E9
:100B90004201D90000309331792384314101E500CD
:100BA000E6016608003A0319D62DDE2D6508013AE4
:100BB0000319A12D033A0319A52DDE2D4501570870
:100BC0000319E32DE42DED2DD70100304101A300E1
:100BD000A400B6317F268431F72DD701D70A14300F
:100BE0004101A3000030A400B6317F2684310630D5
:100BF0004101E6001330E500AD30890BFD2DE50B1A
:100C0000FD2DE60BFD2D003201304101E5006508A8
:100C10004501D10708305102031C0F2E102E1A2E49
:100C2000D10101304001D7070030D83D0030D93D17
:100C30000030DA3D0030A8316C208431450147088E
:100C40000319232E242E6B2DB63111268431302E1C
:100C50004F304101A3002530A400B5314025843137
:100C600088304101A3002130A400B53152258431E0
:100C70008B170B174001DE01DE0A420164080319DD
:100C8000422E432EEC2F4501D8010030CC0000301D
:100C9000CB000030CA000030C9000030D000003066
:100CA000CF000030CE000030CD00450150084F0489
:100CB0004E044D0403195D2E5E2E862E5008400111
:100CC0005A02031D732E45014F0840015902031DAE
:100CD000732E45014E0840015802031D732E450135
:100CE0004D0840015702031C762E772E862E0030C9
:100CF0004501D0000030CF000030CE000030CD00E4
:100D00000130AA31122284314501D80145014C0835
:100D10004B044A04490403198E2E8F2ED72E4C08FB
:100D200040015A02031DA42E45014B0840015902FF
:100D3000031DA42E45014A0840015802031DA42E9C
:100D40004501490840015702031CA72EA82E042F75
:100D500000304501CC000030CB000030CA0000302C
:100D6000C90058080319B52EB62EBC2E0130AA3181
:100D7000122284314501D80140015A084101C900BD
:100D8000400159084101C800400158084101C7000D
:100D9000400157084101C600450155084101E500E1
:100DA0006508CA0000309B3142238431042F400182
:100DB0005A084201DC00400159084201DB004001B1
:100DC00058084201DA00400157084201D9000030BA
:100DD000933179238431023A031DEF2EF02E042F34
:100DE0000230400157074501C90000304001583D1D
:100DF0004501CA0000304001593D4501CB0000309B
:100E000040015A3D4501CC0045015808031D092FFA
:100E10000A2F242F0F304101B7002730B8000130CE
:100E20009A312222843100304101AA000030A90009
:100E30002F30A8002C30A700AB01AB0AAC311D2429
:100E400084314501D801D80A5803031D282F292FC2
:100E50003A2F4101B7010130A2311F228431003AFB
:100E60000319332F342F3A2F02304101E500650872
:100E70004501D8000230450158060319402F412F83
:100E8000472F03305806031D462F472F532F01309D
:100E9000AF310C278431003A03194F2F502F532FB5
:100EA0004501D801912F023045015806031D592FE5
:100EB0005A2F912F0130AA31DD228431003A0319D3
:100EC000622F632F822F0130AA31442284310330F4
:100ED0004101E50065084501D80001304001570790
:100EE0004501CD0000304001583D4501CE000030A5
:100EF0004001593D4501CF00003040015A3D4501B8
:100F0000D000912F0130AA31762284314101350879
:100F1000360403198C2F8D2F912FA5314F25843145
:100F2000912FA03041016902E50065084501D2001A
:100F3000520803199C2F9D2FE72F02305806031DDE
:100F4000A22FA32FB52FA0304101E5006508C900ED
:100F5000450152084101E600E7016608CA0067083A
:100F6000CB000130A631312684314E019913450161
:100F7000520841016902E50065084501D600A0302C
:100F80004101E50045015608410165020318C92FDA
:100F9000CA2FDF2FA030A3000230A400450156085D
:100FA0004101A5000230A600A030450156024101D2
:100FB000A700A801A71BA803A9311F21843145015F
:100FC00056084101E5006508E9004E019917003017
:100FD000A8316C208431552E0130A8316C20843129
:100FE000EC2F8431552C41012308FF3E4301CD00F5
:100FF000FF304101243D4301CE00CF01D001080064
:10100000430150084101AE0043014F084101AD00CA
:1010100043014E084101AC0043014D084101AB00C2
:101020004C30B2009530B1007F30B0002D30AF00B1
:10103000AA31A9228831013041012B074301CD009B
:10104000003041012C3D4301CE00003041012D3DD7
:101050004301CF00003041012E3D4301D0004D0837
:101060004101B90043014E084101BA0043014F0854
:101070004101BB00430150084101BC001130BC36A6
:10108000BB0CBA0CB90C890B3F283A08B8003908D8
:10109000B7000800B631ED26883154011F16AE3175
:1010A0004426883105304101E6000F30E500F1307B
:1010B000890B5828E50B5828E60B582800304001CA
:1010C0000E1901304101E800031040010E1E031407
:1010D0000030031801304201E40050011E170130B6
:1010E0009B009A014501C501C601D30150011E14A0
:1010F0001C084101E500450153080139C53E860041
:10110000023087004101650881060130E50065086D
:1011100050019A0701304101E50065084501D307F8
:1011200009305302031C952896287628C53086007E
:1011300002308700403F4101A300413FA4008731B6
:10114000F32788314501C801C80A42016408031D1C
:10115000AA28AB28C928400194119A1105304101F1
:10116000E6000F30E500F130890BB428E50BB42818
:10117000E60BB428031040010E1E031400300318C0
:101180000130DF005F080319C628C728C9284501B8
:10119000C801400194129A12420164080319D1282F
:1011A000D228E128A9317D218831013098310220EF
:1011B00088310130B63152268831B631CF26883198
:1011C0004C294001181315304101E6004B30E50071
:1011D000BE30890BE928E50BE928E60BE928000079
:1011E0004001181705304101E6000F30E500F130ED
:1011F000890BF828E50BF828E60BF8284501480884
:10120000031D032904293929342932304101A3005F
:101210000030A400B6317F2688310130A8316C201F
:10122000883105304101E6000F30E500F130890BCF
:101230001729E50B1729E60B172900304101A300F8
:10124000A400B6317F2688310130A8316C20883166
:1012500005304101E6000F30E500F130890B2E2901
:10126000E50B2E29E60B2E2940018D183829392946
:10127000052941016808031D3E293F294629B5314A
:10128000E7258831B6313C2688314C29A9317D21AA
:101290008831A9314C218831F0304101A3002D3033
:1012A000A400B53164258831B53103258831093072
:1012B0004101E6001E30E500E430890B5D29E50BB5
:1012C0005D29E60B5D29000000304101A300A40068
:1012D000B6317F26883141016808031970297129C8
:1012E00098294501D40103304101E6000830E500AA
:1012F0007730890B7929E50B7929E60B79294501A6
:1013000054084101E500E6016508A3006608A40051
:10131000B6317F26883101304101E500650845017D
:10132000D40715305402031C962997297329AD2937
:1013300009304101E6001E30E500E430890B9E29AA
:10134000E50B9E29E60B9E29000001304101A30018
:101350000030A400B6317F2688314501D501420115
:1013600064080319B52984319F2C8631282E58082A
:101370000F3E8600023087000108A0000430A0362E
:10138000890BBF292008573EC900003003180130DF
:10139000CA00DC2958080F3E860002308700010889
:1013A000A0000430A036890BD2292008303EC900A5
:1013B000003003180130CA004908A0005708580738
:1013C000A10021088600023087002008810001303A
:1013D000A0002008D70758080F3E8600023087007B
:1013E0000F300105A0000A302002031CF829F9295A
:1013F000072A58080F3E86000230870001080F397F
:10140000573ECB00003003180130CC00142A580896
:101410000F3E86000230870001080F39303ECB00B6
:10142000003003180130CC004B08A00057085807C3
:10143000A1002108860002308700200881000130C9
:10144000A0002008D7075408A0005508A100A20159
:10145000A3010830A035A10DA20DA30D890B2A2AE6
:101460005608A400A501A435A50DA435A50DA435E5
:10147000A50DA435A50DA435A50D2408103EA60084
:101480000030253DA7002608A8002708A900003045
:10149000A91BFF30AA00AB00200828044101A700C7
:1014A0004201210829044101A800420122082A041E
:1014B0004101A900420123082B044101AA00420175
:1014C00058084101AB000230AC0042015708AC00A3
:1014D000AD012C084101AD0042012D084101AE00D3
:1014E000AD310025893142015708A000A101200833
:1014F000D4072108D53D4008031D7F2A802A522B9E
:10150000FF3040015B054201A000003040015C0556
:101510004201A100033020062104031D902A912AD4
:10152000522BD7013230A00057085807A1002108DC
:10153000860002308700200881000130A0002008CA
:10154000D7070430A00057085807A10021088600DB
:1015500002308700200881000130A0002008D70752
:10156000580857074101A3000230A400DD30A50050
:101570000130A6000430A7000030A800A9311F21C7
:10158000893104304201A0002008D7073630A0007E
:1015900057085807A100210886000230870020085C
:1015A00081000130A0002008D7070430A0005708B0
:1015B0005807A1002108860002308700200881001A
:1015C0000130A0002008D707580857074101A300A1
:1015D0000230A400D930A5000130A6000430A700D5
:1015E0000030A800A9311F21893104304201A00038
:1015F0002008D7075408A0005508A100A201A301A4
:101600000830A035A10DA20DA30D890B012B5608A2
:10161000A400A501A435A50DA435A50DA435A50DDF
:10162000A435A50DA435A50D2408103EA600003054
:10163000253DA7002608A8002708A9000030A91BFF
:10164000FF30AA00AB00200828044101A700420196
:10165000210829044101A800420122082A0441016D
:10166000A900420123082B044101AA0042015808A5
:101670004101AB000230AC0042015708AC00AD01A3
:101680002C084101AD0042012D084101AE00AD31F1
:101690000025893142015708A000A1012008D40784
:1016A0002108D53DD7013730A00057085807A100C1
:1016B0002108860002308700200881000130A00048
:1016C0002008D70740015D08031D672B682B6E2B90
:1016D00002304201CD000030CE00732B04304201B5
:1016E000CD000030CE004D08A00057085807A100DB
:1016F0002108860002308700200881000130A00008
:101700002008D70757085807A00020088600023095
:1017100087008101810A0130A0002008D70703302B
:10172000A00057085807A100210886000230870052
:10173000200881000130A0002008D70740015D0883
:101740000319A32BA42BC32B3A304201A000570846
:101750005807A10021088600023087002008810078
:101760000130A0002008D7073B30A00057085807D9
:10177000A100210886000230870020088100013086
:10178000A0002008D707FF304201A00057085807E3
:10179000A100210886000230870020088100013066
:1017A000A0002008D7075408A0005508A100A201F6
:1017B000A3010830A035A10DA20DA30D890BDA2BD2
:1017C0005608A400A501A435A50DA435A50DA43582
:1017D000A50DA435A50DA435A50D2408103EA60021
:1017E0000030253DA7002608A8002708A9000030E2
:1017F000A91BFF30AA00AB00200828044101A70064
:101800004201210829044101A800420122082A04BA
:101810004101A900420123082B044101AA00420111
:1018200058084101AB000230AC0042015708AC003F
:10183000AD012C084101AD0042012D084101AE006F
:10184000AD310025893142015708A000A1012008CF
:10185000D4072108D53D5608A000A101A035A10D4F
:10186000A035A10DA035A10DA035A10DA035A10D6C
:101870002008083EA2000030213DA3002208A40059
:101880002308A5000030A51BFF30A600A7000030EC
:1018900024044101A7002430420125044101A8008D
:1018A0000030420126044101A90000304201270412
:1018B0004101AA00420155084101AC00420154080F
:1018C0004101AB00AC31B224893142015308031904
:1018D0006A2C6B2C8E2C34304101A3000230A40002
:1018E0000030A500A6000430A7000030A800A231F7
:1018F000CD22893100304101AA000030A9000F300B
:10190000A8000030A7003430AB000230AC00043037
:10191000AD000030AE00AD310025893142015808DC
:10192000A00020084101C9000030CA00CB004201DC
:101930005608A63131268931420153080319A12CDA
:10194000A22CB62C00304101AA000030A9000F30B3
:10195000A8000030A700DD30AB000130AC0004303F
:10196000AD000030AE00AD310025893108002830CF
:101970004101CA000230CB000130CC000030CD0064
:1019800042014F08AD319F258C3141014A084B047B
:10199000031DCB2CCC2CCD2CDE2F01304201CD07EA
:1019A0000030CE3D440128084201A0002008C900B3
:1019B000490A031DDC2CDD2CDE2CDE2F4908031D1B
:1019C000E22CE32CE42CD32F28304101CA00023052
:1019D000CB000130CC000030CD0042014F08AD31CA
:1019E0009F258C3141014A084B04031DF82CF92C2A
:1019F000FA2CDE2F01304201CD070030CE3D4401EC
:101A000028084201A0002008CA004A080319092D2D
:101A10000A2D322D28304101CA000230CB0042018C
:101A20004A08A000A10120084101CC004201210880
:101A30004101CD0042014F08AD319F258C3142015B
:101A40004A08A200A30141014B0842012306031DDD
:101A50002D2D41014A08420122060319302D312D56
:101A6000322DDE2F4A08A000A1012008CD07210851
:101A7000CE3DB42FD5304101A3000130A400283061
:101A8000A5000230A6000430A7000030A800A9314C
:101A90001F218C31D32FD1304101A3000130A4008C
:101AA0002830A5000230A6000430A7000030A800AE
:101AB000A9311F218C31D32FFF30A0000030A100AD
:101AC0000030A2000030A300440128084201A40015
:101AD000440129084201A50044012A084201A60048
:101AE00044012B084201A7001830A736A60CA50C0C
:101AF000A40C890B752D2408A0052508A10526082E
:101B0000A2052708A3050030A800FF30A900003077
:101B1000AA000030AB00440128084201AC00440197
:101B200029084201AD0044012A084201AE004401E7
:101B30002B084201AF000830AF36AE0CAD0CAC0C38
:101B4000890B9C2D2C08A8052D08A9052E08AA058F
:101B50002F08AB050030B0000030B100FF30B200FC
:101B60000030B300440128084201B40044012908B0
:101B70004201B50044012A084201B60044012B0885
:101B80004201B7000830B435B50DB60DB70D890B5D
:101B9000C32D3408B0053508B1053608B20537083D
:101BA000B3050030B8000030B9000030BA00FF3093
:101BB000BB00440128084201BC004401290842013D
:101BC000BD0044012A084201BE0044012B08420125
:101BD000BF001830BC35BD0DBE0DBF0D890BEA2D01
:101BE0003C08B8053D08B9053E08BA053F08BB05E5
:101BF0003808B0043908B1043A08B2043B08B30409
:101C00003008A8043108A9043208AA043308AB0438
:101C1000200828044001CF00420121082904400186
:101C2000D000420122082A044001D10042012308C9
:101C30002B044001D200D32F440128084201A00008
:101C40002008C400D32FD9304101A3000130A400E3
:101C50002830A5000230A6000430A7000030A800FC
:101C6000A9311F218C31D32FFF30A0000030A100FB
:101C70000030A2000030A300440128084201A40063
:101C8000440129084201A50044012A084201A60096
:101C900044012B084201A7001830A736A60CA50C5A
:101CA000A40C890B4D2E2408A0052508A1052608A3
:101CB000A2052708A3050030A800FF30A9000030C6
:101CC000AA000030AB00440128084201AC004401E6
:101CD00029084201AD0044012A084201AE00440136
:101CE0002B084201AF000830AF36AE0CAD0CAC0C87
:101CF000890B742E2C08A8052D08A9052E08AA0505
:101D00002F08AB050030B0000030B100FF30B2004A
:101D10000030B300440128084201B40044012908FE
:101D20004201B50044012A084201B60044012B08D3
:101D30004201B7000830B435B50DB60DB70D890BAB
:101D40009B2E3408B0053508B1053608B2053708B2
:101D5000B3050030B8000030B9000030BA00FF30E1
:101D6000BB00440128084201BC004401290842018B
:101D7000BD0044012A084201BE0044012B08420173
:101D8000BF001830BC35BD0DBE0DBF0D890BC22E76
:101D90003C08B8053D08B9053E08BA053F08BB0533
:101DA0003808B0043908B1043A08B2043B08B30457
:101DB0003008A8043108A9043208AA043308AB0487
:101DC000200828044001CB004201210829044001D9
:101DD000CC00420122082A044001CD004201230820
:101DE0002B044001CE00D32FFF30A0000030A10013
:101DF0000030A2000030A300440128084201A400E2
:101E0000440129084201A50044012A084201A60014
:101E100044012B084201A7001830A736A60CA50CD8
:101E2000A40C890B0D2F2408A0052508A105260860
:101E3000A2052708A3050030A800FF30A900003044
:101E4000AA000030AB00440128084201AC00440164
:101E500029084201AD0044012A084201AE004401B4
:101E60002B084201AF000830AF36AE0CAD0CAC0C05
:101E7000890B342F2C08A8052D08A9052E08AA05C2
:101E80002F08AB050030B0000030B100FF30B200C9
:101E90000030B300440128084201B400440129087D
:101EA0004201B50044012A084201B60044012B0852
:101EB0004201B7000830B435B50DB60DB70D890B2A
:101EC0005B2F3408B0053508B1053608B205370870
:101ED000B3050030B8000030B9000030BA00FF3060
:101EE000BB00440128084201BC004401290842010A
:101EF000BD0044012A084201BE0044012B084201F2
:101F0000BF001830BC35BD0DBE0DBF0D890B822F33
:101F10003C08B8053D08B9053E08BA053F08BB05B1
:101F20003808B0043908B1043A08B2043B08B304D5
:101F30003008A8043108A9043208AA043308AB0405
:101F4000200828044301B00042012108290443016C
:101F5000B100420122082A044301B20042012308D1
:101F60002B044301B300D32F4908A000A10121088D
:101F7000003A0319BC2FD32F2008013A03193A2D38
:101F8000023A03194B2D303A03195C2D063A031916
:101F90001C2E033A0319232E0C3A0319342E013A4E
:101FA0000319F42ED32F42014C084E02031DDA2FE1
:101FB0004B084D02031CDD2FDE2FB72C42014D08CC
:101FC0004B024101D80042014E084C3B4101D9006F
:101FD00042014F08B531BE258C31FF3040015B0511
:101FE0004201A000003040015C054201A100033025
:101FF00020062104031DFE2FA331982BA4316C2C45
:102000004101C5004508BC00BD01BC35BD0DBC3556
:10201000BD0DBC35BD0DBC35BD0DBC35BD0D3C0881
:10202000083EBE0000303D3DBF003E08C0003F08F6
:10203000C1000030C11BFF30C200C30000304004AB
:10204000A70004304104A80000304204A900003079
:102050004304AA003808AC003708AB00AC31B22406
:10206000903141014508BC00BD01BC35BD0DBC35FA
:10207000BD0DBC35BD0DBC35BD0DBC35BD0D3C0821
:10208000083EBE0000303D3DBF003E08C0003F0896
:10209000C1000030C11BFF30C200C300003040044B
:1020A000A7000C304104A80000304204A900003011
:1020B0004304AA003908AB000130AC000430AD0085
:1020C0000030AE00AD310025903141014508BC0023
:1020D000BD01BC35BD0DBC35BD0DBC35BD0DBC3520
:1020E000BD0DBC35BD0D3C08083EBE0000303D3D79
:1020F000BF003E08C0003F08C1000030C11BFF30D8
:10210000C200C30000304004A70010304104A80002
:1021100000304204A90000304304AA003B08AC0090
:102120003A08AB00AC31B224903141014508BC0003
:10213000BD01BC35BD0DBC35BD0DBC35BD0DBC35BF
:10214000BD0DBC35BD0D3C08083EBE0000303D3D18
:10215000BF003E08C0003F08C1000030C11BFF3077
:10216000C200C30000304004B10001304104B2009D
:1021700000304204B30000304304B4001030C40007
:102180004408B500A8311C20903141014508BC002D
:10219000BD01BC35BD0DBC35BD0DBC35BD0DBC355F
:1021A000BD0DBC35BD0D3C08083EBE0000303D3DB8
:1021B000BF003E08C0003F08C1000030C11BFF3017
:1021C000C200C30004304004A70000304104A8004E
:1021D00000304204A90000304304AA000230C400C9
:1021E0004408AB00AC311D24903141014508BC00CE
:1021F000BD01BC35BD0DBC35BD0DBC35BD0DBC35FF
:10220000BD0DBC35BD0D3C08083EBE0000303D3D57
:10221000BF003E08C0003F08C1000030C11BFF30B6
:10222000C200C30000304004B10001304104B200DC
:1022300000304204B30000304304B400B501B50AD5
:10224000A8311C20903141014508BC00BD01BC35BE
:10225000BD0DBC35BD0DBC35BD0DBC35BD0DBC3592
:10226000BD0D3C08083EBE0000303D3DBF003E08AD
:10227000C0003F08C1000030C11BFF30C200C300D6
:1022800000304004A70003304104A800003042049D
:10229000A90000304304AA00AB01AC311D249031E9
:1022A000223A031D54295529952808004201D600D9
:1022B0005608A000A101A035A10DA035A10DA035A3
:1022C000A10DA035A10DA035A10D2008083EA2004A
:1022D0000030213DA3002208A4002308A5000030FF
:1022E000A51BFF30A600A700003024044101A70071
:1022F0002430420125044101A80000304201260497
:102300004101A9000030420127044101AA00AE3179
:102310009B269131410128084201D500410127083F
:102320004201D4002830A0002008D80058084101FC
:10233000A3000230A4000030A500A6002C30A700A6
:102340000030A800A231CD2291314401A801A80A91
:10235000A901A90A06304201A00020084401AA00F0
:10236000AB01FF304201A0000030A1000030A2000C
:102370000030A300400153084201A400400154086A
:102380004201A500400155084201A600400156083F
:102390004201A7001830A736A60CA50CA40C890B87
:1023A000CB292408A0052508A1052608A205270891
:1023B000A3050030A800FF30A9000030AA000030BB
:1023C000AB00400153084201AC00400154084201F7
:1023D000AD00400155084201AE00400156084201DF
:1023E000AF000830AF36AE0CAD0CAC0C890BF22947
:1023F0002C08A8052D08A9052E08AA052F08AB054D
:102400000030B0000030B100FF30B2000030B30047
:10241000400153084201B400400154084201B50094
:10242000400155084201B600400156084201B7007C
:102430000830B435B50DB60DB70D890B192A34081F
:10244000B0053508B1053608B2053708B3050030C8
:10245000B8000030B9000030BA00FF30BB004001C6
:1024600053084201BC00400154084201BD00400134
:1024700055084201BE00400156084201BF00183015
:10248000BC35BD0DBE0DBF0D890B402A3C08B805FB
:102490003D08B9053E08BA053F08BB053808B00439
:1024A0003908B1043A08B2043B08B3043008A80460
:1024B0003108A9043208AA043308AB042008280410
:1024C0004401AC004201210829044401AD0042014D
:1024D00022082A044401AE00420123082B044401CF
:1024E000AF004201CF0143012B082A04290428042C
:1024F00003197B2A7C2A8F2A40014E08031D8B2A50
:102500004D08031D8B2A4C08031D8B2A3C304B02BF
:1025100003188B2A8C2A8F2A4201CF01CF0A42014D
:102520004F08031D942A962A0130972A0030A000F4
:102530002008C000D001D00A43012B082A04290436
:1025400028040319A42AA52AB42A3308031DB42A8F
:102550003208031DB42A3108031DB42A3C3030026E
:10256000031CB32AB42AC52AFF3040015B0542018F
:10257000A000003040015C054201A10020032104BD
:102580000319C32AC42AC52AD00142015008031DD9
:10259000CA2ACC2A0130CD2A0030A0002008D3005E
:1025A00040015D080319D52AD62ADA2ADC1CD92A6B
:1025B000DA2AF02A34304101A3000230A400DD30D1
:1025C000A5000130A6000430A7000030A800A93102
:1025D0001F219131420153080319EF2AF02AF52AED
:1025E00080304401B2000030B30000304101AA0045
:1025F0000030A9000930A8000030A7004430AB002B
:102600000230AC000630AD000030AE00AC316524C5
:10261000913142015408A0005508A100A201A30174
:102620000830A035A10DA20DA30D890B112B560862
:10263000A400A501A435A50DA435A50DA435A50DAF
:10264000A435A50DA435A50D2408103EA600003024
:10265000253DA7002608A8002708A9000030A91BCF
:10266000FF30AA00AB00200828044101A700420166
:10267000210829044101A800420122082A0441013D
:10268000A900420123082B044101AA004201580875
:102690004101AB000230AC002C30AD000030AE0088
:1026A000AD31002591312C304201D4070030D53DA9
:1026B00058084101A3000230A4000030A500A60084
:1026C0002030A7000030A800A231CD229131420174
:1026D000D101D2015208803AA00080302002031DAF
:1026E000732B06305102031C772B9531A92D9531A0
:1026F000AA2D4201DD0000304101AA000030A900EE
:102700002E30A8000030A700AB01AC311D2493315E
:102710000139031D8C2B8D2B8F2B0230A82D4301EB
:102720002F082E042D042C040319972B982B342CDE
:102730002F0842015C02031DAD2B43012E0842010C
:102740005B02031DAD2B43012D0842015A02031DFC
:10275000AD2B43012C0842015902031CB02BB12BB5
:10276000342C40015D080319B62BB72B2F2C0030F9
:1027700043013D02403003193C02031CC02BC12B16
:102780002F2C023040015B06031DCA2B5C03031D86
:10279000CA2BCB2BD62B00304301AF000030AE004C
:1027A0000030AD000030AC000230A82D03305B06D5
:1027B000033003195C060319DE2BDF2BE02BCB2B38
:1027C0005208031DEE2B5108031DEE2B5008031D6C
:1027D000EE2B3C304F020318EE2BEF2BF02BCB2BC4
:1027E00001304001CE36CD0CCC0CCB0C890BF12B3B
:1027F00001304301B336B20CB10CB00C890BF92B8C
:1028000001304001D236D10CD00CCF0C890B012CF9
:102810004201590840014B074101DD0042015A08BD
:1028200040014C3D4101DE0042015B0840014D3D4D
:102830004101DF0042015C0840014E3D4101E000E2
:1028400060084301AB0041015F084301AA00410158
:102850005E084301A90041015D084301A800FF3063
:102860004001DB05FE30DC0540015C18382C392CBA
:10287000742C42015D0891315621933140015C1462
:10288000420159084101DD0042015A084101DE00C0
:1028900042015B084101DF0042015C084101E000A8
:1028A00043013C084101E10043013D084101E200D0
:1028B000E301E4016108DD076208DE3D6308DF3DF6
:1028C0006408E03D60084301AF0041015F08430137
:1028D000AE0041015E084301AD0041015D084301C6
:1028E000AC00B531AA259331400156084201E200FF
:1028F000400155084201E100400154084201E00056
:10290000400153084201DF005F304101DD005D08F6
:10291000DC0042015D089D31FA2593314101DE0062
:102920005E084201E300630A031D972C982C8E2D4C
:10293000FF30A82D023042016306031DA02CA12CFC
:10294000B52C62084001D600420161084001D50063
:10295000420160084001D40042015F084001D300F9
:102960000330DB000030DC00A72D01304001DB002C
:102970000030DC00A72D053042016306031DC12C89
:10298000C22C562D62084001D60042016108400168
:10299000D500420160084001D40042015F084001B7
:1029A000D30000304101AA000030A9000F30A80078
:1029B0000030A700DD30AB000130AC000430AD00CA
:1029C0000030AE00AD310025933100304101AA0046
:1029D0000030A9000530A8000030A700D530AB00BA
:1029E0000130AC000430AD000030AE00AD31002548
:1029F000933100304101AA000030A9000130A80045
:102A00000030A700D130AB000130AC000430AD0085
:102A10000030AE00AD310025933142015C08430126
:102A2000AF0042015B084301AE0042015A08430176
:102A3000AD00420159084301AC0040014E08031D9E
:102A40002C2D4D08031D2C2D4C08031D2C2D3C3026
:102A50004B0203182C2D2D2D372D3C304301AC0794
:102A60000030AD3D0030AE3D0030AF3D472D400160
:102A70004B084301AC0740014C084301AD3D400108
:102A80004D084301AE3D40014E084301AF3D2F08C4
:102A9000AB002E08AA002D08A9002C08A8000330BE
:102AA0004001DB000330DC000130A82D0630630656
:102AB000031D5B2D5C2D5D2DB52C03304001DB002B
:102AC0000030DC00A72D053042016306031D692D8F
:102AD0006A2DA72D62084001D6004201610840011D
:102AE000D500420160084001D40042015F08400166
:102AF000D3003C30420159074301AC000030420191
:102B00005A3D4301AD00003042015B3D4301AE0040
:102B1000003042015C3D4301AF00A72D40015C083D
:102B2000013A0319972D023A0319A22DA72D5B082C
:102B3000013A03199A2C023A0319BB2C0B3A0319D8
:102B4000632DA72D5B08033A0319BB2CA72D00307A
:102B50000800FF2D42015408A0005508A100A20161
:102B6000A3010830A035A10DA20DA30D890BB22D34
:102B70005608A400A501A435A50DA435A50DA435BE
:102B8000A50DA435A50DA435A50D2408103EA6005D
:102B90000030253DA7002608A8002708A90000301E
:102BA000A91BFF30AA00AB00200828044101A700A0
:102BB0004201210829044101A800420122082A04F7
:102BC0004101A900420123082B044101AA0042014E
:102BD00058084101AB000230AC002030AD0000309D
:102BE000AE00AD310025953120304201D4070030D0
:102BF000D53D0130D1070030D23D93316A2B4201DF
:102C0000D7016330A00057085807A10021088600AB
:102C100002308700200881000130A0002008D7077B
:102C20008230A00057085807A10021088600023012
:102C30008700200881000130A0002008D70753300A
:102C4000A00057085807A10021088600023087001D
:102C5000200881000130A0002008D7076330A000C1
:102C600057085807A1002108860002308700200875
:102C700081000130A0002008D7073530A000570898
:102C80005807A10021088600023087002008810033
:102C90000130A0002008D70757085807A0002008D7
:102CA0008600023087008101810A0130A0002008DF
:102CB000D70740015B084201A00057085807A10050
:102CC0002108860002308700200881000130A00022
:102CD0002008D7073D30A00057085807A100210859
:102CE000860002308700200881000130A000200803
:102CF000D7070730A00057085807A1002108860011
:102D000002308700200881000130A0002008D7078A
:102D100057085807A000200886000230870081016C
:102D2000810A0130A0002008D70700304101AA0025
:102D30000030A9000930A8000030A700420158085F
:102D400057074101AB000230AC000630AD00003047
:102D5000AE00AC316524953106304201A000200858
:102D6000D7070C30A00057085807A100210886009B
:102D700002308700200881000130A0002008D7071A
:102D800000304101A300B830A400B6319826953137
:102D900041012308063E4201A00057085807A10040
:102DA0002108860002308700200881000130A00041
:102DB0002008D70700304101A300B830A400420129
:102DC00058085707B7314D27953100304101A3000E
:102DD000B830A400B631982695314101230842014C
:102DE000A0002008D70758080D3E86000230870053
:102DF0000108A0000430A036890BFB2E0A30200207
:102E0000031C032F042F172F58080D3E8600023095
:102E100087000108A0000430A036890B0C2F200881
:102E2000573EC100003003180130C200292F580856
:102E30000D3E8600023087000108A0000430A03655
:102E4000890B1F2F2008303EC100003003180130CD
:102E5000C2004108A00057085807A10021088600B9
:102E600002308700200881000130A0002008D70729
:102E700058080D3E8600023087000F300105A00083
:102E80000A302002031C452F462F542F58080D3EB0
:102E900086000230870001080F39573EC30000301A
:102EA00003180130C400612F58080D3E860002301F
:102EB000870001080F39303EC3000030031801308D
:102EC000C4004308A00057085807A1002108860045
:102ED00002308700200881000130A0002008D707B9
:102EE00058080E3E8600023087000108A00004301A
:102EF000A036890B782F0A302002031C802F812FE7
:102F0000942F58080E3E8600023087000108A0006A
:102F10000430A036890B892F2008573EC5000030A9
:102F200003180130C600A62F58080E3E8600023056
:102F300087000108A0000430A036890B9C2F2008D0
:102F4000303EC500003003180130C6004508A0001F
:102F500057085807A1002108860002308700200882
:102F600081000130A0002008D70758080E3E8600D7
:102F7000023087000F300105A0000A302002031C38
:102F8000C22FC32FD12F58080E3E86000230870073
:102F900001080F39573EC700003003180130C80040
:102FA000DE2F58080E3E86000230870001080F39D8
:102FB000303EC700003003180130C8004708A000A9
:102FC00057085807A1002108860002308700200812
:102FD00081000130A0002008D70758080F3E860066
:102FE000023087000108A0000430A036890BF52FBD
:102FF0000A302002031CFE2F8931B7298931CA29E2
:103000000134A0344101A30043019012410123087F
:1030100003190B280C2827280C307D01C50015301A
:103020007E019C004312400113127E0144161630AB
:103030009B00C311400193117E01C4150A307D012C
:10304000C6007E014311400113157E014415403036
:1030500043018F009001910101308D00901608000E
:103060004001B9003908A900AA01A935AA0DA9355E
:10307000AA0DA935AA0DA935AA0DA935AA0D2908A9
:10308000083EAB0000302A3DAC002B08AD002C08F8
:10309000AE000030AE1BFF30AF00B00000302D049A
:1030A000F40026302E04F50000302F04F600003026
:1030B0003004F700A0310B20983175084001B600AC
:1030C0007408B50028083602031D68282708350251
:1030D00003186B286C2870283608A8003508A7004C
:1030E00027082804031D752876287928A501A6013C
:1030F00028293908A900AA01A935AA0DA935AA0DC0
:10310000A935AA0DA935AA0DA935AA0D2908083E89
:10311000AB0000302A3DAC002B08AD002C08AE00FF
:103120000030AE1BFF30AF00B00000302D04F400C3
:1031300028302E04F50000302F04F6000030300453
:10314000F700A0310B20983175084001B8007408D1
:10315000B700250826040319AE28AF28EF28370842
:10316000A9003808AA00AB01AC010830A935AA0DA6
:10317000AB0DAC0D890BB6283908AD00AE01AD35ED
:10318000AE0DAD35AE0DAD35AE0DAD35AE0DAD35CB
:10319000AE0D2D08183EAF0000302E3DB0002F08B8
:1031A000B1003008B2000030B21BFF30B300B400F1
:1031B00029083104F4002A083204F5002B083304EE
:1031C000F6002C083404F7002608F9002508F8005A
:1031D0002808FB002708FA00AB31D82398314001BA
:1031E0002708B7072808B83D3908A900AA01A9355A
:1031F000AA0DA935AA0DA935AA0DA935AA0DA9357B
:10320000AA0D2908083EAB0000302A3DAC002B086F
:10321000AD002C08AE000030AE1BFF30AF00B00098
:1032200000302D04F40028302E04F50000302F0467
:10323000F60000303004F7003808F9003708F800CD
:10324000AB315223983140012808A6002708A50079
:1032500008004101C9004908B900BA01B935BA0DE1
:10326000B935BA0DB935BA0DB935BA0DB935BA0D8A
:103270003908083EBB0000303A3DBC003B08BD00A9
:103280003C08BE000030BE1BFF30BF00C000003055
:103290003D04A70026303E04A80000303F04A900EA
:1032A00000304004AA00AE319B2699314101280824
:1032B000C6002708C50038084602031D61293708E3
:1032C000450203186429652969294608B80045089C
:1032D000B70037083804031D6E296F297229B5011C
:1032E000B601212A4908B900BA01B935BA0DB93574
:1032F000BA0DB935BA0DB935BA0DB935BA0D3908A7
:10330000083EBB0000303A3DBC003B08BD003C0815
:10331000BE000030BE1BFF30BF00C00000303D04C7
:10332000A70028303E04A80000303F04A900003068
:103330004004AA00AE319B26993141012808C800FB
:103340002708C700350836040319A729A829E82942
:103350004708B9004808BA00BB01BC010830B935BC
:10336000BA0DBB0DBC0D890BAF294908BD00BE01CC
:10337000BD35BE0DBD35BE0DBD35BE0DBD35BE0D59
:10338000BD35BE0D3D08183EBF0000303E3DC000BB
:103390003F08C1004008C2000030C21BFF30C3001C
:1033A000C40039084104A7003A084204A8003B08B9
:1033B0004304A9003C084404AA003608AC003508C0
:1033C000AB003808AE003708AD00AC316524993148
:1033D00041013708C7073808C83D4908B900BA0194
:1033E000B935BA0DB935BA0DB935BA0DB935BA0D09
:1033F000B935BA0D3908083EBB0000303A3DBC0073
:103400003B08BD003C08BE000030BE1BFF30BF00C3
:10341000C00000303D04A70028303E04A800003062
:103420003F04A90000304004AA004808AC00470847
:10343000AB00AC31B224993141013808B6003708ED
:10344000B50008004101C2004208B900BA01B9350F
:10345000BA0DB935BA0DB935BA0DB935BA0DB93598
:10346000BA0D3908083EBB0000303A3DBC003B08AD
:10347000BD003C08BE000030BE1BFF30BF00C000D6
:1034800000303D04A70004303E04A80000303F0493
:10349000A90000304004AA003808AC003708AB008F
:1034A000AC31B2249A3141014208B900BA01B935B0
:1034B000BA0DB935BA0DB935BA0DB935BA0DB93538
:1034C000BA0D3908083EBB0000303A3DBC003B084D
:1034D000BD003C08BE000030BE1BFF30BF00C00076
:1034E00004303D04A70002303E04A80000303F0431
:1034F000A90000304004AA000A30C1004108AB0016
:10350000AC311D249A3141014208B900BA01B935E4
:10351000BA0DB935BA0DB935BA0DB935BA0DB935D7
:10352000BA0D3908083EBB0000303A3DBC003B08EC
:10353000BD003C08BE000030BE1BFF30BF00C00015
:1035400000303D04B10001303E04B20000303F04C1
:10355000B30000304004B4001030C1004108B50091
:10356000A8311C209A3141014208B900BA01B9358D
:10357000BA0DB935BA0DB935BA0DB935BA0DB93577
:10358000BA0D3908083EBB0000303A3DBC003B088C
:10359000BD003C08BE000030BE1BFF30BF00C000B5
:1035A00004303D04A70000303E04A80000303F0472
:1035B000A90000304004AA00AB01AB0AAC311D24C5
:1035C0009A3141014208B900BA01B935BA0DB9358D
:1035D000BA0DB935BA0DB935BA0DB935BA0D3908C4
:1035E000083EBB0000303A3DBC003B08BD003C0833
:1035F000BE000030BE1BFF30BF00C00000303D04E5
:10360000B10001303E04B20000303F04B30000308E
:103610004004B400B501B50AA8311C209A3141011B
:103620004208B900BA01B935BA0DB935BA0DB93584
:10363000BA0DB935BA0DB935BA0D3908083EBB0017
:1036400000303A3DBC003B08BD003C08BE000030E5
:10365000BE1BFF30BF00C00000303D04A700033098
:103660003E04A80000303F04A90000304004AA0036
:10367000AB01AC311D249A31133A031D402B412B71
:10368000532A08004101D400DD30A3000130A4001A
:10369000FF30A5000030A6000430A7000030A800CD
:1036A000A231CD229B31D9304101A3000130A400C9
:1036B0000030A500A6000430A7000030A800A23109
:1036C000CD229B3141015408CB00CC01CB35CC0D30
:1036D000CB35CC0DCB35CC0DCB35CC0DCB35CC0D86
:1036E0004B08083ECD0000304C3DCE004D08CF00C9
:1036F0004E08D0000030D01BFF30D100D200043083
:103700004F04A7001F305004A80000305104A90046
:1037100000305204AA000230D3005308AB00AC3191
:103720001D249B3141015408CB00CC01CB35CC0D7D
:10373000CB35CC0DCB35CC0DCB35CC0DCB35CC0D25
:103740004B08083ECD0000304C3DCE004D08CF0068
:103750004E08D0000030D01BFF30D100D200043022
:103760004F04A7001E305004A80000305104A900E7
:1037700000305204AA000230D3005308AB00AC3131
:103780001D249B3144304101B7000030B800DD30CA
:10379000CB004B08B9004330BA000030BB005408DE
:1037A000903100209B31883100209B31FF30410156
:1037B0003705CB000F303805CC004B08CD004C0846
:1037C000CE000030CE1BFF30CF00D00000304D06C1
:1037D0004001D300503041014E064001D400B030CA
:1037E00041014F064001D500AE3041015006400175
:1037F000D60056084301B700400155084301B60002
:10380000400154084301B500400153084301B4008E
:1038100041014A08CB004B084001DD0041014A0844
:103820000319132C142C2D2CDD30A3000130A4001F
:103830000030A500A6000430A7000030A800A23187
:10384000CD229B3101304001DB000030DC00043030
:103850004301BC000030BD004A2C0030AA000030FB
:10386000A9000F30A8000030A700DD30AB00013008
:10387000AC000430AD000030AE00AC3165249B31AB
:1038800008304001DB000030DC0040304301BC0068
:103890000030BD00D5304101A3000130A400FF304D
:1038A000A5000030A6000430A7000030A800A23117
:1038B000CD229B31D1304101A3000130A400003062
:1038C000A500A6000430A7000030A800A231CD2238
:1038D0009B3100304301B3000030B2000030B10032
:1038E0000030B00033084001CE00430132084001EF
:1038F000CD00430131084001CC00430130084001B4
:10390000CB004E08D2004D08D1004C08D0004B0827
:10391000CF0000304301AB000030AA000030A90006
:103920000030A80008005430860002308700B8300C
:1039300084000030850006304101B40016001A00F2
:10394000B40B9E2C0030CE000030CD000030CC00F7
:103950000030CB00430164084101C100430163080A
:103960004101C000430162084101BF0043016108F9
:103970004101BE0050011E179B019A014101CA017D
:10398000CA0AD201D10150011E141C084101B40021
:103990003408C8005108031DCE2CCF2CE32C500155
:1039A0001D084101B4003408C900C91AD82CDA2C0A
:1039B0000130DB2C0030B4003408CA0049081F393C
:1039C000B4003408D2004808B4005108CB3E860049
:1039D00087013408810051080319EF2CF02CFE2CCC
:1039E0004A08031DF42CF52CFE2C4808B40051089D
:1039F000023EB83E86008701340881000130B400E1
:103A0000340850019A0701304101B4003408D1074D
:103A100004305102031C0D2D0E2DC32C4A0803192E
:103A2000122D132D362D013050019B0006309A00C7
:103A30004101CF0150011E141C084101B4004F0880
:103A4000033EB83E86008701340881000130B4008F
:103A5000340850019A0701304101B4003408CF07FF
:103A600003304F02031C352D362D1A2D0030AA00CD
:103A70000030A9000930A8000030A700B830AB0022
:103A80000030AC000630AD000030AE00AD31002596
:103A90009C311F304101520603194F2D502D582DD6
:103AA0004C084D044E044B04031D572D582D5A2D20
:103AB0000130F92D0030AA000030A9000F30A80015
:103AC0000030A700CB30AB000030AC000430AD00BC
:103AD0000030AE00AD3100259C314101D0010830ED
:103AE00052020318742D752D9A2D52080319792D41
:103AF0007A2D932D0130B4000030B5005208083CF7
:103B0000890A842DB435B50D890B822D3408FF3E0A
:103B1000B600FF30353DB700FF303606C400003038
:103B20003706C500952DC401C5014508C3004408EA
:103B3000C2009E2DFF30C2000030C3004208B40016
:103B40005008BE3E86008701340881005008BE3E02
:103B5000860087010108B4005008CB3E860087012B
:103B600034088105083052020318B72DB82DBB2D3B
:103B7000C601C701C22D5208F83EC600FF30031827
:103B80000030C7004608B4003408D2000130B40049
:103B90003408D00704305002031CCF2DD02D6F2DD8
:103BA0000030AA000030A9000530A8000030A700AE
:103BB000BE30AB000030AC000430AD000030AE00D1
:103BC000AD3100259C3141014E140030AA00003077
:103BD000A9000130A8000030A700CB30AB000030B6
:103BE000AC000430AD000030AE00AD3100259C319A
:103BF000003008004201CF004F08AA3176229D31E3
:103C0000410136084201C100410135084201C000AE
:103C1000003041020830031940020318102E112E03
:103C2000142EFF30A4316E2C28304101CA0002301E
:103C3000CB000830CC000030CD0042014F08AD3140
:103C40009F259D3141014B084201CE0041014A08A8
:103C50004201CD0000304E02083003194D02031816
:103C6000322E332E342E112E44012D084201A00095
:103C7000A10144012C084201A200A3012208A300D3
:103C8000A20120082204C20021082304C300440129
:103C90002F084201A000A10144012E084201A20008
:103CA000A3012208A300A20120082204CB002108BE
:103CB0002304CC0000304C022C3003194B02031CAF
:103CC000622E632E6A2E4330420643040319692E86
:103CD0006A2E772E4C084101D90042014B08410160
:103CE000D80042014F08B531BE259D31112E283034
:103CF0004101CA000230CB002C30CC000030CD0096
:103D000042014F08AD319F259D3141014B084201D1
:103D1000CE0041014A084201CD0000304E022C3055
:103D200003194D020318952E962EA52E4D084B0211
:103D30004101D80042014E084C3B4101D9004201EB
:103D40004F08B531BE259D31112E023044012806A1
:103D50000319AB2EAC2EBC2E42014D084B02410183
:103D6000D80042014E084C3B4101D90042014F08A6
:103D7000B531BE259D31112EFF304201A00000302B
:103D8000A1000030A2000030A30044012C08420131
:103D9000A40044012D084201A50044012E0842015F
:103DA000A60044012F084201A7001830A736A60C30
:103DB000A50CA40C890BD62E2408A0052508A10566
:103DC0002608A2052708A3050030A800FF30A90097
:103DD0000030AA000030AB0044012C084201AC00C6
:103DE00044012D084201AD0044012E084201AE00FD
:103DF00044012F084201AF000830AF36AE0CAD0CC5
:103E0000AC0C890BFD2E2C08A8052D08A9052E0841
:103E1000AA052F08AB050030B0000030B100FF301C
:103E2000B2000030B30044012C084201B400440148
:103E30002D084201B50044012E084201B60044019C
:103E40002F084201B7000830B435B50DB60DB70DD7
:103E5000890B242F3408B0053508B1053608B205A2
:103E60003708B3050030B8000030B9000030BA00A0
:103E7000FF30BB0044012C084201BC0044012D0866
:103E80004201BD0044012E084201BE0044012F083A
:103E90004201BF001830BC35BD0DBE0DBF0D890BF2
:103EA0004B2F3C08B8053D08B9053E08BA053F0848
:103EB000BB053808B0043908B1043A08B2043B081D
:103EC000B3043008A8043108A9043208AA0433084E
:103ED000AB0420082804C50021082904C6002208D4
:103EE0002A04C70023082B04C800430137084201F5
:103EF0004802031D8B2F4301360842014702031D70
:103F00008B2F4301350842014602031D8B2F4301CD
:103F1000340842014502031C8E2F8F2FA82F48081A
:103F200040015602031DA42F4201470840015502DB
:103F3000031DA42F4201460840015402031DA42F73
:103F400042014508400153020318A72FA82FB82F9C
:103F500042014D084B024101D80042014E084C3B42
:103F60004101D90042014F08B531BE259D31112EC6
:103F700041015C0886000130870042014508C03FCE
:103F80004608C13F4708C23F4808C33F00304101CF
:103F9000AA000030A9000930A8000030A7004A306C
:103FA000AB000230AC000630AD000030AE00AC31EA
:103FB00065249D314A304201A00020084101A30040
:103FC0000630A4000030A5004430AB3195239D316C
:103FD0004101230824040319EE2FF02FA031F32808
:103FE00042014D084B024101D80042014E084C3BB2
:103FF0004101D90042014F08B531BE259D31112E36
:104000000800603051018D008F019101063093004E
:104010009001920108004001A201A20A99127408BD
:10402000F8007508F9007608FA007708FB001030F0
:10403000FB36FA0CF90CF80C890B18287808FC00F0
:104040007C08E9007408F8007508F9007608FA00A1
:104050007708FB000830FB36FA0CF90CF80C890BDA
:104060002B287808FC007C08EA007408F80078081F
:10407000EB006930F0000030F1000530F200003054
:10408000F300B731DA27A031400199162408A100C6
:104090002308A0006D08F800F9016C08FA00FB0184
:1040A0007A08FB00FA0178087A04A30079087B04F7
:1040B000A400220803195D285E286028A2010E28AA
:1040C00021082406031D662820082306031D6928ED
:1040D0006A280E282408F5002308F400080041018E
:1040E000A90042016408031976287728C228BE3047
:1040F00041016902031C7D287E287F28F228680878
:104100000319832884288F282903031D88288928D8
:104110009C288030250203188E288F289C2825088B
:10412000A600690886000230870026088100013059
:10413000A6002608E907F2282508A6000630A636BC
:10414000890B9F282908A7000130A735FF3E031DD2
:10415000A52827352604C038A80069088600023043
:104160008700280881000130A6002608E9072508F5
:104170003F398038A600690886000230870026088B
:1041800081009728410168080319C728C828D32847
:104190002903031DCC28CD28D828803025020318F8
:1041A000D228D328D8282508A931E021A031F22827
:1041B0002508A6000630A636890BDB282908A700AB
:1041C0000130A735FF3E031DE12827352604C038FE
:1041D000A931E021A031410125083F398038A931BA
:1041E000E021A031080040015D080319F828F928F2
:1041F0000929DD304101A3000130A4003830A500B9
:104200000230A6000430A7000030A800A9311F2109
:10421000A031C0304101D8000030D90042014F0820
:10422000B531BE25A031410158084201CD074101F9
:1042300059084201CE3D28304101CA000230CB006E
:104240000430CC000030CD0042014F08AD319F2535
:10425000A03141014A084201CD0741014B0842010A
:10426000CE3D633044012806031D372938294A29E9
:1042700082302906031D3D293E294A2953302A064A
:10428000031D432944294A2963302B060319492970
:104290004A295B2942014D084B024101D8004201E5
:1042A0004E084C3B4101D90042014F08B531BE25B3
:1042B000A0319E31112E4201C401FF3040015B0547
:1042C0004201A000003040015C054201A100033022
:1042D00020062104031D6D296F298F31D32F003053
:1042E0004301B3000030B2000030B1000030B00034
:1042F00033084001CE00430132084001CD004301A4
:1043000031084001CC00430130084001CB006D2949
:10431000F80154011D1D8D298E299B294101680832
:104320000319932994299929F2010B30AF317E2783
:10433000A131F801F80A54019D1C9F29A029B02938
:104340001D121D16410168080319A729A829AE29C5
:10435000F201F20A0B30AF317E27A131F801F80AE1
:1043600054011908F7007708F90078080319B929EA
:10437000BA29BE29A8310020A1311E2A41016808AE
:10438000031DC329C429CD297908F7007708F20055
:104390000130AF317E27A1311E2A40016103031D88
:1043A000D229D329F029AA307906031DD829D92981
:1043B000F029A0300032890BDA2940016008A831C9
:1043C0009820A1310230F70077084001E100790818
:1043D000F7007708F2000130AF317E27A1311E2AA5
:1043E00002306106031DF529F629162A79086006B0
:1043F000031DFB29FC29052A7908F7007708F2003C
:104400000230AF317E27A1310D2A7908F7007708F5
:10441000F2000A30AF317E27A1314001E1010030C6
:10442000F000F100B6312626A1311E2A7908F700E6
:104430007708F2000130AF317E27A1310800410139
:10444000C2008C2A4208B800B901B835B90DB83598
:10445000B90DB835B90DB835B90DB835B90D38083D
:10446000083EBA000030393DBB003A08BC003B08AA
:10447000BD000030BD1BFF30BE00BF0000303C045B
:10448000B10001303D04B20000303E04B300003002
:104490003F04B4000230C0004008B500A8311C2021
:1044A000A231CB2A37080319562A572A8A2A4208EA
:1044B000B800B901B835B90DB835B90DB835B90D71
:1044C000B835B90DB835B90D3808083EBA00003016
:1044D000393DBB003A08BC003B08BD000030BD1BA5
:1044E000FF30BE00BF0000303C04A7000C303D048C
:1044F000A80000303E04A90000303F04AA0037089D
:10450000AB000030AC000430AD000030AE00AC3188
:104510006524A2310130CC2A4208B800B901B8356F
:10452000B90DB835B90DB835B90DB835B90DB835BF
:10453000B90D3808083EBA000030393DBB003A08D2
:10454000BC003B08BD000030BD1BFF30BE00BF00FB
:1045500000303C04A70003303D04A80000303E04B6
:10456000A90000303F04AA00AB01AC311D24A231E8
:104570004101C000C1014108003A0319C02ACB2AF9
:104580004008133A0319222A073A0319CB2A033A9F
:104590000319522ACB2A0030080041012408B00038
:1045A0002308AF0027082804031DD72AD82AD92AB0
:1045B000972B2F08860030088700250881002708E0
:1045C0002F07A9002808303DAA002908FF3EAB00AC
:1045D000FF302A3DAC002B0886002C0887002508F8
:1045E0008100003028020330031927020318F92A3A
:1045F000FA2AFB2A972B2F08013EA9000030303DF4
:10460000AA00290886002A088700250881002F08AB
:10461000023EA9000030303DAA00290886002A0881
:1046200087002508810027082F07A9002808303DAA
:10463000AA002908FE3EAB00FF302A3DAC002B0843
:1046400086002C0887002508810027082F07A9006D
:104650002808303DAA002908FD3EAB00FF302A3D66
:10466000AC002B0886002C0887002508810000304C
:10467000280207300319270203183F2B402B412B38
:10468000972B2F08033EA9000030303DAA002908CF
:1046900086002A0887002508810027082F07A9001F
:1046A0002808303DAA002908FC3EAB00FF302A3D17
:1046B000AC002B0886002C088700250881000030FC
:1046C00028020930031927020318672B682B692B6E
:1046D000972B2F09A9003009AA00A90A0319AA0AD1
:1046E00003302905AD0000302A05AE002D08AF07C4
:1046F0002E08B03D2D08A7022E08A83BFC30A705C8
:10470000FF30A805912B2F08860030088700250868
:1047100081000130A7020030A83B0130AF07003014
:10472000B03D27082804031D962B972B832B0800E8
:1047300040015208031DA72B5108031DA72B500849
:10474000031DA72BF0304F020318A72BA82BB12B6A
:1047500000304001D2000030D1000030D000F030F5
:10476000CF0040014E08031DC12B4D08031DC12B76
:104770004C08031DC12B78304B02031CC02BC12BEE
:10478000D42B400152084E02031DD02B51084D027C
:10479000031DD02B50084C02031DD02B4F084B0299
:1047A000031CD32BD42B012C40014F084201A00045
:1047B000400150084201A100400151084201A200FD
:1047C000400152084201A3000330A336A20CA10C01
:1047D000A00C890BE52B0230A035A10DA20DA30D75
:1047E000890BEC2B23084001CE0042012208400136
:1047F000CD00420121084001CC00420120084001C7
:10480000CB0043013308031D112C3208031D112C6A
:104810003108031D112CD2303002031C102C112C36
:104820002B2C4001520843013302031D272C400169
:10483000510843013202031D272C40015008430157
:104840003102031D272C40014F0843013002031C95
:104850002A2C2B2C6C2C40014F084201A000400157
:1048600050084201A100400151084201A20040014C
:1048700052084201A3000330A336A20CA10CA00CE5
:10488000890B3C2C23084101AE0042012208410162
:10489000AD00420121084101AC0042012008410164
:1048A000AB000030B2000030B1000030B000073083
:1048B000AF00AA31A922A33141012E084301B30060
:1048C00041012D084301B20041012C084301B10010
:1048D00041012B084301B000420144080800410196
:1048E000A101420164080319762C772C8C2CA2308C
:1048F0004001BA000030BB000130BC000030BD00F8
:104900000130AD314E25A43140013A033B04031977
:104910008A2C8B2CBB2C4E2D1D1D8F2C902C9E2C4D
:10492000410168080319952C962C9B2CF2010C3040
:10493000AF317E27A4314101A101A10A42019D1C92
:10494000A22CA32CB42C1D121D16410168080319BA
:10495000AA2CAB2CB12CF201F20A0C30AF317E271D
:10496000A4314101A101A10A420119084001C80076
:1049700048084101A200410121080319C02CC12CA3
:10498000C52CA8310020A4314E2D6808031DC92C68
:10499000CA2C3C2D2208A8319820A4314E2D620843
:1049A000C8000230C836890BD22C48080F39C9001C
:1049B00049084101A000182DE201E101DE01DE0AF3
:1049C0002C2D3F30410122054001C8006208033907
:1049D000C9000530C935FF3E031DEA2C493548049E
:1049E000A8319820A4312C2D3F30410122054001EF
:1049F000C80062080339C9000530C935FF3E031DF0
:104A0000FD2C49354804CA004A08E000AA30600677
:104A1000031D0B2D0C2D0E2DE1012C2DE101E10AC2
:104A20000130F0000030F100B6312626A4312C2DE3
:104A300020084001C800C9014908003A0319212D86
:104A40002C2D4808003A0319DC2C013A0319E12CFB
:104A5000033A0319F42C2C2D4001E2014E2D4101A3
:104A600022084001C8004808E2004E2D41012208FA
:104A7000A8319820A4312C2D2208C0394001C8004B
:104A8000C9014908003A0319462D362D4808803AD5
:104A90000319CF2C403A03192F2D362D08007E1C08
:104AA000532DA4316F2C4101DC014201640803192C
:104AB0005A2D5B2D702DDD304101CA000030CB0036
:104AC0000130CC000030CD000130AD319F25A53143
:104AD00041014A034B0403196E2D6F2D9E2D302E7C
:104AE0001D1D732D742D822D410168080319792D28
:104AF0007A2D7F2DA5010C30A0316F20A531410109
:104B0000DC01DC0A42019D1C862D872D982D1D128B
:104B10001D164101680803198E2D8F2D952DA501B5
:104B2000A50A0C30A0316F20A5314101DC01DC0A5F
:104B3000420119084101D8005808DD005C0803193A
:104B4000A22DA32DA72DB631B226A531302E68088F
:104B5000031DAB2DAC2D1F2E5D08A931AE21A53153
:104B6000302E400162084101D8000230D836890B4E
:104B7000B62D58080F39D9005908DB00FE2D400129
:104B8000E201E101DE01DE0A112E3F305D05D800B1
:104B90004001620803394101D9000530D935FF3E93
:104BA000031DCE2D59355804A931AE21A531112E42
:104BB0003F305D05D8004001620803394101D9004A
:104BC0000530D935FF3E031DE12D59355804DA0073
:104BD0005A084001E000AA306006031DF02DF12DB7
:104BE000F32DE101112EE101E10A01304101A300A1
:104BF0000030A400B6317F26A531112E5B08D80005
:104C0000D9015908003A0319062E112E5808003A06
:104C10000319BF2D013A0319C52D033A0319D82DE5
:104C2000112E4001E201302E5D08D80058084001E5
:104C3000E200302E5D08A931AE21A531112E5D08AC
:104C4000C039D800D9015908003A0319282E1A2E64
:104C50005808803A0319B12D403A0319142E1A2E20
:104C600008004101D6004A084B040319382E392E9A
:104C70004B2E4908CC004C08B5004B08B7004A0839
:104C8000B6005608A7311427A631003A031D492E55
:104C90004A2E4B2E132F41015608CC00CD01CC35A6
:104CA000CD0DCC35CD0DCC35CD0DCC35CD0DCC3598
:104CB000CD0D4C08083ECE0000304D3DCF004E08D3
:104CC000D0004F08D1000030D11BFF30D200D300FC
:104CD00000305004B10001305104B20000305204E1
:104CE000B30000305304B4002030D4005408B500A1
:104CF000A8311C20A63141015608CC00CD01CC358D
:104D0000CD0DCC35CD0DCC35CD0DCC35CD0DCC3537
:104D1000CD0D4C08083ECE0000304D3DCF004E0872
:104D2000D0004F08D1000030D11BFF30D200D3009B
:104D300000305004A70002305104A8000030520493
:104D4000A90000305304AA00AB01AC311D24A631E8
:104D50004101D4005408D500551EAF2EB02EE02ED0
:104D60005608CC00CD01CC35CD0DCC35CD0DCC3594
:104D7000CD0DCC35CD0DCC35CD0D4C08083ECE003B
:104D800000304D3DCF004E08D0004F08D10000301C
:104D9000D11BFF30D200D30004305004A7000230F2
:104DA0005104A80000305204A90000305304AA00A6
:104DB0001830D4005408AB00AC311D24A631132F99
:104DC000D51DE32EE42E7B2E5608CC00CD01CC352C
:104DD000CD0DCC35CD0DCC35CD0DCC35CD0DCC3567
:104DE000CD0D4C08083ECE0000304D3DCF004E08A2
:104DF000D0004F08D1000030D11BFF30D200D300CB
:104E000004305004A70002305104A80000305204BE
:104E1000A90000305304AA000830D4005408AB00A5
:104E2000AC311D24A63108004101C8003608370402
:104E3000031D1B2F1C2F1E2F0130FF2F4808B80009
:104E4000B901B835B90DB835B90DB835B90DB835A2
:104E5000B90DB835B90D3808083EBA000030393DF3
:104E6000BB003A08BC003B08BD000030BD1BFF3052
:104E7000BE00BF0000303C04A70020303D04A80065
:104E800000303E04A90000303F04AA00AE319B264A
:104E9000A73141012808C5002708C400370845028A
:104EA000031D542F360844020318572F582F5A2F2A
:104EB0000030FF2F4808B800B901B835B90DB83532
:104EC000B90DB835B90DB835B90DB835B90D3808C3
:104ED000083EBA000030393DBB003A08BC003B0830
:104EE000BD000030BD1BFF30BE00BF0000303C04E1
:104EF000A70024303D04A80000303E04A900003083
:104F00003F04AA00AE319B26A73141012808C70003
:104F10002708C6004608B8004708B900BA01BB0117
:104F20000830B835B90DBA0DBB0D890B912F480863
:104F3000BC00BD01BC35BD0DBC35BD0DBC35BD0DC6
:104F4000BC35BD0DBC35BD0D3C08103EBE0000306B
:104F50003D3DBF003E08C0003F08C1000030C11BFE
:104F6000FF30C200C30038084004A70039084104DC
:104F7000A8003A084204A9003B084304AA003508E7
:104F8000AB000230AC003708AE003608AD00AD31E2
:104F90000025A73141013608C6073708C73D480834
:104FA000B800B901B835B90DB835B90DB835B90D76
:104FB000B835B90DB835B90D3808083EBA0000301B
:104FC000393DBB003A08BC003B08BD000030BD1BAA
:104FD000FF30BE00BF0000303C04A70024303D0479
:104FE000A80000303E04A90000303F04AA00470892
:104FF000AC004608AB00AC31B224A7310130080048
:105000003230F0000030F100B6312626A8310530EC
:10501000400157074301E50000304001583D43017E
:10502000E60000304001593D4301E70000304001F7
:105030005A3D4301E8000800043041013104A70053
:1050400000303204A80000303304A90000303404DA
:10505000AA003508B6003608AB00AC311D24A831D3
:1050600041013408AA003308A9003208A800310819
:10507000A700AB01AC311D24A831003A031D412823
:105080004228302808005E2823088600240887006C
:10509000010843018C004E010F1C4F2850284B285B
:1050A0000F104101230886002408870043010C08E3
:1050B000810001304101A3070030A43D01304101CE
:1050C000A5020030A63B250A031D6A28260A031DF7
:1050D0006A286B28442808004101BF0040010E1BCC
:1050E00072287328822843014C08031978287928EC
:1050F0007C28B5319725A8314301CC01CC0A410168
:10510000BF01BF0A88310020A83141013F080319BF
:105110008A288B28972805304101BE000F30BD003A
:10512000F130890B9128BD0B9128BE0B9128080006
:10513000F1009B286400400166080319A028A128FB
:105140009A284E01191BA528A628AA2871085401DF
:105150009A00C22819137108F00040016808A03EA7
:10516000860001308700700881000130F00070086F
:10517000E80708306802031CBE28BF28C028E801E1
:105180000130E6024E0119170800F100C82864003A
:10519000400163080319CD28CE28C7284E01191AEB
:1051A000D228D328D728710842019A00EF28191273
:1051B0007108F00040016508203E8600023087003B
:1051C000700881000130F0007008E50708306502C2
:1051D000031CEB28EC28ED28E5010130E3024E0129
:1051E0001916080040019801203099009A010430F6
:1051F0009200C63093007D3094007E01CE01C30141
:105200000C30B800E501FF30C4004030B9007F30F9
:10521000CF00BA01C501D001FF30BB00FF30C6008E
:10522000FF30D100FF30BC00FF30C700FF30D2009C
:105230000830E8000B30980013309300080041015B
:105240002608AE002508AD002408AC002308AB00FA
:105250003F292D0886002E0887000108A90029088B
:10526000AA000130AD070030AE3D2B0886002C08A7
:1052700087002A0881000130AB070030AC3D0130C7
:10528000A7020030A83B270A031D4A29280A031D4C
:105290004A294B29292908000F307E019B000A303A
:1052A0007D01CB004E01991200304101A300203056
:1052B000A400B5314025A9314E0119126F304101CA
:1052C000A3003730A400B5314925A9310830420187
:1052D0009F0090309D0024309E0040309B000330A2
:1052E0009C004001E501E40108304101A5002508CA
:1052F0004001E3004E019916080011307E01A10023
:1053000010307D01CD004E01991301304101A30001
:105310003530A400B5315225A9314E011913923010
:105320004101A3003730A400B5315B25A931183005
:1053300054019F0090309D0024309E0004309B005B
:105340000D309C004001E801E70108304101A50053
:1053500025084001E6004E01991708004101A4000C
:10536000B2296400400166080319B729B829B12998
:105370004E01191BBC29BD29C22941012408540131
:105380009A00DD29191341012408A300400168088F
:10539000A03E8600013087004101230881000130D2
:1053A000A30023084001E80708306802031CD9293C
:1053B000DA29DB29E8010130E6024E01191708005D
:1053C0004101A400E4296400400163080319E929AC
:1053D000EA29E3294E01191AEE29EF29F42941019E
:1053E000240842019A000F2A191241012408A3003F
:1053F00040016508203E86000230870041012308F5
:1054000081000130A30023084001E5070830650250
:10541000031C0B2A0C2A0D2AE5010130E3024E0180
:10542000191608004101C0004008B700B801B7359F
:10543000B80DB735B80DB735B80DB735B80DB735A8
:10544000B80D3708083EB9000030383DBA003908B9
:10545000BB003A08BC000030BC1BFF30BD00BE00E2
:1054600000303B04B10001303C04B20000303D0488
:10547000B30000303E04B4001030BF003F08B50058
:10548000A8311C20AA3108004101C0004008B70023
:10549000B801B735B80DB735B80DB735B80DB73554
:1054A000B80DB735B80D3708083EB9000030383DA3
:1054B000BA003908BB003A08BC000030BC1BFF3002
:1054C000BD00BE0000303B04B10001303C04B2001E
:1054D00000303D04B30000303E04B4000830BF008B
:1054E0003F08B500A8311C20AA3108004101BF00C7
:1054F0003F08B700B801B735B80DB735B80DB735A7
:10550000B80DB735B80DB735B80D3708083EB90036
:105510000030383DBA003908BB003A08BC00003002
:10552000BC1BFF30BD00BE0000303B04A70026308E
:105530003C04A80000303D04A90000303E04AA004D
:10554000AE319B26AA3141012808B6002708B500D4
:10555000080000304101B6000030B5000030B40052
:105560000030B3002B1CB52AB62ABE2A2F08B30779
:105570003008B43D3108B53D3208B63D0130AF3595
:10558000B00DB10DB20D890BBF2A0130AE36AD0C96
:10559000AC0CAB0C890BC62A2E082D042C042B0452
:1055A000031DD32AD42AB22A3608AE003508AD002E
:1055B0003408AC003308AB0008004101B9003908D9
:1055C000B100B201B135B20DB135B20DB135B20D88
:1055D000B135B20DB135B20D3108083EB30000301F
:1055E000323DB4003308B5003408B6000030B61BB5
:1055F000FF30B700B80000303504A7000230360491
:10560000A80000303704A90000303804AA00AB011C
:10561000AC311D24AA310A3903190F2B102B122B80
:105620000130132B00300800400199127408F90072
:105630007508FA007608FB007708FC001030FC368D
:10564000FB0CFA0CF90C890B1F2B7908FD007D0867
:10565000E9007408F9007508FA007608FB0077087D
:10566000FC000830FC36FB0CFA0CF90C890B322BD1
:105670007908FD007D08EA007408F9007908EB005C
:105680007808F9007908EC006930F0000030F1008A
:105690000430F2000030F300B731DA27AB314001BB
:1056A00099160800400199127408A0007508A1001D
:1056B0007608A2007708A3001030A336A20CA10C34
:1056C000A00C890B5D2B2008A4002408E9007408B5
:1056D000A0007508A1007608A2007708A300083092
:1056E000A336A20CA10CA00C890B702B2008A400DF
:1056F0002408EA0074080438A0002008EB007908A8
:10570000A0002008EC007808A0002008ED00693017
:10571000F0000030F1000530F2000030F300B73146
:10572000DA27AB314001991608004101A70027088C
:10573000A6002608A8002308A6002608A900AC2B6E
:105740000130A4020030A53B0130A6002608A807BE
:105750000130A6002608A907240825040319B12B47
:10576000B22BC02B2908860002308700280884004D
:1057700002308500000801060319BF2BC02BA02BA7
:1057800024082504031DC52BC62BC92BA301A40186
:10579000D72B2808860002308700290884000230B1
:1057A000850000080102A300A401031CA403080053
:1057B000400199127408A0007508A1007608A200A3
:1057C0007708A3001030A336A20CA10CA00C890B03
:1057D000E32B2008A4002408E9007408A000750841
:1057E000A1007608A2007708A3000830A336A20C17
:1057F000A10CA00C890BF62B2008A4002408EA00B9
:105800007408A0002008EB006930F0000030F100BF
:105810000330F2000030F300B731DA27AB317908FA
:10582000F1007808F0007B08F3007A08F200B73145
:10583000DA27AB3140019916080040019912410165
:105840002708AC002808AD002908AE002A08AF00E0
:105850001030AF36AE0CAD0CAC0C890B292C2C08DB
:10586000B00030084001E90041012708AC002808D9
:10587000AD002908AE002A08AF000830AF36AE0CE4
:10588000AD0CAC0C890B3E2C2C08B000300840014C
:10589000EA0041012708AC002C084001EB0041015F
:1058A0002B08AC002C084001EC0069304101A3003A
:1058B0000030A4000430A5000030A600A831432029
:1058C000AC31400199166C08080040019912410161
:1058D0002708AF002808B0002908B1002A08B20044
:1058E0001030B236B10CB00CAF0C890B712C2F08F4
:1058F000B30033084001E90041012708AF00280840
:10590000B0002908B1002A08B2000830B236B10C44
:10591000B00CAF0C890B862C2F08B3003308400164
:10592000EA0041012708AF002F084001EB00693071
:105930004101A3000030A4000330A5000030A60000
:10594000A8314320AC3141012C08A4002B08A3004E
:105950002E08A6002D08A500A8314320AC31400137
:10596000991608004001991241012708AD00280846
:10597000AE002908AF002A08B0001030B036AF0CD6
:10598000AE0CAD0C890BBE2C2D08B10031084001C6
:10599000E90041012708AD002808AE002908AF0042
:1059A0002A08B0000830B036AF0CAE0CAD0C890B35
:1059B000D32C2D08B10031084001EA00410127082D
:1059C0000438AD002D084001EB0041012C08AD006A
:1059D0002D084001EC0041012B08AD002D084001CD
:1059E000ED0069304101A3000030A4000530A5009E
:1059F0000030A600A8314320AC31400199160800C0
:105A00004001991241012708AF002808B000290879
:105A1000B1002A08B2001030B236B10CB00CAF0C95
:105A2000890B0C2D2F08B30033084001E900410118
:105A30002708AF002808B0002908B1002A08B200E2
:105A40000830B236B10CB00CAF0C890B212D2F08E9
:105A5000B30033084001EA00410127080438AF00D1
:105A60002F084001EB0069304101A3000030A40081
:105A70000330A5000030A600A8314320AD3141011C
:105A80002C08A4002B08A3002E08A6002D08A500B2
:105A9000B7312C27AD314001991608004001C700ED
:105AA0003B08A6003A08A5003D08A8003C08A7004E
:105AB000470898313020AD3140012608BD00250847
:105AC000BC003C083D04031D662D672D6A2DBA01FC
:105AD000BB019E2D4708BE00BF01BE35BF0DBE35C0
:105AE000BF0DBE35BF0DBE35BF0DBE35BF0D3E0867
:105AF000083EC00000303F3DC1004008C2004108E0
:105B0000C3000030C31BFF30C400C5000430420492
:105B1000F40001304304F50000304404F600003086
:105B20004504F7004030C6004608F800AB311423A6
:105B3000AD3140013D08BB003C08BA0008004101FE
:105B4000D7004B08B6004A08B5004D08B8004C080D
:105B5000B700570899312921AD3141013608CD00F0
:105B60003508CC004C084D04031DB72DB82DBB2DB6
:105B7000CA01CB01EF2D5708CE00CF01CE35CF0D96
:105B8000CE35CF0DCE35CF0DCE35CF0DCE35CF0D99
:105B90004E08083ED00000304F3DD1005008D200E2
:105BA0005108D3000030D31BFF30D400D50004309F
:105BB0005204A70001305304A80000305404A90087
:105BC00000305504AA004030D6005608AB00AC3176
:105BD0001D24AD3141014D08CB004C08CA0008001E
:105BE00001304001D7070030D83D0030D93D0030AA
:105BF000DA3D5E080319FD2DFE2D262EDE01410142
:105C000068080319042E052E432EF2010030AF312F
:105C10007E27AD313230F0000030F100B63126265B
:105C2000AD310230400157074301E500003040012B
:105C3000583D4301E60000304001593D4301E70073
:105C4000003040015A3D4301E800432E43016808FB
:105C500040015A06031D3C2E4301670840015906C6
:105C6000031D3C2E4301660840015806031D3C2ECF
:105C70004301650840015706031D3F2E402E432E69
:105C8000B531D225AD31080000304101A600003009
:105C9000A5000130A4001630A300B731B527AE31FE
:105CA00041012408AC002308AB000A30AD000030ED
:105CB000AE00B7310C27AE3141012C084401DB00A6
:105CC00041012B084401DA0000304101A6000030F8
:105CD000A5000130A4001930A300B731B527AE31BB
:105CE00041012308B7002408B800B901BA013A08F5
:105CF000AE003908AD003808AC003708AB00003002
:105D0000B2000030B1000030B0006430AF00AA3102
:105D1000A922AE3141012E084301EC0041012D08BA
:105D20004301EB0041012C084301EA0041012B082B
:105D30004301E90008004101B201B20A4001991291
:105D400041012708AB002808AC002908AD002A084B
:105D5000AE001030AE36AD0CAC0CAB0C890BAA2EDD
:105D60002B08AF002F084001E90041012708AB00D4
:105D70002808AC002908AD002A08AE000830AE366D
:105D8000AD0CAC0CAB0C890BBF2E2B08AF002F0851
:105D90004001EA0041012708AB002B084001EB005D
:105DA00069304101A3000030A4000530A500003097
:105DB000A600A8314320AE314001991641013408B4
:105DC000B1003308B00040016D084101AB00AC01E7
:105DD00040016C084101AD00AE012D08AE00AD01DF
:105DE0002B082D04B3002C082E04B400320803192C
:105DF000FA2EFB2EFD2EB2019E2E31083406031D15
:105E0000032F30083306031D062F072F9E2E34085C
:105E1000A8003308A70008004101C100402F410835
:105E2000B700B801B735B80DB735B80DB735B80DEF
:105E3000B735B80DB735B80D3708083EB900003092
:105E4000383DBA003908BB003A08BC000030BC1B22
:105E5000FF30BD00BE0000303B04B10001303C0407
:105E6000B20000303D04B30000303E04B4001030F6
:105E7000BF003F08B500A8311C20AF3101307D2F95
:105E80004108B700B801B735B80DB735B80DB7350B
:105E9000B80DB735B80DB735B80D3708083EB9009D
:105EA0000030383DBA003908BB003A08BC00003069
:105EB000BC1BFF30BD00BE0000303B04A700033018
:105EC0003C04A80000303D04A90000303E04AA00B4
:105ED000AB01AC311D24AF314101BF00C00140080E
:105EE000003A0319742F7C2F3F08003A03193E2F04
:105EF0001C3A03190F2F7C2F00300800F6004201D6
:105F000064080319842F852FD02FBE304101690208
:105F1000031C8B2F8C2F8D2FFF2F68080319912FB7
:105F2000922F9D2F7603031D962F972FAA2F803037
:105F3000720203189C2F9D2FAA2F7208F300690884
:105F4000860002308700730881000130F300730877
:105F5000E907FF2F7208F3000630F336890BAD2FE7
:105F60007608F4000130F435FF3E031DB32F74357D
:105F70007304C038F5006908860002308700750890
:105F800081000130F3007308E90772083F39803857
:105F9000F300690886000230870073088100A52F8E
:105FA000410168080319D52FD62FE12F7603031D71
:105FB000DA2FDB2FE62F803072020318E02FE12F5B
:105FC000E62F7208A831C520AF31FF2F7208F30009
:105FD0000630F336890BE92F7608F4000130F435EA
:105FE000FF3E031DEF2F74357304C038A831C52060
:105FF000AF3172083F398038A831C520AF31080071
:106A0200080008004B019E170800BB3052018C00A1
:106A12000800803046019600950194010800163066
:106A220050018C0037308D00080064008001013174
:106A3200890B172D0034FE0012001E00FE0B1D2DC7
:106A42000034AE34B0345334EF34FE34EF34E33038
:106A520041019E009B019C0101309D000800823093
:106A62005301900091010630920093010800FF3417
:106A7200FF34FF340034FF34FF34FF34FF3441016C
:106A820024084301C500410123084301C400080052
:106A9200410124084301C700410123084301C60004
:106AA2000800410124084301C900410123084301B0
:106AB200C8000800410124084301CB00410123081A
:106AC2004301CA000800410124084301EE004101CC
:106AD20023084301ED00080043016D086E04031909
:106AE200732D742D792D6E088A006D080A00B53158
:106AF20008004F01960102309700453098003B3064
:106B0200990001309A0006309B00080001304501CF
:106B120090008F0191010F308D008C014E01901079
:106B2200FF3045018E000F308D0008008B130B13D0
:106B320005304101A4000F30A300F130890B9F2DD5
:106B4200A30B9F2DA40B9F2D7E019B01A101010090
:106B5200080001304301BC35BD0D890BAC2D00305E
:106B62003D02413003193C02031CB82DB92DBD2D45
:106B72004030BC000030BD0008004101DB000030A5
:106B8200CA000030CB005908CD005808CC005B0881
:106B9200AD319F25B53141014B08D9004A08D800D3
:106BA200080041016808031DD72DD82DE02D0130C2
:106BB200F0000030F100B6312626B531E62D003066
:106BC200F000F100B6312626B531080010307D0103
:106BD200BB0003307E019B0002307C01A500A601B0
:106BE200A701A801A9010230AA00AB01AC01AD01C5
:106BF2008030A400080048304B019F00FF309D0008
:106C02009C014E018C12961602304101A3003530D0
:106C1200A400B5316425B53180304B019E000800D7
:106C220041016808031D162E172E1F2E0130A300E6
:106C32000030A400B6317F26B631252E0030A300E5
:106C4200A400B6317F26B63108007108F30070083F
:106C5200F200F336F20CF336F20C7208460195009C
:106C620070080339F2000530F235FF3E031D352E60
:106C72007235940008000A307D01BD0004307E01A7
:106C8200A10082307C01AF000230B000B101B2013C
:106C9200B3010230B400B501B601B7018030AE00D5
:106CA20008004101A30023080319582E592E642E0F
:106CB2007E01C312400193127E01C41638134001B3
:106CC20012137E01391740011817991608004E0158
:106CD2008C1201304301C2070030C33D0030430231
