:100800008431542CAE3401347E1484314E01961E52
:100810000A2C0B2C122C8C1E0E2C0F2C122CB231ED
:100820000A2284310B1F152C162C522C4E01991FB5
:100830001A2C1B2C252C8F1F1E2C1F2C252C430102
:1008400045088A0044080A0084314E01191F292CEA
:100850002A2C342C0F1F2D2C2E2C342C4301430812
:100860008A0042080A0084314E01991E382C392C26
:10087000432C8F1E3C2C3D2C432C430141088A0005
:1008800040080A0084314E01191E472C482C522C76
:100890000F1E4B2C4C2C522C43013F088A003E0863
:1008A0000A0084317E10090040018431572C8831C0
:1008B00000208431ED004101B03179208431EA001B
:1008C000B0317A208431EB00FD308400B0308500F7
:1008D000DE308600013087000A30B0319920843143
:1008E0009F308400B03085005C3086000230870085
:1008F0000630B031992084314B30840000308500BF
:100900002230B031932084314201E001A0308400D4
:10091000013085003E30B031932084312030840096
:10092000023085003C30B03193208431A030840007
:10093000023085003030B031932084317E10400188
:100940008831112830304101CA000230CB0001301B
:10095000CC000030CD0042014F08A931C9218431BB
:1009600041014A084B04031DB62CB72CB82CC92FE3
:1009700001304201CD070030CE3D44013008420134
:10098000A0002008C900490A031DC72CC82CC92C87
:10099000C92F4908031DCD2CCE2CCF2CBE2F3030B3
:1009A0004101CA000230CB000130CC000030CD0044
:1009B00042014F08A931C921843141014A084B0441
:1009C000031DE32CE42CE52CC92F01304201CD0797
:1009D0000030CE3D440130084201A0002008CA008A
:1009E0004A080319F42CF52C1D2D30304101CA00A2
:1009F0000230CB0042014A08A000A10120084101B9
:100A0000CC00420121084101CD0042014F08A9312B
:100A1000C921843142014A08A200A30141014B08C7
:100A200042012306031D182D41014A0842012206F6
:100A300003191B2D1C2D1D2DC92F4A08A000A10133
:100A40002008CD072108CE3D9F2FD2304101A300C1
:100A50000130A4003030A5000230A6000430A70009
:100A60000030A800B431A1248431BE2FCE30410122
:100A7000A3000130A4003030A5000230A6000430ED
:100A8000A7000030A800B431A1248431BE2FFF306C
:100A9000A0000030A1000030A2000030A3004401FB
:100AA00030084201A400440131084201A50044017C
:100AB00032084201A600440133084201A700183061
:100AC000A736A60CA50CA40C890B602D2408A00544
:100AD0002508A1052608A2052708A3050030A800BF
:100AE000FF30A9000030AA000030AB0044013008FC
:100AF0004201AC00440131084201AD00440132081A
:100B00004201AE00440133084201AF000830AF3665
:100B1000AE0CAD0CAC0C890B872D2C08A8052D084C
:100B2000A9052E08AA052F08AB050030B00000303B
:100B3000B100FF30B2000030B30044013008420180
:100B4000B400440131084201B500440132084201B9
:100B5000B600440133084201B7000830B435B50D82
:100B6000B60DB70D890BAE2D3408B0053508B105AB
:100B70003608B2053708B3050030B8000030B900B8
:100B80000030BA00FF30BB00440130084201BC0015
:100B9000440131084201BD00440132084201BE0057
:100BA000440133084201BF001830BC35BD0DBE0DF5
:100BB000BF0D890BD52D3C08B8053D08B9053E0889
:100BC000BA053F08BB053808B0043908B1043A0833
:100BD000B2043B08B3043008A8043108A904320861
:100BE000AA043308AB04200828044001CF004201C6
:100BF000210829044001D000420122082A044001B2
:100C0000D100420123082B044001D200BE2F440131
:100C100030084201A0002008C400BE2FD630410198
:100C2000A3000130A4003030A5000230A60004303B
:100C3000A7000030A800B431A1248431BE2FFF30BA
:100C4000A0000030A1000030A2000030A300440149
:100C500030084201A400440131084201A5004401CA
:100C600032084201A600440133084201A7001830AF
:100C7000A736A60CA50CA40C890B382E2408A005B9
:100C80002508A1052608A2052708A3050030A8000D
:100C9000FF30A9000030AA000030AB00440130084A
:100CA0004201AC00440131084201AD004401320868
:100CB0004201AE00440133084201AF000830AF36B4
:100CC000AE0CAD0CAC0C890B5F2E2C08A8052D08C2
:100CD000A9052E08AA052F08AB050030B00000308A
:100CE000B100FF30B2000030B300440130084201CF
:100CF000B400440131084201B50044013208420108
:100D0000B600440133084201B7000830B435B50DD0
:100D1000B60DB70D890B862E3408B0053508B10520
:100D20003608B2053708B3050030B8000030B90006
:100D30000030BA00FF30BB00440130084201BC0063
:100D4000440131084201BD00440132084201BE00A5
:100D5000440133084201BF001830BC35BD0DBE0D43
:100D6000BF0D890BAD2E3C08B8053D08B9053E08FE
:100D7000BA053F08BB053808B0043908B1043A0881
:100D8000B2043B08B3043008A8043108A9043208AF
:100D9000AA043308AB04200828044001CB00420118
:100DA000210829044001CC00420122082A04400104
:100DB000CD00420123082B044001CE00BE2FFF309E
:100DC000A0000030A1000030A2000030A3004401C8
:100DD00030084201A400440131084201A500440149
:100DE00032084201A600440133084201A70018302E
:100DF000A736A60CA50CA40C890BF82E2408A00578
:100E00002508A1052608A2052708A3050030A8008B
:100E1000FF30A9000030AA000030AB0044013008C8
:100E20004201AC00440131084201AD0044013208E6
:100E30004201AE00440133084201AF000830AF3632
:100E4000AE0CAD0CAC0C890B1F2F2C08A8052D087F
:100E5000A9052E08AA052F08AB050030B000003008
:100E6000B100FF30B2000030B3004401300842014D
:100E7000B400440131084201B50044013208420186
:100E8000B600440133084201B7000830B435B50D4F
:100E9000B60DB70D890B462F3408B0053508B105DE
:100EA0003608B2053708B3050030B8000030B90085
:100EB0000030BA00FF30BB00440130084201BC00E2
:100EC000440131084201BD00440132084201BE0024
:100ED000440133084201BF001830BC35BD0DBE0DC2
:100EE000BF0D890B6D2F3C08B8053D08B9053E08BC
:100EF000BA053F08BB053808B0043908B1043A0800
:100F0000B2043B08B3043008A8043108A90432082D
:100F1000AA043308AB04200828044301A8004201B6
:100F2000210829044301A900420122082A0443019F
:100F3000AA00420123082B044301AB00BE2F49083D
:100F4000A000A1012108003A0319A72FBE2F2008F5
:100F5000013A0319252D023A0319362D303A0319A7
:100F6000472D063A0319072E033A03190E2E0C3AA1
:100F700003191F2E013A0319DF2EBE2F42014C0820
:100F80004E02031DC52F4B084D02031CC82FC92F4D
:100F9000A22C42014D084B024101D80042014E08EB
:100FA0004C3B4101D90042014F08B13175218431D8
:100FB000FF3040015B054201A000003040015C05AC
:100FC0004201A100033020062104031DE92FA231B4
:100FD000382AA3310C2B41016A08031DF02FF12F91
:100FE000F92F0130A3000030A400B2313A2287313A
:100FF000FF2F0030A300A400B2313A22873108004D
:101000003F340130450190008F0191010F308D0078
:101010008C014E019010FF3045018E000F308D0085
:101020000800B231E022883154011F16AA311A2279
:10103000883105304201DE000F30DD00F130890BD0
:101040001F28DD0B1F28DE0B1F28003040010E1962
:1010500001304101EA00031040010E1E031400306C
:10106000031801304201E00050011E1701309B00BF
:101070009A014501D601D701E40150011E141C0854
:101080004201DD00450164080139D63E8600023088
:10109000870042015D0881060130DD005D085001D6
:1010A0009A0701304201DD005D084501E40709307F
:1010B0006402031C5C285D283D28D630860002307F
:1010C0008700403F4101A300413FA400B1312E21E0
:1010D000883150019B0101309A001E141D08420105
:1010E000DD005D084501D40054083F394201DD00B0
:1010F0005D084001ED004501D901D90A42016008AF
:10110000031D83288428A328400194119A110530D7
:101110004201DE000F30DD00F130890B8D28DD0B40
:101120008D28DE0B8D28031040010E1E03140030A5
:10113000031801304301C90049080319A028A12858
:10114000A3284501D901400194129A124201600876
:101150000319AB28AC28BB28B5318C258831013068
:10116000B431CE2488310130B131F4218831B2312B
:10117000C222883126294001181315304201DE00B1
:101180004B30DD00BE30890BC328DD0BC328DE0BDE
:10119000C32800004001181705304201DE000F305F
:1011A000DD00F130890BD228DD0BD228DE0BD228EE
:1011B00045015908031DDD28DE2813290E29323088
:1011C0004101A3000030A400B2313A22883101303D
:1011D0009A310A22883105304201DE000F30DD00ED
:1011E000F130890BF128DD0BF128DE0BF1280030FE
:1011F0004101A300A400B2313A22883101309A3172
:101200000A22883105304201DE000F30DD00F13066
:10121000890B0829DD0B0829DE0B082940018D18F0
:1012200012291329DF2841016A08031D18291929E9
:101230002029B1319E218831B131DE218831262922
:10124000B5318C258831B5315B258831CC304101F1
:10125000A3002A30A400B031EA208831B0317E20CA
:10126000883109304201DE001E30DD00E430890B98
:101270003729DD0B3729DE0B37290000003041010B
:10128000A300A400B2313A22883141016A0803194F
:101290004B298C314D2C8C31782C58080F3E860010
:1012A000023087000108A0000430A036890B5529C0
:1012B0002008573EC900003003180130CA007229C7
:1012C00058080F3E8600023087000108A000043055
:1012D000A036890B68292008303EC9000030031869
:1012E0000130CA004908A00057085807A10021088A
:1012F000860002308700200881000130A00020080D
:10130000D70758080F3E8600023087000F300105CE
:10131000A0000A302002031C8E298F299D2958081D
:101320000F3E86000230870001080F39573ECB0080
:10133000003003180130CC00AA2958080F3E86005F
:101340000230870001080F39303ECB00003003180F
:101350000130CC004B08A00057085807A100210815
:10136000860002308700200881000130A00020089C
:10137000D7075408A0005508A100A201A301083016
:10138000A035A10DA20DA30D890BC0295608A400FC
:10139000A501A435A50DA435A50DA435A50DA4352D
:1013A000A50DA435A50D2408103EA6000030253D4E
:1013B000A7002608A8002708A9000030A91BFF30B5
:1013C000AA00AB00200828044101A700420121081F
:1013D00029044101A800420122082A044101A90070
:1013E000420123082B044101AA004201580841018F
:1013F000AB000230AC0042015708AC00AD012C0834
:101400004101AD0042012D084101AE00A9312A2160
:10141000893142015708A000A1012008D407210802
:10142000D53D4008031D152A162AE82AFF30400141
:101430005B054201A000003040015C054201A100B3
:10144000033020062104031D262A272AE82AD70173
:101450003230A00057085807A1002108860002304A
:101460008700200881000130A0002008D707043041
:10147000A00057085807A100210886000230870005
:10148000200881000130A0002008D707580857071E
:101490004101A3000230A400DA30A5000130A6000B
:1014A0000430A7000030A800B431A12489310430F1
:1014B0004201A0002008D7073630A000570858077F
:1014C000A100210886000230870020088100013039
:1014D000A0002008D7070430A00057085807A10033
:1014E0002108860002308700200881000130A0001A
:1014F0002008D707580857074101A3000230A4006D
:10150000D630A5000130A6000430A7000030A800A6
:10151000B431A124893104304201A0002008D7074A
:101520005408A0005508A100A201A3010830A0356D
:10153000A10DA20DA30D890B972A5608A400A501A1
:10154000A435A50DA435A50DA435A50DA435A50D6F
:10155000A435A50D2408103EA6000030253DA700A7
:101560002608A8002708A9000030A91BFF30AA0000
:10157000AB00200828044101A700420121082904EA
:101580004101A800420122082A044101A9004201A8
:1015900023082B044101AA00420158084101AB0075
:1015A0000230AC0042015708AC00AD012C084101EB
:1015B000AD0042012D084101AE00A9312A21893137
:1015C00042015708A000A1012008D4072108D53DF9
:1015D000D7013730A00057085807A100210886001E
:1015E00002308700200881000130A0002008D707C2
:1015F00040015D08031DFD2AFE2A042B0230420132
:10160000CD000030CE00092B04304201CD00003067
:10161000CE004D08A00057085807A10021088600F9
:1016200002308700200881000130A0002008D70781
:1016300057085807A0002008860002308700810163
:10164000810A0130A0002008D7070330A000570806
:101650005807A10021088600023087002008810079
:101660000130A0002008D70740015D080319392B7D
:101670003A2B592B3A304201A00057085807A100D5
:101680002108860002308700200881000130A00078
:101690002008D7073B30A00057085807A1002108B1
:1016A000860002308700200881000130A000200859
:1016B000D707FF304201A00057085807A1002108B2
:1016C000860002308700200881000130A000200839
:1016D000D7075408A0005508A100A201A3010830B3
:1016E000A035A10DA20DA30D890B702B5608A400E7
:1016F000A501A435A50DA435A50DA435A50DA435CA
:10170000A50DA435A50D2408103EA6000030253DEA
:10171000A7002608A8002708A9000030A91BFF3051
:10172000AA00AB00200828044101A70042012108BB
:1017300029044101A800420122082A044101A9000C
:10174000420123082B044101AA004201580841012B
:10175000AB000230AC0042015708AC00AD012C08D0
:101760004101AD0042012D084101AE00A9312A21FD
:10177000893142015708A000A1012008D40721089F
:10178000D53D5608A000A101A035A10DA035A10DA1
:10179000A035A10DA035A10DA035A10D2008083E52
:1017A000A2000030213DA3002208A4002308A500C8
:1017B0000030A51BFF30A600A70000302404410123
:1017C000A7002430420125044101A8000030420155
:1017D00026044101A9000030420127044101AA006A
:1017E000420155084101AC00420154084101AB00DF
:1017F000A831DC208931420153080319002C012C47
:10180000242C3C304101A3000230A4000030A5008C
:10181000A6000430A7000030A800A031A120893123
:1018200000304101AA000030A9000F30A8000030AC
:10183000A7003C30AB000230AC000430AD000030FB
:10184000AE00A9312A21893142015808A0002008A0
:101850004101C9000030CA00CB004201560898314E
:1018600007208931420153080319372C382C4C2C9E
:1018700000304101AA000030A9000F30A80000305C
:10188000A700DA30AB000130AC000430AD0000300E
:10189000AE00A9312A21893108004501E501153042
:1018A0006502031C542C552C562C8D2C0330420100
:1018B000DE000830DD007730890B5C2CDD0B5C2C02
:1018C000DE0B5C2C450165084201DD00DE015D0890
:1018D0004101A30042015E084101A400B2313A2255
:1018E0008C3101304201DD005D084501E5074F2CD8
:1018F00009304201DE001E30DD00E430890B7E2C11
:10190000DD0B7E2CDE0B7E2C000001304101A3009C
:101910000030A400B2313A228C314501E601420187
:1019200060080319942C952C1F2E4501E801003006
:101930004101AA000030A9003930A8000030A700FA
:10194000AB01B731B8278C314201DD005D0845019C
:10195000D500043055060319AE2CAF2CD92C6808DD
:101960000319B32CB42CBD2CE80100304101A300B5
:10197000A400B2313A228C31C72CE801E80A1430B5
:101980004101A3000030A400B2313A228C310B3067
:101990004201DE002630DD005D30890BCD2CDD0BF1
:1019A000CD2CDE0BCD2C003200309A310A228C3146
:1019B000972C9C3194248C314201DD005D08450157
:1019C000E60000304101AA000030A9001930A8004B
:1019D0000030A7000430AB000030AC00A831DC20A0
:1019E0008C311B2D450168080319F72CF82C012DAB
:1019F000E80100304101A300A400B2313A228C3149
:101A00000B2DE801E80A14304101A3000030A400C6
:101A1000B2313A228C3103304201DE000830DD0061
:101A20007730890B112DDD0B112DDE0B112D0030C0
:101A30009A310A228C3100304101AA000030A900FD
:101A40002E30A8000030A700AB01B731B8278C3189
:101A5000013903192C2D2D2DF22C40015A0841017A
:101A6000C900400159084101C8004001580841011E
:101A7000C700400157084101C60045016608420100
:101A8000DD005D084101CA0000309B3143238C31E9
:101A90004501660803194D2D4E2D1B2E40015A0895
:101AA0004501D300400159084501D20040015808C2
:101AB0004501D100400157084501D000E201E20A8A
:101AC000D801152E530840015A06031D772D4501F4
:101AD000520840015906031D772D45015108400168
:101AE0005806031D772D4501500840015706031D78
:101AF0007A2D7B2DB12D45016208031D802D812D8E
:101B0000B12D40015A084101C90040015908410165
:101B1000C800400158084101C70040015708410171
:101B2000C600CA01CA0A00309B3143238C31B12D53
:101B30004501D801D80AD52D02304001570745018B
:101B4000D00000304001583D4501D1000030400137
:101B5000593D4501D200003040015A3D4501D300B6
:101B6000D52D40015A084201DC00400159084201CC
:101B7000DB00400158084201DA00400157084201E9
:101B8000D900003093317D238C314201DD00DE012C
:101B90005E08003A0319CD2DD52D5D08013A0319D1
:101BA000982D033A03199C2DD52D4501680803197A
:101BB000DA2DDB2DE42DE80100304101A300A40063
:101BC000B2313A228C31EE2DE801E80A143041019D
:101BD000A3000030A400B2313A228C310630420119
:101BE000DE001330DD00AD30890BF42DDD0BF42D5C
:101BF000DE0BF42D003201304201DD005D084501AD
:101C0000E20708306202031C062E072E112EE201A5
:101C100001304001D7070030D83D0030D93D0030B9
:101C2000DA3D00309A310A228C31450158080319F7
:101C30001A2E1B2E622D8731EB278C31272EF63082
:101C40004101A3002630A400B031BD208C315130B9
:101C50004101A3002F30A400B031D8208C318B1764
:101C60000B174001DE01DE0A420160080319392E1C
:101C70003A2EEC2F4501E9010030DD000030DC0098
:101C80000030DB000030DA000030E1000030E0001E
:101C90000030DF000030DE004501610860045F04B1
:101CA0005E040319542E552E7D2E610840015A0200
:101CB000031D6A2E4501600840015902031D6A2E6A
:101CC00045015F0840015802031D6A2E45015E0868
:101CD00040015702031C6D2E6E2E7D2E00304501F3
:101CE000E1000030E0000030DF000030DE000130B5
:101CF000B531BD258C314501E90145015D085C0424
:101D00005B045A040319852E862ECF2E5D084001F0
:101D10005A02031D9B2E45015C0840015902031D18
:101D20009B2E45015B0840015802031D9B2E450177
:101D30005A0840015702031C9E2E9F2EFC2E003095
:101D40004501DD000030DC000030DB000030DA004F
:101D500069080319AC2EAD2EB32E0130B531BD2567
:101D60008C314501E90140015A084101C900400197
:101D700059084101C800400158084101C70040010D
:101D800057084101C600450166084201DD005D08B3
:101D90004101CA0000309B3143238C31FC2E4001AD
:101DA0005A084201DC00400159084201DB004001B1
:101DB00058084201DA00400157084201D9000030BA
:101DC00093317D238C31023A031DE72EE82EFC2E41
:101DD0000230400157074501DA0000304001583D0C
:101DE0004501DB0000304001593D4501DC00003079
:101DF00040015A3D4501DD0045016908031D012FE1
:101E0000022F1C2F0F304101B7002730B8000130DE
:101E10009831EA208C3100304101AA000030A9003D
:101E20002F30A8002C30A700AB01AB0AB731B82780
:101E30008C314501E901E90A6903031D202F212F97
:101E4000322F4101B7010130AE31A3268C31003A67
:101E500003192B2F2C2F322F02304201DD005D0899
:101E60004501E9000230450169060319382F392F71
:101E70003F2F03306906031D3E2F3F2F4B2F0130AC
:101E8000AC3105248C31003A0319472F482F4B2FD2
:101E90004501E901892F023045016906031D512FD3
:101EA000522F892F0130B631BD268C31003A0319EB
:101EB0005A2F5B2F7A2F0130B531EF258C3103304B
:101EC0004201DD005D084501E9000130400157078E
:101ED0004501DE0000304001583D4501DF00003083
:101EE0004001593D4501E000003040015A3D4501A7
:101EF000E100892F0130B63121268C3141013508AE
:101F000036040319842F852F892FA631F6268C31AC
:101F1000892FB03041016B024201DD005D084501AF
:101F2000E30063080319952F962FE72F0230690607
:101F3000031D9B2F9C2FB22FB0304201DD005D08A6
:101F40004101C900450163084201DE00DF015E086E
:101F50004101CA0042015F084101CB0001309831C4
:101F600007208C314E0199134501630841016B0232
:101F70004201DD005D084501E700B0304201DD00AF
:101F80004501670842015D020318C72FC82FDE2FE5
:101F9000B0304101A3000230A400450167084101AF
:101FA000A5000230A600B030450167024101A7003C
:101FB000A801A71BA803B431A1248C3145016708EF
:101FC0004201DD005D084101EB004E019917003030
:101FD0009A310A228C314C2E41016A080319F12FE3
:101FE000F22FF92F8930A3003230A400B031CF2076
:101FF0008C3101309A310A228C31F92F8431542CE2
:10200000BB3052018C0008004101C5004508BC00EE
:10201000BD01BC35BD0DBC35BD0DBC35BD0DBC35E0
:10202000BD0DBC35BD0D3C08083EBE0000303D3D39
:10203000BF003E08C0003F08C1000030C11BFF3098
:10204000C200C30000304004A70004304104A800CF
:1020500000304204A90000304304AA003808AC0054
:102060003708AB00A831DC20903141014508BC00A5
:10207000BD01BC35BD0DBC35BD0DBC35BD0DBC3580
:10208000BD0DBC35BD0D3C08083EBE0000303D3DD9
:10209000BF003E08C0003F08C1000030C11BFF3038
:1020A000C200C30000304004A7000C304104A80067
:1020B00000304204A90000304304AA003908AB00F4
:1020C0000130AC000430AD000030AE00A9312A214F
:1020D000903141014508BC00BD01BC35BD0DBC358A
:1020E000BD0DBC35BD0DBC35BD0DBC35BD0D3C08B1
:1020F000083EBE0000303D3DBF003E08C0003F0826
:10210000C1000030C11BFF30C200C30000304004DA
:10211000A70010304104A80000304204A90000309C
:102120004304AA003B08AC003A08AB00A831DC200D
:10213000903141014508BC00BD01BC35BD0DBC3529
:10214000BD0DBC35BD0DBC35BD0DBC35BD0D3C0850
:10215000083EBE0000303D3DBF003E08C0003F08C5
:10216000C1000030C11BFF30C200C300003040047A
:10217000B10001304104B20000304204B30000302D
:102180004304B4001030C4004408B500B331D02378
:10219000903141014508BC00BD01BC35BD0DBC35C9
:1021A000BD0DBC35BD0DBC35BD0DBC35BD0D3C08F0
:1021B000083EBE0000303D3DBF003E08C0003F0865
:1021C000C1000030C11BFF30C200C3000430400416
:1021D000A70000304104A80000304204A9000030EC
:1021E0004304AA000230C4004408AB00B731B8274A
:1021F000903141014508BC00BD01BC35BD0DBC3569
:10220000BD0DBC35BD0DBC35BD0DBC35BD0D3C088F
:10221000083EBE0000303D3DBF003E08C0003F0804
:10222000C1000030C11BFF30C200C30000304004B9
:10223000B10001304104B20000304204B30000306C
:102240004304B400B501B50AB331D0239031410144
:102250004508BC00BD01BC35BD0DBC35BD0DBC3550
:10226000BD0DBC35BD0DBC35BD0D3C08083EBE00E6
:1022700000303D3DBF003E08C0003F08C1000030B7
:10228000C11BFF30C200C30000304004A700033070
:102290004104A80000304204A90000304304AA0011
:1022A000AB01B731B8279031223A031D582959297B
:1022B000992808004201D6005608A000A101A035C7
:1022C000A10DA035A10DA035A10DA035A10DA03502
:1022D000A10D2008083EA2000030213DA3002208E5
:1022E000A4002308A5000030A51BFF30A600A7000E
:1022F000003024044101A70024304201250441019B
:10230000A8000030420126044101A900003042012A
:1023100027044101AA00AB319423913141012808DF
:102320004201D500410127084201D4003030A0000D
:102330002008D80058084101A3000230A400003052
:10234000A500A6002C30A7000030A800A031A120D5
:1023500091314401B001B00AB101B10A0630420125
:10236000A00020084401B200B301FF304201A000E8
:102370000030A1000030A2000030A300400153084B
:102380004201A400400154084201A5004001550843
:102390004201A600400156084201A7001830A736A6
:1023A000A60CA50CA40C890BCF292408A005250890
:1023B000A1052608A2052708A3050030A800FF30C4
:1023C000A9000030AA000030AB00400153084201D0
:1023D000AC00400154084201AD00400155084201E3
:1023E000AE00400156084201AF000830AF36AE0CD7
:1023F000AD0CAC0C890BF6292C08A8052D08A905F5
:102400002E08AA052F08AB050030B0000030B1003F
:10241000FF30B2000030B300400153084201B40065
:10242000400154084201B500400155084201B60080
:10243000400156084201B7000830B435B50DB60D5D
:10244000B70D890B1D2A3408B0053508B1053608CB
:10245000B2053708B3050030B8000030B9000030CD
:10246000BA00FF30BB00400153084201BC004001EC
:1024700054084201BD00400155084201BE00400120
:1024800056084201BF001830BC35BD0DBE0DBF0D52
:10249000890B442A3C08B8053D08B9053E08BA0531
:1024A0003F08BB053808B0043908B1043A08B20443
:1024B0003B08B3043008A8043108A9043208AA0470
:1024C0003308AB04200828044401B4004201210869
:1024D00029044401B500420122082A044401B6003F
:1024E000420123082B044401B7004201CF014301FC
:1024F000230822042104200403197F2A802A932A16
:1025000040014E08031D8F2A4D08031D8F2A4C08D9
:10251000031D8F2A3C304B0203188F2A902A932ADE
:102520004201CF01CF0A42014F08031D982A9A2A7F
:1025300001309B2A0030A0002008C000D001D00A42
:10254000430123082204210420040319A82AA92AEC
:10255000B82A2B08031DB82A2A08031DB82A2908FF
:10256000031DB82A3C302802031CB72AB82AC92AFE
:10257000FF3040015B054201A000003040015C05D6
:102580004201A100200321040319C72AC82AC92A2D
:10259000D00142015008031DCE2AD02A0130D12A91
:1025A0000030A0002008D30040015D080319D92A9B
:1025B000DA2ADE2ADC1CDD2ADE2AF42A3C3041013C
:1025C000A3000230A400DA30A5000130A6000430D8
:1025D000A7000030A800B431A12491314201530872
:1025E0000319F32AF42AF92A80304401BA00003092
:1025F000BB0000304101AA000030A9000930A8004A
:102600000030A7004C30AB000230AC000630AD000B
:102610000030AE00A8318F20913142015408A00053
:102620005508A100A201A3010830A035A10DA20DFB
:10263000A30D890B152B5608A400A501A435A50DE3
:10264000A435A50DA435A50DA435A50DA435A50D5E
:102650002408103EA6000030253DA7002608A8004B
:102660002708A9000030A91BFF30AA00AB002008F2
:1026700028044101A7004201210829044101A800C2
:10268000420122082A044101A900420123082B0427
:102690004101AA00420158084101AB000230AC00E0
:1026A0002C30AD000030AE00A9312A2191312C3000
:1026B0004201D4070030D53D58084101A300023043
:1026C000A4000030A500A6002030A7000030A8001C
:1026D000A031A12091314201D101D2015208803AAA
:1026E000A00080302002031D772B06305102031C0E
:1026F0007B2B9531A92D9531AA2D4101E4000030A5
:10270000AA000030A9002E30A8000030A700AB01BD
:10271000B731B82793310139031D8F2B902B922BA2
:102720000230A82D43012708260425042404031998
:102730009A2B9B2B372C270842015C02031DB02BE0
:102740004301260842015B02031DB02B430125080B
:1027500042015A02031DB02B4301240842015902D1
:10276000031CB32BB42B372C40015D080319B92B84
:10277000BA2B322C003043013502403003193402A9
:10278000031CC32BC42B322C023040015B06031DFB
:10279000CD2B5C03031DCD2BCE2BD92B0030430159
:1027A000A7000030A6000030A5000030A4000230D1
:1027B000A82D03305B06033003195C060319E12BD7
:1027C000E22BE32BCE2B5208031DF12B5108031DE6
:1027D000F12B5008031DF12B3C304F020318F12B55
:1027E000F22BF32BCE2B01304001CE36CD0CCC0C8E
:1027F000CB0C890BF42B01304301AB36AA0CA90C8E
:10280000A80C890BFC2B01304001D236D10CD00C26
:10281000CF0C890B042C4201590840014B074101A0
:10282000DC0042015A0840014C3D4101DD004201FB
:102830005B0840014D3D4101DE0042015C08400162
:102840004E3D4101DF005F084301A30041015E08E6
:102850004301A20041015D084301A10041015C0860
:102860004301A000FF304001DB05FE30DC054001E4
:102870005C183B2C3C2C772C4101640891315A2187
:10288000933140015C14420159084101DC004201CE
:102890005A084101DD0042015B084101DE004201AE
:1028A0005C084101DF00430134084101E0004301BD
:1028B00035084101E100E201E3016008DC0761083D
:1028C000DD3D6208DE3D6308DF3D5F084301A70090
:1028D00041015E084301A60041015D084301A500D6
:1028E00041015C084301A400B131612193314001F1
:1028F00056084101E800400155084101E700400148
:1029000054084101E600400153084101E500E5306B
:10291000DC005C08DB0064089D31FB25933141013C
:10292000DD005D08E900690A031D972C982C8E2DA7
:10293000FF30A82D023041016906031DA02CA12CF7
:10294000B52C68084001D600410167084001D50058
:10295000410166084001D400410165084001D300EF
:102960000330DB000030DC00A72D01304001DB002C
:102970000030DC00A72D053041016906031DC12C84
:10298000C22C562D68084001D6004101670840015D
:10299000D500410166084001D400410165084001AD
:1029A000D30000304101AA000030A9000F30A80078
:1029B0000030A700DA30AB000130AC000430AD00CD
:1029C0000030AE00A9312A21933100304101AA0024
:1029D0000030A9000530A8000030A700D230AB00BD
:1029E0000130AC000430AD000030AE00A9312A2126
:1029F000933100304101AA000030A9000130A80045
:102A00000030A700CE30AB000130AC000430AD0088
:102A10000030AE00A9312A21933142015C08430104
:102A2000A70042015B084301A60042015A08430186
:102A3000A500420159084301A40040014E08031DAE
:102A40002C2D4D08031D2C2D4C08031D2C2D3C3026
:102A50004B0203182C2D2D2D372D3C304301A4079C
:102A60000030A53D0030A63D0030A73D472D400178
:102A70004B084301A40740014C084301A53D400118
:102A80004D084301A63D40014E084301A73D2708DC
:102A9000A3002608A2002508A1002408A0000330F6
:102AA0004001DB000330DC000130A82D0630690650
:102AB000031D5B2D5C2D5D2DB52C03304001DB002B
:102AC0000030DC00A72D053041016906031D692D8A
:102AD0006A2DA72D68084001D60041016708400112
:102AE000D500410166084001D4004101650840015C
:102AF000D3003C30420159074301A4000030420199
:102B00005A3D4301A500003042015B3D4301A60050
:102B1000003042015C3D4301A700A72D40015C0845
:102B2000013A0319972D023A0319A22DA72D5B082C
:102B3000013A03199A2C023A0319BB2C0B3A0319D8
:102B4000632DA72D5B08033A0319BB2CA72D00307A
:102B50000800FF2D42015408A0005508A100A20161
:102B6000A3010830A035A10DA20DA30D890BB22D34
:102B70005608A400A501A435A50DA435A50DA435BE
:102B8000A50DA435A50DA435A50D2408103EA6005D
:102B90000030253DA7002608A8002708A90000301E
:102BA000A91BFF30AA00AB00200828044101A700A0
:102BB0004201210829044101A800420122082A04F7
:102BC0004101A900420123082B044101AA0042014E
:102BD00058084101AB000230AC002030AD0000309D
:102BE000AE00A9312A21953120304201D4070030AE
:102BF000D53D0130D1070030D23D93316E2B4201DB
:102C0000D7016330A00057085807A10021088600AB
:102C100002308700200881000130A0002008D7077B
:102C20008230A00057085807A10021088600023012
:102C30008700200881000130A0002008D70753300A
:102C4000A00057085807A10021088600023087001D
:102C5000200881000130A0002008D7076330A000C1
:102C600057085807A1002108860002308700200875
:102C700081000130A0002008D7073530A000570898
:102C80005807A10021088600023087002008810033
:102C90000130A0002008D70757085807A0002008D7
:102CA0008600023087008101810A0130A0002008DF
:102CB000D70740015B084201A00057085807A10050
:102CC0002108860002308700200881000130A00022
:102CD0002008D7073D30A00057085807A100210859
:102CE000860002308700200881000130A000200803
:102CF000D7070730A00057085807A1002108860011
:102D000002308700200881000130A0002008D7078A
:102D100057085807A000200886000230870081016C
:102D2000810A0130A0002008D70700304101AA0025
:102D30000030A9000930A8000030A700420158085F
:102D400057074101AB000230AC000630AD00003047
:102D5000AE00A8318F20953106304201A000200836
:102D6000D7070C30A00057085807A100210886009B
:102D700002308700200881000130A0002008D7071A
:102D800000304101A300B830A400B2315322953184
:102D900041012308063E4201A00057085807A10040
:102DA0002108860002308700200881000130A00041
:102DB0002008D70700304101A300B830A400420129
:102DC00058085707B3314023953100304101A30023
:102DD000B830A400B2315322953141012308420199
:102DE000A0002008D70758080D3E86000230870053
:102DF0000108A0000430A036890BFB2E0A30200207
:102E0000031C032F042F172F58080D3E8600023095
:102E100087000108A0000430A036890B0C2F200881
:102E2000573EC100003003180130C200292F580856
:102E30000D3E8600023087000108A0000430A03655
:102E4000890B1F2F2008303EC100003003180130CD
:102E5000C2004108A00057085807A10021088600B9
:102E600002308700200881000130A0002008D70729
:102E700058080D3E8600023087000F300105A00083
:102E80000A302002031C452F462F542F58080D3EB0
:102E900086000230870001080F39573EC30000301A
:102EA00003180130C400612F58080D3E860002301F
:102EB000870001080F39303EC3000030031801308D
:102EC000C4004308A00057085807A1002108860045
:102ED00002308700200881000130A0002008D707B9
:102EE00058080E3E8600023087000108A00004301A
:102EF000A036890B782F0A302002031C802F812FE7
:102F0000942F58080E3E8600023087000108A0006A
:102F10000430A036890B892F2008573EC5000030A9
:102F200003180130C600A62F58080E3E8600023056
:102F300087000108A0000430A036890B9C2F2008D0
:102F4000303EC500003003180130C6004508A0001F
:102F500057085807A1002108860002308700200882
:102F600081000130A0002008D70758080E3E8600D7
:102F7000023087000F300105A0000A302002031C38
:102F8000C22FC32FD12F58080E3E86000230870073
:102F900001080F39573EC700003003180130C80040
:102FA000DE2F58080E3E86000230870001080F39D8
:102FB000303EC700003003180130C8004708A000A9
:102FC00057085807A1002108860002308700200812
:102FD00081000130A0002008D70758080F3E860066
:102FE000023087000108A0000430A036890BF52FBD
:102FF0000A302002031CFE2F89314D2989316029B6
:10300000031041019D1C03140030093D08004101DB
:10301000D6004A084B0403190E280F282128490816
:10302000CC004C08B5004B08B7004A08B60056085B
:10303000A3310F239831003A031D1F28202821288F
:10304000E92841015608CC00CD01CC35CD0DCC3559
:10305000CD0DCC35CD0DCC35CD0DCC35CD0D4C08B1
:10306000083ECE0000304D3DCF004E08D0004F0846
:10307000D1000030D11BFF30D200D300003050040B
:10308000B10001305104B20000305204B3000030EE
:103090005304B4002030D4005408B500B331D02319
:1030A000983141015608CC00CD01CC35CD0DCC3541
:1030B000CD0DCC35CD0DCC35CD0DCC35CD0D4C0851
:1030C000083ECE0000304D3DCF004E08D0004F08E6
:1030D000D1000030D11BFF30D200D30000305004AB
:1030E000A70002305104A80000305204A9000030AB
:1030F0005304AA00AB01B731B82798314101D4007D
:103100005408D500551E85288628B6285608CC00B8
:10311000CD01CC35CD0DCC35CD0DCC35CD0DCC354F
:10312000CD0DCC35CD0D4C08083ECE0000304D3DC8
:10313000CF004E08D0004F08D1000030D11BFF3027
:10314000D200D30004305004A70002305104A8007C
:1031500000305204A90000305304AA001830D400F3
:103160005408AB00B731B8279831E928D51DB928E4
:10317000BA2851285608CC00CD01CC35CD0DCC3520
:10318000CD0DCC35CD0DCC35CD0DCC35CD0D4C0880
:10319000083ECE0000304D3DCF004E08D0004F0815
:1031A000D1000030D11BFF30D200D30004305004D6
:1031B000A70002305104A80000305204A9000030DA
:1031C0005304AA000830D4005408AB00B731B82724
:1031D000983108004101C2004208B900BA01B9356E
:1031E000BA0DB935BA0DB935BA0DB935BA0DB9350B
:1031F000BA0D3908083EBB0000303A3DBC003B0820
:10320000BD003C08BE000030BE1BFF30BF00C00048
:1032100000303D04A70004303E04A80000303F0405
:10322000A90000304004AA003808AC003708AB0001
:10323000A831DC20983141014208B900BA01B93502
:10324000BA0DB935BA0DB935BA0DB935BA0DB935AA
:10325000BA0D3908083EBB0000303A3DBC003B08BF
:10326000BD003C08BE000030BE1BFF30BF00C000E8
:1032700004303D04A70002303E04A80000303F04A3
:10328000A90000304004AA000A30C1004108AB0088
:10329000B731B827983141014208B900BA01B935B0
:1032A000BA0DB935BA0DB935BA0DB935BA0DB9354A
:1032B000BA0D3908083EBB0000303A3DBC003B085F
:1032C000BD003C08BE000030BE1BFF30BF00C00088
:1032D00000303D04B10001303E04B20000303F0434
:1032E000B30000304004B4001030C1004108B50004
:1032F000B331D023983141014208B900BA01B93540
:10330000BA0DB935BA0DB935BA0DB935BA0DB935E9
:10331000BA0D3908083EBB0000303A3DBC003B08FE
:10332000BD003C08BE000030BE1BFF30BF00C00027
:1033300004303D04A70000303E04A80000303F04E4
:10334000A90000304004AA00AB01AB0AB731B8278E
:10335000983141014208B900BA01B935BA0DB93501
:10336000BA0DB935BA0DB935BA0DB935BA0D390836
:10337000083EBB0000303A3DBC003B08BD003C08A5
:10338000BE000030BE1BFF30BF00C00000303D0457
:10339000B10001303E04B20000303F04B300003001
:1033A0004004B400B501B50AB331D02398314101CE
:1033B0004208B900BA01B935BA0DB935BA0DB935F7
:1033C000BA0DB935BA0DB935BA0D3908083EBB008A
:1033D00000303A3DBC003B08BD003C08BE00003058
:1033E000BE1BFF30BF00C00000303D04A70003300B
:1033F0003E04A80000303F04A90000304004AA00A9
:10340000AB01B731B8279831133A031D082A092AAE
:103410001B2908004101DB0040010E1B102A112A64
:10342000202A430146080319162A172A1A2AB131FD
:103430004E219A314301C601C60A4101DB01DB0A74
:10344000A83145209A3143014608031D282A292A1C
:10345000302BBD2A03308400843085000008D90059
:1034600059084501A000A101A10A02304101D9007B
:103470005908E000DA2A50011E1701309B009A011A
:103480004101DC0150011E141C084101D9005C08F7
:10349000A03E860002308700590881000130D90023
:1034A000590850019A0701304101D9005908DC0739
:1034B00009305C02031C5D2A5E2A422A0930D900C9
:1034C0005908E000DA2A50011E179B019A014101B8
:1034D000DD0150011E141C084101D9005D08A13E08
:1034E0008600023087005908810050011D08410103
:1034F000D9005D08A03E860002308700590881008F
:103500000130D900590850019A0702304101D90011
:103510005908DD0708305D02031C8F2A902A692AAA
:103520000830D9005908E000DA2AA03101209A3188
:1035300041014608DF004508DE005F08D900590850
:103540004501A00041015E08D90059084501A100CC
:10355000352AAD317D259A3141014608DF00450805
:10356000DE009D2AA1316C219A3141014608DF001D
:103570004508DE009D2AE001DA2A66084101D900EB
:10358000DA015A08003A0319C62ABB2A5908003A38
:1035900003192A2A013A03193B2A033A0319632A19
:1035A000013A0319952A073A0319A92A013A03197E
:1035B000B22ABB2AFF30D90059084301E600410175
:1035C00060080319E42AE52A302B4301C7014101B1
:1035D0006008D9005908A5000330AC31F9249A31AC
:1035E000420160080319F52AF62A162B0F2B430116
:1035F0004708A03E86000230870001084101D9003B
:103600005908A5000330AC31F9249A310130410149
:10361000D90059084301C70701304101E0024101C7
:103620006008031D142B152BF72A1C2B4101600881
:10363000D90059084301C80041015B080319212B37
:10364000222B302BDB0102304101DA000430D9009B
:10365000BA30890B292BD90B292BDA0B292B000027
:1036600041015B080319352B362B422B05304101F4
:10367000DA000F30D900F130890B3C2BD90B3C2BF1
:10368000DA0B3C2B08004101D400DA30A3000130F2
:10369000A400FF30A5000030A6000430A7000030D1
:1036A000A800A031A1209B31D6304101A3000130F8
:1036B000A4000030A500A6000430A7000030A80038
:1036C000A031A1209B3141015408CB00CC01CB3566
:1036D000CC0DCB35CC0DCB35CC0DCB35CC0DCB3586
:1036E000CC0D4B08083ECD0000304C3DCE004D08BF
:1036F000CF004E08D0000030D01BFF30D100D200E8
:1037000004304F04A7001F305004A80000305104BB
:10371000A90000305204AA000230D3005308AB00C5
:10372000B731B8279B3141015408CB00CC01CB35D0
:10373000CC0DCB35CC0DCB35CC0DCB35CC0DCB3525
:10374000CC0D4B08083ECD0000304C3DCE004D085E
:10375000CF004E08D0000030D01BFF30D100D20087
:1037600004304F04A7001E305004A800003051045C
:10377000A90000305204AA000230D3005308AB0065
:10378000B731B8279B3144304101B7000030B80051
:10379000DA30CB004B08B9004330BA000030BB0030
:1037A0005408903104209B31A83145209B31FF30D3
:1037B00041013705CB000F303805CC004B08CD0058
:1037C0004C08CE000030CE1BFF30CF00D0000030C0
:1037D0004D064001D300503041014E064001D40057
:1037E000B03041014F064001D500AE3041015006D6
:1037F0004001D60056084301AF004001550843017F
:10380000AE00400154084301AD004001530843019C
:10381000AC0041014A08CB004B084001DD004101EA
:103820004A080319142C152C2E2CDA30A300013071
:10383000A4000030A500A6000430A7000030A800B6
:10384000A031A1209B3101304001DB000030DC00C1
:1038500004304301B4000030B5004B2C0030AA0006
:103860000030A9000F30A8000030A700DA30AB000C
:103870000130AC000430AD000030AE00A8318F2024
:103880009B3108304001DB000030DC004030430158
:10389000B4000030B500D2304101A3000130A400D3
:1038A000FF30A5000030A6000430A7000030A800BB
:1038B000A031A1209B31CE304101A3000130A400F2
:1038C0000030A500A6000430A7000030A800A031F9
:1038D000A1209B3100304301AB000030AA00003032
:1038E000A9000030A8002B084001CE0043012A089F
:1038F0004001CD00430129084001CC0043012808C4
:103900004001CB004E08D2004D08D1004C08D00039
:103910004B08CF0000304301A3000030A20000306C
:10392000A1000030A00008005C3086000230870053
:10393000B83084000030850006304101B400160024
:103940001A00B40B9F2C0030CE000030CD000030A8
:10395000CC000030CB00430161084101C1004301AC
:1039600060084101C00043015F084101BF004301FD
:103970005E084101BE0050011E179B019A014101E2
:10398000CA01CA0AD201D10150011E141C0841010A
:10399000B4003408C8005108031DCF2CD02CE42CEF
:1039A00050011D084101B4003408C900C91AD92CBE
:1039B000DB2C0130DC2C0030B4003408CA0049088C
:1039C0001F39B4003408D2004808B4005108CB3E77
:1039D000860087013408810051080319F02CF12C6E
:1039E000FF2C4A08031DF52CF62CFF2C4808B400C8
:1039F0005108023EB83E860087013408810001303C
:103A0000B400340850019A0701304101B400340871
:103A1000D10704305102031C0E2D0F2DC42C4A086F
:103A20000319132D142D372D013050019B00063042
:103A30009A004101CF0150011E141C084101B4003D
:103A40004F08033EB83E86008701340881000130EC
:103A5000B400340850019A0701304101B400340821
:103A6000CF0703304F02031C362D372D1B2D00309E
:103A7000AA000030A9000930A8000030A700B83023
:103A8000AB000030AC000630AD000030AE00A93114
:103A90002A219C311F30410152060319502D512D0E
:103AA000592D4C084D044E044B04031D582D592D1F
:103AB0005B2D0130FA2D0030AA000030A9000F3034
:103AC000A8000030A700CB30AB000030AC000430C1
:103AD000AD000030AE00A9312A219C314101D00156
:103AE000083052020318752D762D9B2D52080319AC
:103AF0007A2D7B2D942D0130B4000030B500520892
:103B0000083C890A852DB435B50D890B832D340801
:103B1000FF3EB600FF30353DB700FF303606C4002B
:103B200000303706C500962DC401C5014508C30005
:103B30004408C2009F2DFF30C2000030C30042087D
:103B4000B4005008BE3E860087013408810050084A
:103B5000BE3E860087010108B4005008CB3E8600B7
:103B6000870134088105083052020318B82DB92D99
:103B7000BC2DC601C701C32D5208F83EC600FF3058
:103B800003180030C7004608B4003408D2000130E2
:103B9000B4003408D00704305002031CD02DD12DBE
:103BA000702D0030AA000030A9000530A8000030B8
:103BB000A700BE30AB000030AC000430AD000030D8
:103BC000AE00A9312A219C3141014E140030AA00D7
:103BD0000030A9000130A8000030A700CB30AB00B6
:103BE0000030AC000430AD000030AE00A9312A2115
:103BF0009C31003008004201CF004F08B631212629
:103C00009D31410136084201C100410135084201A0
:103C1000C000003041020830031940020318112E81
:103C2000122E152EFF30A3310E2B30304101CA0069
:103C30000230CB000830CC000030CD0042014F08EC
:103C4000A931C9219D3141014B084201CE004101FA
:103C50004A084201CD0000304E02083003194D02DF
:103C60000318332E342E352E122E4401350842010E
:103C7000A000A101440134084201A200A3012208CE
:103C8000A300A20120082204C20021082304C300CB
:103C9000440137084201A000A10144013608420155
:103CA000A200A3012208A300A20120082204CB0045
:103CB00021082304CC0000304C022C3003194B02A5
:103CC000031C632E642E6B2E4330420643040319FB
:103CD0006A2E6B2E782E4C084101D90042014B0808
:103CE0004101D80042014F08B13175219D31122E9A
:103CF00030304101CA000230CB002C30CC00003003
:103D0000CD0042014F08A931C9219D3141014B0825
:103D10004201CE0041014A084201CD0000304E026E
:103D20002C3003194D020318962E972EA62E4D08FF
:103D30004B024101D80042014E084C3B4101D900E1
:103D400042014F08B13175219D31122E02304401DC
:103D500030060319AC2EAD2EBD2E42014D084B028C
:103D60004101D80042014E084C3B4101D9004201BB
:103D70004F08B13175219D31122EFF304201A00054
:103D80000030A1000030A2000030A300440134083C
:103D90004201A400440135084201A500440136084F
:103DA0004201A600440137084201A7001830A73697
:103DB000A60CA50CA40C890BD72E2408A005250859
:103DC000A1052608A2052708A3050030A800FF309A
:103DD000A9000030AA000030AB00440134084201C1
:103DE000AC00440135084201AD00440136084201EF
:103DF000AE00440137084201AF000830AF36AE0CC8
:103E0000AD0CAC0C890BFE2E2C08A8052D08A905BD
:103E10002E08AA052F08AB050030B0000030B10015
:103E2000FF30B2000030B300440134084201B40056
:103E3000440135084201B500440136084201B6008C
:103E4000440137084201B7000830B435B50DB60D4E
:103E5000B70D890B252F3408B0053508B105360894
:103E6000B2053708B3050030B8000030B9000030A3
:103E7000BA00FF30BB00440134084201BC004401D9
:103E800035084201BD00440136084201BE0044012C
:103E900037084201BF001830BC35BD0DBE0DBF0D47
:103EA000890B4C2F3C08B8053D08B9053E08BA05FA
:103EB0003F08BB053808B0043908B1043A08B20419
:103EC0003B08B3043008A8043108A9043208AA0446
:103ED0003308AB0420082804C50021082904C600C3
:103EE00022082A04C70023082B04C80043012F0816
:103EF00042014802031D8C2F43012E084201470254
:103F0000031D8C2F43012D0842014602031D8C2FF7
:103F100043012C0842014502031C8F2F902FA92F2B
:103F2000480840015602031DA52F420147084001E1
:103F30005502031DA52F4201460840015402031DEE
:103F4000A52F42014508400153020318A82FA92FAD
:103F5000B92F42014D084B024101D80042014E08E1
:103F60004C3B4101D90042014F08B13175219D31CF
:103F7000122E41015B088600870142014508C03FBF
:103F80004608C13F4708C23F4808C33F00304101CF
:103F9000AA000030A9000930A8000030A700523064
:103FA000AB000230AC000630AD000030AE00A831EE
:103FB0008F209D3152304201A00020084101A30012
:103FC0000630A4000030A5004C30B73175279D3174
:103FD0004101230824040319EE2FF02FAE310E2ED9
:103FE00042014D084B024101D80042014E084C3BB2
:103FF0004101D90042014F08B13175219D31122E86
:1040000008003C30B2312122A03100304101D600FD
:104010000030D5000030D4000030D300D701D801E3
:104020000D30890B11280000B0317B20A031B03158
:10403000A520A03198310020A031003A0319212891
:1040400022281A28B0318120A03141012308D3074A
:104050002408D43D0030D53DD63D0130D70700308F
:10406000D83D5808803AC70080304702031D3A28DF
:104070000A305702031C3D283E28102843016C08D3
:104080004101C70043016D084101C800C901CA01CF
:104090005308CB005408CC005508CD005608CE007C
:1040A0000130CB35CC0DCD0DCE0D890B51284708F5
:1040B000CB024808CC3B4908CD3B4A08CE3B4E08D2
:1040C000AE004D08AD004C08AC004B08AB004301FE
:1040D0006B084101B20043016A084101B10043018C
:1040E00069084101B000430168084101AF00B631E1
:1040F0005426A03141012E08D2002D08D1002C08F1
:10410000D0002B08CF000030BA003930B900813020
:10411000B8009C30B7005208BE005108BD005008DE
:10412000BC004F08BB00AA317122A0315A304101B6
:10413000C70037084702C50038090318890AC600B6
:10414000080041012408B0002308AF002708280414
:10415000031DAB28AC28AD286B292F08860030083A
:1041600087002508810027082F07A9002808303D6F
:10417000AA002908FF3EAB00FF302A3DAC002B0807
:1041800086002C08870025088100003028020330B3
:10419000031927020318CD28CE28CF286B292F0812
:1041A000013EA9000030303DAA00290886002A08F7
:1041B0008700250881002F08023EA9000030303D0D
:1041C000AA00290886002A088700250881002708F8
:1041D0002F07A9002808303DAA002908FE3EAB00A1
:1041E000FF302A3DAC002B0886002C0887002508EC
:1041F000810027082F07A9002808303DAA002908B8
:10420000FD3EAB00FF302A3DAC002B0886002C0899
:104210008700250881000030280207300319270293
:1042200003181329142915296B292F08033EA90007
:104230000030303DAA00290886002A08870025089A
:10424000810027082F07A9002808303DAA00290867
:10425000FC3EAB00FF302A3DAC002B0886002C084A
:104260008700250881000030280209300319270241
:1042700003183B293C293D296B292F09A900300946
:10428000AA00A90A0319AA0A03302905AD000030C3
:104290002A05AE002D08AF072E08B03D2D08A70255
:1042A0002E08A83BFC30A705FF30A80565292F087C
:1042B000860030088700250881000130A702003001
:1042C000A83B0130AF070030B03D27082804031D8C
:1042D0006A296B29572908000230B2312122A13105
:1042E000FF304101CE00FF30CF00D001D101CC0121
:1042F000CD01B0317B20A13198310020A131003AAD
:104300000319832984297C29B0318120A1314101FD
:104310002408D3002308D2004F085302031D92291A
:104320004E0852020318952996299A295308CF005E
:104330005208CE0053085102031DA0295208500212
:104340000318A329A429A8295308D1005208D00092
:104350000130CC070030CD3D4D08803AC700923087
:104360004702031DB5291C304C02031CB829B9298A
:10437000792900304101BA000D30B900B130B800E0
:104380005830B7004E08AB004F08AC00AD01AE018D
:1043900043016B084101B20043016A084101B100C9
:1043A000430169084101B000430168084101AF00C1
:1043B000B6315426A13141012E08BE002D08BD00A2
:1043C0002C08BC002B08BB00AA317122A13141018D
:1043D00037080B3ECE000030383DCF000030BA0029
:1043E0000D30B900B130B8005830B7005008AB00FC
:1043F0005108AC00AD01AE0143016B084101B200B0
:1044000043016A084101B100430169084101B0005C
:10441000430168084101AF00B6315426A131410182
:104420002E08BE002D08BD002C08BC002B08BB00C8
:10443000AA317122A131410137080B3ED000003072
:10444000383DD100FF304E05C70000304F05C80091
:10445000FF305005C90000305105CA004908CA00A4
:10446000C90147084904C50048084A04C6000800B5
:1044700040015208031D472A5108031D472A5008CE
:10448000031D472AF0304F020318472A482A512AB1
:1044900000304001D2000030D1000030D000F030B8
:1044A000CF0040014E08031D612A4D08031D612AFB
:1044B0004C08031D612A78304B02031C602A612AD4
:1044C000742A400152084E02031D702A51084D0201
:1044D000031D702A50084C02031D702A4F084B021E
:1044E000031C732A742AA12A40014F084201A0002C
:1044F000400150084201A100400151084201A200C0
:10450000400152084201A3000330A336A20CA10CC3
:10451000A00C890B852A0230A035A10DA20DA30D98
:10452000890B8C2A23084001CE0042012208400159
:10453000CD00420121084001CC0042012008400189
:10454000CB0043012B08031DB12A2A08031DB12A01
:104550002908031DB12AD2302802031CB02AB12A2F
:10456000CB2A4001520843012B02031DC72A4001F8
:10457000510843012A02031DC72A40015008430184
:104580002902031DC72A40014F0843012802031CCA
:10459000CA2ACB2A0C2B40014F084201A00040013F
:1045A00050084201A100400151084201A20040010F
:1045B00052084201A3000330A336A20CA10CA00CA8
:1045C000890BDC2A23084101AE0042012208410187
:1045D000AD00420121084101AC0042012008410127
:1045E000AB000030B2000030B1000030B000073046
:1045F000AF00B6315426A23141012E084301AB0071
:1046000041012D084301AA0041012C084301A900E2
:1046100041012B084301A800420144080800410160
:10462000C80036083704031D162B172B192B013031
:10463000FA2B4808B800B901B835B90DB835B90D2D
:10464000B835B90DB835B90DB835B90D3808083ECB
:10465000BA000030393DBB003A08BC003B08BD0041
:104660000030BD1BFF30BE00BF0000303C04A7007F
:1046700020303D04A80000303E04A90000303F0473
:10468000AA00AB319423A33141012808C5002708B3
:10469000C40037084502031D4F2B36084402031897
:1046A000522B532B552B0030FA2B4808B800B90178
:1046B000B835B90DB835B90DB835B90DB835B90D2E
:1046C000B835B90D3808083EBA000030393DBB0096
:1046D0003A08BC003B08BD000030BD1BFF30BE00E7
:1046E000BF0000303C04A70024303D04A800003087
:1046F0003E04A90000303F04AA00AB319423A3314B
:1047000041012808C7002708C6004608B800470826
:10471000B900BA01BB010830B835B90DBA0DBB0DEF
:10472000890B8C2B4808BC00BD01BC35BD0DBC35C8
:10473000BD0DBC35BD0DBC35BD0DBC35BD0D3C083A
:10474000103EBE0000303D3DBF003E08C0003F08A7
:10475000C1000030C11BFF30C200C3003808400454
:10476000A70039084104A8003A084204A9003B0800
:104770004304AA003508AB000230AC003708AE0095
:104780003608AD00A9312A21A33141013608C607F8
:104790003708C73D4808B800B901B835B90DB83574
:1047A000B90DB835B90DB835B90DB835B90D3808EA
:1047B000083EBA000030393DBB003A08BC003B0857
:1047C000BD000030BD1BFF30BE00BF0000303C0408
:1047D000A70024303D04A80000303E04A9000030AA
:1047E0003F04AA004708AC004608AB00A831DC2013
:1047F000A331013008004001B9003908A900AA011D
:10480000A935AA0DA935AA0DA935AA0DA935AA0D54
:10481000A935AA0D2908083EAB0000302A3DAC009E
:104820002B08AD002C08AE000030AE1BFF30AF00EF
:10483000B00000302D04F40026302E04F5000030C6
:104840002F04F60000303004F700AB313023A331E1
:1048500075084001B6007408B50028083602031D2B
:10486000332C270835020318362C372C3B2C3608FE
:10487000A8003508A70027082804031D402C412C58
:10488000442CA501A601F32C3908A900AA01A935D9
:10489000AA0DA935AA0DA935AA0DA935AA0DA935C4
:1048A000AA0D2908083EAB0000302A3DAC002B08B9
:1048B000AD002C08AE000030AE1BFF30AF00B000E2
:1048C00000302D04F40028302E04F50000302F04B1
:1048D000F60000303004F700AB313023A331750807
:1048E0004001B8007408B700250826040319792C84
:1048F0007A2CBA2C3708A9003808AA00AB01AC0101
:104900000830A935AA0DAB0DAC0D890B812C3908E7
:10491000AD00AE01AD35AE0DAD35AE0DAD35AE0D64
:10492000AD35AE0DAD35AE0D2D08183EAF000030E3
:104930002E3DB0002F08B1003008B2000030B21B8D
:10494000FF30B300B40029083104F4002A0832040F
:10495000F5002B083304F6002C083404F700260871
:10496000F9002508F8002808FB002708FA00A831FC
:104970000020A33140012708B7072808B83D3908AF
:10498000A900AA01A935AA0DA935AA0DA935AA0D14
:10499000A935AA0DA935AA0D2908083EAB0000309B
:1049A0002A3DAC002B08AD002C08AE000030AE1B39
:1049B000FF30AF00B00000302D04F40028302E048A
:1049C000F50000302F04F60000303004F7003808FE
:1049D000F9003708F800B7313227A3314001280821
:1049E000A6002708A50008004101C9004908B90030
:1049F000BA01B935BA0DB935BA0DB935BA0DB935EF
:104A0000BA0DB935BA0D3908083EBB0000303A3D41
:104A1000BC003B08BD003C08BE000030BE1BFF30A0
:104A2000BF00C00000303D04A70026303E04A800AF
:104A300000303F04A90000304004AA00AB319423A9
:104A4000A43141012808C6002708C50038084602DD
:104A5000031D2C2D3708450203182F2D302D342D22
:104A60004608B8004508B70037083804031D392D3B
:104A70003A2D3D2DB501B601EC2D4908B900BA011A
:104A8000B935BA0DB935BA0DB935BA0DB935BA0D52
:104A9000B935BA0D3908083EBB0000303A3DBC00BC
:104AA0003B08BD003C08BE000030BE1BFF30BF000D
:104AB000C00000303D04A70028303E04A8000030AC
:104AC0003F04A90000304004AA00AB319423A43174
:104AD00041012808C8002708C70035083604031913
:104AE000722D732DB32D4708B9004808BA00BB01D9
:104AF000BC010830B935BA0DBB0DBC0D890B7A2D40
:104B00004908BD00BE01BD35BE0DBD35BE0DBD356C
:104B1000BE0DBD35BE0DBD35BE0D3D08183EBF00F6
:104B200000303E3DC0003F08C1004008C2000030D8
:104B3000C21BFF30C300C40039084104A7003A0873
:104B40004204A8003B084304A9003C084404AA000E
:104B50003608AC003508AB003808AE003708AD00A9
:104B6000A8318F20A43141013708C7073808C83D54
:104B70004908B900BA01B935BA0DB935BA0DB93518
:104B8000BA0DB935BA0DB935BA0D3908083EBB00B2
:104B900000303A3DBC003B08BD003C08BE00003080
:104BA000BE1BFF30BF00C00000303D04A70028300E
:104BB0003E04A80000303F04A90000304004AA00D1
:104BC0004808AC004708AB00A831DC20A431410103
:104BD0003808B6003708B50008004101A1014201BC
:104BE00060080319F42DF52D0A2EA2304001BA00F9
:104BF0000030BB000130BC000030BD000130A931E5
:104C00007821A53140013A033B040319082E092EEF
:104C1000362EF52E1D1D0D2E0E2E192E41016A0861
:104C20000319132E142E192EF2010C30AC317724F7
:104C3000A53142019D1C1D2E1E2E2F2E1D121D164C
:104C400041016A080319252E262E2C2EF201F20AA4
:104C50000C30AC317724A5314101A101A10A4201F8
:104C600019084001C80048084101A200410121087B
:104C700003193B2E3C2E402EB2316D22A531F52E6C
:104C80006A08031D442E452EE32E2208B431FC246D
:104C9000A531F52E6108C8000230C836890B4D2EAB
:104CA00048080F39C90049084101A000BC2E3F3017
:104CB000410122054001C80061080339C9000530DF
:104CC000C935FF3E031D602E49354804CA004A0815
:104CD0004301E7004001E101E001DE01DE0AD32EDD
:104CE0003F30410122054001C80061080339C90075
:104CF0000530C935FF3E031D792E49354804B431CE
:104D0000FC24A531D32E3F30410122054001C800CB
:104D100061080339C9000530C935FF3E031D8C2EDB
:104D200049354804CA004A08DF00AA305F06031D5F
:104D30009A2E9B2E9D2EE001D32EE001E00A013039
:104D4000F0000030F100B131C821A531D32E3F3041
:104D5000410122054001C80061080339C90005303E
:104D6000C935FF3E031DB02E49354804CA004A0824
:104D70004301E600C801D32E20084001C800C90144
:104D80004908003A0319C52ED32E4808003A0319E2
:104D9000572E013A0319702E033A0319832E013A54
:104DA0000319A72ED32E4001E101F52E410122085F
:104DB0004001C8004808E100F52E41012208B43145
:104DC000FC24A531D32E2208C0394001C800C901F6
:104DD0004908003A0319ED2EDD2E4808803A0319E0
:104DE0004A2E403A0319D62EDD2E08007E1CFA2EDC
:104DF000A531ED2D4101DC01420160080319012FAD
:104E0000022F172FDD304101CA000030CB000130E6
:104E1000CC000030CD000130A931C921A6314101BB
:104E20004A034B040319152F162F422FFF2F1D1D68
:104E30001A2F1B2F262F41016A080319202F212F1B
:104E4000262FA5010C30AC31F924A63142019D1C5E
:104E50002A2F2B2F3C2F1D121D1641016A08031902
:104E6000322F332F392FA501A50A0C30AC31F9248C
:104E7000A6314101DC01DC0A420119084101D800D8
:104E80005808DD005C080319462F472F4B2FB2311D
:104E9000A522A631FF2F6A08031D4F2F502FEE2F9A
:104EA0005D08B6318826A631FF2F40016108410117
:104EB000D8000230D836890B5A2F58080F39D9003C
:104EC0005908DB00CA2F3F305D05D800400161085A
:104ED00003394101D9000530D935FF3E031D6C2F40
:104EE00059355804DA005A084301E7004001E1014E
:104EF000E001DE01DE0AE02F3F305D05D800400111
:104F0000610803394101D9000530D935FF3E031D41
:104F1000852F59355804B6318826A631E02F3F3009
:104F20005D05D8004001610803394101D900053011
:104F3000D935FF3E031D982F59355804DA005A0819
:104F40004001DF00AA305F06031DA72FA82FAA2F5C
:104F5000E001E02FE001E00A01304101A300003050
:104F6000A400B2313A22A631E02F3F305D05D800CF
:104F70004001610803394101D9000530D935FF3EB0
:104F8000031DBE2F59355804DA005A084301E600C4
:104F9000C801E02F5B08D800D9015908003A03196D
:104FA000D22FE02F5808003A0319632F013A031952
:104FB0007C2F033A03198F2F013A0319B52FE02FE5
:104FC0004001E101FF2F5D08D80058084001E100D1
:104FD000FF2F5D08B6318826A631E02F5D08C03965
:104FE000D800D9015908003A0319F72FE92F5808BA
:104FF000803A0319552F403A0319E32FE92F08008F
:10500000400199127408A0007508A1007608A2005A
:105010007708A3001030A336A20CA10CA00C890BBA
:105020000B282008A4002408E8007408A0007508D4
:10503000A1007608A2007708A3000830A336A20CCE
:10504000A10CA00C890B1E282008A4002408E9004C
:105050007408A0002008EA006830F0000030F10079
:105060000330F2000030F300B331AA23A8317908ED
:10507000F1007808F0007B08F3007A08F200B33101
:10508000AA23A83140019916080043014D084101A7
:10509000AE0043014C084101AD0043014B08410102
:1050A000AC0043014A084101AB004C30B2009530DE
:1050B000B1007F30B0002D30AF00B6315426A8319A
:1050C000013041012B074301CA00003041012C3D52
:1050D0004301CB00003041012D3D4301CC000030A5
:1050E00041012E3D4301CD004A084101B900430171
:1050F0004B084101BA0043014C084101BB00430188
:105100004D084101BC001130BC36BB0CBA0CB90CC7
:10511000890B84283A08B8003908B7000800400114
:10512000991241012708AF002808B0002908B100F2
:105130002A08B2001030B236B10CB00CAF0C890B9B
:105140009B282F08B30033084001E80041012708DD
:10515000AF002808B0002908B1002A08B2000830C2
:10516000B236B10CB00CAF0C890BB0282F08B300CD
:1051700033084001E90041012708AF002F08400132
:10518000EA0068304101A3000030A4000330A5000C
:105190000030A600B4312024A83141012C08A4001D
:1051A0002B08A3002E08A6002D08A500B43120244A
:1051B000A8314001991608004001991241012708C1
:1051C000AD002808AE002908AF002A08B000103052
:1051D000B036AF0CAE0CAD0C890BE8282D08B10031
:1051E00031084001E80041012708AD002808AE0061
:1051F0002908AF002A08B0000830B036AF0CAE0C5A
:10520000AD0C890BFD282D08B10031084001E900E3
:10521000410127080438AD002D084001EA00410192
:105220002C08AD002D084001EB0041012B08AD001A
:105230002D084001EC0068304101A3000030A400BB
:105240000530A5000030A600B4312024A83140016B
:10525000991608004001991241012708AF0028085B
:10526000B0002908B1002A08B2001030B236B10CE3
:10527000B00CAF0C890B36292F08B300330840015E
:10528000E80041012708AF002808B0002908B10054
:105290002A08B2000830B236B10CB00CAF0C890B42
:1052A0004B292F08B30033084001E90041012708CA
:1052B0000438AF002F084001EA0068304101A30024
:1052C0000030A4000330A5000030A600B431202433
:1052D000A93141012C08A4002B08A3002E08A60028
:1052E0002D08A500B3311F23A931400199160800EC
:1052F0004001C7003B08A6003A08A5003D08A800E9
:105300003C08A7004708A331FB23A9314001260828
:10531000BD002508BC003C083D04031D90299129CF
:105320009429BA01BB01C8294708BE00BF01BE3598
:10533000BF0DBE35BF0DBE35BF0DBE35BF0DBE3571
:10534000BF0D3E08083EC00000303F3DC100400890
:10535000C2004108C3000030C31BFF30C400C500B9
:1053600004304204F40001304304F50000304404EA
:10537000F60000304504F7004030C6004608F8004B
:10538000B631F426A93140013D08BB003C08BA0003
:1053900008004101D7004B08B6004A08B5004D0887
:1053A000B8004C08B7005708A431F424A9314101D2
:1053B0003608CD003508CC004C084D04031DE1290A
:1053C000E229E529CA01CB01192A5708CE00CF01ED
:1053D000CE35CF0DCE35CF0DCE35CF0DCE35CF0D51
:1053E000CE35CF0D4E08083ED00000304F3DD100E5
:1053F0005008D2005108D3000030D31BFF30D40036
:10540000D50004305204A70001305304A800003036
:105410005404A90000305504AA004030D6005608B4
:10542000AB00B731B827A93141014D08CB004C087A
:10543000CA00080000304101A6000030A50001307C
:10544000A4001630A300B3318523AA3141012408FA
:10545000AC002308AB000A30AD000030AE00B23122
:10546000FF22AA3141012C084301ED0041012B0824
:105470004301EC0000304101A6000030A5000130DE
:10548000A4001930A300B3318523AA3141012308B8
:10549000B7002408B800B901BA013A08AE003908CB
:1054A000AD003808AC003708AB000030B200003067
:1054B000B1000030B0006430AF00B6315426AA31DC
:1054C00041012E084301EB0041012D084301EA0090
:1054D00041012C084301E90041012B084301E80088
:1054E000080000304101C3000030C2000030C1009C
:1054F0000030C0003A083904380437040319812AFF
:10550000822AC32AC401C40A902A0130B735B80DD3
:10551000B90DBA0D890B862A0130BF003F08C407B8
:10552000BA1F932A942A852A0130C035C10DC20DB5
:10553000C30D890B952A3A083E02031DA92A390892
:105540003D02031DA92A38083C02031DA92A370879
:105550003B02031CAC2AAD2AB62A3708BB02380826
:10556000BC3B3908BD3B3A08BE3B40140130BA365B
:10557000B90CB80CB70C890BB72A0130C402031D53
:10558000C22AC32A942A4308BA004208B900410833
:10559000B8004008B700080001304001D7070030CC
:1055A000D83D0030D93D0030DA3D5E080319D92AD4
:1055B000DA2A122B41016A080319DF2AE02A0F2B8D
:1055C000430167080139F7007708F2000030AC3179
:1055D0007724AA313230F0000030F100B131C82117
:1055E000AA310230400157074301E2000030400178
:1055F000583D4301E30000304001593D4301E400C0
:10560000003040015A3D4301E500023040015E0296
:10561000031C0B2B0C2B0F2BB1313B21AA3140016A
:10562000DE012F2B4301650840015A06031D282B7C
:105630004301640840015906031D282B43016308F8
:1056400040015806031D282B4301620840015706FC
:10565000031D2B2B2C2B2F2BB1318921AA310800B4
:105660004001A201A20A99127408F8007508F90015
:105670007608FA007708FB001030FB36FA0CF90CBC
:10568000F80C890B3D2B7808FC007C08E8007408B6
:10569000F8007508F9007608FA007708FB00083072
:1056A000FB36FA0CF90CF80C890B502B7808FC002F
:1056B0007C08E9007408F8007808EA006830F00017
:1056C0000030F1000530F2000030F300B331AA23BE
:1056D000AB31400199162408A1002308A0006C08F2
:1056E000F800F9016B08FA00FB017A08FB00FA01E7
:1056F00078087A04A30079087B04A400220803191F
:10570000822B832B852BA201332B21082406031D1A
:105710008B2B20082306031D8E2B8F2B332B240865
:10572000F5002308F40008004101B201B20A40016B
:10573000991241012708AB002808AC002908AD00E8
:105740002A08AE001030AE36AD0CAC0CAB0C890B99
:10575000A32B2B08AF002F084001E80041012708C8
:10576000AB002808AC002908AD002A08AE000830BC
:10577000AE36AD0CAC0CAB0C890BB82B2B08AF00C4
:105780002F084001E90041012708AB002B08400128
:10579000EA0068304101A3000030A4000530A500F4
:1057A0000030A600B4312024AB31400199164101EC
:1057B0003408B1003308B00040016C084101AB006F
:1057C000AC0140016B084101AD00AE012D08AE00F7
:1057D000AD012B082D04B3002C082E04B4003208B0
:1057E0000319F32BF42BF62BB201972B3108340657
:1057F000031DFC2B30083306031DFF2B002C972BB9
:105800003408A8003308A70008004101C100392C62
:105810004108B700B801B735B80DB735B80DB73581
:10582000B80DB735B80DB735B80D3708083EB90013
:105830000030383DBA003908BB003A08BC000030DF
:10584000BC1BFF30BD00BE0000303B04B100013086
:105850003C04B20000303D04B30000303E04B4000C
:105860001030BF003F08B500B331D023AC31013058
:10587000762C4108B700B801B735B80DB735B80D6B
:10588000B735B80DB735B80DB735B80D3708083E80
:10589000B9000030383DBA003908BB003A08BC00F6
:1058A0000030BC1BFF30BD00BE0000303B04A70031
:1058B00003303C04A80000303D04A90000303E0441
:1058C000AA00AB01B731B827AC314101BF00C0011C
:1058D0004008003A03196D2C752C3F08003A031953
:1058E000372C1C3A0319082C752C00300800F600E0
:1058F0004201600803197D2C7E2CC92CCE30410159
:105900006B02031C842C852C862CF82C6A08031946
:105910008A2C8B2C962C7603031D8F2C902CA32C79
:10592000803072020318952C962CA32C7208F30079
:105930006B08860002308700730881000130F30095
:105940007308EB07F82C7208F3000630F336890B66
:10595000A62C7608F4000130F435FF3E031DAC2C74
:1059600074357304C038F5006B0886000230870078
:10597000750881000130F3007308EB0772083F39A6
:105980008038F3006B0886000230870073088100BE
:105990009E2C41016A080319CE2CCF2CDA2C7603F9
:1059A000031DD32CD42CDF2C803072020318D92C89
:1059B000DA2CDF2C7208B4314924AC31F82C72088F
:1059C000F3000630F336890BE22C7608F400013040
:1059D000F435FF3E031DE82C74357304C038B43130
:1059E0004924AC3172083F398038B4314924AC3194
:1059F00008004101A900420160080319002D012D92
:105A00004C2DCE3041016B02031C072D082D092DB2
:105A10007C2D6A0803190D2D0E2D192D2903031D48
:105A2000122D132D262D803025020318182D192D27
:105A3000262D2508A6006B08860002308700260860
:105A400081000130A6002608EB077C2D2508A60062
:105A50000630A636890B292D2908A7000130A73565
:105A6000FF3E031D2F2D27352604C038A8006B08E4
:105A7000860002308700280881000130A600260831
:105A8000EB0725083F398038A6006B0886000230F6
:105A9000870026088100212D41016A080319512D34
:105AA000522D5D2D2903031D562D572D622D80305B
:105AB000250203185C2D5D2D622D2508B5312B259F
:105AC000AC317C2D2508A6000630A636890B652D45
:105AD0002908A7000130A735FF3E031D6B2D273590
:105AE0002604C038B5312B25AC31410125083F399A
:105AF0008038B5312B25AC310800FC3041019E05C2
:105B00003F30B2312122AD3100304101CF000030B1
:105B1000CE000030CD000030CC00D001D1010D30DE
:105B2000890B902D0000B0317B20AD3198310020E1
:105B3000AD31003A03199D2D9E2D962DB031812057
:105B4000AD3141012308CC072408CD3D0030CE3DC6
:105B5000CF3D0130D0070030D13D5108803AC70019
:105B600080304702031DB62D0A305002031CB92DA8
:105B7000BA2D8F2D033041019E040030BA00003051
:105B8000B9000030B8000A30B70043016B0841018A
:105B9000AE0043016A084101AD00430169084101BB
:105BA000AC00430168084101AB000030B200003096
:105BB000B1000330B000FF30AF00B6315426AD3134
:105BC00041012E08BE002D08BD002C08BC002B088A
:105BD000BB00AA317122AD3141013A08CB0039082E
:105BE000CA003808C9003708C8004F08BA004E0874
:105BF000B9004D08B8004C08B7004B08BE004A0871
:105C0000BD004908BC004808BB00AA317122AD3173
:105C100041013808C6003708C500080040015D088A
:105C20000319132E142E242EDA304101A300013063
:105C3000A4004030A5000230A6000430A7000030C8
:105C4000A800B431A124AE31C0304101D8000030E9
:105C5000D90042014F08B1317521AE3141015808D8
:105C60004201CD07410159084201CE3D303041018A
:105C7000CA000230CB000430CC000030CD0042011D
:105C80004F08A931C921AE3141014A084201CD076F
:105C900041014B084201CE3D633044013006031DF3
:105CA000522E532E652E82303106031D582E592E4A
:105CB000652E53303206031D5E2E5F2E652E633037
:105CC00033060319642E652E762E42014D084B02D1
:105CD0004101D80042014E084C3B4101D90042012C
:105CE0004F08B1317521AE319E31122E4201C401EF
:105CF000FF3040015B054201A000003040015C051F
:105D00004201A100033020062104031D882E8A2EA3
:105D10008731BE2F00304301AB000030AA000030B5
:105D2000A9000030A8002B084001CE0043012A083A
:105D30004001CD00430129084001CC00430128085F
:105D40004001CB00882E4101C200102F4208B8004C
:105D5000B901B835B90DB835B90DB835B90DB83583
:105D6000B90DB835B90D3808083EBA000030393DD4
:105D7000BB003A08BC003B08BD000030BD1BFF3033
:105D8000BE00BF0000303C04B10001303D04B20051
:105D900000303E04B30000303F04B4000230C000C5
:105DA0004008B500B331D023AE314F2F3708031967
:105DB000DA2EDB2E0E2F4208B800B901B835B90D26
:105DC000B835B90DB835B90DB835B90DB835B90D07
:105DD0003808083EBA000030393DBB003A08BC0024
:105DE0003B08BD000030BD1BFF30BE00BF000030CF
:105DF0003C04A7000C303D04A80000303E04A9007C
:105E000000303F04AA003708AB000030AC0004307B
:105E1000AD000030AE00A8318F20AE310130502FE0
:105E20004208B800B901B835B90DB835B90DB83563
:105E3000B90DB835B90DB835B90D3808083EBA00F6
:105E40000030393DBB003A08BC003B08BD000030C3
:105E5000BD1BFF30BE00BF0000303C04A700033074
:105E60003D04A80000303E04A90000303F04AA0011
:105E7000AB01B731B827AE314101C000C1014108C3
:105E8000003A0319442F4F2F4008133A0319A62E46
:105E9000073A03194F2F033A0319D62E4F2F00301C
:105EA0000800F80154011D1D562F572F622F410184
:105EB0006A0803195C2F5D2F622FF2010B30AC31A1
:105EC0007724AF3154019D1C662F672F772F1D1249
:105ED0001D1641016A0803196E2F6F2F752FF201ED
:105EE000F20A0B30AC317724AF31F801F80A5401D3
:105EF0001908F7007708FA0078080319802F812F16
:105F0000852FB2316D22AF31FF2F41016A08031D89
:105F10008A2F8B2F942F7A08F7007708F200013030
:105F2000AC317724AF31FF2F40016003031D992F5F
:105F30009A2FD12FAA307A06031D9F2FA02FD12F81
:105F40003F306D02031CA52FA62FAE2FE430003288
:105F50000032890BA72F00320032BE2F6D08F700E8
:105F60007708F9007908031DB62FB72FB82FBE2F79
:105F70001830890BB92F0130F902B22F40015F08A8
:105F8000B431FC24AF310230F70077084001E00063
:105F90007A08F7007708F2000130AC317724AF318E
:105FA000FF2F02306006031DD62FD72FF72F7A0858
:105FB0005F06031DDC2FDD2FE62F7A08F700770838
:105FC000F2000230AC317724AF31EE2F7A08F700BF
:105FD0007708F2000A30AC317724AF314001E0019C
:105FE0000030F000F100B131C821AF31FF2F7A0845
:105FF000F7007708F2000130AC317724AF310800A8
:1060EE00080008000134B03441019D1408004B0132
:1060FE009E17080041011C08A4001B08A3000800FD
:10610E00803046019600950194010800163050012A
:10611E008C0037308D000800640080010131890B3E
:10612E0094280034FE0012001E00FE0B9A28003444
:10613E00AE34B0345334EF34FE34EF34E430003246
:10614E000032890BA628003200320800A33041012C
:10615E009E009B019C0101309D000800823053017E
:10616E00900091010630920093010800410124082D
:10617E004301C100410123084301C0000800410151
:10618E0024084301BF00410123084301BE0008005B
:10619E00410124084301B900410123084301B8001D
:1061AE000800410124084301C500410123084301B1
:1061BE00C4000800410124084301C3004101230823
:1061CE004301C2000800410124084301EF004101D0
:1061DE0023084301EE000800603051018D008F014D
:1061EE00910106309300900192010800FF34FF34B4
:1061FE00FF340034FF34FF34FF34FF34FF340134F6
:10620E0043016E086F0403190D290E2913296F0817
:10621E008A006E080A00B13108004101A40024086A
:10622E00A300A30DA30D1D082306033923069D000D
:10623E001D1408004F01960102309700453098005A
:10624E003B30990001309A0006309B000800410156
:10625E002308FF3E4301CA00FF304101243D4301A4
:10626E00CB00CC01CD0108008B130B130530F100D0
:10627E000F30F000F130890B4229F00B4229F10B5F
:10628E00422900007E019B01A101010008008B1331
:10629E000B1305304101A4000F30A300F130890B20
:1062AE005629A30B5629A40B56297E019B01A10149
:1062BE000100080001304301B435B50D890B632987
:1062CE0000303502413003193402031C6F29702946
:1062DE0074294030B4000030B50008004101DA00E6
:1062EE000030CA000030CB005908CD005808CC0051
:1062FE005A08A931C921B13141014B08D9004A08C8
:10630E00D800080041016A08031D8E298F2997299C
:10631E000130F0000030F100B131C821B1319D29BA
:10632E000030F000F100B131C821B1310800103059
:10633E007D01BB0003307E019B0002307C01A50075
:10634E00A601A701A801A9010230AA00AB01AC0168
:10635E00AD018030A400080048304B019F00FF3093
:10636E009D009C014E018C12961678304101A300BF
:10637E003030A400B031EA20B13180304B019E00A4
:10638E0008007108F3007008F200F336F20CF336D1
:10639E00F20C72084601950070080339F2000530C0
:1063AE00F235FF3E031DD7297235940008000A30DE
:1063BE007D01BD0004307E01A10082307C01AF0062
