:1000000080310628AB3402348431042C40010308CB
:10001000A00080310B28FC01FD0129308400003054
:1000200085000D308331C6238031A030840000303C
:10003000850049308331C623803140018231E02A76
:1000400042019E1C2428252820288331AD2380319D
:1000500042011F1432289F1F2E282F2832281F10DC
:100060009F131F141F18352836282B2883317B2314
:1000700080314001B901BA010930B7000030B80041
:10008000712883317B2380314001B6003908A03EBE
:1000900086008701360881000130B9070030BA3D7B
:1000A000043039063A04031D5628572871280230B7
:1000B0004101200603195D285E286A2805302006C4
:1000C0000319632864286A2807302006031D69285D
:1000D0006A28712821084001B70741012208400120
:1000E000B83D400138083A02031D78283708390224
:1000F000031C7B287C2841288031A7208031FA000E
:10010000FB017A084001B7007B08B8005530833105
:10011000A32380314001B901BA019B283908A03ED0
:100120008600870101088331A3238031013040011B
:10013000B9070030BA3D38083A02031DA128370834
:100140003902031CA428A5288E2820280800410174
:1001500023084001F000410124084001F100D628A5
:10016000823114228031F9288231B0228031F9287D
:100170008031FA208031F9288131D8218031F92865
:1001800082314D228031F92881314D218031F92889
:10019000813196218031F928A901A90AFC01FC0AC4
:1001A0000A30F928FF30A9000A30F9284101200857
:1001B000F800F9017908003A0319DF28D2287808F5
:1001C000003A0319B028013A0319B428033A031975
:1001D000B828013A0319BC28053A0319C028013A86
:1001E0000319C4280F3A0319C828013A0319CC2867
:1001F000D22808004101250850019A004101260833
:1002000050019B00A4309E00F501F6013B291F30F0
:1002100050011A05F3001F30730603191029112924
:10022000222941012108FE3EF300FF30223DF40067
:1002300076087406031D1E2975087306031D2129FF
:100240002229242950019E127508A93E86008701A3
:10025000010850019C007508AA3E8600870101082C
:100260009D008331BF23803183318B238031023065
:10027000F5070030F63D410122087602031D4229B0
:1002800021087502031C452946290729A901A90A45
:100290004001F001F1010A30080041012508500138
:1002A0009A004101260850019B00410125082604BF
:1002B000031D5B295C296529D43050019E008331E0
:1002C000BF23813150019A019B01C43050019E002F
:1002D000F50181297508A93E8600870101085001B2
:1002E0009C007508AA3E8600870101089D008331A5
:1002F000BF23813183318B2381310230F3007308B6
:10030000F5077508F300F401410122087402031D8A
:100310008B2921087302031C8E298F296A29A901C0
:10032000A90A4001F001F1010A3008004101250845
:1003300050019A004101260850019B0080309E0028
:100340004001B101B201F601F701C32950011E14A9
:100350001C08F300F40173084001B1077408B23DB2
:1003600050011D08F300F4017308F400F301730851
:100370004001B1077408B23D83318B2381310230D3
:10038000F6070030F73D410122087702031DCA2914
:1003900021087602031CCD29CE29A6294001310867
:1003A0004101A900400132084101AA000B300800B8
:1003B0004101250850019A004101260850019B0087
:1003C000F401F501032A7F3050011B05F300403092
:1003D0007302031CEC29ED29F229FE304101A9002A
:1003E0000A30132A94309E008331BF2381311F309D
:1003F000F300730850019A0783318B238131013058
:10040000F4070030F53D410122087502031D0A2A58
:1004100021087402031C0D2A0E2AE329A901A90A46
:10042000A301A4010A30080008304101A900AA0173
:10043000AB01AC01AC0AAD01AE01063050019A002F
:100440009B011E171E141C084101AF0050011D081E
:100450004101B000B101B2012030B3002030B4003E
:1004600050019A019B011E170C30F40050011E141C
:100470007408A93E860087011C08810083318B2304
:1004800082310130F3007308F40710307402031C4A
:100490004A2A4B2A362A1930080041012508500102
:1004A0009A004101260850019B0040309E00F50152
:1004B0006E2A50011E147508A93E860087011C088B
:1004C00081007508AA3E860087011D0881008331DE
:1004D0008B2382310230F3007308F5077508F300AF
:1004E000F401410122087402031D782A21087302D5
:1004F000031C7B2A7C2A592A2108093E0800403027
:1005000040019800303099009A01BF309200C63007
:100510009300FF309400E3307E01CE000230C30030
:10052000BF30B800E501FD30C4005030B9003830AC
:10053000CF00BA01C501D001FF30BB00FF30C600BB
:10054000FF30D100FF30BC00FF30C700FF30D200C9
:100550000830E8000F309B000A307D01CB00080016
:100560004101250850019A004101260850019B00D5
:1005700080309E00F301F401D22A50011E1473084A
:10058000A93E860087011C0881007308AA3E8600E8
:1005900087011D08810083318B2382310230F307EC
:1005A0000030F43D410122087402031DD92A2108BC
:1005B0007302031CDC2ADD2ABD2A2108093E08003B
:1005C00008304001A100AB30A2000230A300200897
:1005D000A400500113084001A50050011408400177
:1005E000A60050019318F52AF62AFC2A4001A7011B
:1005F000A80150019314012B01304001A7070030DE
:10060000A83D5001131483316B238231062B8031B6
:100610000628F30100000130F2007208F307730AA4
:10062000031D132B142B0A2B40018D1B182B192B88
:100630001B2B01302F2B50019A0104309B0080307E
:100640009E001E143F301D06031D272B282B2E2B2A
:100650001C0A031D2C2B2D2B2E2B192B00300800D0
:10066000083042019F0090309D0024309E004030B1
:100670009B0003309C000030F2000030F300833117
:10068000D22383310030F2000030F3008331CC23D9
:1006900083310030F2000030F3008331D8238331FE
:1006A0004001B30108004001F001F1011914833148
:1006B00009238331013A031D5E2B5F2B622B8031AE
:1006C000202083311F307F01ED0040018801191087
:1006D0008431002C08008331B723833182317F229B
:1006E00083318331992383318331302383318331C3
:1006F0005323833108004E018F1E7F2B802B7B2BD1
:100700004001B30142019D1C862B872B892B1D12B2
:100710001D16190808000130F200720850019A07EE
:10072000031D932B942B982B0130F20072089B072A
:100730000800603051018D008F0191010630930057
:10074000900192010800F2004E010F1EA82BA92B68
:10075000A42B720842019A0008007C03031DB12BF0
:10076000B22BB62B400113101910010008004F01E5
:1007700096019701980199019A019B010800640074
:1007800070089F0071089F009E140800640080019B
:100790000131890BC72B003473084001AC0072088B
:1007A000AB00080073084001AE007208AD000800FD
:0C07B00073084001AA007208A9000800AC
:100800008431542CAE3401347E1484314E01961E52
:100810000A2C0B2C122C8C1E0E2C0F2C122CB031EF
:100820002E2084310B1F152C162C522C4E01991F93
:100830001A2C1B2C252C8F1F1E2C1F2C252C400105
:100840005C088A005B080A0084314E01191F292CBC
:100850002A2C342C0F1F2D2C2E2C342C40015A08FE
:100860008A0059080A0084314E01991E382C392C0F
:10087000432C8F1E3C2C3D2C432C400158088A00F1
:1008800057080A0084314E01191E472C482C522C5F
:100890000F1E4B2C4C2C522C400156088A00550838
:1008A0000A0084317E10090040018431572CB03198
:1008B00000208431E800B03101208431E900410199
:1008C000983100208431EC004201A83100208431AD
:1008D000E5003F308400BE308500D0308600013016
:1008E00087000730BE3110268431F4308400BD30DB
:1008F00085006A308600023087000430BE31102641
:10090000843116308400BE308500D4308600023039
:1009100087000630BE311026843155308400003007
:1009200085001330BE310A268431523084000130F4
:1009300085001330BE310A268431A0308400013096
:1009400085002330BE310A268431203084000230F5
:1009500085004A30BE310A268431A030840002303E
:1009600085003430BE310A2684317E104001A93121
:10097000552941016B080F3E8600023087000108AF
:100980000F39573EDE00003003180130DF00D62C4F
:1009900041016B080F3E86000230870001080F39C5
:1009A000303EDE00003003180130DF006A086B07BC
:1009B0004201A000200886000230870041015E0845
:1009C000810001304201A00020084101EA076708C8
:1009D0004201A000410168084201A100A201A30157
:1009E0000830A035A10DA20DA30D890BF12C4101FA
:1009F00069084201A400A501A435A50DA435A50DE3
:100A0000A435A50DA435A50DA435A50D2408103ECB
:100A1000A6000030253DA7002608A8002708A90049
:100A20000030A91BFF30AA00AB00200828044101B8
:100A3000A4004201210829044101A5004201220825
:100A40002A044101A600420123082B044101A7000A
:100A50006B08A8000230A9006A084201AC00AD0191
:100A60002C084101AA0042012D084101AB00B5311B
:100A70007D25843141016A084201A000A1012008BE
:100A80004101E707420121084101E83D5308031DE8
:100A90004A2D4B2D222EFF3042015E05A000003072
:100AA0005F05A100033020062104031D582D592D98
:100AB000222E4101EA016A086B074201A0002008CA
:100AC000860002308700323081000130A00020080B
:100AD0004101EA076A086B074201A000200886006E
:100AE00002308700043081000130A000200841015D
:100AF000EA076B086A07A0000230A100BF30A2001D
:100B00000130A3000430A4000030A500A83101206A
:100B1000843104304201A00020084101EA076A083C
:100B20006B074201A00020088600023087003630A3
:100B300081000130A00020084101EA076A086B0724
:100B40004201A000200886000230870004308100A6
:100B50000130A00020084101EA076B086A07A000E5
:100B60000230A1006630A2000230A3000430A400CD
:100B70000030A500A8310120843104304201A000DA
:100B800020084101EA0767084201A0004101680806
:100B90004201A100A201A3010830A035A10DA20DC0
:100BA000A30D890BCD2D410169084201A400A501C7
:100BB000A435A50DA435A50DA435A50DA435A50D09
:100BC000A435A50D2408103EA6000030253DA70041
:100BD0002608A8002708A9000030A91BFF30AA009A
:100BE000AB00200828044101A40042012108290487
:100BF0004101A500420122082A044101A600420148
:100C000023082B044101A7006B08A8000230A900AB
:100C10006A084201AC00AD012C084101AA00420162
:100C20002D084101AB00B5317D25843141016A08B1
:100C30004201A000A10120084101E707420121086B
:100C40004101E83D4101EA016A086B074201A00049
:100C50002008860002308700373081000130A00074
:100C600020084101EA0742016008031D382E392E91
:100C70003F2E02304101E0000030E100442E0430FC
:100C80004101E0000030E1006A086B074201A0006A
:100C90002008860002308700410160088100013091
:100CA0004201A00020084101EA076A086B074201DF
:100CB000A00020088600023087008101810A0130EF
:100CC000A00020084101EA076A086B074201A00062
:100CD0002008860002308700033081000130A00028
:100CE00020084101EA07420160080319782E792E95
:100CF000982E41016A086B074201A0002008860077
:100D0000023087003A3081000130A0002008410104
:100D1000EA076A086B074201A0002008860002303B
:100D200087003B3081000130A00020084101EA0724
:100D300041016A086B074201A000200886000230CA
:100D40008700FF3081000130A00020084101EA0740
:100D500067084201A000410168084201A100A20108
:100D6000A3010830A035A10DA20DA30D890BB22E51
:100D7000410169084201A400A501A435A50DA435CF
:100D8000A50DA435A50DA435A50DA435A50D2408E4
:100D9000103EA6000030253DA7002608A800270821
:100DA000A9000030A91BFF30AA00AB0020082804CE
:100DB0004101A4004201210829044101A50042018A
:100DC00022082A044101A600420123082B04410104
:100DD000A7006B08A8000230A9006A084201AC0015
:100DE000AD012C084101AA0042012D084101AB00D0
:100DF000B5317D25843141016A084201A000A1017D
:100E000020084101E707420121084101E83D690846
:100E10004201A000A101A035A10DA035A10DA03572
:100E2000A10DA035A10DA035A10D2008083EA200FE
:100E30000030213DA3002208A4002308A5000030B3
:100E4000A51BFF30A600A700003024044101A40028
:100E50002430420125044101A5000030420126044E
:100E60004101A6000030420127044101A7006808A3
:100E7000A9006708A800B431F22484314101660852
:100E80000319432F442F662F3A30A0000230A100EF
:100E90000030A200A3000430A4000030A500AF3150
:100EA0003527843100304101A7000030A6000F3003
:100EB000A5000030A4003A30A8000230A900043098
:100EC000AA000030AB00B5317D25843141016B08AB
:100ED000C6000030C700C8006908A031192084315D
:100EE000410166080319752F762F892F0030A7005E
:100EF0000030A6000F30A5000030A400BF30A800CD
:100F00000130A9000430AA000030AB00B5317D25C6
:100F1000843108004001EA00BE2F40016A08410107
:100F2000B200B301B235B30DB235B30DB235B30D66
:100F3000B235B30DB235B30D3208083EB4000030FF
:100F4000333DB5003408B6003508B7000030B71B94
:100F5000FF30B800B90000303604AD00013037046E
:100F6000AE0000303804AF0000303904B00010305B
:100F7000B100B1319F2187310130FC2F6A08410156
:100F8000B200B301B235B30DB235B30DB235B30D06
:100F9000B235B30DB235B30D3208083EB40000309F
:100FA000333DB5003408B6003508B7000030B71B34
:100FB000FF30B800B90000303604A4000330370415
:100FC000A50000303804A60000303904A700A801AD
:100FD000B4316F2487314101BA00BB013B08003AAC
:100FE0000319F32FFB2F3A08003A0319BC2F1C3AC0
:100FF00003198D2FFB2F0030080041019D140800BC
:10100000E43000320032890B01280032003208003F
:101010000230B03177208831FF304101CD00FF3000
:10102000CE00CF01D001CB01CC018731FD27883123
:10103000BE3131268831003A03191F28202818288C
:10104000BE310426883141012108D2002008D10098
:101050004E085202031D2E284D0851020318312854
:10106000322836285208CE005108CD0052085002CE
:10107000031D3C2851084F0203183F2840284428EC
:101080005208D0005108CF000130CB070030CC3DD2
:101090004C08803AC60092304602031D51281C308D
:1010A0004B02031C54285528152800304101B90073
:1010B0000D30B800B130B7005830B6004D08AA0066
:1010C0004E08AB00AC01AD01430123084101B10062
:1010D000430122084101B000430121084101AF0052
:1010E000430120084101AE00B33121238831410181
:1010F0002D08BD002C08BC002B08BB002A08BA0034
:10110000B731A5278831410136080B3ECD000030AC
:10111000373DCE000030B9000D30B800B130B70017
:101120005830B6004F08AA005008AB00AC01AD0122
:10113000430123084101B100430122084101B000ED
:10114000430121084101AF00430120084101AE00E5
:10115000B3312123883141012D08BD002C08BC008A
:101160002B08BB002A08BA00B731A52788314101F6
:1011700036080B3ECF000030373DD000FF304D0524
:10118000C60000304E05C700FF304F05C8000030D4
:101190005005C9004808C900C80146084804C400F1
:1011A00047084904C500080062304101A000023030
:1011B000A1002E30A2000230A3000430A4000030B1
:1011C000A500A831012088315E2B5E304101A000CE
:1011D0000230A1002E30A2000230A3000430A4008F
:1011E0000030A500A831012088315E2BFF30A0001F
:1011F0000030A1000030A2000030A30044012E08FE
:101200004201A40044012F084201A5004401300816
:101210004201A600440131084201A7001830A73658
:10122000A60CA50CA40C890B0F292408A0052508E1
:10123000A1052608A2052708A3050030A800FF3055
:10124000A9000030AA000030AB0044012E08420182
:10125000AC0044012F084201AD00440130084201B6
:10126000AE00440131084201AF000830AF36AE0C89
:10127000AD0CAC0C890B36292C08A8052D08A90546
:101280002E08AA052F08AB050030B0000030B100D1
:10129000FF30B2000030B30044012E084201B40018
:1012A00044012F084201B500440130084201B60054
:1012B000440131084201B7000830B435B50DB60D10
:1012C000B70D890B5D293408B0053508B10536081E
:1012D000B2053708B3050030B8000030B90000305F
:1012E000BA00FF30BB0044012E084201BC0044019B
:1012F0002F084201BD00440130084201BE004401F4
:1013000031084201BF001830BC35BD0DBE0DBF0D08
:10131000890B84293C08B8053D08B9053E08BA0583
:101320003F08BB053808B0043908B1043A08B204D4
:101330003B08B3043008A8043108A9043208AA0401
:101340003308AB0420082804D60021082904D7005C
:1013500022082A04D80023082B04D9005E2B44015C
:101360002E084101DB005E2B66304101A0000230F7
:10137000A1002E30A2000230A3000430A4000030EF
:10138000A500A831012088315E2BFF30A00000307D
:10139000A1000030A2000030A30044012E08420149
:1013A000A40044012F084201A50044013008420175
:1013B000A600440131084201A7001830A736A60C48
:1013C000A50CA40C890BDE292408A0052508A1057D
:1013D0002608A2052708A3050030A800FF30A900B1
:1013E0000030AA000030AB0044012E084201AC00DE
:1013F00044012F084201AD00440130084201AE0013
:10140000440131084201AF000830AF36AE0CAD0CDC
:10141000AC0C890B052A2C08A8052D08A9052E0857
:10142000AA052F08AB050030B0000030B100FF3036
:10143000B2000030B30044012E084201B400440160
:101440002F084201B500440130084201B6004401B2
:1014500031084201B7000830B435B50DB60DB70DEF
:10146000890B2C2A3408B0053508B1053608B205B9
:101470003708B3050030B8000030B9000030BA00BA
:10148000FF30BB0044012E084201BC0044012F087C
:101490004201BD00440130084201BE004401310850
:1014A0004201BF001830BC35BD0DBE0DBF0D890B0C
:1014B000532A3C08B8053D08B9053E08BA053F085F
:1014C000BB053808B0043908B1043A08B2043B0837
:1014D000B3043008A8043108A9043208AA04330868
:1014E000AB0420082804D20021082904D3002208D4
:1014F0002A04D40023082B04D5005E2BFF30A00063
:101500000030A1000030A2000030A30044012E08EA
:101510004201A40044012F084201A5004401300803
:101520004201A600440131084201A7001830A73645
:10153000A60CA50CA40C890B972A2408A005250845
:10154000A1052608A2052708A3050030A800FF3042
:10155000A9000030AA000030AB0044012E0842016F
:10156000AC0044012F084201AD00440130084201A3
:10157000AE00440131084201AF000830AF36AE0C76
:10158000AD0CAC0C890BBE2A2C08A8052D08A905AA
:101590002E08AA052F08AB050030B0000030B100BE
:1015A000FF30B2000030B30044012E084201B40005
:1015B00044012F084201B500440130084201B60041
:1015C000440131084201B7000830B435B50DB60DFD
:1015D000B70D890BE52A3408B0053508B105360882
:1015E000B2053708B3050030B8000030B90000304C
:1015F000BA00FF30BB0044012E084201BC00440188
:101600002F084201BD00440130084201BE004401E0
:1016100031084201BF001830BC35BD0DBE0DBF0DF5
:10162000890B0C2B3C08B8053D08B9053E08BA05E6
:101630003F08BB053808B0043908B1043A08B204C1
:101640003B08B3043008A8043108A9043208AA04EE
:101650003308AB04200828044301A80042012108F4
:1016600029044301A900420122082A044301AA00D7
:10167000420123082B044301AB005E2B60084201AA
:10168000A000A1012108003A0319472B5E2B200876
:10169000013A0319D428023A0319E528303A03190C
:1016A000F628063A0319AF29033A0319B4290C3A6C
:1016B0000319C529013A03197E2A5E2B41016308EB
:1016C0006502031D652B62086402031C682B6A2BEC
:1016D000AE31B62E410164086202D3006508633B57
:1016E000D4006608BF3141278831FF3042015E05D2
:1016F000A00000305F05A100033020062104031D77
:10170000822B832B412C5908031D912B5808031D54
:10171000912B5708031D912BF03056020318912B83
:10172000922B9B2B00304201D9000030D8000030B2
:10173000D700F030D60042015508031DAB2B5408EA
:10174000031DAB2B5308031DAB2B78305202031C37
:10175000AA2BAB2BBE2B420159085502031DBA2BF5
:1017600058085402031DBA2B57085302031DBA2B05
:1017700056085202031CBD2BBE2BDD2B420156081E
:10178000A0005708A1005808A2005908A300033080
:10179000A336A20CA10CA00C890BC82B0230A035DB
:1017A000A10DA20DA30D890BCF2B2308D500220874
:1017B000D4002108D3002008D20043012B08031DC8
:1017C000ED2B2A08031DED2B2908031DED2BD2302C
:1017D0002802031CEC2BED2B072C42015908430176
:1017E0002B02031D032C4201580843012A02031D4A
:1017F000032C4201570843012902031D032C420117
:10180000560843012802031C062C072C412C4201D8
:101810005608A0005708A1005808A2005908A300C4
:101820000330A336A20CA10CA00C890B112C2308A9
:101830004101AD00420122084101AC0042012108F2
:101840004101AB00420120084101AA000030B10073
:101850000030B0000030AF000730AE00B3312123BC
:10186000883141012D084301AB0041012C0843019F
:10187000AA0041012B084301A90041012A084301A4
:10188000A80041015B080800460143080319492CE0
:101890004A2C532CC30100304101A000A100B031FB
:1018A0005E208C315D2CC301C30A14304101A000BD
:1018B0000030A100B0315E208C3103304301C40000
:1018C0000830C3007730890B632CC30B632CC40B27
:1018D000632C00309C313C248C3100304101A70046
:1018E0000030A6002E30A5000030A400A801B431BD
:1018F0006F248C31013903197E2C7F2C442C430139
:101900002F084101C20043012E084101C1004301DB
:101910002D084101C00043012C084101BF004601D0
:1019200040084101C3000030A631B7268C31460182
:10193000400803199C2C9D2C692D43012F0846015A
:10194000A30043012E084601A20043012D084601D1
:10195000A10043012C084601A000BC01BC0AAD0156
:10196000632D230843012F06031DC62C46012208C0
:1019700043012E06031DC62C4601210843012D06F6
:10198000031DC62C4601200843012C06031DC92C4B
:10199000CA2CFF2C46013C08031DCF2CD02CFF2C59
:1019A00043012F084101C20043012E084101C1003B
:1019B00043012D084101C00043012C084101BF0033
:1019C000C301C30A0030A631B7268C31FF2C460173
:1019D000AD01AD0A232D02302C074601A0000030D6
:1019E00043012D3D4601A100003043012E3D46013B
:1019F000A200003043012F3D4601A300232D4301E7
:101A00002F084201C30043012E084201C2004301D6
:101A10002D084201C10043012C084201C0000030E2
:101A200091311D218C314301C300C4014408003AA7
:101A300003191B2D232D4308013A0319E72C033A00
:101A40000319EB2C232D460143080319282D292DBA
:101A5000322DC30100304101A000A100B0315E2051
:101A60008C313C2DC301C30A14304101A000003069
:101A7000A100B0315E208C3106304301C400133028
:101A8000C300AD30890B422DC30B422DC40B422D38
:101A9000003201304301C30043084601BC0708304F
:101AA0003C02031C542D552D5F2DBC010130430118
:101AB000AC070030AD3D0030AE3D0030AF3D0030F2
:101AC0009C313C248C3146012D080319682D692D69
:101AD000B12CBF31A9278C31752DCC304101A0002C
:101AE0002130A100BE314E268C316B304101A00067
:101AF0002A30A100BE3160268C318B170B174001B4
:101B0000DF01DF0A00304601B3000030B2000030D0
:101B1000B1000030B00043013C080319902D912D15
:101B20008A2F4601C4010030B7000030B6000030F3
:101B3000B5000030B4000030BB000030BA00003007
:101B4000B9000030B80046013B083A0439043804B3
:101B50000319AB2DAC2DD42D3B0843012F02031DDF
:101B6000C12D46013A0843012E02031DC12D460135
:101B7000390843012D02031DC12D460138084301D8
:101B80002C02031CC42DC52DD42D00304601BB00F2
:101B90000030BA000030B9000030B8000130B23176
:101BA000F0228C314601C401460137083604350461
:101BB00034040319DC2DDD2D232E370843012F02B9
:101BC000031DF22D4601360843012E02031DF22D9E
:101BD0004601350843012D02031DF22D460134084C
:101BE00043012C02031CF52DF62D502E003046012A
:101BF000B7000030B6000030B5000030B400440833
:101C00000319032E042E0A2E0130B231F0228C313A
:101C10004601C40143012F084101C20043012E08BF
:101C20004101C10043012D084101C00043012C08BE
:101C30004101BF00460140084101C3000030A63108
:101C4000B7268C31502E43012F084201C3004301B7
:101C50002E084201C20043012D084201C100430188
:101C60002C084201C000003091311D218C31023A14
:101C7000031D3B2E3C2E502E023043012C07460103
:101C8000B400003043012D3D4601B5000030430152
:101C90002E3D4601B600003043012F3D4601B700FE
:101CA00046014408031D552E562E702E0F3041015B
:101CB000B2002730B3000130A53195258C310030BA
:101CC0004101A7000030A6002F30A5002C30A40051
:101CD000A801A80AB4316F248C314601C401C40A9A
:101CE0004403031D742E752E8F2E4101B201013065
:101CF000AC31F8248C31003A03197F2E802E842ECB
:101D000002304601C4008F2E013087318A278C3182
:101D1000003A03198C2E8D2E8F2E4601C4010230FD
:101D2000460144060319952E962E9C2E0330440638
:101D3000031D9B2E9C2EA82E013087318A278C31C3
:101D4000003A0319A42EA52EA82E4601C401E32EA5
:101D5000023046014406031DAE2EAF2EE32E0130A5
:101D6000B331BF238C31003A0319B72EB82ED42ECD
:101D70000130983101208C3103304601C40001301C
:101D800043012C074601B800003043012D3D4601B8
:101D9000B900003043012E3D4601BA000030430136
:101DA0002F3D4601BB00E32E0130B33155238C316A
:101DB0004101320833040319DE2EDF2EE32EA13158
:101DC000CC218C31E32EB430430156024601C100D0
:101DD00041080319EC2EED2E352F02304406031D69
:101DE000F22EF32E062FB4304101C6004601410801
:101DF0004301C300C40143084101C7004301440833
:101E00004101C8000130A03119208C318B134601EB
:101E10004108430156024601AE00B4302E02AF0025
:101E20002F080319142F152F302FB4304101A000B3
:101E30000230A10046014108B43E4101A200023037
:101E4000A30046012F084301C300C4014308410118
:101E5000A400430144084101A500A83101208C31B0
:101E600046012E084301D6008B1700309C313C24DC
:101E70008C3143015308520451045004031D412F77
:101E8000422FA32D4601330843012F02031D582F73
:101E90004601320843012E02031D582F4601310826
:101EA00043012D02031D582F4601300843012C0227
:101EB000031C5B2F5C2FA32D09303A06031D612FF5
:101EC000622FA32D01302C07D00000302D3DD10012
:101ED00000302E3DD20000302F3DD30004302C07BF
:101EE0004601B000003043012D3D4601B1000030F5
:101EF00043012E3D4601B200003043012F3D460113
:101F0000B3000A304101A0000030A100B0315E20D2
:101F10008C31A32DE1304101A0003030A100BE3151
:101F200057268C3143013D080319972F982FA02F76
:101F30003B0803199C2F9D2FA02FB6310F268C3103
:101F400001309C313C248C3143015308520451042C
:101F50005004031DAC2FAD2FF42F4601330843016D
:101F60002F02031DC32F4601320843012E02031D19
:101F7000C32F4601310843012D02031DC32F460123
:101F8000300843012C02031CC62FC72FF42F093041
:101F90003A06031DCC2FCD2FF42F01302C07D00093
:101FA00000302D3DD10000302E3DD20000302F3DBD
:101FB000D30004302C074601B000003043012D3D12
:101FC0004601B100003043012E3D4601B200003011
:101FD00043012F3D4601B3000A304101A00000300B
:101FE000A100B0315E208C3168304301C300E43081
:101FF000890BF82FC30BF82F0000922F8431542C3B
:1020000041012008FF3E4401DA00FF304101213D3B
:102010004401DB00DC01DD010800B41A102811289E
:1020200016280530B4000030B500702800303405A3
:10203000C30003303505C4004308440403192128B4
:10204000222827280630B4000030B5007028341844
:102050002A282B2830280730B4000030B50070281B
:10206000B517702802304101A7000030A8000030E9
:10207000A900BF3106279031410128084601BE0062
:10208000410127084601BD00AB303D06343003193D
:102090003E06031D4C284D287028B1317D2190311A
:1020A000410121084601BE00410120084601BD0052
:1020B0003E084301C40046013D084301C3004408F3
:1020C000C300C401343043064404031D6828692852
:1020D0007028AB304001A20046013D084001A3003A
:1020E000B031FD20903154011F16B7314F27903188
:1020F00009304301C4001E30C300E430890B7E2840
:10210000C30B7E28C40B7E280000003040010E194E
:1021100001304101EC004601AC0141016C0803199A
:10212000922893289B2840018E1A972898289B284C
:102130004601AC01AC0A46012C084301BE00031065
:1021400040010E1E03140030031801304301BC008F
:10215000003040010C1B01304301BD003D08031954
:10216000B228B328B6284001181712134601A60159
:10217000A70100304101A0000130A1000130A20000
:10218000B231C02290314601BF0109303F02031C29
:10219000CA28CB28CC28FA283F18CF28D028D32803
:1021A000A801A901D7280830A8000030A900B13142
:1021B0007D219031FF30410120054301C3000030F3
:1021C000410121054301C4004601280A4301EA28D0
:1021D000C335C40D890BE82843084601A606430110
:1021E00044084601A70601304301C30043084601E5
:1021F000BF07C52827084101A10046012608410163
:10220000A00090310020903101304101A700003042
:10221000A8000130A900BF310627903141012808EC
:102220004601A40024083F394301D5003C08031DA2
:102230001B2999318A299931A8294201CC00003003
:102240004101A7000030A6002E30A5000030A400F8
:10225000A801B4316F2491310139031D302931298E
:1022600033290230152B43012708260425042404B2
:1022700003193B293C29CB29270842014302031DAE
:1022800051294301260842014202031D51294301FD
:10229000250842014102031D51294301240842013E
:1022A0004002031C54295529CB29600803195929D8
:1022B0005A29C62900304301330240300319320243
:1022C000031C63296429C629023042015E06031DEE
:1022D0006D295F03031D6D296E29792900304301A3
:1022E000A7000030A6000030A5000030A400023096
:1022F000152B03305E06033003195F06031981298D
:10230000822983296E295908031D91295808031D24
:1023100091295708031D91293C3056020318912931
:10232000922993296E2901304201D536D40CD30C61
:10233000D20C890B942901304301AB36AA0CA90CAD
:10234000A80C890B9C2901304201D936D80CD70C36
:10235000D60C890BA42940085207C4004108533DFC
:10236000C5004208543DC6004308553DC700470814
:102370004401A300420146084401A200420145086D
:102380004401A100420144084401A000FF30420181
:10239000DE05FE30DF0542015F18CF29D029022A71
:1023A0004C089E310726913142015F144008C40059
:1023B0004108C5004208C6004308C700430132086F
:1023C0004201C800430133084201C900CA01CB01E0
:1023D0004808C4074908C53D4A08C63D4B08C73DE3
:1023E00047084301A700420146084301A6004201F5
:1023F00045084301A500420144084301A400BF3140
:102400002D27913142015D08D0005C08CF005B08A8
:10241000CE005A08CD004D304101D60042014C0893
:102420009331162391314201D100510A031D192A1B
:102430001A2AFC2AFF30152B02305106031D212ACF
:10244000222A2F2A5008DD004F08DC004E08DB004E
:102450004D08DA000330DE000030DF00142B0130BD
:10246000DE000030DF00142B05305106031D392A31
:102470003A2ACE2A5008DD004F08DC004E08DB0067
:102480004D08DA0000304101A7000030A6000F30EF
:10249000A5000030A400BF30A8000130A90004301E
:1024A000AA000030AB00B5317D25913100304101EB
:1024B000A7000030A6000530A5000030A40062305F
:1024C000A8000230A9000430AA000030AB00B531EA
:1024D0007D25913100304101A7000030A600013078
:1024E000A5000030A4005E30A8000230A90004302E
:1024F000AA000030AB00B5317D259131420143087F
:102500004301A700420142084301A60042014108DD
:102510004301A500420140084301A40042015508BF
:10252000031D9D2A5408031D9D2A5308031D9D2A3F
:102530003C30520203189D2A9E2AA82A3C304301AF
:10254000A4070030A53D0030A63D0030A73DB82AC5
:10255000420152084301A407420153084301A53D2B
:10256000420154084301A63D420155084301A73DDD
:1025700027084401A300430126084401A2004301A7
:1025800025084401A100430124084401A0000330B0
:102590004201DE000330DF000130152B063051060A
:1025A000031DD32AD42AD52A2F2A0330DE00003077
:1025B000DF00142B05305106031DDF2AE02A142BFF
:1025C0005008DD004F08DC004E08DB004D08DA0043
:1025D0003C3040074301A40000304201413D43012B
:1025E000A50000304201423D4301A60000304201F7
:1025F000433D4301A700142B5F08013A0319042B44
:10260000023A03190F2B142B5E08013A03191C2AF6
:10261000023A0319342A0B3A0319DA2A142B5E08FA
:10262000033A0319342A142B003008004101E60054
:102630006608B3315523933141013308D80032087D
:10264000D700003058020830031957020318292B0D
:102650002A2B2D2BFF308C31432C2E30C70002301B
:10266000C8000830C9000030CA006608B631FC2630
:10267000933141014808E5004708E4000030650255
:102680000830031964020318462B472B482B2A2BCA
:10269000440133084201A000A10144013208420173
:1026A000A200A3012208A300A201200822044101E4
:1026B000D9004201210823044101DA004401350810
:1026C0004201A000A101440134084201A200A3017B
:1026D0002208A300A201200822044101E2004201D5
:1026E000210823044101E300003063022C30031968
:1026F0006202031C7C2B7D2B842B433059065A0429
:102700000319832B842B8D2B6308D4006208D3001C
:102710006608BF31412793312A2B2E30C700023083
:10272000C8002C30C9000030CA006608B631FC264B
:10273000933141014808E5004708E4000030650294
:102740002C30031964020318A62BA72BB22B6408A4
:102750006202D3006508633BD4006608BF3141279D
:1027600093312A2B023044012E060319B82BB92BC2
:10277000C52B410164086202D3006508633BD400A5
:102780006608BF31412793312A2BFF304201A00058
:102790000030A1000030A2000030A3004401320844
:1027A0004201A400440133084201A5004401340859
:1027B0004201A600440135084201A7001830A7369F
:1027C000A60CA50CA40C890BDF2B2408A00525085A
:1027D000A1052608A2052708A3050030A800FF30A0
:1027E000A9000030AA000030AB00440132084201C9
:1027F000AC00440133084201AD00440134084201F9
:10280000AE00440135084201AF000830AF36AE0CCF
:10281000AD0CAC0C890B062C2C08A8052D08A905BD
:102820002E08AA052F08AB050030B0000030B1001B
:10283000FF30B2000030B300440132084201B4005E
:10284000440133084201B500440134084201B60096
:10285000440135084201B7000830B435B50DB60D56
:10286000B70D890B2D2C3408B0053508B105360895
:10287000B2053708B3050030B8000030B9000030A9
:10288000BA00FF30BB00440132084201BC004401E1
:1028900033084201BD00440134084201BE00440136
:1028A00035084201BF001830BC35BD0DBE0DBF0D4F
:1028B000890B542C3C08B8053D08B9053E08BA05FB
:1028C0003F08BB053808B0043908B1043A08B2041F
:1028D0003B08B3043008A8043108A9043208AA044C
:1028E0003308AB04200828044101DC004201210820
:1028F00029044101DD00420122082A044101DE00D1
:10290000420123082B044101DF0044012708410153
:102910005F02031D9B2C4401260841015E02031D3A
:102920009B2C4401250841015D02031D9B2C4401A1
:10293000240841015C02031C9E2C9F2CB82C5F08CC
:1029400042015D02031DB42C41015E0842015C029C
:10295000031DB42C41015D0842015B02031DB42C30
:1029600041015C0842015A020318B72CB82CC42C50
:10297000410164086202D3006508633BD400660825
:10298000BF31412793312A2B41015608860001307F
:1029900087005C08C03F5D08C13F5E08C23F5F081A
:1029A000C33F0030A7000030A6000930A50000306A
:1029B000A4005030A8000230A9000630AA00003060
:1029C000AB00B5313625933150304101A0000630BF
:1029D000A1000030A2004A30B431AF24933141014C
:1029E000200821040319F52CF62C012D640862023D
:1029F000D3006508633BD4006608BF31412793319B
:102A00002A2B420160080319062D072D172DBF3010
:102A10004101A0000130A1003E30A2000230A3001D
:102A20000430A4000030A500A83101209331C0304B
:102A30004101D3000030D4006608BF3141279331F3
:102A400041015308E4075408E53D2E30C700023029
:102A5000C8000430C9000030CA006608B631FC2640
:102A6000933141014708E4074808E53D63304401DC
:102A70002E06031D3D2DAE316D2EAE317F2E982DCD
:102A8000410167084201A000410168084201A1001C
:102A9000A201A3010830A035A10DA20DA30D890B41
:102AA0004B2D410169084201A400A501A435A50DE3
:102AB000A435A50DA435A50DA435A50DA435A50DEA
:102AC0002408103EA6000030253DA7002608A800D7
:102AD0002708A9000030A91BFF30AA00AB0020087E
:102AE00028044101A4004201210829044101A50054
:102AF000420122082A044101A600420123082B04B6
:102B00004101A7006B08A8000230A9002030AA00EC
:102B10000030AB00B5317D25953120304101E7070C
:102B20000030E83D0130E4070030E53D9F31EF2FF4
:102B30004101EA016A086B074201A00020088600F3
:102B400002308700633081000130A000200841017D
:102B5000EA076A086B074201A000200886000230DD
:102B60008700823081000130A00020084101EA077F
:102B70006A086B074201A000200886000230870027
:102B8000533081000130A00020084101EA076A08A3
:102B90006B074201A00020088600023087006330E6
:102BA00081000130A00020084101EA076A086B0794
:102BB0004201A000200886000230870035308100E5
:102BC0000130A00020084101EA076A086B074201B2
:102BD000A00020088600023087008101810A0130B0
:102BE000A00020084101EA076A086B074201A00023
:102BF00020088600023087005E0881000130A000B6
:102C000020084101EA076A086B074201A00020087A
:102C10008600023087003D3081000130A00020088E
:102C20004101EA076A086B074201A00020088600FC
:102C300002308700073081000130A00020084101E8
:102C4000EA076A086B074201A000200886000230EC
:102C500087008101810A0130A00020084101EA07B4
:102C60000030A7000030A6000930A5000030A40005
:102C70006B086A07A8000230A9000630AA000030DD
:102C8000AB00B5313625953106304201A000200851
:102C90004101EA076A086B074201A000200886008C
:102CA000023087000C3081000130A0002008410173
:102CB000EA076A086B074201A0002008860002307C
:102CC000870000304101A000B830A100B031902051
:102CD000953141012008063E810001304201A000EB
:102CE00020084101EA070030A000B830A1006B08BD
:102CF0006A07B1313C21953100304101A000B83064
:102D0000A100B03190209531410120084201A0007E
:102D100020084101EA076B080D3E8600023087005B
:102D200001084201A0000430A036890B942E0A301D
:102D30002002031C9C2E9D2EB32E41016B080D3EDC
:102D400086000230870001084201A0000430A0364E
:102D5000890BA72E2008573E4101D40000300318EC
:102D60000130D500C82E41016B080D3E86000230AF
:102D7000870001084201A0000430A036890BBD2E57
:102D80002008303E4101D400003003180130D50046
:102D90006A086B074201A000200886000230870005
:102DA00041015408810001304201A0002008410186
:102DB000EA076B080D3E8600023087000F300105E0
:102DC0004201A0000A302002031CE72EE82EF72E55
:102DD00041016B080D3E86000230870001080F3963
:102DE000573ED600003003180130D700052F4101AF
:102DF0006B080D3E86000230870001080F39303E17
:102E0000D600003003180130D7006A086B07420172
:102E1000A00020088600023087004101560881008A
:102E200001304201A00020084101EA076B080E3E74
:102E300086000230870001084201A0000430A0365D
:102E4000890B1F2F0A302002031C272F282F3E2F0B
:102E500041016B080E3E86000230870001084201E6
:102E6000A0000430A036890B322F2008573E4101C4
:102E7000D800003003180130D900532F41016B08EE
:102E80000E3E86000230870001084201A000043097
:102E9000A036890B482F2008303E4101D800003071
:102EA00003180130D9006A086B074201A00020080E
:102EB000860002308700410158088100013042013C
:102EC000A00020084101EA076B080E3E8600023090
:102ED00087000F3001054201A0000A302002031CC8
:102EE000722F732F822F41016B080E3E8600023035
:102EF000870001080F39573EDA000030031801300F
:102F0000DB00902F41016B080E3E860002308700E7
:102F100001080F39303EDA00003003180130DB00C1
:102F20006A086B074201A000200886000230870073
:102F300041015A08810001304201A00020084101EE
:102F4000EA076B080F3E8600023087000108420145
:102F5000A0000430A036890BAA2F0A302002031CDF
:102F6000B22FB32FC92F41016B080F3E86000230EC
:102F7000870001084201A0000430A036890BBD2F54
:102F80002008573E4101DC00003003180130DD000D
:102F9000DE2F41016B080F3E8600023087000108DA
:102FA0004201A0000430A036890BD32F2008303E08
:102FB0004101DC00003003180130DD006A086B07B6
:102FC0004201A000200886000230870041015C0811
:102FD000810001304201A00020084101EA076B088E
:102FE0000F3E8600023087000F3001054201A0002D
:102FF0000A302002031CFE2F8431B92C8431C82CE6
:1030000001344001EA006A084101B200B301B2355F
:10301000B30DB235B30DB235B30DB235B30DB23514
:10302000B30D3208083EB4000030333DB50034081B
:10303000B6003508B7000030B71BFF30B800B90044
:1030400000303604AD0001303704AE0000303804E3
:10305000AF0000303904B0000830B100B1319F2119
:1030600098310800D430860002308700B4308400E4
:103070000030850006304101B00016001A00B00B88
:103080003D280030CB000030CA000030C9000030BD
:10309000C80044016D084101BD0044016C084101B4
:1030A000BC0044016B084101BB0044016A084101B6
:1030B000BA000030A0000030A1000130A200B231FF
:1030C000C02298314101C701C70AD101D001B131F5
:1030D0007D21983141012108CD002008CC00500805
:1030E000031D7328742880284D08C600C61A792845
:1030F0007B2801307C280030C70046081F39D100EA
:103100005008C83E860087014C088100500803190A
:103110008A288B2897284708031D8F2890289728EE
:103120005008023EB43E860087014C088100013001
:10313000B0003008D00704305002031CA028A1289A
:10314000672847080319A528A628CA280630A00022
:103150000130A1000130A200B231C02298314101FA
:10316000CE01B1317D21983141012108BF002008F5
:10317000BE004E08033EB43E860087013E08810033
:103180000130B0003008CE0703304E02031CC928BE
:10319000CA28B1280030A7000030A6000930A500D9
:1031A0000030A400B430A8000030A9000630AA0006
:1031B0000030AB00B5317D2598311F3041015106FB
:1031C0000319E328E428EC2849084A044B0448047E
:1031D000031DEB28EC28EE28013089290030A700D8
:1031E0000030A6000F30A5000030A400C830A800B1
:1031F0000030A9000430AA000030AB00B5317D25B5
:1032000098314101CF0108305102031808290929DA
:103210002E29510803190D290E2927290130B00044
:103220000030B1005108083C890A1829B035B10DA9
:10323000890B16293008FF3EB200FF30313DB30044
:10324000FF303206C20000303306C3002929C20114
:10325000C3014308C1004208C0003229FF30C0004A
:103260000030C1004F08BA3E860087014008810047
:103270004F08BA3E860087010108B0004F08C83EDB
:10328000860087013008810508305102031849295A
:103290004A294D29C401C50154295108F83EC400EA
:1032A000FF3003180030C5004408D1000130B000E1
:1032B0003008CF0704304F02031C5F29602903291F
:1032C0000030A7000030A6000530A5000030A400A3
:1032D000BA30A8000030A9000430AA000030AB00CA
:1032E000B5317D25983141014B140030A7000030E5
:1032F000A6000130A5000030A400C830A8000030AE
:10330000A9000430AA000030AB00B5317D2598310A
:1033100000300800400194119A1105304301C400A7
:103320000F30C300F130890B9329C30B9329C40BD1
:103330009329031040010E1E0314003003180130BE
:103340004301BB003B080319A629A729A829D401DA
:10335000400194129A1243013C080319B029B12983
:10336000C029B231122299310130B2319122993102
:103370000130BE31D4269931A8318A2099310A2AE8
:103380003D080319C429C529EB294001181315303C
:103390004301C4004B30C300BE30890BCD29C30BA1
:1033A000CD29C40BCD290000400118170530430179
:1033B000C4000F30C300F130890BDC29C30BDC29BA
:1033C000C40BDC2943013B080319E729E829EB2951
:1033D000B6310F26993141016C08031DF029F129FE
:1033E000F829BF317F279931BF31EA2799310A2A5D
:1033F000B23112229931B131EA21993143013E08AB
:103400000319032A042A0A2A42019E1244309B000F
:103410009C019E16A9304101A0002D30A100BE31B3
:103420007B269931BD31ED25993109304301C40026
:103430001E30C300E430890B1B2AC30B1B2AC40BAC
:103440001B2A000041016C080319272A282A512A47
:103450004601C20120304202031C2F2A302A312AA1
:103460006C2A0C304301C4009130C3000030890B3A
:10347000372AC30B372AC40B372A000046014208FB
:103480004301C300C40143084101A00043014408B3
:103490004101A100B0315E20993103144601C20DF3
:1034A0002A2A0030A000A100B0315E2099310930F5
:1034B0004301C4001E30C300E430890B5D2AC30BF6
:1034C0005D2AC40B5D2A000001304101A0000030DC
:1034D000A100B0315E2099314601C00143013C0892
:1034E0000319732A752A8D316D2D4601C3010530EC
:1034F000AA000030AB0000304101A7000030A60058
:103500003930A5000030A400A801B4316F249931EE
:103510004601A5000430250603198F2A902ACE2AD9
:1035200043080319942A952A9E2AC30100304101B9
:10353000A000A100B0315E209931A82AC301C30ABE
:1035400014304101A0000030A100B0315E2099315B
:103550000B304301C4002630C3005D30890BAE2A16
:10356000C30BAE2AC40BAE2A003200309C313C247F
:10357000993101304601AA020030AB3B2A0A031DF3
:10358000C52A2B0A031DC52AC62A7B2A0530AA0094
:103590000030AB00A8318A2099317B2A9831322043
:1035A00099314601C00000304101A7000030A6005B
:1035B0001930A5000430A4000430A800B4316F24F1
:1035C00099318C316D2C4001EA006A084101B70045
:1035D000B801B735B80DB735B80DB735B80DB73533
:1035E000B80DB735B80D3708083EB9000030383D82
:1035F000BA003908BB003A08BC000030BC1BFF30E1
:10360000BD00BE0000303B04A40004303C04A50013
:1036100000303D04A60000303E04A7003308A90096
:103620003208A800B431F2249A3140016A084101FD
:10363000B700B801B735B80DB735B80DB735B80D07
:10364000B735B80DB735B80D3708083EB9000030AA
:10365000383DBA003908BB003A08BC000030BC1B3A
:10366000FF30BD00BE0000303B04A4000C303C0421
:10367000A50000303D04A60000303E04A700340839
:10368000A8000130A9000430AA000030AB00B53119
:103690007D259A3140016A084101B700B801B7356C
:1036A000B80DB735B80DB735B80DB735B80DB73556
:1036B000B80D3708083EB9000030383DBA00390867
:1036C000BB003A08BC000030BC1BFF30BD00BE0090
:1036D00000303B04A40010303C04A50000303D0441
:1036E000A60000303E04A7003608A9003508A8004F
:1036F000B431F2249A3140016A084101B700B8019F
:10370000B735B80DB735B80DB735B80DB735B80DF5
:10371000B735B80D3708083EB9000030383DBA005B
:103720003908BB003A08BC000030BC1BFF30BD00AC
:10373000BE0000303B04AD0001303C04AE00003060
:103740003D04AF0000303E04B0001030B100B13194
:103750009F219A3140016A084101B700B801B7358D
:10376000B80DB735B80DB735B80DB735B80DB73595
:10377000B80D3708083EB9000030383DBA003908A6
:10378000BB003A08BC000030BC1BFF30BD00BE00CF
:1037900004303B04A40000303C04A50000303D048C
:1037A000A60000303E04A7000230A800B4316F2408
:1037B0009A3140016A084101B700B801B735B80D28
:1037C000B735B80DB735B80DB735B80DB735B80D35
:1037D0003708083EB9000030383DBA003908BB0050
:1037E0003A08BC000030BC1BFF30BD00BE000030FA
:1037F0003B04AD0001303C04AE0000303D04AF009E
:1038000000303E04B000B101B10AB1319F219A31BC
:1038100040016A084101B700B801B735B80DB735A6
:10382000B80DB735B80DB735B80DB735B80D370881
:10383000083EB9000030383DBA003908BB003A08EC
:10384000BC000030BC1BFF30BD00BE0000303B049C
:10385000A40003303C04A50000303D04A600003065
:103860003E04A700A801B4316F249A31223A031D07
:103870003A2C3B2C7B2B08004101E20040010E1B3F
:10388000422C432C522C420161080319482C492C2C
:103890004C2CB03118209C314201E101E10A410178
:1038A000E201E20A43013C080319572C582C5B2C17
:1038B000B531C5259C3142016108031D602C612C86
:1038C000F42D41016C080319662C672CF42D852D0D
:1038D0004501A001A00AA101A10A0030A0310020E9
:1038E0009C3141012108E7002008E60067084501F6
:1038F000A200410166084501A30041016C080319BB
:10390000822C832C892C43013E08031D882C892C92
:103910008D2C4101DA01DB01922C02304101DA00E9
:103920000030DB0043013C08031D972C982C9C2C95
:103930004101DC01DD01A12C04304101DC0000303B
:10394000DD0043013B08031DA62CA72CAB2C410135
:10395000DE01DF01B02C08304101DE000030DF0065
:1039600043013D08031DB52CB62CBC2C1030410181
:10397000E0000030E100BF2C4101E001E1016C08F2
:10398000031DC32CC52C0130C62C003060045E041E
:103990005C045A044501A400400123084501A50028
:1039A0000130A03100209C3141012108E7002008AE
:1039B000E60067084501A600410166084501A70029
:1039C00008304101E500A62D0030A0000130A10023
:1039D0000130A200B231C0229C314101E301B1317A
:1039E0007D219C3141012108E7002008E6006308A1
:1039F000A03E860002308700660881000130D800B2
:103A00005808E30709306302031C072D082DEF2C2B
:103A10000930E500A62D0030A0000030A1000130E3
:103A2000A200B231C0229C314101E401B1317D21BB
:103A30009C3141012108E7002008E6006408A03E0F
:103A4000860002308700670881006408A13E860076
:103A500002308700660881000230D8005808E40769
:103A600008306402031C352D362D162DE02CAA31AA
:103A7000FD229C3141014508E7004408E600670843
:103A80004501A000410166084501A1000230410145
:103A9000E500A62DA931DA219C3141014508E70056
:103AA0004408E6003F2D883108209C31410145083B
:103AB000E7004408E6003F2D4501A001A1014301B4
:103AC000340835040319652D662D462DB51F692D63
:103AD0006A2D6E2DFF304501A000712D340845017F
:103AE000A000013040012802003003192702031C06
:103AF0007A2D7B2D7F2DFF304501A100462D270813
:103B00004501A100462DE501A62D400168084101AF
:103B1000D800D9015908003A03198F2D832D580870
:103B2000003A0319682C013A0319E42C033A0319EB
:103B30000B2D013A0319372D073A03194A2D013A83
:103B40000319532D033A03195C2D832DFF304001D7
:103B5000E800410165080319AE2DAF2DF42D420197
:103B6000E20141016508A4000330AC3147249C31D7
:103B700043013C080319BD2DBE2DDC2DD52D42017E
:103B80006208A03E86000230870001084101A400BF
:103B90000330AC3147249C3101304101D800580832
:103BA0004201E20701304101E50241016508031DC0
:103BB000DA2DDB2DBF2DE02D410165084001DD0030
:103BC000410162080319E52DE62D062E0230410160
:103BD000D9000430D800BA30890BEC2DD80BEC2D6D
:103BE000D90BEC2D0000062E410162080319F92DB6
:103BF000FA2D062E05304101D9000F30D800F130E2
:103C0000890B002ED80B002ED90B002E0800410185
:103C1000E90069084201A000A101A035A10DA0356D
:103C2000A10DA035A10DA035A10DA035A10D200835
:103C3000083EA2000030213DA3002208A400230872
:103C4000A5000030A51BFF30A600A700003024040B
:103C50004101A4002430420125044101A5000030A7
:103C6000420126044101A60000304201270441011F
:103C7000A700A831EA209E3141012508E800240868
:103C8000E7002E30EB006B08A0000230A1000030EE
:103C9000A200A3002C30A4000030A500AF313527CE
:103CA0009E314401AE01AE0AAF01AF0A0630B0004A
:103CB000B101FF304201A0000030A1000030A2009D
:103CC0000030A3005A08A4005B08A5005C08A60009
:103CD0005D08A7001830A736A60CA50CA40C890B0C
:103CE0006B2E2408A0052508A1052608A205270893
:103CF000A3050030A800FF30A9000030AA00003062
:103D0000AB005A08AC005B08AD005C08AE005D0873
:103D1000AF000830AF36AE0CAD0CAC0C890B8A2E60
:103D20002C08A8052D08A9052E08AA052F08AB0503
:103D30000030B0000030B100FF30B2000030B300FE
:103D40005A08B4005B08B5005C08B6005D08B7000F
:103D50000830B435B50DB60DB70D890BA92E340852
:103D6000B0053508B1053608B2053708B30500308F
:103D7000B8000030B9000030BA00FF30BB005A086C
:103D8000BC005B08BD005C08BE005D08BF001830C9
:103D9000BC35BD0DBE0DBF0D890BC82E3C08B80546
:103DA0003D08B9053E08BA053F08BB053808B00410
:103DB0003908B1043A08B2043B08B3043008A80437
:103DC0003108A9043208AA043308AB0420082804E7
:103DD0004401B2004201210829044401B300420118
:103DE00022082A044401B400420123082B044401A0
:103DF000B5004101E201440123082204210420040A
:103E00000319032F042F172F42015508031D132FE9
:103E10005408031D132F5308031D132F3C30520267
:103E20000318132F142F172F4101E201E20A410159
:103E30006208031D1C2F1E2F01301F2F0030D300DE
:103E4000E301E30A440123082204210420040319A6
:103E50002A2F2B2F3B2F43012B08031D3B2F2A0812
:103E6000031D3B2F2908031D3B2F3C302802031C58
:103E70003A2F3B2F4A2FFF3042015E05A000003051
:103E80005F05A100200321040319472F482F4A2F63
:103E90004101E30141016308031D4F2F512F013000
:103EA000522F0030E600420160080319582F592FA5
:103EB0005D2FDF1C5C2F5D2F732F3A304101A00076
:103EC0000230A100BF30A2000130A3000430A400E2
:103ED0000030A500A83101209E3141016608031978
:103EE000722F732F782F80304401B8000030B90052
:103EF00000304101A7000030A6000930A5000030C5
:103F0000A4004A30A8000230A9000630AA00003000
:103F1000AB00B53136259E31410167084201A00052
:103F2000410168084201A100A201A3010830A035A7
:103F3000A10DA20DA30D890B972F41016908420124
:103F4000A400A501A435A50DA435A50DA435A50D86
:103F5000A435A50DA435A50D2408103EA6000030FB
:103F6000253DA7002608A8002708A9000030A91BA6
:103F7000FF30AA00AB00200828044101A400420140
:103F8000210829044101A500420122082A04410117
:103F9000A600420123082B044101A7006B08A800DA
:103FA0000230A9002C30AA000030AB00B5317D25CD
:103FB0009E312C304101E7070030E83D6B08A0003E
:103FC0000230A1000030A200A3002030A400003085
:103FD000A500AF3135279E314101E401E5016508B7
:103FE000803A4201A00080302002031DFA2F0630E3
:103FF00041016402031CFE2F95313F2D9531402D68
:104000004001EA006A08031D062807281028440119
:104010002B084101A10044012A084101A0001828F1
:10402000440129084101A100440128084101A000E0
:1040300008004101D200470848040319202821281C
:1040400031284608B2004808B4004708B3005208B7
:10405000A231B722A031003A031D2F283028312881
:10406000F12841015208C900CA01C935CA0DC93534
:10407000CA0DC935CA0DC935CA0DC935CA0D490899
:10408000083ECB0000304A3DCC004B08CD004C0828
:10409000CE000030CE1BFF30CF00D00000304D04EA
:1040A000AD0001304E04AE0000304F04AF000030D0
:1040B0005004B0002030B100B1319F21A031410146
:1040C0005208C900CA01C935CA0DC935CA0DC9355A
:1040D000CA0DC935CA0DC935CA0D4908083ECB00FD
:1040E00000304A3DCC004B08CD004C08CE000030DB
:1040F000CE1BFF30CF00D00000304D04A4000230B2
:104100004E04A50000304F04A60000305004A70064
:10411000A801B4316F24A0314101D100511E912872
:104120009228C0285208C900CA01C935CA0DC9352C
:10413000CA0DC935CA0DC935CA0DC935CA0D4908D8
:10414000083ECB0000304A3DCC004B08CD004C0867
:10415000CE000030CE1BFF30CF00D00004304D0425
:10416000A40002304E04A50000304F04A600003029
:104170005004A7001830A800B4316F24A031F128F2
:10418000D11DC328C4285F285208C900CA01C935F7
:10419000CA0DC935CA0DC935CA0DC935CA0DC935CB
:1041A000CA0D4908083ECB0000304A3DCC004B0800
:1041B000CD004C08CE000030CE1BFF30CF00D00029
:1041C00004304D04A40002304E04A50000304F041A
:1041D000A60000305004A7000830A800B4316F24B6
:1041E000A03108004001D30143013C080319F9281C
:1041F000FA280F2954304001C3000030C4000130B8
:10420000C5000030C6000130B6315B26A031400148
:104210004303440403190D290E292529CB29420102
:104220001D1D13291429162940015E1642019D1CEB
:104230001A291B2921291D121D164001DE16D30142
:10424000D30A420119084001D4005308031929294F
:104250002A292E29BF315527A031CB2941016C08CD
:10426000031D33293429B92940015408B0314520B0
:10427000A031CB296208D0000230D036890B3D290D
:1042800050080F39D20098293F305405D0006208F9
:104290000339D1000530D135FF3E031D4B2951357F
:1042A0005004E900E201E101DF01DF0AAE293F30FD
:1042B0005405D00062080339D1000530D135FF3EE6
:1042C000031D5E2951355004B0314520A031AE297F
:1042D0003F305405D00062080339D1000530D13594
:1042E000FF3E031D6F2951355004E000AA306006DF
:1042F000031D7B297C297E29E101AE29E101E10A28
:104300000130F0000030F100BF31BE27A031AE29EE
:104310003F305405D00062080339D1000530D13553
:10432000FF3E031D8F2951355004E800DD01AE2901
:104330005208D000D1015108003A0319A029AE2932
:104340005008003A03194429013A03195729033A3E
:1043500003196829013A03198829AE294001E201AD
:10436000CB295408E200CB295408B0314520A031B4
:10437000AE2940015408C039D000D1015108003A9B
:104380000319C329B4295008803A03193A29403A3D
:104390000319B129B42908007E1CD029A031F228C4
:1043A0004101D60143013C080319D729D829ED2939
:1043B000D7304101C7000030C8000130C9000030CB
:1043C000CA000130B631FC26A1314101470348043F
:1043D0000319EB29EC29042AB62A42011D1DF129F3
:1043E000F229F42940015E1642019D1CF829F929A1
:1043F000002A1D121D164001DE164101D601D60A03
:10440000420119084101D70056080319082A092A50
:104410000D2AB0310220A131B62A6C08031D112AE1
:10442000122AA52A5708B031AA20A131B62A400184
:1044300062084101D3000230D336890B1C2A53088D
:104440000F39D500832A3F305705D3004001620859
:1044500003394101D4000530D435FF3E031D2C2A19
:10446000543553044001E900E201E101DF01DF0AB4
:10447000992A3F305705D3004001620803394101B2
:10448000D4000530D435FF3E031D422A5435530471
:10449000B031AA20A131992A3F305705D3004001FD
:1044A000620803394101D4000530D435FF3E031DB5
:1044B000552A543553044001E000AA306006031D1C
:1044C000622A632A652AE101992AE101E10A0130A1
:1044D0004101A0000030A100B0315E20A131992A35
:1044E0003F305705D3004001620803394101D40031
:1044F0000530D435FF3E031D792A5435530440015D
:10450000E800DD01992A5508D300D4015408003A87
:1045100003198B2A992A5308003A0319232A013ACE
:104520000319392A033A03194C2A013A0319702A4C
:10453000992A4001E201B62A57084001E200B62A52
:104540005708B031AA20A131992A5708C039D300A1
:10455000D4015408003A0319AE2AA02A5308803A1D
:104560000319172A403A03199C2AA02A080041017E
:10457000C50033083404031DBE2ABF2AC12A0130F6
:10458000A22B4508B500B601B535B60DB535B60D4B
:10459000B535B60DB535B60DB535B60D3508083E91
:1045A000B7000030363DB8003708B9003808BA0007
:1045B0000030BA1BFF30BB00BC0000303904A4003F
:1045C00020303A04A50000303B04A60000303C0433
:1045D000A700A831EA20A23141012508C200240821
:1045E000C10034084202031DF72A330841020318B0
:1045F000FA2AFB2AFD2A0030A22B4508B500B60195
:10460000B535B60DB535B60DB535B60DB535B60DF6
:10461000B535B60D3508083EB7000030363DB80058
:104620003708B9003808BA000030BA1BFF30BB00A9
:10463000BC0000303904A40024303A04A500003046
:104640003B04A60000303C04A700A831EA20A231B8
:1046500041012508C4002408C3004308B5004408EC
:10466000B600B701B8010830B535B60DB70DB80DB5
:10467000890B342B4508B900BA01B935BA0DB935E3
:10468000BA0DB935BA0DB935BA0DB935BA0D390803
:10469000103EBB0000303A3DBC003B08BD003C086A
:1046A000BE000030BE1BFF30BF00C00035083D0417
:1046B000A40036083E04A50037083F04A6003808C9
:1046C0004004A7003208A8000230A9003408AB005B
:1046D0003308AA00B5317D25A23141013308C30753
:1046E0003408C43D4508B500B601B535B60DB5353D
:1046F000B60DB535B60DB535B60DB535B60D3508B3
:10470000083EB7000030363DB8003708B900380819
:10471000BA000030BA1BFF30BB00BC0000303904C7
:10472000A40024303A04A50000303B04A600003069
:104730003C04A7004408A9004308A800B431F224AF
:10474000A231013008004001C2004208B200B301AA
:10475000B235B30DB235B30DB235B30DB235B30DBD
:10476000B235B30D3208083EB4000030333DB50019
:104770003408B6003508B7000030B71BFF30B8006A
:10478000B90000303604F40026303704F50000305C
:104790003804F60000303904F700A8312C20A3318A
:1047A00075084001BF007408BE0031083F02031DB8
:1047B000DB2B30083E020318DE2BDF2BE32B3F08F8
:1047C000B1003E08B00030083104031DE82BE92B8E
:1047D000EC2BAE01AF019B2C4208B200B301B23505
:1047E000B30DB235B30DB235B30DB235B30DB2352D
:1047F000B30D3208083EB4000030333DB500340834
:10480000B6003508B7000030B71BFF30B800B9005C
:1048100000303604F40028303704F5000030380446
:10482000F60000303904F700A8312C20A3317508B8
:104830004001C1007408C0002E082F040319212C68
:10484000222C622C4008B2004108B300B401B5012B
:104850000830B235B30DB40DB50D890B292C4208C3
:10486000B600B701B635B70DB635B70DB635B70DCD
:10487000B635B70DB635B70D3608183EB80000305E
:10488000373DB9003808BA003908BB000030BB1BFF
:10489000FF30BC00BD0032083A04F40033083B048A
:1048A000F50034083C04F60035083D04F7002F08F5
:1048B000F9002E08F8003108FB003008FA00B43186
:1048C0003024A33140013008C0073108C13D4208FF
:1048D000B200B301B235B30DB235B30DB235B30D7D
:1048E000B235B30DB235B30D3208083EB400003016
:1048F000333DB5003408B6003508B7000030B71BAB
:10490000FF30B800B90000303604F4002830370416
:10491000F50000303804F60000303904F700410893
:10492000F9004008F800B331F723A3314001310802
:10493000AF003008AE0008004101C6004608B600CE
:10494000B701B635B70DB635B70DB635B70DB635B7
:10495000B70DB635B70D3608083EB8000030373D04
:10496000B9003808BA003908BB000030BB1BFF3063
:10497000BC00BD0000303A04A40026303B04A50072
:1049800000303C04A60000303D04A700A831EA2016
:10499000A43141012508C3002408C20035084302A0
:1049A000031DD42C340842020318D72CD82CDC2C3D
:1049B0004308B5004208B40034083504031DE12C57
:1049C000E22CE52CB201B301942D4608B600B701E4
:1049D000B635B70DB635B70DB635B70DB635B70D1B
:1049E000B635B70D3608083EB8000030373DB9007F
:1049F0003808BA003908BB000030BB1BFF30BC00D0
:104A0000BD0000303A04A40028303B04A50000306B
:104A10003C04A60000303D04A700A831EA20A431E0
:104A200041012508C5002408C400320833040319D5
:104A30001A2D1B2D5B2D4408B6004508B700B801A0
:104A4000B9010830B635B70DB80DB90D890B222D57
:104A50004608BA00BB01BA35BB0DBA35BB0DBA3535
:104A6000BB0DBA35BB0DBA35BB0D3A08183EBC00BC
:104A700000303B3DBD003C08BE003D08BF0000309B
:104A8000BF1BFF30C000C10036083E04A400370839
:104A90003F04A50038084004A60039084104A700D7
:104AA0003308A9003208A8003508AB003408AA0072
:104AB000B5313625A43141013408C4073508C53D58
:104AC0004608B600B701B635B70DB635B70DB635E1
:104AD000B70DB635B70DB635B70D3608083EB80078
:104AE0000030373DB9003808BA003908BB00003043
:104AF000BB1BFF30BC00BD0000303A04A4002830CE
:104B00003B04A50000303C04A60000303D04A70093
:104B10004508A9004408A800B431F224A431410199
:104B20003508B3003408B20008004001EA006A0802
:104B30004101B400B501B435B50DB435B50DB4358A
:104B4000B50DB435B50DB435B50D3408083EB60015
:104B50000030353DB7003608B8003708B9000030DE
:104B6000B91BFF30BA00BB0000303804A400043089
:104B70003904A50000303A04A60000303B04A70029
:104B80003308A9003208A800B431F224A53140014D
:104B90006A084101B400B501B435B50DB435B50DA1
:104BA000B435B50DB435B50DB435B50D3408083E82
:104BB000B6000030353DB7003608B8003708B900F8
:104BC0000030B91BFF30BA00BB0004303804A40029
:104BD00002303904A50000303A04A60000303B043E
:104BE000A7000A30A800B4316F24A53140016A083B
:104BF0004101B400B501B435B50DB435B50DB435CA
:104C0000B50DB435B50DB435B50D3408083EB60054
:104C10000030353DB7003608B8003708B90000301D
:104C2000B91BFF30BA00BB0000303804AD000130C2
:104C30003904AE0000303A04AF0000303B04B0004D
:104C40001030B100B1319F21A53140016A08410106
:104C5000B400B501B435B50DB435B50DB435B50DE9
:104C6000B435B50DB435B50D3408083EB600003086
:104C7000353DB7003608B8003708B9000030B91B19
:104C8000FF30BA00BB0004303804A40000303904FF
:104C9000A50000303A04A60000303B04A700A8019C
:104CA000A80AB4316F24A53140016A084101B4005B
:104CB000B501B435B50DB435B50DB435B50DB43554
:104CC000B50DB435B50D3408083EB6000030353D9D
:104CD000B7003608B8003708B9000030B91BFF30FC
:104CE000BA00BB0000303804AD0001303904AE001A
:104CF00000303A04AF0000303B04B000B101B10A0B
:104D0000B1319F21A53140016A084101B400B501CC
:104D1000B435B50DB435B50DB435B50DB435B50DE7
:104D2000B435B50D3408083EB6000030353DB70047
:104D30003608B8003708B9000030B91BFF30BA0098
:104D4000BB0000303804A40003303904A500003053
:104D50003A04A60000303B04A700A801B4316F2438
:104D6000A531133A031DB52EB62EC72D08004101FB
:104D7000CC00BF30A0000130A100FF30A200003005
:104D8000A3000430A4000030A500AF313527A631C0
:104D900066304101A0000230A1000030A200A30053
:104DA0000430A4000030A500AF313527A631410101
:104DB0004C08C400C501C435C50DC435C50DC43586
:104DC000C50DC435C50DC435C50D4408083EC60023
:104DD0000030453DC7004608C8004708C9000030FC
:104DE000C91BFF30CA00CB0004304804A4001F30A8
:104DF0004904A50000304A04A60000304B04A70077
:104E00000230A800B4316F24A63141014C08C4001F
:104E1000C501C435C50DC435C50DC435C50DC43572
:104E2000C50DC435C50D4408083EC6000030453DDB
:104E3000C7004608C8004708C9000030C91BFF303A
:104E4000CA00CB0004304804A4001E304904A50069
:104E500000304A04A60000304B04A7000230A8002E
:104E6000B4316F24A63144304101B2000030B300A8
:104E7000BF30B4004330B5000030B6004C089A3162
:104E8000E322A631B531C525A631FF3041013605F3
:104E9000C4000F303705C5004408C6004508C700E8
:104EA0000030C71BFF30C800C90000304606420171
:104EB000DA005030410147064201DB00B0304101C9
:104EC00048064201DC00AE30410149064201DD00E6
:104ED0005D084401A70042015C084401A6004201AC
:104EE0005B084401A50042015A084401A4004101A5
:104EF00043084201E000410143080319802F812F3C
:104F00009A2FBF30A0000130A1000030A200A30002
:104F10000430A4000030A500AF313527A6310130A0
:104F20004201DE000030DF0004304301B2000030F7
:104F3000B300B72F0030A7000030A6000F30A50047
:104F40000030A400BF30A8000130A9000430AA003E
:104F50000030AB00B5313625A63108304201DE0005
:104F60000030DF0040304301B2000030B300623057
:104F70004101A0000230A100FF30A2000030A300D8
:104F80000430A4000030A500AF313527A6315E30D3
:104F90004101A0000230A1000030A200A3000430B3
:104FA000A4000030A500AF313527A6310030430101
:104FB000AB000030AA000030A9000030A8002B0888
:104FC0004201D50043012A084201D40043012908C7
:104FD0004201D300430128084201D2005508D900FC
:104FE0005408D8005308D7005208D60000304401B6
:104FF000A3000030A2000030A1000030A000080093
:10500000013441012308AA002208A9002108A800B0
:105010002008A7001F28290886002A088700010801
:10502000A6000130A9070030AA3D270886002808FD
:105030008700260881000130A7070030A83D013015
:10504000A4020030A53B240A031D2A28250A031DBB
:105050002A282B280B2808004001AB01AB0A991223
:105060007408F8007508F9007608FA007708FB0064
:105070001030FB36FA0CF90CF80C890B392878083B
:10508000E3007408F8007508F9007608FA0077085C
:10509000FB000830FB36FA0CF90CF80C890B4A2897
:1050A0007808E4007408E5006330F0000030F10097
:1050B0000530F2000030F300B131C421A8314001C5
:1050C00099162D08AA002C08A9006708F800F90114
:1050D0006608FA00FB017A08FB00FA0178087A04F6
:1050E000AC0079087B04AD002B08031978287928D7
:1050F0007B28AB012F282A082D06031D81282908AB
:105100002C06031D842885282F282D08F5002C083F
:10511000F40008004201650803198F2890289F2891
:1051200015304101AE004B30AD00BE30890B9628E2
:10513000AD0B9628AE0B962800004201E501003029
:105140004101A7000030A6000030A5000430A400F3
:105150008030A800B4316F24A83109304101AE007D
:105160001E30AD00E430890BB328AD0BB328AE0B75
:10517000B32800000A304101AF000030B000D7284A
:1051800001304101AF020030B03B2F0A031DCC2893
:10519000300A031DCC28CD28CE28E928D030410183
:1051A000AD00C930890BD228AD0BD22800320030B7
:1051B0004101A7000030A6000030A5000030A40087
:1051C000A801B4316F24A8318039031DE828E928EB
:1051D000C02808004101AF01AF0A40019912410106
:1051E0002408A8002508A9002608AA002708AB0063
:1051F0001030AB36AA0CA90CA80C890BF92828088A
:105200004001E30041012408A8002508A900260860
:10521000AA002708AB000830AB36AA0CA90CA80CD2
:10522000890B0C2928084001E400410124084001B1
:10523000E50063304101A0000030A1000530A2006C
:105240000030A300B2313A22A83140019916410141
:105250003108AE003008AD00400167084101A800E8
:10526000A901400166084101AA00AB012A08AB0070
:10527000AA0128082A04B00029082B04B1002F082D
:105280000319432944294629AF01ED282E08310688
:10529000031D4C292D083006031D4F295029ED28E8
:1052A0003108A5003008A4000800AB3040012206F8
:1052B000031D5B295D299031322802302302031C33
:1052C000622963295B2908302102031C68296929A6
:1052D0005B29263601394301C300C401400124087B
:1052E0004301C5000230C536890B732945080639CC
:1052F000C600C701400125081F394301C800C90184
:10530000C835C90DC835C90DC835C90D40012508B6
:10531000C0394301CA00CB01CA35CB0DCA35CB0D0C
:1053200048084A04CC0049084B04CD0046084C0408
:10533000CE0047084D04CF0043084E04B400440893
:105340004F04B500F7303405C30003303505C40001
:10535000E73043064404031DAE29AF29B5290130C7
:10536000B4000030B500903170286E303405C300B1
:1053700000303505C400663043064404031DC129CE
:10538000C229C7290230B4000030B500B329B41BCC
:10539000CA29CB29D0290330B4000030B500B32985
:1053A000341BD329D52990310D280430B4000030A6
:1053B000B500B329FC3041019E053F30B031772064
:1053C000A93100304101CE000030CD000030CC00CA
:1053D0000030CB00CF01D0010D30890BED2900004A
:1053E0008731FD27A931BE313126A931003A031991
:1053F000FA29FB29F329BE310426A93141012008ED
:10540000CB072108CC3D0030CD3DCE3D0130CF074C
:105410000030D03D5008803AC60080304602031D5F
:10542000132A0A304F02031C162A172AEC290330CC
:1054300041019E040030B9000030B8000030B700D0
:105440000A30B600430123084101AD0043012208A0
:105450004101AC00430121084101AB004301200898
:105460004101AA000030B1000030B0000330AF00AD
:10547000FF30AE00B3312123A93141012D08BD0019
:105480002C08BC002B08BB002A08BA00B731A5279E
:10549000A93141013908CA003808C9003708C800D5
:1054A0003608C7004E08B9004D08B8004C08B700D0
:1054B0004B08B6004A08BD004908BC004808BB00BC
:1054C0004708BA00B731A527A93141013708C500FF
:1054D0003608C4000800F80154011D1D702A712A05
:1054E000732A40015E1454019D1C772A782A7E2A73
:1054F0001D121D164001DE14F801F80A54011908A6
:10550000FA0078080319852A862A8A2ABF31552786
:10551000AA31FC2A41016C08031D8F2A902A972A80
:105520007A08F4000130AB319D23AA31FC2A4001F6
:105530006103031D9C2A9D2AD42AAA307A06031DE2
:10554000A22AA32AD42A3F3043015502031CA92AC8
:10555000AA2AB22AE43000320032890BAB2A003288
:105560000032C02A5508F9007908031DB82AB92A63
:10557000BA2AC02A1830890BBB2A0130F902B42A92
:1055800040016008B0314520AA31003A0319C92A08
:10559000CA2AFC2A02304001E1007A08F4000130F6
:1055A000AB319D23AA31FC2A02306106031DD92AA2
:1055B000DA2AF62A7A086006031DDF2AE02AE72A9B
:1055C0007A08F4000230AB319D23AA31ED2A7A0823
:1055D000F4000A30AB319D23AA314001E1010030D3
:1055E000F000F100BF31BE27AA31FC2A7A08F4008E
:1055F0000130AB319D23AA3108003C30B031772017
:10560000AA3100304101D5000030D4000030D30071
:105610000030D200D601D7010D30890B0D2B0000D0
:105620008731FD27AA3188310020AA31BE313126C9
:10563000AA31003A03191D2B1E2B162BBE3104264E
:10564000AA3141012008D2072108D33D0030D43DC2
:10565000D53D0130D6070030D73D5708803AC60007
:1056600080304602031D362B0A305602031C392BAC
:105670003A2B0C2B430130084101C600430131088D
:105680004101C700C801C9015208CA005308CB0034
:105690005408CC005508CD000130CA35CB0DCC0DD7
:1056A000CD0D890B4D2B4608CA024708CB3B480855
:1056B000CC3B4908CD3B4D08AD004C08AC004B0835
:1056C000AB004A08AA00430123084101B10043018D
:1056D00022084101B000430121084101AF0043010C
:1056E00020084101AE00B3312123AA3141012D0828
:1056F000D1002C08D0002B08CF002A08CE000030A3
:10570000B9003930B8008130B7009C30B60051087C
:10571000BD005008BC004F08BB004E08BA00B731AE
:10572000A527AA315A304101C60036084602C400F6
:1057300037090318890AC5000800F70043013C082F
:105740000319A32BA42BEE2BD2305602031CA92B3A
:10575000AA2BAE2BBF315527AB31462C41016C082B
:105760000319B32BB42BBF2B7703031DB82BB92B15
:10577000CB2B803074020318BE2BBF2BCB2B4301E5
:105780005608860002308700740881000130F50059
:105790007508D607462C430156088600023087005C
:1057A0007408F5000630F536890BD32B7708F60020
:1057B0000130F635FF3E031DD92B76357504C03810
:1057C00081000130F5007508D607560886000230C2
:1057D000870074083F3980388100C62B3D080319C3
:1057E000F22BF32B032C3B080319F72BF82B032C7C
:1057F00054080319FC2BFD2B462C40018D1C012C59
:10580000022C032C462CBE312326AB31003A03195F
:105810000A2C0B2C112C420163080319102C112C9B
:10582000142C4E011916AA2B41016C080319192CCE
:105830001A2C252C7703031D1E2C1F2C2A2C80309C
:1058400074020318242C252C2A2C7408BE318E26B1
:10585000AB31462C7408F5000630F536890B2D2C3B
:105860007708F6000130F635FF3E031D332C763500
:105870007504C038BE318E26AB3174083F3980388C
:105880004201E400E301E30A4E0119160800410158
:10589000A70043013C0803194E2C4F2C9E2CD230FC
:1058A0005602031C542C552C592CB0310220AC311B
:1058B000F72C41016C0803195E2C5F2C6A2C27031E
:1058C000031D632C642C782C803024020318692C6F
:1058D0006A2C782C4301560886000230870041016B
:1058E000240881000130A50025084301D607F72CC4
:1058F0004301560886000230870041012408A500B4
:105900000630A536890B812C2708A6000130A63564
:10591000FF3E031D872C26352504C0388100013049
:10592000A50025084301D6075608860002308700E7
:10593000410124083F3980388100722C3D08031949
:10594000A22CA32CB32C3B080319A72CA82CB32CF6
:1059500054080319AC2CAD2CF72C40018D1CB12C34
:10596000B22CB32CF72CBE313826AC31003A0319D7
:10597000BA2CBB2CC12C420163080319C02CC12CCA
:10598000C42C4E011916552C41016C080319C92C61
:10599000CA2CD52C2703031DCE2CCF2CDA2C80301B
:1059A00024020318D42CD52CDA2C2408BE31B526B9
:1059B000AC31F72C2408A5000630A536890BDD2C68
:1059C0002708A6000130A635FF3E031DE32C26352F
:1059D0002504C038BE31B526AC31410124083F3919
:1059E00080384201E400E301E30A4E011916080081
:1059F0004001EA00672D40016A084101B300B4018B
:105A0000B335B40DB335B40DB335B40DB335B40DF2
:105A1000B335B40D3308083EB5000030343DB60050
:105A20003508B7003608B8000030B81BFF30B900A1
:105A3000BA0000303704AD0001303804AE00003049
:105A40003904AF0000303A04B0000230B100B13187
:105A50009F21AC31A72D320803192F2D302D652D34
:105A600040016A084101B300B401B335B40DB33548
:105A7000B40DB335B40DB335B40DB335B40D33082F
:105A8000083EB5000030343DB6003508B700360892
:105A9000B8000030B81BFF30B900BA00003037043E
:105AA000A4000C303804A50000303904A6000030F2
:105AB0003A04A7003208A8000030A9000430AA0068
:105AC0000030AB00B5313625AC310130A82D6A0865
:105AD0004101B300B401B335B40DB335B40DB335E2
:105AE000B40DB335B40DB335B40D3308083EB5006D
:105AF0000030343DB6003508B7003608B800003035
:105B0000B81BFF30B900BA0000303704A4000330DE
:105B10003804A50000303904A60000303A04A7007C
