:1000000080310628AB3402348431042C40010308CB
:10001000A00080310B28FC01FD0129308400003054
:1000200085000D308331C2238031A0308400003040
:10003000850049308331C223803140018331072B51
:1000400042019E1C2428252820288331A9238031A1
:1000500042011F1432289F1F2E282F2832281F10DC
:100060009F131F141F18352836282B288331772318
:1000700080314001B901BA010930B7000030B80041
:1000800071288331772380314001B6003908A03EC2
:1000900086008701360881000130B9070030BA3D7B
:1000A000043039063A04031D5628572871280230B7
:1000B0004101200603195D285E286A2805302006C4
:1000C0000319632864286A2807302006031D69285D
:1000D0006A28712821084001B70741012208400120
:1000E000B83D400138083A02031D78283708390224
:1000F000031C7B287C2841288031A7208031FA000E
:10010000FB017A084001B7007B08B8005530833105
:100110009F2380314001B901BA019B283908A03ED4
:1001200086008701010883319F238031013040011F
:10013000B9070030BA3D38083A02031DA128370834
:100140003902031CA428A5288E2820280800410174
:1001500023084001F000410124084001F100D628A5
:10016000823114228031F9288231B0228031F9287D
:100170008031FA208031F9288131D8218031F92865
:1001800082314D228031F92881314D218031F92889
:10019000813196218031F928A901A90AFC01FC0AC4
:1001A0000A30F928FF30A9000A30F9284101200857
:1001B000F800F9017908003A0319DF28D2287808F5
:1001C000003A0319B028013A0319B428033A031975
:1001D000B828013A0319BC28053A0319C028013A86
:1001E0000319C4280F3A0319C828013A0319CC2867
:1001F000D22808004101250850019A004101260833
:1002000050019B00A4309E00F501F6013B291F30F0
:1002100050011A05F3001F30730603191029112924
:10022000222941012108FE3EF300FF30223DF40067
:1002300076087406031D1E2975087306031D2129FF
:100240002229242950019E127508A93E86008701A3
:10025000010850019C007508AA3E8600870101082C
:100260009D008331BB23803183318723803102306D
:10027000F5070030F63D410122087602031D4229B0
:1002800021087502031C452946290729A901A90A45
:100290004001F001F1010A30080041012508500138
:1002A0009A004101260850019B00410125082604BF
:1002B000031D5B295C296529D43050019E008331E0
:1002C000BB23813150019A019B01C43050019E0033
:1002D000F50181297508A93E8600870101085001B2
:1002E0009C007508AA3E8600870101089D008331A5
:1002F000BB2381318331872381310230F3007308BE
:10030000F5077508F300F401410122087402031D8A
:100310008B2921087302031C8E298F296A29A901C0
:10032000A90A4001F001F1010A3008004101250845
:1003300050019A004101260850019B0080309E0028
:100340004001B101B201F601F701C32950011E14A9
:100350001C08F300F40173084001B1077408B23DB2
:1003600050011D08F300F4017308F400F301730851
:100370004001B1077408B23D8331872381310230D7
:10038000F6070030F73D410122087702031DCA2914
:1003900021087602031CCD29CE29A6294001310867
:1003A0004101A900400132084101AA000B300800B8
:1003B0004101250850019A004101260850019B0087
:1003C000F401F501032A7F3050011B05F300403092
:1003D0007302031CEC29ED29F229FE304101A9002A
:1003E0000A30132A94309E008331BB2381311F30A1
:1003F000F300730850019A0783318723813101305C
:10040000F4070030F53D410122087502031D0A2A58
:1004100021087402031C0D2A0E2AE329A901A90A46
:10042000A301A4010A30080008304101A900AA0173
:10043000AB01AC01AC0AAD01AE01063050019A002F
:100440009B011E171E141C084101AF0050011D081E
:100450004101B000B101B2012030B3002030B4003E
:1004600050019A019B011E170C30F40050011E141C
:100470007408A93E860087011C0881008331872308
:1004800082310130F3007308F40710307402031C4A
:100490004A2A4B2A362A1930080041012508500102
:1004A0009A004101260850019B0040309E00F50152
:1004B0006E2A50011E147508A93E860087011C088B
:1004C00081007508AA3E860087011D0881008331DE
:1004D000872382310230F3007308F5077508F300B3
:1004E000F401410122087402031D782A21087302D5
:1004F000031C7B2A7C2A592A2108093E0800403027
:1005000040019800303099009A01BF309200C63007
:100510009300FF309400E3307E01CE000230C30030
:10052000BF30B800E501FD30C4005030B9003830AC
:10053000CF00BA01C501D001FF30BB00FF30C600BB
:10054000FF30D100FF30BC00FF30C700FF30D200C9
:100550000830E8000F309B000A307D01CB00080016
:100560004101250850019A004101260850019B00D5
:1005700080309E00F301F401D22A50011E1473084A
:10058000A93E860087011C0881007308AA3E8600E8
:1005900087011D0881008331872382310230F307F0
:1005A0000030F43D410122087402031DD92A2108BC
:1005B0007302031CDC2ADD2ABD2A2108093E08003B
:1005C000F30100000130F2007208F307730A031D03
:1005D000EA2AEB2AE12A40018D1BEF2AF02AF22AAF
:1005E0000130062B50019A0104309B0080309E00A0
:1005F0001E143F301D06031DFE2AFF2A052B1C0A70
:10060000031D032B042B052BF02A003008000830B3
:100610004001A100AB30A2000230A3002008A400DA
:10062000500113084001A500500114084001A60024
:10063000500193181C2B1D2B212B4001A701A80151
:10064000262B01304001A7070030A83D83316723E6
:100650008331292B80310628083042019F009030D9
:100660009D0024309E0040309B0003309C000030F1
:10067000F2000030F3008331CE2383310030F200EA
:100680000030F3008331C82383310030F2000030A2
:10069000F3008331D42383314001B30108004001CA
:1006A000F001F10119148231E0228331013A031D76
:1006B0005A2B5B2B5E2B8031202083311F307F0132
:1006C000ED004001880119108431002C08008331AD
:1006D000B323833182317F22833183319523833168
:1006E00083312C23833183314F23833108004E0122
:1006F0008F1E7B2B7C2B772B4001B30142019D1C6D
:10070000822B832B852B1D121D1619080800013022
:10071000F200720850019A07031D8F2B902B942B27
:100720000130F20072089B070800603051018D0013
:100730008F01910106309300900192010800F200B0
:100740004E010F1EA42BA52BA02B720842019A006C
:1007500008007C03031DAD2BAE2BB22B4001131000
:100760001910010008004F019601970198019901A5
:100770009A019B010800640070089F0071089F00A7
:100780009E140800640080010131890BC32B0034E2
:1007900073084001AC007208AB0008007308400108
:1007A000AE007208AD00080073084001AA0072088C
:0407B000A900080094
:100800008431542CAE3401347E1484314E01961E52
:100810000A2C0B2C122C8C1E0E2C0F2C122CB031EF
:10082000462084310B1F152C162C522C4E01991F7B
:100830001A2C1B2C252C8F1F1E2C1F2C252C400105
:100840005C088A005B080A0084314E01191F292CBC
:100850002A2C342C0F1F2D2C2E2C342C40015A08FE
:100860008A0059080A0084314E01991E382C392C0F
:10087000432C8F1E3C2C3D2C432C400158088A00F1
:1008800057080A0084314E01191E472C482C522C5F
:100890000F1E4B2C4C2C522C400156088A00550838
:1008A0000A0084317E10090040018431572CBD318B
:1008B000FA258431E800BD31FB258431E90041018E
:1008C000A03100208431EC004201BD31F925843192
:1008D000E5004D308400BE308500D3308600013005
:1008E00087000730BE311E26843100308400B030CE
:1008F00085006A308600023087000430BE311E2633
:10090000843124308400BE308500D030860002302F
:1009100087000630BE311E268431553084000030F9
:1009200085001330BE3118268431523084000130E6
:1009300085001330BE3118268431A0308400013088
:1009400085002630BE3118268431203084000230E4
:1009500085004A30BE3118268431A0308400023030
:1009600085003030BE31182684317E104001A93117
:10097000612941016B080F3E8600023087000108A3
:100980000F39573EDE00003003180130DF00D62C4F
:1009900041016B080F3E86000230870001080F39C5
:1009A000303EDE00003003180130DF006A086B07BC
:1009B0004201A000200886000230870041015E0845
:1009C000810001304201A00020084101EA076708C8
:1009D0004201A000410168084201A100A201A30157
:1009E0000830A035A10DA20DA30D890BF12C4101FA
:1009F00069084201A400A501A435A50DA435A50DE3
:100A0000A435A50DA435A50DA435A50D2408103ECB
:100A1000A6000030253DA7002608A8002708A90049
:100A20000030A91BFF30AA00AB00200828044101B8
:100A3000A4004201210829044101A5004201220825
:100A40002A044101A600420123082B044101A7000A
:100A50006B08A8000230A9006A084201AC00AD0191
:100A60002C084101AA0042012D084101AB00B5311B
:100A70007D25843141016A084201A000A1012008BE
:100A80004101E707420121084101E83D5308031DE8
:100A90004A2D4B2D222EFF3042015E05A000003072
:100AA0005F05A100033020062104031D582D592D98
:100AB000222E4101EA016A086B074201A0002008CA
:100AC000860002308700323081000130A00020080B
:100AD0004101EA076A086B074201A000200886006E
:100AE00002308700043081000130A000200841015D
:100AF000EA076B086A07A0000230A100C230A2001A
:100B00000130A3000430A4000030A500B2316E22F1
:100B1000843104304201A00020084101EA076A083C
:100B20006B074201A00020088600023087003630A3
:100B300081000130A00020084101EA076A086B0724
:100B40004201A000200886000230870004308100A6
:100B50000130A00020084101EA076B086A07A000E5
:100B60000230A1006630A2000230A3000430A400CD
:100B70000030A500B2316E22843104304201A00061
:100B800020084101EA0767084201A0004101680806
:100B90004201A100A201A3010830A035A10DA20DC0
:100BA000A30D890BCD2D410169084201A400A501C7
:100BB000A435A50DA435A50DA435A50DA435A50D09
:100BC000A435A50D2408103EA6000030253DA70041
:100BD0002608A8002708A9000030A91BFF30AA009A
:100BE000AB00200828044101A40042012108290487
:100BF0004101A500420122082A044101A600420148
:100C000023082B044101A7006B08A8000230A900AB
:100C10006A084201AC00AD012C084101AA00420162
:100C20002D084101AB00B5317D25843141016A08B1
:100C30004201A000A10120084101E707420121086B
:100C40004101E83D4101EA016A086B074201A00049
:100C50002008860002308700373081000130A00074
:100C600020084101EA0742016008031D382E392E91
:100C70003F2E02304101E0000030E100442E0430FC
:100C80004101E0000030E1006A086B074201A0006A
:100C90002008860002308700410160088100013091
:100CA0004201A00020084101EA076A086B074201DF
:100CB000A00020088600023087008101810A0130EF
:100CC000A00020084101EA076A086B074201A00062
:100CD0002008860002308700033081000130A00028
:100CE00020084101EA07420160080319782E792E95
:100CF000982E41016A086B074201A0002008860077
:100D0000023087003A3081000130A0002008410104
:100D1000EA076A086B074201A0002008860002303B
:100D200087003B3081000130A00020084101EA0724
:100D300041016A086B074201A000200886000230CA
:100D40008700FF3081000130A00020084101EA0740
:100D500067084201A000410168084201A100A20108
:100D6000A3010830A035A10DA20DA30D890BB22E51
:100D7000410169084201A400A501A435A50DA435CF
:100D8000A50DA435A50DA435A50DA435A50D2408E4
:100D9000103EA6000030253DA7002608A800270821
:100DA000A9000030A91BFF30AA00AB0020082804CE
:100DB0004101A4004201210829044101A50042018A
:100DC00022082A044101A600420123082B04410104
:100DD000A7006B08A8000230A9006A084201AC0015
:100DE000AD012C084101AA0042012D084101AB00D0
:100DF000B5317D25843141016A084201A000A1017D
:100E000020084101E707420121084101E83D690846
:100E10004201A000A101A035A10DA035A10DA03572
:100E2000A10DA035A10DA035A10D2008083EA200FE
:100E30000030213DA3002208A4002308A5000030B3
:100E4000A51BFF30A600A700003024044101A40028
:100E50002430420125044101A5000030420126044E
:100E60004101A6000030420127044101A7006808A3
:100E7000A9006708A800B431F22484314101660852
:100E80000319432F442F662F3A30A0000230A100EF
:100E90000030A200A3000430A4000030A500AF3150
:100EA0003527843100304101A7000030A6000F3003
:100EB000A5000030A4003A30A8000230A900043098
:100EC000AA000030AB00B5317D25843141016B08AB
:100ED000C6000030C700C8006908A031F320843183
:100EE000410166080319752F762F892F0030A7005E
:100EF0000030A6000F30A5000030A400C230A800CA
:100F00000130A9000430AA000030AB00B5317D25C6
:100F1000843108004001EA00BE2F40016A08410107
:100F2000B200B301B235B30DB235B30DB235B30D66
:100F3000B235B30DB235B30D3208083EB4000030FF
:100F4000333DB5003408B6003508B7000030B71B94
:100F5000FF30B800B90000303604AD00013037046E
:100F6000AE0000303804AF0000303904B00010305B
:100F7000B100B131D02187310130FC2F6A08410125
:100F8000B200B301B235B30DB235B30DB235B30D06
:100F9000B235B30DB235B30D3208083EB40000309F
:100FA000333DB5003408B6003508B7000030B71B34
:100FB000FF30B800B90000303604A4000330370415
:100FC000A50000303804A60000303904A700A801AD
:100FD000B4316F2487314101BA00BB013B08003AAC
:100FE0000319F32FFB2F3A08003A0319BC2F1C3AC0
:100FF00003198D2FFB2F0030080041019D140800BC
:101000004B019E1708004001D30143013F0803191B
:101010000A280B28202854304001C3000030C400A7
:101020000130C5000030C6000130B6315B26883182
:1010300040014303440403191E281F283628DC28D6
:1010400042011D1D24282528272840015E16420143
:101050009D1C2B282C2832281D121D164001DE163F
:10106000D301D30A420119084001D40053080319DF
:101070003A283B283F28BF316B278831DC284101C3
:101080006C08031D44284528CA2840015408B03183
:101090005D208831DC286208D0000230D036890B10
:1010A0004E2850080F39D200A9283F305405D000EF
:1010B00062080339D1000530D135FF3E031D5C289D
:1010C00051355004E900E201E101DF01DF0ABF28E8
:1010D0003F305405D00062080339D1000530D135C6
:1010E000FF3E031D6F2851355004B0315D2088311B
:1010F000BF283F305405D00062080339D1000530C5
:10110000D135FF3E031D802851355004E000AA3040
:101110006006031D8C288D288F28E101BF28E1017E
:10112000E10A0130F0000030F100BF31D4278831EE
:10113000BF283F305405D00062080339D100053084
:10114000D135FF3E031DA02851355004E800DD01D4
:10115000BF285208D000D1015108003A0319B12824
:10116000BF285008003A03195528013A0319682886
:10117000033A03197928013A03199928BF28400135
:10118000E201DC285408E200DC285408B0315D207C
:101190008831BF2840015408C039D000D10151081E
:1011A000003A0319D428C5285008803A03194B285F
:1011B000403A0319C228C528080062304101A00046
:1011C0000230A1002E30A2000230A3000430A4009F
:1011D0000030A500B2316E228831672B5E304101AC
:1011E000A0000230A1002E30A2000230A300043083
:1011F000A4000030A500B2316E228831672BFF3089
:10120000A0000030A1000030A2000030A300440183
:101210002E084201A40044012F084201A500440108
:1012200030084201A600440131084201A7001830ED
:10123000A736A60CA50CA40C890B18292408A00518
:101240002508A1052608A2052708A3050030A80047
:10125000FF30A9000030AA000030AB0044012E0886
:101260004201AC0044012F084201AD0044013008A6
:101270004201AE00440131084201AF000830AF36F0
:10128000AE0CAD0CAC0C890B3F292C08A8052D0821
:10129000A9052E08AA052F08AB050030B0000030C4
:1012A000B100FF30B2000030B30044012E0842010B
:1012B000B40044012F084201B50044013008420146
:1012C000B600440131084201B7000830B435B50D0D
:1012D000B60DB70D890B66293408B0053508B10580
:1012E0003608B2053708B3050030B8000030B90041
:1012F0000030BA00FF30BB0044012E084201BC00A0
:1013000044012F084201BD00440130084201BE00E3
:10131000440131084201BF001830BC35BD0DBE0D7F
:10132000BF0D890B8D293C08B8053D08B9053E085D
:10133000BA053F08BB053808B0043908B1043A08BB
:10134000B2043B08B3043008A8043108A9043208E9
:10135000AA043308AB0420082804D6002108290475
:10136000D70022082A04D80023082B04D900672BB1
:1013700044012E084101DB00672B66304101A000CB
:101380000230A1002E30A2000230A3000430A400DD
:101390000030A500B2316E228831672BFF30A000EB
:1013A0000030A1000030A2000030A30044012E084C
:1013B0004201A40044012F084201A5004401300865
:1013C0004201A600440131084201A7001830A736A7
:1013D000A60CA50CA40C890BE7292408A005250858
:1013E000A1052608A2052708A3050030A800FF30A4
:1013F000A9000030AA000030AB0044012E084201D1
:10140000AC0044012F084201AD0044013008420104
:10141000AE00440131084201AF000830AF36AE0CD7
:10142000AD0CAC0C890B0E2A2C08A8052D08A905BB
:101430002E08AA052F08AB050030B0000030B1001F
:10144000FF30B2000030B30044012E084201B40066
:1014500044012F084201B500440130084201B600A2
:10146000440131084201B7000830B435B50DB60D5E
:10147000B70D890B352A3408B0053508B105360893
:10148000B2053708B3050030B8000030B9000030AD
:10149000BA00FF30BB0044012E084201BC004401E9
:1014A0002F084201BD00440130084201BE00440142
:1014B00031084201BF001830BC35BD0DBE0DBF0D57
:1014C000890B5C2A3C08B8053D08B9053E08BA05F9
:1014D0003F08BB053808B0043908B1043A08B20423
:1014E0003B08B3043008A8043108A9043208AA0450
:1014F0003308AB0420082804D20021082904D300B3
:1015000022082A04D40023082B04D500672BFF30BF
:10151000A0000030A1000030A2000030A300440170
:101520002E084201A40044012F084201A5004401F5
:1015300030084201A600440131084201A7001830DA
:10154000A736A60CA50CA40C890BA02A2408A0057C
:101550002508A1052608A2052708A3050030A80034
:10156000FF30A9000030AA000030AB0044012E0873
:101570004201AC0044012F084201AD004401300893
:101580004201AE00440131084201AF000830AF36DD
:10159000AE0CAD0CAC0C890BC72A2C08A8052D0885
:1015A000A9052E08AA052F08AB050030B0000030B1
:1015B000B100FF30B2000030B30044012E084201F8
:1015C000B40044012F084201B50044013008420133
:1015D000B600440131084201B7000830B435B50DFA
:1015E000B60DB70D890BEE2A3408B0053508B105E4
:1015F0003608B2053708B3050030B8000030B9002E
:101600000030BA00FF30BB0044012E084201BC008C
:1016100044012F084201BD00440130084201BE00D0
:10162000440131084201BF001830BC35BD0DBE0D6C
:10163000BF0D890B152B3C08B8053D08B9053E08C0
:10164000BA053F08BB053808B0043908B1043A08A8
:10165000B2043B08B3043008A8043108A9043208D6
:10166000AA043308AB04200828044301A80042015F
:10167000210829044301A900420122082A04430148
:10168000AA00420123082B044301AB00672B60082A
:101690004201A000A1012108003A0319502B672B39
:1016A0002008013A0319DD28023A0319EE28303ADE
:1016B0000319FF28063A0319B829033A0319BD296B
:1016C0000C3A0319CE29013A0319872A672B4101E5
:1016D00063086502031D6E2B62086402031C712BF4
:1016E000732BAE31B62E410164086202D300650847
:1016F000633BD4006608BF3157278831FF30420171
:101700005E05A00000305F05A10003302006210423
:10171000031D8B2B8C2B4A2C5908031D9A2B580820
:10172000031D9A2B5708031D9A2BF03056020318FD
:101730009A2B9B2BA42B00304201D9000030D800FB
:101740000030D700F030D60042015508031DB42BFD
:101750005408031DB42B5308031DB42B78305202D8
:10176000031CB32BB42BC72B420159085502031D90
:10177000C32B58085402031DC32B57085302031DE3
:10178000C32B56085202031CC62BC72BE62B420163
:101790005608A0005708A1005808A2005908A30045
:1017A0000330A336A20CA10CA00C890BD12B023064
:1017B000A035A10DA20DA30D890BD82B2308D500B0
:1017C0002208D4002108D3002008D20043012B08AE
:1017D000031DF62B2A08031DF62B2908031DF62BE3
:1017E000D2302802031CF52BF62B102C420159088D
:1017F00043012B02031D0C2C4201580843012A020D
:10180000031D0C2C4201570843012902031D0C2C17
:101810004201560843012802031C0F2C102C4A2CAD
:1018200042015608A0005708A1005808A200590814
:10183000A3000330A336A20CA10CA00C890B1A2C18
:1018400023084101AD00420122084101AC004201E0
:1018500021084101AB00420120084101AA000030EB
:10186000B1000030B0000030AF000730AE00B3313F
:101870005923883141012D084301AB0041012C0857
:101880004301AA0041012B084301A90041012A0894
:101890004301A80041015B08080046013F08031905
:1018A000522C532C5C2CBF0100304101A000A10040
:1018B000B03176208C31662CBF01BF0A1430410153
:1018C000A0000030A100B03176208C3103304301FC
:1018D000C7000830C6007730890B6C2CC60B6C2C07
:1018E000C70B6C2C00309C313A248C310030410104
:1018F000A7000030A6002E30A5000030A400A801EB
:10190000B4316F248C3101390319872C882C4D2C6C
:1019100043012F084101C20043012E084101C100CB
:1019200043012D084101C00043012C084101BF00C3
:1019300046013C084101C3000030A631B7268C3176
:1019400046013C080319A52CA62C722D43012F0833
:101950004601A30043012E084601A20043012D08C1
:101960004601A10043012C084601A000B801B80AB5
:10197000AD016C2D230843012F06031DCF2C46011A
:10198000220843012E06031DCF2C460121084301E6
:101990002D06031DCF2C4601200843012C06031DF4
:1019A000D22CD32C082D46013808031DD82CD92C55
:1019B000082D43012F084101C20043012E084101B7
:1019C000C10043012D084101C00043012C08410121
:1019D000BF00C301C30A0030A631B7268C31082DE1
:1019E0004601AD01AD0A2C2D02302C074601A000A6
:1019F000003043012D3D4601A100003043012E3D42
:101A00004601A200003043012F3D4601A3002C2DCA
:101A100043012F084201C30043012E084201C200C6
:101A200043012D084201C10043012C084201C000BE
:101A3000003091311D218C314301C600C701470898
:101A4000003A0319242D2C2D4608013A0319F02CD5
:101A5000033A0319F42C2C2D46013F080319312DAC
:101A6000322D3B2DBF0100304101A000A100B0315B
:101A700076208C31452DBF01BF0A14304101A000F2
:101A80000030A100B03176208C3106304301C70010
:101A90001330C600AD30890B4B2DC60B4B2DC70B39
:101AA0004B2D003201304301C60046084601B807FD
:101AB00008303802031C5D2D5E2D682DB801013001
:101AC0004301AC070030AD3D0030AE3D0030AF3DCE
:101AD00000309C313A248C3146012D080319712DB8
:101AE000722DBA2CBF31BF278C317E2DCC304101F5
:101AF000A0002130A100BE3164268C317730410135
:101B0000A0002A30A100BE3176268C318B170B172E
:101B10004001DF01DF0A4601C001C10143013F0866
:101B20000319932D942D8D2F4601C2010030B3006F
:101B30000030B2000030B1000030B0000030B7001B
:101B40000030B6000030B5000030B4004601370860
:101B50003604350434040319AE2DAF2DD72D3708C4
:101B600043012F02031DC42D4601360843012E02F6
:101B7000031DC42D4601350843012D02031DC42D4C
:101B80004601340843012C02031CC72DC82DD72D54
:101B900000304601B7000030B6000030B50000301C
:101BA000B4000130B231F7228C314601C201460146
:101BB00033083204310430040319DF2DE02D262EC2
:101BC000330843012F02031DF52D4601320843015E
:101BD0002E02031DF52D4601310843012D02031D80
:101BE000F52D4601300843012C02031CF82DF92D78
:101BF000532E00304601B3000030B2000030B10077
:101C00000030B00042080319062E072E0D2E0130B9
:101C1000B231F7228C314601C20143012F08410144
:101C2000C20043012E084101C10043012D084101BA
:101C3000C00043012C084101BF0046013C0841019E
:101C4000C3000030A631B7268C31532E43012F0834
:101C50004201C30043012E084201C20043012D0886
:101C60004201C10043012C084201C0000030913103
:101C70001D218C31023A031D3E2E3F2E532E023081
:101C800043012C074601B000003043012D3D4601C1
:101C9000B100003043012E3D4601B2000030430147
:101CA0002F3D4601B30046014208031D582E592E10
:101CB000732E0F304101B2002730B3000130A5313F
:101CC00095258C3100304101A7000030A6002F304F
:101CD000A5002C30A400A801A80AB4316F248C31CF
:101CE0004601C201C20A4203031D772E782E922EAE
:101CF0004101B2010130AD3104258C31003A0319A4
:101D0000822E832E872E02304601C200922E013091
:101D100087318A278C31003A03198F2E902E922E0C
:101D20004601C2010230460142060319982E992E3F
:101D30009F2E03304206031D9E2E9F2EAB2E013098
:101D400087318A278C31003A0319A72EA82EAB2E93
:101D50004601C201E62E023046014206031DB12EA5
:101D6000B22EE62E0130A83100208C31003A031942
:101D7000BA2EBB2ED72E0130B33128238C3103303D
:101D80004601C200013043012C074601B400003077
:101D900043012D3D4601B500003043012E3D460173
:101DA000B600003043012F3D4601B700E62E01305A
:101DB000B3318D238C314101320833040319E12EF4
:101DC000E22EE62EA131CC218C31E62EB03043013B
:101DD00059024601BD003D080319EF2EF02E382FA1
:101DE00002304206031DF52EF62E092FB0304101B8
:101DF000C60046013D084301C600C701460841012F
:101E0000C700430147084101C8000130A031F32059
:101E10008C318B1346013D08430159024601AE0047
:101E2000B0302E02AF002F080319172F182F332FB1
:101E3000B0304101A0000230A10046013D08B03E93
:101E40004101A2000230A30046012F084301C60051
:101E5000C70146084101A400430147084101A5000C
:101E6000B2316E228C3146012E084301D9008B1706
:101E700043015608550454045304031D402F412FB9
:101E8000572F0030460141020A3003194002031C5B
:101E90004A2F4B2F572F003041021F3003194002A9
:101EA0000318532F542F572FBF31BF278C310030C9
:101EB0009C313A248C31003A03195F2F602F662F32
:101EC00001304601C0070030C13D832F4301560851
:101ED000550454045304031D6E2F6F2F602F0130DF
:101EE000460141028F3003194002031C782F792FDD
:101EF000602FC001C1010A304101A0000030A100E3
:101F0000B03176208C3168304301C600E430890B53
:101F1000872FC60B872F0000A62D12304101A0008D
:101F20003130A100BE316D268C31430140080319C8
:101F30009A2F9B2FA32F3E0803199F2FA02FA32F6B
:101F4000B6310F268C31430156085504540453040E
:101F5000031DAB2FAC2FC22F0030460141020A30C7
:101F600003194002031CB52FB62FC22F00304102C7
:101F70001F30031940020318BE2FBF2FC22FBF31DD
:101F8000BF278C3101309C313A248C31003A03193F
:101F9000CA2FCB2FD12F01304601C0070030C13DE1
:101FA000F42F43015608550454045304031DD92F3C
:101FB000DA2FEF2F0130460141028F300319400222
:101FC000031CE32FE42FEF2FC001C1010A304101B0
:101FD000A0000030A100B03176208C31F42F0A30FF
:101FE0004601C0070030C13D68304301C600E430FF
:101FF000890BF82FC60BF82F0000952F8431542C35
:1020000041012008FF3E4401DA00FF304101213D3B
:102010004401DB00DC01DD010800B81A102811289A
:1020200016280530B8000030B90070280030380597
:10203000C60003303905C7004608470403192128A4
:10204000222827280630B8000030B9007028381838
:102050002A282B2830280730B8000030B900702813
:10206000B917702802304101A7000030A8000030E5
:10207000A900BF311C279031410128084601BA0050
:10208000410127084601B900AB3039063430031945
:102090003A06031D4C284D287028B131AE219031ED
:1020A000410121084601BA00410120084601B9005A
:1020B0003A084301C700460139084301C6004708F2
:1020C000C600C701343046064704031D6828692846
:1020D0007028AB304001A200460139084001A3003E
:1020E000B1312E21903154011F16B7314F27903155
:1020F00009304301C7001E30C600E430890B7E283A
:10210000C60B7E28C70B7E280000003040010E1948
:1021100001304101EC004601AC0141016C0803199A
:10212000922893289B2840018E1A972898289B284C
:102130004601AC01AC0A46012C084301C100031062
:1021400040010E1E03140030031801304301BF008C
:10215000003040010E1B01304301C000400803194C
:10216000B228B328B6284001181712134601A60159
:10217000A70100304101A0000130A1000130A20000
:10218000B231C72290314601BB0109303B02031C2A
:10219000CA28CB28CC28FA283B18CF28D028D32807
:1021A000A801A901D7280830A8000030A900B13142
:1021B000AE219031FF30410120054301C6000030BF
:1021C000410121054301C7004601280A4301EA28CD
:1021D000C635C70D890BE82846084601A606430107
:1021E00047084601A70601304301C60046084601DC
:1021F000BB07C52827084101A10046012608410167
:10220000A00090310020903101304101A700003042
:10221000A8000130A900BF311C27903141012808D6
:102220004601A40024083F394301D8003F08031D9C
:102230001B299A31DF2A9A31FD2A4201CC00003055
:102240004101A7000030A6002E30A5000030A400F8
:10225000A801B4316F2491310139031D302931298E
:1022600033290230152B43012708260425042404B2
:1022700003193B293C29CB29270842014302031DAE
:1022800051294301260842014202031D51294301FD
:10229000250842014102031D51294301240842013E
:1022A0004002031C54295529CB29600803195929D8
:1022B0005A29C6290030430137024030031936023B
:1022C000031C63296429C629023042015E06031DEE
:1022D0006D295F03031D6D296E29792900304301A3
:1022E000A7000030A6000030A5000030A400023096
:1022F000152B03305E06033003195F06031981298D
:10230000822983296E295908031D91295808031D24
:1023100091295708031D91293C3056020318912931
:10232000922993296E2901304201D536D40CD30C61
:10233000D20C890B942901304301AB36AA0CA90CAD
:10234000A80C890B9C2901304201D936D80CD70C36
:10235000D60C890BA42940085207C4004108533DFC
:10236000C5004208543DC6004308553DC700470814
:102370004401A300420146084401A200420145086D
:102380004401A100420144084401A000FF30420181
:10239000DE05FE30DF0542015F18CF29D029022A71
:1023A0004C089E310726913142015F144008C40059
:1023B0004108C5004208C6004308C700430136086B
:1023C0004201C800430137084201C900CA01CB01DC
:1023D0004808C4074908C53D4A08C63D4B08C73DE3
:1023E00047084301A700420146084301A6004201F5
:1023F00045084301A500420144084301A400BF3140
:102400004327913142015D08D0005C08CF005B0892
:10241000CE005A08CD004D304101D60042014C0893
:102420009331162391314201D100510A031D192A1B
:102430001A2AFC2AFF30152B02305106031D212ACF
:10244000222A2F2A5008DD004F08DC004E08DB004E
:102450004D08DA000330DE000030DF00142B0130BD
:10246000DE000030DF00142B05305106031D392A31
:102470003A2ACE2A5008DD004F08DC004E08DB0067
:102480004D08DA0000304101A7000030A6000F30EF
:10249000A5000030A400C230A8000130A90004301B
:1024A000AA000030AB00B5317D25913100304101EB
:1024B000A7000030A6000530A5000030A40062305F
:1024C000A8000230A9000430AA000030AB00B531EA
:1024D0007D25913100304101A7000030A600013078
:1024E000A5000030A4005E30A8000230A90004302E
:1024F000AA000030AB00B5317D259131420143087F
:102500004301A700420142084301A60042014108DD
:102510004301A500420140084301A40042015508BF
:10252000031D9D2A5408031D9D2A5308031D9D2A3F
:102530003C30520203189D2A9E2AA82A3C304301AF
:10254000A4070030A53D0030A63D0030A73DB82AC5
:10255000420152084301A407420153084301A53D2B
:10256000420154084301A63D420155084301A73DDD
:1025700027084401A300430126084401A2004301A7
:1025800025084401A100430124084401A0000330B0
:102590004201DE000330DF000130152B063051060A
:1025A000031DD32AD42AD52A2F2A0330DE00003077
:1025B000DF00142B05305106031DDF2AE02A142BFF
:1025C0005008DD004F08DC004E08DB004D08DA0043
:1025D0003C3040074301A40000304201413D43012B
:1025E000A50000304201423D4301A60000304201F7
:1025F000433D4301A700142B5F08013A0319042B44
:10260000023A03190F2B142B5E08013A03191C2AF6
:10261000023A0319342A0B3A0319DA2A142B5E08FA
:10262000033A0319342A142B003008004101E60054
:102630006608B3318D23933141013308D800320845
:10264000D700003058020830031957020318292B0D
:102650002A2B2D2BFF308C314C2C2E30C700023012
:10266000C8000830C9000030CA006608B631FC2630
:10267000933141014808E5004708E4000030650255
:102680000830031964020318462B472B482B2A2BCA
:10269000440133084201A000A10144013208420173
:1026A000A200A3012208A300A201200822044101E4
:1026B000D9004201210823044101DA004401350810
:1026C0004201A000A101440134084201A200A3017B
:1026D0002208A300A201200822044101E2004201D5
:1026E000210823044101E300003063022C30031968
:1026F0006202031C7C2B7D2B842B433059065A0429
:102700000319832B842B8D2B6308D4006208D3001C
:102710006608BF31572793312A2B2E30C70002306D
:10272000C8002C30C9000030CA006608B631FC264B
:10273000933141014808E5004708E4000030650294
:102740002C30031964020318A62BA72BB22B6408A4
:102750006202D3006508633BD4006608BF31572787
:1027600093312A2B023044012E060319B82BB92BC2
:10277000C52B410164086202D3006508633BD400A5
:102780006608BF31572793312A2BFF304201A00042
:102790000030A1000030A2000030A3004401320844
:1027A0004201A400440133084201A5004401340859
:1027B0004201A600440135084201A7001830A7369F
:1027C000A60CA50CA40C890BDF2B2408A00525085A
:1027D000A1052608A2052708A3050030A800FF30A0
:1027E000A9000030AA000030AB00440132084201C9
:1027F000AC00440133084201AD00440134084201F9
:10280000AE00440135084201AF000830AF36AE0CCF
:10281000AD0CAC0C890B062C2C08A8052D08A905BD
:102820002E08AA052F08AB050030B0000030B1001B
:10283000FF30B2000030B300440132084201B4005E
:10284000440133084201B500440134084201B60096
:10285000440135084201B7000830B435B50DB60D56
:10286000B70D890B2D2C3408B0053508B105360895
:10287000B2053708B3050030B8000030B9000030A9
:10288000BA00FF30BB00440132084201BC004401E1
:1028900033084201BD00440134084201BE00440136
:1028A00035084201BF001830BC35BD0DBE0DBF0D4F
:1028B000890B542C3C08B8053D08B9053E08BA05FB
:1028C0003F08BB053808B0043908B1043A08B2041F
:1028D0003B08B3043008A8043108A9043208AA044C
:1028E0003308AB04200828044101DC004201210820
:1028F00029044101DD00420122082A044101DE00D1
:10290000420123082B044101DF0044012708410153
:102910005F02031D9B2C4401260841015E02031D3A
:102920009B2C4401250841015D02031D9B2C4401A1
:10293000240841015C02031C9E2C9F2CB82C5F08CC
:1029400042015D02031DB42C41015E0842015C029C
:10295000031DB42C41015D0842015B02031DB42C30
:1029600041015C0842015A020318B72CB82CC42C50
:10297000410164086202D3006508633BD400660825
:10298000BF31572793312A2B410156088600013069
:1029900087005C08C03F5D08C13F5E08C23F5F081A
:1029A000C33F0030A7000030A6000930A50000306A
:1029B000A4005030A8000230A9000630AA00003060
:1029C000AB00B5313625933150304101A0000630BF
:1029D000A1000030A2004A30B431AF24933141014C
:1029E000200821040319F52CF62C012D640862023D
:1029F000D3006508633BD4006608BF315727933185
:102A00002A2B420160080319062D072D172DC2300D
:102A10004101A0000130A1003E30A2000230A3001D
:102A20000430A4000030A500B2316E229331C030D2
:102A30004101D3000030D4006608BF3157279331DD
:102A400041015308E4075408E53D2E30C700023029
:102A5000C8000430C9000030CA006608B631FC2640
:102A6000933141014708E4074808E53D63304401DC
:102A70002E06031D3D2DAE316D2EAE317F2E982DCD
:102A8000410167084201A000410168084201A1001C
:102A9000A201A3010830A035A10DA20DA30D890B41
:102AA0004B2D410169084201A400A501A435A50DE3
:102AB000A435A50DA435A50DA435A50DA435A50DEA
:102AC0002408103EA6000030253DA7002608A800D7
:102AD0002708A9000030A91BFF30AA00AB0020087E
:102AE00028044101A4004201210829044101A50054
:102AF000420122082A044101A600420123082B04B6
:102B00004101A7006B08A8000230A9002030AA00EC
:102B10000030AB00B5317D25953120304101E7070C
:102B20000030E83D0130E4070030E53D9F31EF2FF4
:102B30004101EA016A086B074201A00020088600F3
:102B400002308700633081000130A000200841017D
:102B5000EA076A086B074201A000200886000230DD
:102B60008700823081000130A00020084101EA077F
:102B70006A086B074201A000200886000230870027
:102B8000533081000130A00020084101EA076A08A3
:102B90006B074201A00020088600023087006330E6
:102BA00081000130A00020084101EA076A086B0794
:102BB0004201A000200886000230870035308100E5
:102BC0000130A00020084101EA076A086B074201B2
:102BD000A00020088600023087008101810A0130B0
:102BE000A00020084101EA076A086B074201A00023
:102BF00020088600023087005E0881000130A000B6
:102C000020084101EA076A086B074201A00020087A
:102C10008600023087003D3081000130A00020088E
:102C20004101EA076A086B074201A00020088600FC
:102C300002308700073081000130A00020084101E8
:102C4000EA076A086B074201A000200886000230EC
:102C500087008101810A0130A00020084101EA07B4
:102C60000030A7000030A6000930A5000030A40005
:102C70006B086A07A8000230A9000630AA000030DD
:102C8000AB00B5313625953106304201A000200851
:102C90004101EA076A086B074201A000200886008C
:102CA000023087000C3081000130A0002008410173
:102CB000EA076A086B074201A0002008860002307C
:102CC000870000304101A000B830A100B031C12020
:102CD000953141012008063E810001304201A000EB
:102CE00020084101EA070030A000B830A1006B08BD
:102CF0006A07B1316D21953100304101A000B83033
:102D0000A100B031C1209531410120084201A0004D
:102D100020084101EA076B080D3E8600023087005B
:102D200001084201A0000430A036890B942E0A301D
:102D30002002031C9C2E9D2EB32E41016B080D3EDC
:102D400086000230870001084201A0000430A0364E
:102D5000890BA72E2008573E4101D40000300318EC
:102D60000130D500C82E41016B080D3E86000230AF
:102D7000870001084201A0000430A036890BBD2E57
:102D80002008303E4101D400003003180130D50046
:102D90006A086B074201A000200886000230870005
:102DA00041015408810001304201A0002008410186
:102DB000EA076B080D3E8600023087000F300105E0
:102DC0004201A0000A302002031CE72EE82EF72E55
:102DD00041016B080D3E86000230870001080F3963
:102DE000573ED600003003180130D700052F4101AF
:102DF0006B080D3E86000230870001080F39303E17
:102E0000D600003003180130D7006A086B07420172
:102E1000A00020088600023087004101560881008A
:102E200001304201A00020084101EA076B080E3E74
:102E300086000230870001084201A0000430A0365D
:102E4000890B1F2F0A302002031C272F282F3E2F0B
:102E500041016B080E3E86000230870001084201E6
:102E6000A0000430A036890B322F2008573E4101C4
:102E7000D800003003180130D900532F41016B08EE
:102E80000E3E86000230870001084201A000043097
:102E9000A036890B482F2008303E4101D800003071
:102EA00003180130D9006A086B074201A00020080E
:102EB000860002308700410158088100013042013C
:102EC000A00020084101EA076B080E3E8600023090
:102ED00087000F3001054201A0000A302002031CC8
:102EE000722F732F822F41016B080E3E8600023035
:102EF000870001080F39573EDA000030031801300F
:102F0000DB00902F41016B080E3E860002308700E7
:102F100001080F39303EDA00003003180130DB00C1
:102F20006A086B074201A000200886000230870073
:102F300041015A08810001304201A00020084101EE
:102F4000EA076B080F3E8600023087000108420145
:102F5000A0000430A036890BAA2F0A302002031CDF
:102F6000B22FB32FC92F41016B080F3E86000230EC
:102F7000870001084201A0000430A036890BBD2F54
:102F80002008573E4101DC00003003180130DD000D
:102F9000DE2F41016B080F3E8600023087000108DA
:102FA0004201A0000430A036890BD32F2008303E08
:102FB0004101DC00003003180130DD006A086B07B6
:102FC0004201A000200886000230870041015C0811
:102FD000810001304201A00020084101EA076B088E
:102FE0000F3E8600023087000F3001054201A0002D
:102FF0000A302002031CFE2F8431B92C8431C82CE6
:103000004001EA004301901240016A0803190928AF
:103010000A2825280C307D01C50015307E019C0052
:103020004312400113127E01441616309B00C31157
:10303000400193117E01C4150A307D01C6007E0156
:103040004311400113157E014415403043018F00A8
:103050009001910101308D0090160800D03086005B
:1030600002308700B4308400003085000630410112
:10307000B00016001A00B00B39280030CB00003029
:10308000CA000030C9000030C80044016D08410189
:10309000BD0044016C084101BC0044016B084101C2
:1030A000BB0044016A084101BA000030A0000030B2
:1030B000A1000130A200B231C72298314101C701FD
:1030C000C70AD101D001B131AE21983141012108A7
:1030D000CD002008CC005008031D6F2870287C28E4
:1030E0004D08C600C61A75287728013078280030A8
:1030F000C70046081F39D1005008C83E8600870126
:103100004C0881005008031986288728932847080F
:10311000031D8B288C2893285008023EB43E86005D
:1031200087014C0881000130B0003008D00704301E
:103130005002031C9C289D28632847080319A128D6
:10314000A228C6280630A0000130A1000130A2004C
:10315000B231C72298314101CE01B131AE2198314F
:1031600041012108BF002008BE004E08033EB43EC6
:10317000860087013E0881000130B0003008CE078C
:1031800003304E02031CC528C628AD280030A70016
:103190000030A6000930A5000030A400B430A8001B
:1031A0000030A9000630AA000030AB00B5317D2503
:1031B00098311F30410151060319DF28E028E82823
:1031C00049084A044B044804031DE728E828EA2874
:1031D000013085290030A7000030A6000F30A5007F
:1031E0000030A400C830A8000030A9000430AA00B4
:1031F0000030AB00B5317D2598314101CF01083059
:1032000051020318042905292A29510803190929FB
:103210000A2923290130B0000030B1005108083CD0
:10322000890A1429B035B10D890B12293008FF3EE7
:10323000B200FF30313DB300FF303206C200003033
:103240003306C3002529C201C3014308C100420857
:10325000C0002E29FF30C0000030C1004F08BA3E28
:1032600086008701400881004F08BA3E860087012A
:103270000108B0004F08C83E86008701300881056C
:10328000083051020318452946294929C401C501BE
:1032900050295108F83EC400FF3003180030C50023
:1032A0004408D1000130B0003008CF0704304F028D
:1032B000031C5B295C29FF280030A7000030A60012
:1032C0000530A5000030A400BA30A8000030A900E5
:1032D0000430AA000030AB00B5317D2598314101A2
:1032E0004B140030A7000030A6000130A5000030CC
:1032F000A400C830A8000030A9000430AA000030A3
:10330000AB00B5317D259831003008004001EA005E
:103310006A084101B700B801B735B80DB735B80D27
:10332000B735B80DB735B80DB735B80D3708083E05
:10333000B9000030383DBA003908BB003A08BC007B
:103340000030BC1BFF30BD00BE0000303B04A400B9
:1033500004303C04A50000303D04A60000303E04CB
:10336000A7003308A9003208A800B431F22499312B
:1033700040016A084101B700B801B735B80DB7354B
:10338000B80DB735B80DB735B80DB735B80D370826
:10339000083EB9000030383DBA003908BB003A0891
:1033A000BC000030BC1BFF30BD00BE0000303B0441
:1033B000A4000C303C04A50000303D04A600003001
:1033C0003E04A7003408A8000130A9000430AA0078
:1033D0000030AB00B5317D25993140016A084101CB
:1033E000B700B801B735B80DB735B80DB735B80D5A
:1033F000B735B80DB735B80D3708083EB9000030FD
:10340000383DBA003908BB003A08BC000030BC1B8C
:10341000FF30BD00BE0000303B04A40010303C046F
:10342000A50000303D04A60000303E04A700360889
:10343000A9003508A800B431F224993140016A0886
:103440004101B700B801B735B80DB735B80DB7357C
:10345000B80DB735B80DB735B80D3708083EB90007
:103460000030383DBA003908BB003A08BC000030D3
:10347000BC1BFF30BD00BE0000303B04AD0001307E
:103480003C04AE0000303D04AF0000303E04B0000C
:103490001030B100B131D021993140016A084101A9
:1034A000B700B801B735B80DB735B80DB735B80D99
:1034B000B735B80DB735B80D3708083EB90000303C
:1034C000383DBA003908BB003A08BC000030BC1BCC
:1034D000FF30BD00BE0004303B04A40000303C04BB
:1034E000A50000303D04A60000303E04A7000230D5
:1034F000A800B4316F24993140016A084101B70036
:10350000B801B735B80DB735B80DB735B80DB73503
:10351000B80DB735B80D3708083EB9000030383D52
:10352000BA003908BB003A08BC000030BC1BFF30B1
:10353000BD00BE0000303B04AD0001303C04AE00D5
:1035400000303D04AF0000303E04B000B101B10ACC
:10355000B131D021993140016A084101B700B80169
:10356000B735B80DB735B80DB735B80DB735B80D97
:10357000B735B80D3708083EB9000030383DBA00FD
:103580003908BB003A08BC000030BC1BFF30BD004E
:10359000BE0000303B04A40003303C04A500003012
:1035A0003D04A60000303E04A700A801B4316F24FA
:1035B0009931223A031DDD2ADE2A1E2A0800400125
:1035C00094119A1105304301C7000F30C600F13045
:1035D000890BE82AC60BE82AC70BE82A031040012A
:1035E0000E1E03140030031801304301BE003E08D4
:1035F0000319FB2AFC2AFD2AD701400194129A12D2
:1036000043013F080319052B062B152BB2311D2250
:103610009A310130983100209A310130BE31EA26CA
:103620009A31A83196209A315F2B40080319192B43
:103630001A2B402B4001181315304301C7004B30A3
:10364000C600BE30890B222BC60B222BC70B222BA8
:1036500000004001181705304301C7000F30C600B5
:10366000F130890B312BC60B312BC70B312B4301AA
:103670003E0803193C2B3D2B402BB6310F269A31C7
:1036800041016C08031D452B462B4D2BBF3195275F
:103690009A31B03104209A315F2BB2311D229A3118
:1036A000B131F5219A31430141080319582B592BA7
:1036B0005F2B42019E1244309B009C019E16B53048
:1036C0004101A0002D30A100BE3191269A318831F0
:1036D00000209A3109304301C7001E30C600E43093
:1036E000890B702BC60B702BC70B702B0000410190
:1036F0006C0803197C2B7D2BA62B4601BE012030C4
:103700003E02031C842B852B862BC12B0C304301DE
:10371000C7009130C6000030890B8C2BC60B8C2B58
:10372000C70B8C2B000046013E084301C600C701B1
:1037300046084101A000430147084101A100B03102
:1037400076209A3103144601BE0D7F2B0030A00075
:10375000A100B03176209A3109304301C7001E30F4
:10376000C600E430890BB22BC60BB22BC70BB22BB1
:10377000000001304101A0000030A100B0317620EE
:103780009A314601BC0143013F080319C82BCA2BDB
:103790008D31762D4601BF010530AA000030AB0007
:1037A00000304101A7000030A6003930A5000030EC
:1037B000A400A801B4316F249A314601A500043059
:1037C00025060319E42BE52B232C3F080319E92BCD
:1037D000EA2BF32BBF0100304101A000A100B03162
:1037E00076209A31FD2BBF01BF0A14304101A000A1
:1037F0000030A100B03176209A310B304301C70070
:103800002630C6005D30890B032CC60B032CC70B7A
:10381000032C003200309C313A249A3101304601A9
:10382000AA020030AB3B2A0A031D1A2C2B0A031DE7
:103830001A2C1B2CD02B0530AA000030AB00A8316D
:1038400096209A31D02B98312E209A314601BC0017
:1038500000304101A7000030A6001930A50000305B
:10386000A4000430A8000030A900B431F2249A3139
:103870008C31762C4101E20040010E1B402C412C82
:10388000502C420161080319462C472C4A2CB031B8
:1038900030209C314201E101E10A4101E201E20AEA
:1038A00043013F080319552C562C592CB531C52519
:1038B0009C3142016108031D5E2C5F2CF32D4101F8
:1038C0006C080319642C652CF32D832D4501A00190
:1038D000A00AA101A10A0030B031A8209C31410109
:1038E0002108E7002008E60067084501A200410121
:1038F00066084501A30041016C080319802C812C46
:10390000872C43014108031D862C872C8B2C4101F9
:10391000DA01DB01902C02304101DA000030DB00DB
:1039200043013F08031D952C962C9A2C4101DC0184
:10393000DD019F2C04304101DC000030DD0043013B
:103940003E08031DA42CA52CA92C4101DE01DF019A
:10395000AE2C08304101DE000030DF00430140089A
:10396000031DB32CB42CBA2C10304101E000003000
:10397000E100BD2C4101E001E1016C08031DC12CF7
:10398000C32C0130C42C003060045E045C045A0473
:103990004501A400400123084501A5000130B031D4
:1039A000A8209C3141012108E7002008E6006708B3
:1039B0004501A600410166084501A7000830410104
:1039C000E500A42D0030A0000130A1000130A200CC
:1039D000B231C7229C314101E301B131AE219C31AA
:1039E00041012108E7002008E6006308A03E8600A8
:1039F00002308700660881000130D8005808E307CC
:103A000009306302031C052D062DED2C0930E5005D
:103A1000A42D0030A0000030A1000130A200B2317E
:103A2000C7229C314101E401B131AE219C314101F9
:103A30002108E7002008E6006408A03E8600023066
:103A40008700670881006408A13E86000230870075
:103A5000660881000230D8005808E4070830640284
:103A6000031C332D342D142DDE2CAB3109239C3156
:103A700041014508E7004408E60067084501A00049
:103A8000410166084501A10002304101E500A42D75
:103A9000A931E6219C3141014508E7004408E600D0
:103AA0003D2DA03127209C3141014508E700440805
:103AB000E6003D2D4501A001A1014301380839046C
:103AC0000319632D642D442DB91F672D682D6C2DAE
:103AD000FF304501A0006F2D38084501A0000130DE
:103AE00040012802003003192702031C782D792D8C
:103AF0007D2DFF304501A100442D27084501A1007F
:103B0000442DE501A42D400168084101D800D901E8
:103B10005908003A03198D2D812D5808003A0319D0
:103B2000662C013A0319E22C033A0319092D013AD4
:103B30000319352D073A0319482D013A0319512D60
:103B4000033A03195A2D812DFF304001E80041014D
:103B500065080319AC2DAD2DF32D4201E2014101A1
:103B60006508A4000330AC3153249C3143013F0865
:103B70000319BB2DBC2DDA2DD32D42016208A03EC6
:103B800086000230870001084101A4000330AC31F7
:103B900053249C3101304101D80058084201E2070A
:103BA00001304101E50241016508031DD82DD92DE1
:103BB000BD2DDE2D410165084001DD004101620897
:103BC0000319E32DE42DF12D02304101D900043019
:103BD000D800BA30890BEA2DD80BEA2DD90BEA2D83
:103BE00000000130062E410162080319F82DF92D5D
:103BF000052E05304101D9000F30D800F130890B76
:103C0000FF2DD80BFF2DD90BFF2D003008004101EF
:103C1000E90069084201A000A101A035A10DA0356D
:103C2000A10DA035A10DA035A10DA035A10D200835
:103C3000083EA2000030213DA3002208A400230872
:103C4000A5000030A51BFF30A600A700003024040B
:103C50004101A4002430420125044101A5000030A7
:103C6000420126044101A60000304201270441011F
:103C7000A700A831F6209E3141012508E80024085C
:103C8000E7002E30EB006B08A0000230A1000030EE
:103C9000A200A3002C30A4000030A500AF313527CE
:103CA0009E314401AE01AE0AAF01AF0A0630B0004A
:103CB000B101FF304201A0000030A1000030A2009D
:103CC0000030A3005A08A4005B08A5005C08A60009
:103CD0005D08A7001830A736A60CA50CA40C890B0C
:103CE0006B2E2408A0052508A1052608A205270893
:103CF000A3050030A800FF30A9000030AA00003062
:103D0000AB005A08AC005B08AD005C08AE005D0873
:103D1000AF000830AF36AE0CAD0CAC0C890B8A2E60
:103D20002C08A8052D08A9052E08AA052F08AB0503
:103D30000030B0000030B100FF30B2000030B300FE
:103D40005A08B4005B08B5005C08B6005D08B7000F
:103D50000830B435B50DB60DB70D890BA92E340852
:103D6000B0053508B1053608B2053708B30500308F
:103D7000B8000030B9000030BA00FF30BB005A086C
:103D8000BC005B08BD005C08BE005D08BF001830C9
:103D9000BC35BD0DBE0DBF0D890BC82E3C08B80546
:103DA0003D08B9053E08BA053F08BB053808B00410
:103DB0003908B1043A08B2043B08B3043008A80437
:103DC0003108A9043208AA043308AB0420082804E7
:103DD0004401B2004201210829044401B300420118
:103DE00022082A044401B400420123082B044401A0
:103DF000B5004101E201440123082204210420040A
:103E00000319032F042F172F42015508031D132FE9
:103E10005408031D132F5308031D132F3C30520267
:103E20000318132F142F172F4101E201E20A410159
:103E30006208031D1C2F1E2F01301F2F0030D300DE
:103E4000E301E30A440123082204210420040319A6
:103E50002A2F2B2F3B2F43012B08031D3B2F2A0812
:103E6000031D3B2F2908031D3B2F3C302802031C58
:103E70003A2F3B2F4A2FFF3042015E05A000003051
:103E80005F05A100200321040319472F482F4A2F63
:103E90004101E30141016308031D4F2F512F013000
:103EA000522F0030E600420160080319582F592FA5
:103EB0005D2FDF1C5C2F5D2F732F3A304101A00076
:103EC0000230A100C230A2000130A3000430A400DF
:103ED0000030A500B2316E229E31410166080319FF
:103EE000722F732F782F80304401B8000030B90052
:103EF00000304101A7000030A6000930A5000030C5
:103F0000A4004A30A8000230A9000630AA00003000
:103F1000AB00B53136259E31410167084201A00052
:103F2000410168084201A100A201A3010830A035A7
:103F3000A10DA20DA30D890B972F41016908420124
:103F4000A400A501A435A50DA435A50DA435A50D86
:103F5000A435A50DA435A50D2408103EA6000030FB
:103F6000253DA7002608A8002708A9000030A91BA6
:103F7000FF30AA00AB00200828044101A400420140
:103F8000210829044101A500420122082A04410117
:103F9000A600420123082B044101A7006B08A800DA
:103FA0000230A9002C30AA000030AB00B5317D25CD
:103FB0009E312C304101E7070030E83D6B08A0003E
:103FC0000230A1000030A200A3002030A400003085
:103FD000A500AF3135279E314101E401E5016508B7
:103FE000803A4201A00080302002031DFA2F0630E3
:103FF00041016402031CFE2F95313F2D9531402D68
:1040000001341A28700886007108870001084301EE
:104010008C004E010F1C0D280E2809280F10700867
:1040200086007108870043010C0881000130F00709
:104030000030F13D0130F2020030F33B720A031D03
:104040002528730A031D2528262802280800023087
:10405000B0318F20A031FF304101CD00FF30CE00C4
:10406000CF01D001CB01CC018731FD27A031BE317A
:104070003F26A031003A03193E283F283728BE3199
:104080001226A03141012108D2002008D1004E089B
:104090005202031D4D284D08510203185028512883
:1040A00055285208CE005108CD0052085002031D79
:1040B0005B2851084F0203185E285F2863285208C6
:1040C000D0005108CF000130CB070030CC3D4C0868
:1040D000803AC60092304602031D70281C304B0205
:1040E000031C73287428342800304101B9000D30B6
:1040F000B800B130B7005830B6004D08AA004E08DD
:10410000AB00AC01AD01430123084101B100430103
:1041100022084101B000430121084101AF004301E1
:1041200020084101AE00B3315923A03141012D08CF
:10413000BD002C08BC002B08BB002A08BA00B73110
:10414000A527A031410136080B3ECD000030373D98
:10415000CE000030B9000D30B800B130B700583093
:10416000B6004F08AA005008AB00AC01AD014301F6
:1041700023084101B100430122084101B00043017D
:1041800021084101AF00430120084101AE00B331D5
:104190005923A03141012D08BD002C08BC002B087B
:1041A000BB002A08BA00B731A527A0314101360863
:1041B0000B3ECF000030373DD000FF304D05C6002C
:1041C00000304E05C700FF304F05C80000305005D5
:1041D000C9004808C900C80146084804C400470887
:1041E0004904C50008004101D200470848040319EA
:1041F000FA28FB280B294608B2004808B4004708F3
:10420000B3005208A231B722A031003A031D092998
:104210000A290B29CB2941015208C900CA01C93515
:10422000CA0DC935CA0DC935CA0DC935CA0DC9353A
:10423000CA0D4908083ECB0000304A3DCC004B086F
:10424000CD004C08CE000030CE1BFF30CF00D00098
:1042500000304D04AD0001304E04AE0000304F047C
:10426000AF0000305004B0002030B100B131D02197
:10427000A03141015208C900CA01C935CA0DC9356A
:10428000CA0DC935CA0DC935CA0DC935CA0D490887
:10429000083ECB0000304A3DCC004B08CD004C0816
:1042A000CE000030CE1BFF30CF00D00000304D04D8
:1042B000A40002304E04A50000304F04A6000030D8
:1042C0005004A700A801B4316F24A0314101D100EE
:1042D000511E6B296C299A295208C900CA01C93597
:1042E000CA0DC935CA0DC935CA0DC935CA0DC9357A
:1042F000CA0D4908083ECB0000304A3DCC004B08AF
:10430000CD004C08CE000030CE1BFF30CF00D000D7
:1043100004304D04A40002304E04A50000304F04C8
:10432000A60000305004A7001830A800B4316F2454
:10433000A031CB29D11D9D299E2939295208C900B8
:10434000CA01C935CA0DC935CA0DC935CA0DC93525
:10435000CA0DC935CA0D4908083ECB0000304A3D98
:10436000CC004B08CD004C08CE000030CE1BFF30F7
:10437000CF00D00004304D04A40002304E04A5004C
:1043800000304F04A60000305004A7000830A800F9
:10439000B4316F24A03108007E1CD0298831032855
:1043A0004101D60143013F080319D729D829ED2936
:1043B000D7304101C7000030C8000130C9000030CB
:1043C000CA000130B631FC26A1314101470348043F
:1043D0000319EB29EC29042AB62A42011D1DF129F3
:1043E000F229F42940015E1642019D1CF829F929A1
:1043F000002A1D121D164001DE164101D601D60A03
:10440000420119084101D70056080319082A092A50
:104410000D2AB0311A20A131B62A6C08031D112AC9
:10442000122AA52A5708B031DB20A131B62A400153
:1044300062084101D3000230D336890B1C2A53088D
:104440000F39D500832A3F305705D3004001620859
:1044500003394101D4000530D435FF3E031D2C2A19
:10446000543553044001E900E201E101DF01DF0AB4
:10447000992A3F305705D3004001620803394101B2
:10448000D4000530D435FF3E031D422A5435530471
:10449000B031DB20A131992A3F305705D3004001CC
:1044A000620803394101D4000530D435FF3E031DB5
:1044B000552A543553044001E000AA306006031D1C
:1044C000622A632A652AE101992AE101E10A0130A1
:1044D0004101A0000030A100B0317620A131992A1D
:1044E0003F305705D3004001620803394101D40031
:1044F0000530D435FF3E031D792A5435530440015D
:10450000E800DD01992A5508D300D4015408003A87
:1045100003198B2A992A5308003A0319232A013ACE
:104520000319392A033A03194C2A013A0319702A4C
:10453000992A4001E201B62A57084001E200B62A52
:104540005708B031DB20A131992A5708C039D30070
:10455000D4015408003A0319AE2AA02A5308803A1D
:104560000319172A403A03199C2AA02A080041017E
:10457000C50033083404031DBE2ABF2AC12A0130F6
:10458000A22B4508B500B601B535B60DB535B60D4B
:10459000B535B60DB535B60DB535B60D3508083E91
:1045A000B7000030363DB8003708B9003808BA0007
:1045B0000030BA1BFF30BB00BC0000303904A4003F
:1045C00020303A04A50000303B04A60000303C0433
:1045D000A700A831F620A23141012508C200240815
:1045E000C10034084202031DF72A330841020318B0
:1045F000FA2AFB2AFD2A0030A22B4508B500B60195
:10460000B535B60DB535B60DB535B60DB535B60DF6
:10461000B535B60D3508083EB7000030363DB80058
:104620003708B9003808BA000030BA1BFF30BB00A9
:10463000BC0000303904A40024303A04A500003046
:104640003B04A60000303C04A700A831F620A231AC
:1046500041012508C4002408C3004308B5004408EC
:10466000B600B701B8010830B535B60DB70DB80DB5
:10467000890B342B4508B900BA01B935BA0DB935E3
:10468000BA0DB935BA0DB935BA0DB935BA0D390803
:10469000103EBB0000303A3DBC003B08BD003C086A
:1046A000BE000030BE1BFF30BF00C00035083D0417
:1046B000A40036083E04A50037083F04A6003808C9
:1046C0004004A7003208A8000230A9003408AB005B
:1046D0003308AA00B5317D25A23141013308C30753
:1046E0003408C43D4508B500B601B535B60DB5353D
:1046F000B60DB535B60DB535B60DB535B60D3508B3
:10470000083EB7000030363DB8003708B900380819
:10471000BA000030BA1BFF30BB00BC0000303904C7
:10472000A40024303A04A50000303B04A600003069
:104730003C04A7004408A9004308A800B431F224AF
:10474000A231013008004001C2004208B200B301AA
:10475000B235B30DB235B30DB235B30DB235B30DBD
:10476000B235B30D3208083EB4000030333DB50019
:104770003408B6003508B7000030B71BFF30B8006A
:10478000B90000303604F40026303704F50000305C
:104790003804F60000303904F700A8313820A3317E
:1047A00075084001BF007408BE0031083F02031DB8
:1047B000DB2B30083E020318DE2BDF2BE32B3F08F8
:1047C000B1003E08B00030083104031DE82BE92B8E
:1047D000EC2BAE01AF019B2C4208B200B301B23505
:1047E000B30DB235B30DB235B30DB235B30DB2352D
:1047F000B30D3208083EB4000030333DB500340834
:10480000B6003508B7000030B71BFF30B800B9005C
:1048100000303604F40028303704F5000030380446
:10482000F60000303904F700A8313820A3317508AC
:104830004001C1007408C0002E082F040319212C68
:10484000222C622C4008B2004108B300B401B5012B
:104850000830B235B30DB40DB50D890B292C4208C3
:10486000B600B701B635B70DB635B70DB635B70DCD
:10487000B635B70DB635B70D3608183EB80000305E
:10488000373DB9003808BA003908BB000030BB1BFF
:10489000FF30BC00BD0032083A04F40033083B048A
:1048A000F50034083C04F60035083D04F7002F08F5
:1048B000F9002E08F8003108FB003008FA00B43186
:1048C0003024A33140013008C0073108C13D4208FF
:1048D000B200B301B235B30DB235B30DB235B30D7D
:1048E000B235B30DB235B30D3208083EB400003016
:1048F000333DB5003408B6003508B7000030B71BAB
:10490000FF30B800B90000303604F4002830370416
:10491000F50000303804F60000303904F700410893
:10492000F9004008F800B331F723A3314001310802
:10493000AF003008AE0008004101C6004608B600CE
:10494000B701B635B70DB635B70DB635B70DB635B7
:10495000B70DB635B70D3608083EB8000030373D04
:10496000B9003808BA003908BB000030BB1BFF3063
:10497000BC00BD0000303A04A40026303B04A50072
:1049800000303C04A60000303D04A700A831F6200A
:10499000A43141012508C3002408C20035084302A0
:1049A000031DD42C340842020318D72CD82CDC2C3D
:1049B0004308B5004208B40034083504031DE12C57
:1049C000E22CE52CB201B301942D4608B600B701E4
:1049D000B635B70DB635B70DB635B70DB635B70D1B
:1049E000B635B70D3608083EB8000030373DB9007F
:1049F0003808BA003908BB000030BB1BFF30BC00D0
:104A0000BD0000303A04A40028303B04A50000306B
:104A10003C04A60000303D04A700A831F620A431D4
:104A200041012508C5002408C400320833040319D5
:104A30001A2D1B2D5B2D4408B6004508B700B801A0
:104A4000B9010830B635B70DB80DB90D890B222D57
:104A50004608BA00BB01BA35BB0DBA35BB0DBA3535
:104A6000BB0DBA35BB0DBA35BB0D3A08183EBC00BC
:104A700000303B3DBD003C08BE003D08BF0000309B
:104A8000BF1BFF30C000C10036083E04A400370839
:104A90003F04A50038084004A60039084104A700D7
:104AA0003308A9003208A8003508AB003408AA0072
:104AB000B5313625A43141013408C4073508C53D58
:104AC0004608B600B701B635B70DB635B70DB635E1
:104AD000B70DB635B70DB635B70D3608083EB80078
:104AE0000030373DB9003808BA003908BB00003043
:104AF000BB1BFF30BC00BD0000303A04A4002830CE
:104B00003B04A50000303C04A60000303D04A70093
:104B10004508A9004408A800B431F224A431410199
:104B20003508B3003408B20008004001EA006A0802
:104B30004101B400B501B435B50DB435B50DB4358A
:104B4000B50DB435B50DB435B50D3408083EB60015
:104B50000030353DB7003608B8003708B9000030DE
:104B6000B91BFF30BA00BB0000303804A400043089
:104B70003904A50000303A04A60000303B04A70029
:104B80003308A9003208A800B431F224A53140014D
:104B90006A084101B400B501B435B50DB435B50DA1
:104BA000B435B50DB435B50DB435B50D3408083E82
:104BB000B6000030353DB7003608B8003708B900F8
:104BC0000030B91BFF30BA00BB0004303804A40029
:104BD00002303904A50000303A04A60000303B043E
:104BE000A7000A30A800B4316F24A53140016A083B
:104BF0004101B400B501B435B50DB435B50DB435CA
:104C0000B50DB435B50DB435B50D3408083EB60054
:104C10000030353DB7003608B8003708B90000301D
:104C2000B91BFF30BA00BB0000303804AD000130C2
:104C30003904AE0000303A04AF0000303B04B0004D
:104C40001030B100B131D021A53140016A084101D5
:104C5000B400B501B435B50DB435B50DB435B50DE9
:104C6000B435B50DB435B50D3408083EB600003086
:104C7000353DB7003608B8003708B9000030B91B19
:104C8000FF30BA00BB0004303804A40000303904FF
:104C9000A50000303A04A60000303B04A700A8019C
:104CA000A80AB4316F24A53140016A084101B4005B
:104CB000B501B435B50DB435B50DB435B50DB43554
:104CC000B50DB435B50D3408083EB6000030353D9D
:104CD000B7003608B8003708B9000030B91BFF30FC
:104CE000BA00BB0000303804AD0001303904AE001A
:104CF00000303A04AF0000303B04B000B101B10A0B
:104D0000B131D021A53140016A084101B400B5019B
:104D1000B435B50DB435B50DB435B50DB435B50DE7
:104D2000B435B50D3408083EB6000030353DB70047
:104D30003608B8003708B9000030B91BFF30BA0098
:104D4000BB0000303804A40003303904A500003053
:104D50003A04A60000303B04A700A801B4316F2438
:104D6000A531133A031DB52EB62EC72D08004101FB
:104D7000CC00C230A0000130A100FF30A200003002
:104D8000A3000430A4000030A500AF313527A631C0
:104D900066304101A0000230A1000030A200A30053
:104DA0000430A4000030A500AF313527A631410101
:104DB0004C08C400C501C435C50DC435C50DC43586
:104DC000C50DC435C50DC435C50D4408083EC60023
:104DD0000030453DC7004608C8004708C9000030FC
:104DE000C91BFF30CA00CB0004304804A4001F30A8
:104DF0004904A50000304A04A60000304B04A70077
:104E00000230A800B4316F24A63141014C08C4001F
:104E1000C501C435C50DC435C50DC435C50DC43572
:104E2000C50DC435C50D4408083EC6000030453DDB
:104E3000C7004608C8004708C9000030C91BFF303A
:104E4000CA00CB0004304804A4001E304904A50069
:104E500000304A04A60000304B04A7000230A8002E
:104E6000B4316F24A63144304101B2000030B300A8
:104E7000C230B4004330B5000030B6004C08993160
:104E80008621A631B531C525A631FF304101360551
:104E9000C4000F303705C5004408C6004508C700E8
:104EA0000030C71BFF30C800C90000304606420171
:104EB000DA005030410147064201DB00B0304101C9
:104EC00048064201DC00AE30410149064201DD00E6
:104ED0005D084401A70042015C084401A6004201AC
:104EE0005B084401A50042015A084401A4004101A5
:104EF00043084201E000410143080319802F812F3C
:104F00009A2FC230A0000130A1000030A200A300FF
:104F10000430A4000030A500AF313527A6310130A0
:104F20004201DE000030DF0004304301B6000030F3
:104F3000B700B72F0030A7000030A6000F30A50043
:104F40000030A400C230A8000130A9000430AA003B
:104F50000030AB00B5313625A63108304201DE0005
:104F60000030DF0040304301B6000030B70062304F
:104F70004101A0000230A100FF30A2000030A300D8
:104F80000430A4000030A500AF313527A6315E30D3
:104F90004101A0000230A1000030A200A3000430B3
:104FA000A4000030A500AF313527A6310030430101
:104FB000AB000030AA000030A9000030A8002B0888
:104FC0004201D50043012A084201D40043012908C7
:104FD0004201D300430128084201D2005508D900FC
:104FE0005408D8005308D7005208D60000304401B6
:104FF000A3000030A2000030A1000030A000080093
:105000004001EA006A084101AD00AE01AD35AE0DC8
:10501000AD35AE0DAD35AE0DAD35AE0DAD35AE0D1C
:105020002D08083EAF0000302E3DB0002F08B10023
:105030003008B2000030B21BFF30B300B4000030C3
:105040003104A40002303204A50000303304A6006D
:1050500000303404A700A801B4316F24A8310A3904
:105060000319332834283628013037280030080047
:105070004001AB01AB0A99127408F8007508F900F9
:105080007608FA007708FB001030FB36FA0CF90CB2
:10509000F80C890B45287808E3007408F8007508B7
:1050A000F9007608FA007708FB000830FB36FA0CA6
:1050B000F90CF80C890B56287808E4007408E50010
:1050C0006330F0000030F1000530F2000030F300F2
:1050D000A0310120A831400199162D08AA002C0802
:1050E000A9006708F800F9016608FA00FB017A08D0
:1050F000FB00FA0178087A04AC0079087B04AD0063
:105100002B080319842885288728AB013B282A0807
:105110002D06031D8D2829082C06031D9028912893
:105120003B282D08F5002C08F40008004201650812
:1051300003199B289C28AB2815304101AE004B3049
:10514000AD00BE30890BA228AD0BA228AE0BA22861
:1051500000004201E50100304101A7000030A60037
:105160000030A5000430A4008030A800B4316F24C2
:10517000A83109304101AE001E30AD00E430890B8A
:10518000BF28AD0BBF28AE0BBF2800000A3041017D
:10519000AF000030B000E32801304101AF02003021
:1051A000B03B2F0A031DD828300A031DD828D92860
:1051B000DA28F528D0304101AD00C930890BDE284E
:1051C000AD0BDE28003200304101A7000030A60000
:1051D0000030A5000030A400A801B4316F24A8312C
:1051E0008039031DF428F528CC2808004101AF01BF
:1051F000AF0A4001991241012408A8002508A9001E
:105200002608AA002708AB001030AB36AA0CA90C60
:10521000A80C890B052928084001E3004101240856
:10522000A8002508A9002608AA002708AB00083016
:10523000AB36AA0CA90CA80C890B18292808400128
:10524000E400410124084001E50063304101A00071
:105250000030A1000530A2000030A300B231452289
:10526000A8314001991641013108AE003008AD0067
:10527000400167084101A800A901400166084101F9
:10528000AA00AB012A08AB00AA0128082A04B00032
:1052900029082B04B1002F0803194F29502952293E
:1052A000AF01F9282E083106031D58292D083006B4
:1052B000031D5B295C29F9283108A5003008A400EA
:1052C0000800AB3040012206031D6729692990318F
:1052D000322802302302031C6E296F296729083007
:1052E0002102031C742975296729263601394301D7
:1052F000C600C701400124084301C8000230C83677
:10530000890B7F2948080639C900CA0140012508D0
:105310001F394301CB00CC01CB35CC0DCB35CC0DA7
:10532000CB35CC0D40012508C0394301CD00CE015D
:10533000CD35CE0DCD35CE0D4B084D04CF004C08EC
:105340004E04D00049084F04D1004A085004D2004E
:1053500046085104B80047085204B900F730380530
:10536000C60003303905C700E73046064704031D71
:10537000BA29BB29C1290130B8000030B9009031E9
:1053800070286E303805C60000303905C700663019
:1053900046064704031DCD29CE29D3290230B80083
:1053A0000030B900BF29B81BD629D729DC29033022
:1053B000B8000030B900BF29381BDF29E12990313E
:1053C0000D280430B8000030B900BF29FC3041017D
:1053D0009E053F30B0318F20A93100304101CE0011
:1053E0000030CD000030CC000030CB00CF01D00128
:1053F0000D30890BF92900008731FD27A931BE3115
:105400003F26A931003A0319062A072AFF29BE318F
:105410001226A93141012008CB072108CC3D0030DC
:10542000CD3DCE3D0130CF070030D03D5008803A11
:10543000C60080304602031D1F2A0A304F02031C9B
:10544000222A232AF829033041019E040030B900A2
:105450000030B8000030B7000A30B600430123081E
:105460004101AD00430122084101AC004301210884
:105470004101AB00430120084101AA000030B10006
:105480000030B0000330AF00FF30AE00B33159231D
:10549000A93141012D08BD002C08BC002B08BB0020
:1054A0002A08BA00B731A527A93141013908CA0035
:1054B0003808C9003708C8003608C7004E08B900C8
:1054C0004D08B8004C08B7004B08B6004A08BD00AC
:1054D0004908BC004808BB004708BA00B731A527F7
:1054E000A93141013708C5003608C4000800F80199
:1054F00054011D1D7C2A7D2A7F2A40015E1454011F
:105500009D1C832A842A8A2A1D121D164001DE143E
:10551000F801F80A54011908FA0078080319912AC9
:10552000922A962ABF316B27AA31082B41016C08B9
:10553000031D9B2A9C2AA32A7A08F4000130AB3170
:10554000A923AA31082B40016103031DA82AA92A17
:10555000E02AAA307A06031DAE2AAF2AE02A3F309D
:1055600043015802031CB52AB62ABE2AE430003291
:105570000032890BB72A00320032CC2A5808F900D1
:105580007908031DC42AC52AC62ACC2A1830890BDB
:10559000C72A0130F902C02A40016008B0315D20FD
:1055A000AA31003A0319D52AD62A082B0230400125
:1055B000E1007A08F4000130AB31A923AA31082BAD
:1055C00002306106031DE52AE62A022B7A086006EE
:1055D000031DEB2AEC2AF32A7A08F4000230AB31DF
:1055E000A923AA31F92A7A08F4000A30AB31A92399
:1055F000AA314001E1010030F000F100BF31D427B1
:10560000AA31082B7A08F4000130AB31A923AA3162
:1056100008003C30B0318F20AB3100304101D50063
:105620000030D4000030D3000030D200D601D701C2
:105630000D30890B192B00008731FD27AB31BE31AE
:105640005C26AB31BE313F26AB31003A0319292B22
:105650002A2B222BBE311226AB3141012008D20762
:105660002108D33D0030D43DD53D0130D607003070
:10567000D73D5708803AC60080304602031D422BB2
:105680000A305602031C452B462B182B43013408C5
:105690004101C600430135084101C700C801C901E5
:1056A0005208CA005308CB005408CC005508CD005E
:1056B0000130CA35CB0DCC0DCD0D890B592B4608C9
:1056C000CA024708CB3B4808CC3B4908CD3B4D08B4
:1056D000AD004C08AC004B08AB004A08AA004301DF
:1056E00023084101B100430122084101B0004301F8
:1056F00021084101AF00430120084101AE00B33150
:105700005923AB3141012D08D1002C08D0002B08C2
:10571000CF002A08CE000030B9003930B8008130FF
:10572000B7009C30B6005108BD005008BC004F08BF
:10573000BB004E08BA00B731A527AB315A30410142
:10574000C60036084602C40037090318890AC50096
:105750000800F70043013F080319AF2BB02BFA2BC9
:10576000CE305902031CB52BB62BBA2BBF316B2799
:10577000AB31522C41016C080319BF2BC02BCB2B32
:105780007703031DC42BC52BD72B8030740203185D
:10579000CA2BCB2BD72B4301590886000230870038
:1057A000740881000130F5007508D907522C4301B7
:1057B00059088600023087007408F5000630F53677
:1057C000890BDF2B7708F6000130F635FF3E031D0D
:1057D000E52B76357504C03881000130F500750879
:1057E000D907590886000230870074083F3980388D
:1057F0008100D22B40080319FE2BFF2B0F2C3E08F3
:105800000319032C042C0F2C57080319082C092CFE
:10581000522C40018D1C0D2C0E2C0F2C522CBE3105
:105820003126AB31003A0319162C172C1D2C4201DE
:10583000630803191C2C1D2C202C4E011916B62BA5
:1058400041016C080319252C262C312C7703031DEC
:105850002A2C2B2C362C803074020318302C312C3F
:10586000362C7408BE31A426AB31522C7408F500D6
:105870000630F536890B392C7708F6000130F635FD
:10588000FF3E031D3F2C76357504C038BE31A4267B
:10589000AB3174083F3980384201E400E301E30A88
:1058A0004E01191608004101A70043013F080319E2
:1058B0005A2C5B2CAA2CCE305902031C602C612C74
:1058C000652CB0311A20AC31032D41016C0803194D
:1058D0006A2C6B2C762C2703031D6F2C702C842CC8
:1058E000803024020318752C762C842C430159082F
:1058F0008600023087004101240881000130A500A4
:1059000025084301D907032D4301590886000230B9
:10591000870041012408A5000630A536890B8D2C8F
:105920002708A6000130A635FF3E031D932C26351F
:105930002504C03881000130A50025084301D9079E
:105940005908860002308700410124083F39803819
:1059500081007E2C40080319AE2CAF2CBF2C3E08D2
:105960000319B32CB42CBF2C57080319B82CB92C2D
:10597000032D40018D1CBD2CBE2CBF2C032DBE3130
:105980004626AC31003A0319C62CC72CCD2C420157
:1059900063080319CC2CCD2CD02C4E011916612C88
:1059A00041016C080319D52CD62CE12C2703031DCB
:1059B000DA2CDB2CE62C803024020318E02CE12CBE
:1059C000E62C2408BE31CB26AC31032D2408A500DB
:1059D0000630A536890BE92C2708A6000130A6352C
:1059E000FF3E031DEF2C26352504C038BE31CB26E3
:1059F000AC31410124083F3980384201E400E30121
:105A0000E30A4E01191608004001EA00732D400117
:105A10006A084101B300B401B335B40DB335B40D18
:105A2000B335B40DB335B40DB335B40D3308083EFA
:105A3000B5000030343DB6003508B7003608B80070
:105A40000030B81BFF30B900BA0000303704AD0099
:105A500001303804AE0000303904AF0000303A04A1
:105A6000B0000230B100B131D021AD31B32D3208D8
:105A700003193B2D3C2D712D40016A084101B300F3
:105A8000B401B335B40DB335B40DB335B40DB3357E
:105A9000B40DB335B40D3308083EB5000030343DC5
:105AA000B6003508B7003608B8000030B81BFF3024
:105AB000B900BA0000303704A4000C303804A50047
:105AC00000303904A60000303A04A7003208A800CC
:105AD0000030A9000430AA000030AB00B5313625F3
:105AE000AD310130B42D6A084101B300B401B335C2
:105AF000B40DB335B40DB335B40DB335B40DB33502
:105B0000B40D3308083EB5000030343DB60035080A
:105B1000B7003608B8000030B81BFF30B900BA0033
:105B200000303704A40003303804A50000303904E5
