:100800008431542CAE3401347E1484314E01961E52
:100810000A2C0B2C122C8C1E0E2C0F2C122C873118
:10082000E92784310B1F152C162C522C4E01991FD1
:100830001A2C1B2C252C8F1F1E2C1F2C252C430102
:1008400045088A0044080A0084314E01191F292CEA
:100850002A2C342C0F1F2D2C2E2C342C4301430812
:100860008A0042080A0084314E01991E382C392C26
:10087000432C8F1E3C2C3D2C432C430141088A0005
:1008800040080A0084314E01191E472C482C522C76
:100890000F1E4B2C4C2C522C43013F088A003E0863
:1008A0000A0084317E10090040018431572C9831B0
:1008B00000208431ED004101883100208431EA00BC
:1008C000883101208431EB0008308400B03085008D
:1008D000DF308600013087000B30BF319427843130
:1008E0009A308400BF308500DB30860002308700FC
:1008F0000630BF31942784314B30840000308500AE
:100900002230BF318E278431A03084000130850031
:100910003F30BF318E278431203084000230850083
:100920004C30BF318E278431A030840002308500E6
:100930002030BF318E2784317E1040019B313E2B09
:1009400040304101CA000230CB000130CC00003001
:10095000CD0042014F08A9318621843141014A0866
:100960004B04031DB42CB52CB62CC72F013042010B
:10097000CD070030CE3D440140084201A0002008D0
:10098000C900490A031DC52CC62CC72CC72F49080E
:10099000031DCB2CCC2CCD2CBC2F40304101CA00E8
:1009A0000230CB000130CC000030CD0042014F08B6
:1009B000A9318621843141014A084B04031DE12CF1
:1009C000E22CE32CC72F01304201CD070030CE3D91
:1009D000440140084201A0002008CA004A08031947
:1009E000F22CF32C1B2D40304101CA000230CB0009
:1009F00042014A08A000A10120084101CC004201A7
:100A000021084101CD0042014F08A93186218431DE
:100A100042014A08A200A30141014B0842012306FA
:100A2000031D162D41014A08420122060319192D02
:100A30001A2D1B2DC72F4A08A000A1012008CD07A1
:100A40002108CE3D9D2FD3304101A3000130A400E9
:100A50004030A5000230A6000430A7000030A800F6
:100A6000B331E4238431BC2FCF304101A3000130E6
:100A7000A4004030A5000230A6000430A7000030DA
:100A8000A800B331E4238431BC2FFF30A000003034
:100A9000A1000030A2000030A30044014008420140
:100AA000A400440141084201A5004401420842015A
:100AB000A600440143084201A7001830A736A60C3F
:100AC000A50CA40C890B5E2D2408A0052508A10502
:100AD0002608A2052708A3050030A800FF30A900BA
:100AE0000030AA000030AB00440140084201AC00D5
:100AF000440141084201AD00440142084201AE00F8
:100B0000440143084201AF000830AF36AE0CAD0CD3
:100B1000AC0C890B852D2C08A8052D08A9052E08DD
:100B2000AA052F08AB050030B0000030B100FF303F
:100B3000B2000030B300440140084201B400440157
:100B400041084201B500440142084201B600440197
:100B500043084201B7000830B435B50DB60DB70DE6
:100B6000890BAC2D3408B0053508B1053608B2053F
:100B70003708B3050030B8000030B9000030BA00C3
:100B8000FF30BB00440140084201BC004401410861
:100B90004201BD00440142084201BE004401430835
:100BA0004201BF001830BC35BD0DBE0DBF0D890B15
:100BB000D32D3C08B8053D08B9053E08BA053F08E5
:100BC000BB053808B0043908B1043A08B2043B0840
:100BD000B3043008A8043108A9043208AA04330871
:100BE000AB04200828044001CF0042012108290459
:100BF0004001D000420122082A044001D1004201F4
:100C000023082B044001D200BC2F440140084201BC
:100C1000A0002008C400BC2FD7304101A300013040
:100C2000A4004030A5000230A6000430A700003028
:100C3000A800B331E4238431BC2FFF30A000003082
:100C4000A1000030A2000030A3004401400842018E
:100C5000A400440141084201A500440142084201A8
:100C6000A600440143084201A7001830A736A60C8D
:100C7000A50CA40C890B362E2408A0052508A10577
:100C80002608A2052708A3050030A800FF30A90008
:100C90000030AA000030AB00440140084201AC0023
:100CA000440141084201AD00440142084201AE0046
:100CB000440143084201AF000830AF36AE0CAD0C22
:100CC000AC0C890B5D2E2C08A8052D08A9052E0853
:100CD000AA052F08AB050030B0000030B100FF308E
:100CE000B2000030B300440140084201B4004401A6
:100CF00041084201B500440142084201B6004401E6
:100D000043084201B7000830B435B50DB60DB70D34
:100D1000890B842E3408B0053508B1053608B205B4
:100D20003708B3050030B8000030B9000030BA0011
:100D3000FF30BB00440140084201BC0044014108AF
:100D40004201BD00440142084201BE004401430883
:100D50004201BF001830BC35BD0DBE0DBF0D890B63
:100D6000AB2E3C08B8053D08B9053E08BA053F085A
:100D7000BB053808B0043908B1043A08B2043B088E
:100D8000B3043008A8043108A9043208AA043308BF
:100D9000AB04200828044001CB00420121082904AB
:100DA0004001CC00420122082A044001CD0042014A
:100DB00023082B044001CE00BC2FFF30A0000030E0
:100DC000A1000030A2000030A3004401400842010D
:100DD000A400440141084201A50044014208420127
:100DE000A600440143084201A7001830A736A60C0C
:100DF000A50CA40C890BF62E2408A0052508A10536
:100E00002608A2052708A3050030A800FF30A90086
:100E10000030AA000030AB00440140084201AC00A1
:100E2000440141084201AD00440142084201AE00C4
:100E3000440143084201AF000830AF36AE0CAD0CA0
:100E4000AC0C890B1D2F2C08A8052D08A9052E0810
:100E5000AA052F08AB050030B0000030B100FF300C
:100E6000B2000030B300440140084201B400440124
:100E700041084201B500440142084201B600440164
:100E800043084201B7000830B435B50DB60DB70DB3
:100E9000890B442F3408B0053508B1053608B20572
:100EA0003708B3050030B8000030B9000030BA0090
:100EB000FF30BB00440140084201BC00440141082E
:100EC0004201BD00440142084201BE004401430802
:100ED0004201BF001830BC35BD0DBE0DBF0D890BE2
:100EE0006B2F3C08B8053D08B9053E08BA053F0818
:100EF000BB053808B0043908B1043A08B2043B080D
:100F0000B3043008A8043108A9043208AA0433083D
:100F1000AB04200828044301A80042012108290449
:100F20004301A900420122082A044301AA00420108
:100F300023082B044301AB00BC2F4908A000A101EA
:100F40002108003A0319A52FBC2F2008013A0319E4
:100F5000232D023A0319342D303A0319452D063A50
:100F60000319052E033A03190C2E0C3A03191D2EF2
:100F7000013A0319DD2EBC2F42014C084E02031D1D
:100F8000C32F4B084D02031CC62FC72FA02C4201B4
:100F90004D084B024101D80042014E084C3B410133
:100FA000D90042014F08B03194208431FF30400114
:100FB0005B054201A000003040015C054201A10038
:100FC000033020062104031DE72FA1314E29A23151
:100FD000222A4E018C1201304301BC070030BD3D76
:100FE00000303D027A3003193C02031CF82FF92F20
:100FF000FF2FB031132087314301BC01BD01080030
:101000000134A0344101E10040010E1B08280928E9
:1010100018284301460803190E280F281228B0315A
:101020006D2088314301C601C60A4101E101E10A90
:10103000A8310220883143014608031D20282128B9
:101040006A29F7284401A001A00AA101A10ABF3121
:10105000ED27883141012408E6002308E5006608F1
:10106000DB005B084401A20041016508DB005B086E
:101070004401A30040015F08031D3F284028442885
:101080004101DD01DE01492804304101DD0000306D
:10109000DE0040015E08031D4E284F285328410101
:1010A000DF01E001582808304101DF000030E00096
:1010B0006A08031D5C285E2801305F2800305F0449
:1010C0005D04DB005B084401A40005304101DB0046
:1010D0005B08E40014290030A3000130A4000130B3
:1010E000A500B4319E2488314101E201B2313C2295
:1010F000883141012408E6002308E5006508DB008B
:101100006208203E8600023087005B0881000130C3
:10111000DB005B08E20709306202031C902891287B
:1011200076280930DB005B08E40014290030A300B6
:101130000030A4000130A500B4319E248831410163
:10114000E301B2313C22883141012408E600230842
:10115000E5006608DB006308203E86000230870059
:101160005B0881006508DB006308213E86000230D1
:1011700087005B0881000230DB005B08E307083072
:101180006302031CC428C528A1280830DB005B08C3
:10119000E4001429AE310226883141014808E600F6
:1011A0004708E5006608DB005B084401A000410138
:1011B0006508DB005B084401A10002304101DB004F
:1011C0005B08E4001429AC31DC2488314101480873
:1011D000E6004708E500D228983101208831410116
:1011E0004808E6004708E500D228E401142967080A
:1011F0004101DB00DC015C08003A03190029F528F5
:101200005B08003A03192228013A03196B28033AB4
:1012100003199628013A0319CA28073A0319E32843
:10122000013A0319EC28F528FF30DB005B08430185
:10123000E7004101640803191E291F296A29430197
:10124000C70141016408DB005B08A5000330AC3135
:101250004D24883140015F0803192F293029502976
:10126000492943014708203E8600023087000108D3
:101270004101DB005B08A5000330AC314D2488310F
:1012800001304101DB005B084301C7070130410128
:10129000E40241016408031D4E294F2931295629D2
:1012A00041016408DB005B084301C800410161089B
:1012B00003195B295C296A29E10102304101DC0044
:1012C0000430DB00BA30890B6329DB0B6329DC0BAC
:1012D000632900004101610803196F2970297C29E5
:1012E00005304101DC000F30DB00F130890B76293D
:1012F000DB0B7629DC0B7629080058080F3E8600A8
:10130000023087000108A0000430A036890B85292F
:101310002008573EC900003003180130CA00A22936
:1013200058080F3E8600023087000108A0000430F4
:10133000A036890B98292008303EC90000300318D8
:101340000130CA004908A00057085807A100210829
:10135000860002308700200881000130A0002008AC
:10136000D70758080F3E8600023087000F3001056E
:10137000A0000A302002031CBE29BF29CD2958082D
:101380000F3E86000230870001080F39573ECB0020
:10139000003003180130CC00DA2958080F3E8600CF
:1013A0000230870001080F39303ECB0000300318AF
:1013B0000130CC004B08A00057085807A1002108B5
:1013C000860002308700200881000130A00020083C
:1013D000D7075408A0005508A100A201A3010830B6
:1013E000A035A10DA20DA30D890BF0295608A4006C
:1013F000A501A435A50DA435A50DA435A50DA435CD
:10140000A50DA435A50D2408103EA6000030253DED
:10141000A7002608A8002708A9000030A91BFF3054
:10142000AA00AB00200828044101A70042012108BE
:1014300029044101A800420122082A044101A9000F
:10144000420123082B044101AA004201580841012E
:10145000AB000230AC0042015708AC00AD012C08D3
:101460004101AD0042012D084101AE00A831E72045
:10147000893142015708A000A1012008D4072108A2
:10148000D53D4008031D452A462A182BFF30400150
:101490005B054201A000003040015C054201A10053
:1014A000033020062104031D562A572A182BD70182
:1014B0003230A00057085807A100210886000230EA
:1014C0008700200881000130A0002008D7070430E1
:1014D000A00057085807A1002108860002308700A5
:1014E000200881000130A0002008D70758085707BE
:1014F0004101A3000230A400DB30A5000130A600AA
:101500000430A7000030A800B331E423893104304F
:101510004201A0002008D7073630A000570858071E
:10152000A1002108860002308700200881000130D8
:10153000A0002008D7070430A00057085807A100D2
:101540002108860002308700200881000130A000B9
:101550002008D707580857074101A3000230A4000C
:10156000D730A5000130A6000430A7000030A80045
:10157000B331E423893104304201A0002008D707A9
:101580005408A0005508A100A201A3010830A0350D
:10159000A10DA20DA30D890BC72A5608A400A50111
:1015A000A435A50DA435A50DA435A50DA435A50D0F
:1015B000A435A50D2408103EA6000030253DA70047
:1015C0002608A8002708A9000030A91BFF30AA00A0
:1015D000AB00200828044101A7004201210829048A
:1015E0004101A800420122082A044101A900420148
:1015F00023082B044101AA00420158084101AB0015
:101600000230AC0042015708AC00AD012C0841018A
:10161000AD0042012D084101AE00A831E72089311B
:1016200042015708A000A1012008D4072108D53D98
:10163000D7013730A00057085807A10021088600BD
:1016400002308700200881000130A0002008D70761
:1016500040015D08031D2D2B2E2B342B023042013F
:10166000CD000030CE00392B04304201CD000030D7
:10167000CE004D08A00057085807A1002108860099
:1016800002308700200881000130A0002008D70721
:1016900057085807A0002008860002308700810103
:1016A000810A0130A0002008D7070330A0005708A6
:1016B0005807A10021088600023087002008810019
:1016C0000130A0002008D70740015D080319692BED
:1016D0006A2B892B3A304201A00057085807A10015
:1016E0002108860002308700200881000130A00018
:1016F0002008D7073B30A00057085807A100210851
:10170000860002308700200881000130A0002008F8
:10171000D707FF304201A00057085807A100210851
:10172000860002308700200881000130A0002008D8
:10173000D7075408A0005508A100A201A301083052
:10174000A035A10DA20DA30D890BA02B5608A40056
:10175000A501A435A50DA435A50DA435A50DA43569
:10176000A50DA435A50D2408103EA6000030253D8A
:10177000A7002608A8002708A9000030A91BFF30F1
:10178000AA00AB00200828044101A700420121085B
:1017900029044101A800420122082A044101A900AC
:1017A000420123082B044101AA00420158084101CB
:1017B000AB000230AC0042015708AC00AD012C0870
:1017C0004101AD0042012D084101AE00A831E720E2
:1017D000893142015708A000A1012008D40721083F
:1017E000D53D5608A000A101A035A10DA035A10D41
:1017F000A035A10DA035A10DA035A10D2008083EF2
:10180000A2000030213DA3002208A4002308A50067
:101810000030A51BFF30A600A700003024044101C2
:10182000A7002430420125044101A80000304201F4
:1018300026044101A9000030420127044101AA0009
:10184000420155084101AC00420154084101AB007E
:10185000A83199208931420153080319302C312CC9
:10186000542C4C304101A3000230A4000030A500EC
:10187000A6000430A7000030A800A03183208931E1
:1018800000304101AA000030A9000F30A80000304C
:10189000A7004C30AB000230AC000430AD0000308B
:1018A000AE00A831E720893142015808A000200885
:1018B0004101C9000030CA00CB0042015608A231E4
:1018C00025228931420153080319672C682C7C2C8E
:1018D00000304101AA000030A9000F30A8000030FC
:1018E000A700DB30AB000130AC000430AD000030AD
:1018F000AE00A831E720893108004501D901003048
:101900004101AA000030A9003930A8000030A7002A
:10191000AB01B73170278C314201DD005D08450114
:10192000C500043045060319962C972CC12C590884
:1019300003199B2C9C2CA52CD90100304101A3003C
:10194000A400B1313E218C31AF2CD901D90A143019
:101950004101A3000030A400B1313E218C310B3095
:101960004201DE002630DD005D30890BB52CDD0B39
:10197000B52CDE0BB52C00320030883102208C31C2
:101980007F2C9C3193248C314201DD005D084501A0
:10199000D70000304101AA000030A9001930A8008A
:1019A0000030A7000430AB000030AC00A831992013
:1019B0008C31032D450159080319DF2CE02CE92C4B
:1019C000D90100304101A300A400B1313E218C3186
:1019D000F32CD901D90A14304101A3000030A4002E
:1019E000B1313E218C3103304201DE000830DD0090
:1019F0007730890BF92CDD0BF92CDE0BF92C00303C
:101A0000883102208C3100304101AA000030A90049
:101A10002E30A8000030A700AB01B73170278C3101
:101A200001390319142D152DDA2C40015A084101F2
:101A3000C900400159084101C8004001580841014E
:101A4000C700400157084101C6004501570842013F
:101A5000DD005D084101CA0000309931ED218C3173
:101A6000450157080319352D362D032E40015A081C
:101A70004501C300400159084501C2004001580812
:101A80004501C100400157084501C000D301D30AF8
:101A9000CA01FD2D430840015A06031D5F2D450173
:101AA000420840015906031D5F2D450141084001D0
:101AB0005806031D5F2D4501400840015706031DD0
:101AC000622D632D992D45015308031D682D692D45
:101AD000992D40015A084101C900400159084101AE
:101AE000C800400158084101C700400157084101A2
:101AF000C600CA01CA0A00309931ED218C31992DF6
:101B00004501CA01CA0ABD2D0230400157074501EF
:101B1000C00000304001583D4501C1000030400187
:101B2000593D4501C200003040015A3D4501C30006
:101B3000BD2D40015A084201DC0040015908420114
:101B4000DB00400158084201DA0040015708420119
:101B5000D900003093317D238C314201DD00DE015C
:101B60005E08003A0319B52DBD2D5D08013A031931
:101B7000802D033A0319842DBD2D45015908031901
:101B8000C22DC32DCC2DD90100304101A300A400EA
:101B9000B1313E218C31D62DD901D90A1430410101
:101BA000A3000030A400B1313E218C310630420147
:101BB000DE001330DD00AD30890BDC2DDD0BDC2DBC
:101BC000DE0BDC2D003201304201DD005D084501F5
:101BD000D30708305302031CEE2DEF2DF92DD3014E
:101BE00001304001D7070030D83D0030D93D0030EA
:101BF000DA3D0030883102208C3145014A08031952
:101C0000022E032E4A2DB031E7208C310F2EF230F8
:101C10004101A3002630A400BF31B7278C315030DA
:101C20004101A3002F30A400BF31D2278C318B1784
:101C30000B174301C901C90A40015F080319212E8E
:101C4000222EE32F4501DA010030CE000030CD0016
:101C50000030CC000030CB000030D2000030D1008A
:101C60000030D0000030CF0045015208510450042C
:101C70004F0403193C2E3D2E652E520840015A0296
:101C8000031D522E4501510840015902031D522ED9
:101C90004501500840015802031D522E45014F08CE
:101CA00040015702031C552E562E652E003045016B
:101CB000D2000030D1000030D0000030CF00013021
:101CC000B53130258C314501DA0145014E084D040E
:101CD0004C044B0403196D2E6E2EB72E4E08400196
:101CE0005A02031D832E45014D0840015902031D70
:101CF000832E45014C0840015802031D832E4501E7
:101D00004B0840015702031C862E872EE42E00301C
:101D10004501CE000030CD000030CC000030CB00BB
:101D20005A080319942E952E9B2E0130B53130257B
:101D30008C314501DA0140015A084101C9004001D6
:101D400059084101C800400158084101C70040013D
:101D500057084101C600450157084201DD005D08F2
:101D60004101CA0000309931ED218C31E42E40014F
:101D70005A084201DC00400159084201DB004001E1
:101D800058084201DA00400157084201D9000030EA
:101D900093317D238C31023A031DCF2ED02EE42EB9
:101DA0000230400157074501CB0000304001583D4B
:101DB0004501CC0000304001593D4501CD000030C7
:101DC00040015A3D4501CE0045015A08031DE92E48
:101DD000EA2E042F0F304101B7002730B800013040
:101DE0009831CD208C3100304101AA000030A9008B
:101DF0002F30A8002C30A700AB01AB0AB7317027F9
:101E00008C314501DA01DA0A5A03031D082F092F24
:101E1000292F4101B7010130AE31A2268C31003AA1
:101E20000319132F142F1E2F02304201DD005D080D
:101E30004501DA004001ED01ED0A292F0130A03102
:101E400011208C31003A0319262F272F292F450105
:101E5000DA01023045015A0603192F2F302F362F91
:101E600003305A06031D352F362F422F0130A03183
:101E700011208C31003A03193E2F3F2F422F45018C
:101E8000DA01802F023045015A06031D482F492FE1
:101E9000802F0130B63130268C31003A0319512F92
:101EA000522F712F0130B53162258C310330420140
:101EB000DD005D084501DA000130400157074501AA
:101EC000CF0000304001583D4501D00000304001B6
:101ED000593D4501D100003040015A3D4501D20035
:101EE000802F0130B53194258C31410135083604FD
:101EF00003197B2F7C2F802FA631F2268C31802F67
:101F0000A03041016B024201DD005D084501D400B3
:101F1000540803198C2F8D2FDE2F02305A06031D13
:101F2000922F932FA92FA0304201DD005D084101BF
:101F3000C900450154084201DE00DF015E0841018D
:101F4000CA0042015F084101CB000130A2312522C5
:101F50008C314E0199134501540841016B02420135
:101F6000DD005D084501D800A0304201DD004501DB
:101F7000580842015D020318BE2FBF2FD52FA03095
:101F80004101A3000230A400450158084101A50009
:101F90000230A600A030450158024101A700A80167
:101FA000A71BA803B331E4238C3145015808420133
:101FB000DD005D084101EB004E01991700308831CA
:101FC00002208C31342E41016A080319E82FE92FD1
:101FD000F02FA630A3003130A400BF31C9278C31C7
:101FE00040015E080319F52FF62FF92FB731B827F6
:101FF0008C310130883102208C31F02F8431542C07
:10200000BB3052018C0008004101C5004508BC00EE
:10201000BD01BC35BD0DBC35BD0DBC35BD0DBC35E0
:10202000BD0DBC35BD0D3C08083EBE0000303D3D39
:10203000BF003E08C0003F08C1000030C11BFF3098
:10204000C200C30000304004A70004304104A800CF
:1020500000304204A90000304304AA003808AC0054
:102060003708AB00A8319920903141014508BC00E8
:10207000BD01BC35BD0DBC35BD0DBC35BD0DBC3580
:10208000BD0DBC35BD0D3C08083EBE0000303D3DD9
:10209000BF003E08C0003F08C1000030C11BFF3038
:1020A000C200C30000304004A7000C304104A80067
:1020B00000304204A90000304304AA003908AB00F4
:1020C0000130AC000430AD000030AE00A831E72094
:1020D000903141014508BC00BD01BC35BD0DBC358A
:1020E000BD0DBC35BD0DBC35BD0DBC35BD0D3C08B1
:1020F000083EBE0000303D3DBF003E08C0003F0826
:10210000C1000030C11BFF30C200C30000304004DA
:10211000A70010304104A80000304204A90000309C
:102120004304AA003B08AC003A08AB00A831992050
:10213000903141014508BC00BD01BC35BD0DBC3529
:10214000BD0DBC35BD0DBC35BD0DBC35BD0D3C0850
:10215000083EBE0000303D3DBF003E08C0003F08C5
:10216000C1000030C11BFF30C200C300003040047A
:10217000B10001304104B20000304204B30000302D
:102180004304B4001030C4004408B500B231E92261
:10219000903141014508BC00BD01BC35BD0DBC35C9
:1021A000BD0DBC35BD0DBC35BD0DBC35BD0D3C08F0
:1021B000083EBE0000303D3DBF003E08C0003F0865
:1021C000C1000030C11BFF30C200C3000430400416
:1021D000A70000304104A80000304204A9000030EC
:1021E0004304AA000230C4004408AB00B731702792
:1021F000903141014508BC00BD01BC35BD0DBC3569
:10220000BD0DBC35BD0DBC35BD0DBC35BD0D3C088F
:10221000083EBE0000303D3DBF003E08C0003F0804
:10222000C1000030C11BFF30C200C30000304004B9
:10223000B10001304104B20000304204B30000306C
:102240004304B400B501B50AB231E922903141012D
:102250004508BC00BD01BC35BD0DBC35BD0DBC3550
:10226000BD0DBC35BD0DBC35BD0D3C08083EBE00E6
:1022700000303D3DBF003E08C0003F08C1000030B7
:10228000C11BFF30C200C30000304004A700033070
:102290004104A80000304204A90000304304AA0011
:1022A000AB01B73170279031223A031D58295929C3
:1022B000992808004201D6005608A000A101A035C7
:1022C000A10DA035A10DA035A10DA035A10DA03502
:1022D000A10D2008083EA2000030213DA3002208E5
:1022E000A4002308A5000030A51BFF30A600A7000E
:1022F000003024044101A70024304201250441019B
:10230000A8000030420126044101A900003042012A
:1023100027044101AA00AB314F2391314101280824
:102320004201D500410127084201D4004030A000FD
:102330002008D80058084101A3000230A400003052
:10234000A500A6002C30A7000030A800A0318320F3
:1023500091314401C001C00AC101C10A06304201E5
:10236000A00020084401C200C301FF304201A000C8
:102370000030A1000030A2000030A300400153084B
:102380004201A400400154084201A5004001550843
:102390004201A600400156084201A7001830A736A6
:1023A000A60CA50CA40C890BCF292408A005250890
:1023B000A1052608A2052708A3050030A800FF30C4
:1023C000A9000030AA000030AB00400153084201D0
:1023D000AC00400154084201AD00400155084201E3
:1023E000AE00400156084201AF000830AF36AE0CD7
:1023F000AD0CAC0C890BF6292C08A8052D08A905F5
:102400002E08AA052F08AB050030B0000030B1003F
:10241000FF30B2000030B300400153084201B40065
:10242000400154084201B500400155084201B60080
:10243000400156084201B7000830B435B50DB60D5D
:10244000B70D890B1D2A3408B0053508B1053608CB
:10245000B2053708B3050030B8000030B9000030CD
:10246000BA00FF30BB00400153084201BC004001EC
:1024700054084201BD00400155084201BE00400120
:1024800056084201BF001830BC35BD0DBE0DBF0D52
:10249000890B442A3C08B8053D08B9053E08BA0531
:1024A0003F08BB053808B0043908B1043A08B20443
:1024B0003B08B3043008A8043108A9043208AA0470
:1024C0003308AB04200828044401C4004201210859
:1024D00029044401C500420122082A044401C6001F
:1024E000420123082B044401C7004201CF014301EC
:1024F000230822042104200403197F2A802A932A16
:1025000040014E08031D8F2A4D08031D8F2A4C08D9
:10251000031D8F2A3C304B0203188F2A902A932ADE
:102520004201CF01CF0A42014F08031D982A9A2A7F
:1025300001309B2A0030A0002008C000D001D00A42
:10254000430123082204210420040319A82AA92AEC
:10255000B82A2B08031DB82A2A08031DB82A2908FF
:10256000031DB82A3C302802031CB72AB82AC92AFE
:10257000FF3040015B054201A000003040015C05D6
:102580004201A100200321040319C72AC82AC92A2D
:10259000D00142015008031DCE2AD02A0130D12A91
:1025A0000030A0002008D30040015D080319D92A9B
:1025B000DA2ADE2ADC1CDD2ADE2AF42A4C3041012C
:1025C000A3000230A400DB30A5000130A6000430D7
:1025D000A7000030A800B331E42391314201530831
:1025E0000319F32AF42AF92A80304401CA00003082
:1025F000CB0000304101AA000030A9000930A8003A
:102600000030A7005C30AB000230AC000630AD00FB
:102610000030AE00A8314C20913142015408A00096
:102620005508A100A201A3010830A035A10DA20DFB
:10263000A30D890B152B5608A400A501A435A50DE3
:10264000A435A50DA435A50DA435A50DA435A50D5E
:102650002408103EA6000030253DA7002608A8004B
:102660002708A9000030A91BFF30AA00AB002008F2
:1026700028044101A7004201210829044101A800C2
:10268000420122082A044101A900420123082B0427
:102690004101AA00420158084101AB000230AC00E0
:1026A0002C30AD000030AE00A831E72091312C3045
:1026B0004201D4070030D53D58084101A300023043
:1026C000A4000030A500A6002030A7000030A8001C
:1026D000A031832091314201D101D2015208803AC8
:1026E000A00080302002031D772B06305102031C0E
:1026F0007B2B9531A92D9531AA2D4101E4000030A5
:10270000AA000030A9002E30A8000030A700AB01BD
:10271000B731702793310139031D8F2B902B922BEA
:102720000230A82D43012708260425042404031998
:102730009A2B9B2B372C270842015C02031DB02BE0
:102740004301260842015B02031DB02B430125080B
:1027500042015A02031DB02B4301240842015902D1
:10276000031CB32BB42B372C40015D080319B92B84
:10277000BA2B322C003043013702403003193602A5
:10278000031CC32BC42B322C023040015B06031DFB
:10279000CD2B5C03031DCD2BCE2BD92B0030430159
:1027A000A7000030A6000030A5000030A4000230D1
:1027B000A82D03305B06033003195C060319E12BD7
:1027C000E22BE32BCE2B5208031DF12B5108031DE6
:1027D000F12B5008031DF12B3C304F020318F12B55
:1027E000F22BF32BCE2B01304001CE36CD0CCC0C8E
:1027F000CB0C890BF42B01304301AB36AA0CA90C8E
:10280000A80C890BFC2B01304001D236D10CD00C26
:10281000CF0C890B042C4201590840014B074101A0
:10282000DC0042015A0840014C3D4101DD004201FB
:102830005B0840014D3D4101DE0042015C08400162
:102840004E3D4101DF005F084301A30041015E08E6
:102850004301A20041015D084301A10041015C0860
:102860004301A000FF304001DB05FE30DC054001E4
:102870005C183B2C3C2C772C4101640891315A2187
:10288000933140015C14420159084101DC004201CE
:102890005A084101DD0042015B084101DE004201AE
:1028A0005C084101DF00430136084101E0004301BB
:1028B00037084101E100E201E3016008DC0761083B
:1028C000DD3D6208DE3D6308DF3D5F084301A70090
:1028D00041015E084301A60041015D084301A500D6
:1028E00041015C084301A400B031802093314001D4
:1028F00056084101E800400155084101E700400148
:1029000054084101E600400153084101E500E5306B
:10291000DC005C08DB0064089D31FB25933141013C
:10292000DD005D08E900690A031D972C982C8E2DA7
:10293000FF30A82D023041016906031DA02CA12CF7
:10294000B52C68084001D600410167084001D50058
:10295000410166084001D400410165084001D300EF
:102960000330DB000030DC00A72D01304001DB002C
:102970000030DC00A72D053041016906031DC12C84
:10298000C22C562D68084001D6004101670840015D
:10299000D500410166084001D400410165084001AD
:1029A000D30000304101AA000030A9000F30A80078
:1029B0000030A700DB30AB000130AC000430AD00CC
:1029C0000030AE00A831E720933100304101AA0069
:1029D0000030A9000530A8000030A700D330AB00BC
:1029E0000130AC000430AD000030AE00A831E7206B
:1029F000933100304101AA000030A9000130A80045
:102A00000030A700CF30AB000130AC000430AD0087
:102A10000030AE00A831E720933142015C08430149
:102A2000A70042015B084301A60042015A08430186
:102A3000A500420159084301A40040014E08031DAE
:102A40002C2D4D08031D2C2D4C08031D2C2D3C3026
:102A50004B0203182C2D2D2D372D3C304301A4079C
:102A60000030A53D0030A63D0030A73D472D400178
:102A70004B084301A40740014C084301A53D400118
:102A80004D084301A63D40014E084301A73D2708DC
:102A9000A3002608A2002508A1002408A0000330F6
:102AA0004001DB000330DC000130A82D0630690650
:102AB000031D5B2D5C2D5D2DB52C03304001DB002B
:102AC0000030DC00A72D053041016906031D692D8A
:102AD0006A2DA72D68084001D60041016708400112
:102AE000D500410166084001D4004101650840015C
:102AF000D3003C30420159074301A4000030420199
:102B00005A3D4301A500003042015B3D4301A60050
:102B1000003042015C3D4301A700A72D40015C0845
:102B2000013A0319972D023A0319A22DA72D5B082C
:102B3000013A03199A2C023A0319BB2C0B3A0319D8
:102B4000632DA72D5B08033A0319BB2CA72D00307A
:102B50000800FF2D42015408A0005508A100A20161
:102B6000A3010830A035A10DA20DA30D890BB22D34
:102B70005608A400A501A435A50DA435A50DA435BE
:102B8000A50DA435A50DA435A50D2408103EA6005D
:102B90000030253DA7002608A8002708A90000301E
:102BA000A91BFF30AA00AB00200828044101A700A0
:102BB0004201210829044101A800420122082A04F7
:102BC0004101A900420123082B044101AA0042014E
:102BD00058084101AB000230AC002030AD0000309D
:102BE000AE00A831E720953120304201D4070030F3
:102BF000D53D0130D1070030D23D93316E2B4201DB
:102C0000D7016330A00057085807A10021088600AB
:102C100002308700200881000130A0002008D7077B
:102C20008230A00057085807A10021088600023012
:102C30008700200881000130A0002008D70753300A
:102C4000A00057085807A10021088600023087001D
:102C5000200881000130A0002008D7076330A000C1
:102C600057085807A1002108860002308700200875
:102C700081000130A0002008D7073530A000570898
:102C80005807A10021088600023087002008810033
:102C90000130A0002008D70757085807A0002008D7
:102CA0008600023087008101810A0130A0002008DF
:102CB000D70740015B084201A00057085807A10050
:102CC0002108860002308700200881000130A00022
:102CD0002008D7073D30A00057085807A100210859
:102CE000860002308700200881000130A000200803
:102CF000D7070730A00057085807A1002108860011
:102D000002308700200881000130A0002008D7078A
:102D100057085807A000200886000230870081016C
:102D2000810A0130A0002008D70700304101AA0025
:102D30000030A9000930A8000030A700420158085F
:102D400057074101AB000230AC000630AD00003047
:102D5000AE00A8314C20953106304201A000200879
:102D6000D7070C30A00057085807A100210886009B
:102D700002308700200881000130A0002008D7071A
:102D800000304101A300B830A400B1317021953169
:102D900041012308063E4201A00057085807A10040
:102DA0002108860002308700200881000130A00041
:102DB0002008D70700304101A300B830A400420129
:102DC00058085707B2317E22953100304101A300E7
:102DD000B830A400B131702195314101230842017E
:102DE000A0002008D70758080D3E86000230870053
:102DF0000108A0000430A036890BFB2E0A30200207
:102E0000031C032F042F172F58080D3E8600023095
:102E100087000108A0000430A036890B0C2F200881
:102E2000573EC100003003180130C200292F580856
:102E30000D3E8600023087000108A0000430A03655
:102E4000890B1F2F2008303EC100003003180130CD
:102E5000C2004108A00057085807A10021088600B9
:102E600002308700200881000130A0002008D70729
:102E700058080D3E8600023087000F300105A00083
:102E80000A302002031C452F462F542F58080D3EB0
:102E900086000230870001080F39573EC30000301A
:102EA00003180130C400612F58080D3E860002301F
:102EB000870001080F39303EC3000030031801308D
:102EC000C4004308A00057085807A1002108860045
:102ED00002308700200881000130A0002008D707B9
:102EE00058080E3E8600023087000108A00004301A
:102EF000A036890B782F0A302002031C802F812FE7
:102F0000942F58080E3E8600023087000108A0006A
:102F10000430A036890B892F2008573EC5000030A9
:102F200003180130C600A62F58080E3E8600023056
:102F300087000108A0000430A036890B9C2F2008D0
:102F4000303EC500003003180130C6004508A0001F
:102F500057085807A1002108860002308700200882
:102F600081000130A0002008D70758080E3E8600D7
:102F7000023087000F300105A0000A302002031C38
:102F8000C22FC32FD12F58080E3E86000230870073
:102F900001080F39573EC700003003180130C80040
:102FA000DE2F58080E3E86000230870001080F39D8
:102FB000303EC700003003180130C8004708A000A9
:102FC00057085807A1002108860002308700200812
:102FD00081000130A0002008D70758080F3E860066
:102FE000023087000108A0000430A036890BF52FBD
:102FF0000A302002031CFE2F89317D298931902956
:1030000001340230B13157219831FF304101D000F5
:10301000FF30D100D201D301CE01CF01BF317927DA
:103020009831BF31A0279831003A03191828192880
:103030001128BF318827983141012408D500230881
:10304000D40051085502031D2728500854020318C4
:103050002A282B282F285508D1005408D0005508BD
:103060005302031D35285408520203183828392802
:103070003D285508D3005408D2000130CE07003057
:10308000CF3D4F08803AC90092304902031D4A28BB
:103090001C304E02031C4D284E280E2800304101E2
:1030A000BC000D30BB00B130BA005830B900500838
:1030B000AD005108AE00AF01B00143016D08410100
:1030C000B40043016C084101B30043016B084101A6
:1030D000B20043016A084101B100B531C7259831FA
:1030E00041013008C0002F08BF002E08BE002D0887
:1030F000BD00AA312D229831410139080B3ED00084
:1031000000303A3DD1000030BC000D30BB00B13082
:10311000BA005830B9005208AD005308AE00AF01F4
:10312000B00143016D084101B40043016C08410145
:10313000B30043016B084101B20043016A08410139
:10314000B100B531C725983141013008C0002F08C2
:10315000BF002E08BE002D08BD00AA312D229831D7
:10316000410139080B3ED20000303A3DD300FF3018
:103170005005C90000305105CA00FF305205CB0090
:1031800000305305CC004B08CC00CB0149084B0460
:10319000C7004A084C04C80008004101C2004208A8
:1031A000B900BA01B935BA0DB935BA0DB935BA0D8C
:1031B000B935BA0DB935BA0D3908083EBB00003033
:1031C0003A3DBC003B08BD003C08BE000030BE1BC1
:1031D000FF30BF00C00000303D04A70004303E04B3
:1031E000A80000303F04A90000304004AA003808BD
:1031F000AC003708AB00A831992098314101420852
:10320000B900BA01B935BA0DB935BA0DB935BA0D2B
:10321000B935BA0DB935BA0D3908083EBB000030D2
:103220003A3DBC003B08BD003C08BE000030BE1B60
:10323000FF30BF00C00004303D04A70002303E0450
:10324000A80000303F04A90000304004AA000A3062
:10325000C1004108AB00B7317027983141014208E5
:10326000B900BA01B935BA0DB935BA0DB935BA0DCB
:10327000B935BA0DB935BA0D3908083EBB00003072
:103280003A3DBC003B08BD003C08BE000030BE1B00
:10329000FF30BF00C00000303D04B10001303E04EB
:1032A000B20000303F04B30000304004B4001030DE
:1032B000C1004108B500B231E9229831410142080C
:1032C000B900BA01B935BA0DB935BA0DB935BA0D6B
:1032D000B935BA0DB935BA0D3908083EBB00003012
:1032E0003A3DBC003B08BD003C08BE000030BE1BA0
:1032F000FF30BF00C00004303D04A70000303E0492
:10330000A80000303F04A90000304004AA00AB012F
:10331000AB0AB7317027983141014208B900BA01B0
:10332000B935BA0DB935BA0DB935BA0DB935BA0DC9
:10333000B935BA0D3908083EBB0000303A3DBC0033
:103340003B08BD003C08BE000030BE1BFF30BF0084
:10335000C00000303D04B10001303E04B200003036
:103360003F04B30000304004B400B501B50AB231E7
:10337000E922983141014208B900BA01B935BA0DC4
:10338000B935BA0DB935BA0DB935BA0DB935BA0D69
:103390003908083EBB0000303A3DBC003B08BD0088
:1033A0003C08BE000030BE1BFF30BF00C000003034
:1033B0003D04A70003303E04A80000303F04A900EC
:1033C00000304004AA00AB01B73170279831133A9E
:1033D000031DEB29EC29FE2808004101D400DB3055
:1033E000A3000130A400FF30A5000030A600043087
:1033F000A7000030A800A03183209931D7304101C7
:10340000A3000130A4000030A500A6000430A700EE
:103410000030A800A0318320993141015408CB002D
:10342000CC01CB35CC0DCB35CC0DCB35CC0DCB3544
:10343000CC0DCB35CC0D4B08083ECD0000304C3DBB
:10344000CE004D08CF004E08D0000030D01BFF301A
:10345000D100D20004304F04A7001F305004A80050
:1034600000305104A90000305204AA000230D300F9
:103470005308AB00B7317027993141015408CB0094
:10348000CC01CB35CC0DCB35CC0DCB35CC0DCB35E4
:10349000CC0DCB35CC0D4B08083ECD0000304C3D5B
:1034A000CE004D08CF004E08D0000030D01BFF30BA
:1034B000D100D20004304F04A7001E305004A800F1
:1034C00000305104A90000305204AA000230D30099
:1034D0005308AB00B7317027993144304101B70030
:1034E0000030B800DB30CB004B08B9004330BA00E5
:1034F0000030BB005408903104209931A8310220DB
:103500009931FF3041013905CB000F303A05CC002D
:103510004B08CD004C08CE000030CE1BFF30CF0052
:10352000D00000304D064001D300503041014E061E
:103530004001D400B03041014F064001D500AE300B
:10354000410150064001D60056084301AF0040013A
:1035500055084301AE00400154084301AD0040014D
:1035600053084301AC0041014A08CB004B0840011D
:10357000DD0041014A080319BE2ABF2AD82ADB30E0
:10358000A3000130A4000030A500A6000430A7006D
:103590000030A800A0318320993101304001DB00C8
:1035A0000030DC0004304301B6000030B700F52ADB
:1035B0000030AA000030A9000F30A8000030A7009A
:1035C000DB30AB000130AC000430AD000030AE00A9
:1035D000A8314C20993108304001DB000030DC007C
:1035E00040304301B6000030B700D3304101A300A2
:1035F0000130A400FF30A5000030A6000430A70071
:103600000030A800A03183209931CF304101A300C0
:103610000130A4000030A500A6000430A70000304F
:10362000A800A0318320993100304301AB00003065
:10363000AA000030A9000030A8002B084001CE00ED
:1036400043012A084001CD00430129084001CC0074
:10365000430128084001CB004E08D2004D08D1009C
:103660004C08D0004B08CF0000304301A3000030CD
:10367000A2000030A1000030A0000800B131FD21FF
:103680009B3154011F16A931D7219B3100304001D5
:103690000E1901304101EA00031040010E1E03140F
:1036A000003003180130DF004501C601C7010030BA
:1036B0004101A3000130A4000130A500B4319E24D3
:1036C0009B314501D5015518662B672B6A2BC80124
:1036D000C9016E2B0830C8000030C900B2313C224D
:1036E0009B31FF30410123054201DD0000304101E3
:1036F00024054201DE004501480A4201812BDD35E7
:10370000DE0D890B7F2B5D084501C60642015E0870
:103710004501C70601304201DD005D084501D507BE
:1037200009305502031C952B962B632B470841014A
:10373000A400450146084101A300B0313A209B3165
:1037400001304101AA000030AB000130AC00B031C3
:103750005A209B3141012B084201DD005D084501E3
:10376000C40044083F394201DD005D084301E9001F
:1037700040015F08031DBD2BBE2BDA2B94119A115B
:1037800005304201DE000F30DD00F130890BC62B21
:10379000DD0BC62BDE0BC62B031040010E1E0314DF
:1037A000003003180130DE005E080319D82BD92B36
:1037B000DA2BED0194129A125F080319E02BE12B2A
:1037C000F22BB431FF249B310130B43111249B31F1
:1037D0000130B13128219B31B131DF219B314001D2
:1037E000ED01242C181315304201DE004B30DD00B2
:1037F000BE30890BF92BDD0BF92BDE0BF92B00000A
:103800004001181705304201DE000F30DD00F130B5
:10381000890B082CDD0B082CDE0B082CB731B827E0
:103820009B3141016A08031D162C172C1E2CB03148
:10383000BD209B31B13112219B31242CB431FF24A6
:103840009B31B431CE249B3188304101A3002A3012
:10385000A400BF31E4279B31BF3176279B3109306B
:103860004201DE001E30DD00E430890B352CDD0B1B
:10387000352CDE0B352C000000304101A300A400E4
:10388000B1313E219B3141016A080319482C492C72
:10389000742C4501D60115305602031C502C512CB6
:1038A000522C892C03304201DE000830DD007730D5
:1038B000890B582CDD0B582CDE0B582C4501560873
:1038C0004201DD00DE015D084101A30042015E0806
:1038D0004101A400B1313E219B3101304201DD00A4
:1038E0005D084501D6074B2C09304201DE001E3031
:1038F000DD00E430890B7A2CDD0B7A2CDE0B7A2C80
:10390000000001304101A3000030A400B1313E218C
:103910009B314501D70140015F080319912C8C317F
:103920007D2C8E31072EDB30860002308700B830C8
:1039300084000030850006304101B40016001A00F2
:10394000B40B9E2C0030CF000030CE000030CD00F4
:103950000030CC00430162084101C100430161080D
:103960004101C000430160084101BF0043015F08FD
:103970004101BE000030A3000030A4000130A500CA
:10398000B4319E249C314101CB01CB0AD501D40135
:10399000B2313C229C3141012408D1002308D000DF
:1039A0005408031DD42CD52CE72C5108B40034083E
:1039B000CA00CA1ADC2CDE2C0130DF2C0030B40027
:1039C0003408CB004A081F39B4003408D500500829
:1039D000B4005408CC3E86008701340881005408A6
:1039E0000319F32CF42C022D4B08031DF82CF92C91
:1039F000022D5008B4005408023EB83E86008701EC
:103A0000340881000130B4003408D4070430540273
:103A1000031C0B2D0C2DC82C4B080319102D112D38
:103A2000372D0630A3000130A4000130A500B431C9
:103A30009E249C314101D201B2313C229C31410192
:103A40002408C3002308C2004208B4005208033E01
:103A5000B83E86008701340881000130B400340884
:103A6000D20703305202031C362D372D1C2D003097
:103A7000AA000030A9000930A8000030A700B83023
:103A8000AB000030AC000630AD000030AE00A83115
:103A9000E7209C311F30410155060319502D512D4F
:103AA000592D4D084E044F044C04031D582D592D1B
:103AB0005B2D0130FA2D0030AA000030A9000F3034
:103AC000A8000030A700CC30AB000030AC000430C0
:103AD000AD000030AE00A831E7209C314101D30198
:103AE000083055020318752D762D9B2D55080319A6
:103AF0007A2D7B2D942D0130B4000030B50055088F
:103B0000083C890A852DB435B50D890B832D340801
:103B1000FF3EB600FF30353DB700FF303606C60029
:103B200000303706C700962DC601C7014708C500FB
:103B30004608C4009F2DFF30C4000030C500440873
:103B4000B4005308BE3E8600870134088100530844
:103B5000BE3E860087010108B4005308CC3E8600B3
:103B6000870134088105083055020318B82DB92D96
:103B7000BC2DC801C901C32D5508F83EC800FF304F
:103B800003180030C9004808B4003408D5000130DB
:103B9000B4003408D30704305302031CD02DD12DB8
:103BA000702D0030AA000030A9000530A8000030B8
:103BB000A700BE30AB000030AC000430AD000030D8
:103BC000AE00A831E7209C3141014F140030AA001B
:103BD0000030A9000130A8000030A700CC30AB00B5
:103BE0000030AC000430AD000030AE00A831E7205A
:103BF0009C31003008004201CF004F08B5319425B8
:103C00009D31410136084201C100410135084201A0
:103C1000C000003041020830031940020318112E81
:103C2000122E152EFF30A231242A40304101CA0045
:103C30000230CB000830CC000030CD0042014F08EC
:103C4000A93186219D3141014B084201CE0041013D
:103C50004A084201CD0000304E02083003194D02DF
:103C60000318332E342E352E122E440145084201FE
:103C7000A000A101440144084201A200A3012208BE
:103C8000A300A20120082204C20021082304C300CB
:103C9000440147084201A000A10144014608420135
:103CA000A200A3012208A300A20120082204CB0045
:103CB00021082304CC0000304C022C3003194B02A5
:103CC000031C632E642E6B2E4330420643040319FB
:103CD0006A2E6B2E782E4C084101D90042014B0808
:103CE0004101D80042014F08B03194209D31122E7D
:103CF00040304101CA000230CB002C30CC000030F3
:103D0000CD0042014F08A93186219D3141014B0868
:103D10004201CE0041014A084201CD0000304E026E
:103D20002C3003194D020318962E972EA62E4D08FF
:103D30004B024101D80042014E084C3B4101D900E1
:103D400042014F08B03194209D31122E02304401BF
:103D500040060319AC2EAD2EBD2E42014D084B027C
:103D60004101D80042014E084C3B4101D9004201BB
:103D70004F08B03194209D31122EFF304201A00037
:103D80000030A1000030A2000030A300440144082C
:103D90004201A400440145084201A500440146082F
:103DA0004201A600440147084201A7001830A73687
:103DB000A60CA50CA40C890BD72E2408A005250859
:103DC000A1052608A2052708A3050030A800FF309A
:103DD000A9000030AA000030AB00440144084201B1
:103DE000AC00440145084201AD00440146084201CF
:103DF000AE00440147084201AF000830AF36AE0CB8
:103E0000AD0CAC0C890BFE2E2C08A8052D08A905BD
:103E10002E08AA052F08AB050030B0000030B10015
:103E2000FF30B2000030B300440144084201B40046
:103E3000440145084201B500440146084201B6006C
:103E4000440147084201B7000830B435B50DB60D3E
:103E5000B70D890B252F3408B0053508B105360894
:103E6000B2053708B3050030B8000030B9000030A3
:103E7000BA00FF30BB00440144084201BC004401C9
:103E800045084201BD00440146084201BE0044010C
:103E900047084201BF001830BC35BD0DBE0DBF0D37
:103EA000890B4C2F3C08B8053D08B9053E08BA05FA
:103EB0003F08BB053808B0043908B1043A08B20419
:103EC0003B08B3043008A8043108A9043208AA0446
:103ED0003308AB0420082804C50021082904C600C3
:103EE00022082A04C70023082B04C80043012F0816
:103EF00042014802031D8C2F43012E084201470254
:103F0000031D8C2F43012D0842014602031D8C2FF7
:103F100043012C0842014502031C8F2F902FA92F2B
:103F2000480840015602031DA52F420147084001E1
:103F30005502031DA52F4201460840015402031DEE
:103F4000A52F42014508400153020318A82FA92FAD
:103F5000B92F42014D084B024101D80042014E08E1
:103F60004C3B4101D90042014F08B03194209D31B2
:103F7000122E41015B088600870142014508C03FBF
:103F80004608C13F4708C23F4808C33F00304101CF
:103F9000AA000030A9000930A8000030A700623054
:103FA000AB000230AC000630AD000030AE00A831EE
:103FB0004C209D3162304201A00020084101A30045
:103FC0000630A4000030A5005C30B631E8269D31F3
:103FD0004101230824040319EE2FF02FAD316D2D7C
:103FE00042014D084B024101D80042014E084C3BB2
:103FF0004101D90042014F08B03194209D31122E69
:1040000008000130450190008F0191010F308D00B3
:104010008C014E019010FF3045018E000F308D0055
:1040200008004101C10045284108B700B801B73573
:10403000B80DB735B80DB735B80DB735B80DB735BC
:10404000B80D3708083EB9000030383DBA003908CD
:10405000BB003A08BC000030BC1BFF30BD00BE00F6
:1040600000303B04B10001303C04B20000303D049C
:10407000B30000303E04B4001030BF003F08B5006C
:10408000B231E922A031013082284108B700B801DD
:10409000B735B80DB735B80DB735B80DB735B80D5C
:1040A000B735B80D3708083EB9000030383DBA00C2
:1040B0003908BB003A08BC000030BC1BFF30BD0013
:1040C000BE0000303B04A70003303C04A8000030D1
:1040D0003D04A90000303E04AA00AB01B7317027AF
:1040E000A0314101BF00C0014008003A03197928FE
:1040F00081283F08003A031943281C3A0319142861
:1041000081280030080041012408B0002308AF00D6
:1041100027082804031D8D288E288F284D292F0855
:104120008600300887002508810027082F07A9008E
:104130002808303DAA002908FF3EAB00FF302A3D89
:10414000AC002B0886002C08870025088100003071
:1041500028020330031927020318AF28B028B1281A
:104160004D292F08013EA9000030303DAA00290842
:1041700086002A088700250881002F08023EA90032
:104180000030303DAA00290886002A08870025084B
:10419000810027082F07A9002808303DAA00290818
:1041A000FE3EAB00FF302A3DAC002B0886002C08F9
:1041B00087002508810027082F07A9002808303D1F
:1041C000AA002908FD3EAB00FF302A3DAC002B08B9
:1041D00086002C088700250881000030280207305F
:1041E000031927020318F528F628F7284D292F0868
:1041F000033EA9000030303DAA00290886002A08A5
:1042000087002508810027082F07A9002808303DCE
:10421000AA002908FC3EAB00FF302A3DAC002B0869
:1042200086002C088700250881000030280209300C
:104230000319270203181D291E291F294D292F099B
:10424000A9003009AA00A90A0319AA0A03302905FE
:10425000AD0000302A05AE002D08AF072E08B03D96
:104260002D08A7022E08A83BFC30A705FF30A805A3
:1042700047292F0886003008870025088100013073
:10428000A7020030A83B0130AF070030B03D27083F
:104290002804031D4C294D293929080040015208E2
:1042A000031D5D295108031D5D295008031D5D296B
:1042B000F0304F0203185D295E2967290030400164
:1042C000D2000030D1000030D000F030CF004001EB
:1042D0004E08031D77294D08031D77294C08031D3F
:1042E000772978304B02031C762977298A294001E7
:1042F00052084E02031D862951084D02031D8629CE
:1043000050084C02031D86294F084B02031C8929C3
:104310008A29B72940014F084201A00040015008F6
:104320004201A100400151084201A200400152088F
:104330004201A3000330A336A20CA10CA00C890BF0
:104340009B290230A035A10DA20DA30D890BA22936
:1043500023084001CE00420122084001CD00420165
:1043600021084001CC00420120084001CB0043015C
:104370002B08031DC7292A08031DC7292908031D67
:10438000C729D2302802031CC629C729E1294001C8
:10439000520843012B02031DDD294001510843014E
:1043A0002A02031DDD294001500843012902031D93
:1043B000DD2940014F0843012802031CE029E129BF
:1043C000222A40014F084201A0004001500842014A
:1043D000A100400151084201A200400152084201DF
:1043E000A3000330A336A20CA10CA00C890BF22968
:1043F00023084101B000420122084101AF004201FF
:1044000021084101AE00420120084101AD00003009
:10441000B4000030B3000030B2000730B100B53155
:10442000C725A131410130084301AB0041012F08EC
:104430004301AA0041012E084301A90041012D08B2
:104440004301A8004201440808004101D6004A087F
:104450004B0403192C2A2D2A3F2A4908CC004C086A
:10446000B5004B08B7004A08B6005608A331082328
:10447000A231003A031D3D2A3E2A3F2A072B410163
:104480005608CC00CD01CC35CD0DCC35CD0DCC357D
:10449000CD0DCC35CD0DCC35CD0D4C08083ECE0024
:1044A00000304D3DCF004E08D0004F08D100003005
:1044B000D11BFF30D200D30000305004B1000130D6
:1044C0005104B20000305204B30000305304B40071
:1044D0002030D4005408B500B231E922A2314101A4
:1044E0005608CC00CD01CC35CD0DCC35CD0DCC351D
:1044F000CD0DCC35CD0DCC35CD0D4C08083ECE00C4
:1045000000304D3DCF004E08D0004F08D1000030A4
:10451000D11BFF30D200D30000305004A70002307E
:104520005104A80000305204A90000305304AA002E
:10453000AB01B7317027A2314101D4005408D50036
:10454000551EA32AA42AD42A5608CC00CD01CC3566
:10455000CD0DCC35CD0DCC35CD0DCC35CD0DCC35EF
:10456000CD0D4C08083ECE0000304D3DCF004E082A
:10457000D0004F08D1000030D11BFF30D200D30053
:1045800004305004A70002305104A8000030520447
:10459000A90000305304AA001830D4005408AB001E
:1045A000B7317027A231072BD51DD72AD82A6F2AF9
:1045B0005608CC00CD01CC35CD0DCC35CD0DCC354C
:1045C000CD0DCC35CD0DCC35CD0D4C08083ECE00F3
:1045D00000304D3DCF004E08D0004F08D1000030D4
:1045E000D11BFF30D200D30004305004A7000230AA
:1045F0005104A80000305204A90000305304AA005E
:104600000830D4005408AB00B7317027A23108003D
:104610004101C80036083704031D0F2B102B122B45
:104620000130F32B4808B800B901B835B90DB835D9
:10463000B90DB835B90DB835B90DB835B90D38085B
:10464000083EBA000030393DBB003A08BC003B08C8
:10465000BD000030BD1BFF30BE00BF0000303C0479
:10466000A70020303D04A80000303E04A90000301F
:104670003F04AA00AB314F23A33141012808C500F4
:104680002708C40037084502031D482B360844029A
:1046900003184B2B4C2B4E2B0030F32B4808B80043
:1046A000B901B835B90DB835B90DB835B90DB8354A
:1046B000B90DB835B90D3808083EBA000030393D9B
:1046C000BB003A08BC003B08BD000030BD1BFF30FA
:1046D000BE00BF0000303C04A70024303D04A80009
:1046E00000303E04A90000303F04AA00AB314F2344
:1046F000A33141012808C7002708C6004608B800B2
:104700004708B900BA01BB010830B835B90DBA0D78
:10471000BB0D890B852B4808BC00BD01BC35BD0D08
:10472000BC35BD0DBC35BD0DBC35BD0DBC35BD0D9D
:104730003C08103EBE0000303D3DBF003E08C000BA
:104740003F08C1000030C11BFF30C200C300380861
:104750004004A70039084104A8003A084204A9000F
:104760003B084304AA003508AB000230AC00370810
:10477000AE003608AD00A831E720A331410136086C
:10478000C6073708C73D4808B800B901B835B90DA4
:10479000B835B90DB835B90DB835B90DB835B90D4D
:1047A0003808083EBA000030393DBB003A08BC006A
:1047B0003B08BD000030BD1BFF30BE00BF00003015
:1047C0003C04A70024303D04A80000303E04A900AA
:1047D00000303F04AA004708AC004608AB00A831EF
:1047E0009920A331013008004001B9003908A9001F
:1047F000AA01A935AA0DA935AA0DA935AA0DA93571
:10480000AA0DA935AA0D2908083EAB0000302A3DA3
:10481000AC002B08AD002C08AE000030AE1BFF3002
:10482000AF00B00000302D04F40026302E04F50057
:1048300000302F04F60000303004F700AA31EB22DC
:10484000A33175084001B6007408B5002808360287
:10485000031D2C2C2708350203182F2C302C342C48
:104860003608A8003508A70027082804031D392C9E
:104870003A2C3D2CA501A601EC2C3908A900AA016F
:10488000A935AA0DA935AA0DA935AA0DA935AA0DD4
:10489000A935AA0D2908083EAB0000302A3DAC001E
:1048A0002B08AD002C08AE000030AE1BFF30AF006F
:1048B000B00000302D04F40028302E04F500003044
:1048C0002F04F60000303004F700AA31EB22A331A8
:1048D00075084001B8007408B700250826040319BC
:1048E000722C732CB32C3708A9003808AA00AB012E
:1048F000AC010830A935AA0DAB0DAC0D890B7A2C93
:104900003908AD00AE01AD35AE0DAD35AE0DAD35EE
:10491000AE0DAD35AE0DAD35AE0D2D08183EAF0068
:1049200000302E3DB0002F08B1003008B20000303A
:10493000B21BFF30B300B40029083104F4002A0888
:104940003204F5002B083304F6002C083404F70079
:104950002608F9002508F8002808FB002708FA00B7
:10496000B7312B27A33140012708B7072808B83DE6
:104970003908A900AA01A935AA0DA935AA0DA9359A
:10498000AA0DA935AA0DA935AA0D2908083EAB0024
:1049900000302A3DAC002B08AD002C08AE000030E2
:1049A000AE1BFF30AF00B00000302D04F400283003
:1049B0002E04F50000302F04F60000303004F7001C
:1049C0003808F9003708F800B631A526A3314001B0
:1049D0002808A6002708A50008004101C9004908C9
:1049E000B900BA01B935BA0DB935BA0DB935BA0D34
:1049F000B935BA0DB935BA0D3908083EBB000030DB
:104A00003A3DBC003B08BD003C08BE000030BE1B68
:104A1000FF30BF00C00000303D04A70026303E0438
:104A2000A80000303F04A90000304004AA00AB31C8
:104A30004F23A43141012808C6002708C5003808C3
:104A40004602031D252D370845020318282D292D60
:104A50002D2D4608B8004508B70037083804031D57
:104A6000322D332D362DB501B601E52D4908B9009B
:104A7000BA01B935BA0DB935BA0DB935BA0DB9356E
:104A8000BA0DB935BA0D3908083EBB0000303A3DC1
:104A9000BC003B08BD003C08BE000030BE1BFF3020
:104AA000BF00C00000303D04A70028303E04A8002D
:104AB00000303F04A90000304004AA00AB314F236E
:104AC000A43141012808C8002708C700350836046A
:104AD00003196B2D6C2DAC2D4708B9004808BA009E
:104AE000BB01BC010830B935BA0DBB0DBC0D890B3B
:104AF000732D4908BD00BE01BD35BE0DBD35BE0DCF
:104B0000BD35BE0DBD35BE0DBD35BE0D3D08183ED3
:104B1000BF0000303E3DC0003F08C1004008C20059
:104B20000030C21BFF30C300C40039084104A70095
:104B30003A084204A8003B084304A9003C08440486
:104B4000AA003608AC003508AB003808AE003708BC
:104B5000AD00A8314C20A43141013708C7073808FF
:104B6000C83D4908B900BA01B935BA0DB935BA0D11
:104B7000B935BA0DB935BA0DB935BA0D3908083E8F
:104B8000BB0000303A3DBC003B08BD003C08BE0005
:104B90000030BE1BFF30BF00C00000303D04A70046
:104BA00028303E04A80000303F04A9000030400433
:104BB000AA004808AC004708AB00A8319920A431EE
:104BC00041013808B6003708B50008004101A101CD
:104BD00040015F080319ED2DEE2D022EA230BA0020
:104BE0000030BB000130BC000030BD000130A931F5
:104BF0003521A53140013A033B040319002E012E53
:104C00002F2EF12E42011D1D062E072E122E4101C0
:104C10006A0803190C2E0D2E122EF2010C30AB3146
:104C2000C023A53142019D1C162E172E282E1D12C1
:104C30001D1641016A0803191E2E1F2E252EF20192
:104C4000F20A0C30AB31C023A5314101A101A10A08
:104C5000420119084001C80048084101A200410171
:104C600021080319342E352E392EB1318A21A53170
:104C7000F12E6A08031D3D2E3E2EDF2E2208B43190
:104C80003F24A531F12E6108C8000230C836890BD7
:104C9000462E48080F39C90049084101A000B82E26
:104CA0003F30410122054001C80061080339C900B5
:104CB0000530C935FF3E031D592E49354804CA0049
:104CC0004A084301E8004001E1014301CA01C9016A
:104CD000C90ACF2E3F30410122054001C8006108BA
:104CE0000339C9000530C935FF3E031D732E493510
:104CF0004804B4313F24A531CF2E3F304101220575
:104D00004001C80061080339C9000530C935FF3EBC
:104D1000031D862E49354804CA004A08E000AA301F
:104D20006006031D942E952E982E4301CA01CF2EA6
:104D30004301CA01CA0A0130F0000030F100B0316D
:104D4000FC20A531CF2E3F30410122054001C80093
:104D500061080339C9000530C935FF3E031DAC2E7B
:104D600049354804CA004A084301E700C801CF2E6C
:104D700020084001C800C9014908003A0319C12EA2
:104D8000CF2E4808003A0319502E013A03196A2E13
:104D9000033A03197D2E013A0319A32ECF2E4001A9
:104DA000E101F12E410122084001C8004808E1005C
:104DB000F12E41012208B4313F24A531CF2E220823
:104DC000C0394001C800C9014908003A0319E92E59
:104DD000D92E4808803A0319432E403A0319D22E9F
:104DE000D92E08007E1CF62EA531E62D4101DC01EE
:104DF00040015F080319FD2EFE2E132FDD30410107
:104E0000CA000030CB000130CC000030CD000130B2
:104E1000A9318621A63141014A034B040319112F00
:104E2000122F3F2FFF2F42011D1D172F182F232F49
:104E300041016A0803191D2F1E2F232FA5010C30D5
:104E4000AC314D24A63142019D1C272F282F392F2C
:104E50001D121D1641016A0803192F2F302F362FFE
:104E6000A501A50A0C30AC314D24A6314101DC016D
:104E7000DC0A420119084101D8005808DD005C082D
:104E80000319432F442F482FB131C221A631FF2FE0
:104E90006A08031D4C2F4D2FEE2F5D08B531FB2501
:104EA000A631FF2F400161084101D8000230D836F9
:104EB000890B572F58080F39D9005908DB00CA2F22
:104EC0003F305D05D8004001610803394101D90038
:104ED0000530D935FF3E031D692F59355804DA00D6
:104EE0005A084301E8004001E1014301CA01C90138
:104EF000C90AE02F3F305D05D80040016108033941
:104F00004101D9000530D935FF3E031D832F5935A6
:104F10005804B531FB25A631E02F3F305D05D800A0
:104F20004001610803394101D9000530D935FF3E00
:104F3000031D962F59355804DA005A084001E00045
:104F4000AA306006031DA52FA62FA92F4301CA0171
:104F5000E02F4301CA01CA0A01304101A300003019
:104F6000A400B1313E21A631E02F3F305D05D800CD
:104F70004001610803394101D9000530D935FF3EB0
:104F8000031DBE2F59355804DA005A084301E700C3
:104F9000C801E02F5B08D800D9015908003A03196D
:104FA000D22FE02F5808003A0319602F013A031955
:104FB0007A2F033A03198D2F013A0319B52FE02FE9
:104FC0004001E101FF2F5D08D80058084001E100D1
:104FD000FF2F5D08B531FB25A631E02F5D08C039F4
:104FE000D800D9015908003A0319F72FE92F5808BA
:104FF000803A0319522F403A0319E32FE92F080092
:105000000800080043014E084101B00043014D086B
:105010004101AF0043014C084101AE0043014B0880
:105020004101AD004C30B4009530B3007F30B20088
:105030002D30B100B531C725A831013041012D0710
:105040004301CB00003041012E3D4301CC00003034
:1050500041012F3D4301CD0000304101303D43016E
:10506000CE004B084101BB0043014C084101BC008C
:1050700043014D084101BD0043014E084101BE00FE
:105080001130BE36BD0CBC0CBB0C890B41283C0852
:10509000BA003B08B90008004001991241012708F5
:1050A000AF002808B0002908B1002A08B20010306B
:1050B000B236B10CB00CAF0C890B58282F08B300D6
:1050C00033084001E80041012708AF002808B0007C
:1050D0002908B1002A08B2000830B236B10CB00C71
:1050E000AF0C890B6D282F08B30033084001E9008D
:1050F00041012708AF002F084001EA006830410154
:10510000A3000030A4000330A5000030A600B33196
:105110003923A83141012C08A4002B08A3002E0834
:10512000A6002D08A500B3313923A83140019916F6
:1051300008004001991241012708AD002808AE007F
:105140002908AF002A08B0001030B036AF0CAE0C02
:10515000AD0C890BA5282D08B10031084001E800ED
:1051600041012708AD002808AE002908AF002A0831
:10517000B0000830B036AF0CAE0CAD0C890BBA28BD
:105180002D08B10031084001E90041012708043829
:10519000AD002D084001EA0041012C08AD002D08AA
:1051A0004001EB0041012B08AD002D084001EC004F
:1051B00068304101A3000030A4000530A500003094
:1051C000A600B3313923A8314001991608004001E7
:1051D000991241012708AF002808B0002908B10042
:1051E0002A08B2001030B236B10CB00CAF0C890BEB
:1051F000F3282F08B30033084001E80041012708D5
:10520000AF002808B0002908B1002A08B200083011
:10521000B236B10CB00CAF0C890B08292F08B300C3
:1052200033084001E900410127080438AF002F0886
:105230004001EA0068304101A3000030A4000330BF
:10524000A5000030A600B3313923A83141012C0854
:10525000A4002B08A3002E08A6002D08A500B2313B
:105260005D22A8314001991608004001C7003B08A3
:10527000A6003A08A5003D08A8003C08A70047087A
:10528000A331F423A93140012608BD002508BC0044
:105290003C083D04031D4D294E295129BA01BB018B
:1052A00085294708BE00BF01BE35BF0DBE35BF0D05
:1052B000BE35BF0DBE35BF0DBE35BF0D3E08083E25
:1052C000C00000303F3DC1004008C2004108C3009B
:1052D0000030C31BFF30C400C50004304204F4009A
:1052E00001304304F50000304404F600003045046A
:1052F000F7004030C6004608F800B6316726A931ED
:1053000040013D08BB003C08BA0008004101D7003D
:105310004B08B6004A08B5004D08B8004C08B70065
:105320005708A431ED24A93141013608CD003508D4
:10533000CC004C084D04031D9E299F29A229CA01B7
:10534000CB01D6295708CE00CF01CE35CF0DCE35B3
:10535000CF0DCE35CF0DCE35CF0DCE35CF0D4E087E
:10536000083ED00000304F3DD1005008D200510817
:10537000D3000030D31BFF30D400D50004305204DA
:10538000A70001305304A80000305404A9000030E5
:105390005504AA004030D6005608AB00B73170273C
:1053A000A93141014D08CB004C08CA000800163055
:1053B0004101AA000130AB000130AC00B0315A20ED
:1053C000A93141012B08AE002A08AD000A30AF0018
:1053D0000030B000B2311C22A93141012E08440135
:1053E000ED0041012D084401EC0019304101AA00F3
:1053F0000130AB000130AC00B0315A20A93141017D
:105400002A08B9002B08BA00BB01BC013C08B00057
:105410003B08AF003A08AE003908AD000030B400D8
:105420000030B3000030B2006430B100B531C725A0
:10543000A931410130084301ED0041012F0843012A
:10544000EC0041012E084301EB0041012D0843010E
:10545000EA00B3316223A931080000304101C500E0
:105460000030C4000030C3000030C2003C083B04E0
:105470003A04390403193D2A3E2A7F2AC601C60A86
:105480004C2A0130B935BA0DBB0DBC0D890B422A2F
:105490000130C1004108C607BC1F4F2A502A412ACB
:1054A0000130C235C30DC40DC50D890B512A3C080E
:1054B0004002031D652A3B083F02031D652A3A0886
:1054C0003E02031D652A39083D02031C682A692A29
:1054D000722A3908BD023A08BE3B3B08BF3B3C0874
:1054E000C03B42140130BC36BB0CBA0CB90C890B62
:1054F000732A0130C602031D7E2A7F2A502A4508DE
:10550000BC004408BB004308BA004208B9000800C8
:1055100001304001D7070030D83D0030D93D003080
:10552000DA3D430149080319962A972ACE2A4101F8
:105530006A0803199C2A9D2ACB2A4301680801396D
:10554000F7007708F2000030AB31C023AA313230C7
:10555000F0000030F100B031FC20AA3102304001EF
:1055600057074301E30000304001583D4301E40088
:1055700000304001593D4301E500003040015A3DF3
:105580004301E60002304902031CC72AC82ACB2A7D
:10559000B0314720AA314301C901EA2A6608400117
:1055A0005A06031DE32A4301650840015906031DFD
:1055B000E32A4301640840015806031DE32A43011E
:1055C000630840015706031DE62AE72AEA2AB0319C
:1055D000A820AA3108004001A201A20A9912740869
:1055E000F8007508F9007608FA007708FB0010301B
:1055F000FB36FA0CF90CF80C890BF82A7808FC0039
:105600007C08E8007408F8007508F9007608FA00CC
:105610007708FB000830FB36FA0CF90CF80C890B04
:105620000B2B7808FC007C08E9007408F800780867
:10563000EA006830F0000030F1000530F200003080
:10564000F300B231C322AA31400199162408A10007
:105650002308A0006C08F800F9016B08FA00FB01B0
:105660007A08FB00FA0178087A04A30079087B0421
:10567000A400220803193D2B3E2B402BA201EE2A49
:1056800021082406031D462B20082306031D492B51
:105690004A2BEE2A2408F5002308F40008004101F3
:1056A000B201B20A4001991241012708AB00280853
:1056B000AC002908AD002A08AE001030AE36AD0CA3
:1056C000AC0CAB0C890B5E2B2B08AF002F084001F4
:1056D000E80041012708AB002808AC002908AD000C
:1056E0002A08AE000830AE36AD0CAC0CAB0C890B02
:1056F000732B2B08AF002F084001E9004101270858
:10570000AB002B084001EA0068304101A3000030E3
:10571000A4000530A5000030A600B3313923AB3119
:105720004001991641013408B1003308B00040012E
:105730006C084101AB00AC0140016B084101AD00B8
:10574000AE012D08AE00AD012B082D04B3002C08CE
:105750002E04B40032080319AE2BAF2BB12BB201CB
:10576000522B31083406031DB72B30083306031DB6
:10577000BA2BBB2B522B3408A8003308A700080013
:10578000F60040015F080319C62BC72B122CBE3050
:1057900041016B02031CCD2BCE2BCF2B4C2C6A0866
:1057A0000319D32BD42BDF2B7603031DD82BD92B36
:1057B000EC2B803072020318DE2BDF2BEC2B7208EF
:1057C000F3006B0886000230870073088100013007
:1057D000F3007308EB074C2C7208F3000630F33625
:1057E000890BEF2B7608F4000130F435FF3E031DE2
:1057F000F52B74357304C038F5006B088600023051
:105800008700750881000130F3007308EB07720808
:105810003F398038F3006B08860002308700730838
:105820008100E72B5E080319162C172C1D2C6D0820
:10583000031D1B2C1C2C1D2C4C2C41016A08031928
:10584000222C232C2E2C7603031D272C282C332CC2
:105850008030720203182D2C2E2C332C7208B33199
:105860008C23AB314C2C7208F3000630F336890BD5
:10587000362C7608F4000130F435FF3E031D3C2C35
:1058800074357304C038B3318C23AB3172083F399F
:105890008038B3318C23AB3108004101A9004001AD
:1058A0005F080319542C552CA02CBE3041016B020B
:1058B000031C5B2C5C2C5D2CDB2C6A080319612C0F
:1058C000622C6D2C2903031D662C672C7A2C8030EA
:1058D000250203186C2C6D2C7A2C2508A6006B0869
:1058E000860002308700260881000130A6002608C5
:1058F000EB07DB2C2508A6000630A636890B7D2C8D
:105900002908A7000130A735FF3E031D832C27354A
:105910002604C038A8006B088600023087002808DB
:1059200081000130A6002608EB0725083F398038A2
:10593000A6006B0886000230870026088100752CBF
:105940005E080319A42CA52CAB2C6D08031DA92CF3
:10595000AA2CAB2CDB2C41016A080319B02CB12C0A
:10596000BC2C2903031DB52CB62CC12C803025027C
:105970000318BB2CBC2CC12C2508B4316E24AC31CF
:10598000DB2C2508A6000630A636890BC42C290876
:10599000A7000130A735FF3E031DCA2C273526047A
:1059A000C038B4316E24AC31410125083F3980380C
:1059B000B4316E24AC310800FC3041019E053F300B
:1059C000B1315721AC3100304101D1000030D0005D
:1059D0000030CF000030CE00D201D3010D30890B52
:1059E000EF2C0000BF317927AC31BF31A027AC319B
:1059F000003A0319FC2CFD2CF52CBF318827AC3163
:105A000041012308CE072408CF3D0030D03DD13DD1
:105A10000130D2070030D33D5308803AC9008030AE
:105A20004902031D152D0A305202031C182D192D91
:105A3000EE2C033041019E040030BC000030BB005E
:105A40000030BA000A30B90043016D084101B000CE
:105A500043016C084101AF0043016B084101AE00F6
:105A600043016A084101AD000030B4000030B300CA
:105A70000330B200FF30B100B531C725AC31410170
:105A80003008C0002F08BF002E08BE002D08BD0042
:105A9000AA312D22AC3141013C08CD003B08CC009D
:105AA0003A08CB003908CA005108BC005008BB00B6
:105AB0004F08BA004E08B9004D08C0004C08BF009E
:105AC0004B08BE004A08BD00AA312D22AC3141016D
:105AD0003A08C8003908C700080040015D080319EA
:105AE000722D732D832DDB304101A3000130A40002
:105AF0005030A5000230A6000430A7000030A800F6
:105B0000B331E423AD31C0304101D8000030D900B9
:105B100042014F08B0319420AD3141015808420193
:105B2000CD07410159084201CE3D40304101CA0034
:105B30000230CB000430CC000030CD0042014F08D1
:105B4000A9318621AD3141014A084201CD07410109
:105B50004B084201CE3D633044014006031DB12D88
:105B6000B22DC42D82304106031DB72DB82DC42D92
:105B700053304206031DBD2DBE2DC42D6330430698
:105B80000319C32DC42DD52D42014D084B024101EF
:105B9000D80042014E084C3B4101D90042014F0858
:105BA000B0319420AD319E31122E4201C401FF303C
:105BB00040015B054201A000003040015C0542014C
:105BC000A100033020062104031DE72DE92D8731B4
:105BD000BC2F00304301AB000030AA000030A90008
:105BE0000030A8002B084001CE0043012A084001E4
:105BF000CD00430129084001CC00430128084001A1
:105C0000CB00E72D3C30B1315721AE31003041019E
:105C1000D8000030D7000030D6000030D500D901C0
:105C2000DA010D30890B122E0000BF317927AE3119
:105C3000B0310020AE31BF31A027AE31003A031998
:105C4000222E232E1B2EBF318827AE31410123087F
:105C5000D5072408D63D0030D73DD83D0130D907BF
:105C60000030DA3D5A08803AC90080304902031DED
:105C70003B2E0A305902031C3E2E3F2E112E4401AA
:105C80006C084101C90044016D084101CA00CB0103
:105C9000CC015508CD005608CE005708CF00580853
:105CA000D0000130CD35CE0DCF0DD00D890B522E49
:105CB0004908CD024A08CE3B4B08CF3B4C08D03BAD
:105CC0005008B0004F08AF004E08AE004D08AD00C0
:105CD00043016D084101B40043016C084101B30068
:105CE00043016B084101B20043016A084101B10060
:105CF000B531C725AE3141013008D4002F08D3009B
:105D00002E08D2002D08D1000030BC003930BB0075
:105D10008130BA009C30B9005408C0005308BF005D
:105D20005208BE005108BD00AA312D22AE315A30B2
:105D30004101C90039084902C7003A090318890A14
:105D4000C80008004101C2000F2F4208B800B90185
:105D5000B835B90DB835B90DB835B90DB835B90D77
:105D6000B835B90D3808083EBA000030393DBB00DF
:105D70003A08BC003B08BD000030BD1BFF30BE0030
:105D8000BF0000303C04B10001303D04B2000030DF
:105D90003E04B30000303F04B4000230C0004008AD
:105DA000B500B231E922AE314E2F37080319D92E92
:105DB000DA2E0D2F4208B800B901B835B90DB83543
:105DC000B90DB835B90DB835B90DB835B90D3808B4
:105DD000083EBA000030393DBB003A08BC003B0821
:105DE000BD000030BD1BFF30BE00BF0000303C04D2
:105DF000A7000C303D04A80000303E04A90000308C
:105E00003F04AA003708AB000030AC000430AD00FE
:105E10000030AE00A8314C20AE3101304F2F420887
:105E2000B800B901B835B90DB835B90DB835B90DE7
:105E3000B835B90DB835B90D3808083EBA0000308C
:105E4000393DBB003A08BC003B08BD000030BD1B1B
:105E5000FF30BE00BF0000303C04A70003303D040B
:105E6000A80000303E04A90000303F04AA00AB01A6
:105E7000B7317027AE314101C000C1014108003A7D
:105E80000319432F4E2F4008133A0319A52E073A42
:105E900003194E2F033A0319D52E4E2F0030080058
:105EA000F80154011D1D552F562F612F41016A081D
:105EB00003195B2F5C2F612FF2010B30AB31C02334
:105EC000AF3154019D1C652F662F762F1D121D16B4
:105ED00041016A0803196D2F6E2F742FF201F20A27
:105EE0000B30AB31C023AF31F801F80A5401190867
:105EF000F7007708FA00780803197F2F802F842F86
:105F0000B1318A21AF31FF2F41016A08031D892F6A
:105F10008A2F932F7A08F7007708F2000130AB310F
:105F2000C023AF31FF2F43014A03031D982F992F40
:105F3000D02FAA307A06031D9E2F9F2FD02F3F30DF
:105F40006902031CA42FA52FAD2FE43000320032CC
:105F5000890BA62F00320032BD2F6908F7007708A1
:105F6000F9007908031DB52FB62FB72FBD2F1830B4
:105F7000890BB82F0130F902B12F40016008B4310C
:105F80003F24AF310230F70077084301CA007A0896
:105F9000F7007708F2000130AB31C023AF31FF2F9B
:105FA00002304A06031DD52FD62FF72F7A0840015D
:105FB0006006031DDC2FDD2FE62F7A08F700770837
:105FC000F2000230AB31C023AF31EE2F7A08F70078
:105FD0007708F2000A30AB31C023AF314301CA0168
:105FE0000030F000F100B031FC20AF31FF2F7A0813
:105FF000F7007708F2000130AB31C023AF31080061
:10600000E43000320032890B0128003200320800EF
:10601000FF34FF34FF340034FF34FF34FF34FF34E7
:10602000FF3401343F3443016E086F04031919280B
:106030001A281F286F088A006E080A00B03108006D
:106040004F01960102309700453098003B3099008F
:1060500001309A0006309B0008004101A40024088A
:10606000A300A30DA30D1D082306033923069D00DD
:106070001D14080041012308FF3E4301CB00FF30FF
:106080004101243D4301CC00CD01CE0108008B131A
:106090000B130530F1000F30F000F130890B4E2862
:1060A000F00B4E28F10B4E2800007E019B01A10150
:1060B0000100080041012A08A3002B08A4002C08B5
:1060C000A500B4319E24B031B2313C22B03141013F
:1060D0002408AB002308AA0008008B130B1305301B
:1060E0004101A4000F30A300F130890B7528A30BE8
:1060F0007528A40B75287E019B01A10101000800F1
:1061000001304301B635B70D890B822800303702C4
:10611000413003193602031C8E288F289328403003
:10612000B6000030B70008004101DA000030CA00B4
:106130000030CB005908CD005808CC005A08A931CE
:106140008621B03141014B08D9004A08D800080027
:1061500041016A08031DAD28AE28B6280130F000C1
:106160000030F100B031FC20B031BC280030F0002C
:10617000F100B031FC20B031080010307D01BB00CF
:1061800003307E019B0002307C01A500A601A7011F
:10619000A801A9010230AA00AB01AC01AD01803019
:1061A000A400080048304B019F00FF309D009C0177
:1061B0004E018C12961601304101A3002830A40034
:1061C000BF31E427B03180304B019E00080041010F
:1061D0006A08031DEC28ED28F5280130A3000030E3
:1061E000A400B1313E21B031FB280030A300A4004F
:1061F000B1313E21B03108007108F3007008F2009F
:10620000F336F20CF336F20C720846019500700872
:106210000339F2000530F235FF3E031D0B297235BC
:10622000940008000A307D01BD0004307E01A10009
:1062300082307C01AF000230B000B101B201B30185
:106240000230B400B501B601B7018030AE000800DD
:106250004101A300230803192E292F293A297E0181
:10626000C312400193127E01C41638134001121369
:106270007E013917400118179916080041012408BA
:10628000A6002308A500A636A50CA636A50C250851
:1062900046019500410123080339A5000530A535C5
:1062A000FF3E031D4F29253546019400080041019A
:1062B000A5001D0C890C3F392506031960296129A9
:1062C0006A291D103B30B0312D20B1310D30890BC2
:1062D0006729000041012508B0312D20B1310800A7
