:100800008431542CAE3401347E1484314E01961E52
:100810000A2C0B2C122C8C1E0E2C0F2C122CB131EE
:10082000AB2184310B1F152C162C522C4E01991F15
:100830001A2C1B2C252C8F1F1E2C1F2C252C430102
:1008400043088A0042080A0084314E01191F292CEE
:100850002A2C342C0F1F2D2C2E2C342C4301410814
:100860008A0040080A0084314E01991E382C392C28
:10087000432C8F1E3C2C3D2C432C43013F088A0007
:100880003E080A0084314E01191E472C482C522C78
:100890000F1E4B2C4C2C522C43013D088A003C0867
:1008A0000A0084317E10090040018431572C013048
:1008B0008400883085006B3086000030870004306B
:1008C000BF31AF27843137308400B0308500DC3051
:1008D0008600013087000B30BF31AF278431B5303F
:1008E0008400BF3085005C3086000230870006300F
:1008F000BF31AF2784314930840000308500223079
:10090000BF31A9278431A0308400013085003C30FC
:10091000BF31A927843120308400023085003C306B
:10092000BF31A9278431A0308400023085002030F7
:10093000BF31A92784317E104001AA31FC2A430827
:1009400040015806031DB42C4501420840015706DA
:10095000031DB42C4501410840015606031DB42C6B
:100960004501400840015506031DB72CB82CEE2C5C
:1009700045015608031DBD2CBE2CEE2C4001580825
:100980004101C600400157084101C5004001560819
:100990004101C400400155084101C300C701C70A15
:1009A00000309B314C238431EE2C4501CD01CD0A22
:1009B000122D0230400155074501C00000304001B2
:1009C000563D4501C10000304001573D4501C20080
:1009D00000304001583D4501C300122D4001580828
:1009E0004201DC00400157084201DB00400156088B
:1009F0004201DA00400155084201D900003091312E
:100A0000682184314201EB00EC016C08003A0319C3
:100A10000A2D122D6B08013A0319D52C033A03193C
:100A2000D92C122D45015C080319172D182D212DE5
:100A3000DC0100304101A300A400B131DB2184318D
:100A40002B2DDC01DC0A14304101A3000030A4008E
:100A5000B131DB21843106304201EC001330EB0070
:100A6000AD30890B312DEB0B312DEC0B312D0032DC
:100A700001304201EB006B084501D60708305602F1
:100A8000031C432D442D4E2DD60101304001D507C6
:100A90000030D63D0030D73D0030D83D00308831A1
:100AA0000520843145014D080319572D582D9F2CE1
:100AB0008731E9278431642D18304101A3002630A5
:100AC000A400BF31EE2784317E304101A3002B30DA
:100AD000A400B031002084318B170B174001DD01D9
:100AE000DD0A4501DD01DE0140015F080319792DB2
:100AF0007A2D762F4501DF010030D1000030D00083
:100B00000030CF000030CE000030D5000030D400DF
:100B10000030D3000030D20045015508540453047E
:100B200052040319942D952DBD2D550840015802EE
:100B3000031DAA2D4501540840015702031DAA2D8B
:100B40004501530840015602031DAA2D45015208D4
:100B500040015502031CAD2DAE2DBD2D00304501C9
:100B6000D5000030D4000030D3000030D200013076
:100B7000B431702484314501DF014501510850042E
:100B80004F044E040319C52DC62D0C2E51084001EB
:100B90005802031DDB2D4501500840015702031D7B
:100BA000DB2D45014F0840015602031DDB2D450199
:100BB0004E0840015502031CDE2DDF2D392E00307A
:100BC0004501D1000030D0000030CF000030CE0011
:100BD0005F080319EC2DED2DF32D0130B431702495
:100BE00084314501DF01400158084101C600400140
:100BF00057084101C500400156084101C4004001A9
:100C000055084101C30045015A084101C7000030A1
:100C10009B314C238431392E400158084201DC00BD
:100C2000400157084201DB00400156084201DA004A
:100C3000400155084201D9000030913168218431CA
:100C4000023A031D242E252E392E0230400155076D
:100C50004501CE0000304001563D4501CF00003037
:100C60004001573D4501D00000304001583D45014D
:100C7000D10045015F08031D3E2E3F2E592E0F3037
:100C80004101B5002730B60001309A31302284315D
:100C900000304101AA000030A9002F30A8002C30FC
:100CA000A700AB01AB0AB6315B2684314501DF01F9
:100CB000DF0A5F03031D5D2E5E2E7B2E4101B50111
:100CC0000130AD31E0258431003A0319682E692ED8
:100CD000702E02304501DF004001EB01EB0A7B2E54
:100CE0000130AA318C228431003A0319782E792EF2
:100CF0007B2E4501DF01023045015F060319812E7D
:100D0000822E882E03305F06031D872E882E942E98
:100D10000130AA318C228431003A0319902E912E91
:100D2000942E4501DF01CF2E023045015F06031DE1
:100D30009A2E9B2ECF2E0130B5316D258431003A8D
:100D40000319A32EA42EC02E0130B431A024843167
:100D500003304501DF000130400155074501D20055
:100D600000304001563D4501D30000304001573D61
:100D70004501D40000304001583D4501D500CF2E3B
:100D80000130B431D02484314101350836040319CF
:100D9000CA2ECB2ECF2EA63118268431CF2EA030CE
:100DA00040016E024501D70057080319D82ED92EED
:100DB000212F02305F06031DDE2EDF2EF22EA03023
:100DC0004101C900450157084201EB00EC016B08E5
:100DD0004101CA0042016C084101CB000130A2313F
:100DE000892284314E0199134501570840016E0252
:100DF0004501DB00A0304201EB0045015B084201E8
:100E00006B020318042F052F1B2FA0304101A300F4
:100E10000230A40045015B084101A5000230A60094
:100E2000A03045015B024101A700A801A71BA80350
:100E3000B331B923843145015B084001EE004E0116
:100E4000991743016308620461046004031D292F9C
:100E50002A2F402F003045015E020A3003195D023F
:100E6000031C332F342F402F00305E021F30031934
:100E70005D0203183C2F3D2F402F8731E927843135
:100E80000030883105208431003A0319482F492F5A
:100E90004F2F01304501DD070030DE3D6C2F43014F
:100EA0006308620461046004031D572F582F492F03
:100EB000013045015E028F3003195D02031C612F72
:100EC000622F492FDD01DE010A304101A30000300D
:100ED000A400B131DB21843168304201EB00E43001
:100EE000890B702FEB0B702F00008C2DC23041014D
:100EF000A3003130A400BF31F727843140016008DE
:100F00000319832F842F8C2F5E080319882F892FB4
:100F10008C2FB731262784314301630862046104B2
:100F20006004031D942F952FAB2F003045015E0206
:100F30000A3003195D02031C9E2F9F2FAB2F003038
:100F40005E021F3003195D020318A72FA82FAB2FD5
:100F50008731E92784310130883105208431003A16
:100F60000319B32FB42FBA2F01304501DD0700302C
:100F7000DE3DDD2F43016308620461046004031D4C
:100F8000C22FC32FD82F013045015E028F300319C5
:100F90005D02031CCC2FCD2FD82FDD01DE010A30DE
:100FA0004101A3000030A400B131DB218431DD2FE9
:100FB0000A304501DD070030DE3D68304201EB00BC
:100FC000E430890BE12FEB0BE12F00007E2F843101
:100FD000542C40016D08031DEE2FEF2FF82F013028
:100FE0004101A3000030A400B131DB218731FF2F84
:100FF00000304101A300A400B131DB21873108009A
:10100000080001343F340134A0344101E5004001BF
:101010000E1B0B280C281B28430144080319112818
:1010200012281528B131952188314301C401C40A21
:101030004101E501E50A40015F0803192028212844
:101040002428B731B627883143014408031D2928D5
:101050002A28822940016D0803192F283028822967
:1010600015294401A001A00AA101A10AB031242040
:10107000883141012408EA002308E9006A08440194
:10108000A200410169084401A30040016D08031951
:101090004A284B2850286108031D4F2850285428FF
:1010A0004101DD01DE01592802304101DD0000303F
:1010B000DE0040015F08031D5E285F2863284101B0
:1010C000DF01E001682804304101DF000030E0006A
:1010D00040015E08031D6D286E2872284101E10160
:1010E000E201772808304101E1000030E2004001D0
:1010F0006008031D7C287D28832810304101E3000F
:101100000030E40086284101E301E40140016D085C
:10111000031D8B288D2801308E2800304101630487
:1011200061045F045D044401A40005304101E8004E
:1011300033290030A3000130A4000130A500B431F0
:10114000402488314101E601B231D9228831410180
:101150002408EA002308E9006608203E86000230E1
:101160008700690881000130DB005B08E607093071
:101170006602031CBC28BD28A4280930E8003329D6
:101180000030A3000030A4000130A500B431402499
:1011900088314101E701B231D92288314101240867
:1011A000EA002308E9006708203E86000230870035
:1011B0006A0881006708213E8600023087006908BE
:1011C00081000230DB005B08E70708306702031C80
:1011D000EA28EB28CB280830E8003329AC319A24E0
:1011E000883141014808EA004708E9006A084401DB
:1011F000A000410169084401A10002304101E8005A
:101200003329AC310924883141014808EA004708F4
:10121000E900F628A131BD21883141014808EA00E2
:101220004708E900F628E801332943016508410130
:10123000DB00DC015C08003A03191F2913295B0855
:10124000003A03193128013A03199928033A03197E
:10125000C028013A0319EE28073A03190129013A77
:1012600003190A291329FF304301E50041016808E9
:1012700003193B293C2982294301C5014101680822
:10128000A7000330AE318C26883140015F08031976
:101290004A294B296929622943014508203E8600D5
:1012A0000230870001084101A7000330AE318C26CF
:1012B000883101304101DB005B084301C507013083
:1012C0004101E80241016808031D672968294C298A
:1012D0006D29410168084301C600410165080319F1
:1012E00072297329802902304101DC000430DB00BF
:1012F000BA30890B7929DB0B7929DC0B79290000BD
:101300000130952941016508031987298829942905
:1013100005304101DC000F30DB00F130890B8E29F4
:10132000DB0B8E29DC0B8E290030080058080F3E9D
:101330008600023087000108A0000430A036890B27
:101340009E292008303EC900003003180130CA0031
:1013500057085807A0002008860002308700490877
:1013600081000130A0002008D70758080F3E8600F2
:10137000023087000F300105A0000A302002031C54
:10138000C229C329D12958080F3E860002308700A0
:1013900001080F39573ECB00003003180130CC0054
:1013A000DE2958080F3E86000230870001080F39F9
:1013B000303ECB00003003180130CC0057085807EE
:1013C000A00020088600023087004B088100013011
:1013D000A0002008D7075408A0005508A100A201CA
:1013E000A3010830A035A10DA20DA30D890BF22990
:1013F0005608A400A501A435A50DA435A50DA43556
:10140000A50DA435A50DA435A50D2408103EA600F4
:101410000030253DA7002608A8002708A9000030B5
:10142000A91BFF30AA00AB00200828044101A70037
:101430004201210829044101A800420122082A048E
:101440004101A900420123082B044101AA004201E5
:1014500058084101AB000230AC0042015708AC0013
:10146000AD012C084101AD0042012D084101AE0043
:10147000B7316E27893142015708A000A101200829
:10148000D4072108D53D4008031D472A482A122BBE
:10149000FF30400159054201A000003040015A05CB
:1014A0004201A100033020062104031D582A592AB5
:1014B000122BD70157085807A000200886000230D9
:1014C0008700323081000130A0002008D70757087C
:1014D0005807A000200886000230870004308100F1
:1014E0000130A0002008D707580857074101A30082
:1014F0000230A400D830A5000130A6000430A700B7
:101500000030A800B331B923893104304201A00072
:101510002008D70757085807A00020088600023087
:101520008700363081000130A0002008D707570817
:101530005807A00020088600023087000430810090
:101540000130A0002008D707580857074101A30021
:101550000230A400D430A5000130A6000430A7005A
:101560000030A800B331B923893104304201A00012
:101570002008D7075408A0005508A100A201A30124
:101580000830A035A10DA20DA30D890BC12A560864
:10159000A400A501A435A50DA435A50DA435A50D60
:1015A000A435A50DA435A50D2408103EA6000030D5
:1015B000253DA7002608A8002708A9000030A91B80
:1015C000FF30AA00AB00200828044101A700420117
:1015D000210829044101A800420122082A044101EE
:1015E000A900420123082B044101AA004201580826
:1015F0004101AB000230AC0042015708AC00AD0124
:101600002C084101AD0042012D084101AE00B73167
:101610006E27893142015708A000A1012008D40794
:101620002108D53DD70157085807A000200886009B
:1016300002308700373081000130A0002008D70732
:1016400040015B08031D252B262B2C2B0230420169
:10165000CD000030CE00312B04304201CD000030EF
:10166000CE0057085807A0002008860002308700E7
:101670004D0881000130A0002008D70757085807FF
:10168000A00020088600023087008101810A013015
:10169000A0002008D70757085807A0002008860098
:1016A00002308700033081000130A0002008D707F6
:1016B00040015B0803195D2B5E2B792B4201570813
:1016C0005807A00020088600023087003A308100C9
:1016D0000130A0002008D70757085807A0002008AD
:1016E0008600023087003B3081000130A0002008D6
:1016F000D707420157085807A0002008860002308B
:101700008700FF3081000130A0002008D70754086F
:10171000A0005508A100A201A3010830A035A10D29
:10172000A20DA30D890B8E2B5608A400A501A4358C
:10173000A50DA435A50DA435A50DA435A50DA4357D
:10174000A50D2408103EA6000030253DA700260860
:10175000A8002708A9000030A91BFF30AA00AB0091
:10176000200828044101A700420121082904410161
:10177000A800420122082A044101A90042012308CD
:101780002B044101AA00420158084101AB0002307C
:10179000AC0042015708AC00AD012C084101AD007E
:1017A00042012D084101AE00B7316E278931420157
:1017B0005708A000A1012008D4072108D53D5608EC
:1017C000A000A101A035A10DA035A10DA035A10D4E
:1017D000A035A10DA035A10D2008083EA2000030C3
:1017E000213DA3002208A4002308A5000030A51B6A
:1017F000FF30A600A700003024044101A7002430D8
:10180000420125044101A8000030420126044101A3
:10181000A9000030420127044101AA0042015508F5
:101820004101AC00420154084101AB00B6319B2696
:1018300089314201530803191E2C1F2C422C3C30C5
:101840004101A3000230A4000030A500A60004302E
:10185000A7000030A800A031F220893100304101FA
:10186000AA000030A9000F30A8000030A7003C30CB
:10187000AB000230AC000430AD000030AE00B73138
:101880006E278931420158084101C9000030CA0061
:10189000CB0042015608A231892289314201530806
:1018A0000319532C542C682C00304101AA0000303D
:1018B000A9000F30A8000030A700D830AB000130DD
:1018C000AC000430AD000030AE00B7316E27893176
:1018D0000800D0304101A3000130A4003030A50041
:1018E0000230A6000430A7000030A800B331B923AD
:1018F0008C31012FCC304101A3000130A4003030E5
:10190000A5000230A6000430A7000030A800B331C3
:10191000B9238C31012FFF30A0000030A10000302E
:10192000A2000030A300440130084201A400440199
:1019300031084201A500440132084201A6004401D9
:1019400033084201A7001830A736A60CA50CA40C3A
:10195000890BA42C2408A0052508A1052608A205AA
:101960002708A3050030A800FF30A9000030AA0016
:101970000030AB00440130084201AC0044013108A2
:101980004201AD00440132084201AE004401330877
:101990004201AF000830AF36AE0CAD0CAC0C890B79
:1019A000CB2C2C08A8052D08A9052E08AA052F0860
:1019B000AB050030B0000030B100FF30B2000030A5
:1019C000B300440130084201B4004401310842012F
:1019D000B500440132084201B60044013308420117
:1019E000B7000830B435B50DB60DB70D890BF22C24
:1019F0003408B0053508B1053608B2053708B30517
:101A00000030B8000030B9000030BA00FF30BB0031
:101A1000440130084201BC00440131084201BD00CC
:101A2000440132084201BE00440133084201BF00B4
:101A30001830BC35BD0DBE0DBF0D890B192D3C08EE
:101A4000B8053D08B9053E08BA053F08BB0538088A
:101A5000B0043908B1043A08B2043B08B3043008B2
:101A6000A8043108A9043208AA043308AB042008EA
:101A700028044001CD004201210829044001CE0084
:101A8000420122082A044001CF00420123082B040E
:101A90004001D000012F440130084101DF00012F37
:101AA000D4304101A3000130A4003030A500023041
:101AB000A6000430A7000030A800B331B9238C3150
:101AC000012FFF30A0000030A1000030A200003044
:101AD000A300440130084201A4004401310842013E
:101AE000A500440132084201A60044013308420126
:101AF000A7001830A736A60CA50CA40C890B7A2DCC
:101B00002408A0052508A1052608A2052708A30585
:101B10000030A800FF30A9000030AA000030AB0060
:101B2000440130084201AC00440131084201AD00DB
:101B3000440132084201AE00440133084201AF00C3
:101B40000830AF36AE0CAD0CAC0C890BA12D2C08B7
:101B5000A8052D08A9052E08AA052F08AB050030F9
:101B6000B0000030B100FF30B2000030B3004401DB
:101B700030084201B400440131084201B50044017B
:101B800032084201B600440133084201B700083070
:101B9000B435B50DB60DB70D890BC82D3408B00599
:101BA0003508B1053608B2053708B3050030B8006E
:101BB0000030B9000030BA00FF30BB0044013008EB
:101BC0004201BC00440131084201BD004401320819
:101BD0004201BE00440133084201BF001830BC3549
:101BE000BD0DBE0DBF0D890BEF2D3C08B8053D089E
:101BF000B9053E08BA053F08BB053808B0043908E6
:101C0000B1043A08B2043B08B3043008A804310810
:101C1000A9043208AA043308AB04200828044001B0
:101C2000C9004201210829044001CA0042012208DA
:101C30002A044001CB00420123082B044001CC00C0
:101C4000012FFF30A0000030A1000030A2000030C2
:101C5000A300440130084201A400440131084201BC
:101C6000A500440132084201A600440133084201A4
:101C7000A7001830A736A60CA50CA40C890B3A2E89
:101C80002408A0052508A1052608A2052708A30504
:101C90000030A800FF30A9000030AA000030AB00DF
:101CA000440130084201AC00440131084201AD005A
:101CB000440132084201AE00440133084201AF0042
:101CC0000830AF36AE0CAD0CAC0C890B612E2C0875
:101CD000A8052D08A9052E08AA052F08AB05003078
:101CE000B0000030B100FF30B2000030B30044015A
:101CF00030084201B400440131084201B5004401FA
:101D000032084201B600440133084201B7000830EE
:101D1000B435B50DB60DB70D890B882E3408B00556
:101D20003508B1053608B2053708B3050030B800EC
:101D30000030B9000030BA00FF30BB004401300869
:101D40004201BC00440131084201BD004401320897
:101D50004201BE00440133084201BF001830BC35C7
:101D6000BD0DBE0DBF0D890BAF2E3C08B8053D085B
:101D7000B9053E08BA053F08BB053808B004390864
:101D8000B1043A08B2043B08B3043008A80431088F
:101D9000A9043208AA043308AB042008280443012C
:101DA000A8004201210829044301A9004201220898
:101DB0002A044301AA00420123082B044301AB007B
:101DC000012F64084201A000A1012108003A031973
:101DD000EA2E012F2008013A0319692C023A03194F
:101DE0007A2C303A03198B2C063A03194B2D033AFF
:101DF0000319502D0C3A0319612D013A0319212EB4
:101E0000012F410167086902031D082F6608680257
:101E1000031C0B2F0D2FA0317328410168086602A7
:101E2000D7006908673BD8006A08A83100208C31C8
:101E3000FF30400159054201A000003040015A0521
:101E40004201A100033020062104031D282F292F61
:101E5000FD2F40015008031D382F4F08031D382F58
:101E60004E08031D382FF0304D020318382F392F3C
:101E7000422F00304001D0000030CF000030CE00B3
:101E8000F030CD0040014C08031D522F4B08031DBC
:101E9000522F4A08031D522F78304902031C512F3C
:101EA000522F652F400150084C02031D612F4F082F
:101EB0004B02031D612F4E084A02031D612F4D087E
:101EC0004902031C642F652F922F40014D084201E7
:101ED000A00040014E084201A10040014F0842010C
:101EE000A200400150084201A3000330A336A20C17
:101EF000A10CA00C890B762F0230A035A10DA20DEC
:101F0000A30D890B7D2F23084001CC00420122083C
:101F10004001CB00420121084001CA0042012008D3
:101F20004001C90043012B08031DA22F2A08031DED
:101F3000A22F2908031DA22FD2302802031CA12F93
:101F4000A22FBC2F4001500843012B02031DB82FC4
:101F500040014F0843012A02031DB82F40014E08DB
:101F600043012902031DB82F40014D0843012802F7
:101F7000031CBB2FBC2FFD2F40014D084201A000C8
:101F800040014E084201A10040014F084201A20059
:101F9000400150084201A3000330A336A20CA10C5B
:101FA000A00C890BCD2F23084101B000420122086B
:101FB0004101AF00420121084101AE004201200869
:101FC0004101AD000030B4000030B3000030B20079
:101FD0000730B100B53103258C3141013008430190
:101FE000AB0041012F084301AA0041012E08430123
:101FF000A90041012D084301A80041015F08080024
:102000004101A30023080319062807280D287E0193
:10201000C312400193127E01C416400199160800B4
:102020005C30860002308700B730840000308500C5
:1020300006304101B30016001A00B30B1B28003014
:10204000CE000030CD000030CC000030CB0043018A
:102050005F084101C00043015E084101BF00430128
:102060005D084101BE0043015C084101BD00003034
:10207000A3000030A4000130A500B4314024903109
:102080004101CA01CA0AD401D301B231D922903127
:1020900041012408D0002308CF005308031D512814
:1020A00052285E285008C900C91A572859280130FB
:1020B0005A280030CA0049081F39D4005308CB3EC3
:1020C000860087014F088100530803196828692892
:1020D00075284A08031D6D286E2875285308023E8E
:1020E000B73E860087014F0881000130B3003308F6
:1020F000D30704305302031C7E287F2845284A0852
:10210000031983288428A8280630A3000130A400DE
:102110000130A500B431402490314101D101B231E8
:10212000D922903141012408C2002308C10051087E
:10213000033EB73E86008701410881000130B300AD
:102140003308D10703305102031CA728A8288F2881
:102150000030AA000030A9000930A8000030A70014
:10216000B730AB000030AC000630AD000030AE0040
:10217000B7316E2790311F30410154060319C12831
:10218000C228CA284C084D044E044B04031DC9281C
:10219000CA28CC28013067290030AA000030A900E5
:1021A0000F30A8000030A700CB30AB000030AC00EF
:1021B0000430AD000030AE00B7316E2790314101E0
:1021C000D201083054020318E628E7280C295408E5
:1021D0000319EB28EC2805290130B3000030B400C6
:1021E0005408083C890AF628B335B40D890BF42845
:1021F0003308FF3EB500FF30343DB600FF303506F2
:10220000C50000303606C6000729C501C6014608CC
:10221000C4004508C3001029FF30C3000030C400CB
:102220005208BD3E86008701430881005208BD3E2A
:10223000860087010108B3005208CB3E8600870163
:1022400033088105083054020318272928292B292F
:10225000C701C80132295408F83EC700FF300318EF
:102260000030C8004708D4000130B3003308D2075B
:1022700004305202031C3D293E29E1280030AA0007
:102280000030A9000530A8000030A700BD30AB0029
:102290000030AC000430AD000030AE00B7316E2726
:1022A000903141014E140030AA000030A9000130E5
:1022B000A8000030A700CB30AB000030AC000430E9
:1022C000AD000030AE00B7316E279031003008000D
:1022D0004201E50000304101AA000030A9002E3083
:1022E000A8000030A700AB01B6315B26913101395F
:1022F000031D7B297C297E290230882B4301270876
:10230000260425042404031986298729202A27085E
:1023100042015C02031D9C294301260842015B0225
:10232000031D9C294301250842015A02031D9C29D3
:102330004301240842015902031C9F29A029202A95
:1023400040015B080319A529A6291B2A0030430177
:102350003702403003193602031CAF29B0291B2A6B
:10236000023040015906031DB9295A03031DB9293A
:10237000BA29C52900304301A7000030A60000306B
:10238000A5000030A4000230882B0330590603302A
:1023900003195A060319CD29CE29CF29BA29500885
:1023A000031DDD294F08031DDD294E08031DDD290E
:1023B0003C304D020318DD29DE29DF29BA2901301E
:1023C0004001CC36CB0CCA0CC90C890BE02901307A
:1023D0004301AB36AA0CA90CA80C890BE8290130E3
:1023E0004001D036CF0CCE0CCD0C890BF029420128
:1023F0005908400149074201DD005A0840014A3DA1
:102400004201DE005B0840014B3D4201DF005C08F9
:1024100040014C3D4201E00060084301A30042013D
:102420005F084301A20042015E084301A10042018E
:102430005D084301A000FF304001D905FE30DA05F8
:1024400040015A18242A252A592A420165089D313B
:10245000E725913140015A1442015908DD005A081C
:10246000DE005B08DF005C08E00043013608420143
:10247000E100430137084201E200E301E4016108A1
:10248000DD076208DE3D6308DF3D6408E03D60086B
:102490004301A70042015F084301A60042015E0814
:1024A0004301A50042015D084301A400B1310021B0
:1024B0009131400154084201E900400153084201B2
:1024C000E800400152084201E70040015108420182
:1024D000E60066304101DA00420165089331892344
:1024E00091314201EA006A0A031D772A782A6E2B8D
:1024F000FF30882B023042016A06031D802A812AA0
:10250000952A69084001D400420168084001D300BF
:10251000420167084001D200420166084001D10033
:102520000330D9000030DA00872B01304001D90098
:102530000030DA00872B053042016A06031DA12A0C
:10254000A22A362B69084001D400420168084001E4
:10255000D300420167084001D200420166084001F1
:10256000D10000304101AA000030A9000F30A800BE
:102570000030A700D830AB000130AC000430AD0013
:102580000030AE00B7316E27913100304101AA0012
:102590000030A9000530A8000030A700D030AB0003
:1025A0000130AC000430AD000030AE00B7316E2712
:1025B000913100304101AA000030A9000130A8008B
:1025C0000030A700CC30AB000130AC000430AD00CF
:1025D0000030AE00B7316E27913142015C084301F3
:1025E000A70042015B084301A60042015A084301CB
:1025F000A500420159084301A40040014C08031DF5
:102600000C2B4B08031D0C2B4A08031D0C2B3C30D4
:10261000490203180C2B0D2B172B3C304301A40748
:102620000030A53D0030A63D0030A73D272B4001DE
:1026300049084301A40740014A084301A53D400160
:102640004B084301A63D40014C084301A73D270824
:10265000A3002608A2002508A1002408A00003303A
:102660004001D9000330DA000130882B06306A06B9
:10267000031D3B2B3C2B3D2B952A03304001D900F9
:102680000030DA00872B053042016A06031D492B12
:102690004A2B872B69084001D40042016808400199
:1026A000D300420167084001D200420166084001A0
:1026B000D1003C30420159074301A40000304201DF
:1026C0005A3D4301A500003042015B3D4301A60095
:1026D000003042015C3D4301A700872B40015A08AE
:1026E000013A0319772B023A0319822B872B5908D9
:1026F000013A03197A2A023A03199B2A0B3A031961
:10270000432B872B5908033A03199B2A872B003048
:1027100008004101EA006A08B431D0249331410134
:102720003608DC003508DB0000305C020830031995
:102730005B0203189C2B9D2BA02BFF308F31FF2FAA
:102740003030CA000230CB000830CC000030CD0061
:102750006A08A8316320933141014B08E9004A0817
:10276000E800003069020830031968020318B92B29
:10277000BA2BBB2B9D2B440135084201A000A101BF
:10278000440134084201A200A3012208A300A201CF
:10279000200822044101DD004201210823044101F7
:1027A000DE00440137084201A000A10144013608BF
:1027B0004201A200A3012208A300A20120082204D2
:1027C0004101E6004201210823044101E7000030F5
:1027D00067022C3003196602031CEF2BF02BF72B3A
:1027E00043305D065E040319F62BF72B002C6708B7
:1027F000D8006608D7006A08A831002093319D2BC5
:102800003030CA000230CB002C30CC000030CD007C
:102810006A08A8316320933141014B08E9004A0856
:10282000E800003069022C30031968020318192CE3
:102830001A2C252C68086602D7006908673BD80067
:102840006A08A831002093319D2B023044013006E4
:1028500003192B2C2C2C382C410168086602D70058
:102860006908673BD8006A08A831002093319D2B86
:10287000FF304201A0000030A1000030A200003073
:10288000A300440134084201A40044013508420178
:10289000A500440136084201A60044013708420160
:1028A000A7001830A736A60CA50CA40C890B522C37
:1028B0002408A0052508A1052608A2052708A305C8
:1028C0000030A800FF30A9000030AA000030AB00A3
:1028D000440134084201AC00440135084201AD0016
:1028E000440136084201AE00440137084201AF00FE
:1028F0000830AF36AE0CAD0CAC0C890B792C2C0823
:10290000A8052D08A9052E08AA052F08AB0500303B
:10291000B0000030B100FF30B2000030B30044011D
:1029200034084201B400440135084201B5004401B5
:1029300036084201B600440137084201B7000830AA
:10294000B435B50DB60DB70D890BA02C3408B00504
:102950003508B1053608B2053708B3050030B800B0
:102960000030B9000030BA00FF30BB004401340829
:102970004201BC00440135084201BD004401360853
:102980004201BE00440137084201BF001830BC3587
:10299000BD0DBE0DBF0D890BC72C3C08B8053D0809
:1029A000B9053E08BA053F08BB053808B004390828
:1029B000B1043A08B2043B08B3043008A804310853
:1029C000A9043208AA043308AB04200828044101F2
:1029D000E0004201210829044101E10042012208EE
:1029E0002A044101E200420123082B044101E300D3
:1029F00043012F0841016302031D0E2D43012E08E0
:102A000041016202031D0E2D43012D0841016102A7
:102A1000031D0E2D43012C0841016002031C112DE2
:102A2000122D2B2D630840015402031D272D410157
:102A3000620840015302031D272D41016108400136
:102A40005202031D272D4101600840015102031865
:102A50002A2D2B2D372D410168086602D700690801
:102A6000673BD8006A08A831002093319D2B4101B3
:102A70005A088600013087006008C03F6108C13FE6
:102A80006208C23F6308C33F0030AA000030A900BB
:102A90000930A8000030A7005230AB000230AC0073
:102AA0000630AD000030AE00B631DF269331523033
:102AB0004101A3000630A4000030A5004C30B6311F
:102AC0001C2693314101230824040319682D692D24
:102AD000742D68086602D7006908673BD8006A0849
:102AE000A831002093319D2B40015B080319792DFB
:102AF0007A2D8A2DD8304101A3000130A400403046
:102B0000A5000230A6000430A7000030A800B331B1
:102B1000B9239331C0304101D7000030D8006A0892
:102B2000A8310020933141015708E8075808E93DD2
:102B30003030CA000230CB000430CC000030CD0071
:102B40006A08A8316320933141014A08E8074B081D
:102B5000E93D633044013006031DB02DA031272824
:102B6000A0313928082E42015408A0005508A100C0
:102B7000A201A3010830A035A10DA20DA30D890B60
:102B8000BB2D5608A400A501A435A50DA435A50D9F
:102B9000A435A50DA435A50DA435A50D2408103E1A
:102BA000A6000030253DA7002608A8002708A90098
:102BB0000030A91BFF30AA00AB0020082804410107
:102BC000A7004201210829044101A800420122086E
:102BD0002A044101A900420123082B044101AA0053
:102BE000420158084101AB000230AC002030AD007A
:102BF0000030AE00B7316E27953120304201D40746
:102C00000030D53D0130D1070030D23D9F31F12F4A
:102C10004201D70157085807A0002008860002305B
:102C20008700633081000130A0002008D7075708D3
:102C30005807A000200886000230870082308100FB
:102C40000130A0002008D70757085807A000200827
:102C5000860002308700533081000130A000200838
:102C6000D70757085807A0002008860002308700C1
:102C7000633081000130A0002008D70757085807AB
:102C8000A000200886000230870035308100013026
:102C9000A0002008D70757085807A0002008860082
:102CA000023087008101810A0130A0002008D70787
:102CB00057085807A000200886000230870040010E
:102CC0005908810001304201A0002008D7075708A9
:102CD0005807A00020088600023087003D308100A0
:102CE0000130A0002008D70757085807A000200887
:102CF000860002308700073081000130A0002008E4
:102D0000D70757085807A000200886000230870020
:102D10008101810A0130A0002008D707003041015D
:102D2000AA000030A9000930A8000030A700420125
:102D3000580857074101AB000230AC000630AD0027
:102D40000030AE00B631DF26953106304201A000DA
:102D50002008D70757085807A0002008860002302F
:102D600087000C3081000130A0002008D7075708E9
:102D70005807A0002008860002308700003041017B
:102D8000A300B830A400B2312722953141012308B5
:102D9000063E810001304201A0002008D707003024
:102DA0004101A300B830A400420158085707B231CE
:102DB000B922953100304101A300B830A400B231EE
:102DC00027229531410123084201A0002008D7079E
:102DD00058080D3E8600023087000108A00004302C
:102DE000A036890BF02E0A302002031CF82EF92E93
:102DF0000C2F58080D3E8600023087000108A00005
:102E00000430A036890B012F2008573EC100003046
:102E100003180130C2001E2F58080D3E86000230F4
:102E200087000108A0000430A036890B142F200869
:102E3000303EC100003003180130C2005708580767
:102E4000A000200886000230870041088100013080
:102E5000A0002008D70758080D3E860002308700E2
:102E60000F300105A0000A302002031C382F392F33
:102E7000472F58080D3E86000230870001080F39A1
:102E8000573EC300003003180130C400542F5808C7
:102E90000D3E86000230870001080F39303EC30026
:102EA000003003180130C40057085807A00020085C
:102EB000860002308700430881000130A00020080E
:102EC000D70758080E3E8600023087000108A00090
:102ED0000430A036890B692F0A302002031C712FA1
:102EE000722F852F58080E3E860002308700010899
:102EF000A0000430A036890B7A2F2008573EC50069
:102F0000003003180130C600972F58080E3E860087
:102F1000023087000108A0000430A036890B8D2FF5
:102F20002008303EC500003003180130C6005708A5
:102F30005807A0002008860002308700450881005D
:102F40000130A0002008D70758080E3E8600023046
:102F500087000F300105A0000A302002031CB12FAA
:102F6000B22FC02F58080E3E86000230870001089D
:102F70000F39573EC700003003180130C800CD2F6D
:102F800058080E3E86000230870001080F39303E97
:102F9000C700003003180130C80057085807A000C8
:102FA0002008860002308700470881000130A00019
:102FB0002008D70758080F3E860002308700010816
:102FC000A0000430A036890BE22F0A302002031C37
:102FD000EA2FEC2F8931962958080F3E86000230DF
:102FE00087000108A0000430A036890BF42F2008C8
:102FF000573EC900003003180130CA008931A829A2
:1030000000304101A3000430A4000030A500B43119
:10301000402498314301B401B5014101AA01AB013B
:10302000B231D9229831410123084301B40741014B
:1030300024084301B53D01304101AA070030AB3DF2
:103040003C302B02003003192A02031C28282928AF
:10305000102808004101C9004908B900BA01B93572
:10306000BA0DB935BA0DB935BA0DB935BA0DB9358C
:10307000BA0D3908083EBB0000303A3DBC003B08A1
:10308000BD003C08BE000030BE1BFF30BF00C000CA
:1030900000303D04A70026303E04A80000303F0465
:1030A000A90000304004AA00AA3121229831410130
:1030B0002808C6002708C50038084602031D6228F4
:1030C000370845020318652866286A284608B800AC
:1030D0004508B70037083804031D6F287028732887
:1030E000B501B60122294908B900BA01B935BA0DAE
:1030F000B935BA0DB935BA0DB935BA0DB935BA0DFC
:103100003908083EBB0000303A3DBC003B08BD001A
:103110003C08BE000030BE1BFF30BF00C0000030C6
:103120003D04A70028303E04A80000303F04A90059
:1031300000304004AA00AA31212298314101280818
:10314000C8002708C700350836040319A828A9288D
:10315000E9284708B9004808BA00BB01BC0108309B
:10316000B935BA0DBB0DBC0D890BB0284908BD009F
:10317000BE01BD35BE0DBD35BE0DBD35BE0DBD3567
:10318000BE0DBD35BE0D3D08183EBF0000303E3DB2
:10319000C0003F08C1004008C2000030C21BFF3021
:1031A000C300C40039084104A7003A084204A8003B
:1031B0003B084304A9003C084404AA003608AC00BC
:1031C0003508AB003808AE003708AD00B631DF2651
:1031D000983141013708C7073808C83D4908B90088
:1031E000BA01B935BA0DB935BA0DB935BA0DB93517
:1031F000BA0DB935BA0D3908083EBB0000303A3D6A
:10320000BC003B08BD003C08BE000030BE1BFF30C8
:10321000BF00C00000303D04A70028303E04A800D5
:1032200000303F04A90000304004AA004808AC0068
:103230004708AB00B6319B26983141013808B600EB
:103240003708B500080047084101A40045014608B9
:103250004101A300B0317620993101304101AA002B
:103260000030AB000130AC00B031C52099314101D4
:103270002B084501C40044083F394001EC005F08B9
:10328000031D43294429602994119A1105304201F4
:10329000EC000F30EB00F130890B4C29EB0B4C2983
:1032A000EC0B4C29031040010E1E031400300318D0
:1032B0000130DE005E0803195E295F296029EB01F9
:1032C00094129A125F080319662967297829B33185
:1032D000682399310130B431122499310130903191
:1032E00000209931A931C12199314001EB01C12957
:1032F000600803197C297D29A22918131530420181
:10330000EC004B30EB00BE30890B8429EB0B842999
:10331000EC0B842900004001181705304201EC0035
:103320000F30EB00F130890B9329EB0B9329EC0B59
:10333000932940015E0803199E299F29A229B731CC
:103340002627993140016D08031DA729A829AF2917
:10335000B13129219931B1317F219931C129B3315D
:1033600068239931B3314023993140016108031931
:10337000BA29BB29C12942019E1244309B009C01FD
:103380009E163E304101A3002F30A400B0311B2017
:103390009931BF318D27993109304201EC001E303F
:1033A000EB00E430890BD229EB0BD229EC0BD229AC
:1033B000000000304101A300A400B131DB219931AC
:1033C00040016D080319E529E629112A4501D901B3
:1033D00015305902031CED29EE29EF29262A033066
:1033E0004201EC000830EB007730890BF529EB0B3C
:1033F000F529EC0BF529450159084201EB00EC01D8
:103400006B084101A30042016C084101A400B131E5
:10341000DB21993101304201EB006B084501D907EE
:10342000E82909304201EC001E30EB00E430890B42
:10343000172AEB0B172AEC0B172A00000130410169
:10344000A3000030A400B131DB2199314501DA013C
:1034500040015F0803192E2AA331622B85315C2DB0
:103460004101BF003F08B700B801B735B80DB73507
:10347000B80DB735B80DB735B80DB735B80D370835
:10348000083EB9000030383DBA003908BB003A08A0
:10349000BC000030BC1BFF30BD00BE0000303B0450
:1034A000A70004303C04A80000303D04A90000300F
:1034B0003E04AA003608AC003508AB00B6319B26A6
:1034C0009A3141013F08B700B801B735B80DB7359B
:1034D000B80DB735B80DB735B80DB735B80D3708D5
:1034E000083EB9000030383DBA003908BB003A0840
:1034F000BC000030BC1BFF30BD00BE0004303B04EC
:10350000A70002303C04A80000303D04A9000030B0
:103510003E04AA000A30AB00B6315B269A31410165
:103520003F08B700B801B735B80DB735B80DB73596
:10353000B80DB735B80DB735B80D3708083EB90026
:103540000030383DBA003908BB003A08BC000030F2
:10355000BC1BFF30BD00BE0000303B04B00001309A
:103560003C04B10000303D04B20000303E04B30022
:103570001030B400B3311B239A3141013F08B7002A
:10358000B801B735B80DB735B80DB735B80DB73583
:10359000B80DB735B80D3708083EB9000030383DD2
:1035A000BA003908BB003A08BC000030BC1BFF3031
:1035B000BD00BE0004303B04A70000303C04A8005E
:1035C00000303D04A90000303E04AA00AB01AB0A64
:1035D000B6315B269A3141013F08B700B801B735D3
:1035E000B80DB735B80DB735B80DB735B80DB73517
:1035F000B80D3708083EB9000030383DBA00390828
:10360000BB003A08BC000030BC1BFF30BD00BE0050
:1036100000303B04B00001303C04B10000303D04F8
:10362000B20000303E04B300B401B40AB3311B232E
:103630009A3141013F08B700B801B735B80DB73529
:10364000B80DB735B80DB735B80DB735B80D370863
:10365000083EB9000030383DBA003908BB003A08CE
:10366000BC000030BC1BFF30BD00BE0000303B047E
:10367000A70003303C04A80000303D04A90000303E
:103680003E04AA00AB01B6315B269A31133A031D02
:103690004A2B4B2B612A08004101D000D830A300EF
:1036A0000130A400FF30A5000030A6000430A700C0
:1036B0000030A800A031F2209B31D4304101A3009A
:1036C0000130A4000030A500A6000430A70000309F
:1036D000A800A031F2209B3141015008C800C90167
:1036E000C835C90DC835C90DC835C90DC835C90D8E
:1036F000C835C90D4808083ECA000030493DCB0016
:103700004A08CC004B08CD000030CD1BFF30CE0066
:10371000CF0004304C04A7001F304D04A800003037
:103720004E04A90000304F04AA000230AB00B631AD
:103730005B269B3141015008C800C901C835C90D3D
:10374000C835C90DC835C90DC835C90DC835C90D2D
:103750004808083ECA000030493DCB004A08CC006A
:103760004B08CD000030CD1BFF30CE00CF00043021
:103770004C04A7001E304D04A80000304E04A900E0
:1037800000304F04AA000230AB00B6315B269B31FB
:1037900044304101B5000030B600D830B7004330A6
:1037A000B8000030B90050089C3195249B31B731E6
:1037B000B6279B31FF3041013905C8000F303A056B
:1037C000C9004808CA004908CB000030CB1BFF30B5
:1037D000CC00CD0000304A064001D10050304101FC
:1037E0004B064001D200B03041014C064001D300ED
:1037F000AE3041014D064001D40054084301AF00F2
:10380000400153084301AE00400152084301AD009E
:10381000400151084301AC00410147084001DB0071
:10382000410147080319152C162C2F2CD830A30062
:103830000130A4000030A500A6000430A70000302D
:10384000A800A031F2209B3101304001D9000030A6
:10385000DA0004304301B6000030B7004C2C0030D1
:10386000AA000030A9000F30A8000030A700D8300F
:10387000AB000130AC000430AD000030AE00B6311A
:10388000DF269B3108304001D9000030DA0040309B
:103890004301B6000030B700D0304101A300013031
:1038A000A400FF30A5000030A6000430A7000030BF
:1038B000A800A031F2209B31CC304101A30001309F
:1038C000A4000030A500A6000430A7000030A80026
:1038D000A031F2209B3100304301AB000030AA0040
:1038E0000030A9000030A8002B084001CC004301A3
:1038F0002A084001CB00430129084001CA004301C6
:1039000028084001C9004C08D0004B08CF004A08E5
:10391000CE004908CD0000304301A3000030A200D2
:103920000030A1000030A00008004101C2004208A0
:10393000BA00BB01BA35BB0DBA35BB0DBA35BB0DEC
:10394000BA35BB0DBA35BB0D3A08083EBC00003095
:103950003B3DBD003C08BE003D08BF000030BF1B22
:10396000FF30C000C10000303E04A70004303F0417
:10397000A80000304004A90000304104AA00360825
:10398000AC003508AB00B6319B269C3141014208A2
:10399000BA00BB01BA35BB0DBA35BB0DBA35BB0D8C
:1039A000BA35BB0DBA35BB0D3A08083EBC00003035
:1039B0003B3DBD003C08BE003D08BF000030BF1BC2
:1039C000FF30C000C10000303E04A7000C303F04AF
:1039D000A80000304004A90000304104AA003708C4
:1039E000AB000130AC000430AD000030AE00B731A8
:1039F0006E279C3141014208BA00BB01BA35BB0DAC
:103A0000BA35BB0DBA35BB0DBA35BB0DBA35BB0DDA
:103A10003A08083EBC0000303B3DBD003C08BE00FB
:103A20003D08BF000030BF1BFF30C000C1000030A8
:103A30003E04A70010303F04A80000304004A90055
:103A400000304104AA003908AC003808AB00B63198
:103A50009B269C3141014208BA00BB01BA35BB0D1F
:103A6000BA35BB0DBA35BB0DBA35BB0DBA35BB0D7A
:103A70003A08083EBC0000303B3DBD003C08BE009B
:103A80003D08BF000030BF1BFF30C000C100003048
:103A90003E04B00001303F04B10000304004B200E9
:103AA00000304104B3001030B400B3311B239C310B
:103AB00041014208BA00BB01BA35BB0DBA35BB0D96
:103AC000BA35BB0DBA35BB0DBA35BB0D3A08083E49
:103AD000BC0000303B3DBD003C08BE003D08BF00BF
:103AE0000030BF1BFF30C000C10004303E04A700FF
:103AF00000303F04A80000304004A9000030410419
:103B0000AA000230AB00B6315B269C31410142086D
:103B1000BA00BB01BA35BB0DBA35BB0DBA35BB0D0A
:103B2000BA35BB0DBA35BB0D3A08083EBC000030B3
:103B30003B3DBD003C08BE003D08BF000030BF1B40
:103B4000FF30C000C10000303E04B00001303F042F
:103B5000B10000304004B20000304104B300B401B1
:103B6000B40AB3311B239C3141014208BA00BB01A6
:103B7000BA35BB0DBA35BB0DBA35BB0DBA35BB0D69
:103B8000BA35BB0D3A08083EBC0000303B3DBD00D5
:103B90003C08BE003D08BF000030BF1BFF30C00026
:103BA000C10000303E04A70003303F04A8000030ED
:103BB0004004A90000304104AA00AB01B6315B26E5
:103BC0009C31223A031DE52DE62D2A2D08004201E5
:103BD000D6005608A000A101A035A10DA035A10D69
:103BE000A035A10DA035A10DA035A10D2008083EDE
:103BF000A2000030213DA3002208A4002308A50054
:103C00000030A51BFF30A600A700003024044101AE
:103C1000A7002430420125044101A80000304201E0
:103C200026044101A9000030420127044101AA00F5
:103C3000AA3121229D31410128084201D5004101CC
:103C400027084201D4003030D80058084101A300B1
:103C50000230A4000030A500A6002C30A7000030E0
:103C6000A800A031F2209D314401B001B00AB10199
:103C7000B10A0630B200B301FF304201A0000030AB
:103C8000A1000030A2000030A30040015108420111
:103C9000A400400152084201A5004001530842011E
:103CA000A600400154084201A7001830A736A60C10
:103CB000A50CA40C890B562E2408A0052508A105E7
:103CC0002608A2052708A3050030A800FF30A90098
:103CD0000030AA000030AB00400151084201AC00A6
:103CE000400152084201AD00400153084201AE00BC
:103CF000400154084201AF000830AF36AE0CAD0CA5
:103D0000AC0C890B7D2E2C08A8052D08A9052E08C2
:103D1000AA052F08AB050030B0000030B100FF301D
:103D2000B2000030B300400151084201B40040012C
:103D300052084201B500400153084201B60040015B
:103D400054084201B7000830B435B50DB60DB70DB3
:103D5000890BA42E3408B0053508B1053608B20524
:103D60003708B3050030B8000030B9000030BA00A1
:103D7000FF30BB00400151084201BC004001520825
:103D80004201BD00400153084201BE0040015408F9
:103D90004201BF001830BC35BD0DBE0DBF0D890BF3
:103DA000CB2E3C08B8053D08B9053E08BA053F08CA
:103DB000BB053808B0043908B1043A08B2043B081E
:103DC000B3043008A8043108A9043208AA0433084F
:103DD000AB04200828044401B4004201210829044E
:103DE0004401B500420122082A044401B600420100
:103DF00023082B044401B7004201CF0143012308EB
:103E00002204210420040319062F072F1A2F400132
:103E10004C08031D162F4B08031D162F4A08031DBF
:103E2000162F3C3049020318162F172F1A2F420164
:103E3000CF01CF0A42014F08031D1F2F212F013050
:103E4000222F0030C000D001D00A430123082204F1
:103E50002104200403192D2F2E2F3D2F2B08031D85
:103E60003D2F2A08031D3D2F2908031D3D2F3C30FF
:103E70002802031C3C2F3D2F4E2FFF3040015905D7
:103E80004201A000003040015A054201A100200378
:103E9000210403194C2F4D2F4E2FD0014201500801
:103EA000031D532F552F0130562F0030D3004001F2
:103EB0005B0803195C2F5D2F612FDA1C602F612FC7
:103EC000772F3C304101A3000230A400D830A50078
:103ED0000130A6000430A7000030A800B331B92398
:103EE0009D31420153080319762F772F7C2F8030A4
:103EF0004401BA000030BB0000304101AA0000308C
:103F0000A9000930A8000030A7004C30AB000230F7
:103F1000AC000630AD000030AE00B631DF269D317A
:103F200042015408A0005508A100A201A3010830D5
:103F3000A035A10DA20DA30D890B982F5608A40042
:103F4000A501A435A50DA435A50DA435A50DA43551
:103F5000A50DA435A50D2408103EA6000030253D72
:103F6000A7002608A8002708A9000030A91BFF30D9
:103F7000AA00AB00200828044101A7004201210843
:103F800029044101A800420122082A044101A90094
:103F9000420123082B044101AA00420158084101B3
:103FA000AB000230AC002C30AD000030AE00B731B9
:103FB0006E279D312C304201D4070030D53D580882
:103FC0004101A3000230A4000030A500A60020306B
:103FD000A7000030A800A031F2209D314201D1019C
:103FE000D2015208803AA00080302002031DFA2F2F
:103FF00006305102031CFE2F9531B22D9531B32DA1
:1040000008001A287008860071088700010843011B
:104010008C004E010F1C0D280E2809280F10700867
:1040200086007108870043010C0881000130F00709
:104030000030F13D0130F2020030F33B720A031D03
:104040002528730A031D2528262802280800823007
:104050003106031D2C282D28392853303206031D24
:104060003228332839286330330603193828392891
:104070004628410168086602D7006908673BD800F6
:104080006A08A8310020A03193319D2B4101DF0146
:10409000FF30400159054201A000003040015A059F
:1040A0004201A100033020062104031D58285A288C
:1040B0008F31012F00304301AB000030AA000030E7
:1040C000A9000030A8002B084001CC0043012A08B9
:1040D0004001CB00430129084001CA0043012808E0
:1040E0004001C90058283030CA000230CB000130EE
:1040F000CC000030CD006A08A8316320A031410116
:104100004A084B04031D8528862888288F310D2FE7
:104110000130E8070030E93D440130084101E40086
:10412000640A031D94289528962886286408031D90
:104130009A289B289C2858283030CA000230CB008F
:104140000130CC000030CD006A08A8316320A031D6
:1041500041014A084B04031DAE28AF28B028862829
:104160000130E8070030E93D440130084101E50035
:1041700065080319BC28BD28E4283030CA00023085
:10418000CB0065084201A000A10120084101CC003C
:10419000420121084101CD006A08A8316320A03105
:1041A000410165084201A200A30141014B084201FF
:1041B0002306031DDF2841014A0842012206031994
:1041C000E228E328E4288628410165084201A0008E
:1041D000A10120084101E807420121084101E93D10
:1041E0008E31E12E41012408B0002308AF002708DA
:1041F0002804031DFC28FD28FE28BC292F08860062
:10420000300887002508810027082F07A900280803
:10421000303DAA002908FF3EAB00FF302A3DAC002C
:104220002B0886002C088700250881000030280212
:1042300003300319270203181E291F292029BC292E
:104240002F08013EA9000030303DAA002908860051
:104250002A088700250881002F08023EA9000030A7
:10426000303DAA00290886002A0887002508810019
:1042700027082F07A9002808303DAA002908FE3E7C
:10428000AB00FF302A3DAC002B0886002C088700CD
:104290002508810027082F07A9002808303DAA001B
:1042A0002908FD3EAB00FF302A3DAC002B088600FC
:1042B0002C088700250881000030280207300319E8
:1042C00027020318642965296629BC292F08033EA3
:1042D000A9000030303DAA00290886002A0887007E
:1042E0002508810027082F07A9002808303DAA00CB
:1042F0002908FC3EAB00FF302A3DAC002B088600AD
:104300002C08870025088100003028020930031995
:10431000270203188C298D298E29BC292F09A90071
:104320003009AA00A90A0319AA0A03302905AD0019
:1043300000302A05AE002D08AF072E08B03D2D082D
:10434000A7022E08A83BFC30A705FF30A805B62918
:104350002F08860030088700250881000130A70259
:104360000030A83B0130AF070030B03D27082804DB
:10437000031DBB29BC29A82908000230B131F42152
:10438000A131FF304101D000FF30D100D201D30173
:10439000CE01CF01BF319027A131BF31D027A1314C
:1043A000003A0319D429D529CD29BF31A327A1313A
:1043B00041012408D5002308D40051085502031DEB
:1043C000E329500854020318E629E729EB29550888
:1043D000D1005408D00055085302031DF129540898
:1043E00052020318F429F529F9295508D300540875
:1043F000D2000130CE070030CF3D4F08803AC900CF
:1044000092304902031D062A1C304E02031C092A61
:104410000A2ACA2900304101BC000D30BB00B1306E
:10442000BA005830B9005008AD005108AE00AF01D5
:10443000B00143016A084101B40043016908410128
:10444000B300430168084101B2004301670841011C
:10445000B100B5310325A13141013008C0002F085A
:10446000BF002E08BE002D08BD00A9310821A131D2
:10447000410139080B3ED00000303A3DD1000030F8
:10448000BC000D30BB00B130BA005830B900520842
:10449000AD005308AE00AF01B00143016A0841010D
:1044A000B400430169084101B300430168084101B8
:1044B000B200430167084101B100B5310325A131C4
:1044C00041013008C0002F08BF002E08BE002D0893
:1044D000BD00A9310821A131410139080B3ED200AC
:1044E00000303A3DD300FF305005C900003051057F
:1044F000CA00FF305205CB0000305305CC004B08FA
:10450000CC00CB0149084B04C7004A084C04C80042
:1045100008004101D5004A084B040319902A912A4A
:10452000A12A4908B5004B08B7004A08B60055084B
:10453000A5312C25A231003A031D9F2AA02AA12AC9
:10454000612B41015508CC00CD01CC35CD0DCC35CA
:10455000CD0DCC35CD0DCC35CD0DCC35CD0D4C089C
:10456000083ECE0000304D3DCF004E08D0004F0831
:10457000D1000030D11BFF30D200D30000305004F6
:10458000B00001305104B10000305204B2000030DC
:104590005304B3002030B400B3311B23A2314101D6
:1045A0005508CC00CD01CC35CD0DCC35CD0DCC355D
:1045B000CD0DCC35CD0DCC35CD0D4C08083ECE0003
:1045C00000304D3DCF004E08D0004F08D1000030E4
:1045D000D11BFF30D200D30000305004A7000230BE
:1045E0005104A80000305204A90000305304AA006E
:1045F000AB01B6315B26A2314101D400541E012B20
:10460000022B302B5508CC00CD01CC35CD0DCC354F
:10461000CD0DCC35CD0DCC35CD0DCC35CD0D4C08DB
:10462000083ECE0000304D3DCF004E08D0004F0870
:10463000D1000030D11BFF30D200D3000430500431
:10464000A70002305104A80000305204A900003035
:104650005304AA001830AB00B6315B26A231612B9F
:10466000D41D332B342BCF2A5508CC00CD01CC35AB
:10467000CD0DCC35CD0DCC35CD0DCC35CD0DCC35CE
:10468000CD0D4C08083ECE0000304D3DCF004E0809
:10469000D0004F08D1000030D11BFF30D200D30032
:1046A00004305004A70002305104A8000030520426
:1046B000A90000305304AA000830AB00B6315B26D5
:1046C000A23108004501DC010530CA000030CB00F2
:1046D00000304101AA000030A9003930A8000030A4
:1046E000A700AB01B6315B26A3314501C5000430FC
:1046F000450603197C2B7D2BBB2B5C080319812BF2
:10470000822B8B2BDC0100304101A300A400B131CE
:10471000DB21A331952BDC01DC0A14304101A3001D
:104720000030A400B131DB21A3310B304201EC0099
:104730002630EB005D30890B9B2BEB0B9B2BEC0B9E
:104740009B2B0032003088310520A3310130450118
:10475000CA020030CB3B4A0A031DB22B4B0A031D91
:10476000B22BB32B682B0530CA000030CB00A93127
:10477000C121A331682B90311020A3314501DA000B
:1047800000304101AA000030A9001930A800003013
:10479000A7000430AB000030AC00B6319B26A3313B
:1047A000FA2B45015C080319D62BD72BE02BDC0133
:1047B00000304101A300A400B131DB21A331EA2B79
:1047C000DC01DC0A14304101A3000030A400B13147
:1047D000DB21A33103304201EC000830EB007730DD
:1047E000890BF02BEB0BF02BEC0BF02B003088310E
:1047F0000520A33100304101AA000030A9002E306D
:10480000A8000030A700AB01B6315B26A331013907
:1048100003190B2C0C2CD12B400158084101C60068
:10482000400157084101C500400156084101C4003C
:10483000400155084101C30045015A084101C70024
:1048400000309B314C23A33145015A080319292C10
:104850002B2C8531582D400158084501C3004001DB
:1048600057084501C200400156084501C1004001FA
:1048700055084501C000D601D60ACD018531522D1B
:104880004101A10140015F080319472C482C5C2C11
:10489000A230BA000030BB000130BC000030BD00C7
:1048A0000130A8311420A43140013A033B0403191C
:1048B0005A2C5B2C732C2B2D42011D1D602C612C5E
:1048C000632C40015C1642019D1C672C682C6F2CE8
:1048D0001D121D164001DC164101A101A10A420171
:1048E00019084101A200410121080319782C792CF3
:1048F0007D2CB2314122A4312B2D40016D08031DC6
:10490000822C832C182D41012208B031B320A43110
:104910002B2D6408C7000230C736890B8C2C470842
:104920000F394101A000F32C3F3041012205400125
:10493000C70064080339C8000530C835FF3E031DB1
:104940009D2C483547044301E6004001E401E301A2
:10495000DD01DD0A0A2D3F30410122054001C7007B
:1049600064080339C8000530C835FF3E031DB42C68
:1049700048354704B031B320A4310A2D3F304101FE
:1049800022054001C70064080339C8000530C83556
:10499000FF3E031DC72C48354704E200AA306206DB
:1049A000031DD32CD42CD62CE3010A2DE301E30AFA
:1049B0000130F0000030F100B1315321A4310A2D53
:1049C0003F30410122054001C70064080339C80097
:1049D0000530C835FF3E031DE92C48354704430127
:1049E000E500C6010A2D20084001C700C80148089B
:1049F000003A0319FC2C0A2D4708003A0319942C9D
:104A0000013A0319AB2C033A0319BE2C013A0319DE
:104A1000E02C0A2D4001E4012B2D41012208400128
:104A2000E4002B2D41012208B031B320A4310A2D1E
:104A300041012208C0394001C700C8014808003AB6
:104A40000319232D122D4708803A0319892C403A67
:104A500003190D2D122D08004101C8003608370436
:104A6000031D332D342D362D0130172E4808B80084
:104A7000B901B835B90DB835B90DB835B90DB83576
:104A8000B90DB835B90D3808083EBA000030393DC7
:104A9000BB003A08BC003B08BD000030BD1BFF3026
:104AA000BE00BF0000303C04A70020303D04A80039
:104AB00000303E04A90000303F04AA00AA312122A0
:104AC000A53141012808C5002708C4003708450260
:104AD000031D6C2D3608440203186F2D702D722DA6
:104AE0000030172E4808B800B901B835B90DB835EF
:104AF000B90DB835B90DB835B90DB835B90D380897
:104B0000083EBA000030393DBB003A08BC003B0803
:104B1000BD000030BD1BFF30BE00BF0000303C04B4
:104B2000A70024303D04A80000303E04A900003056
:104B30003F04AA00AA312122A53141012808C7005B
:104B40002708C6004608B8004708B900BA01BB01EB
:104B50000830B835B90DBA0DBB0D890BA92D480821
:104B6000BC00BD01BC35BD0DBC35BD0DBC35BD0D9A
:104B7000BC35BD0DBC35BD0D3C08103EBE0000303F
:104B80003D3DBF003E08C0003F08C1000030C11BD2
:104B9000FF30C200C30038084004A70039084104B0
:104BA000A8003A084204A9003B084304AA003508BB
:104BB000AB000230AC003708AE003608AD00B731AC
:104BC0006E27A53141013608C6073708C73D48089A
:104BD000B800B901B835B90DB835B90DB835B90D4A
:104BE000B835B90DB835B90D3808083EBA000030EF
:104BF000393DBB003A08BC003B08BD000030BD1B7E
:104C0000FF30BE00BF0000303C04A70024303D044C
:104C1000A80000303E04A90000303F04AA00470865
:104C2000AC004608AB00B6319B26A5310130080028
:104C30007E1C1C2EA431402C4101DA0140015F088A
:104C40000319232E242E392EDB304101CA000030F7
:104C5000CB000130CC000030CD000130A831632002
:104C6000A63141014A034B040319372E382E502E2A
:104C7000062F42011D1D3D2E3E2E402E40015C168A
:104C800042019D1C442E452E4C2E1D121D16400126
:104C9000DC164101DA01DA0A420119084101DB00A0
:104CA0005A080319542E552E592EB2315D22A631C1
:104CB000062F40016D08031D5E2E5F2EF42E41016C
:104CC0005B08B031EC20A631062F40016408410199
:104CD000D7000230D736890B6A2E57080F39D90012
:104CE000D22E3F305B05D7004001640803394101F3
:104CF000D8000530D835FF3E031D7A2E58355704AD
:104D00004301E6004001E401E301DD01DD0AE82E94
:104D10003F305B05D7004001640803394101D800EA
:104D20000530D835FF3E031D912E58355704B0315C
:104D3000EC20A631E82E3F305B05D7004001640827
:104D400003394101D8000530D835FF3E031DA42E9C
:104D5000583557044001E200AA306206031DB12E07
:104D6000B22EB42EE301E82EE301E30A0130410143
:104D7000A3000030A400B131DB21A631E82E3F3082
:104D80005B05D7004001640803394101D8000530B4
:104D9000D835FF3E031DC82E583557044301E500A2
:104DA000C601E82E5908D700D8015808003A03195F
:104DB000DA2EE82E5708003A0319712E013A03192A
:104DC000882E033A03199B2E013A0319BF2EE82EB1
:104DD0004001E401062F5B084001E400062F5B0858
:104DE000B031EC20A631E82E41015B08C039D70074
:104DF000D8015808003A0319FE2EEF2E5708803AC2
:104E00000319652E403A0319EB2EEF2E08004001DE
:104E1000B9003908A900AA01A935AA0DA935AA0D1A
:104E2000A935AA0DA935AA0DA935AA0D2908083E4C
:104E3000AB0000302A3DAC002B08AD002C08AE00C2
:104E40000030AE1BFF30AF00B00000302D04F40086
:104E500026302E04F50000302F04F6000030300418
:104E6000F700A9316321A73175084001B600740825
:104E7000B50028083602031D3F2F27083502031806
:104E8000422F432F472F3608A8003508A7002708D0
:104E90002804031D4C2F4D2F502FA501A601FF2FD5
:104EA0003908A900AA01A935AA0DA935AA0DA93565
:104EB000AA0DA935AA0DA935AA0D2908083EAB00EF
:104EC00000302A3DAC002B08AD002C08AE000030AD
:104ED000AE1BFF30AF00B00000302D04F4002830CE
:104EE0002E04F50000302F04F60000303004F700E7
:104EF000A9316321A73175084001B8007408B700D3
:104F0000250826040319852F862FC62F3708A900E8
:104F10003808AA00AB01AC010830A935AA0DAB0DC9
:104F2000AC0D890B8D2F3908AD00AE01AD35AE0D3E
:104F3000AD35AE0DAD35AE0DAD35AE0DAD35AE0DFD
:104F40002D08183EAF0000302E3DB0002F08B100F4
:104F50003008B2000030B21BFF30B300B4002908A3
:104F60003104F4002A083204F5002B083304F6005B
:104F70002C083404F7002608F9002508F800280852
:104F8000FB002708FA00B531DD25A73140012708CD
:104F9000B7072808B83D3908A900AA01A935AA0D04
:104FA000A935AA0DA935AA0DA935AA0DA935AA0DAD
:104FB0002908083EAB0000302A3DAC002B08AD00AC
:104FC0002C08AE000030AE1BFF30AF00B000003048
:104FD0002D04F40028302E04F50000302F04F600D4
:104FE00000303004F7003808F9003708F800B53110
:104FF000A425A73140012808A6002708A50008001D
:105000004101D9000030CA000030CB005808CD0063
:105010005708CC005908A8316320A83141014B083A
:10502000D8004A08D70008004001C6003B08A60087
:105030003A08A5003D08A8003C08A7004608A7318B
:105040000727A83140012608BD002508BC003C0800
:105050003D04031D2C282D283028BA01BB016228ED
:105060004608BE00BF01BE35BF0DBE35BF0DBE3503
:10507000BF0DBE35BF0DBE35BF0D3E08083EC0009A
:1050800000303F3DC1004008C2004108C30000306D
:10509000C31BFF30C400C50004304204F4000130DB
:1050A0004304F50000304404F60000304504F700E6
:1050B0004030F800B5313725A83140013D08BB002C
:1050C0003C08BA0008004101D6004B08B6004A0867
:1050D000B5004D08B8004C08B700560898312A2092
:1050E000A83141013608CD003508CC004C084D04EC
:1050F000031D7B287C287F28CA01CB01B1285608D4
:10510000CE00CF01CE35CF0DCE35CF0DCE35CF0D64
:10511000CE35CF0DCE35CF0D4E08083ED000003035
:105120004F3DD1005008D2005108D3000030D31BAE
:10513000FF30D400D50004305204A70001305304DE
:10514000A80000305404A90000305504AA004030E3
:10515000AB00B6315B26A83141014D08CB004C08AD
:10516000CA00080016304101AA000130AB0001302E
:10517000AC00B031C520A83141012B08AE002A088F
:10518000AD000A30AF000030B000B2319922A83132
:1051900041012E084301EC0041012D084301EB00C1
:1051A00019304101AA000130AB000130AC00B03130
:1051B000C520A83141012A08B9002B08BA00BB015B
:1051C000BC013C08B0003B08AF003A08AE0039080B
:1051D000AD000030B4000030B3000030B2006430E5
:1051E000B100B5310325A831410130084301EA007F
:1051F00041012F084301E90041012E084301E80065
:1052000041012D084301E70098310020A831080032
:1052100000304101C5000030C4000030C300003040
:10522000C2003C083B043A0439040319182919291F
:105230005A29C601C60A27290130B935BA0DBB0D56
:10524000BC0D890B1D290130C1004108C607BC1FD8
:105250002A292B291C290130C235C30DC40DC50DC7
:10526000890B2C293C084002031D40293B083F02C2
:10527000031D40293A083E02031D402939083D021A
:10528000031C432944294D293908BD023A08BE3B75
:105290003B08BF3B3C08C03B42140130BC36BB0C52
:1052A000BA0CB90C890B4E290130C602031D5929CD
:1052B0005A292B294508BC004408BB004308BA0002
:1052C0004208B90008004001A201A20A991274081C
:1052D000F8007508F9007608FA007708FB0010302E
:1052E000FB36FA0CF90CF80C890B70297808E600EB
:1052F0007408F8007508F9007608FA007708FB00D2
:105300000830FB36FA0CF90CF80C890B8129780867
:10531000E7007408E8006630F0000030F100053066
:10532000F2000030F300A0310120A93140019916AC
:105330002408A1002308A0006A08F800F901690800
:10534000FA00FB017A08FB00FA0178087A04A3004E
:1053500079087B04A40022080319AF29B029B229D7
:10536000A201662921082406031DB8292008230666
:10537000031DBB29BC2966292408F5002308F40075
:105380000800430164080319C629C729D629153026
:105390004101B1004B30B000BE30890BCD29B00BBC
:1053A000CD29B10BCD2900004301E40100304101BA
:1053B000AA000030A9000030A8000430A700803007
:1053C000AB00B6315B26A93109304101B1001E3076
:1053D000B000E430890BEA29B00BEA29B10BEA29C5
:1053E00000000A304101B2000030B3000E2A013043
:1053F0004101B2020030B33B320A031D032A330AD3
:10540000031D032A042A052A202AD0304101B000B6
:10541000C930890B092AB00B092A0032003041013A
:10542000AA000030A9000030A8000030A700AB019E
:10543000B6315B26A9318039031D1F2A202AF7299E
:1054400008004101B201B20A400199124101270846
:10545000AB002808AC002908AD002A08AE001030C7
:10546000AE36AD0CAC0CAB0C890B302A2B084001CE
:10547000E60041012708AB002808AC002908AD0070
:105480002A08AE000830AE36AD0CAC0CAB0C890B64
:10549000432A2B084001E700410127084001E800AA
:1054A00066304101A3000030A4000530A5000030A3
:1054B000A600B3319023AA31400199164101340866
:1054C000B1003308B00040016A084101AB00AC01F3
:1054D000400169084101AD00AE012D08AE00AD01EB
:1054E0002B082D04B3002C082E04B4003208031935
:1054F0007A2A7B2A7D2AB201242A31083406031D28
:10550000832A30083306031D862A872A242A340872
:10551000A8003308A70008004101BF00BE2A3F08C9
:10552000B500B601B535B60DB535B60DB535B60D08
:10553000B535B60DB535B60D3508083EB7000030A7
:10554000363DB8003708B9003808BA000030BA1B39
:10555000FF30BB00BC0000303904B00001303A0419
:10556000B10000303B04B20000303C04B300103006
:10557000B400B3311B23AA310130FB2A3F08B50028
:10558000B601B535B60DB535B60DB535B60DB53573
:10559000B60DB535B60D3508083EB7000030363DBE
:1055A000B8003708B9003808BA000030BA1BFF301D
:1055B000BB00BC0000303904A70003303A04A80047
:1055C00000303B04A90000303C04AA00AB01B63116
:1055D0005B26AA314101BD00BE013E08003A031915
:1055E000F22AFA2A3D08003A0319BC2A1C3A031988
:1055F0008F2AFA2A00300800B2317A22AA315401E7
:105600001F16A831B220AA3109304201EC001E3029
:10561000EB00E430890B0A2BEB0B0A2BEC0B0A2B6B
:105620000000003040010E190130ED004501CC01B1
:1056300040016D0803191D2B1E2B252B8E1A212BC3
:10564000222B252B4501CC01CC0A45014C084001F9
:10565000E10003100E1E0314003003180130DF00B8
:1056600000300E1B0130E00060080319382B392B85
:105670003B2B181712134501C601C7010030410129
:10568000A3000130A4000130A500B4314024AA31A8
:105690004501D80158184D2B4E2B512BC801C9017B
:1056A000552B0830C8000030C900B231D922AA31C8
:1056B000FF30410123054201EB0000304101240588
:1056C0004201EC004501480A4201682BEB35EC0D24
:1056D000890B662B6B084501C60642016C08450123
:1056E000C70601304201EB006B084501D8070930BD
:1056F0005802031C7D2B993123294A2BF8015401B0
:105700001D1D832B842B862B40015C1454019D1C92
:105710008A2B8B2B912B1D121D164001DC14F801D6
:10572000F80A54011908FA0078080319982B992BE4
:105730009D2BB2314122AB31082C40016D08031D75
:10574000A22BA32BAA2B7A08F4000130AD313A2505
:10575000AB31082C6303031DAE2BAF2BE02BAA301B
:105760007A06031DB42BB52BE02B3F306C02031CD3
:10577000BA2BBB2BC32BE43000320032890BBC2B7D
:1057800000320032D12B6C08F9007908031DC92BB7
:10579000CA2BCB2BD12B1830890BCC2B0130F90223
:1057A000C52B40016208B031B320AB31023040015B
:1057B000E3007A08F4000130AD313A25AB31082C12
:1057C00002306306031DE52BE62B022C7A086206E5
:1057D000031DEB2BEC2BF32B7A08F4000230AD31D8
:1057E0003A25AB31F92B7A08F4000A30AD313A256D
:1057F000AB314001E3010030F000F100B131532141
:10580000AB31082C7A08F4000130AD313A25AB31C8
:105810000800FC3041019E053F30B131F421AC312C
:1058200000304101D1000030D0000030CF00003006
:10583000CE00D201D3010D30890B1C2C0000BF31EA
:105840009027AC31BF31D027AC31003A0319292C55
:105850002A2C222CBF31A327AC3141012308CE07CB
:105860002408CF3D0030D03DD13D0130D20700307B
:10587000D33D5308803AC90080304902031D422CB1
:105880000A305202031C452C462C1B2C03304101CC
:105890009E040030BC000030BB000030BA000A306B
:1058A000B90043016A084101B000430169084101A0
:1058B000AF00430168084101AE00430167084101A0
:1058C000AD000030B4000030B3000330B200FF3050
:1058D000B100B5310325AC3141013008C0002F08BB
:1058E000BF002E08BE002D08BD00A9310821AC3133
:1058F00041013C08CD003B08CC003A08CB003908F8
:10590000CA005108BC005008BB004F08BA004E083E
:10591000B9004D08C0004C08BF004B08BE004A0843
:10592000BD00A9310821AC3141013A08C80039084D
:10593000C70008003C30B131F421AC3100304101E6
:10594000D8000030D7000030D6000030D500D90193
:10595000DA010D30890BAA2C0000BF319027AC3141
:10596000BF31E627AC31BF31D027AC31003A031943
:10597000BA2CBB2CB32CBF31A327AC314101230877
:10598000D5072408D63D0030D73DD83D0130D90792
:105990000030DA3D5A08803AC90080304902031DC0
:1059A000D32C0A305902031CD62CD72CA92C430126
:1059B0006B084101C90043016C084101CA00CB01D9
:1059C000CC015508CD005608CE005708CF00580826
:1059D000D0000130CD35CE0DCF0DD00D890BEA2C86
:1059E0004908CD024A08CE3B4B08CF3B4C08D03B80
:1059F0005008B0004F08AF004E08AE004D08AD0093
:105A000043016A084101B400430169084101B30040
:105A1000430168084101B200430167084101B10038
:105A2000B5310325AC3141013008D4002F08D30033
:105A30002E08D2002D08D1000030BC003930BB0048
:105A40008130BA009C30B9005408C0005308BF0030
:105A50005208BE005108BD00A9310821AC315A30AE
:105A60004101C90039084902C7003A090318890AE7
:105A7000C8000800F70040015F080319402D412DC0
:105A8000852DBE306E02031C462D472D482DDF2D7F
:105A90006D0803194C2D4D2D582D7703031D512DE5
:105AA000522D632D803074020318572D582D632D0D
:105AB0006E08860002308700740881000130F5000E
:105AC0007508EE07DF2D6E08860002308700740827
:105AD000F5000630F536890B6A2D7708F60001309F
:105AE000F635FF3E031D702D76357504C0388100F4
:105AF0000130F5007508EE076E0886000230870059
:105B000074083F39803881005E2D60080319892DA3
:105B10008A2D992D5E0803198E2D8F2D992D6B08D6
:105B20000319932D942DDF2D8D1C972D982D992DD4
:105B3000DF2DBF31C227AD31003A0319A02DA12DB1
:105B4000A72D400165080319A62DA72DAD2D4E01E7
:105B50001916B2314122AD31DF2D6D080319B12D77
:105B6000B22DBD2D7703031DB62DB72DC22D80306C
:105B700074020318BC2DBD2DC22D7408B031422013
:105B8000AD31DF2D7408F5000630F536890BC52DD3
:105B90007708F6000130F635FF3E031DCB2D763534
:105BA0007504C038B0314220AD3174083F398038B7
:105BB0004301C7004001E501E50A4E01191608003E
:105BC0004101C0004B2E4008B600B701B635B70DF5
:105BD000B635B70DB635B70DB635B70DB635B70D09
:105BE0003608083EB8000030373DB9003808BA0022
:105BF0003908BB000030BB1BFF30BC00BD000030CB
:105C00003A04B00001303B04B10000303C04B20063
:105C100000303D04B3000230B400B3311B23AD317A
:105C20008A2E35080319152E162E492E4008B60067
:105C3000B701B635B70DB635B70DB635B70DB635B4
:105C4000B70DB635B70D3608083EB8000030373D01
:105C5000B9003808BA003908BB000030BB1BFF3060
:105C6000BC00BD0000303A04A7000C303B04A80083
:105C700000303C04A90000303D04AA003508AB0008
:105C80000030AC000430AD000030AE00B631DF268D
:105C9000AD3101308B2E4008B600B701B635B70DD7
:105CA000B635B70DB635B70DB635B70DB635B70D38
:105CB0003608083EB8000030373DB9003808BA0051
:105CC0003908BB000030BB1BFF30BC00BD000030FA
:105CD0003A04A70003303B04A80000303C04A900AC
:105CE00000303D04AA00AB01B6315B26AD31410165
:105CF000BE00BF013F08003A03197F2E8A2E3E08DE
:105D0000133A0319E32D073A03198A2E033A0319AC
:105D1000112E8A2E003008004101AA0040015F08C0
:105D20000319932E942EE02EBE306E02031C992E82
:105D30009A2E9B2E3D2F6D0803199F2EA02EAC2E60
:105D400041012A03031DA52EA62EBA2E803027025C
:105D50000318AB2EAC2EBA2E40016E08860002301E
:105D600087004101270881000130A8002808400170
:105D7000EE073D2F40016E0886000230870041018A
:105D80002708A8000630A836890BC32E2A08A900C8
:105D90000130A935FF3E031DC92E29352804C0381E
:105DA00081000130A80028084001EE076E08860037
:105DB00002308700410127083F3980388100B42E26
:105DC00060080319E42EE52EF42E5E080319E92E6F
:105DD000EA2EF42E6B080319EE2EEF2E3D2F8D1CAC
:105DE000F22EF32EF42E3D2FBF31D727AE31003ADD
:105DF0000319FB2EFC2E022F400165080319012F09
:105E0000022F082F4E011916B2315D22AE313D2FFF
:105E10006D0803190C2F0D2F192F41012A03031DA3
:105E2000122F132F1F2F803027020318182F192F1E
:105E30001F2F41012708B0318320AE313D2F2708A5
:105E4000A8000630A836890B222F2A08A9000130A5
:105E5000A935FF3E031D282F29352804C038B0314D
:105E60008320AE31410127083F3980384301C70004
:105E70004001E501E50A4E01191608000130400114
:105E8000D5070030D63D0030D73D0030D83D5D0805
:105E900003194B2F4C2F812F023055074301E0008F
:105EA00000304001563D4301E10000304001573DC4
:105EB0004301E20000304001583D4301E30040014E
:105EC0006D080319642F652F7E2F43016608013981
:105ED000F4000030AD313A25AF313230F0000030FF
:105EE000F100B1315321AF31023040015D02031C9A
:105EF0007A2F7B2F7E2FB1316921AF314001DD0137
:105F0000A72F4301630840015806031D972F430143
:105F1000620840015706031D972F430161084001A5
:105F20005606031D972F4301600840015506031DC7
:105F30009A2F9B2FA72F00304301E3000030E2008F
:105F40000030E1000030E000B1311421AF314001F8
:105F50006D080319AC2FAD2FFF2F5C080319B12F6B
:105F6000B22FFF2F5F08031DB62FB72FC52FBF31EC
:105F7000C227AF31003A0319BE2FBF2FFF2F4001B8
:105F80006508031DC42FC52FFF2F5C1CC82FC92F08
:105F9000D32FFE30F8007808DC05F4010B30AD316A
:105FA0003A25AF31FF2FDC1CD62FD72FE22FFD3043
:105FB000F8007808DC05F401F40A0B30AD313A251D
:105FC000AF31FF2F5C1EE52FE62FF02FEF30F800EA
:105FD0007808DC05F4010C30AD313A25AF31FF2FE4
:105FE000DC1EF32FF42FFF2FDF30F8007808DC05DC
:105FF000F401F40A0C30AD313A25AF31FF2F08001F
:10600000410124084301C300410123084301C200A8
:106010000800410124084301C10041012308430154
:10602000C0000800A33041019E009F019B019C011C
:1060300001309D000800410124084301EE004101A8
:1060400023084301ED000800430135084101A40085
:10605000430134084101A3000800603051018D0064
:106060008F01910106309300900192010800FF34E6
:10607000FF34FF3400340134003400340034013480
:10608000FF340134F0004E01191E472848284928E2
:106090001912700842019A004E01191608004301B6
:1060A0006D086E040319552856285B286E088A006F
:1060B0006D080A00B03108004F01960102309700C8
:1060C000453098003330990001309A0006309B002B
:1060D00008004101A4002408A300A30DA30D1D087E
:1060E0002306033923069D001D14080041012308DF
:1060F000FF3E4301C800FF304101243D4301C90078
:10610000CA01CB0108004101A3004E01191E8928D4
:106110008A288B2819124101230842019A004E0156
:10612000191608000130450190008F0191010F30D0
:106130008D008C014E019010FF3045018E000F3014
:106140008D000800F0004E01191FA728A828A928D3
:10615000191354019E120D309C009E1670089A006F
:106160004E0119170800F400BF31BB27B031003AC7
:10617000031DBB28BC28C028B2314122B031C4283D
:106180007408B031A220B031080041012A08A300F0
:106190002B08A4002C08A500B4314024B031B23142
:1061A000D922B03141012408AB002308AA0008001D
:1061B0004101A3004E01191FDE28DF28E028191332
:1061C00054019E120D309C009E164101230854017B
:1061D0009A004E01191708004101A700BF31C927D5
:1061E000B031003A031DF528F628FA28B2315D22B5
:1061F000B031FF2841012708B031D820B031080064
:1062000001304301B635B70D890B02290030370242
:10621000413003193602031C0E290F29132940307F
:10622000B6000030B700080040016D08031D1929B1
:106230001A2922290130F0000030F100B131532138
:10624000B13128290030F000F100B1315321B131D2
:10625000080010307D01BB0003307E019B0002303E
:106260007C01A500A601A701A801A9010230AA008E
:10627000AB01AC01AD018030A400080048304B01F7
:106280009F00FF309D009C014E018C12961600303D
:106290004101A3002030A400B0311B20B131803077
:1062A0004B019E0008007108F3007008F200F336FD
:1062B000F20CF336F20C72084601950070080339AF
:1062C000F2000530F235FF3E031D6229723594005D
:1062D00008008B130B130530F1000F30F000F13084
