:100800008431542CAE3401347E1484314E01961E52
:100810000A2C0B2C122C8C1E0E2C0F2C122CB231ED
:100820004F2284310B1F152C162C522C4E01991F70
:100830001A2C1B2C252C8F1F1E2C1F2C252C400105
:1008400057088A0056080A0084314E01191F292CC6
:100850002A2C342C0F1F2D2C2E2C342C4001550803
:100860008A0054080A0084314E01991E382C392C14
:10087000432C8F1E3C2C3D2C432C400153088A00F6
:1008800052080A0084314E01191E472C482C522C64
:100890000F1E4B2C4C2C522C400151088A00500842
:1008A0000A0084317E10090040018431572C9031B8
:1008B00000208431EE00903101208431EF004101AD
:1008C000A03100208431ED00A03101208431EE0000
:1008D000E0308400B0308500E230860001308700CF
:1008E0000930B031762084317C308400B03085000E
:1008F000C0308600023087000630B0317620843167
:100900004E308400003085001C30B03170208431BE
:1009100055308400013085001B30B03170208431A7
:10092000A0308400013085002630B0317020843141
:1009300020308400023085005030B0317020843186
:10094000A0308400023085002030B0317020843126
:100950007E104001AD310A2DE00100304101A700B9
:100960000030A6003930A5000030A400A801A8314D
:100970001C2084314201D20052084301CB000430D4
:100980004B060319C42CC52CEF2C60080319C92C85
:10099000CA2CD32CE00100304101A000A100B231EB
:1009A0007F228431DD2CE001E00A14304101A000F7
:1009B0000030A100B2317F2284310B304201D300DC
:1009C0002630D2005D30890BE32CD20BE32CD30B05
:1009D000E32C00320030883129208431AD2C9C3149
:1009E000C82484314201D20052084301DE000030A5
:1009F0004101A7000030A6001930A5000030A40076
:100A00000430A8000030A900A831FB208431312D2A
:100A10004301600803190D2D0E2D172DE001003044
:100A20004101A000A100B2317F228431212DE001DB
:100A3000E00A14304101A0000030A100B2317F2251
:100A4000843103304201D3000830D2007730890B63
:100A5000272DD20B272DD30B272D003088312920AD
:100A6000843100304101A7000030A6002E30A500DF
:100A70000030A400A801A8311C20843101390319D9
:100A8000422D432D082D43012B084101C60043018F
:100A90002A084101C500430129084101C40043015E
:100AA00028084101C30043015E084201D2005208F8
:100AB0004101C70000309A312A22843143015E0887
:100AC0000319632D642D182E2B08C9002A08C800AD
:100AD0002908C7002808C600DA01DA0AD001122E58
:100AE00049082B06031D7E2D48082A06031D7E2D6E
:100AF00047082906031D7E2D46082806031D812D63
:100B0000822DAF2D5A08031D862D872DAF2D2B0862
:100B10004101C60043012A084101C50043012908DB
:100B20004101C400430128084101C300C701C70AAD
:100B300000309A312A228431AF2D4301D001D00AEE
:100B4000D32D023043012807C6000030293DC700DD
:100B500000302A3DC80000302B3DC900D32D430191
:100B60002B084201C30043012A084201C20043018D
:100B700029084201C100430128084201C000003099
:100B80009E31302684314201D200D3015308003A0D
:100B90000319CB2DD32D5208013A03199D2D033A89
:100BA0000319A12DD32D430160080319D82DD92D88
:100BB000E22DE00100304101A000A100B2317F220E
:100BC0008431EC2DE001E00A14304101A000003036
:100BD000A100B2317F22843106304201D3001330AC
:100BE000D200AD30890BF22DD20BF22DD30BF22DAA
:100BF000003201304201D20052084301DA070830C6
:100C00005A02031C042E052E0E2EDA010130A8070D
:100C10000030A93D0030AA3D0030AB3D00308831A6
:100C200029208431430150080319172E182E702DE6
:100C3000B131E2218431242E00304101A00018306E
:100C4000A100B031AA20843150304101A0002F30E2
:100C5000A100B031C52084318B170B174001DB0197
:100C6000DB0A430131080319362E372ED22FE1015A
:100C70000030D5000030D4000030D3000030D20066
:100C80000030D9000030D8000030D7000030D60046
:100C9000430159085804570456040319502E512E85
:100CA000712E59082B02031D5F2E58082A02031DBE
:100CB0005F2E57082902031D5F2E56082802031CC9
:100CC000622E632E712E0030D9000030D800003023
:100CD000D7000030D6000130B531C0258431430142
:100CE000E10155085404530452040319782E792E57
:100CF000B92E55082B02031D872E54082A02031D06
:100D0000872E53082902031D872E52082802031C30
:100D10008A2E8B2EDE2E0030D5000030D40000301D
:100D2000D3000030D20061080319972E982E9E2E12
:100D30000130B531C02584314301E1012B08410167
:100D4000C60043012A084101C500430129084101A9
:100D5000C400430128084101C30043015E08420169
:100D6000D20052084101C70000309A312A22843152
:100D7000DE2E2B084201C30043012A084201C200B3
:100D8000430129084201C100430128084201C00073
:100D900000309E3130268431023A031DD02ED12EF0
:100DA000DE2E023043012807D2000030293DD30057
:100DB00000302A3DD40000302B3DD50043016108AE
:100DC000031DE32EE42EFE2E0F304101B400273028
:100DD000B500013099310A21843100304101A7006A
:100DE0000030A6002F30A5002C30A400A801A80ACE
:100DF000A8311C2084314301E101E10A6103031D94
:100E0000022F032F202F4101B4010130AE31A22661
:100E10008431003A03190D2F0E2F152F0230420195
:100E2000D20052084301E100202F0130AC311624DA
:100E30008431003A03191D2F1E2F202F4301E10199
:100E40000230430161060319262F272F2D2F03306F
:100E50006106031D2C2F2D2F392F0130AC311624A4
:100E60008431003A0319352F362F392F4301E10120
:100E70006F2F023043016106031D3F2F402F6F2F5C
:100E80000130B631C0268431003A0319482F492F6A
:100E9000602F0130B531F225843103304201D20098
:100EA00052084301E10001302807D6000030293DF7
:100EB000D70000302A3DD80000302B3DD9006F2FDD
:100EC0000130B6312426843141013208330403193C
:100ED0006A2F6B2F6F2F9831002084316F2FA03035
:100EE00041016E024201D20052084301DB005B085F
:100EF00003197B2F7C2FCD2F02306106031D812F1C
:100F0000822F982FA0304201D20052084101C60022
:100F100043015B084201D300D40153084101C700DB
:100F2000420154084101C8000130A23143228431FA
:100F30004E01991343015B0841016E024201D20048
:100F400052084301DF00A0304201D20043015F0894
:100F5000420152020318AD2FAE2FC42FA030410121
:100F6000A0000230A10043015F084101A20002304D
:100F7000A300A03043015F024101A400A501A41B0E
:100F8000A503B4317424843143015F084201D200C7
:100F900052084101EE004E01991700308831292096
:100FA0008431482E41016D080319D72FD82FDF2F28
:100FB0000030A0002830A100B031BC2084310130C5
:100FC000883129208431DF2F8431542C41012108BC
:100FD000A4002008A300F02F0130A0070030A13D9D
:100FE00020088400210885001200031DF82FF92F26
:100FF000EC2F23082002A0002408213BA1000800B8
:101000001B282008860021088700010843018C0066
:101010004E010F1C0C280D2808280F104101200834
:1010200086002108870043010C088100013041013E
:10103000A0070030A13D01304101A2020030A33BD6
:10104000220A031D2728230A031D272828280128F0
:1010500008004101DE0040010E1B2F2830283E28E9
:1010600058080319342835283828B13140218831EF
:101070004001D801D80A4101DE01DE0AA83164200E
:10108000883140015808031D4628472890291D290A
:101090004401A001A00AA101A10AB031A120883118
:1010A00041012108E3002008E2006308D800580845
:1010B0004401A20041016208D80058084401A3007D
:1010C00043013108031D652866286A284101DA01B9
:1010D000DB016F2804304101DA000030DB004301FE
:1010E0003008031D7428752879284101DC01DD01D1
:1010F0007E2808304101DC000030DD006D08031D52
:10110000822884280130852800305C045A04D800E5
:1011100058084401A40005304101D8005808E100F6
:101120003A290030A0000130A1000130A200B43102
:10113000FE2488314101DF01B231F52288314101BD
:101140002108E3002008E2006208D8005F08203E82
:10115000860002308700580881000130D800580806
:10116000DF0709305F02031CB628B7289C28093026
:10117000D8005808E1003A290030A0000030A10052
:101180000130A200B431FE2488314101E001B231C6
:10119000F522883141012108E3002008E2006308BC
:1011A000D8006008203E8600023087005808810081
:1011B0006208D8006008213E860002308700580887
:1011C00081000230D8005808E00708306002031C94
:1011D000EA28EB28C7280830D8005808E1003A2947
:1011E000A0310C20883141014508E3004408E200A9
:1011F0006308D80058084401A00041016208D800E3
:1012000058084401A10002304101D8005808E1000B
:101210003A29AE311126883141014508E3004408DE
:10122000E200F828A1317721883141014508E30027
:101230004408E200F828E1013A296E084101D8008B
:10124000D9015908003A031926291B295808003AE0
:1012500003194828013A03199128033A0319BC28B5
:10126000013A0319F028073A03190929013A031929
:1012700012291B29FF30D80058084001EE00410117
:10128000610803194429452990294001D9014101E8
:101290006108D8005808A2000330AD318D2588318F
:1012A0004301310803195529562976296F29400130
:1012B0005908203E86000230870001084101D8000D
:1012C0005808A2000330AD318D258831013041012D
:1012D000D80058084001D90701304101E10241011D
:1012E0006108031D7429752957297C29410161086A
:1012F000D80058084001DA0041015E08031981292D
:1013000082299029DE0102304101D9000430D80041
:10131000BA30890B8929D80B8929D90B8929000072
:1013200041015E08031995299629A229053041013A
:10133000D9000F30D800F130890B9C29D80B9C299B
:10134000D90B9C29080082304506031DA829A9292C
:10135000B52953304606031DAE29AF29B5296330A0
:1013600047060319B429B529C22941016608640258
:10137000D5006708653BD6006808B1317A2189310C
:1013800093312E2B4101DD01FF3042016B05A0009E
:1013900000306C05A100033020062104031DD12973
:1013A000D329A731202F0030DC000030DB000030D3
:1013B000DA000030D9005C08E0005B08DF005A0862
:1013C000DE005908DD00D1294430C7000230C800D2
:1013D0000130C9000030CA006808A931E82189310C
:1013E000410147084804031DF629F729F929A731C7
:1013F0002C2F0130E6070030E73D4401440842014C
:10140000A00020084101E200620A031D082A092AFF
:101410000A2AF7296208031D0E2A0F2A102AD12949
:101420004430C7000230C8000130C9000030CA0093
:101430006808A931E8218931410147084804031DA2
:10144000222A232A242AF7290130E6070030E73D23
:10145000440144084201A00020084101E300630860
:101460000319332A342A5B2A4430C7000230C800EB
:1014700063084201A000A10120084101C900420106
:1014800021084101CA006808A931E82189314101D8
:1014900063084201A200A30141014808420123065A
:1014A000031D562A41014708420122060319592A01
:1014B0005A2A5B2AF729410163084201A000A101D1
:1014C00020084101E607420121084101E73DA6311C
:1014D000FE2EBA304101A0000130A1004430A2002C
:1014E0000230A3000430A4000030A500B4317424FD
:1014F0008931D129B6304101A0000130A10044302A
:10150000A2000230A3000430A4000030A500B431D2
:1015100074248931D129FF30A0000030A1000030AF
:10152000A2000030A300440144084201A400440189
:1015300045084201A500440146084201A6004401B5
:1015400047084201A7001830A736A60CA50CA40C2A
:10155000890BA42A2408A0052508A1052608A205B0
:101560002708A3050030A800FF30A9000030AA001A
:101570000030AB00440144084201AC00440145087E
:101580004201AD00440146084201AE004401470853
:101590004201AF000830AF36AE0CAD0CAC0C890B7D
:1015A000CB2A2C08A8052D08A9052E08AA052F0866
:1015B000AB050030B0000030B100FF30B2000030A9
:1015C000B300440144084201B4004401450842010B
:1015D000B500440146084201B600440147084201F3
:1015E000B7000830B435B50DB60DB70D890BF22A2A
:1015F0003408B0053508B1053608B2053708B3051B
:101600000030B8000030B9000030BA00FF30BB0035
:10161000440144084201BC00440145084201BD00A8
:10162000440146084201BE00440147084201BF0090
:101630001830BC35BD0DBE0DBF0D890B192B3C08F4
:10164000B8053D08B9053E08BA053F08BB0538088E
:10165000B0043908B1043A08B2043B08B3043008B6
:10166000A8043108A9043208AA043308AB042008EE
:101670002804E10021082904E20022082A04E300EA
:1016800023082B04E400D129440144084201A000AE
:1016900020084101DD00D129BE304101A000013008
:1016A000A1004430A2000230A3000430A4000030A6
:1016B000A500B43174248931D129FF30A000003055
:1016C000A1000030A2000030A30044014408420100
:1016D000A400440145084201A50044014608420116
:1016E000A600440147084201A7001830A736A60CFF
:1016F000A50CA40C890B762B2408A0052508A105B0
:101700002608A2052708A3050030A800FF30A9007D
:101710000030AA000030AB00440144084201AC0094
:10172000440145084201AD00440146084201AE00B3
:10173000440147084201AF000830AF36AE0CAD0C93
:10174000AC0C890B9D2B2C08A8052D08A9052E088B
:10175000AA052F08AB050030B0000030B100FF3003
:10176000B2000030B300440144084201B400440117
:1017700045084201B500440146084201B600440153
:1017800047084201B7000830B435B50DB60DB70DA6
:10179000890BC42B3408B0053508B1053608B205ED
:1017A0003708B3050030B8000030B9000030BA0087
:1017B000FF30BB00440144084201BC00440145081D
:1017C0004201BD00440146084201BE0044014708F1
:1017D0004201BF001830BC35BD0DBE0DBF0D890BD9
:1017E000EB2B3C08B8053D08B9053E08BA053F0893
:1017F000BB053808B0043908B1043A08B2043B0804
:10180000B3043008A8043108A9043208AA04330834
:10181000AB0420082804DD0021082904DE0022088A
:101820002A04DF0023082B04E000D129FF30A000A8
:101830000030A1000030A2000030A30044014408A1
:101840004201A400440145084201A50044014608A4
:101850004201A600440147084201A7001830A736FC
:10186000A60CA50CA40C890B2F2C2408A005250878
:10187000A1052608A2052708A3050030A800FF300F
:10188000A9000030AA000030AB0044014408420126
:10189000AC00440145084201AD0044014608420144
:1018A000AE00440147084201AF000830AF36AE0C2D
:1018B000AD0CAC0C890B562C2C08A8052D08A905DD
:1018C0002E08AA052F08AB050030B0000030B1008B
:1018D000FF30B2000030B300440144084201B400BC
:1018E000440145084201B500440146084201B600E2
:1018F000440147084201B7000830B435B50DB60DB4
:10190000B70D890B7D2C3408B0053508B1053608B4
:10191000B2053708B3050030B8000030B900003018
:10192000BA00FF30BB00440144084201BC0044013E
:1019300045084201BD00440146084201BE00440181
:1019400047084201BF001830BC35BD0DBE0DBF0DAC
:10195000890BA42C3C08B8053D08B9053E08BA051A
:101960003F08BB053808B0043908B1043A08B2048E
:101970003B08B3043008A8043108A9043208AA04BB
:101980003308AB0420082804D90021082904DA0010
:1019900022082A04DB0023082B04DC00D1294101A2
:1019A0006C080F3E86000230870001084201A0004B
:1019B0000430A036890BD92C2008303E4101DD00CF
:1019C000003003180130DE005D084201A000410133
:1019D0006B086C074201A1002108860002308700D5
:1019E000200881000130A00020084101EB076C08AD
:1019F0000F3E8600023087000F3001054201A00033
:101A00000A302002031C052D062D152D41016C08FE
:101A10000F3E86000230870001080F39573EDF0075
:101A2000003003180130E000232D41016C080F3E07
:101A300086000230870001080F39303EDF00003099
:101A400003180130E0005F084201A00041016B086B
:101A50006C074201A100210886000230870020089F
:101A600081000130A00020084101EB076808420115
:101A7000A000410169084201A100A201A3010830B0
:101A8000A035A10DA20DA30D890B402D41016A08BF
:101A90004201A400A501A435A50DA435A50DA435CA
:101AA000A50DA435A50DA435A50D2408103EA6004E
:101AB0000030253DA7002608A8002708A90000300F
:101AC000A91BFF30AA00AB00200828044101A40094
:101AD0004201210829044101A500420122082A04EB
:101AE0004101A600420123082B044101A7006C0814
:101AF000A8000230A9006B084201AC00AD012C081F
:101B00004101AA0042012D084101AB00A931492140
:101B10008C3141016B084201A000A1012008410164
:101B2000E807420121084101E93D5408031D992DB0
:101B30009A2D812EFF3042016B05A00000306C050C
:101B4000A100033020062104031DA72DA82D812EFE
:101B50004101EB0132304201A00041016B086C07EA
:101B60004201A10021088600023087002008810080
:101B70000130A00020084101EB0704304201A00021
:101B800041016B086C074201A10021088600023068
:101B90008700200881000130A00020084101EB07E8
:101BA0006C086B07A0000230A100C230A200013017
:101BB000A3000430A4000030A500B43174248C319B
:101BC00004304201A00020084101EB0736304201F9
:101BD000A00041016B086C074201A10021088600AA
:101BE00002308700200881000130A0002008410158
:101BF000EB0704304201A00041016B086C07420171
:101C0000A1002108860002308700200881000130F1
:101C1000A00020084101EB076C086B07A000023010
:101C2000A100BE30A2000130A3000430A4000030A7
:101C3000A500B43174248C3104304201A000200886
:101C40004101EB0768084201A00041016908420117
:101C5000A100A201A3010830A035A10DA20DA30D82
:101C6000890B2C2E41016A084201A400A501A4356C
:101C7000A50DA435A50DA435A50DA435A50DA43538
:101C8000A50D2408103EA6000030253DA70026081B
:101C9000A8002708A9000030A91BFF30AA00AB004C
:101CA000200828044101A40042012108290441011F
:101CB000A500420122082A044101A600420123088E
:101CC0002B044101A7006C08A8000230A9006B0892
:101CD0004201AC00AD012C084101AA0042012D08CF
:101CE0004101AB00A93149218C3141016B0842010E
:101CF000A000A10120084101E8074201210841019B
:101D0000E93D4101EB0137304201A00041016B0880
:101D10006C074201A10021088600023087002008DC
:101D200081000130A00020084101EB0742016F084B
:101D3000031D9B2E9C2EA22E02304101E10000309B
:101D4000E200A72E04304101E1000030E20061080A
:101D50004201A00041016B086C074201A10021086B
:101D6000860002308700200881000130A000200892
:101D70004101EB076B086C074201A00020088600B8
:101D8000023087008101810A0130A0002008410152
:101D9000EB0703304201A00041016B086C074201D0
:101DA000A100210886000230870020088100013050
:101DB000A00020084101EB0742016F080319E12E42
:101DC000E22E072F3A30A00041016B086C07420158
:101DD000A100210886000230870020088100013020
:101DE000A00020084101EB073B304201A000410167
:101DF0006B086C074201A1002108860002308700B1
:101E0000200881000130A00020084101EB07FF30CD
:101E10004201A00041016B086C074201A1002108AA
:101E2000860002308700200881000130A0002008D1
:101E30004101EB0768084201A00041016908420125
:101E4000A100A201A3010830A035A10DA20DA30D90
:101E5000890B242F41016A084201A400A501A43581
:101E6000A50DA435A50DA435A50DA435A50DA43546
:101E7000A50D2408103EA6000030253DA700260829
:101E8000A8002708A9000030A91BFF30AA00AB005A
:101E9000200828044101A40042012108290441012D
:101EA000A500420122082A044101A600420123089C
:101EB0002B044101A7006C08A8000230A9006B08A0
:101EC0004201AC00AD012C084101AA0042012D08DD
:101ED0004101AB00A93149218C3141016B0842011C
:101EE000A000A10120084101E807420121084101A9
:101EF000E93D6A084201A000A101A035A10DA0356D
:101F0000A10DA035A10DA035A10DA035A10D200872
:101F1000083EA2000030213DA3002208A4002308AF
:101F2000A5000030A51BFF30A600A7000030240448
:101F30004101A4002430420125044101A5000030E4
:101F4000420126044101A60000304201270441015C
:101F5000A7006908A9006808A800A831FB208C31F7
:101F6000410167080319B52FB62FD82F5030A000B4
:101F70000230A1000030A200A3000430A400003011
:101F8000A500A031AC208C3100304101A700003009
:101F9000A6000F30A5000030A4005030A800023089
:101FA000A9000430AA000030AB00A93149218C31CE
:101FB00041016C084201A00020084101C600003028
:101FC000C700C8006A08A23143228C31410167086A
:101FD0000319EB2FEC2FFF2F0030A7000030A600D5
:101FE0000F30A5000030A400C230A8000130A900C5
:101FF0000430AA000030AB00A93149218C3108001F
:10200000FF340134400194119A1105304201D3008C
:102010000F30D200F130890B0B28D20B0B28D30BD9
:102020000B28031040010E1E03140030031801306A
:102030004301B000300803191E281F282028D101B1
:10204000400194129A1243013108031928282928C3
:102050003828B5318F2590310130B431A124903129
:102060000130B23139229031B23198229031A32817
:102070004001181315304201D3004B30D200BE305E
:10208000890B4028D20B4028D30B40280000400188
:10209000181705304201D3000F30D200F130890B00
:1020A0004F28D20B4F28D30B4F2843015108031D53
:1020B0005A285B2890288B2832304101A00000303C
:1020C000A100B2317F229031013088312920903136
:1020D00005304201D3000F30D200F130890B6E2859
:1020E000D20B6E28D30B6E2800304101A000A10056
:1020F000B2317F2290310130883129209031053072
:102100004201D3000F30D200F130890B8528D20B69
:102110008528D30B852840018D188F2890285C28AE
:1021200041016D08031D952896289D28B131B821DD
:102130009031B2310D229031A328B5318F259031E5
:10214000B5315E2590318F304101A0002A30A100C9
:10215000B031D7209031B031572090310930420151
:10216000D3001E30D200E430890BB428D20BB4283F
:10217000D30BB428000000304101A000A100B2310F
:102180007F22903141016D080319C728C828F32820
:102190004301DD0115305D02031CCF28D028D12872
:1021A000082903304201D3000830D2007730890B70
:1021B000D728D20BD728D30BD72843015D0842017B
:1021C000D200D30152084101A0004201530841014D
:1021D000A100B2317F22903101304201D200520879
:1021E0004301DD07CA2809304201D3001E30D20066
:1021F000E430890BF928D20BF928D30BF928000019
:1022000001304101A0000030A100B2317F229031A5
:102210004301DE01310803190F298431AC2C8631CA
:102220001C2E4101EA006A084201A000A101A0356C
:10223000A10DA035A10DA035A10DA035A10DA03592
:10224000A10D2008083EA2000030213DA300220875
:10225000A4002308A5000030A51BFF30A600A7009E
:10226000003024044101A40024304201250441012E
:10227000A5000030420126044101A60000304201C1
:1022800027044101A700AB31A52391314101250865
:10229000E9002408E80044304201A0002008410180
:1022A000EC006C08A0000230A1000030A200A300E6
:1022B0002C30A4000030A500A031AC2091314401A5
:1022C000C401C40AC501C50A06304201A0002008A5
:1022D0004401C600C701FF304201A0000030A10048
:1022E0000030A2000030A3006508A4006608A50025
:1022F0006708A6006808A7001830A736A60CA50C2A
:10230000A40C890B7D292408A0052508A105260811
:10231000A2052708A3050030A800FF30A90000305F
:10232000AA000030AB006508AC006608AD00670885
:10233000AE006808AF000830AF36AE0CAD0CAC0C88
:10234000890B9C292C08A8052D08A9052E08AA058B
:102350002F08AB050030B0000030B100FF30B200F4
:102360000030B3006508B4006608B5006708B60021
:102370006808B7000830B435B50DB60DB70D890B38
:10238000BB293408B0053508B1053608B205370851
:10239000B3050030B8000030B9000030BA00FF309B
:1023A000BB006508BC006608BD006708BE00680881
:1023B000BF001830BC35BD0DBE0DBF0D890BDA292D
:1023C0003C08B8053D08B9053E08BA053F08BB05FD
:1023D0003808B0043908B1043A08B2043B08B30421
:1023E0003008A8043108A9043208AA043308AB0451
:1023F000200828044401C80042012108290444019E
:10240000C900420122082A044401CA0042012308EB
:102410002B044401CB004101E301430123082204C2
:10242000210420040319152A162A292A42016008CA
:10243000031D252A5F08031D252A5E08031D252A82
:102440003C305D020318252A262A292A4101E3018E
:10245000E30A41016308031D2E2A302A0130312A84
:1024600000304201A00020084101D400E401E40A48
:10247000430123082204210420040319402A412A8D
:10248000512A42015C08031D512A5B08031D512A91
:102490005A08031D512A3C305902031C502A512A64
:1024A000602AFF3042016B05A00000306C05A100DE
:1024B0002003210403195D2A5E2A602A4101E401F8
:1024C00041016408031D652A672A0130682A00302B
:1024D0004201A00020084101E70042016F080319F2
:1024E000722A732A772AEC1C762A772A8D2A503092
:1024F0004101A0000230A100C230A2000130A300BF
:102500000430A4000030A500B4317424913141019D
:10251000670803198C2A8D2A922A80304401CE0044
:102520000030CF0000304101A7000030A600093084
:10253000A5000030A4006030A8000230A9000630D9
:10254000AA000030AB00A831AE20913141016808EB
:102550004201A000410169084201A100A201A301BA
:102560000830A035A10DA20DA30D890BB12A4101A0
:102570006A084201A400A501A435A50DA435A50D46
:10258000A435A50DA435A50DA435A50D2408103E30
:10259000A6000030253DA7002608A8002708A900AE
:1025A0000030A91BFF30AA00AB002008280441011D
:1025B000A4004201210829044101A500420122088A
:1025C0002A044101A600420123082B044101A7006F
:1025D0006C08A8000230A9002C30AA000030AB0023
:1025E000A931492191312C304101E8070030E93D02
:1025F0006C08A0000230A1000030A200A30020302F
:10260000A4000030A500A031AC2091314101E501CA
:10261000E6016608803A4201A00080302002031DD6
:10262000142B063041016502031C182B9531462DF1
:102630009531472D4101E8006808B63124269331D1
:1026400041013308DA003208D90000305A0208305C
:102650000319590203182D2B2E2B312BFF30A731D4
:10266000FD2F4430C7000230C8000830C9000030D8
:10267000CA006808A931E821933141014808E70000
:102680004708E600003067020830031966020318A5
:102690004A2B4B2B4C2B2E2B440149084201A00006
:1026A000A101440148084201A200A3012208A3009D
:1026B000A201200822044101DB0042012108230479
:1026C0004101DC0044014B084201A000A10144018A
:1026D0004A084201A200A3012208A300A201200887
:1026E00022044101E4004201210823044101E500E4
:1026F000003065022C3003196402031C802B812BEF
:10270000882B43305B065C040319872B882B912BA5
:102710006508D6006408D5006808B1317A21933184
:102720002E2B4430C7000230C8002C30C9000030C6
:10273000CA006808A931E821933141014808E7003F
:102740004708E600003067022C30031966020318C0
:10275000AA2BAB2BB62B66086402D5006708653B35
:10276000D6006808B1317A2193312E2B0230440112
:1027700044060319BC2BBD2BC92B4101660864021A
:10278000D5006708653BD6006808B1317A219331DE
:102790002E2BFF304201A0000030A1000030A2002B
:1027A0000030A300440148084201A4004401490844
:1027B0004201A50044014A084201A60044014B0819
:1027C0004201A7001830A736A60CA50CA40C890B53
:1027D000E32B2408A0052508A1052608A205270843
:1027E000A3050030A800FF30A9000030AA00003087
:1027F000AB00440148084201AC00440149084201D1
:10280000AD0044014A084201AE0044014B084201B8
:10281000AF000830AF36AE0CAD0CAC0C890B0A2CF7
:102820002C08A8052D08A9052E08AA052F08AB0518
:102830000030B0000030B100FF30B2000030B30013
:10284000440148084201B400440149084201B5006E
:1028500044014A084201B60044014B084201B70056
:102860000830B435B50DB60DB70D890B312C3408D1
:10287000B0053508B1053608B2053708B305003094
:10288000B8000030B9000030BA00FF30BB0044018E
:1028900048084201BC00440149084201BD0044010E
:1028A0004A084201BE0044014B084201BF001830F3
:1028B000BC35BD0DBE0DBF0D890B582C3C08B805AD
:1028C0003D08B9053E08BA053F08BB053808B00405
:1028D0003908B1043A08B2043B08B3043008A8042C
:1028E0003108A9043208AA043308AB0420082804DC
:1028F0004101DE004201210829044101DF004201BB
:1029000022082A044101E000420123082B0441016E
:10291000E1004301270841016102031D9F2C43018F
:10292000260841016002031D9F2C43012508410137
:102930005F02031D9F2C4301240841015E02031C1A
:10294000A22CA32CBC2C610842016802031DB82CE8
:102950004101600842016702031DB82C41015F0874
:1029600042016602031DB82C41015E084201650266
:102970000318BB2CBC2CC82C410166086402D5008E
:102980006708653BD6006808B1317A2193312E2B58
:10299000410158088600013087005E08C03F5F088B
:1029A000C13F6008C23F6108C33F0030A70000304C
:1029B000A6000930A5000030A4006630A80002304F
:1029C000A9000630AA000030AB00A831AE20933138
:1029D00066304201A00020084101A0000630A1009D
:1029E0000030A2006030B7317827933141012008D0
:1029F00021040319FC2CFD2C082D66086402D50067
:102A00006708653BD6006808B1317A2193312E2BD7
:102A100042016F0803190D2D0E2D1E2DC2304101EC
:102A2000A0000130A1005430A2000230A300043005
:102A3000A4000030A500B43174249331C0304101AA
:102A4000D5000030D6006808B1317A2193314101B8
:102A50005508E6075608E73D4430C7000230C80075
:102A60000430C9000030CA006808A931E821933158
:102A700041014708E6074808E73D63304401440642
:102A8000031D442D8931A3298931B5299F2D410189
:102A900068084201A000410169084201A100A201A9
:102AA000A3010830A035A10DA20DA30D890B522D55
:102AB00041016A084201A400A501A435A50DA43571
:102AC000A50DA435A50DA435A50DA435A50D240887
:102AD000103EA6000030253DA7002608A8002708C4
:102AE000A9000030A91BFF30AA00AB002008280471
:102AF0004101A4004201210829044101A50042012D
:102B000022082A044101A600420123082B044101A6
:102B1000A7006C08A8000230A9002030AA000030ED
:102B2000AB00A9314921953120304101E80700303F
:102B3000E93D0130E5070030E63D9331092B4101C5
:102B4000EB0163304201A00041016B086C074201B8
:102B5000A100210886000230870020088100013092
:102B6000A00020084101EB0782304201A000410192
:102B70006B086C074201A100210886000230870023
:102B8000200881000130A00020084101EB075330EC
:102B90004201A00041016B086C074201A10021081D
:102BA000860002308700200881000130A000200844
:102BB0004101EB0763304201A00041016B086C0743
:102BC0004201A10021088600023087002008810010
:102BD0000130A00020084101EB0735304201A00080
:102BE00041016B086C074201A100210886000230F8
:102BF0008700200881000130A00020084101EB0778
:102C00006B086C074201A000200886000230870094
:102C10008101810A0130A00020084101EB07420137
:102C20006B08A00041016B086C074201A10021085C
:102C3000860002308700200881000130A0002008B3
:102C40004101EB073D304201A00041016B086C07D8
:102C50004201A1002108860002308700200881007F
:102C60000130A00020084101EB0707304201A0001D
:102C700041016B086C074201A10021088600023067
:102C80008700200881000130A00020084101EB07E7
:102C90006B086C074201A000200886000230870004
:102CA0008101810A0130A00020084101EB070030BA
:102CB000A7000030A6000930A5000030A4006C0871
:102CC0006B07A8000230A9000630AA000030AB0054
:102CD000A831AE20953106304201A0002008410104
:102CE000EB070C304201A00041016B086C07420168
:102CF000A1002108860002308700200881000130F1
:102D0000A00020084101EB070030A000B830A1006E
:102D10008731E627953141012008063E4201A00097
:102D200041016B086C074201A100210886000230B6
:102D30008700200881000130A00020084101EB0736
:102D40000030A000B830A1006C086B07B331372306
:102D5000953100304101A000B830A1008731E6274D
:102D60009531410120084201A00020084101EB07F4
:102D70006C080D3E86000230870001084201A00069
:102D80000430A036890BC12E0A302002031CC92E44
:102D9000CA2EE02E41016C080D3E860002308700ED
:102DA00001084201A0000430A036890BD42E20086F
:102DB000573E4101D500003003180130D600F52EF2
:102DC00041016C080D3E8600023087000108420177
:102DD000A0000430A036890BEA2E2008303E4101C5
:102DE000D500003003180130D60055084201A0007C
:102DF00041016B086C074201A100210886000230E6
:102E00008700200881000130A00020084101EB0765
:102E10006C080D3E8600023087000F30010542012C
:102E2000A0000A302002031C162F172F262F410165
:102E30006C080D3E86000230870001080F39573EAE
:102E4000D700003003180130D800342F41016C083E
:102E50000D3E86000230870001080F39303ED70052
:102E6000003003180130D80057084201A00041018A
:102E70006B086C074201A100210886000230870020
:102E8000200881000130A00020084101EB076C08F8
:102E90000E3E86000230870001084201A000043087
:102EA000A036890B502F0A302002031C582F592FAF
:102EB0006F2F41016C080E3E86000230870001082A
:102EC0004201A0000430A036890B632F2008573E32
:102ED0004101D900003003180130DA00842F41018C
:102EE0006C080E3E86000230870001084201A000F7
:102EF0000430A036890B792F2008303E4101D900DB
:102F0000003003180130DA0059084201A0004101E5
:102F10006B086C074201A10021088600023087007F
:102F2000200881000130A00020084101EB076C0857
:102F30000E3E8600023087000F3001054201A000DE
:102F40000A302002031CA52FA62FB52F41016C08C3
:102F50000E3E86000230870001080F39573EDB0025
:102F6000003003180130DC00C32F41016C080E3E15
:102F700086000230870001080F39303EDB00003048
:102F800003180130DC005B084201A00041016B081E
:102F90006C074201A100210886000230870020084A
:102FA00081000130A00020084101EB076C080F3EB2
:102FB00086000230870001084201A0000430A036DC
:102FC000890BDF2F0A302002031CE72FE92F8C31F9
:102FD000CF2C41016C080F3E8600023087000108AB
:102FE0004201A0000430A036890BF32F2008573E81
:102FF0004101DD00003003180130DE008C31E42C8B
:103000007E1C0428A631042E4101D9014301310858
:1030100003190B280C282128DA304101C7000030A1
:10302000C8000130C9000030CA000130A931E821D0
:10303000983141014703480403191F2820284D28CF
:10304000092942011D1D25282628312841016D0826
:1030500003192B282C283128A2010C30AD318D25E5
:10306000983142019D1C3528362847281D121D160F
:1030700041016D0803193D283E284428A201A20AF7
:103080000C30AD318D2598314101D901D90A420169
:1030900019084101D5005508DA00590803195128CB
:1030A00052285628B2312322983109296D08031D70
:1030B0005A285B28F8285A08B6318B2698310929F6
:1030C00040015E084101D5000230D536890B6528E4
:1030D00055080F39D6005608D800D4283F305A0575
:1030E000D50040015E0803394101D6000530D635D0
:1030F000FF3E031D772856355504D7005708400179
:10310000EF00DE01DD01DB01DB0AEA283F305A0572
:10311000D50040015E0803394101D6000530D6359F
:10312000FF3E031D8F2856355504B6318B26983146
:10313000EA283F305A05D50040015E0803394101B5
:10314000D6000530D635FF3E031DA228563555045E
:10315000D70057084001DC00AA305C06031DB128E7
:10316000B228B428DD01EA28DD01DD0A0130410181
:10317000A0000030A100B2317F229831EA283F3010
:103180005A05D50040015E0803394101D6000530DB
:10319000D635FF3E031DC82856355504D7005708BD
:1031A0004001EE00DA01EA285808D500D601560899
:1031B000003A0319DC28EA285508003A03196E285A
:1031C000013A03198628033A03199928013A031989
:1031D000BF28EA284001DE0109295A08D500550810
:1031E0004001DE0009295A08B6318B269831EA28B9
:1031F0005A08C039D500D6015608003A03190129EA
:10320000F3285508803A03196028403A0319ED283D
:10321000F32808004101BF003F08B600B701B635EA
:10322000B70DB635B70DB635B70DB635B70DB635E2
:10323000B70D3608083EB8000030373DB9003808F1
:10324000BA003908BB000030BB1BFF30BC00BD001A
:1032500000303A04A40004303B04A50000303C04D4
:10326000A60000303D04A7003508A9003408A800D6
:10327000A831FB20993141013F08B600B701B635AE
:10328000B70DB635B70DB635B70DB635B70DB63582
:10329000B70D3608083EB8000030373DB900380891
:1032A000BA003908BB000030BB1BFF30BC00BD00BA
:1032B00004303A04A40002303B04A50000303C0472
:1032C000A60000303D04A7000A30BE003E08A8005A
:1032D000A8311C20993141013F08B600B701B6352D
:1032E000B70DB635B70DB635B70DB635B70DB63522
:1032F000B70D3608083EB8000030373DB900380831
:10330000BA003908BB000030BB1BFF30BC00BD0059
:1033100000303A04AE0001303B04AF0000303C0402
:10332000B00000303D04B1001030BE003E08B200D5
:10333000B331A223993141013F08B600B701B63538
:10334000B70DB635B70DB635B70DB635B70DB635C1
:10335000B70D3608083EB8000030373DB9003808D0
:10336000BA003908BB000030BB1BFF30BC00BD00F9
:1033700004303A04A40000303B04A50000303C04B3
:10338000A60000303D04A700A801A80AA8311C200F
:10339000993141013F08B600B701B635B70DB635D2
:1033A000B70DB635B70DB635B70DB635B70D36080E
:1033B000083EB8000030373DB9003808BA00390877
:1033C000BB000030BB1BFF30BC00BD0000303A0426
:1033D000AE0001303B04AF0000303C04B0000030D0
:1033E0003D04B100B201B20AB331A22399314101C7
:1033F0003F08B600B701B635B70DB635B70DB635CF
:10340000B70DB635B70DB635B70D3608083EB8005E
:103410000030373DB9003808BA003908BB00003029
:10342000BB1BFF30BC00BD0000303A04A4000330D9
:103430003B04A50000303C04A60000303D04A7007A
:10344000A801A8311C209931133A031D282A292AE2
:103450003B2908004101D100C230A0000130A10089
:10346000FF30A2000030A3000430A4000030A5000B
:10347000A031AC209A31BE304101A0000130A10042
:103480000030A200A3000430A4000030A500A03149
:10349000AC209A3141015108C800C901C835C90D95
:1034A000C835C90DC835C90DC835C90DC835C90DD0
:1034B0004808083ECA000030493DCB004A08CC000D
:1034C0004B08CD000030CD1BFF30CE00CF000430C4
:1034D0004C04A4001F304D04A50000304E04A6008B
:1034E00000304F04A7000230D0005008A800A831D7
:1034F0001C209A3141015108C800C901C835C90DC5
:10350000C835C90DC835C90DC835C90DC835C90D6F
:103510004808083ECA000030493DCB004A08CC00AC
:103520004B08CD000030CD1BFF30CE00CF00043063
:103530004C04A4001E304D04A50000304E04A6002B
:1035400000304F04A7000230D0005008A800A83176
:103550001C209A3144304101B4000030B500C23023
:10356000C8004808B6004330B7000030B800510822
:103570009B3172239A31A83164209A31FF30410186
:103580003605C8000F303705C9004808CA00490889
:10359000CB000030CB1BFF30CC00CD0000304A0602
:1035A0004201E500503041014B064201E600B030D7
:1035B00041014C064201E700AE3041014D06420197
:1035C000E80068084301A700420167084301A6001C
:1035D000420166084301A500420165084301A400B9
:1035E00041014708C80048084201EF00410147086F
:1035F0000319FB2AFC2A142BC230A0000130A100C1
:103600000030A200A3000430A4000030A500A031C7
:10361000AC209A3101304201EB000030EC00043064
:10362000E9000030EA00302B0030A7000030A6008F
:103630000F30A5000030A400C230A8000130A9005E
:103640000430AA000030AB00A831AE209A31083017
:103650004201EB000030EC004030E9000030EA00AD
:10366000BA304101A0000130A100FF30A2000030BB
:10367000A3000430A4000030A500A031AC209A3192
:10368000B6304101A0000130A1000030A200A3002B
:103690000430A4000030A500A031AC209A310030E5
:1036A0004201DC000030DB000030DA000030D900DD
:1036B0005C08E0005B08DF005A08DE005908DD0006
:1036C0006008E4005F08E3005E08E2005D08E100D6
:1036D00000304301A3000030A2000030A100003000
:1036E000A00008004101C2004208B900BA01B93582
:1036F000BA0DB935BA0DB935BA0DB935BA0DB935F6
:10370000BA0D3908083EBB0000303A3DBC003B080A
:10371000BD003C08BE000030BE1BFF30BF00C00033
:1037200000303D04A40004303E04A50000303F04F6
:10373000A60000304004A7003508A9003408A800FE
:10374000A831FB209B3141014208B900BA01B935CB
:10375000BA0DB935BA0DB935BA0DB935BA0DB93595
:10376000BA0D3908083EBB0000303A3DBC003B08AA
:10377000BD003C08BE000030BE1BFF30BF00C000D3
:1037800000303D04A4000C303E04A50000303F048E
:10379000A60000304004A7003608A8000130A900A8
:1037A0000430AA000030AB00A93149219B3141010E
:1037B0004208B900BA01B935BA0DB935BA0DB935F3
:1037C000BA0DB935BA0DB935BA0D3908083EBB0086
:1037D00000303A3DBC003B08BD003C08BE00003054
:1037E000BE1BFF30BF00C00000303D04A4001030FD
:1037F0003E04A50000303F04A60000304004A700AE
:103800003808A9003708A800A831FB209B314101E6
:103810004208B900BA01B935BA0DB935BA0DB93592
:10382000BA0DB935BA0DB935BA0D3908083EBB0025
:1038300000303A3DBC003B08BD003C08BE000030F3
:10384000BE1BFF30BF00C00000303D04AE000130A1
:103850003E04AF0000303F04B00000304004B1002F
:103860001030C1004108B200B331A2239B314101A5
:103870004208B900BA01B935BA0DB935BA0DB93532
:10388000BA0DB935BA0DB935BA0D3908083EBB00C5
:1038900000303A3DBC003B08BD003C08BE00003093
:1038A000BE1BFF30BF00C00004303D04A400003048
:1038B0003E04A50000303F04A60000304004A700ED
:1038C0000230C1004108A800A8311C209B314101F1
:1038D0004208B900BA01B935BA0DB935BA0DB935D2
:1038E000BA0DB935BA0DB935BA0D3908083EBB0065
:1038F00000303A3DBC003B08BD003C08BE00003033
:10390000BE1BFF30BF00C00000303D04AE000130E0
:103910003E04AF0000303F04B00000304004B1006E
:10392000B201B20AB331A2239B3141014208B9006E
:10393000BA01B935BA0DB935BA0DB935BA0DB935BF
:10394000BA0DB935BA0D3908083EBB0000303A3D12
:10395000BC003B08BD003C08BE000030BE1BFF3071
:10396000BF00C00000303D04A40003303E04A500A9
:1039700000303F04A60000304004A700A801A83191
:103980001C209B31223A031DC62CC72C072C080093
:10399000C030860002308700B530840000308500DA
:1039A00006304101B10016001A00B10BD32C0030D3
:1039B000CC000030CB000030CA000030C900430109
:1039C00065084101BE00430164084101BD00430197
:1039D00063084101BC00430162084101BB000030A3
:1039E000A0000030A1000130A200B431FE249C31BF
:1039F0004101C801C80AD201D101B231F5229C317E
:103A000041012108CE002008CD005108031D092DD9
:103A10000A2D1C2D4E08B1003108C700C71A112D00
:103A2000132D0130142D0030B1003108C8004708B3
:103A30001F39B1003108D2004D08B1005108C93E0C
:103A4000860087013108810051080319282D292D8E
:103A5000372D4808031D2D2D2E2D372D4D08B10073
:103A60005108023EB53E86008701310881000130D1
:103A7000B1003108D10704305102031C402D412D03
:103A8000FD2C48080319452D462D6C2D0630A0004D
:103A90000130A1000130A200B431FE249C3141016B
:103AA000CF01B231F5229C3141012108C00020082C
:103AB000BF003F08B1004F08033EB53E86008701B6
:103AC000310881000130B1003108CF0703304F02C7
:103AD000031C6B2D6C2D512D0030A7000030A6006B
:103AE0000930A5000030A400B530A8000030A900BE
:103AF0000630AA000030AB00A93149219C311F30AB
:103B0000410152060319852D862D8E2D4A084B043E
:103B10004C044904031D8D2D8E2D902D01302F2E28
:103B20000030A7000030A6000F30A5000030A40030
:103B3000C930A8000030A9000430AA000030AB0052
:103B4000A93149219C314101D001083052020318AA
:103B5000AA2DAB2DD02D52080319AF2DB02DC92D94
:103B60000130B1000030B2005208083C890ABA2D79
:103B7000B135B20D890BB82D3108FF3EB300FF30CF
:103B8000323DB400FF303306C30000303406C400B9
:103B9000CB2DC301C4014408C2004308C100D42D89
:103BA000FF30C1000030C2004108B1005008BB3EE8
:103BB00086008701310881005008BB3E86008701DE
:103BC0000108B1005008C93E86008701310881050F
:103BD000083052020318ED2DEE2DF12DC501C6015E
:103BE000F82D5208F83EC500FF3003180030C6001B
:103BF0004508B1003108D2000130B1003108D007CA
:103C000004305002031C052E062EA52D0030A700FF
:103C10000030A6000530A5000030A400BB30A8008D
:103C20000030A9000430AA000030AB00A9314921BE
:103C30009C3141014C140030A7000030A600013037
:103C4000A5000030A400C930A8000030A90004304D
:103C5000AA000030AB00A93149219C310030080096
:103C60004201CC0000304101A7000030A6002E30F8
:103C7000A5000030A400A801A8311C209E31013904
:103C8000031D432E442E462E0230FF2F42015808BA
:103C900057045604550403194E2E4F2ED32E5808A0
:103CA0004302031D5D2E57084202031D5D2E560878
:103CB0004102031D5D2E55084002031C602E612E3B
:103CC000D32E6F080319652E662ECE2E00306A02A1
:103CD000403003196902031C6E2E6F2ECE2E023067
:103CE0006B06031D772E6C03031D772E782E832E13
:103CF00000304201D8000030D7000030D60000303C
:103D0000D5000230FF2F03306B06033003196C0619
:103D100003198B2E8C2E8D2E782E6408031D9B2E5E
:103D20006308031D9B2E6208031D9B2E3C3061021D
:103D300003189B2E9C2E9D2E782E01304201E036DA
:103D4000DF0CDE0CDD0C890B9E2E0130DC36DB0C2B
:103D5000DA0CD90C890BA62E0130E436E30CE20C08
:103D6000E10C890BAD2E40085D07C40041085E3DA3
:103D7000C50042085F3DC6004308603DC7004708D4
:103D80004301A300420146084301A2004201450845
:103D90004301A100420144084301A000FF30420159
:103DA000EB05FE30EC056C18D62ED72EFE2E4C08F7
:103DB000913111219E3142016C144008C400410828
:103DC000C5004208C6004308C7006908C8006A0861
:103DD000C900CA01CB014808C4074908C53D4A08C3
:103DE000C63D4B08C73D4708D8004608D7004508E0
:103DF000D6004408D500B13166219E3142016808E1
:103E0000D0006708CF006608CE006508CD004D30B1
:103E1000C40044084101D80042014C0893311A23E0
:103E20009E314201C5004508D100510A031D192FDA
:103E30001A2FE62FFF30FF2F02305106031D212FCE
:103E4000222F2F2F5008E8004F08E7004E08E60009
:103E50004D08E5000330EB000030EC00FE2F013090
:103E6000EB000030EC00FE2F05305106031D392F0A
:103E70003A2FBF2F5008E8004F08E7004E08E60031
:103E80004D08E50000304101A7000030A6000F30CA
:103E9000A5000030A400C230A8000130A900043001
:103EA000AA000030AB00A93149219E310030410108
:103EB000A7000030A6000530A5000030A400BA30ED
:103EC000A8000130A9000430AA000030AB00A931DD
:103ED00049219E3100304101A7000030A600013089
:103EE000A5000030A400B630A8000130A9000430BD
:103EF000AA000030AB00A93149219E31420143089C
:103F0000D8004208D7004108D6004008D500600814
:103F1000031D952F5F08031D952F5E08031D952F28
:103F20003C305D020318952F962FA02F3C304201A4
:103F3000D5070030D63D0030D73D0030D83DA92F01
:103F400042015D08D5075E08D63D5F08D73D600891
:103F5000D83D58084301A300420157084301A2007D
:103F6000420156084301A100420155084301A00047
:103F700003304201EB000330EC000130FF2F06302C
:103F80005106031DC42FC52FC62F2F2F0330EB0062
:103F90000030EC00FE2F05305106031DD02FD12F2D
:103FA000FE2F5008E8004F08E7004E08E6004D08D5
:103FB000E5003C304007D5000030413DD6000030E0
:103FC000423DD7000030433DD800FE2F6C08013A37
:103FD0000319EE2F023A0319F92FFE2F6B08013A4D
:103FE00003191C2F023A0319342F0B3A0319CB2F54
:103FF000FE2F6B08033A0319342FFE2F0030080000
:104000000134A034603051018D008F0191010630E0
:1040100093009001920108003C30B2316622A03139
:1040200000304101D5000030D4000030D300003012
:10403000D200D601D7010D30890B1C280000B03109
:104040005420A031B0318920A031B0318220A0317C
:10405000003A03192C282D282528B0315E20A031E4
:1040600041012008D2072108D33D0030D43DD53D81
:104070000130D6070030D73D5708803AC60080305F
:104080004602031D45280A305602031C48284928C9
:104090001B2843016B084101C60043016C08410124
:1040A000C700C801C9015208CA005308CB00540810
:1040B000CC005508CD000130CA35CB0DCC0DCD0D4F
:1040C000890B5C284608CA024708CB3B4808CC3B12
:1040D0004908CD3B4D08AD004C08AC004B08AB0087
:1040E0004A08AA0040016D084101B10040016C0876
:1040F0004101B00040016B084101AF0040016A0876
:104100004101AE00B6315726A03141012D08D10042
:104110002C08D0002B08CF002A08CE000030B900B0
:104120003930B8008130B7009C30B6005108BD006E
:104130005008BC004F08BB004E08BA00AA31E62266
:10414000A0315A304101C60036084602C400370982
:104150000318890AC500080041012108AD002008A4
:10416000AC0024082504031DB628B728B8287629F2
:104170002C0886002D0887002208810024082C07BF
:10418000A60025082D3DA7002608FF3EA800FF3009
:10419000273DA900280886002908870022088100F9
:1041A000003025020330031924020318D828D92827
:1041B000DA2876292C08013EA60000302D3DA70004
:1041C0002608860027088700220881002C08023E66
:1041D000A60000302D3DA70026088600270887008E
:1041E0002208810024082C07A60025082D3DA700E1
:1041F0002608FE3EA800FF30273DA90028088600BB
:10420000290887002208810024082C07A600250819
:104210002D3DA7002608FD3EA800FF30273DA90040
:10422000280886002908870022088100003025021E
:1042300007300319240203181E291F292029762973
:104240002C08033EA60000302D3DA700260886005E
:10425000270887002208810024082C07A6002508CB
:104260002D3DA7002608FC3EA800FF30273DA900F1
:1042700028088600290887002208810000302502CE
:1042800009300319240203184629472948297629A9
:104290002C09A6002D09A700A60A0319A70A0330B6
:1042A0002605AA0000302705AB002A08AC072B081A
:1042B000AD3D2A08A4022B08A53BFC30A405FF3025
:1042C000A50570292C0886002D088700220881008A
:1042D0000130A4020030A53B0130AC070030AD3DF9
:1042E00024082504031D7529762962290800023057
:1042F000B2316622A131FF304101CD00FF30CE0046
:10430000CF01D001CB01CC01B0315420A131B0316B
:104310008220A131003A03198E298F298729B031D3
:104320005E20A13141012108D2002008D1004E08B1
:104330005202031D9D294D0851020318A029A129ED
:10434000A5295208CE005108CD0052085002031D85
:10435000AB2951084F020318AE29AF29B3295208DF
:10436000D0005108CF000130CB070030CC3D4C08C5
:10437000803AC60092304602031DC0291C304B0211
:10438000031CC329C429842900304101B9000D3020
:10439000B800B130B7005830B6004D08AA004E083A
:1043A000AB00AC01AD0140016D084101B10040011D
:1043B0006C084101B00040016B084101AF004001B1
:1043C0006A084101AE00B6315726A13141012D08DE
:1043D000BD002C08BC002B08BB002A08BA00AA317B
:1043E000E622A131410136080B3ECD000030373DB9
:1043F000CE000030B9000D30B800B130B7005830F1
:10440000B6004F08AA005008AB00AC01AD01400156
:104410006D084101B10040016C084101B00040014C
:104420006B084101AF0040016A084101AE00B6319E
:104430005726A13141012D08BD002C08BC002B08D6
:10444000BB002A08BA00AA31E622A1314101360890
:104450000B3ECF000030373DD000FF304D05C60089
:1044600000304E05C700FF304F05C8000030500532
:10447000C9004808C900C80146084804C4004708E4
:104480004904C50008004101D30047084804031946
:104490004A2A4B2A5D2A4608C9004908B200480842
:1044A000B4004708B3005308A3312623A231003AD1
:1044B000031D5B2A5C2A5D2A252B41015308C90094
:1044C000CA01C935CA0DC935CA0DC935CA0DC935A4
:1044D000CA0DC935CA0D4908083ECB0000304A3D17
:1044E000CC004B08CD004C08CE000030CE1BFF3076
:1044F000CF00D00000304D04AE0001304E04AF00BC
:1045000000304F04B00000305004B1002030D10022
:104510005108B200B331A223A23141015308C900AE
:10452000CA01C935CA0DC935CA0DC935CA0DC93543
:10453000CA0DC935CA0D4908083ECB0000304A3DB6
:10454000CC004B08CD004C08CE000030CE1BFF3015
:10455000CF00D00000304D04A40002304E04A5006E
:1045600000304F04A60000305004A700A801A83175
:104570001C20A2314101D1005108D200521EC12A93
:10458000C22AF22A5308C900CA01C935CA0DC93561
:10459000CA0DC935CA0DC935CA0DC935CA0D490874
:1045A000083ECB0000304A3DCC004B08CD004C0803
:1045B000CE000030CE1BFF30CF00D00004304D04C1
:1045C000A40002304E04A50000304F04A6000030C5
:1045D0005004A7001830D1005108A800A8311C20B1
:1045E000A231252BD21DF52AF62A8D2A5308C9009F
:1045F000CA01C935CA0DC935CA0DC935CA0DC93573
:10460000CA0DC935CA0D4908083ECB0000304A3DE5
:10461000CC004B08CD004C08CE000030CE1BFF3044
:10462000CF00D00004304D04A40002304E04A50099
:1046300000304F04A60000305004A7000830D1001D
:104640005108A800A8311C20A23108004101C50072
:1046500033083404031D2D2B2E2B302B0130112C4D
:104660004508B500B601B535B60DB535B60DB5354D
:10467000B60DB535B60DB535B60D3508083EB700E3
:104680000030363DB8003708B9003808BA000030AD
:10469000BA1BFF30BB00BC0000303904A40020303E
:1046A0003A04A50000303B04A60000303C04A700FB
:1046B000AB31A523A33141012508C2002408C10064
:1046C00034084202031D662B330841020318692B8C
:1046D0006A2B6C2B0030112C4508B500B601B5359E
:1046E000B60DB535B60DB535B60DB535B60DB53516
:1046F000B60D3508083EB7000030363DB800370823
:10470000B9003808BA000030BA1BFF30BB00BC004B
:1047100000303904A40024303A04A50000303B04E2
:10472000A60000303C04A700AB31A523A331410112
:104730002508C4002408C3004308B5004408B60097
:10474000B701B8010830B535B60DB70DB80D890BF6
:10475000A32B4508B900BA01B935BA0DB935BA0D60
:10476000B935BA0DB935BA0DB935BA0D3908103E9B
:10477000BB0000303A3DBC003B08BD003C08BE0019
:104780000030BE1BFF30BF00C00035083D04A40050
:1047900036083E04A50037083F04A6003808400448
:1047A000A7003208A8000230A9003408AB00330883
:1047B000AA00A9314921A33141013308C3073408B4
:1047C000C43D4508B500B601B535B60DB535B60DD5
:1047D000B535B60DB535B60DB535B60D3508083E4F
:1047E000B7000030363DB8003708B9003808BA00C5
:1047F0000030BA1BFF30BB00BC0000303904A400FD
:1048000024303A04A50000303B04A60000303C04EC
:10481000A7004408A9004308A800A831FB20A33141
:10482000013008004001B9003908A900AA01A935E2
:10483000AA0DA935AA0DA935AA0DA935AA0DA93524
:10484000AA0D2908083EAB0000302A3DAC002B0819
:10485000AD002C08AE000030AE1BFF30AF00B00042
:1048600000302D04F40026302E04F50000302F0413
:10487000F60000303004F700AB314123A431750855
:104880004001B6007408B50028083602031D4A2C02
:104890002708350203184D2C4E2C522C3608A80040
:1048A0003508A70027082804031D572C582C5B2C1B
:1048B000A501A6010A2D3908A900AA01A935AA0D4A
:1048C000A935AA0DA935AA0DA935AA0DA935AA0D94
:1048D0002908083EAB0000302A3DAC002B08AD0093
:1048E0002C08AE000030AE1BFF30AF00B00000302F
:1048F0002D04F40028302E04F50000302F04F600BB
:1049000000303004F700AB314123A4317508400179
:10491000B8007408B700250826040319902C912CC0
:10492000D12C3708A9003808AA00AB01AC01083027
:10493000A935AA0DAB0DAC0D890B982C3908AD002B
:10494000AE01AD35AE0DAD35AE0DAD35AE0DAD35FF
:10495000AE0DAD35AE0D2D08183EAF0000302E3D2A
:10496000B0002F08B1003008B2000030B21BFF3099
:10497000B300B40029083104F4002A083204F50019
:104980002B083304F6002C083404F7002608F9003D
:104990002508F8002808FB002708FA00B731BB27D4
:1049A000A43140012708B7072808B83D3908A900F5
:1049B000AA01A935AA0DA935AA0DA935AA0DA935AF
:1049C000AA0DA935AA0D2908083EAB0000302A3DE2
:1049D000AC002B08AD002C08AE000030AE1BFF3041
:1049E000AF00B00000302D04F40028302E04F50094
:1049F00000302F04F60000303004F7003808F900CA
:104A00003708F800B7313527A43140012808A6003F
:104A10002708A50008004101C6004608B600B701F6
:104A2000B635B70DB635B70DB635B70DB635B70DCA
:104A3000B635B70D3608083EB8000030373DB9002E
:104A40003808BA003908BB000030BB1BFF30BC007F
:104A5000BD0000303A04A40026303B04A50000301D
:104A60003C04A60000303D04A700AB31A523A531CE
:104A700041012508C3002408C20035084302031D74
:104A8000432D340842020318462D472D4B2D430871
:104A9000B5004208B40034083504031D502D512DD3
:104AA000542DB201B301032E4608B600B701B63546
:104AB000B70DB635B70DB635B70DB635B70DB6353A
:104AC000B70D3608083EB8000030373DB900380849
:104AD000BA003908BB000030BB1BFF30BC00BD0072
:104AE00000303A04A40028303B04A50000303C0408
:104AF000A60000303D04A700AB31A523A53141013C
:104B00002508C5002408C400320833040319892D80
:104B10008A2DCA2D4408B6004508B700B801B9016E
:104B20000830B635B70DB80DB90D890B912D460873
:104B3000BA00BB01BA35BB0DBA35BB0DBA35BB0DDA
:104B4000BA35BB0DBA35BB0D3A08183EBC00003073
:104B50003B3DBD003C08BE003D08BF000030BF1B10
:104B6000FF30C000C10036083E04A40037083F04EF
:104B7000A50038084004A60039084104A7003308FE
:104B8000A9003208A8003508AB003408AA00A831F3
:104B9000AE20A53141013408C4073508C53D46089B
:104BA000B600B701B635B70DB635B70DB635B70D8A
:104BB000B635B70DB635B70D3608083EB80000302B
:104BC000373DB9003808BA003908BB000030BB1BBC
:104BD000FF30BC00BD0000303A04A40028303B0484
:104BE000A50000303C04A60000303D04A7004508A5
:104BF000A9004408A800A831FB20A53141013508CF
:104C0000B3003408B20008004001CC014301310870
:104C100003190B2E0C2E212E4D304001BA0000300E
:104C2000BB000130BC000030BD000130A93197212C
:104C3000A63140013A033B0403191F2E202E4D2EAE
:104C4000FD2E42011D1D252E262E312E41016D08FF
:104C500003192B2E2C2E312EF2010C30AC3188246E
:104C6000A63142019D1C352E362E472E1D121D16D3
:104C700041016D0803193D2E3E2E442EF201F20A29
:104C80000C30AC318824A6314001CC01CC0A420161
:104C900019084001C8004808CD004C080319512EDE
:104CA000522E562EB1318E21A631FD2E41016D08B6
:104CB000031D5B2E5C2EEB2E40014D08B431CF243A
:104CC000A631FD2E5E08C8000230C836890B652E5D
:104CD00048080F39C9004908CB00C82E3F304D05A0
:104CE000C8005E080339C9000530C935FF3E031D01
:104CF000752E49354804CA004A08EF00DE01DD017F
:104D0000DB01DB0ADE2E3F304D05C8005E080339AB
:104D1000C9000530C935FF3E031D8A2E49354804B8
:104D2000B431CF24A631DE2E3F304D05C8005E08D9
:104D30000339C9000530C935FF3E031D9B2E493597
:104D40004804CA004A08DC00AA305C06031DA92EEC
:104D5000AA2EAC2EDD01DE2EDD01DD0A0130F000D1
:104D60000030F100B131F721A631DE2E3F304D0584
:104D7000C8005E080339C9000530C935FF3E031D70
:104D8000BD2E49354804CA004A08EE00DA01DE2E7D
:104D90004B08C800C9014908003A0319D02EDE2E7D
:104DA0004808003A03196E2E013A0319832E033A7C
:104DB0000319942E013A0319B62EDE2E4001DE01AE
:104DC000FD2E4D08C8004808DE00FD2E4D08B43108
:104DD000CF24A631DE2E40014D08C039C800C901DC
:104DE0004908003A0319F52EE62E4808803A0319BF
:104DF000622E403A0319E12EE62E080062084201B5
:104E0000A000A1012108003A0319072F202F200834
:104E1000013A8A310319692A023A03197A2A303A87
:104E200003198B2A063A0319442B033A03194C2B16
:104E30000C3A03195D2BA631013A0319FE2F202FDE
:104E4000410165086702031D272F64086602031CE1
:104E50002A2F2C2F8931E429410166086402D500EC
:104E60006708653BD6006808B1317A21A631FF306A
:104E700042016B05A00000306C05A1000330200644
:104E80002104031D442F452FFB2F6408031D532FBE
:104E90006308031D532F6208031D532FF030610276
:104EA0000318532F542F5D2F00304201E4000030CF
:104EB000E3000030E200F030E10042016008031D31
:104EC0006D2F5F08031D6D2F5E08031D6D2F783059
:104ED0005D02031C6C2F6D2F802F4201640860025D
:104EE000031D7C2F63085F02031D7C2F62085E0296
:104EF000031D7C2F61085D02031C7F2F802F9F2FD5
:104F000042016108A0006208A1006308A2006408D1
:104F1000A3000330A336A20CA10CA00C890B8A2F8E
:104F20000230A035A10DA20DA30D890B912F2308EE
:104F3000E0002208DF002108DE002008DD005C0818
:104F4000031DAE2F5B08031DAE2F5A08031DAE2FA5
:104F5000D2305902031CAD2FAE2FC12F420164087D
:104F60005C02031DBD2F63085B02031DBD2F620899
:104F70005A02031DBD2F61085902031CC02FC12F07
:104F8000FB2F42016108A0006208A1006308A20093
:104F90006408A3000330A336A20CA10CA00C890B5B
:104FA000CB2F23084101AD00420122084101AC0092
:104FB000420121084101AB00420120084101AA0041
:104FC0000030B1000030B0000030AF000730AE005C
:104FD000B6315726A63141012D084201DC004101BE
:104FE0002C084201DB0041012B084201DA0041019B
:104FF0002A084201D90041015D0808008C31162CB5
:1050000040015A08031D0528062807281B285908AF
:10501000203E8600023087000108F7007708F20082
:105020000330AC318824A8310130F7007708400103
:10503000D9070130DA020800400199124101240821
:10504000A9002508AA002608AB002708AC001030EC
:10505000AC36AB0CAA0CA90C890B28282908AD008A
:105060002D084001E50041012408A9002508AA00F7
:105070002608AB002708AC000830AC36AB0CAA0CF5
:10508000A90C890B3D282908AD002D084001E60038
:1050900041012408A90029084001E700410128082E
:1050A000A90029084001E80065304101A000003056
:1050B000A1000430A2000030A30088310020A831F4
:1050C0004001991668080800430135084101AD0008
:1050D000430134084101AC00430133084101AB00F6
:1050E000430132084101AA004C30B1009530B000B4
:1050F0007F30AF002D30AE00B6315726A8310130D9
:1051000041012A074301B200003041012B3D430118
:10511000B300003041012C3D4301B4000030410197
:105120002D3D4301B50032084101B8004301330869
:105130004101B900430134084101BA004301350877
:105140004101BB001130BB36BA0CB90CB80C890B4D
:10515000A3283908B7003808B600080040019912A2
:1051600041012408AC002508AD002608AE00270840
:10517000AF001030AF36AE0CAD0CAC0C890BBA28BA
:105180002C08B00030084001E50041012408AC00C3
:105190002508AD002608AE002708AF000830AF365E
:1051A000AE0CAD0CAC0C890BCF282C08B00030082D
:1051B0004001E60041012408AC002C084001E70052
:1051C00065304101A0000030A1000330A200003092
:1051D000A30088310020A83141012908A100280836
:1051E000A0002B08A3002A08A20088310020A831C3
:1051F0004001991608004001991241012408AA00B3
:105200002508AB002608AC002708AD001030AD36ED
:10521000AC0CAB0CAA0C890B07292A08AE002E088F
:105220004001E50041012408AA002508AB0026083A
:10523000AC002708AD000830AD36AC0CAB0CAA0CA6
:10524000890B1C292A08AE002E084001E600410106
:1052500024080438AA002A084001E700410129086F
:10526000AA002A084001E80041012808AA002A08EB
:105270004001E90065304101A0000030A100053087
:10528000A2000030A30088310020A8314001991607
:1052900008004001991241012408AC002508AD0026
:1052A0002608AE002708AF001030AF36AE0CAD0CAC
:1052B000AC0C890B55292C08B00030084001E500E2
:1052C00041012408AC002508AD002608AE002708DF
:1052D000AF000830AF36AE0CAD0CAC0C890B6A29B0
:1052E0002C08B00030084001E600410124080438D1
:1052F000AC002C084001E70065304101A0000030FF
:10530000A1000330A2000030A30088310020A931A1
:1053100041012908A1002808A0002B08A3002A08A1
:10532000A200B3311623A9314001991608004001AB
:10533000C7003B08A6003A08A5003D08A8003C08A5
:10534000A7004708A4311224A93140012608BD0056
:105350002508BC003C083D04031DAF29B029B32932
:10536000BA01BB01E7294708BE00BF01BE35BF0D2A
:10537000BE35BF0DBE35BF0DBE35BF0DBE35BF0D31
:105380003E08083EC00000303F3DC1004008C2005A
:105390004108C3000030C31BFF30C400C500043007
:1053A0004204F40001304304F50000304404F600E8
:1053B00000304504F7004030C6004608F800B6311A
:1053C000F726A93140013D08BB003C08BA0008009F
:1053D0004101D4004808B3004708B2004A08B500AC
:1053E0004908B4005408A5310B25A93141013308FF
:1053F000CA003208C90049084A04031D002A012ACC
:10540000042AC701C801382A5408CB00CC01CB3587
:10541000CC0DCB35CC0DCB35CC0DCB35CC0DCB3528
:10542000CC0D4B08083ECD0000304C3DCE004D0861
:10543000CF004E08D0000030D01BFF30D100D2008A
:1054400004304F04A40001305004A5000030510482
:10545000A60000305204A7004030D3005308A80033
:10546000A8311C20A93141014A08C8004908C700D9
:10547000080016304101A7000130A8000130A90042
:10548000B1315321AA3141012808AB002708AA00F5
:105490000A30AC000030AD00B231D522AA31410152
:1054A0002B084301EC0041012A084301EB001930AD
:1054B0004101A7000130A8000130A900B1315321FA
:1054C000AA3141012708B6002808B700B801B90180
:1054D0003908AD003808AC003708AB003608AA0020
:1054E0000030B1000030B0000030AF006430AE00DA
:1054F000B6315726AA3141012D084001ED00410186
:105500002C084001EC0041012B084001EB00410157
:105510002A084001EA00B331F223AA310800013021
:105520004301A8070030A93D0030AA3D0030AB3D43
:1055300040015B0803199D2A9E2ACF2A41016D086C
:105540000319A32AA42ACC2A40016F080139F700C5
:105550007708F2000030AC318824AA313230F000F4
:105560000030F100B131F721AA31023043012807A0
:10557000E6000030293DE70000302A3DE800003019
:105580002B3DE900023040015B02031CC82AC92AF6
:10559000CC2AB1312D21AA314001DB01E52A43019A
:1055A00069082B06031DDE2A68082A06031DDE2A69
:1055B00067082906031DDE2A66082806031DE12A5E
:1055C000E22AE52AB131A321AA31080000304101C5
:1055D000C2000030C1000030C0000030BF003908F8
:1055E0003804370436040319F62AF72A382BC30186
:1055F000C30A052B0130B635B70DB80DB90D890BAF
:10560000FB2A0130BE003E08C307B91F082B092B37
:10561000FA2A0130BF35C00DC10DC20D890B0A2B0E
:1056200039083D02031D1E2B38083C02031D1E2BAA
:1056300037083B02031D1E2B36083A02031C212BA0
:10564000222B2B2B3608BA023708BB3B3808BC3B51
:105650003908BD3B3F140130B936B80CB70CB60C55
:10566000890B2C2B0130C302031D372B382B092B40
:105670004208B9004108B8004008B7003F08B6002A
:1056800008004001A201A20A99127408F8007508E6
:10569000F9007608FA007708FB001030FB36FA0CA8
:1056A000F90CF80C890B4E2B7808FC007C08E500FF
:1056B0007408F8007508F9007608FA007708FB000E
:1056C0000830FB36FA0CF90CF80C890B612B7808C2
:1056D000FC007C08E6007408F8007808E7006530F4
:1056E000F0000030F1000530F2000030F300B3317B
:1056F0007C23AB31400199162408A1002308A000A7
:105700006908F800F9016808FA00FB017A08FB0053
:10571000FA0178087A04A30079087B04A40022081F
:105720000319932B942B962BA201442B21082406BA
:10573000031D9C2B20082306031D9F2BA02B442B0D
:105740002408F5002308F40008004101AF01AF0A66
:105750004001991241012408A8002508A900260843
:10576000AA002708AB001030AB36AA0CA90CA80C75
:10577000890BB42B2808AC002C084001E50041013E
:105780002408A8002508A9002608AA002708AB00BD
:105790000830AB36AA0CA90CA80C890BC92B280819
:1057A000AC002C084001E60041012408A8002808AC
:1057B0004001E70065304101A0000030A100053044
:1057C000A2000030A30088310020AB3140019916BF
:1057D00041013108AE003008AD00400169084101C7
:1057E000A800A901400168084101AA00AB012A08EC
:1057F000AB00AA0128082A04B00029082B04B10034
:105800002F080319042C052C072CAF01A82B2E08F8
:105810003106031D0D2C2D083006031D102C112CF4
:10582000A82B3108A5003008A40008004101BE00E3
:105830004A2C3E08B400B501B435B50DB435B50DEC
:10584000B435B50DB435B50DB435B50D3408083ED5
:10585000B6000030353DB7003608B8003708B9004B
:105860000030B91BFF30BA00BB0000303804AE0076
:1058700001303904AF0000303A04B00000303B047E
:10588000B1001030BC003C08B200B331A223AC31EF
:105890000130872C3E08B400B501B435B50DB435E0
:1058A000B50DB435B50DB435B50DB435B50D3408F9
:1058B000083EB6000030353DB7003608B80037085E
:1058C000B9000030B91BFF30BA00BB00003038040B
:1058D000A40003303904A50000303A04A6000030CB
:1058E0003B04A700A801A8311C20AC314101BC0039
:1058F000BD013D08003A03197E2C862C3C08003A75
:105900000319482C1C3A0319192C862C0030080066
:10591000F6004301310803198E2C8F2CDA2CBE308F
:1059200041016E02031C952C962C972C092D6D08B5
:1059300003199B2C9C2CA72C7603031DA02CA12CB7
:10594000B42C803072020318A62CA72CB42C720839
:10595000F3006E0886000230870073088100013072
:10596000F3007308EE07092D7208F3000630F336D2
:10597000890BB72C7608F4000130F435FF3E031D87
:10598000BD2C74357304C038F5006E0886000230F3
:105990008700750881000130F3007308EE07720874
:1059A0003F398038F3006E088600023087007308A4
:1059B0008100AF2C41016D080319DF2CE02CEB2C8A
:1059C0007603031DE42CE52CF02C803072020318C2
:1059D000EA2CEB2CF02C7208B4311C24AC31092DCC
:1059E0007208F3000630F336890BF32C7608F400C6
:1059F0000130F435FF3E031DF92C74357304C038B3
:105A0000B4311C24AC3172083F398038B4311C24C5
:105A1000AC310800B231B622AD3154011F16AA31A3
:105A20003922AD31003040010E1901304101ED0045
:105A3000031040010E1E031400300318013043010F
:105A4000B100CC01CD0100304101A0000130A10026
:105A50000130A200B431FE24AD314301DC015C18F9
:105A6000322D332D362DCE01CF013A2D0830CE0008
:105A70000030CF00B231F522AD31FF3041012005B9
:105A80004201D2000030410121054201D30043010F
:105A90004E0A42014D2DD235D30D890B4B2D5208A4
:105AA0004301CC06420153084301CD0601304201B7
:105AB000D20052084301DC0709305C02031C612D4F
:105AC000622D2F2D4D084101A10043014C084101D9
:105AD000A000B1311021AD3101304101A7000030EB
:105AE000A8000130A900B1315321AD31410128088E
:105AF0004201D20052084301CA004A083F3942011C
:105B0000D20052084301EA00D101D10A3108031D35
:105B10008B2D90310228903120284101A6004301AD
:105B200031080319942D952DE02DBE3041016E02F0
:105B3000031C9B2D9C2D9D2D102E6D080319A12D4E
:105B4000A22DAD2D2603031DA62DA72DBA2D803025
:105B500022020318AC2DAD2DBA2D2208A3006E0829
:105B6000860002308700230881000130A30023084B
:105B7000EE07102E2208A3000630A336890BBD2D98
:105B80002608A4000130A435FF3E031DC32D243593
:105B90002304C038A5006E0886000230870025085F
:105BA00081000130A3002308EE0722083F39803826
:105BB000A3006E0886000230870023088100B52DFF
:105BC00041016D080319E52DE62DF12D2603031D76
:105BD000EA2DEB2DF62D803022020318F02DF12D49
:105BE000F62D2208B5312E25AD31102E2208A30046
:105BF0000630A336890BF92D2608A4000130A43500
:105C0000FF3E031DFF2D24352304C038B5312E255A
:105C1000AD31410122083F398038B5312E25AD31F3
:105C20000800FC3041019E053F30B2316622AE31A2
:105C300000304101CE000030CD000030CC000030FB
:105C4000CB00CF01D0010D30890B242E0000B031E4
:105C50005420AE31B0318220AE31003A0319312EDA
:105C6000322E2A2EB0315E20AE3141012008CB0702
:105C70002108CC3D0030CD3DCE3D0130CF07003076
:105C8000D03D5008803AC60080304602031D4A2E9F
:105C90000A304F02031C4D2E4E2E232E033041019D
:105CA0009E040030B9000030B8000030B7000A3060
:105CB000B60040016D084101AD0040016C08410192
:105CC000AC0040016B084101AB0040016A08410192
:105CD000AA000030B1000030B0000330AF00FF3048
:105CE000AE00B6315726AE3141012D08BD002C085B
:105CF000BC002B08BB002A08BA00AA31E622AE314C
:105D000041013908CA003808C9003708C8003608F8
:105D1000C7004E08B9004D08B8004C08B7004B0842
:105D2000B6004A08BD004908BC004808BB00470847
:105D3000BA00AA31E622AE3141013708C500360863
:105D4000C40008004101BF000F2F3F08B500B60195
:105D5000B535B60DB535B60DB535B60DB535B60D8F
:105D6000B535B60D3508083EB7000030363DB800F1
:105D70003708B9003808BA000030BA1BFF30BB0042
:105D8000BC0000303904AE0001303A04AF000030EE
:105D90003B04B00000303C04B1000230BD003D08BF
:105DA000B200B331A223AE314E2F34080319D92EDD
:105DB000DA2E0D2F3F08B500B601B535B60DB53555
:105DC000B60DB535B60DB535B60DB535B60D3508CC
:105DD000083EB7000030363DB8003708B900380833
:105DE000BA000030BA1BFF30BB00BC0000303904E1
:105DF000A4000C303A04A50000303B04A60000309B
:105E00003C04A7003408A8000030A9000430AA0010
:105E10000030AB00A831AE20AE3101304F2F3F082B
:105E2000B500B601B535B60DB535B60DB535B60DFF
:105E3000B535B60DB535B60D3508083EB70000309E
:105E4000363DB8003708B9003808BA000030BA1B30
:105E5000FF30BB00BC0000303904A40003303A041A
:105E6000A50000303B04A60000303C04A700A801B8
:105E7000A8311C20AE314101BD00BE013E08003AF0
:105E80000319432F4E2F3D08133A0319A52E073A45
:105E900003194E2F033A0319D52E4E2F0030080058
:105EA000F80154011D1D552F562F612F41016D081A
:105EB00003195B2F5C2F612FF2010B30AC3188246A
:105EC000AF3154019D1C652F662F762F1D121D16B4
:105ED00041016D0803196D2F6E2F742FF201F20A24
:105EE0000B30AC318824AF31F801F80A540119089D
:105EF000F7007708FA00780803197F2F802F842F86
:105F0000B1318E21AF31FF2F41016D08031D892F63
:105F10008A2F932F7A08F7007708F2000130AC310E
:105F20008824AF31FF2F40015D03031D982F992F67
:105F3000D12FAA307A06031D9E2F9F2FD12F3F30DD
:105F400043016A02031CA52FA62FAE2FE4300032B6
:105F50000032890BA72F00320032BE2F6A08F700EB
:105F60007708F9007908031DB62FB72FB82FBE2F79
:105F70001830890BB92F0130F902B22F40015C08AB
:105F8000B431CF24AF310230F70077084001DD0093
:105F90007A08F7007708F2000130AC318824AF317D
:105FA000FF2F02305D06031DD62FD72FF72F7A085B
:105FB0005C06031DDC2FDD2FE62F7A08F70077083B
:105FC000F2000230AC318824AF31EE2F7A08F700AE
:105FD0007708F2000A30AC318824AF314001DD018E
:105FE0000030F000F100B131F721AF31FF2F7A0816
:105FF000F7007708F2000130AC318824AF31080097
:1060A20008000800080041019D1408004B019E17DA
:1060B2000800BB3052018C00080041011C08A100FD
:1060C2001B08A0000800803046019600950194014B
:1060D2000800163050018C0037308D000800640033
:1060E20080010131890B71280034FE0012001E006C
:1060F200FE0B77280034AE34B0345334EF34FE3420
:10610200EF34031041019D1C03140030093D0800C7
:10611200E43000320032890B8A2800320032080053
:10612200A33041019E009B019C0101309D000800AB
:1061320082305301900091010630920093010800D1
:1061420043012D084101A10043012C084101A00097
:106152000800410121084001D3004101200840010B
:10616200D2000800410121084001D100410120086C
:106172004001D0000800410121084201EE00410126
:1061820020084201ED000800410121084001D7002A
:10619200410120084001D6000800410121084001C8
:1061A200D500410120084001D40008004101210826
:1061B2004301EE00410120084301ED000800FF34D5
:1061C200FF34FF340034FF34FF34FF34FF343F34F4
:1061D20043016D086E040319EF28F028F5286E08B4
:1061E2008A006D080A00B03108004101A1002108AF
:1061F200A000A00DA00D1D082006033920069D0059
:106202001D1408004F019601023097004530980096
:106212003B30990001309A0006309B000800410192
:106222002008FF3E4301B200FF304101213D4301FE
:10623200B300B401B50108000130450190008F019F
:1062420091010F308D008C014E019010FF304501FD
:106252008E000F308D0008008B130B130530F100F8
:106262000F30F000F130890B3429F00B3429F10B97
:10627200342900007E019B01A101010008008B135B
:106282000B1305304101A1000F30A000F130890B42
:106292004829A00B4829A10B48297E019B01A10195
:1062A2000100080041012708A0002808A1002908D0
:1062B200A200B431FE24B131B231F522B131410133
:1062C2002108A8002008A700080001304201E93592
:1062D200EA0D890B682900306A024130031969020C
:1062E200031C7429752979294030E9000030EA003D
:1062F20008004101D7000030C7000030C80056082E
:10630200CA005508C9005708A931E821B131410135
:106312004808D6004708D50008003230F0000030A7
:10632200F100B131F721B131053043012807E60010
:106332000030293DE70000302A3DE80000302B3DC7
:10634200E900080041016D08031DA829A929B12906
:106352000130F0000030F100B131F721B131B7293D
:106362000030F000F100B131F721B13108001030F6
:106372007D01BB0003307E019B0002307C01A50041
