:1000000080310628AB3401348431042C8031082837
:10001000203084000030850009308331C7238031CF
:10002000A03084000030850049308331C7238031FF
:1000300040018331352B42019E1C1F2820281B289C
:100040008331AE23803142011F142D289F1F2928A0
:100050002A282D281F109F131F141F1830283128FD
:10006000262883317C238031FD010930FA007A088B
:10007000FC00692883317C238031FA007A08FB0078
:100080007B08FA007D08A03E860087017A0881007F
:100090000130FA007A08FD0704307D06031D51285F
:1000A000522869280230410120060319582859288E
:1000B00065280530200603195E285F28652807306B
:1000C0002006031D6428652869282108FA007A089B
:1000D000FC077C087D02031C6E286F283A288031BB
:1000E0008F208031FA007A08FC0055308331A42338
:1000F0008031FD0187287D08A03E86008701010828
:100100008331A42380310130FA007A08FD077C088E
:100110007D02031C8C288D287B281B2808004101A8
:100120002308F80078084001F00041012408F80095
:1001300078084001F100C528813185218031E82807
:10014000823186228031E8288031E9208031E82818
:10015000823112228031E828823150228031E82811
:1001600081313C218031E8288131CC218031E8285F
:10017000A901A90A4001A501A50A0A30E828FF3013
:10018000F8007808A9000A30E82841012008F800A2
:10019000F9017908003A0319CE28BF287808003AF7
:1001A00003199C28013A0319A028033A0319A4282B
:1001B000013A0319A828053A0319AC28013A031992
:1001C000B0280F3A0319B428013A0319B828BF28F8
:1001D00008004101250850019A00410126085001FC
:1001E0009B00A4309E00F501F6012A291F30500122
:1001F0001A05F3001F3073060319FF28002911297F
:1002000041012108FE3EF300FF30223DF400760854
:100210007406031D0D2975087306031D1029112985
:10022000132950019E127508A93E86008701010816
:1002300050019C007508AA3E8600870101089D00B8
:100240008331C023803183318C2380310230F50724
:100250000030F63D410122087602031D31292108B4
:100260007502031C34293529F628A901A90A400181
:10027000F001F1010A3008004101250850019A00FF
:100280004101260850019B00410125082604031D59
:100290004A294B295429D43050019E008331C02370
:1002A000813150019A019B01C43050019E00F5013B
:1002B00070297508A93E86008701010850019C003D
:1002C0007508AA3E8600870101089D008331C0237E
:1002D000813183318C2381310230F3007308F507BB
:1002E0007508F300F401410122087402031D7A2904
:1002F00021087302031C7D297E295929A901A90A15
:100300004001F001F1010A3008000830F3007308E1
:100310004101A900AA01AB01AC01AC0AAD01AE01DB
:10032000063050019A009B011E171E141C08F30092
:1003300073084101AF0050011D08F300730841012B
:10034000B000B101B2012030F3007308B3002030D7
:10035000F3007308B40050019A019B011E170C3082
:10036000F3007308F40050011E141C08F300740815
:10037000A93E860087017308810083318C23813177
:100380000130F3007308F40710307402031CC9290C
:10039000CA29B329193008004101250850019A00E3
:1003A0004101260850019B0080309E004001A201BF
:1003B000A301F601F701F92950011E141C08F300EE
:1003C000F40173084001A2077408A33D50011D0801
:1003D000F300F4017308F400F30173084001A2076D
:1003E0007408A33D83318C2381310230F60700303D
:1003F000F73D410122087702031D002A21087602F9
:10040000031C032A042ADC2940012208F300730894
:100410004101A90040012308F30073084101AA002B
:100420000B3008004101250850019A0041012608BF
:1004300050019B00F401F5013F2A7F3050011B055C
:10044000F30040307302031C262A272A2E2AFE308E
:10045000F30073084101A9000A304F2A94309E002E
:100460008331C02382311F30F300730850019A0793
:1004700083318C2382310130F4070030F53D410196
:1004800022087502031D462A21087402031C492A0A
:100490004A2A1D2AA901A90AA301A4010A300800B9
:1004A0004101250850019A004101260850019B0096
:1004B00040309E00F501752A50011E141C08F300FF
:1004C0007508A93E86008701730881001D08F300A6
:1004D0007508AA3E860087017308810083318C234A
:1004E00082310230F3007308F5077508F300F40158
:1004F000410122087402031D7F2A21087302031C94
:10050000822A832A5C2A2108093E08004101250825
:1005100050019A004101260850019B0080309E0046
:10052000F401F501AC2A50011E141C08F3007408F4
:10053000A93E86008701730881001D08F300740836
:10054000AA3E860087017308810083318C238231A3
:100550000230F4070030F53D410122087502031D09
:10056000B32A21087402031CB62AB72A932A210849
:10057000093E0800403040019800303099009A014F
:10058000BF309200C6309300FF309400E3307E010C
:10059000CE000230C300BF30B800E501FD30C4001A
:1005A0005030B9003830CF00BA01C501D001FF305A
:1005B000BB00FF30C600FF30D100FF30BC00FF3071
:1005C000C700FF30D2000830E8000F309B000A302F
:1005D0007D01CB000800F30100000130F200720839
:1005E000F307730A031DF52AF62AEC2A40018D1B36
:1005F000FA2AFB2AFD2A0130112B50019A010430FE
:100600009B0080309E001E143F301D06031D092BE9
:100610000A2B102B1C0A031D0E2B0F2B102BFB2A51
:1006200000300800083042019F0090309D002430C7
:100630009E0040309B0003309C000030F2000030F0
:10064000F3008331D32383310030F2000030F30014
:100650008331CD2383310030F2000030F300833149
:10066000D92383314001A401080083316C238331F5
:1006700003104001191C031403183F2B422B4001A7
:100680001914442B400119100B304001B0002630E2
:10069000AF005D30890B4A2BAF0B4A2BB00B4A2BB6
:1006A0000032382B803106284001F001F101191485
:1006B0008231EB228331013A031D5F2B602B632BC8
:1006C00080311B2083311F307F01ED004001880104
:1006D00019108431002C08008331B8238331823112
:1006E000BA22833183319A238331833112238331B8
:1006F00083315423833108004E018F1E802B812BC0
:100700007C2B4001A40142019D1C872B882B8A2B46
:100710001D121D16190808000130F2007208500160
:100720009A07031D942B952B992B0130F200720828
:100730009B070800603051018D008F019101063048
:100740009300900192010800F2004E010F1EA92BA8
:10075000AA2BA52B720842019A000800400125032C
:10076000031DB32BB42BB72B131019100100080075
:100770004F0196019701980199019A019B01080088
:10078000640070089F0071089F009E1408006400B8
:1007900080010131890BC82B003473084001AC0083
:1007A0007208AB00080073084001AE007208AD008B
:0E07B000080073084001AA007208A9000800A2
:100800008431542CAE3401347E1484314E01961E52
:100810000A2C0B2C122C8C1E0E2C0F2C122CA831F7
:10082000002084310B1F152C162C522C4E01991FC1
:100830001A2C1B2C252C8F1F1E2C1F2C252C400105
:1008400054088A0053080A0084314E01191F292CCC
:100850002A2C342C0F1F2D2C2E2C342C4001520806
:100860008A0051080A0084314E01991E382C392C17
:10087000432C8F1E3C2C3D2C432C400150088A00F9
:100880004F080A0084314E01191E472C482C522C67
:100890000F1E4B2C4C2C522C40014E088A004D0848
:1008A0000A0084317E10090040018431572CBE318A
:1008B000B7268431EC00BE31B8268431ED00410109
:1008C000903100208431EB005C308400BF30850023
:1008D000DF308600013087000B30BE31DD268431E9
:1008E000E3308400BE3085005C3086000230870033
:1008F0000630BE31DD2684314B3084000030850067
:100900001D30BE31D7268431EA01543084000130D5
:1009100085001B30BE31D7268431A03084000130E1
:1009200085002330BE31D726843120308400023048
:1009300085003C30BE31D7268431A030840002309F
:1009400085002030BE31D72684317E104001A6318B
:10095000DB2E43015B080F3E860002308700010852
:100960004201A0000430A036890BB32C2008303E91
:100970004301CC00003003180130CD004C08420187
:10098000A00043015A085B074201A100210886002C
:1009900002308700200881000130A00020084301B8
:1009A000DA075B080F3E8600023087000F30010532
:1009B0004201A0000A302002031CDF2CE02CEF2CA7
:1009C00043015B080F3E86000230870001080F39A3
:1009D000573ECE00003003180130CF00FD2C4301FC
:1009E0005B080F3E86000230870001080F39303E59
:1009F000CE00003003180130CF004E084201A000A5
:100A000043015A085B074201A10021088600023019
:100A10008700200881000130A00020084301DA0788
:100A200057084201A000430158084201A100A20159
:100A3000A3010830A035A10DA20DA30D890B1A2D1D
:100A4000430159084201A400A501A435A50DA43510
:100A5000A50DA435A50DA435A50DA435A50D240817
:100A6000103EA6000030253DA7002608A800270854
:100A7000A9000030A91BFF30AA00AB002008280401
:100A80004101A7004201210829044101A8004201B7
:100A900022082A044101A900420123082B04410134
:100AA000AA0043015B084101AB000230AC004301E6
:100AB0005A084201AC00AD012C084101AD004201D1
:100AC0002D084101AE00B7316127843143015A0836
:100AD0004201A000A10120084301D70742012108DB
:100AE0004301D83D4308031D762D772D632EFF303B
:100AF00042016C05A00000306D05A1000330200606
:100B00002104031D842D852D632E4301DA0132302B
:100B10004201A00043015A085B074201A1002108DD
:100B2000860002308700200881000130A0002008E4
:100B30004301DA0704304201A00043015A085B0771
:100B40004201A100210886000230870020088100B0
:100B50000130A00020084301DA075B085A07410171
:100B6000A3000230A4006430A5000030A6000430C9
:100B7000A7000030A800B33184238431043042013F
:100B8000A00020084301DA0736304201A0004301EB
:100B90005A085B074201A100210886000230870045
:100BA000200881000130A00020084301DA0704304A
:100BB0004201A00043015A085B074201A10021083D
:100BC000860002308700200881000130A000200844
:100BD0004301DA075B085A074101A3000230A40071
:100BE000BF30A5000130A6000430A7000030A800E7
:100BF000B3318423843104304201A0002008430132
:100C0000DA0757084201A000430158084201A10039
:100C1000A201A3010830A035A10DA20DA30D890BDF
:100C20000B2E430159084201A400A501A435A50DCE
:100C3000A435A50DA435A50DA435A50DA435A50D88
:100C40002408103EA6000030253DA7002608A80075
:100C50002708A9000030A91BFF30AA00AB0020081C
:100C600028044101A7004201210829044101A800EC
:100C7000420122082A044101A900420123082B0451
:100C80004101AA0043015B084101AB000230AC0006
:100C900043015A084201AC00AD012C084101AD00EE
:100CA00042012D084101AE00B73161278431430173
:100CB0005A084201A000A10120084301D7074201C0
:100CC00021084301D83D4301DA0137304201A00039
:100CD00043015A085B074201A10021088600023047
:100CE0008700200881000130A00020084301DA07B6
:100CF00042016E08031D7D2E7E2E842E023043019C
:100D0000D0000030D100892E04304301D0000030E3
:100D1000D10050084201A00043015A085B0742017C
:100D2000A1002108860002308700200881000130E0
:100D3000A00020084301DA075A085B074201A0001F
:100D400020088600023087008101810A0130A0005E
:100D500020084301DA0703304201A00043015A088A
:100D60005B074201A10021088600023087002008AD
:100D700081000130A00020084301DA0742016E081B
:100D80000319C32EC42EE92E3A30A00043015A089D
:100D90005B074201A100210886000230870020087D
:100DA00081000130A00020084301DA073B304201F6
:100DB000A00043015A085B074201A10021088600F8
:100DC00002308700200881000130A0002008430184
:100DD000DA07FF304201A00043015A085B074201D5
:100DE000A100210886000230870020088100013020
:100DF000A00020084301DA0757084201A000430180
:100E000058084201A100A201A3010830A035A10D9C
:100E1000A20DA30D890B062F430159084201A4001E
:100E2000A501A435A50DA435A50DA435A50DA435A2
:100E3000A50DA435A50D2408103EA6000030253DC3
:100E4000A7002608A8002708A9000030A91BFF302A
:100E5000AA00AB00200828044101A7004201210894
:100E600029044101A800420122082A044101A900E5
:100E7000420123082B044101AA0043015B08410100
:100E8000AB000230AC0043015A084201AC00AD0196
:100E90002C084101AD0042012D084101AE00B731DF
:100EA0006127843143015A084201A000A1012008B2
:100EB0004301D707420121084301D83D59084201A7
:100EC000A000A101A035A10DA035A10DA035A10D57
:100ED000A035A10DA035A10D2008083EA2000030CC
:100EE000213DA3002208A4002308A5000030A51B73
:100EF000FF30A600A700003024044101A7002430E1
:100F0000420125044101A8000030420126044101AC
:100F1000A9000030420127044101AA0043015808FA
:100F20004101AC00430157084101AB00B731132721
:100F300084314301560803199E2F9F2FC22F3C3046
:100F40004101A3000230A4000030A500A600043037
:100F5000A7000030A800AF313527843100304101AF
:100F6000AA000030A9000F30A8000030A7003C30D4
:100F7000AB000230AC000430AD000030AE00B73141
:100F80006127843143015B084201A0002008410130
:100F9000C9000030CA00CB0043015908A031FE202F
:100FA0008431430156080319D62FD72FEB2F003079
:100FB0004101AA000030A9000F30A8000030A700AE
:100FC0006430AB000030AC000430AD000030AE0047
:100FD000B7316127843108004101DA000030CA00CE
:100FE0000030CB005908CD005808CC005A08A83171
:100FF0001720873141014B08D9004A08D800080062
:10100000BB3052018C00080001304301AC070030B6
:10101000AD3D0030AE3D0030AF3D400159080319F1
:10102000122813284428023043012C07E300003023
:101030002D3DE40000302E3DE50000302F3DE60060
:1010400041016B08031925282628412840016D0815
:101050000139F9007908F4000030AD3106258831F6
:101060003230F0000030F100B031A220883102307F
:1010700040015902031C3D283E284128B031B820C8
:1010800088314001D9016228430166082F06031DFB
:10109000532865082E06031D532864082D06031DDA
:1010A000532863082C06031D562857286228003051
:1010B000E6000030E5000030E4000030E300B0312D
:1010C0004E20883141016B08031967286828BD2824
:1010D0004001580803196D286E28BD2841016A088F
:1010E000031D732874288228BE31F0268831003A07
:1010F00003197B287C28BD2840015D08031D812839
:101100008228BD284001581C862887289128FE3057
:10111000F9007908D805F4010B30AD310625883186
:10112000BD28D81C94289528A028FD30F9007908FE
:10113000D805F401F40A0B30AD3106258831BD28FD
:10114000581EA328A428AE28EF30F9007908D80546
:10115000F4010C30AD3106258831BD28D81EB128E8
:10116000B228BD28DF30F9007908D805F401F40A67
:101170000C30AD3106258831BD280800BB30410157
:10118000A3000130A4003030A5000230A6000430D6
:10119000A7000030A800B33184238831422BB73038
:1011A0004101A3000130A4003030A5000230A600A8
:1011B0000430A7000030A800B33184238831422BCB
:1011C000FF30A0000030A1000030A2000030A300DA
:1011D000440130084201A400440131084201A50045
:1011E000440132084201A600440133084201A7002D
:1011F0001830A736A60CA50CA40C890BF9282408D6
:10120000A0052508A1052608A2052708A30500308A
:10121000A800FF30A9000030AA000030AB00440154
:1012200030084201AC00440131084201AD004401E4
:1012300032084201AE00440133084201AF000830D9
:10124000AF36AE0CAD0CAC0C890B20292C08A805D0
:101250002D08A9052E08AA052F08AB050030B000FF
:101260000030B100FF30B2000030B300440130085C
:101270004201B400440131084201B5004401320882
:101280004201B600440133084201B7000830B435CA
:10129000B50DB60DB70D890B47293408B0053508D3
:1012A000B1053608B2053708B3050030B800003084
:1012B000B9000030BA00FF30BB00440130084201E1
:1012C000BC00440131084201BD0044013208420122
:1012D000BE00440133084201BF001830BC35BD0DCB
:1012E000BE0DBF0D890B6E293C08B8053D08B90538
:1012F0003E08BA053F08BB053808B0043908B104F8
:101300003A08B2043B08B3043008A8043108A90421
:101310003208AA043308AB0420082804E00021089E
:101320002904E10022082A04E20023082B04E30038
:10133000422B440130084201A0002008C400422B87
:10134000BF304101A3000130A4003030A5000230BD
:10135000A6000430A7000030A800B33184238831F0
:10136000422BFF30A0000030A1000030A20000306E
:10137000A300440130084201A400440131084201A5
:10138000A500440132084201A6004401330842018D
:10139000A7001830A736A60CA50CA40C890BCA29E7
:1013A0002408A0052508A1052608A2052708A305ED
:1013B0000030A800FF30A9000030AA000030AB00C8
:1013C000440130084201AC00440131084201AD0043
:1013D000440132084201AE00440133084201AF002B
:1013E0000830AF36AE0CAD0CAC0C890BF1292C08D3
:1013F000A8052D08A9052E08AA052F08AB05003061
:10140000B0000030B100FF30B2000030B300440142
:1014100030084201B400440131084201B5004401E2
:1014200032084201B600440133084201B7000830D7
:10143000B435B50DB60DB70D890B182A3408B005B3
:101440003508B1053608B2053708B3050030B800D5
:101450000030B9000030BA00FF30BB004401300852
:101460004201BC00440131084201BD004401320880
:101470004201BE00440133084201BF001830BC35B0
:10148000BD0DBE0DBF0D890B3F2A3C08B8053D08B8
:10149000B9053E08BA053F08BB053808B00439084D
:1014A000B1043A08B2043B08B3043008A804310878
:1014B000A9043208AA043308AB0420082804DC007D
:1014C00021082904DD0022082A04DE0023082B0459
:1014D000DF00422BFF30A0000030A1000030A2004E
:1014E0000030A300440130084201A4004401310847
:1014F0004201A500440132084201A600440133081C
:101500004201A7001830A736A60CA50CA40C890B25
:10151000832A2408A0052508A1052608A205270876
:10152000A3050030A800FF30A9000030AA00003059
:10153000AB00440130084201AC00440131084201D3
:10154000AD00440132084201AE00440133084201BB
:10155000AF000830AF36AE0CAD0CAC0C890BAA2A2C
:101560002C08A8052D08A9052E08AA052F08AB05EB
:101570000030B0000030B100FF30B2000030B300E6
:10158000440130084201B400440131084201B50071
:10159000440132084201B600440133084201B70059
:1015A0000830B435B50DB60DB70D890BD12A340806
:1015B000B0053508B1053608B2053708B305003067
:1015C000B8000030B9000030BA00FF30BB00440161
:1015D00030084201BC00440131084201BD00440111
:1015E00032084201BE00440133084201BF001830F6
:1015F000BC35BD0DBE0DBF0D890BF82A3C08B805E2
:101600003D08B9053E08BA053F08BB053808B004D7
:101610003908B1043A08B2043B08B3043008A804FE
:101620003108A9043208AA043308AB0420082804AE
:10163000D80021082904D90022082A04DA00230846
:101640002B04DB00422B4908A000A1012108003A2D
:1016500003192B2B422B2008013A0319BE28023A0A
:101660000319CF28303A0319E028063A03199929BB
:10167000033A0319A0290C3A0319B129013A0319B5
:101680006A2A422B42014C084E02031D492B4B088B
:101690004D02031C4C2B4E2BAE31B02E42014D0897
:1016A0004B024101D80042014E084C3B4101D90098
:1016B00042014F088731EC278831FF3042016C0529
:1016C000A00000306D05A100033020062104031D99
:1016D0006A2B6B2B212C6308031D792B6208031DD9
:1016E000792B6108031D792BF03060020318792BE8
:1016F0007A2B832B00304201E3000030E2000030FF
:10170000E100F030E00042015F08031D932B5E080A
:10171000031D932B5D08031D932B78305C02031C83
:10172000922B932BA62B420163085F02031DA22B71
:1017300062085E02031DA22B61085D02031DA22B3D
:1017400060085C02031CA52BA62BC52B4201600878
:10175000A0006108A1006208A2006308A300033092
:10176000A336A20CA10CA00C890BB02B0230A03523
:10177000A10DA20DA30D890BB72B2308DF002208B2
:10178000DE002108DD002008DC005B08031DD42BEF
:101790005A08031DD42B5908031DD42BD2305802EC
:1017A000031CD32BD42BE72B420163085B02031DE0
:1017B000E32B62085A02031DE32B61085902031D43
:1017C000E32B60085802031CE62BE72B212C420177
:1017D0006008A0006108A1006208A2006308A300DD
:1017E0000330A336A20CA10CA00C890BF12B23080B
:1017F0004101B000420122084101AF00420121082D
:101800004101AE00420120084101AD000030B400AA
:101810000030B3000030B2000730B100B43174249E
:101820008831410130084201DB0041012F084201AB
:10183000DA0041012E084201D90041012D08420180
:10184000D800440808009B310A238C314301DC0096
:101850005C084501D70000304101AA000030A90012
:101860001930A8000030A7000430AB000030AC00F5
:10187000B73113278C31652C450159080319412CC8
:10188000422C4B2CD90100304101A300A400B131FE
:101890003E218C31552CD901D90A14304101A300C5
:1018A0000030A400B1313E218C3103304301DD0012
:1018B0000830DC007730890B5B2CDC0B5B2CDD0BFC
:1018C0005B2C00309C3172248C3100304101AA0025
:1018D0000030A9002E30A8000030A700AB01B531C0
:1018E000E8258C3101390319762C772C3C2C4301E7
:1018F0002F084101C90043012E084101C8004301DE
:101900002D084101C70043012C084101C6004501D3
:1019100057084301DC005C084101CA0000309831DF
:101920006C208C31450157080319972C982C642D95
:1019300043012F084501C30043012E084501C200A1
:1019400043012D084501C10043012C084501C00099
:10195000D301D30ACA015E2D430843012F06031D9C
:10196000C12C4501420843012E06031DC12C45012F
:10197000410843012D06031DC12C450140084301C8
:101980002C06031DC42CC52CFA2C45015308031D3D
:10199000CA2CCB2CFA2C43012F084101C90043016A
:1019A0002E084101C80043012D084101C700430131
:1019B0002C084101C600CA01CA0A003098316C20C7
:1019C0008C31FA2C4501CA01CA0A1E2D02302C079F
:1019D0004501C000003043012D3D4501C1000030EC
:1019E00043012E3D4501C200003043012F3D45011A
:1019F000C3001E2D43012F084201D30043012E08CE
:101A00004201D20043012D084201D10043012C08BC
:101A10004201D00000309D31F7258C314301DC00BC
:101A2000DD015D08003A0319162D1E2D5C08013AF0
:101A30000319E22C033A0319E62C1E2D450159081F
:101A40000319232D242D2D2DD90100304101A30090
:101A5000A400B1313E218C31372DD901D90A14307F
:101A60004101A3000030A400B1313E218C31063089
:101A70004301DD001330DC00AD30890B3D2DDC0B64
:101A80003D2DDD0B3D2D003201304301DC005C08B3
:101A90004501D30708305302031C4F2D502D5A2DFA
:101AA000D30101304301AC070030AD3D0030AE3D05
:101AB0000030AF3D00309C3172248C3145014A0822
:101AC0000319632D642DAC2CB0318D208C316F2D1A
:101AD000D430A3002230A400BF311C278C311B302E
:101AE0004101A3002B30A400BF312E278C318B176E
:101AF0000B174001D901D90A4501DA01DB01410187
:101B00006A080319842D852D932F4501DC010030CF
:101B1000CE000030CD000030CC000030CB000030D3
:101B2000D2000030D1000030D0000030CF0045019D
:101B30005208510450044F0403199F2DA02DC82DA5
:101B4000520843012F02031DB52D450151084301E1
:101B50002E02031DB52D4501500843012D02031D22
:101B6000B52D45014F0843012C02031CB82DB92D9A
:101B7000C82D00304501D2000030D1000030D00027
:101B80000030CF000130B4310F248C314501DC012D
:101B900045014E084D044C044B040319D02DD12DA2
:101BA0001A2E4E0843012F02031DE62D45014D0854
:101BB00043012E02031DE62D45014C0843012D0271
:101BC000031DE62D45014B0843012C02031CE92DA2
:101BD000EA2D472E00304501CE000030CD00003008
:101BE000CC000030CB005C080319F72DF82DFE2D3A
:101BF0000130B4310F248C314501DC0143012F0841
:101C00004101C90043012E084101C80043012D08CC
:101C10004101C70043012C084101C6004501570896
:101C20004301DC005C084101CA00003098316C209F
:101C30008C31472E43012F084201D30043012E0867
:101C40004201D20043012D084201D10043012C087A
:101C50004201D00000309D31F7258C31023A031D3E
:101C6000322E332E472E023043012C074501CB0084
:101C7000003043012D3D4501CC00003043012E3D95
:101C80004501CD00003043012F3D4501CE00450107
:101C90005C08031D4C2E4D2E672E0F304101B700FE
:101CA0002730B8000130A531BB258C31003041010F
:101CB000AA000030A9002F30A8002C30A700AB01EB
:101CC000AB0AB531E8258C314501DC01DC0A5C0347
:101CD000031D6B2E6C2E8C2E4101B7010130AC31EF
:101CE00058248C31003A0319762E772E812E02303B
:101CF0004301DC005C084501DC004301E701E70A21
:101D00008C2E0130A9318A218C31003A0319892E99
:101D10008A2E8C2E4501DC01023045015C06031938
:101D2000922E932E992E03305C06031D982E992E29
:101D3000A52E0130A9318A218C31003A0319A12E38
:101D4000A22EA52E4501DC01E32E023045015C06E2
:101D5000031DAB2EAC2EE32E0130B431A8248C3100
:101D6000003A0319B42EB52ED42E0130A031002034
:101D70008C3103304301DC005C084501DC0001309C
:101D800043012C074501CF00003043012D3D4501A3
:101D9000D000003043012E3D4501D1000030430109
:101DA0002F3D4501D200E32E0130B43141248C3166
:101DB0004101350836040319DE2EDF2EE32EA23151
:101DC000D4228C31E32EA03043016902DC005C0890
:101DD0004501D40054080319EE2EEF2E3E2F023099
:101DE0005C06031DF42EF52E0B2FA0304301DC0002
:101DF0005C084101C900450154084301DD00DE01D2
:101E00005D084101CA0043015E084101CB00013079
:101E1000A031FE208C314E01991345015408430135
:101E20006902DC005C084501D800A0304301DC00F9
:101E30004501580843015C0203181F2F202F362F3D
:101E4000A0304101A3000230A4004501580841011F
:101E5000A5000230A600A030450158024101A700AC
:101E6000A801A71BA803B33184238C31450158086E
:101E70004301DC005C08E9004E0199174301660844
:101E8000650464046304031D462F472F5D2F003053
:101E900045015B020A3003195A02031C502F512FCF
:101EA0005D2F00305B021F3003195A020318592FAF
:101EB0005A2F5D2FB0318D208C3100309C3172242F
:101EC0008C31003A0319652F662F6C2F01304501C4
:101ED000DA070030DB3D892F43016608650464049E
:101EE0006304031D742F752F662F013045015B02BB
:101EF0008F3003195A02031C7E2F7F2F662FDA01C1
:101F0000DB010A304101A3000030A400B1313E21C1
:101F10008C3168304301DC00E430890B8D2FDC0B01
:101F20008D2F0000972D2630A3003130A400BF3143
:101F300025278C314301320803199F2FA02FA32F8F
:101F4000B6317A268C314301660865046404630463
:101F5000031DAB2FAC2FC22F003045015B020A30AE
:101F600003195A02031CB52FB62FC22F00305B0293
:101F70001F3003195A020318BE2FBF2FC22FB031D2
:101F80008D208C3101309C3172248C31003A031940
:101F9000CA2FCB2FD12F01304501DA070030DB3DAE
:101FA000F42F43016608650464046304031DD92FFC
:101FB000DA2FEF2F013045015B028F3003195A02EF
:101FC000031CE32FE42FEF2FDA01DB010A3041017C
:101FD000A3000030A400B1313E218C31F42F0A302F
:101FE0004501DA070030DB3D68304301DC00E430B6
:101FF000890BF82FDC0BF82F00009A2F8431542C1A
:1020000001344101C80036083704031D0828092897
:102010000B280130EC284808B800B901B835B90DD3
:10202000B835B90DB835B90DB835B90DB835B90DE4
:102030003808083EBA000030393DBB003A08BC0001
:102040003B08BD000030BD1BFF30BE00BF000030AC
:102050003C04A70020303D04A80000303E04A90045
:1020600000303F04AA00A93119219031410128080C
:10207000C5002708C40037084502031D412836085B
:10208000440203184428452847280030EC28480813
:10209000B800B901B835B90DB835B90DB835B90DB5
:1020A000B835B90DB835B90D3808083EBA0000305A
:1020B000393DBB003A08BC003B08BD000030BD1BE9
:1020C000FF30BE00BF0000303C04A70024303D04B8
:1020D000A80000303E04A90000303F04AA00A93146
:1020E0001921903141012808C7002708C600460879
:1020F000B8004708B900BA01BB010830B835B90DBE
:10210000BA0DBB0D890B7E284808BC00BD01BC354B
:10211000BD0DBC35BD0DBC35BD0DBC35BD0DBC35D3
:10212000BD0D3C08103EBE0000303D3DBF003E08E6
:10213000C0003F08C1000030C11BFF30C200C30017
:1021400038084004A70039084104A8003A084204AE
:10215000A9003B084304AA003508AB000230AC00DC
:102160003708AE003608AD00B73161279031410124
:102170003608C6073708C73D4808B800B901B83562
:10218000B90DB835B90DB835B90DB835B90DB83583
:10219000B90D3808083EBA000030393DBB003A0896
:1021A000BC003B08BD000030BD1BFF30BE00BF00BF
:1021B00000303C04A70024303D04A80000303E0459
:1021C000A90000303F04AA004708AC004608AB0055
:1021D000B73113279031013008004301D900590865
:1021E0004201A000A101A035A10DA035A10DA0358F
:1021F000A10DA035A10DA035A10D2008083EA2001B
:102200000030213DA3002208A4002308A5000030CF
:10221000A51BFF30A600A700003024044101A70041
:102220002430420125044101A80000304201260467
:102230004101A9000030420127044101AA00A9314F
:1022400019219031410128084301D8004101270894
:102250004301D70030304201A00020084301DB00D9
:102260005B084101A3000230A4000030A500A600D5
:102270002C30A7000030A800AF3135279031440141
:10228000B001B00AB101B10A06304201A000200835
:102290004401B200B301FF304201A0000030A100B0
:1022A0000030A2000030A3006408A4006508A50067
:1022B0006608A6006708A7001830A736A60CA50C6C
:1022C000A40C890B5D292408A0052508A105260872
:1022D000A2052708A3050030A800FF30A9000030A0
:1022E000AA000030AB006408AC006508AD006608C9
:1022F000AE006708AF000830AF36AE0CAD0CAC0CCA
:10230000890B7C292C08A8052D08A9052E08AA05EB
:102310002F08AB050030B0000030B100FF30B20034
:102320000030B3006408B4006508B5006608B60064
:102330006708B7000830B435B50DB60DB70D890B79
:102340009B293408B0053508B1053608B2053708B1
:10235000B3050030B8000030B9000030BA00FF30DB
:10236000BB006408BC006508BD006608BE006708C5
:10237000BF001830BC35BD0DBE0DBF0D890BBA298D
:102380003C08B8053D08B9053E08BA053F08BB053D
:102390003808B0043908B1043A08B2043B08B30461
:1023A0003008A8043108A9043208AA043308AB0491
:1023B000200828044401B4004201210829044401F2
:1023C000B500420122082A044401B6004201230854
:1023D0002B044401B7004301D20123082204210445
:1023E00020040319F429F529082A42015F08031D76
:1023F000042A5E08031D042A5D08031D042A3C30DC
:102400005C020318042A052A082A4301D201D20AD1
:1024100043015208031D0D2A0F2A0130102A0030F3
:102420004201A00020084301C300D301D30A2308BE
:1024300022042104200403191E2A1F2A2F2A4201E4
:102440005B08031D2F2A5A08031D2F2A5908031D54
:102450002F2A3C305802031C2E2A2F2A3E2AFF30F6
:1024600042016C05A00000306D05A100200321048D
:1024700003193B2A3C2A3E2A4301D3014301530856
:10248000031D432A452A0130462A00304201A0009C
:1024900020084301D60042016E080319502A512A30
:1024A000552AED1C542A552A6B2A3C304101A300C1
:1024B0000230A4006430A5000030A6000430A7005C
:1024C0000030A800B331842390314301560803192A
:1024D0006A2A6B2A702A80304401BA000030BB009F
:1024E00000304101AA000030A9000930A8000030E6
:1024F000A7004C30AB000230AC000630AD0000301D
:10250000AE00B631C6269031430157084201A00003
:10251000430158084201A100A201A3010830A035DF
:10252000A10DA20DA30D890B8F2A43015908420169
:10253000A400A501A435A50DA435A50DA435A50DB0
:10254000A435A50DA435A50D2408103EA600003025
:10255000253DA7002608A8002708A9000030A91BD0
:10256000FF30AA00AB00200828044101A700420167
:10257000210829044101A800420122082A0441013E
:10258000A900420123082B044101AA0043015B0872
:102590004101AB000230AC002C30AD000030AE0089
:1025A000B731612790312C304301D7070030D83D37
:1025B0005B084101A3000230A4000030A500A60082
:1025C0002030A7000030A800AF31352790314301FB
:1025D000D401D5015508803A4201A0008030200284
:1025E000031DF52A063043015402031CF92A9531D4
:1025F0003E2D95313F2D4201CF004F08B43141248B
:102600009231410136084201C100410135084201C1
:10261000C000003041020830031940020318112B9A
:10262000122B152BFF308C31222C30304101CA0087
:102630000230CB000830CC000030CD0042014F0802
:10264000A8311720923141014B084201CE004101CF
:102650004A084201CD0000304E02083003194D02F5
:102660000318332B342B352B122B44013508420130
:10267000A000A101440134084201A200A3012208E4
:10268000A300A20120082204C20021082304C300E1
:10269000440137084201A000A1014401360842016B
:1026A000A200A3012208A300A20120082204CB005B
:1026B00021082304CC0000304C022C3003194B02BB
:1026C000031C632B642B6B2B43304206430403191A
:1026D0006A2B6B2B782B4C084101D90042014B0827
:1026E0004101D80042014F088731EC279231122B6B
:1026F00030304101CA000230CB002C30CC00003019
:10270000CD0042014F08A8311720923141014B08FA
:102710004201CE0041014A084201CD0000304E0284
:102720002C3003194D020318962B972BA62B4D081E
:102730004B024101D80042014E084C3B4101D900F7
:1027400042014F088731EC279231122B02304401AD
:1027500030060319AC2BAD2BBD2B42014D084B02AB
:102760004101D80042014E084C3B4101D9004201D1
:102770004F088731EC279231122BFF304201A00025
:102780000030A1000030A2000030A3004401340852
:102790004201A400440135084201A5004401360865
:1027A0004201A600440137084201A7001830A736AD
:1027B000A60CA50CA40C890BD72B2408A005250872
:1027C000A1052608A2052708A3050030A800FF30B0
:1027D000A9000030AA000030AB00440134084201D7
:1027E000AC00440135084201AD0044013608420105
:1027F000AE00440137084201AF000830AF36AE0CDE
:10280000AD0CAC0C890BFE2B2C08A8052D08A905D6
:102810002E08AA052F08AB050030B0000030B1002B
:10282000FF30B2000030B300440134084201B4006C
:10283000440135084201B500440136084201B600A2
:10284000440137084201B7000830B435B50DB60D64
:10285000B70D890B252C3408B0053508B1053608AD
:10286000B2053708B3050030B8000030B9000030B9
:10287000BA00FF30BB00440134084201BC004401EF
:1028800035084201BD00440136084201BE00440142
:1028900037084201BF001830BC35BD0DBE0DBF0D5D
:1028A000890B4C2C3C08B8053D08B9053E08BA0513
:1028B0003F08BB053808B0043908B1043A08B2042F
:1028C0003B08B3043008A8043108A9043208AA045C
:1028D0003308AB0420082804C50021082904C600D9
:1028E00022082A04C70023082B04C8004301270834
:1028F00042014802031D8C2C430126084201470275
:10290000031D8C2C4301250842014602031D8C2C1B
:102910004301240842014502031C8F2C902CA22C59
:1029200048086702031D9E2C47086602031D9E2C63
:1029300046086502031D9E2C450864020318A12C5D
:10294000A22CB12C4D084B024101D80042014E0887
:102950004C3B4101D90042014F088731EC279231AD
:10296000122B41015B088600870142014508C03FE8
:102970004608C13F4708C23F4808C33F00304101F5
:10298000AA000030A9000930A8000030A70052308A
:10299000AB000230AC000630AD000030AE00B63106
:1029A000C626923152304201A00020084101A30006
:1029B0000630A4000030A5004C30B53160259231BE
:1029C0004101230824040319E62CE72CF72C4201CB
:1029D0004D084B024101D80042014E084C3B4101D9
:1029E000D90042014F088731EC279231122B420166
:1029F0006E080319FC2CFD2C0D2D64304101A30041
:102A00000030A4004030A5000230A6000430A7002A
:102A10000030A800B33184239231C0304101D80086
:102A20000030D90042014F088731EC279231410133
:102A300058084201CD07410159084201CE3D3030CE
:102A40004101CA000230CB000430CC000030CD0080
:102A500042014F08A8311720923141014A08420132
:102A6000CD0741014B084201CE3D633044013006A1
:102A7000031D3C2DAE316C2EAE317E2E992D4301BF
:102A800057084201A000430158084201A100A201D9
:102A9000A3010830A035A10DA20DA30D890B4A2D6D
:102AA000430159084201A400A501A435A50DA43590
:102AB000A50DA435A50DA435A50DA435A50D240897
:102AC000103EA6000030253DA7002608A8002708D4
:102AD000A9000030A91BFF30AA00AB002008280481
:102AE0004101A7004201210829044101A800420137
:102AF00022082A044101A900420123082B044101B4
:102B0000AA0043015B084101AB000230AC00203059
:102B1000AD000030AE00B731612795312030430160
:102B2000D7070030D83D0130D4070030D53D923171
:102B3000EA2A4301DA0163304201A00043015A0846
:102B40005B074201A10021088600023087002008AF
:102B500081000130A00020084301DA0782304201E1
:102B6000A00043015A085B074201A100210886002A
:102B700002308700200881000130A00020084301B6
:102B8000DA0753304201A00043015A085B074201B3
:102B9000A100210886000230870020088100013052
:102BA000A00020084301DA0763304201A00043017E
:102BB0005A085B074201A100210886000230870005
:102BC000200881000130A00020084301DA073530D9
:102BD0004201A00043015A085B074201A1002108FD
:102BE000860002308700200881000130A000200804
:102BF0004301DA075A085B074201A000200886005B
:102C0000023087008101810A0130A00020084301C1
:102C1000DA0742016C08A00043015A085B07420131
:102C2000A1002108860002308700200881000130C1
:102C3000A00020084301DA073D304201A000430113
:102C40005A085B074201A100210886000230870074
:102C5000200881000130A00020084301DA07073076
:102C60004201A00043015A085B074201A10021086C
:102C7000860002308700200881000130A000200873
:102C80004301DA075A085B074201A00020088600CA
:102C9000023087008101810A0130A0002008430131
:102CA000DA0700304101AA000030A9000930A8006D
:102CB0000030A70043015B085A074101AB00023016
:102CC000AC000630AD000030AE00B631C6269531FE
:102CD00006304201A00020084301DA070C3042010F
:102CE000A00043015A085B074201A10021088600A9
:102CF00002308700200881000130A0002008430135
:102D0000DA0700304101A300B830A400B1317021CE
:102D1000953141012308063E4201A00043015A08B3
:102D20005B074201A10021088600023087002008CD
:102D300081000130A00020084301DA070030410182
:102D4000A300B830A40043015B085A07B231452202
:102D5000953100304101A300B830A400B131702199
:102D60009531410123084201A00020084301DA0700
:102D70005B080D3E86000230870001084201A0007A
:102D80000430A036890BC12E0A302002031CC92E44
:102D9000CA2EE02E43015B080D3E860002308700FC
:102DA00001084201A0000430A036890BD42E20086F
:102DB000573E4301C400003003180130C500F52E12
:102DC00043015B080D3E8600023087000108420186
:102DD000A0000430A036890BEA2E2008303E4301C3
:102DE000C400003003180130C50044084201A000AF
:102DF00043015A085B074201A10021088600023006
:102E00008700200881000130A00020084301DA0774
:102E10005B080D3E8600023087000F30010542013D
:102E2000A0000A302002031C162F172F262F430163
:102E30005B080D3E86000230870001080F39573EBF
:102E4000C600003003180130C700342F43015B086F
:102E50000D3E86000230870001080F39303EC60063
:102E6000003003180130C70046084201A0004301AA
:102E70005A085B074201A100210886000230870042
:102E8000200881000130A00020084301DA075B0818
:102E90000E3E86000230870001084201A000043087
:102EA000A036890B502F0A302002031C582F592FAF
:102EB0006F2F43015B080E3E860002308700010839
:102EC0004201A0000430A036890B632F2008573E32
:102ED0004301C800003003180130C900842F4301AA
:102EE0005B080E3E86000230870001084201A00008
:102EF0000430A036890B792F2008303E4301C800EA
:102F0000003003180130C90048084201A000430105
:102F10005A085B074201A1002108860002308700A1
:102F2000200881000130A00020084301DA075B0877
:102F30000E3E8600023087000F3001054201A000DE
:102F40000A302002031CA52FA62FB52F43015B08D2
:102F50000E3E86000230870001080F39573ECA0036
:102F6000003003180130CB00C32F43015B080E3E35
:102F700086000230870001080F39303ECA00003059
:102F800003180130CB004A084201A00043015A084F
:102F90005B074201A100210886000230870020085B
:102FA00081000130A00020084301DA075B080F3ED2
:102FB00086000230870001084201A0000430A036DC
:102FC000890BDF2F0A302002031CE72FE92F843101
:102FD000A92C43015B080F3E8600023087000108E0
:102FE0004201A0000430A036890BF32F2008573E81
:102FF0004301CC00003003180130CD008431BE2CD9
:10300000E43000320032890B01280032003208001F
:103010004001A201A20A99127408F8007508F9008B
:103020007608FA007708FB001030FB36FA0CF90C32
:10303000F80C890B15287808FC007C08DF00740860
:10304000F8007508F9007608FA007708FB000830E8
:10305000FB36FA0CF90CF80C890B28287808FC00D0
:103060007C08E0007408F8007808E1005F30F000A8
:103070000030F1000530F2000030F300B231672279
:103080009831400199162408A1002308A000630884
:10309000F800F9016208FA00FB017A08FB00FA0166
:1030A00078087A04A30079087B04A4002208031995
:1030B0005A285B285D28A2010B2821082406031D3D
:1030C000632820082306031D662867280B28240888
:1030D000F5002308F40008004101D4006430A30087
:1030E0000030A400FF30A5000030A6000430A70087
:1030F0000030A800AF3135279831BF304101A3001F
:103100000130A4000030A500A6000430A700003064
:10311000A800AF313527983141015408CB00CC01CC
:10312000CB35CC0DCB35CC0DCB35CC0DCB35CC0D3B
:10313000CB35CC0D4B08083ECD0000304C3DCE00C9
:103140004D08CF004E08D0000030D01BFF30D1001A
:10315000D20004304F04A7001F305004A8000030F4
:103160005104A90000305204AA000230D3005308D1
:10317000AB00B531E825983141015408CB00CC01B2
:10318000CB35CC0DCB35CC0DCB35CC0DCB35CC0DDB
:10319000CB35CC0D4B08083ECD0000304C3DCE0069
:1031A0004D08CF004E08D0000030D01BFF30D100BA
:1031B000D20004304F04A7001E305004A800003095
:1031C0005104A90000305204AA000230D300530871
:1031D000AB00B531E825983144304101B7000030EB
:1031E000B8006430CB004B08B9004330BA0000305F
:1031F000BB0054089931B4219831B631302698314A
:10320000FF3041013905CB000F303A05CC004B08A7
:10321000CD004C08CE000030CE1BFF30CF00D000D8
:1032200000304D064201E400503041014E0642019B
:10323000E500B03041014F064201E600AE304101E9
:1032400050064201E70067084301A70042016608F3
:103250004301A600420165084301A500420164083C
:103260004301A40041014A08CB004B084201EE0093
:1032700041014A0803193D293E2956296430A3001B
:103280000030A4000030A500A6000430A7000030E4
:10329000A800AF313527983101304201EC000030F1
:1032A000ED000430EA000030EB0072290030AA0083
:1032B0000030A9000F30A8000030A7006430AB0038
:1032C0000030AC000430AD000030AE00B631C62690
:1032D000983108304201EC000030ED004030EA0047
:1032E0000030EB00BB304101A3000130A400FF30EF
:1032F000A5000030A6000430A7000030A800AF31C0
:1033000035279831B7304101A3000130A4000030C7
:10331000A500A6000430A7000030A800AF31352773
:10332000983100304201DB000030DA000030D90073
:103330000030D8005B08DF005A08DE005908DD00C5
:103340005808DC005F08E3005E08E2005D08E10069
:103350005C08E00000304301A3000030A200003010
:10336000A1000030A00008004101C5004508BC00D4
:10337000BD01BC35BD0DBC35BD0DBC35BD0DBC356D
:10338000BD0DBC35BD0D3C08083EBE0000303D3DC6
:10339000BF003E08C0003F08C1000030C11BFF3025
:1033A000C200C30000304004A70004304104A8005C
:1033B00000304204A90000304304AA003808AC00E1
:1033C0003708AB00B7311327993141014508BC00DC
:1033D000BD01BC35BD0DBC35BD0DBC35BD0DBC350D
:1033E000BD0DBC35BD0D3C08083EBE0000303D3D66
:1033F000BF003E08C0003F08C1000030C11BFF30C5
:10340000C200C30000304004A7000C304104A800F3
:1034100000304204A90000304304AA003908AB0080
:103420000030AC000430AD000030AE00B731612791
:10343000993141014508BC00BD01BC35BD0DBC350D
:10344000BD0DBC35BD0DBC35BD0DBC35BD0D3C083D
:10345000083EBE0000303D3DBF003E08C0003F08B2
:10346000C1000030C11BFF30C200C3000030400467
:10347000A70010304104A80000304204A900003029
:103480004304AA003B08AC003A08AB00B73113274D
:10349000993141014508BC00BD01BC35BD0DBC35AD
:1034A000BD0DBC35BD0DBC35BD0DBC35BD0D3C08DD
:1034B000083EBE0000303D3DBF003E08C0003F0852
:1034C000C1000030C11BFF30C200C3000030400407
:1034D000B10001304104B20000304204B3000030BA
:1034E0004304B4001030C4004408B500B2318D224A
:1034F000993141014508BC00BD01BC35BD0DBC354D
:10350000BD0DBC35BD0DBC35BD0DBC35BD0D3C087C
:10351000083EBE0000303D3DBF003E08C0003F08F1
:10352000C1000030C11BFF30C200C30004304004A2
:10353000A70000304104A80000304204A900003078
:103540004304AA000230C4004408AB00B531E825AA
:10355000993141014508BC00BD01BC35BD0DBC35EC
:10356000BD0DBC35BD0DBC35BD0DBC35BD0D3C081C
:10357000083EBE0000303D3DBF003E08C0003F0891
:10358000C1000030C11BFF30C200C3000030400446
:10359000B10001304104B20000304204B3000030F9
:1035A0004304B400B501B50AB2318D22993141010D
:1035B0004508BC00BD01BC35BD0DBC35BD0DBC35DD
:1035C000BD0DBC35BD0DBC35BD0D3C08083EBE0073
:1035D00000303D3DBF003E08C0003F08C100003044
:1035E000C11BFF30C200C30000304004A7000330FD
:1035F0004104A80000304204A90000304304AA009E
:10360000AB01B531E8259931223A031D082B092B6E
:10361000492A08005C30860002308700B8308400F8
:103620000030850006304101B40016001A00B40BCA
:10363000152B0030CF000030CE000030CD00003020
:10364000CC00430162084101C1004301610841010E
:10365000C000430160084101BF0043015F08410110
:10366000BE000030A3000030A4000130A500B3313B
:10367000DF239B314101CB01CB0AD501D401B2310B
:1036800003229B3141012408D1002308D0005408B3
:10369000031D4B2B4C2B5E2B5108B4003408CA0081
:1036A000CA1A532B552B0130562B0030B400340866
:1036B000CB004A081F39B4003408D5005008B400C4
:1036C0005408CC3E86008701340881005408031951
:1036D0006A2B6B2B792B4B08031D6F2B702B792BCF
:1036E0005008B4005408023EB83E860087013408F2
:1036F00081000130B4003408D40704305402031CA4
:10370000822B832B3F2B4B080319872B882BAE2B47
:103710000630A3000130A4000130A500B331DF233F
:103720009B314101D201B23103229B314101240876
:10373000C3002308C2004208B4005208033EB83E4A
:1037400086008701340881000130B4003408D207B4
:1037500003305202031CAD2BAE2B932B0030AA007A
:103760000030A9000930A8000030A700B830AB0035
:103770000030AC000630AD000030AE00B73161273C
:103780009B311F30410155060319C72BC82BD02B85
:103790004D084E044F044C04031DCF2BD02BD22BCD
:1037A0000130712C0030AA000030A9000F30A800B1
:1037B0000030A700CC30AB000030AC000430AD00CE
:1037C0000030AE00B73161279B314101D301083091
:1037D00055020318EC2BED2B122C55080319F12B75
:1037E000F22B0B2C0130B4000030B5005508083C1A
:1037F000890AFC2BB435B50D890BFA2B3408FF3E32
:10380000B600FF30353DB700FF303606C600003049
:103810003706C7000D2CC601C7014708C50046087A
:10382000C400162CFF30C4000030C5004408B400AA
:103830005308BE3E86008701340881005308BE3E0F
:10384000860087010108B4005308CC3E860087013A
:10385000340881050830550203182F2C302C332CE6
:10386000C801C9013A2C5508F83EC800FF300318BA
:103870000030C9004808B4003408D5000130B40055
:103880003408D30704305302031C472C482CE72B81
:103890000030AA000030A9000530A8000030A700C1
:1038A000BE30AB000030AC000430AD000030AE00E4
:1038B000B73161279B3141014F140030AA0000301D
:1038C000A9000130A8000030A700CC30AB000030C8
:1038D000AC000430AD000030AE00B73161279B3141
:1038E000003008004101E10040010E1B782C792CCA
:1038F000872C550803197D2C7E2C812CB031FA20A1
:103900009C314001D501D50A4101E101E10A4101A3
:103910006A0803198C2C8D2C902CB63130269C31E2
:1039200040015508031D952C962CE32D41016B0891
:1039300003199B2C9C2CE32D702D4401A001A00A9F
:10394000A101A10ABF3149279C3141012408E600A9
:103950002308E5006608DB005B084401A200410182
:103960006508DB005B084401A30041016A08031DF0
:10397000BA2CBB2CBE2CDD01DE01C22C0430DD00D4
:103980000030DE0043013208031DC72CC82CCC2CAC
:103990004101DF01E001D12C08304101DF0000309E
:1039A000E0006B08031DD52CD72C0130D82C00303B
:1039B0005F045D04DB005B084401A40005304101A5
:1039C000DB005B08E4008E2D0030A3000130A40072
:1039D0000130A500B331DF239C314101E201B23156
:1039E00003229C3141012408E6002308E500650814
:1039F000DB006208203E8600023087005B08810001
:103A00000130DB005B08E20709306202031C092D6C
:103A10000A2DEF2C0930DB005B08E4008E2D00300E
:103A2000A3000030A4000130A500B331DF239C3196
:103A30004101E301B23103229C3141012408E60037
:103A40002308E5006608DB006308203E860002309C
:103A500087005B0881006508DB006308213E860063
:103A6000023087005B0881000230DB005B08E3075F
:103A700008306302031C3D2D3E2D1A2D0830DB005B
:103A80005B08E4008E2DAB31B8239C31410148081E
:103A9000E6004708E5006608DB005B084401A0007B
:103AA00041016508DB005B084401A10002304101CF
:103AB000DB005B08E4008E2DAA318A229C31410193
:103AC0004808E6004708E5004B2DA03132209C3124
:103AD00041014808E6004708E5004B2DE4018E2D22
:103AE00040016C084101DB00DC015C08003A03196D
:103AF0007A2D6E2D5B08003A03199D2C013A0319AB
:103B0000E42C033A03190F2D013A0319432D073A08
:103B100003195C2D013A0319652D6E2DFF30DB0072
:103B20005B084001EC00410164080319982D992DB0
:103B3000E32D4001D60141016408DB005B08A700CA
:103B40000330AD31B5259C3141016A080319A92D17
:103B5000AA2DC92DC32D40015608203E86000230F3
:103B6000870001084101DB005B08A7000330AD318D
:103B7000B5259C3101304101DB005B084001D607CF
:103B800001304101E4026408031DC72DC82DAB2D8F
:103B9000CE2D6408DB005B084001D70041016108BD
:103BA0000319D32DD42DE12D02304101DC00043066
:103BB000DB00BA30890BDA2DDB0BDA2DDC0BDA2DCA
:103BC00000000130F62D410161080319E82DE92DAF
:103BD000F52D05304101DC000F30DB00F130890BA1
:103BE000EF2DDB0BEF2DDC0BEF2D0030080041013A
:103BF000E4000030AA000030A9002E30A8000030F8
:103C0000A700AB01B531E8259D310139031D092E0F
:103C10000A2E0C2E0230FF2F42015708560455047D
:103C200054040319142E152EA02E57085302031DF9
:103C3000232E56085202031D232E55085102031D40
:103C4000232E54085002031C262E272EA02E6E0869
:103C500003192B2E2C2E9B2E00306B0240300319A3
:103C60006A02031C342E352E9B2E02306C06031D77
:103C70003D2E6D03031D3D2E3E2E492E0030420188
:103C8000D7000030D6000030D5000030D40002301C
:103C9000FF2F03306C06033003196D060319512EF4
:103CA000522E532E3E2E6308031D612E6208031D03
:103CB000612E6108031D612E3C3060020318612EE5
:103CC000622E632E3E2E01304201DF36DE0CDD0C0B
:103CD000DC0C890B642E0130DB36DA0CD90CD80CE5
:103CE000890B6C2E0130E336E20CE10CE00C890B01
:103CF000732E50085C074101DC00420151085D3D14
:103D00004101DD00420152085E3D4101DE004201F9
:103D100053085F3D4101DF005F084301A3004101FB
:103D20005E084301A20041015D084301A100410179
:103D30005C084301A000FF304201EC05FE30ED05B8
:103D40006D18A32EA42EDE2E410164089031ED20C3
:103D50009D3142016D1450084101DC0042015108BF
:103D60004101DD00420152084101DE0042015308D9
:103D70004101DF0042016A084101E00042016B0895
:103D80004101E100E201E3016008DC076108DD3D7B
:103D90006208DE3D6308DF3D5F084201D700410154
:103DA0005E084201D60041015D084201D500410193
:103DB0005C084201D400B03125209D3142016708E2
:103DC0004101E800420166084101E700420165083F
:103DD0004101E600420164084101E500E530DC00F4
:103DE0005C08DB0064089231FB229D314101DD005B
:103DF0005D08E900690A031DFE2EFF2EE52FFF3046
:103E0000FF2F023041016906031D072F082F1C2FC9
:103E100068084201E700410167084201E6004101EC
:103E200066084201E500410165084201E4000330F3
:103E3000EC000030ED00FE2F01304201EC000030BC
:103E4000ED00FE2F053041016906031D282F292FA3
:103E5000B52F68084201E700410167084201E6000A
:103E6000410166084201E500410165084201E400A4
:103E700000304101AA000030A9000F30A800003036
:103E8000A7006430AB000030AC000430AD0000305F
:103E9000AE00B73161279D3100304101AA000030EA
:103EA000A9000530A8000030A700BB30AB000130EE
:103EB000AC000430AD000030AE00B73161279D3159
:103EC00000304101AA000030A9000130A8000030F4
:103ED000A700B730AB000130AC000430AD000030BB
:103EE000AE00B73161279D3142015308D700520817
:103EF000D6005108D5005008D4005F08031D8B2F51
:103F00005E08031D8B2F5D08031D8B2F3C305C0268
:103F100003188B2F8C2F962F3C304201D407003092
:103F2000D53D0030D63D0030D73D9F2F42015C0883
:103F3000D4075D08D53D5E08D63D5F08D73D5708DC
:103F40004301A300420156084301A2004201550863
:103F50004301A100420154084301A0000330420183
:103F6000EC000330ED000130FF2F06306906031D21
:103F7000BA2FBB2FBC2F1C2F03304201EC000030A6
:103F8000ED00FE2F053041016906031DC82FC92F22
:103F9000FE2F68084201E700410167084201E60080
:103FA000410166084201E500410165084201E40063
:103FB0003C305007D4000030513DD5000030523D18
:103FC000D6000030533DD700FE2F42016D08013A64
:103FD0000319EE2F023A0319F92FFE2F6C08013A4C
:103FE0000319012F023A0319222F0B3A0319C22F8A
:103FF000FE2F6C08033A0319222FFE2F0030080011
:104000004101C0004008B700B801B735B80DB73559
:10401000B80DB735B80DB735B80DB735B80D370889
:10402000083EB9000030383DBA003908BB003A08F4
:10403000BC000030BC1BFF30BD00BE0000303B04A4
:10404000B10001303C04B20000303D04B300003048
:104050003E04B4000830BF003F08B500B2318D22E5
:10406000A03108000230B1315721A031FF304101A9
:10407000D000FF30D100D201D301CE01CF01BE313B
:10408000C226A031BE31FE26A031003A03194928CC
:104090004A284228BE31D126A03141012408D5004A
:1040A0002308D40051085502031D58285008540213
:1040B00003185B285C2860285508D1005408D000FC
:1040C00055085302031D6628540852020318692834
:1040D0006A286E285508D3005408D2000130CE0754
:1040E0000030CF3D4F08803AC90092304902031D8D
:1040F0007B281C304E02031C7E287F283F2800307E
:104100004101BC000D30BB00B130BA005830B900DD
:104110005008AD005108AE00AF01B00140016B087E
:104120004101B40040016A084101B300400169083F
:104130004101B200400168084101B100B43174246A
:10414000A03141013008C0002F08BF002E08BE007A
:104150002D08BD00A831BE20A031410139080B3E19
:10416000D00000303A3DD1000030BC000D30BB0023
:10417000B130BA005830B9005208AD005308AE0053
:10418000AF01B00140016B084101B40040016A0871
:104190004101B300400169084101B20040016808D3
:1041A0004101B100B4317424A03141013008C00094
:1041B0002F08BF002E08BE002D08BD00A831BE206C
:1041C000A031410139080B3ED20000303A3DD30006
:1041D000FF305005C90000305105CA00FF305205BC
:1041E000CB0000305305CC004B08CC00CB01490874
:1041F0004B04C7004A084C04C80008004101D6001F
:104200004A084B0403190529062918294908CC0036
:104210004C08B5004B08B7004A08B6005608903164
:104220000120A031003A031D162917291829E02979
:1042300041015608CC00CD01CC35CD0DCC35CD0D8E
:10424000CC35CD0DCC35CD0DCC35CD0D4C08083E43
:10425000CE0000304D3DCF004E08D0004F08D100B9
:104260000030D11BFF30D200D30000305004B10029
:1042700001305104B20000305204B3000030530446
:10428000B4002030D4005408B500B2318D22A031E2
:1042900041015608CC00CD01CC35CD0DCC35CD0D2E
:1042A000CC35CD0DCC35CD0DCC35CD0D4C08083EE3
:1042B000CE0000304D3DCF004E08D0004F08D10059
:1042C0000030D11BFF30D200D30000305004A700D3
:1042D00002305104A80000305204A90000305304F9
:1042E000AA00AB01B531E825A0314101D400540842
:1042F000D500551E7C297D29AD295608CC00CD015D
:10430000CC35CD0DCC35CD0DCC35CD0DCC35CD0D41
:10431000CC35CD0D4C08083ECE0000304D3DCF00D1
:104320004E08D0004F08D1000030D11BFF30D20022
:10433000D30004305004A70002305104A80000301C
:104340005204A90000305304AA001830D4005408C5
:10435000AB00B531E825A031E029D51DB029B12940
:1043600048295608CC00CD01CC35CD0DCC35CD0D2E
:10437000CC35CD0DCC35CD0DCC35CD0D4C08083E12
:10438000CE0000304D3DCF004E08D0004F08D10088
:104390000030D11BFF30D200D30004305004A700FE
:1043A00002305104A80000305204A9000030530428
:1043B000AA000830D4005408AB00B531E825A0317C
:1043C00008004101A1016A080319E729E829FD292C
:1043D000A2304001BA000030BB000130BC00003008
:1043E000BD000130B731AF27A13140013A033B0492
:1043F0000319FB29FC29172AD32A42011D1D012A72
:10440000022A042A4001581642019D1C082A092A42
:10441000102A1D121D164001D8164101A101A10A42
:10442000420119084001C80048084101A2004101A9
:10443000210803191C2A1D2A212AB0313920A13153
:10444000D32A6B08031D252A262AC12A2208BF3138
:10445000C727A131D32A5C08C8000230C836890BAF
:104460002E2A48080F39C90049084101A0009A2A9C
:104470003F30410122054001C8005C080339C900F2
:104480000530C935FF3E031D412A49354804CA009D
:104490004A08ED00DC01DB01D901D90AB12A3F301D
:1044A000410122054001C8005C080339C9000530FC
:1044B000C935FF3E031D582A49354804BF31C72777
:1044C000A131B12A3F30410122054001C8005C08FA
:1044D0000339C9000530C935FF3E031D6B2A493534
:1044E0004804CA004A08DA00AA305A06031D792A8D
:1044F0007A2A7C2ADB01B12ADB01DB0A0130F000D9
:104500000030F100B031A220A131B12A3F30410189
:1045100022054001C8005C080339C9000530C935CF
:10452000FF3E031D8F2A49354804CA004A08EC00A3
:10453000D701B12A20084001C800C9014908003A42
:104540000319A32AB12A4808003A0319382A013A64
:1045500003194F2A033A0319622A013A0319862ADA
:10456000B12A4001DC01D32A410122084001C800E0
:104570004808DC00D32A41012208BF31C727A131F6
:10458000B12A2208C0394001C800C9014908003ACF
:104590000319CB2ABB2A4808803A03192B2A403A30
:1045A0000319B42ABB2A08007E1CD82AA131E129AC
:1045B0004101DC016A080319DE2ADF2AF32ADD3013
:1045C000CA000030CB000130CC000030CD000130FB
:1045D000A8311720A23141014A034B040319F12AE3
:1045E000F22A0C2BC82B42011D1DF72AF82AFA2AA1
:1045F0004001581642019D1CFE2AFF2A062B1D125F
:104600001D164001D8164101DC01DC0A42011908DF
:104610004101D8005808DD005C080319102B112B4C
:10462000152BB031E420A231C82B6B08031D192BC8
:104630001A2BB72B5D08B0311120A231C82B4001D5
:104640005C084101D8000230D836890B242B580869
:104650000F39D9005908DB00932B3F305D05D80096
:1046600040015C0803394101D9000530D935FF3ECE
:10467000031D362B59355804DA005A084001ED0065
:10468000DC01DB01D901D90AA92B3F305D05D80037
:1046900040015C0803394101D9000530D935FF3E9E
:1046A000031D4E2B59355804B0311120A231A92BCE
:1046B0003F305D05D80040015C0803394101D90055
:1046C0000530D935FF3E031D612B59355804DA00FA
:1046D0005A084001DA00AA305A06031D702B712BCC
:1046E000732BDB01A92BDB01DB0A01304101A300A5
:1046F0000030A400B1313E21A231A92B3F305D052D
:10470000D80040015C0803394101D9000530D93592
:10471000FF3E031D872B59355804DA005A08400123
:10472000EC00D701A92B5B08D800D9015908003A41
:1047300003199B2BA92B5808003A03192D2B013A7A
:104740000319452B033A0319582B013A03197E2B01
:10475000A92B4001DC01C82B5D08D8005808400196
:10476000DC00C82B5D08B0311120A231A92B5D08F7
:10477000C039D800D9015908003A0319C02BB22B0F
:104780005808803A03191F2B403A0319AC2BB22B5F
:1047900008004001B9003908A900AA01A935AA0DED
:1047A000A935AA0DA935AA0DA935AA0DA935AA0DB5
:1047B0002908083EAB0000302A3DAC002B08AD00B4
:1047C0002C08AE000030AE1BFF30AF00B000003050
:1047D0002D04F40026302E04F50000302F04F600DE
:1047E00000303004F70098310820A33175084001EB
:1047F000B6007408B50028083602031D012C2708EE
:1048000035020318042C052C092C3608A80035089D
:10481000A70027082804031D0E2C0F2C122CA5011D
:10482000A601C12C3908A900AA01A935AA0DA935EC
:10483000AA0DA935AA0DA935AA0DA935AA0D2908D1
:10484000083EAB0000302A3DAC002B08AD002C0820
:10485000AE000030AE1BFF30AF00B00000302D04C2
:10486000F40028302E04F50000302F04F60000304C
:104870003004F70098310820A33175084001B800D2
:104880007408B700250826040319472C482C882CE7
:104890003708A9003808AA00AB01AC010830A935D7
:1048A000AA0DAB0DAC0D890B4F2C3908AD00AE0134
:1048B000AD35AE0DAD35AE0DAD35AE0DAD35AE0D84
:1048C000AD35AE0D2D08183EAF0000302E3DB000C6
:1048D0002F08B1003008B2000030B21BFF30B30027
:1048E000B40029083104F4002A083204F5002B082A
:1048F0003304F6002C083404F7002608F9002508D4
:10490000F8002808FB002708FA00B531A325A331D9
:1049100040012708B7072808B83D3908A900AA01AF
:10492000A935AA0DA935AA0DA935AA0DA935AA0D33
:10493000A935AA0D2908083EAB0000302A3DAC007D
:104940002B08AD002C08AE000030AE1BFF30AF00CE
:10495000B00000302D04F40028302E04F5000030A3
:104960002F04F60000303004F7003808F90037084B
:10497000F800B5311D25A33140012808A6002708FD
:10498000A50008004101C9004908B900BA01B935BC
:10499000BA0DB935BA0DB935BA0DB935BA0DB93543
:1049A000BA0D3908083EBB0000303A3DBC003B0858
:1049B000BD003C08BE000030BE1BFF30BF00C00081
:1049C00000303D04A70026303E04A80000303F041C
:1049D000A90000304004AA00A9311921A4314101E5
:1049E0002808C6002708C50038084602031DFA2C0F
:1049F000370845020318FD2CFE2C022D4608B8008E
:104A00004508B70037083804031D072D082D0B2D66
:104A1000B501B601BA2D4908B900BA01B935BA0DC8
:104A2000B935BA0DB935BA0DB935BA0DB935BA0DB2
:104A30003908083EBB0000303A3DBC003B08BD00D1
:104A40003C08BE000030BE1BFF30BF00C00000307D
:104A50003D04A70028303E04A80000303F04A90010
:104A600000304004AA00A9311921A43141012808CD
:104A7000C8002708C700350836040319402D412D0A
:104A8000812D4708B9004808BA00BB01BC010830B5
:104A9000B935BA0DBB0DBC0D890B482D4908BD00B9
:104AA000BE01BD35BE0DBD35BE0DBD35BE0DBD351E
:104AB000BE0DBD35BE0D3D08183EBF0000303E3D69
:104AC000C0003F08C1004008C2000030C21BFF30D8
:104AD000C300C40039084104A7003A084204A800F2
:104AE0003B084304A9003C084404AA003608AC0073
:104AF0003508AB003808AE003708AD00B631C62621
:104B0000A43141013708C7073808C83D4908B90032
:104B1000BA01B935BA0DB935BA0DB935BA0DB935CD
:104B2000BA0DB935BA0D3908083EBB0000303A3D20
:104B3000BC003B08BD003C08BE000030BE1BFF307F
:104B4000BF00C00000303D04A70028303E04A8008C
:104B500000303F04A90000304004AA004808AC001F
:104B60004708AB00B7311327A43141013808B6001C
:104B70003708B50008004101C2004208B900BA0177
:104B8000B935BA0DB935BA0DB935BA0DB935BA0D51
:104B9000B935BA0D3908083EBB0000303A3DBC00BB
:104BA0003B08BD003C08BE000030BE1BFF30BF000C
:104BB000C00000303D04A70004303E04A8000030CF
:104BC0003F04A90000304004AA003808AC003708B0
:104BD000AB00B7311327A53141014208B900BA0132
:104BE000B935BA0DB935BA0DB935BA0DB935BA0DF1
:104BF000B935BA0D3908083EBB0000303A3DBC005B
:104C00003B08BD003C08BE000030BE1BFF30BF00AB
:104C1000C00004303D04A70002303E04A80000306C
:104C20003F04A90000304004AA000A30C100410836
:104C3000AB00B531E825A53141014208B900BA0100
:104C4000B935BA0DB935BA0DB935BA0DB935BA0D90
:104C5000B935BA0D3908083EBB0000303A3DBC00FA
:104C60003B08BD003C08BE000030BE1BFF30BF004B
:104C7000C00000303D04B10001303E04B2000030FD
:104C80003F04B30000304004B4001030C1004108BC
:104C9000B500B2318D22A53141014208B900BA01F7
:104CA000B935BA0DB935BA0DB935BA0DB935BA0D30
:104CB000B935BA0D3908083EBB0000303A3DBC009A
:104CC0003B08BD003C08BE000030BE1BFF30BF00EB
:104CD000C00004303D04A70000303E04A8000030AE
:104CE0003F04A90000304004AA00AB01AB0AB53173
:104CF000E825A53141014208B900BA01B935BA0D1C
:104D0000B935BA0DB935BA0DB935BA0DB935BA0DCF
:104D10003908083EBB0000303A3DBC003B08BD00EE
:104D20003C08BE000030BE1BFF30BF00C00000309A
:104D30003D04B10001303E04B20000303F04B30036
:104D400000304004B400B501B50AB2318D22A5315E
:104D500041014208B900BA01B935BA0DB935BA0DE9
:104D6000B935BA0DB935BA0DB935BA0D3908083E9D
:104D7000BB0000303A3DBC003B08BD003C08BE0013
:104D80000030BE1BFF30BF00C00000303D04A70054
:104D900003303E04A80000303F04A9000030400466
:104DA000AA00AB01B531E825A531133A031DD92E70
:104DB000DA2EEC2D0800B131C421A63154011F16A2
:104DC000A8316820A63109304301DD001E30DC0027
:104DD000E430890BE92EDC0BE92EDD0BE92E000017
:104DE000003040010E1901304101EB000310400179
:104DF0000E1E03140030031801304101EA00450182
:104E0000C601C70100304101A3000130A4000130F8
:104E1000A500B331DF23A6314501D5015518112F67
:104E2000122F152FC801C901192F0830C8000030F2
:104E3000C900B2310322A631FF30410123054301ED
:104E4000DC000030410124054301DD004501480A32
:104E500043012C2FDC35DD0D890B2A2F5C08450121
:104E6000C60643015D084501C70601304301DC0069
:104E70005C084501D50709305502031C402F412F1E
:104E80000E2F47084101A400450146084101A30037
:104E9000BF319B27A63101304101AA000030AB0091
:104EA0000130AC00BF31D927A63141012B084301A5
:104EB000DC005C084501C40044083F394301DC00C4
:104EC0005C08E80041016A08031D672F682F862FE0
:104ED000400194119A1105304301DD000F30DC00D0
:104EE000F130890B712FDC0B712FDD0B712F03104B
:104EF00040010E1E03140030031801304301B200BC
:104F000032080319842F852F862FE7014001941260
:104F10009A1241016A0803198E2F8F2FA02FB231E8
:104F2000DC22A6310130B331B123A6310130B131D9
:104F30001021A631B131A621A6314301E701D92FB5
:104F40004001181315304301DD004B30DC00BE304A
:104F5000890BA82FDC0BA82FDD0BA82F0000400128
:104F6000181705304301DD000F30DC00F130890BEC
:104F7000B72FDC0BB72FDD0BB72F43013208031916
:104F8000C22FC32FC62FB6317A26A63141016B0836
:104F9000031DCB2FCC2FD32FB0316320A631B031DE
:104FA000CE20A631D92FB231DC22A631B231B422C3
:104FB000A63104304101A3000830A400BF314027CE
:104FC000A631BE31BF26A63109304301DD001E30B7
:104FD000DC00E430890BEA2FDC0BEA2FDD0BEA2F33
:104FE000000000304101A300A400B1313E21A631F0
:104FF00041016B080319FE2FA931FC29AA31272A88
:105000004E018C1201304001CB070030CC3D003006
:105010004C027A3003194B02031C0F281028162863
:10502000BF317427A8314001CB01CC0108004101F8
:10503000D7004B08B6004A08B5004D08B8004C0828
:10504000B7005708A431C224A83141013608CD0069
:105050003508CC004C084D04031D2F283028332878
:10506000CA01CB0167285708CE00CF01CE35CF0D3E
:10507000CE35CF0DCE35CF0DCE35CF0DCE35CF0DB4
:105080004E08083ED00000304F3DD1005008D200FD
:105090005108D3000030D31BFF30D400D5000430BA
:1050A0005204A70001305304A80000305404A900A2
:1050B00000305504AA004030D6005608AB00B53188
:1050C000E825A83141014D08CB004C08CA00080072
:1050D00016304101AA000130AB000130AC00BF31F5
:1050E000D927A83141012B08AE002A08AD000A30AB
:1050F000AF000030B000B131E321A83141012E08EA
:105100004301EB0041012D084301EA001930410140
:10511000AA000130AB000130AC00BF31D927A83163
:1051200041012A08B9002B08BA00BB01BC013C08A8
:10513000B0003B08AF003A08AE003908AD000030BF
:10514000B4000030B3000030B2006430B100B431BC
:105150007424A831410130084001EB0041012F08BF
:105160004001EA0041012E084001E90041012D08FB
:105170004001E800B3312D23A8310800003041017F
:10518000C5000030C4000030C3000030C2003C083D
:105190003B043A0439040319CE28CF281029C6014C
:1051A000C60ADD280130B935BA0DBB0DBC0D890B1F
:1051B000D3280130C1004108C607BC1FE028E12800
:1051C000D2280130C235C30DC40DC50D890BE228AC
:1051D0003C084002031DF6283B083F02031DF62849
:1051E0003A083E02031DF62839083D02031CF9283F
:1051F000FA2803293908BD023A08BE3B3B08BF3BE9
:105200003C08C03B42140130BC36BB0CBA0CB90C94
:10521000890B04290130C602031D0F291029E1283A
:105220004508BC004408BB004308BA004208B90066
:1052300008004101B201B20A400199124101270858
:10524000AB002808AC002908AD002A08AE001030D9
:10525000AE36AD0CAC0CAB0C890B28292B08AF007B
:105260002F084001DF0041012708AB002808AC00EF
:105270002908AD002A08AE000830AE36AD0CAC0CE3
:10528000AB0C890B3D292B08AF002F084001E00033
:1052900041012708AB002B084001E1005F304101CC
:1052A000A3000030A4000530A5000030A600B331F3
:1052B0000423A9314001991641013408B100330893
:1052C000B000400163084101AB00AC01400162083D
:1052D0004101AD00AE012D08AE00AD012B082D043B
:1052E000B3002C082E04B400320803197829792958
:1052F0007B29B2011C2931083406031D812930089D
:105300003306031D842985291C293408A800330885
:10531000A70008004101C100BE294108B700B8013B
:10532000B735B80DB735B80DB735B80DB735B80DB9
:10533000B735B80D3708083EB9000030383DBA001F
:105340003908BB003A08BC000030BC1BFF30BD0070
:10535000BE0000303B04B10001303C04B20000301C
:105360003D04B30000303E04B4001030BF003F08DD
:10537000B500B2318D22A9310130FB294108B700B7
:10538000B801B735B80DB735B80DB735B80DB73565
:10539000B80DB735B80D3708083EB9000030383DB4
:1053A000BA003908BB003A08BC000030BC1BFF3013
:1053B000BD00BE0000303B04A70003303C04A80041
:1053C00000303D04A90000303E04AA00AB01B53115
:1053D000E825A9314101BF00C0014008003A031986
:1053E000F229FA293F08003A0319BC291C3A03198B
:1053F0008D29FA29003008004501D60115305602E2
:10540000031C032A042A052A3C2A03304301DD0039
:105410000830DC007730890B0B2ADC0B0B2ADD0B04
:105420000B2A450156084301DC00DD015C084101FF
:10543000A30043015D084101A400B1313E21A9311F
:1054400001304301DC005C084501D607FE29093024
:105450004301DD001E30DC00E430890B2D2ADC0B1B
:105460002D2ADD0B2D2A000001304101A300003060
:10547000A400B1313E21A9314501D70141016A089B
:105480000319432A452A8D31682D4501D901003081
:105490004101AA000030A9003930A8000030A7005F
:1054A000AB01B531E825A9314301DC005C084501B9
:1054B000C5000430450603195E2A602A8C31232C6E
:1054C00059080319642A652A6E2AD901003041015E
:1054D000A300A400B1313E21A931782AD901D90A0B
:1054E00014304101A3000030A400B1313E21A931A4
:1054F0000B304301DD002630DC005D30890B7E2A55
:10550000DC0B7E2ADD0B7E2A003200309C317224B7
:10551000A931472AFC3041019E053F30B131572166
:10552000AA3100304101D1000030D0000030CF005E
:105530000030CE00D201D3010D30890B9D2A00002E
:10554000BE31C226AA31BE31FE26AA31003A031965
:10555000AA2AAB2AA32ABE31D126AA3141012308A7
:10556000CE072408CF3D0030D03DD13D0130D207D9
:105570000030D33D5308803AC90080304902031DF2
:10558000C32A0A305202031CC62AC72A9C2A0330A7
:1055900041019E040030BC000030BB000030BA0066
:1055A0000A30B90040016B084101B00040016A08AF
:1055B0004101AF00400169084101AE0040016808A7
:1055C0004101AD000030B4000030B3000330B20040
:1055D000FF30B100B4317424AA3141013008C00059
:1055E0002F08BF002E08BE002D08BD00A831BE2028
:1055F000AA3141013C08CD003B08CC003A08CB0061
:105600003908CA005108BC005008BB004F08BA0056
:105610004E08B9004D08C0004C08BF004B08BE0042
:105620004A08BD00A831BE20AA3141013A08C8008D
:105630003908C7000800FA0154011D1D202B212B39
:10564000232B4001581454019D1C272B282B2E2B53
:105650001D121D164001D814FA01FA0A5401190846
:10566000F9007908FC007A080319372B382B3C2BFA
:10567000B0313920AB31B72B41016B08031D412BF1
:10568000422B4B2B7C08F9007908F4000130AD3136
:105690000625AB31B72B40015B03031D502B512B6B
:1056A000892BAA307C06031D562B572B892B3F30A4
:1056B00043016802031C5D2B5E2B662BE430003235
:1056C0000032890B5F2B00320032762B6808F9001C
:1056D0007908FB007B08031D6E2B6F2B702B762B3C
:1056E0001830890B712B0130FB026A2B40015A08DC
:1056F000BF31C727AB310230F90079084001DB0028
:105700007C08F9007908F4000130AD310625AB3191
:10571000B72B02305B06031D8E2B8F2BAF2B7C0823
:105720005A06031D942B952B9E2B7C08F9007908B3
:10573000F4000230AD310625AB31A62B7C08F90010
:105740007908F4000A30AD310625AB314001DB01A8
:105750000030F000F100B031A220AB31B72B7C0853
:10576000F9007908F4000130AD310625AB310800AD
:105770003C30B1315721AB3100304101D80000300D
:10578000D7000030D6000030D500D901DA010D3045
:10579000890BC82B0000BE31C226AB3198310020E6
:1057A000AB31BE31FE26AB31003A0319D82BD92BD1
:1057B000D12BBE31D126AB3141012308D5072408B6
:1057C000D63D0030D73DD83D0130D9070030DA3D15
:1057D0005A08803AC90080304902031DF12B0A3073
:1057E0005902031CF42BF52BC72B43016A08410116
:1057F000C90043016B084101CA00CB01CC01550827
:10580000CD005608CE005708CF005808D000013010
:10581000CD35CE0DCF0DD00D890B082C4908CD020A
:105820004A08CE3B4B08CF3B4C08D03B5008B00059
:105830004F08AF004E08AE004D08AD0040016B08A8
:105840004101B40040016A084101B3004001690808
:105850004101B200400168084101B100B431742433
:10586000AB3141013008D4002F08D3002E08D200FC
:105870002D08D1000030BC003930BB008130BA00A7
:105880009C30B9005408C0005308BF005208BE0045
:105890005108BD00A831BE20AB315A304101C900CA
:1058A00039084902C7003A090318890AC8000800E4
:1058B0004101C200C52C4208B800B901B835B90D84
:1058C000B835B90DB835B90DB835B90DB835B90D0C
:1058D0003808083EBA000030393DBB003A08BC0029
:1058E0003B08BD000030BD1BFF30BE00BF000030D4
:1058F0003C04B10001303D04B20000303E04B3006E
:1059000000303F04B4000230C0004008B500B2319E
:105910008D22AC31042D370803198F2C902CC32C09
:105920004208B800B901B835B90DB835B90DB83568
:10593000B90DB835B90DB835B90D3808083EBA00FB
:105940000030393DBB003A08BC003B08BD000030C8
:10595000BD1BFF30BE00BF0000303C04A7000C3070
:105960003D04A80000303E04A90000303F04AA0016
:105970003708AB000030AC000430AD000030AE00A2
:10598000B631C626AC310130052D4208B800B90148
:10599000B835B90DB835B90DB835B90DB835B90D3B
:1059A000B835B90D3808083EBA000030393DBB00A3
:1059B0003A08BC003B08BD000030BD1BFF30BE00F4
:1059C000BF0000303C04A70003303D04A8000030B5
:1059D0003E04A90000303F04AA00AB01B531E82520
:1059E000AC314101C000C1014108003A0319F92C52
:1059F000042D4008133A03195B2C073A0319042DB0
:105A0000033A03198B2C042D00300800F8004101E3
:105A10006A0803190C2D0D2D5B2DBE304301690260
:105A2000031C132D142D152DB42D41016B080319E2
:105A30001A2D1B2D262D7803031D1F2D202D342DEF
:105A4000803074020318252D262D342D7408F5009E
:105A50004301690886000230870075088100013023
:105A6000F5007508E907B42D7408F5000630F53621
:105A7000890B372D7808F6000130F635FF3E031DFF
:105A80003D2D76357504C038F7004301690886005E
:105A900002308700770881000130F5007508E907BA
:105AA00074083F398038F5006908860002308700A5
:105AB000750881002F2D430132080319602D612DD7
:105AC0006C2D67080319652D662DB42D40018D1CC2
:105AD0006A2D6B2D6C2DB42DBE31F026AD31003A00
:105AE0000319732D742D7A2D40015D080319792D4A
:105AF0007A2D802D4E011916B0313920AD31B42DDB
:105B000041016B080319852D862D912D7803031D06
:105B10008A2D8B2D962D803074020318902D912D97
